{"contracts/HemDealer.sol":{"HemDealer":{"abi":[{"inputs":[],"stateMutability":"nonpayable","type":"constructor"},{"anonymous":false,"inputs":[{"indexed":true,"internalType":"address","name":"owner","type":"address"},{"indexed":true,"internalType":"address","name":"approved","type":"address"},{"indexed":true,"internalType":"uint256","name":"tokenId","type":"uint256"}],"name":"Approval","type":"event"},{"anonymous":false,"inputs":[{"indexed":true,"internalType":"address","name":"owner","type":"address"},{"indexed":true,"internalType":"address","name":"operator","type":"address"},{"indexed":false,"internalType":"bool","name":"approved","type":"bool"}],"name":"ApprovalForAll","type":"event"},{"anonymous":false,"inputs":[{"indexed":true,"internalType":"uint256","name":"carId","type":"uint256"},{"indexed":true,"internalType":"address","name":"owner","type":"address"}],"name":"CarDeleted","type":"event"},{"anonymous":false,"inputs":[{"indexed":true,"internalType":"uint256","name":"carId","type":"uint256"},{"indexed":true,"internalType":"address","name":"seller","type":"address"},{"indexed":false,"internalType":"uint256","name":"price","type":"uint256"}],"name":"CarListed","type":"event"},{"anonymous":false,"inputs":[{"indexed":true,"internalType":"uint256","name":"carId","type":"uint256"},{"indexed":true,"internalType":"address","name":"seller","type":"address"},{"indexed":true,"internalType":"address","name":"buyer","type":"address"},{"indexed":false,"internalType":"uint256","name":"price","type":"uint256"}],"name":"CarSold","type":"event"},{"anonymous":false,"inputs":[{"indexed":true,"internalType":"uint256","name":"carId","type":"uint256"},{"indexed":true,"internalType":"address","name":"owner","type":"address"}],"name":"CarUpdated","type":"event"},{"anonymous":false,"inputs":[{"indexed":true,"internalType":"address","name":"previousOwner","type":"address"},{"indexed":true,"internalType":"address","name":"newOwner","type":"address"}],"name":"OwnershipTransferred","type":"event"},{"anonymous":false,"inputs":[{"indexed":true,"internalType":"uint256","name":"carId","type":"uint256"},{"indexed":true,"internalType":"uint256","name":"reviewId","type":"uint256"},{"indexed":true,"internalType":"address","name":"reviewer","type":"address"}],"name":"ReviewAdded","type":"event"},{"anonymous":false,"inputs":[{"indexed":true,"internalType":"uint256","name":"carId","type":"uint256"},{"indexed":true,"internalType":"uint256","name":"reviewId","type":"uint256"}],"name":"ReviewDeleted","type":"event"},{"anonymous":false,"inputs":[{"indexed":true,"internalType":"address","name":"from","type":"address"},{"indexed":true,"internalType":"address","name":"to","type":"address"},{"indexed":true,"internalType":"uint256","name":"tokenId","type":"uint256"}],"name":"Transfer","type":"event"},{"inputs":[{"internalType":"address","name":"to","type":"address"},{"internalType":"uint256","name":"tokenId","type":"uint256"}],"name":"approve","outputs":[],"stateMutability":"nonpayable","type":"function"},{"inputs":[{"internalType":"address","name":"owner","type":"address"}],"name":"balanceOf","outputs":[{"internalType":"uint256","name":"","type":"uint256"}],"stateMutability":"view","type":"function"},{"inputs":[{"internalType":"uint256","name":"carId","type":"uint256"}],"name":"buyCar","outputs":[],"stateMutability":"payable","type":"function"},{"inputs":[{"internalType":"uint256","name":"newCarId","type":"uint256"},{"internalType":"string","name":"comment","type":"string"}],"name":"createReview","outputs":[],"stateMutability":"nonpayable","type":"function"},{"inputs":[{"internalType":"uint256","name":"newCarId","type":"uint256"}],"name":"deleteCar","outputs":[],"stateMutability":"nonpayable","type":"function"},{"inputs":[{"internalType":"uint256","name":"newCarId","type":"uint256"},{"internalType":"uint256","name":"reviewId","type":"uint256"}],"name":"deleteReview","outputs":[],"stateMutability":"nonpayable","type":"function"},{"inputs":[],"name":"getAllCars","outputs":[{"components":[{"internalType":"uint256","name":"id","type":"uint256"},{"internalType":"address","name":"owner","type":"address"},{"internalType":"string","name":"name","type":"string"},{"internalType":"string[]","name":"images","type":"string[]"},{"internalType":"string","name":"description","type":"string"},{"internalType":"string","name":"make","type":"string"},{"internalType":"string","name":"model","type":"string"},{"internalType":"uint256","name":"year","type":"uint256"},{"internalType":"uint256","name":"vin","type":"uint256"},{"internalType":"uint256","name":"mileage","type":"uint256"},{"internalType":"string","name":"color","type":"string"},{"internalType":"enum HemDealer.CarCondition","name":"condition","type":"uint8"},{"internalType":"enum HemDealer.CarTransmission","name":"transmission","type":"uint8"},{"internalType":"enum HemDealer.FuelType","name":"fuelType","type":"uint8"},{"internalType":"uint256","name":"price","type":"uint256"},{"internalType":"string","name":"location","type":"string"},{"internalType":"string[]","name":"features","type":"string[]"},{"components":[{"internalType":"uint256","name":"reviewId","type":"uint256"},{"internalType":"address","name":"reviewer","type":"address"},{"internalType":"string","name":"comment","type":"string"},{"internalType":"uint256","name":"timestamp","type":"uint256"},{"internalType":"bool","name":"deleted","type":"bool"}],"internalType":"struct HemDealer.ReviewStruct[]","name":"reviews","type":"tuple[]"},{"components":[{"internalType":"address","name":"wallet","type":"address"},{"internalType":"string","name":"sellerName","type":"string"},{"internalType":"string","name":"email","type":"string"},{"internalType":"uint256","name":"phoneNumber","type":"uint256"},{"internalType":"string","name":"profileImage","type":"string"}],"internalType":"struct HemDealer.SellerDetails","name":"seller","type":"tuple"},{"internalType":"bool","name":"sold","type":"bool"},{"internalType":"bool","name":"deleted","type":"bool"}],"internalType":"struct HemDealer.CarStruct[]","name":"","type":"tuple[]"}],"stateMutability":"view","type":"function"},{"inputs":[],"name":"getAllSales","outputs":[{"components":[{"internalType":"uint256","name":"id","type":"uint256"},{"internalType":"uint256","name":"newCarId","type":"uint256"},{"internalType":"uint256","name":"price","type":"uint256"},{"internalType":"address","name":"owner","type":"address"}],"internalType":"struct HemDealer.SalesStruct[]","name":"","type":"tuple[]"}],"stateMutability":"view","type":"function"},{"inputs":[{"internalType":"uint256","name":"tokenId","type":"uint256"}],"name":"getApproved","outputs":[{"internalType":"address","name":"","type":"address"}],"stateMutability":"view","type":"function"},{"inputs":[{"internalType":"uint256","name":"newCarId","type":"uint256"}],"name":"getCar","outputs":[{"components":[{"internalType":"uint256","name":"id","type":"uint256"},{"internalType":"address","name":"owner","type":"address"},{"internalType":"string","name":"name","type":"string"},{"internalType":"string[]","name":"images","type":"string[]"},{"internalType":"string","name":"description","type":"string"},{"internalType":"string","name":"make","type":"string"},{"internalType":"string","name":"model","type":"string"},{"internalType":"uint256","name":"year","type":"uint256"},{"internalType":"uint256","name":"vin","type":"uint256"},{"internalType":"uint256","name":"mileage","type":"uint256"},{"internalType":"string","name":"color","type":"string"},{"internalType":"enum HemDealer.CarCondition","name":"condition","type":"uint8"},{"internalType":"enum HemDealer.CarTransmission","name":"transmission","type":"uint8"},{"internalType":"enum HemDealer.FuelType","name":"fuelType","type":"uint8"},{"internalType":"uint256","name":"price","type":"uint256"},{"internalType":"string","name":"location","type":"string"},{"internalType":"string[]","name":"features","type":"string[]"},{"components":[{"internalType":"uint256","name":"reviewId","type":"uint256"},{"internalType":"address","name":"reviewer","type":"address"},{"internalType":"string","name":"comment","type":"string"},{"internalType":"uint256","name":"timestamp","type":"uint256"},{"internalType":"bool","name":"deleted","type":"bool"}],"internalType":"struct HemDealer.ReviewStruct[]","name":"reviews","type":"tuple[]"},{"components":[{"internalType":"address","name":"wallet","type":"address"},{"internalType":"string","name":"sellerName","type":"string"},{"internalType":"string","name":"email","type":"string"},{"internalType":"uint256","name":"phoneNumber","type":"uint256"},{"internalType":"string","name":"profileImage","type":"string"}],"internalType":"struct HemDealer.SellerDetails","name":"seller","type":"tuple"},{"internalType":"bool","name":"sold","type":"bool"},{"internalType":"bool","name":"deleted","type":"bool"}],"internalType":"struct HemDealer.CarStruct","name":"","type":"tuple"}],"stateMutability":"view","type":"function"},{"inputs":[],"name":"getMyCars","outputs":[{"components":[{"internalType":"uint256","name":"id","type":"uint256"},{"internalType":"address","name":"owner","type":"address"},{"internalType":"string","name":"name","type":"string"},{"internalType":"string[]","name":"images","type":"string[]"},{"internalType":"string","name":"description","type":"string"},{"internalType":"string","name":"make","type":"string"},{"internalType":"string","name":"model","type":"string"},{"internalType":"uint256","name":"year","type":"uint256"},{"internalType":"uint256","name":"vin","type":"uint256"},{"internalType":"uint256","name":"mileage","type":"uint256"},{"internalType":"string","name":"color","type":"string"},{"internalType":"enum HemDealer.CarCondition","name":"condition","type":"uint8"},{"internalType":"enum HemDealer.CarTransmission","name":"transmission","type":"uint8"},{"internalType":"enum HemDealer.FuelType","name":"fuelType","type":"uint8"},{"internalType":"uint256","name":"price","type":"uint256"},{"internalType":"string","name":"location","type":"string"},{"internalType":"string[]","name":"features","type":"string[]"},{"components":[{"internalType":"uint256","name":"reviewId","type":"uint256"},{"internalType":"address","name":"reviewer","type":"address"},{"internalType":"string","name":"comment","type":"string"},{"internalType":"uint256","name":"timestamp","type":"uint256"},{"internalType":"bool","name":"deleted","type":"bool"}],"internalType":"struct HemDealer.ReviewStruct[]","name":"reviews","type":"tuple[]"},{"components":[{"internalType":"address","name":"wallet","type":"address"},{"internalType":"string","name":"sellerName","type":"string"},{"internalType":"string","name":"email","type":"string"},{"internalType":"uint256","name":"phoneNumber","type":"uint256"},{"internalType":"string","name":"profileImage","type":"string"}],"internalType":"struct HemDealer.SellerDetails","name":"seller","type":"tuple"},{"internalType":"bool","name":"sold","type":"bool"},{"internalType":"bool","name":"deleted","type":"bool"}],"internalType":"struct HemDealer.CarStruct[]","name":"","type":"tuple[]"}],"stateMutability":"view","type":"function"},{"inputs":[{"internalType":"uint256","name":"newCarId","type":"uint256"}],"name":"getReviews","outputs":[{"components":[{"internalType":"uint256","name":"reviewId","type":"uint256"},{"internalType":"address","name":"reviewer","type":"address"},{"internalType":"string","name":"comment","type":"string"},{"internalType":"uint256","name":"timestamp","type":"uint256"},{"internalType":"bool","name":"deleted","type":"bool"}],"internalType":"struct HemDealer.ReviewStruct[]","name":"","type":"tuple[]"}],"stateMutability":"view","type":"function"},{"inputs":[{"internalType":"address","name":"owner","type":"address"},{"internalType":"address","name":"operator","type":"address"}],"name":"isApprovedForAll","outputs":[{"internalType":"bool","name":"","type":"bool"}],"stateMutability":"view","type":"function"},{"inputs":[{"components":[{"internalType":"string","name":"name","type":"string"},{"internalType":"string[]","name":"images","type":"string[]"},{"internalType":"string","name":"description","type":"string"},{"internalType":"string","name":"make","type":"string"},{"internalType":"string","name":"model","type":"string"},{"internalType":"uint256","name":"year","type":"uint256"},{"internalType":"uint256","name":"vin","type":"uint256"}],"internalType":"struct HemDealer.CarBasicDetails","name":"basicDetails","type":"tuple"},{"components":[{"internalType":"uint256","name":"mileage","type":"uint256"},{"internalType":"string","name":"color","type":"string"},{"internalType":"enum HemDealer.CarCondition","name":"condition","type":"uint8"},{"internalType":"enum HemDealer.CarTransmission","name":"transmission","type":"uint8"},{"internalType":"enum HemDealer.FuelType","name":"fuelType","type":"uint8"},{"internalType":"uint256","name":"price","type":"uint256"}],"internalType":"struct HemDealer.CarTechnicalDetails","name":"technicalDetails","type":"tuple"},{"components":[{"internalType":"string","name":"location","type":"string"},{"internalType":"string","name":"carHistory","type":"string"},{"internalType":"string[]","name":"features","type":"string[]"}],"internalType":"struct HemDealer.CarAdditionalInfo","name":"additionalInfo","type":"tuple"},{"components":[{"internalType":"address","name":"wallet","type":"address"},{"internalType":"string","name":"sellerName","type":"string"},{"internalType":"string","name":"email","type":"string"},{"internalType":"uint256","name":"phoneNumber","type":"uint256"},{"internalType":"string","name":"profileImage","type":"string"}],"internalType":"struct HemDealer.SellerDetails","name":"sellerDetails","type":"tuple"}],"name":"listCar","outputs":[],"stateMutability":"nonpayable","type":"function"},{"inputs":[],"name":"name","outputs":[{"internalType":"string","name":"","type":"string"}],"stateMutability":"view","type":"function"},{"inputs":[],"name":"owner","outputs":[{"internalType":"address","name":"","type":"address"}],"stateMutability":"view","type":"function"},{"inputs":[{"internalType":"uint256","name":"tokenId","type":"uint256"}],"name":"ownerOf","outputs":[{"internalType":"address","name":"","type":"address"}],"stateMutability":"view","type":"function"},{"inputs":[],"name":"renounceOwnership","outputs":[],"stateMutability":"nonpayable","type":"function"},{"inputs":[{"internalType":"address","name":"from","type":"address"},{"internalType":"address","name":"to","type":"address"},{"internalType":"uint256","name":"tokenId","type":"uint256"}],"name":"safeTransferFrom","outputs":[],"stateMutability":"nonpayable","type":"function"},{"inputs":[{"internalType":"address","name":"from","type":"address"},{"internalType":"address","name":"to","type":"address"},{"internalType":"uint256","name":"tokenId","type":"uint256"},{"internalType":"bytes","name":"data","type":"bytes"}],"name":"safeTransferFrom","outputs":[],"stateMutability":"nonpayable","type":"function"},{"inputs":[{"internalType":"address","name":"operator","type":"address"},{"internalType":"bool","name":"approved","type":"bool"}],"name":"setApprovalForAll","outputs":[],"stateMutability":"nonpayable","type":"function"},{"inputs":[{"internalType":"bytes4","name":"interfaceId","type":"bytes4"}],"name":"supportsInterface","outputs":[{"internalType":"bool","name":"","type":"bool"}],"stateMutability":"view","type":"function"},{"inputs":[],"name":"symbol","outputs":[{"internalType":"string","name":"","type":"string"}],"stateMutability":"view","type":"function"},{"inputs":[{"internalType":"uint256","name":"tokenId","type":"uint256"}],"name":"tokenURI","outputs":[{"internalType":"string","name":"","type":"string"}],"stateMutability":"view","type":"function"},{"inputs":[{"internalType":"address","name":"from","type":"address"},{"internalType":"address","name":"to","type":"address"},{"internalType":"uint256","name":"tokenId","type":"uint256"}],"name":"transferFrom","outputs":[],"stateMutability":"nonpayable","type":"function"},{"inputs":[{"internalType":"address","name":"newOwner","type":"address"}],"name":"transferOwnership","outputs":[],"stateMutability":"nonpayable","type":"function"},{"inputs":[{"internalType":"uint256","name":"newCarId","type":"uint256"},{"components":[{"internalType":"string","name":"name","type":"string"},{"internalType":"string[]","name":"images","type":"string[]"},{"internalType":"string","name":"description","type":"string"},{"internalType":"string","name":"make","type":"string"},{"internalType":"string","name":"model","type":"string"},{"internalType":"uint256","name":"year","type":"uint256"},{"internalType":"uint256","name":"vin","type":"uint256"}],"internalType":"struct HemDealer.CarBasicDetails","name":"basicDetails","type":"tuple"},{"components":[{"internalType":"uint256","name":"mileage","type":"uint256"},{"internalType":"string","name":"color","type":"string"},{"internalType":"enum HemDealer.CarCondition","name":"condition","type":"uint8"},{"internalType":"enum HemDealer.CarTransmission","name":"transmission","type":"uint8"},{"internalType":"enum HemDealer.FuelType","name":"fuelType","type":"uint8"},{"internalType":"uint256","name":"price","type":"uint256"}],"internalType":"struct HemDealer.CarTechnicalDetails","name":"technicalDetails","type":"tuple"},{"components":[{"internalType":"string","name":"location","type":"string"},{"internalType":"string","name":"carHistory","type":"string"},{"internalType":"string[]","name":"features","type":"string[]"}],"internalType":"struct HemDealer.CarAdditionalInfo","name":"additionalInfo","type":"tuple"},{"components":[{"internalType":"address","name":"wallet","type":"address"},{"internalType":"string","name":"sellerName","type":"string"},{"internalType":"string","name":"email","type":"string"},{"internalType":"uint256","name":"phoneNumber","type":"uint256"},{"internalType":"string","name":"profileImage","type":"string"}],"internalType":"struct HemDealer.SellerDetails","name":"sellerDetails","type":"tuple"}],"name":"updateCar","outputs":[],"stateMutability":"nonpayable","type":"function"}],"evm":{"bytecode":{"linkReferences":{},"object":"608034620003a4576040906001600160401b0390808301828111828210176200038e57835260098152602091682432b6a232b0b632b960b91b83830152835190848201828110828211176200038e57855260038083526248444d60e81b8584015260008054336001600160a01b0319821681178355929591949192906001600160a01b03167f8be0079c531659141344cd1fd0a4f28419497f9722a3daafe3b4186f6b6457e08680a360019384805582518481116200037a57600254938685811c951680156200036f575b898610146200035b578190601f9586811162000307575b508990868311600114620002a257849262000296575b505060001982891b1c191690861b176002555b8151938411620002825785548581811c9116801562000277575b8882101462000263578381116200021b575b5086928411600114620001b85791839491849394620001ac575b50501b9160001990841b1c19161790555b3315620001775750516157539081620003aa8239f35b606491519062461bcd60e51b82526004820152601060248201526f24b73b30b634b2103232b83637bcb2b960811b6044820152fd5b01519250388062000150565b919083601f198116878552888520945b8988838310620002035750505010620001ea575b505050811b01905562000161565b015160001983861b60f8161c19169055388080620001dc565b868601518855909601959485019487935001620001c8565b8682528782208480870160051c8201928a881062000259575b0160051c019086905b8281106200024d57505062000136565b8381550186906200023d565b9250819262000234565b634e487b7160e01b82526022600452602482fd5b90607f169062000124565b634e487b7160e01b81526041600452602490fd5b015190503880620000f7565b600285528a85208994509190601f198416865b8d828210620002f05750508411620002d7575b505050811b016002556200010a565b0151600019838b1b60f8161c19169055388080620002c8565b8385015186558c97909501949384019301620002b5565b909150600284528984208680850160051c8201928c861062000351575b918a91869594930160051c01915b82811062000342575050620000e1565b8681558594508a910162000332565b9250819262000324565b634e487b7160e01b83526022600452602483fd5b94607f1694620000ca565b634e487b7160e01b82526041600452602482fd5b634e487b7160e01b600052604160045260246000fd5b600080fdfe6101c080604052600436101561001457600080fd5b60003560e01c90816301ffc9a7146142785750806306fdde03146141d2578063081812fc146141b4578063095ea7b31461403a5780630d5d841a14612a8d57806323b872dd14612a6957806324d41a03146128325780632c0e839b146125ce5780633339691714612409578063341fa05d146122f857806342842e0e146122c55780635e8be1901461223957806360098088146120c35780636352211e146120935780636c23106014611ddd57806370a0823114611d46578063715018a614611ced57806382925893146107b85780638da5cb5b1461078f57806395d89b41146106ad5780639d4a22551461052a578063a22cb4651461044f578063abfe5d5714610363578063b88d4fde146102dc578063c87b56dd14610268578063e985e9c5146102125763f2fde38b1461014957600080fd5b3461020d57602036600319011261020d57610162614323565b61016a6148da565b6001600160a01b039081169081156101b957600054826001600160601b0360a01b821617600055167f8be0079c531659141344cd1fd0a4f28419497f9722a3daafe3b4186f6b6457e0600080a3005b60405162461bcd60e51b815260206004820152602660248201527f4f776e61626c653a206e6577206f776e657220697320746865207a65726f206160448201526564647265737360d01b6064820152608490fd5b600080fd5b3461020d57604036600319011261020d5761022b614323565b610233614339565b9060018060a01b03809116600052600760205260406000209116600052602052602060ff604060002054166040519015158152f35b3461020d57602036600319011261020d576102a261029d600435600052600460205260018060a01b0360406000205416151590565b614932565b60006040516102b0816143a1565b526102d86040516102c0816143a1565b600081526040519182916020835260208301906142e3565b0390f35b3461020d57608036600319011261020d576102f5614323565b6102fd614339565b90606435906044356001600160401b03831161020d573660238401121561020d576103619361033961035c9436906024816004013591016143f8565b9261034c6103478433614b98565b614abf565b610357838383614c60565b614e9c565b614b74565b005b3461020d57600036600319011261020d5760088054600060015b8281111561040f575061038f9061566b565b91600160005b838211156103ab57604051806102d88782614878565b81600052600b60205260406000209160ff6015840154851c16156103db575b6103d591925061565c565b90610395565b610406826103f56103ef6103d5959261565c565b956154bd565b6103ff828a6156bb565b52876156bb565b508291506103ca565b80600052600b60205260ff601560406000200154851c161561043a575b6104359061565c565b61037d565b906104476104359161565c565b91905061042c565b3461020d57604036600319011261020d57610468614323565b602435908115159081830361020d576001600160a01b0316913383146104e5576104b79033600052600760205260406000208460005260205260406000209060ff801983541691151516179055565b6040519081527f17307eab39ab6107e8899845ad3d59bd9653f200f220920489ca2b5937696c3160203392a3005b60405162461bcd60e51b815260206004820152601960248201527f4552433732313a20617070726f766520746f2063616c6c6572000000000000006044820152606490fd5b3461020d5760208060031936011261020d576004359081600052600b9182825260ff6105638160156040600020015460081c1615615425565b60009160005b81600052858552600f60406000200180548210156105bb57600461058e838693615701565b50015416156105a6575b6105a19061565c565b610569565b926105b36105a19161565c565b939050610598565b50509291936105c98561444d565b946105d760405196876143bc565b8086526105e6601f199161444d565b018360005b8281106106975750505060009260005b85600052828252600f806040600020018054831015610684576004610621848893615701565b500154161561063a575b506106359061565c565b6105fb565b819561066261065c6106359461067d948b600052888852604060002001615701565b5061527f565b61066c828b6156bb565b52610677818a6156bb565b5061565c565b949061062b565b604051848152806102d88187018c61461c565b61069f614f92565b82828a0101520184906105eb565b3461020d57600036600319011261020d5760405160006003546106cf816149a1565b80845290600190818116908115610768575060011461070d575b6102d8846106f9818603826143bc565b6040519182916020835260208301906142e3565b6003600090815292507fc2575a0e9e593c00f959f8c92f12db2869c3395a3b0502d05e2516446f71f85b5b8284106107505750505081016020016106f9826106e9565b80546020858701810191909152909301928101610738565b60ff191660208087019190915292151560051b850190920192506106f991508390506106e9565b3461020d57600036600319011261020d576000546040516001600160a01b039091168152602090f35b3461020d5760031960803682011261020d576001600160401b036004351161020d5760e0816004353603011261020d576001600160401b036024351161020d5760c0816024353603011261020d576001600160401b036044351161020d576060816044353603011261020d5760643590816080526001600160401b03821161020d5760a0913603011261020d5761084d6151a2565b6080516004016001600160a01b0361086482614f17565b1633149081611cd1575b5015611c9b5760a4602435013515611c6657610894602460043501600435600401614f2b565b905015611c35576301e1338042046107b2810181116114d7576107b20160a4600435013511611c0157633b9aca00602435600401351015611bca576008805460010160c081905290556108eb600480350180614f60565b61010052610903602460043501600435600401614f2b565b90610918604460043501600435600401614f60565b9061092d606460043501600435600401614f60565b90610942608460043501600435600401614f60565b9190926109586024803501602435600401614f60565b959096600360446024350135101561020d57600260646024350135101561020d57600460846024350135101561020d5761099760046044350180614f60565b99909a604435604401604435600401906109b091614f2b565b9d906101205260405180610180526109c7906143a1565b6101805160009052604051806101a0526109e09061434f565b60c0516101a05152336101a0516020015236610100516109ff926143f8565b6101a051604001523690610a1292614464565b6101a051606001523690610a25926143f8565b6101a051608001523690610a38926143f8565b6101a05160a001523690610a4b926143f8565b6101a05160c0015260043560a401356101a05160e0015260043560c401356101a0516101000152602435600401356101a05161012001523690610a8d926143f8565b6101a0516101400152602435604401356101a0516101600190610aaf91614fbe565b602435606401356101a0516101800190610ac891614fca565b602435608401356101a0516101a00190610ae191614fd6565b60243560a401356101a0516101c001523690610afc926143f8565b6101a0516101e00152366101205191610b1492614464565b6101a0516102000152610180516101a05161022001523660805160040190610b3b916144ee565b6101a05161024001526101a05161026001600090526101a051610280016000905260c051600052600b60205260406000206101a05180518255600160a01b600190036020820151166001600160601b0360a01b600184015416176001830155604001518051906001600160401b0382116112d6578190610bbe60028501546149a1565b601f8111611b95575b50602090601f8311600114611b2357600092611b18575b50508160011b916000199060031b1c19161760028201555b60606101a0510151805190600160401b82116112d6576003830154826003850155808310611ae5575b5060200190600383016000526020600020916000905b8282106119c5578460806101a05101518051906001600160401b0382116112d6578190610c6560048501546149a1565b601f8111611990575b50602090601f831160011461191e57600092611913575b50508160011b916000199060031b1c19161760048201555b60a06101a05101518051906001600160401b0382116112d6578190610cc560058501546149a1565b601f81116118de575b50602090601f831160011461186c57600092611861575b50508160011b916000199060031b1c19161760058201555b60c06101a05101518051906001600160401b0382116112d6578190610d2560068501546149a1565b601f811161182c575b50602090601f83116001146117ba576000926117af575b50508160011b916000199060031b1c19161760068201555b6101406101a05160e081015160078401556101008101516008840155610120810151600984015501518051906001600160401b0382116112d6578190610da6600a8501546149a1565b601f811161177a575b50602090601f8311600114611708576000926116fd575b50508160011b916000199060031b1c191617600a8201555b6101a0516101608101519060038210156116e757600b8301549161018082015160028110156116e7576101a083015160048110156116e7576101e09460ff62ff000061ff009360101b1694169062ffffff1916179160081b161717600b8401556101c0810151600c84015501518051906001600160401b0382116112d6578190610e6b600d8501546149a1565b601f81116116b2575b50602090601f831160011461164057600092611635575b50508160011b916000199060031b1c191617600d8201555b6102006101a0510151805190600160401b82116112d657600e83015482600e850155808310611602575b5060200190600e83016000526020600020916000905b8282106114ed57846102206101a0510151805190600160401b82116112d657600f83015482600f85015580831061146b575b50602001600f830160005260206000206000915b83831061144d578460108101906102406101a05101519160018060a01b038351166001600160601b0360a01b82541617905560208201519182516001600160401b0381116112d657610f7e60118401546149a1565b601f8111611418575b506020601f82116001146113aa578192939460009261139f575b50508160011b916000199060031b1c19161760118301555b60408101518051906001600160401b0382116112d657610fdc60128501546149a1565b601f811161136a575b50602090601f83116001146112f7576080939291600091836112ec575b50508160011b916000199060031b1c19161760128401555b6060810151601384015501518051906001600160401b0382116112d65761104460148401546149a1565b601f8111611296575b50602090601f83116001146112205791806110c39492601594600092611215575b50508160011b916000199060031b1c19161760148201555b016102806101a0516110ab6102608201511515849060ff801983541691151516179055565b0151815461ff00191690151560081b61ff0016179055565b6040516110cf816143a1565b6000815233156111d15760c0516000908152600460205260409020546111959161035c91611109906001600160a01b031615155b156151f8565b60c05160009081526004602052604090205461112f906001600160a01b03161515611103565b33600052600560205260406000206001815401905560c0518060005260046020526040600020336001600160601b0360a01b825416179055803360007fddf252ad1be2c89b69c2b068fc378daa952ba7f163c4a11628f55a4df523b3ef8180a433614da1565b60405160a46024350135815233907f346237025e4b201cfbdb8011c7afcd8a0cc16c50e910d6ac5645ab7406be429d602060c05192a360018055005b606460405162461bcd60e51b815260206004820152602060248201527f4552433732313a206d696e7420746f20746865207a65726f20616464726573736044820152fd5b01519050858061106e565b906014840160005260206000209160005b601f198516811061127e5750926110c3949260019260159583601f19811610611265575b505050811b016014820155611086565b015160001960f88460031b161c19169055858080611255565b91926020600181928685015181550194019201611231565b6112c690601485016000526020600020601f850160051c810191602086106112cc575b601f0160051c0190614fe2565b8361104d565b90915081906112b9565b634e487b7160e01b600052604160045260246000fd5b015190508580611002565b906012850160005260206000209160005b601f1985168110611352575091839160019360809695601f19811610611339575b505050811b01601284015561101a565b015160001960f88460031b161c19169055858080611329565b91926020600181928685015181550194019201611308565b61139990601286016000526020600020601f850160051c810191602086106112cc57601f0160051c0190614fe2565b84610fe5565b015190508480610fa1565b6011840160005260206000209060005b601f19841681106114005750600193949583601f198116106113e7575b505050811b016011830155610fb9565b015160001960f88460031b161c191690558480806113d7565b9091602060018192858a0151815501930191016113ba565b61144790601185016000526020600020601f840160051c810191602085106112cc57601f0160051c0190614fe2565b84610f87565b600560208261145f6001945186615042565b01920192019190610f29565b60058181020481036114d75760058381020483036114d757600f840160005260206000208360050281015b82600502820181106114a9575050610f15565b80600060059255600060018201556114c360028201614ff9565b600060038201556000600482015501611496565b634e487b7160e01b600052601160045260246000fd5b80518051906001600160401b0382116112d65761150a86546149a1565b601f81116115d0575b50602090601f8311600114611560579282600194936020938695600092611555575b5050600019600383901b1c191690841b1787555b01940191019092610ee3565b015190508a80611535565b908660005260206000209160005b601f19851681106115b8575083602093600196938796938794601f1981161061159f575b505050811b018755611549565b015160001960f88460031b161c191690558a8080611592565b9192602060018192868501518155019401920161156e565b6115fc90876000526020600020601f850160051c810191602086106112cc57601f0160051c0190614fe2565b87611513565b600e84016000526020600020908382015b8183018110611623575050610ecd565b8061162f600192614ff9565b01611613565b015190508380610e8b565b9250600d84016000526020600020906000935b601f1984168510611697576001945083601f1981161061167e575b505050811b01600d820155610ea3565b015160001960f88460031b161c1916905583808061166e565b81810151835560209485019460019093019290910190611653565b6116e190600d86016000526020600020601f850160051c810191602086106112cc57601f0160051c0190614fe2565b84610e74565b634e487b7160e01b600052602160045260246000fd5b015190508380610dc6565b9250600a84016000526020600020906000935b601f198416851061175f576001945083601f19811610611746575b505050811b01600a820155610dde565b015160001960f88460031b161c19169055838080611736565b8181015183556020948501946001909301929091019061171b565b6117a990600a86016000526020600020601f850160051c810191602086106112cc57601f0160051c0190614fe2565b84610daf565b015190508380610d45565b9250600684016000526020600020906000935b601f1984168510611811576001945083601f198116106117f8575b505050811b016006820155610d5d565b015160001960f88460031b161c191690558380806117e8565b818101518355602094850194600190930192909101906117cd565b61185b90600686016000526020600020601f850160051c810191602086106112cc57601f0160051c0190614fe2565b84610d2e565b015190508380610ce5565b9250600584016000526020600020906000935b601f19841685106118c3576001945083601f198116106118aa575b505050811b016005820155610cfd565b015160001960f88460031b161c1916905583808061189a565b8181015183556020948501946001909301929091019061187f565b61190d90600586016000526020600020601f850160051c810191602086106112cc57601f0160051c0190614fe2565b84610cce565b015190508380610c85565b9250600484016000526020600020906000935b601f1984168510611975576001945083601f1981161061195c575b505050811b016004820155610c9d565b015160001960f88460031b161c1916905583808061194c565b81810151835560209485019460019093019290910190611931565b6119bf90600486016000526020600020601f850160051c810191602086106112cc57601f0160051c0190614fe2565b84610c6e565b80518051906001600160401b0382116112d6576119e286546149a1565b601f8111611aa8575b50602090601f8311600114611a38579282600194936020938695600092611a2d575b5050600019600383901b1c191690841b1787555b01940191019092610c35565b015190508a80611a0d565b908660005260206000209160005b601f1985168110611a90575083602093600196938796938794601f19811610611a77575b505050811b018755611a21565b015160001960f88460031b161c191690558a8080611a6a565b91926020600181928685015181550194019201611a46565b611ad5908760005260206000206005601f8601811c82019260208710611adb575b601f01901c0190614fe2565b876119eb565b9192508291611ac9565b600384016000526020600020908382015b8183018110611b06575050610c1f565b80611b12600192614ff9565b01611af6565b015190508380610bde565b9250600284016000526020600020906000935b601f1984168510611b7a576001945083601f19811610611b61575b505050811b016002820155610bf6565b015160001960f88460031b161c19169055838080611b51565b81810151835560209485019460019093019290910190611b36565b611bc490600286016000526020600020601f850160051c810191602086106112cc57601f0160051c0190614fe2565b84610bc7565b60405162461bcd60e51b815260206004820152600f60248201526e496e76616c6964206d696c6561676560881b6044820152606490fd5b60405162461bcd60e51b815260206004820152600c60248201526b24b73b30b634b2103cb2b0b960a11b6044820152606490fd5b60405162461bcd60e51b81526020600482015260096024820152684e6f20696d6167657360b81b6044820152606490fd5b60405162461bcd60e51b815260206004820152600d60248201526c496e76616c696420707269636560981b6044820152606490fd5b60405162461bcd60e51b815260206004820152600e60248201526d24b73b30b634b21039b2b63632b960911b6044820152606490fd5b6001600160a01b039150611ce490614f17565b1615158161086e565b3461020d57600036600319011261020d57611d066148da565b600080546001600160a01b0319811682556001600160a01b03167f8be0079c531659141344cd1fd0a4f28419497f9722a3daafe3b4186f6b6457e08280a3005b3461020d57602036600319011261020d576001600160a01b03611d67614323565b168015611d865760005260056020526020604060002054604051908152f35b60405162461bcd60e51b815260206004820152602960248201527f4552433732313a2061646472657373207a65726f206973206e6f7420612076616044820152683634b21037bbb732b960b91b6064820152608490fd5b60208060031936011261020d5760043590611df66151a2565b81600052600b815260018060a01b03600192611e1c8285604060002001541615156153e4565b80600052600b8352611e3c60ff60156040600020015460081c1615615425565b80600052600b83526040600020828560ff601584015416159283612083575b5050501561204b5780600052600b8352600c6040600020015434036120125780600052600b8352604060002091848301805490601583831695018760ff198254161790556001600160601b0360a01b918233911617905585600954019182600955600c865260406000209260405190611ed38261436b565b81528681018581526040820134815260608301953387528054600160401b8110156112d657611f06918c820181556156e5565b929092611ffc57600393518355518a8301555160028201550192511690825416179055611f34813384614c60565b8115611fb757600080808034865af1611f4b614d71565b5015611f80577f8205a71867f7292bcef9e53d4774758d6173b03f63017dec9a03a6664b429dc5604051933485523394a48055005b60405162461bcd60e51b815260048101849052600f60248201526e151c985b9cd9995c8819985a5b1959608a1b6044820152606490fd5b60405162461bcd60e51b815260048101849052601a60248201527f43616e6e6f742070617920746f207a65726f20616464726573730000000000006044820152606490fd5b634e487b7160e01b600052600060045260246000fd5b60405162461bcd60e51b8152600481018490526011602482015270125b98dbdc9c9958dd081c185e5b595b9d607a1b6044820152606490fd5b60405162461bcd60e51b815260048101849052601060248201526f496e76616c696420707572636861736560801b6044820152606490fd5b0154163314159050828587611e5b565b3461020d57602036600319011261020d5760206120b160043561497e565b6040516001600160a01b039091168152f35b3461020d5760208060031936011261020d57600435906120e16151a2565b6000828152600b825260409020600101546001600160a01b039081163314801561222c575b61210f90615244565b82600052600b825260ff60156040600020015460081c166121f1578291600091838352600b82526015604084200161010061ff00198254161790556121538461497e565b50600461215f8561497e565b918585526006845260408520926001600160601b0360a01b93848154169055169283855260058152604085208519815401905585855252604083209081541690557fddf252ad1be2c89b69c2b068fc378daa952ba7f163c4a11628f55a4df523b3ef8280a433907f975848b3b721e792b1afe72032f4fa971d1faeb9bfd806ccf1ffada5bac8bafe600080a360018055005b60405162461bcd60e51b815260048101839052601360248201527210d85c88185b1c9958591e4819195b195d1959606a1b6044820152606490fd5b5060005481163314612106565b3461020d5760208060031936011261020d57600435612256615325565b506000818152600b8352604090206001015461227c906001600160a01b031615156153e4565b80600052600b825261229c60ff60156040600020015460081c1615615425565b600052600b81526122b060406000206154bd565b906102d86040519282849384528301906146ac565b3461020d5761036161035c6122d93661458b565b90604051926122e7846143a1565b6000845261034c6103478433614b98565b3461020d57600036600319011261020d5760088054600060015b828111156123a957506123249061566b565b91600160005b8382111561234057604051806102d88782614878565b81600052600b60205260406000209160ff6015840154851c161580612393575b612376575b61237091925061565c565b9061232a565b61238a826103f56103ef612370959261565c565b50829150612365565b5060018301546001600160a01b03163314612360565b80600052600b602052604060002060ff6015820154861c161590816123f2575b506123dd575b6123d89061565c565b612312565b906123ea6123d89161565c565b9190506123cf565b600101546001600160a01b031633149050856123c9565b3461020d57600036600319011261020d5760006001600854905b818111156125a657506124358261444d565b9161244360405193846143bc565b808352612452601f199161444d565b0160005b81811061257357505060006001905b828211156124d25760408051602080825286518183018190528188019383019160005b8281106124955784840385f35b8551805185528083015185840152604080820151908601526060908101516001600160a01b03169085015294810194608090930192600101612488565b600093919293905b836000526020600c81526040600020805484101561255c57916125509161250485612556956156e5565b50604051916125128361436b565b8154835260018201549083015260028101546040830152600301546001600160a01b0316606082015261254582876156bb565b5261067781866156bb565b9161565c565b906124da565b50509261256c915093919361565c565b9091612465565b6020906040516125828161436b565b60008152826000818301526000604083015260006060830152828701015201612456565b9182600052600c60205260406000205481018091116114d7576125c9909261565c565b612423565b3461020d57604036600319011261020d57602460043581356001600160401b03811161020d5761260290369060040161442f565b918251156127ee57816000526020600b815260ff60156040600020015460081c166127a2576000838152600b825260409020600101546001600160a01b039061264e90821615156153e4565b83600052600b8252600160406000200154163314612760576103e884511161272b57600b906001600a54019485600a55612686614f92565b958652338287015260408601524260608601528360005252600f604060002001805490600160401b82101561271657906126c591600182018155615701565b9190916127025750826126d791615042565b339151907fa2a1dee4425c37116291ab4d233678a915201b947533b0d540def4d8fca8d28f600080a4005b634e487b7160e01b60005260006004526000fd5b82634e487b7160e01b60005260416004526000fd5b60106064926040519262461bcd60e51b845260048401528201526f436f6d6d656e7420746f6f206c6f6e6760801b6044820152fd5b601a6064926040519262461bcd60e51b845260048401528201527f43616e6e6f742072657669657720796f7572206f776e206361720000000000006044820152fd5b60216084926040519262461bcd60e51b845260048401528201527f43617220686173206265656e2064656c657465642066726f6d206c697374696e6044820152606760f81b6064820152fd5b60649060176040519162461bcd60e51b8352602060048401528201527f436f6d6d656e742063616e6e6f7420626520656d7074790000000000000000006044820152fd5b3461020d57604036600319011261020d576004356024359080600052600b60209080825260018060a01b03906001926128758385604060002001541615156153e4565b8460005281815261289460ff60156040600020015460081c1615615425565b60009283858882825b612a1a575b505050156129e2578560005282825280856128c486600f604060002001615701565b5001541633149081156129d4575b5015612986578460005281815260ff60046128f485600f604060002001615701565b500154166129495791612916916004938660005252600f604060002001615701565b50019060ff198254161790557ffe09911b3ec9652ef94a11286713bd397f2fb090f28c62303451d8040ff62c62600080a3005b6064906040519062461bcd60e51b82526004820152601660248201527514995d9a595dc8185b1c9958591e4819195b195d195960521b6044820152fd5b6084906040519062461bcd60e51b82526004820152602160248201527f4f6e6c79207265766965776572206f722061646d696e2063616e2064656c65746044820152606560f81b6064820152fd5b9050600054163314876128d2565b60405162461bcd60e51b815260048101839052601060248201526f14995d9a595dc81b9bdd08199bdd5b9960821b6044820152606490fd5b89600052868652600f6040600020018054821015612a6357612a3d828492615701565b505414612a5357612a4d9061565c565b8261289d565b939650505050928485888a6128a2565b506128a2565b3461020d57610361612a7a3661458b565b91612a886103478433614b98565b614c60565b3461020d5760a036600319011261020d576024356001600160401b03811161020d5760e0600319823603011261020d576040519060e082018281106001600160401b038211176112d65760405280600401356001600160401b03811161020d57612afd906004369184010161442f565b825260248101356001600160401b03811161020d57612b2290600436918401016144d3565b602083015260448101356001600160401b03811161020d57612b4a906004369184010161442f565b604083015260648101356001600160401b03811161020d57612b72906004369184010161442f565b60608301526084810135906001600160401b03821161020d57612b9d60c4926004369184010161442f565b608084015260a481013560a0840152013560c08201526001600160401b036044351161020d5760c06044353603600319011261020d576040518060c08101106001600160401b0360c0830111176112d65760c081016040526044356004013581526001600160401b03602460443501351161020d57612c273660443560248101350160040161442f565b60208201526003604480350135101561020d576044803501356040820152600260646044350135101561020d57606460443501356060820152600460846044350135101561020d576044356084810135608083015260a4013560a08201526001600160401b036064351161020d5760606064353603600319011261020d576040518060608101106001600160401b036060830111176112d65760608101604052606435600401356001600160401b03811161020d57612cee9060043691606435010161442f565b8152602460643501356001600160401b03811161020d57612d179060043691606435010161442f565b6020820152604460643501356001600160401b03811161020d57612d43906004369160643501016144d3565b60408201526084356001600160401b03811161020d57612d679036906004016144ee565b60a052612d726151a2565b600435600052600b60205260018060a01b036001604060002001541633148015614026575b612da090615244565b60a082015115613fe15782515115613fa55760208301515115613f605760608301515115613f245760808301515115613ee75760a051516004356000908152600b60205260409020601001546001600160a01b03918216911603613ea25760a051516001600160a01b03163303613e5d57825192602081015160e05260408101519260608201519160808101519060c060a0820151910151835160208501519160408601519360038510156116e75760608701519560028710156116e75760808801519760048910156116e75760a00151988a519a604001519b600435600052600b60205260406000209d60158f015460ff16610140526040518061016052612ea89061434f565b6004356101605152336101605160200152610160516040015260e051610160516060015261016051608001526101605160a001526101605160c001526101605160e00152610160516101000152610160516101200152610160516101400152610160516101600190612f1991614fbe565b610160516101800190612f2b91614fca565b610160516101a00190612f3d91614fd6565b610160516101c00152610160516101e00152610160516102000152600f01612f64906152cf565b61016051610220015260a051610160516102400152610140511515610160516102600152610160516102800160009052600435600052600b60205260406000206101605180518255600160a01b600190036020820151166001600160601b0360a01b600184015416176001830155604001518051906001600160401b0382116112d6578190612ff660028501546149a1565b601f8111613e28575b50602090601f8311600114613db657600092613dab575b50508160011b916000199060031b1c19161760028201555b6060610160510151805190600160401b82116112d6576003830154826003850155808310613d78575b5060200190600383016000526020600020916000905b828210613c63578460806101605101518051906001600160401b0382116112d657819061309d60048501546149a1565b601f8111613c2e575b50602090601f8311600114613bbc57600092613bb1575b50508160011b916000199060031b1c19161760048201555b60a06101605101518051906001600160401b0382116112d65781906130fd60058501546149a1565b601f8111613b7c575b50602090601f8311600114613b0a57600092613aff575b50508160011b916000199060031b1c19161760058201555b60c06101605101518051906001600160401b0382116112d657819061315d60068501546149a1565b601f8111613aca575b50602090601f8311600114613a5857600092613a4d575b50508160011b916000199060031b1c19161760068201555b6101406101605160e081015160078401556101008101516008840155610120810151600984015501518051906001600160401b0382116112d65781906131de600a8501546149a1565b601f8111613a18575b50602090601f83116001146139a65760009261399b575b50508160011b916000199060031b1c191617600a8201555b610160516101608101519060038210156116e757600b8301549161018082015160028110156116e7576101a083015160048110156116e7576101e09460ff62ff000061ff009360101b1694169062ffffff1916179160081b161717600b8401556101c0810151600c84015501518051906001600160401b0382116112d65781906132a3600d8501546149a1565b601f8111613966575b50602090601f83116001146138f4576000926138e9575b50508160011b916000199060031b1c191617600d8201555b610200610160510151805190600160401b82116112d657600e83015482600e8501558083106138b6575b5060200190600e83016000526020600020916000905b8282106137a15784610220610160510151805190600160401b82116112d657600f83015482600f850155808310613735575b50602001600f830160005260206000206000915b8383106137175784601081016102406101605101519060018060a01b038251166001600160601b0360a01b82541617905560208101519182516001600160401b0381116112d6576133b560118301546149a1565b601f81116136e2575b506020601f82116001146136745781929394600092613669575b50508160011b916000199060031b1c19161760118201555b60408201519182516001600160401b0381116112d65761341360128401546149a1565b601f8111613634575b506020601f82116001146135c657819293946000926135bb575b50508160011b916000199060031b1c19161760128301555b6060810151601383015560800151805160148301916001600160401b0382116112d65761347b83546149a1565b601f8111613589575b50602090601f831160011461351a579180601594926134e0969460009261350f575b50508160011b916000199060031b1c19161790555b01610280610160516110ab6102608201511515849060ff801983541691151516179055565b336004357f0ac4673e0c14f555f7a29dc1abe824e57feeb4dc61dffc46e24a31d970178d6a600080a360018055005b0151905086806134a6565b90601f198316918460005260206000209260005b81811061357157509260019285926134e098966015989610613558575b505050811b0190556134bb565b015160001960f88460031b161c1916905586808061354b565b9293602060018192878601518155019501930161352e565b6135b590846000526020600020601f850160051c810191602086106112cc57601f0160051c0190614fe2565b84613484565b015190508480613436565b6012840160005260206000209060005b601f198416811061361c5750600193949583601f19811610613603575b505050811b01601283015561344e565b015160001960f88460031b161c191690558480806135f3565b9091602060018192858a0151815501930191016135d6565b61366390601285016000526020600020601f840160051c810191602085106112cc57601f0160051c0190614fe2565b8461341c565b0151905084806133d8565b6011830160005260206000209060005b601f19841681106136ca5750600193949583601f198116106136b1575b505050811b0160118201556133f0565b015160001960f88460031b161c191690558480806136a1565b9091602060018192858a015181550193019101613684565b61371190601184016000526020600020601f840160051c810191602085106112cc57601f0160051c0190614fe2565b846133be565b60056020826137296001945186615042565b01920192019190613361565b60058181020481036114d75760058381020483036114d757600f840160005260206000208360050281015b826005028201811061377357505061334d565b806000600592556000600182015561378d60028201614ff9565b600060038201556000600482015501613760565b80518051906001600160401b0382116112d6576137be86546149a1565b601f8111613884575b50602090601f8311600114613814579282600194936020938695600092613809575b5050600019600383901b1c191690841b1787555b0194019101909261331b565b015190508a806137e9565b908660005260206000209160005b601f198516811061386c575083602093600196938796938794601f19811610613853575b505050811b0187556137fd565b015160001960f88460031b161c191690558a8080613846565b91926020600181928685015181550194019201613822565b6138b090876000526020600020601f850160051c810191602086106112cc57601f0160051c0190614fe2565b876137c7565b600e84016000526020600020908382015b81830181106138d7575050613305565b806138e3600192614ff9565b016138c7565b0151905083806132c3565b9250600d84016000526020600020906000935b601f198416851061394b576001945083601f19811610613932575b505050811b01600d8201556132db565b015160001960f88460031b161c19169055838080613922565b81810151835560209485019460019093019290910190613907565b61399590600d86016000526020600020601f850160051c810191602086106112cc57601f0160051c0190614fe2565b846132ac565b0151905083806131fe565b9250600a84016000526020600020906000935b601f19841685106139fd576001945083601f198116106139e4575b505050811b01600a820155613216565b015160001960f88460031b161c191690558380806139d4565b818101518355602094850194600190930192909101906139b9565b613a4790600a86016000526020600020601f850160051c810191602086106112cc57601f0160051c0190614fe2565b846131e7565b01519050838061317d565b9250600684016000526020600020906000935b601f1984168510613aaf576001945083601f19811610613a96575b505050811b016006820155613195565b015160001960f88460031b161c19169055838080613a86565b81810151835560209485019460019093019290910190613a6b565b613af990600686016000526020600020601f850160051c810191602086106112cc57601f0160051c0190614fe2565b84613166565b01519050838061311d565b9250600584016000526020600020906000935b601f1984168510613b61576001945083601f19811610613b48575b505050811b016005820155613135565b015160001960f88460031b161c19169055838080613b38565b81810151835560209485019460019093019290910190613b1d565b613bab90600586016000526020600020601f850160051c810191602086106112cc57601f0160051c0190614fe2565b84613106565b0151905083806130bd565b9250600484016000526020600020906000935b601f1984168510613c13576001945083601f19811610613bfa575b505050811b0160048201556130d5565b015160001960f88460031b161c19169055838080613bea565b81810151835560209485019460019093019290910190613bcf565b613c5d90600486016000526020600020601f850160051c810191602086106112cc57601f0160051c0190614fe2565b846130a6565b80518051906001600160401b0382116112d657613c8086546149a1565b601f8111613d46575b50602090601f8311600114613cd6579282600194936020938695600092613ccb575b5050600019600383901b1c191690841b1787555b0194019101909261306d565b015190508a80613cab565b908660005260206000209160005b601f1985168110613d2e575083602093600196938796938794601f19811610613d15575b505050811b018755613cbf565b015160001960f88460031b161c191690558a8080613d08565b91926020600181928685015181550194019201613ce4565b613d72908760005260206000206005601f8601811c82019260208710611adb57601f01901c0190614fe2565b87613c89565b600384016000526020600020908382015b8183018110613d99575050613057565b80613da5600192614ff9565b01613d89565b015190508380613016565b9250600284016000526020600020906000935b601f1984168510613e0d576001945083601f19811610613df4575b505050811b01600282015561302e565b015160001960f88460031b161c19169055838080613de4565b81810151835560209485019460019093019290910190613dc9565b613e5790600286016000526020600020601f850160051c810191602086106112cc57601f0160051c0190614fe2565b84612fff565b60405162461bcd60e51b815260206004820152601f60248201527f53656c6c65722077616c6c6574206d757374206d617463682073656e646572006044820152606490fd5b60405162461bcd60e51b815260206004820152601b60248201527f43616e6e6f74206368616e67652073656c6c65722077616c6c657400000000006044820152606490fd5b60405162461bcd60e51b81526020600482015260156024820152744d6f64656c2063616e6e6f7420626520656d70747960581b6044820152606490fd5b60405162461bcd60e51b81526020600482015260146024820152734d616b652063616e6e6f7420626520656d70747960601b6044820152606490fd5b60405162461bcd60e51b815260206004820152601e60248201527f4174206c65617374206f6e6520696d61676520697320726571756972656400006044820152606490fd5b60405162461bcd60e51b81526020600482015260146024820152734e616d652063616e6e6f7420626520656d70747960601b6044820152606490fd5b60405162461bcd60e51b815260206004820152601c60248201527f5072696365206d7573742062652067726561746572207468616e2030000000006044820152606490fd5b506000546001600160a01b03163314612d97565b3461020d57604036600319011261020d57614053614323565b602435906001600160a01b03808061406a8561497e565b1692169180831461416557803314908115614140575b50156140d557600083815260066020526040902080546001600160a01b031916831790556140ad8361497e565b167f8c5be1e5ebec7d5bd14f71427d1e84f3dd0314c0f7b2291e5b200ac8c7c3b925600080a4005b60405162461bcd60e51b815260206004820152603d60248201527f4552433732313a20617070726f76652063616c6c6572206973206e6f7420746f60448201527f6b656e206f776e6572206f7220617070726f76656420666f7220616c6c0000006064820152608490fd5b9050600052600760205260406000203360005260205260ff6040600020541684614080565b60405162461bcd60e51b815260206004820152602160248201527f4552433732313a20617070726f76616c20746f2063757272656e74206f776e656044820152603960f91b6064820152608490fd5b3461020d57602036600319011261020d5760206120b1600435614a81565b3461020d57600036600319011261020d5760405160006002546141f4816149a1565b80845290600190818116908115610768575060011461421d576102d8846106f9818603826143bc565b6002600090815292507f405787fa12a823e0f2b7631cc41b3ba8828b3321ca811111fa75cd3aa3bb5ace5b8284106142605750505081016020016106f9826106e9565b80546020858701810191909152909301928101614248565b3461020d57602036600319011261020d576004359063ffffffff60e01b821680920361020d576020916380ac58cd60e01b81149081156142d2575b81156142c1575b5015158152f35b6301ffc9a760e01b149050836142ba565b635b5e139f60e01b811491506142b3565b919082519283825260005b84811061430f575050826000602080949584010152601f8019910116010190565b6020818301810151848301820152016142ee565b600435906001600160a01b038216820361020d57565b602435906001600160a01b038216820361020d57565b6102a081019081106001600160401b038211176112d657604052565b608081019081106001600160401b038211176112d657604052565b60a081019081106001600160401b038211176112d657604052565b602081019081106001600160401b038211176112d657604052565b90601f801991011681019081106001600160401b038211176112d657604052565b6001600160401b0381116112d657601f01601f191660200190565b929192614404826143dd565b9161441260405193846143bc565b82948184528183011161020d578281602093846000960137010152565b9080601f8301121561020d5781602061444a933591016143f8565b90565b6001600160401b0381116112d65760051b60200190565b929190926144718461444d565b9161447f60405193846143bc565b829480845260208094019060051b83019282841161020d5780915b8483106144a957505050505050565b82356001600160401b03811161020d5786916144c8868493860161442f565b81520192019161449a565b9080601f8301121561020d5781602061444a93359101614464565b919060a08382031261020d576040519061450782614386565b909283919080356001600160a01b038116810361020d5783526001600160401b0391602082013583811161020d578161454191840161442f565b6020850152604082013583811161020d578161455e91840161442f565b604085015260608201356060850152608082013592831161020d57608092614586920161442f565b910152565b606090600319011261020d576001600160a01b0390600435828116810361020d5791602435908116810361020d579060443590565b908082519081815260208091019281808460051b8301019501936000915b8483106145ee5750505050505090565b909192939495848061460c600193601f198682030187528a516142e3565b98019301930191949392906145de565b90815180825260208092019182818360051b82019501936000915b8483106146475750505050505090565b9091929394958480828460019403865289519081518152848060a01b038383015116838201526146866040808401519060a080918501528301906142e3565b916060808201519083015260808091015115159101529801930193019194939290614637565b908151815260018060a01b038060208401511660208301526147686147346147226147106146fe6146ec60408901516102a08060408b01528901906142e3565b606089015188820360608a01526145c0565b608088015187820360808901526142e3565b60a087015186820360a08801526142e3565b60c086015185820360c08701526142e3565b60e085015160e0850152610100808601519085015261012080860151908501526101408086015190858303908601526142e3565b90610160808501519060038210156116e757840152610180808501519060028210156116e7578401526101a0918285015160048110156116e7576147d36147fb926147e79261485b968801526101c080890151908801526101e08089015190888303908901526142e3565b6102008088015190878303908801526145c0565b61022080870151908683039087015261461c565b610240918286015192858303908601528251168152608061484061482e602085015160a0602086015260a08501906142e3565b604085015184820360408601526142e3565b926060810151606084015201519060808184039101526142e3565b916102608082015115159083015261028080910151151591015290565b602080820190808352835180925260408301928160408460051b8301019501936000915b8483106148ac5750505050505090565b90919293949584806148ca600193603f198682030187528a516146ac565b980193019301919493929061489c565b6000546001600160a01b031633036148ee57565b606460405162461bcd60e51b815260206004820152602060248201527f4f776e61626c653a2063616c6c6572206973206e6f7420746865206f776e65726044820152fd5b1561493957565b60405162461bcd60e51b815260206004820152601860248201527f4552433732313a20696e76616c696420746f6b656e20494400000000000000006044820152606490fd5b6000908152600460205260409020546001600160a01b031661444a811515614932565b90600182811c921680156149d1575b60208310146149bb57565b634e487b7160e01b600052602260045260246000fd5b91607f16916149b0565b90604051918260008254926149ef846149a1565b908184526001948581169081600014614a5e5750600114614a1b575b5050614a19925003836143bc565b565b9093915060005260209081600020936000915b818310614a46575050614a1993508201013880614a0b565b85548884018501529485019487945091830191614a2e565b915050614a1994506020925060ff191682840152151560051b8201013880614a0b565b600081815260046020526040902054614aa4906001600160a01b03161515614932565b6000908152600660205260409020546001600160a01b031690565b15614ac657565b60405162461bcd60e51b815260206004820152602d60248201527f4552433732313a2063616c6c6572206973206e6f7420746f6b656e206f776e6560448201526c1c881bdc88185c1c1c9bdd9959609a1b6064820152608490fd5b60809060208152603260208201527f4552433732313a207472616e7366657220746f206e6f6e20455243373231526560408201527131b2b4bb32b91034b6b83632b6b2b73a32b960711b60608201520190565b15614b7b57565b60405162461bcd60e51b815280614b9460048201614b21565b0390fd5b906001600160a01b038080614bac8461497e565b16931691838314938415614bdf575b508315614bc9575b50505090565b614bd591929350614a81565b1614388080614bc3565b909350600052600760205260406000208260005260205260ff604060002054169238614bbb565b15614c0d57565b60405162461bcd60e51b815260206004820152602560248201527f4552433732313a207472616e736665722066726f6d20696e636f72726563742060448201526437bbb732b960d91b6064820152608490fd5b90614c8891614c6e8461497e565b6001600160a01b0393918416928492909183168414614c06565b16918215614d205781614ca591614c9e8661497e565b1614614c06565b7fddf252ad1be2c89b69c2b068fc378daa952ba7f163c4a11628f55a4df523b3ef60008481526006602052604081206001600160601b0360a01b9081815416905583825260056020526040822060001981540190558482526040822060018154019055858252600460205284604083209182541617905580a4565b60405162461bcd60e51b8152602060048201526024808201527f4552433732313a207472616e7366657220746f20746865207a65726f206164646044820152637265737360e01b6064820152608490fd5b3d15614d9c573d90614d82826143dd565b91614d9060405193846143bc565b82523d6000602084013e565b606090565b9091600091803b15614e9357614dec6020918493604051948580948193630a85bd0160e11b9a8b845233600485015284602485015260448401526080606484015260848301906142e3565b03926001600160a01b03165af190829082614e44575b5050614e3657614e10614d71565b80519081614e315760405162461bcd60e51b815280614b9460048201614b21565b602001fd5b6001600160e01b0319161490565b909192506020813d8211614e8b575b81614e60602093836143bc565b81010312614e875751906001600160e01b031982168203614e845750903880614e02565b80fd5b5080fd5b3d9150614e53565b50505050600190565b91926000929190813b15614f0d57602091614ef29185604051958680958194630a85bd0160e11b9b8c845233600485015260018060a01b03809516602485015260448401526080606484015260848301906142e3565b0393165af190829082614e44575050614e3657614e10614d71565b5050505050600190565b356001600160a01b038116810361020d5790565b903590601e198136030182121561020d57018035906001600160401b03821161020d57602001918160051b3603831361020d57565b903590601e198136030182121561020d57018035906001600160401b03821161020d5760200191813603831361020d57565b60405190614f9f82614386565b6000608083828152826020820152606060408201528260608201520152565b60038210156116e75752565b60028210156116e75752565b60048210156116e75752565b818110614fed575050565b60008155600101614fe2565b61500381546149a1565b908161500d575050565b81601f6000931160011461501f575055565b90808391825261503e601f60208420940160051c840160018501614fe2565b5555565b8151815560019182820160209060018060a01b0382840151166001600160601b0360a01b82541617905560028301906040830151948551916001600160401b0383116112d65761509284546149a1565b601f8111615172575b5080601f84116001146150fe57509180806080959360049795614a199a6000946150f3575b50501b916000199060031b1c19161790555b606081015160038501550151151591019060ff801983541691151516179055565b0151925038806150c0565b9193949596601f1984168660005283600020936000905b82821061515b57505092608095928592614a199a99966004999610615142575b505050811b0190556150d2565b015160001960f88460031b161c19169055388080615135565b808886978294978701518155019601940190615115565b61519c908560005282600020601f860160051c8101918487106112cc57601f0160051c0190614fe2565b3861509b565b6002600154146151b3576002600155565b60405162461bcd60e51b815260206004820152601f60248201527f5265656e7472616e637947756172643a207265656e7472616e742063616c6c006044820152606490fd5b156151ff57565b60405162461bcd60e51b815260206004820152601c60248201527f4552433732313a20746f6b656e20616c7265616479206d696e746564000000006044820152606490fd5b1561524b57565b60405162461bcd60e51b815260206004820152600c60248201526b155b985d5d1a1bdc9a5e995960a21b6044820152606490fd5b9060405161528c81614386565b608060ff600483958054855260018060a01b0360018201541660208601526152b6600282016149db565b6040860152600381015460608601520154161515910152565b9081546152db8161444d565b926152e960405194856143bc565b818452600090815260208082208186015b848410615308575050505050565b6005836001926153178561527f565b8152019201930192906152fa565b604051906153328261434f565b81610280600091828152826020820152606080604083015280808301528060808301528060a08301528060c08301528360e08301528361010083015283610120830152806101408301528361016083015283610180830152836101a0830152836101c0830152806101e08301528061020083015280610220830152604051906153ba82614386565b84825280602083015280604083015284818301526080820152610240820152826102608201520152565b156153eb57565b60405162461bcd60e51b815260206004820152601260248201527110d85c88191bd95cc81b9bdd08195e1a5cdd60721b6044820152606490fd5b1561542c57565b60405162461bcd60e51b815260206004820152601460248201527310d85c881a185cc81899595b8819195b195d195960621b6044820152606490fd5b9081546154748161444d565b9261548260405194856143bc565b818452600090815260208082208186015b8484106154a1575050505050565b60018381926154af856149db565b815201920193019290615493565b906040516154ca8161434f565b61028060ff601583958054855260018060a01b038060018301541660208701526154f6600283016149db565b604087015261550760038301615468565b6060870152615518600483016149db565b6080870152615529600583016149db565b60a087015261553a600683016149db565b60c0870152600782015460e08701526008820154610100870152600982015461012087015261556b600a83016149db565b6101408701526155ab84600b84015461558a8282166101608b01614fbe565b61559d828260081c166101808b01614fca565b60101c166101a08801614fd6565b600c8201546101c08701526155c2600d83016149db565b6101e08701526155d4600e8301615468565b6102008701526155e6600f83016152cf565b610220870152604051906155f982614386565b601083015416815261560d601183016149db565b602082015261561e601283016149db565b604082015260138201546060820152615639601483016149db565b60808201526102408601520154818116151561026085015260081c161515910152565b60001981146114d75760010190565b906156758261444d565b61568260405191826143bc565b8281528092615693601f199161444d565b019060005b8281106156a457505050565b6020906156af615325565b82828501015201615698565b80518210156156cf5760209160051b010190565b634e487b7160e01b600052603260045260246000fd5b80548210156156cf5760005260206000209060021b0190600090565b80548210156156cf57600052600560206000209102019060009056fea26469706673582212208da4d23bb0e612bc31dd84a47454d55efaf84e8cedcb8d925d077455affc4c0a64736f6c63430008130033","opcodes":"PUSH1 0x80 CALLVALUE PUSH3 0x3A4 JUMPI PUSH1 0x40 SWAP1 PUSH1 0x1 PUSH1 0x1 PUSH1 0x40 SHL SUB SWAP1 DUP1 DUP4 ADD DUP3 DUP2 GT DUP3 DUP3 LT OR PUSH3 0x38E JUMPI DUP4 MSTORE PUSH1 0x9 DUP2 MSTORE PUSH1 0x20 SWAP2 PUSH9 0x2432B6A232B0B632B9 PUSH1 0xB9 SHL DUP4 DUP4 ADD MSTORE DUP4 MLOAD SWAP1 DUP5 DUP3 ADD DUP3 DUP2 LT DUP3 DUP3 GT OR PUSH3 0x38E JUMPI DUP6 MSTORE PUSH1 0x3 DUP1 DUP4 MSTORE PUSH3 0x48444D PUSH1 0xE8 SHL DUP6 DUP5 ADD MSTORE PUSH1 0x0 DUP1 SLOAD CALLER PUSH1 0x1 PUSH1 0x1 PUSH1 0xA0 SHL SUB NOT DUP3 AND DUP2 OR DUP4 SSTORE SWAP3 SWAP6 SWAP2 SWAP5 SWAP2 SWAP3 SWAP1 PUSH1 0x1 PUSH1 0x1 PUSH1 0xA0 SHL SUB AND PUSH32 0x8BE0079C531659141344CD1FD0A4F28419497F9722A3DAAFE3B4186F6B6457E0 DUP7 DUP1 LOG3 PUSH1 0x1 SWAP4 DUP5 DUP1 SSTORE DUP3 MLOAD DUP5 DUP2 GT PUSH3 0x37A JUMPI PUSH1 0x2 SLOAD SWAP4 DUP7 DUP6 DUP2 SHR SWAP6 AND DUP1 ISZERO PUSH3 0x36F JUMPI JUMPDEST DUP10 DUP7 LT EQ PUSH3 0x35B JUMPI DUP2 SWAP1 PUSH1 0x1F SWAP6 DUP7 DUP2 GT PUSH3 0x307 JUMPI JUMPDEST POP DUP10 SWAP1 DUP7 DUP4 GT PUSH1 0x1 EQ PUSH3 0x2A2 JUMPI DUP5 SWAP3 PUSH3 0x296 JUMPI JUMPDEST POP POP PUSH1 0x0 NOT DUP3 DUP10 SHL SHR NOT AND SWAP1 DUP7 SHL OR PUSH1 0x2 SSTORE JUMPDEST DUP2 MLOAD SWAP4 DUP5 GT PUSH3 0x282 JUMPI DUP6 SLOAD DUP6 DUP2 DUP2 SHR SWAP2 AND DUP1 ISZERO PUSH3 0x277 JUMPI JUMPDEST DUP9 DUP3 LT EQ PUSH3 0x263 JUMPI DUP4 DUP2 GT PUSH3 0x21B JUMPI JUMPDEST POP DUP7 SWAP3 DUP5 GT PUSH1 0x1 EQ PUSH3 0x1B8 JUMPI SWAP2 DUP4 SWAP5 SWAP2 DUP5 SWAP4 SWAP5 PUSH3 0x1AC JUMPI JUMPDEST POP POP SHL SWAP2 PUSH1 0x0 NOT SWAP1 DUP5 SHL SHR NOT AND OR SWAP1 SSTORE JUMPDEST CALLER ISZERO PUSH3 0x177 JUMPI POP MLOAD PUSH2 0x5753 SWAP1 DUP2 PUSH3 0x3AA DUP3 CODECOPY RETURN JUMPDEST PUSH1 0x64 SWAP2 MLOAD SWAP1 PUSH3 0x461BCD PUSH1 0xE5 SHL DUP3 MSTORE PUSH1 0x4 DUP3 ADD MSTORE PUSH1 0x10 PUSH1 0x24 DUP3 ADD MSTORE PUSH16 0x24B73B30B634B2103232B83637BCB2B9 PUSH1 0x81 SHL PUSH1 0x44 DUP3 ADD MSTORE REVERT JUMPDEST ADD MLOAD SWAP3 POP CODESIZE DUP1 PUSH3 0x150 JUMP JUMPDEST SWAP2 SWAP1 DUP4 PUSH1 0x1F NOT DUP2 AND DUP8 DUP6 MSTORE DUP9 DUP6 KECCAK256 SWAP5 JUMPDEST DUP10 DUP9 DUP4 DUP4 LT PUSH3 0x203 JUMPI POP POP POP LT PUSH3 0x1EA JUMPI JUMPDEST POP POP POP DUP2 SHL ADD SWAP1 SSTORE PUSH3 0x161 JUMP JUMPDEST ADD MLOAD PUSH1 0x0 NOT DUP4 DUP7 SHL PUSH1 0xF8 AND SHR NOT AND SWAP1 SSTORE CODESIZE DUP1 DUP1 PUSH3 0x1DC JUMP JUMPDEST DUP7 DUP7 ADD MLOAD DUP9 SSTORE SWAP1 SWAP7 ADD SWAP6 SWAP5 DUP6 ADD SWAP5 DUP8 SWAP4 POP ADD PUSH3 0x1C8 JUMP JUMPDEST DUP7 DUP3 MSTORE DUP8 DUP3 KECCAK256 DUP5 DUP1 DUP8 ADD PUSH1 0x5 SHR DUP3 ADD SWAP3 DUP11 DUP9 LT PUSH3 0x259 JUMPI JUMPDEST ADD PUSH1 0x5 SHR ADD SWAP1 DUP7 SWAP1 JUMPDEST DUP3 DUP2 LT PUSH3 0x24D JUMPI POP POP PUSH3 0x136 JUMP JUMPDEST DUP4 DUP2 SSTORE ADD DUP7 SWAP1 PUSH3 0x23D JUMP JUMPDEST SWAP3 POP DUP2 SWAP3 PUSH3 0x234 JUMP JUMPDEST PUSH4 0x4E487B71 PUSH1 0xE0 SHL DUP3 MSTORE PUSH1 0x22 PUSH1 0x4 MSTORE PUSH1 0x24 DUP3 REVERT JUMPDEST SWAP1 PUSH1 0x7F AND SWAP1 PUSH3 0x124 JUMP JUMPDEST PUSH4 0x4E487B71 PUSH1 0xE0 SHL DUP2 MSTORE PUSH1 0x41 PUSH1 0x4 MSTORE PUSH1 0x24 SWAP1 REVERT JUMPDEST ADD MLOAD SWAP1 POP CODESIZE DUP1 PUSH3 0xF7 JUMP JUMPDEST PUSH1 0x2 DUP6 MSTORE DUP11 DUP6 KECCAK256 DUP10 SWAP5 POP SWAP2 SWAP1 PUSH1 0x1F NOT DUP5 AND DUP7 JUMPDEST DUP14 DUP3 DUP3 LT PUSH3 0x2F0 JUMPI POP POP DUP5 GT PUSH3 0x2D7 JUMPI JUMPDEST POP POP POP DUP2 SHL ADD PUSH1 0x2 SSTORE PUSH3 0x10A JUMP JUMPDEST ADD MLOAD PUSH1 0x0 NOT DUP4 DUP12 SHL PUSH1 0xF8 AND SHR NOT AND SWAP1 SSTORE CODESIZE DUP1 DUP1 PUSH3 0x2C8 JUMP JUMPDEST DUP4 DUP6 ADD MLOAD DUP7 SSTORE DUP13 SWAP8 SWAP1 SWAP6 ADD SWAP5 SWAP4 DUP5 ADD SWAP4 ADD PUSH3 0x2B5 JUMP JUMPDEST SWAP1 SWAP2 POP PUSH1 0x2 DUP5 MSTORE DUP10 DUP5 KECCAK256 DUP7 DUP1 DUP6 ADD PUSH1 0x5 SHR DUP3 ADD SWAP3 DUP13 DUP7 LT PUSH3 0x351 JUMPI JUMPDEST SWAP2 DUP11 SWAP2 DUP7 SWAP6 SWAP5 SWAP4 ADD PUSH1 0x5 SHR ADD SWAP2 JUMPDEST DUP3 DUP2 LT PUSH3 0x342 JUMPI POP POP PUSH3 0xE1 JUMP JUMPDEST DUP7 DUP2 SSTORE DUP6 SWAP5 POP DUP11 SWAP2 ADD PUSH3 0x332 JUMP JUMPDEST SWAP3 POP DUP2 SWAP3 PUSH3 0x324 JUMP JUMPDEST PUSH4 0x4E487B71 PUSH1 0xE0 SHL DUP4 MSTORE PUSH1 0x22 PUSH1 0x4 MSTORE PUSH1 0x24 DUP4 REVERT JUMPDEST SWAP5 PUSH1 0x7F AND SWAP5 PUSH3 0xCA JUMP JUMPDEST PUSH4 0x4E487B71 PUSH1 0xE0 SHL DUP3 MSTORE PUSH1 0x41 PUSH1 0x4 MSTORE PUSH1 0x24 DUP3 REVERT JUMPDEST PUSH4 0x4E487B71 PUSH1 0xE0 SHL PUSH1 0x0 MSTORE PUSH1 0x41 PUSH1 0x4 MSTORE PUSH1 0x24 PUSH1 0x0 REVERT JUMPDEST PUSH1 0x0 DUP1 REVERT INVALID PUSH2 0x1C0 DUP1 PUSH1 0x40 MSTORE PUSH1 0x4 CALLDATASIZE LT ISZERO PUSH2 0x14 JUMPI PUSH1 0x0 DUP1 REVERT JUMPDEST PUSH1 0x0 CALLDATALOAD PUSH1 0xE0 SHR SWAP1 DUP2 PUSH4 0x1FFC9A7 EQ PUSH2 0x4278 JUMPI POP DUP1 PUSH4 0x6FDDE03 EQ PUSH2 0x41D2 JUMPI DUP1 PUSH4 0x81812FC EQ PUSH2 0x41B4 JUMPI DUP1 PUSH4 0x95EA7B3 EQ PUSH2 0x403A JUMPI DUP1 PUSH4 0xD5D841A EQ PUSH2 0x2A8D JUMPI DUP1 PUSH4 0x23B872DD EQ PUSH2 0x2A69 JUMPI DUP1 PUSH4 0x24D41A03 EQ PUSH2 0x2832 JUMPI DUP1 PUSH4 0x2C0E839B EQ PUSH2 0x25CE JUMPI DUP1 PUSH4 0x33396917 EQ PUSH2 0x2409 JUMPI DUP1 PUSH4 0x341FA05D EQ PUSH2 0x22F8 JUMPI DUP1 PUSH4 0x42842E0E EQ PUSH2 0x22C5 JUMPI DUP1 PUSH4 0x5E8BE190 EQ PUSH2 0x2239 JUMPI DUP1 PUSH4 0x60098088 EQ PUSH2 0x20C3 JUMPI DUP1 PUSH4 0x6352211E EQ PUSH2 0x2093 JUMPI DUP1 PUSH4 0x6C231060 EQ PUSH2 0x1DDD JUMPI DUP1 PUSH4 0x70A08231 EQ PUSH2 0x1D46 JUMPI DUP1 PUSH4 0x715018A6 EQ PUSH2 0x1CED JUMPI DUP1 PUSH4 0x82925893 EQ PUSH2 0x7B8 JUMPI DUP1 PUSH4 0x8DA5CB5B EQ PUSH2 0x78F JUMPI DUP1 PUSH4 0x95D89B41 EQ PUSH2 0x6AD JUMPI DUP1 PUSH4 0x9D4A2255 EQ PUSH2 0x52A JUMPI DUP1 PUSH4 0xA22CB465 EQ PUSH2 0x44F JUMPI DUP1 PUSH4 0xABFE5D57 EQ PUSH2 0x363 JUMPI DUP1 PUSH4 0xB88D4FDE EQ PUSH2 0x2DC JUMPI DUP1 PUSH4 0xC87B56DD EQ PUSH2 0x268 JUMPI DUP1 PUSH4 0xE985E9C5 EQ PUSH2 0x212 JUMPI PUSH4 0xF2FDE38B EQ PUSH2 0x149 JUMPI PUSH1 0x0 DUP1 REVERT JUMPDEST CALLVALUE PUSH2 0x20D JUMPI PUSH1 0x20 CALLDATASIZE PUSH1 0x3 NOT ADD SLT PUSH2 0x20D JUMPI PUSH2 0x162 PUSH2 0x4323 JUMP JUMPDEST PUSH2 0x16A PUSH2 0x48DA JUMP JUMPDEST PUSH1 0x1 PUSH1 0x1 PUSH1 0xA0 SHL SUB SWAP1 DUP2 AND SWAP1 DUP2 ISZERO PUSH2 0x1B9 JUMPI PUSH1 0x0 SLOAD DUP3 PUSH1 0x1 PUSH1 0x1 PUSH1 0x60 SHL SUB PUSH1 0xA0 SHL DUP3 AND OR PUSH1 0x0 SSTORE AND PUSH32 0x8BE0079C531659141344CD1FD0A4F28419497F9722A3DAAFE3B4186F6B6457E0 PUSH1 0x0 DUP1 LOG3 STOP JUMPDEST PUSH1 0x40 MLOAD PUSH3 0x461BCD PUSH1 0xE5 SHL DUP2 MSTORE PUSH1 0x20 PUSH1 0x4 DUP3 ADD MSTORE PUSH1 0x26 PUSH1 0x24 DUP3 ADD MSTORE PUSH32 0x4F776E61626C653A206E6577206F776E657220697320746865207A65726F2061 PUSH1 0x44 DUP3 ADD MSTORE PUSH6 0x646472657373 PUSH1 0xD0 SHL PUSH1 0x64 DUP3 ADD MSTORE PUSH1 0x84 SWAP1 REVERT JUMPDEST PUSH1 0x0 DUP1 REVERT JUMPDEST CALLVALUE PUSH2 0x20D JUMPI PUSH1 0x40 CALLDATASIZE PUSH1 0x3 NOT ADD SLT PUSH2 0x20D JUMPI PUSH2 0x22B PUSH2 0x4323 JUMP JUMPDEST PUSH2 0x233 PUSH2 0x4339 JUMP JUMPDEST SWAP1 PUSH1 0x1 DUP1 PUSH1 0xA0 SHL SUB DUP1 SWAP2 AND PUSH1 0x0 MSTORE PUSH1 0x7 PUSH1 0x20 MSTORE PUSH1 0x40 PUSH1 0x0 KECCAK256 SWAP2 AND PUSH1 0x0 MSTORE PUSH1 0x20 MSTORE PUSH1 0x20 PUSH1 0xFF PUSH1 0x40 PUSH1 0x0 KECCAK256 SLOAD AND PUSH1 0x40 MLOAD SWAP1 ISZERO ISZERO DUP2 MSTORE RETURN JUMPDEST CALLVALUE PUSH2 0x20D JUMPI PUSH1 0x20 CALLDATASIZE PUSH1 0x3 NOT ADD SLT PUSH2 0x20D JUMPI PUSH2 0x2A2 PUSH2 0x29D PUSH1 0x4 CALLDATALOAD PUSH1 0x0 MSTORE PUSH1 0x4 PUSH1 0x20 MSTORE PUSH1 0x1 DUP1 PUSH1 0xA0 SHL SUB PUSH1 0x40 PUSH1 0x0 KECCAK256 SLOAD AND ISZERO ISZERO SWAP1 JUMP JUMPDEST PUSH2 0x4932 JUMP JUMPDEST PUSH1 0x0 PUSH1 0x40 MLOAD PUSH2 0x2B0 DUP2 PUSH2 0x43A1 JUMP JUMPDEST MSTORE PUSH2 0x2D8 PUSH1 0x40 MLOAD PUSH2 0x2C0 DUP2 PUSH2 0x43A1 JUMP JUMPDEST PUSH1 0x0 DUP2 MSTORE PUSH1 0x40 MLOAD SWAP2 DUP3 SWAP2 PUSH1 0x20 DUP4 MSTORE PUSH1 0x20 DUP4 ADD SWAP1 PUSH2 0x42E3 JUMP JUMPDEST SUB SWAP1 RETURN JUMPDEST CALLVALUE PUSH2 0x20D JUMPI PUSH1 0x80 CALLDATASIZE PUSH1 0x3 NOT ADD SLT PUSH2 0x20D JUMPI PUSH2 0x2F5 PUSH2 0x4323 JUMP JUMPDEST PUSH2 0x2FD PUSH2 0x4339 JUMP JUMPDEST SWAP1 PUSH1 0x64 CALLDATALOAD SWAP1 PUSH1 0x44 CALLDATALOAD PUSH1 0x1 PUSH1 0x1 PUSH1 0x40 SHL SUB DUP4 GT PUSH2 0x20D JUMPI CALLDATASIZE PUSH1 0x23 DUP5 ADD SLT ISZERO PUSH2 0x20D JUMPI PUSH2 0x361 SWAP4 PUSH2 0x339 PUSH2 0x35C SWAP5 CALLDATASIZE SWAP1 PUSH1 0x24 DUP2 PUSH1 0x4 ADD CALLDATALOAD SWAP2 ADD PUSH2 0x43F8 JUMP JUMPDEST SWAP3 PUSH2 0x34C PUSH2 0x347 DUP5 CALLER PUSH2 0x4B98 JUMP JUMPDEST PUSH2 0x4ABF JUMP JUMPDEST PUSH2 0x357 DUP4 DUP4 DUP4 PUSH2 0x4C60 JUMP JUMPDEST PUSH2 0x4E9C JUMP JUMPDEST PUSH2 0x4B74 JUMP JUMPDEST STOP JUMPDEST CALLVALUE PUSH2 0x20D JUMPI PUSH1 0x0 CALLDATASIZE PUSH1 0x3 NOT ADD SLT PUSH2 0x20D JUMPI PUSH1 0x8 DUP1 SLOAD PUSH1 0x0 PUSH1 0x1 JUMPDEST DUP3 DUP2 GT ISZERO PUSH2 0x40F JUMPI POP PUSH2 0x38F SWAP1 PUSH2 0x566B JUMP JUMPDEST SWAP2 PUSH1 0x1 PUSH1 0x0 JUMPDEST DUP4 DUP3 GT ISZERO PUSH2 0x3AB JUMPI PUSH1 0x40 MLOAD DUP1 PUSH2 0x2D8 DUP8 DUP3 PUSH2 0x4878 JUMP JUMPDEST DUP2 PUSH1 0x0 MSTORE PUSH1 0xB PUSH1 0x20 MSTORE PUSH1 0x40 PUSH1 0x0 KECCAK256 SWAP2 PUSH1 0xFF PUSH1 0x15 DUP5 ADD SLOAD DUP6 SHR AND ISZERO PUSH2 0x3DB JUMPI JUMPDEST PUSH2 0x3D5 SWAP2 SWAP3 POP PUSH2 0x565C JUMP JUMPDEST SWAP1 PUSH2 0x395 JUMP JUMPDEST PUSH2 0x406 DUP3 PUSH2 0x3F5 PUSH2 0x3EF PUSH2 0x3D5 SWAP6 SWAP3 PUSH2 0x565C JUMP JUMPDEST SWAP6 PUSH2 0x54BD JUMP JUMPDEST PUSH2 0x3FF DUP3 DUP11 PUSH2 0x56BB JUMP JUMPDEST MSTORE DUP8 PUSH2 0x56BB JUMP JUMPDEST POP DUP3 SWAP2 POP PUSH2 0x3CA JUMP JUMPDEST DUP1 PUSH1 0x0 MSTORE PUSH1 0xB PUSH1 0x20 MSTORE PUSH1 0xFF PUSH1 0x15 PUSH1 0x40 PUSH1 0x0 KECCAK256 ADD SLOAD DUP6 SHR AND ISZERO PUSH2 0x43A JUMPI JUMPDEST PUSH2 0x435 SWAP1 PUSH2 0x565C JUMP JUMPDEST PUSH2 0x37D JUMP JUMPDEST SWAP1 PUSH2 0x447 PUSH2 0x435 SWAP2 PUSH2 0x565C JUMP JUMPDEST SWAP2 SWAP1 POP PUSH2 0x42C JUMP JUMPDEST CALLVALUE PUSH2 0x20D JUMPI PUSH1 0x40 CALLDATASIZE PUSH1 0x3 NOT ADD SLT PUSH2 0x20D JUMPI PUSH2 0x468 PUSH2 0x4323 JUMP JUMPDEST PUSH1 0x24 CALLDATALOAD SWAP1 DUP2 ISZERO ISZERO SWAP1 DUP2 DUP4 SUB PUSH2 0x20D JUMPI PUSH1 0x1 PUSH1 0x1 PUSH1 0xA0 SHL SUB AND SWAP2 CALLER DUP4 EQ PUSH2 0x4E5 JUMPI PUSH2 0x4B7 SWAP1 CALLER PUSH1 0x0 MSTORE PUSH1 0x7 PUSH1 0x20 MSTORE PUSH1 0x40 PUSH1 0x0 KECCAK256 DUP5 PUSH1 0x0 MSTORE PUSH1 0x20 MSTORE PUSH1 0x40 PUSH1 0x0 KECCAK256 SWAP1 PUSH1 0xFF DUP1 NOT DUP4 SLOAD AND SWAP2 ISZERO ISZERO AND OR SWAP1 SSTORE JUMP JUMPDEST PUSH1 0x40 MLOAD SWAP1 DUP2 MSTORE PUSH32 0x17307EAB39AB6107E8899845AD3D59BD9653F200F220920489CA2B5937696C31 PUSH1 0x20 CALLER SWAP3 LOG3 STOP JUMPDEST PUSH1 0x40 MLOAD PUSH3 0x461BCD PUSH1 0xE5 SHL DUP2 MSTORE PUSH1 0x20 PUSH1 0x4 DUP3 ADD MSTORE PUSH1 0x19 PUSH1 0x24 DUP3 ADD MSTORE PUSH32 0x4552433732313A20617070726F766520746F2063616C6C657200000000000000 PUSH1 0x44 DUP3 ADD MSTORE PUSH1 0x64 SWAP1 REVERT JUMPDEST CALLVALUE PUSH2 0x20D JUMPI PUSH1 0x20 DUP1 PUSH1 0x3 NOT CALLDATASIZE ADD SLT PUSH2 0x20D JUMPI PUSH1 0x4 CALLDATALOAD SWAP1 DUP2 PUSH1 0x0 MSTORE PUSH1 0xB SWAP2 DUP3 DUP3 MSTORE PUSH1 0xFF PUSH2 0x563 DUP2 PUSH1 0x15 PUSH1 0x40 PUSH1 0x0 KECCAK256 ADD SLOAD PUSH1 0x8 SHR AND ISZERO PUSH2 0x5425 JUMP JUMPDEST PUSH1 0x0 SWAP2 PUSH1 0x0 JUMPDEST DUP2 PUSH1 0x0 MSTORE DUP6 DUP6 MSTORE PUSH1 0xF PUSH1 0x40 PUSH1 0x0 KECCAK256 ADD DUP1 SLOAD DUP3 LT ISZERO PUSH2 0x5BB JUMPI PUSH1 0x4 PUSH2 0x58E DUP4 DUP7 SWAP4 PUSH2 0x5701 JUMP JUMPDEST POP ADD SLOAD AND ISZERO PUSH2 0x5A6 JUMPI JUMPDEST PUSH2 0x5A1 SWAP1 PUSH2 0x565C JUMP JUMPDEST PUSH2 0x569 JUMP JUMPDEST SWAP3 PUSH2 0x5B3 PUSH2 0x5A1 SWAP2 PUSH2 0x565C JUMP JUMPDEST SWAP4 SWAP1 POP PUSH2 0x598 JUMP JUMPDEST POP POP SWAP3 SWAP2 SWAP4 PUSH2 0x5C9 DUP6 PUSH2 0x444D JUMP JUMPDEST SWAP5 PUSH2 0x5D7 PUSH1 0x40 MLOAD SWAP7 DUP8 PUSH2 0x43BC JUMP JUMPDEST DUP1 DUP7 MSTORE PUSH2 0x5E6 PUSH1 0x1F NOT SWAP2 PUSH2 0x444D JUMP JUMPDEST ADD DUP4 PUSH1 0x0 JUMPDEST DUP3 DUP2 LT PUSH2 0x697 JUMPI POP POP POP PUSH1 0x0 SWAP3 PUSH1 0x0 JUMPDEST DUP6 PUSH1 0x0 MSTORE DUP3 DUP3 MSTORE PUSH1 0xF DUP1 PUSH1 0x40 PUSH1 0x0 KECCAK256 ADD DUP1 SLOAD DUP4 LT ISZERO PUSH2 0x684 JUMPI PUSH1 0x4 PUSH2 0x621 DUP5 DUP9 SWAP4 PUSH2 0x5701 JUMP JUMPDEST POP ADD SLOAD AND ISZERO PUSH2 0x63A JUMPI JUMPDEST POP PUSH2 0x635 SWAP1 PUSH2 0x565C JUMP JUMPDEST PUSH2 0x5FB JUMP JUMPDEST DUP2 SWAP6 PUSH2 0x662 PUSH2 0x65C PUSH2 0x635 SWAP5 PUSH2 0x67D SWAP5 DUP12 PUSH1 0x0 MSTORE DUP9 DUP9 MSTORE PUSH1 0x40 PUSH1 0x0 KECCAK256 ADD PUSH2 0x5701 JUMP JUMPDEST POP PUSH2 0x527F JUMP JUMPDEST PUSH2 0x66C DUP3 DUP12 PUSH2 0x56BB JUMP JUMPDEST MSTORE PUSH2 0x677 DUP2 DUP11 PUSH2 0x56BB JUMP JUMPDEST POP PUSH2 0x565C JUMP JUMPDEST SWAP5 SWAP1 PUSH2 0x62B JUMP JUMPDEST PUSH1 0x40 MLOAD DUP5 DUP2 MSTORE DUP1 PUSH2 0x2D8 DUP2 DUP8 ADD DUP13 PUSH2 0x461C JUMP JUMPDEST PUSH2 0x69F PUSH2 0x4F92 JUMP JUMPDEST DUP3 DUP3 DUP11 ADD ADD MSTORE ADD DUP5 SWAP1 PUSH2 0x5EB JUMP JUMPDEST CALLVALUE PUSH2 0x20D JUMPI PUSH1 0x0 CALLDATASIZE PUSH1 0x3 NOT ADD SLT PUSH2 0x20D JUMPI PUSH1 0x40 MLOAD PUSH1 0x0 PUSH1 0x3 SLOAD PUSH2 0x6CF DUP2 PUSH2 0x49A1 JUMP JUMPDEST DUP1 DUP5 MSTORE SWAP1 PUSH1 0x1 SWAP1 DUP2 DUP2 AND SWAP1 DUP2 ISZERO PUSH2 0x768 JUMPI POP PUSH1 0x1 EQ PUSH2 0x70D JUMPI JUMPDEST PUSH2 0x2D8 DUP5 PUSH2 0x6F9 DUP2 DUP7 SUB DUP3 PUSH2 0x43BC JUMP JUMPDEST PUSH1 0x40 MLOAD SWAP2 DUP3 SWAP2 PUSH1 0x20 DUP4 MSTORE PUSH1 0x20 DUP4 ADD SWAP1 PUSH2 0x42E3 JUMP JUMPDEST PUSH1 0x3 PUSH1 0x0 SWAP1 DUP2 MSTORE SWAP3 POP PUSH32 0xC2575A0E9E593C00F959F8C92F12DB2869C3395A3B0502D05E2516446F71F85B JUMPDEST DUP3 DUP5 LT PUSH2 0x750 JUMPI POP POP POP DUP2 ADD PUSH1 0x20 ADD PUSH2 0x6F9 DUP3 PUSH2 0x6E9 JUMP JUMPDEST DUP1 SLOAD PUSH1 0x20 DUP6 DUP8 ADD DUP2 ADD SWAP2 SWAP1 SWAP2 MSTORE SWAP1 SWAP4 ADD SWAP3 DUP2 ADD PUSH2 0x738 JUMP JUMPDEST PUSH1 0xFF NOT AND PUSH1 0x20 DUP1 DUP8 ADD SWAP2 SWAP1 SWAP2 MSTORE SWAP3 ISZERO ISZERO PUSH1 0x5 SHL DUP6 ADD SWAP1 SWAP3 ADD SWAP3 POP PUSH2 0x6F9 SWAP2 POP DUP4 SWAP1 POP PUSH2 0x6E9 JUMP JUMPDEST CALLVALUE PUSH2 0x20D JUMPI PUSH1 0x0 CALLDATASIZE PUSH1 0x3 NOT ADD SLT PUSH2 0x20D JUMPI PUSH1 0x0 SLOAD PUSH1 0x40 MLOAD PUSH1 0x1 PUSH1 0x1 PUSH1 0xA0 SHL SUB SWAP1 SWAP2 AND DUP2 MSTORE PUSH1 0x20 SWAP1 RETURN JUMPDEST CALLVALUE PUSH2 0x20D JUMPI PUSH1 0x3 NOT PUSH1 0x80 CALLDATASIZE DUP3 ADD SLT PUSH2 0x20D JUMPI PUSH1 0x1 PUSH1 0x1 PUSH1 0x40 SHL SUB PUSH1 0x4 CALLDATALOAD GT PUSH2 0x20D JUMPI PUSH1 0xE0 DUP2 PUSH1 0x4 CALLDATALOAD CALLDATASIZE SUB ADD SLT PUSH2 0x20D JUMPI PUSH1 0x1 PUSH1 0x1 PUSH1 0x40 SHL SUB PUSH1 0x24 CALLDATALOAD GT PUSH2 0x20D JUMPI PUSH1 0xC0 DUP2 PUSH1 0x24 CALLDATALOAD CALLDATASIZE SUB ADD SLT PUSH2 0x20D JUMPI PUSH1 0x1 PUSH1 0x1 PUSH1 0x40 SHL SUB PUSH1 0x44 CALLDATALOAD GT PUSH2 0x20D JUMPI PUSH1 0x60 DUP2 PUSH1 0x44 CALLDATALOAD CALLDATASIZE SUB ADD SLT PUSH2 0x20D JUMPI PUSH1 0x64 CALLDATALOAD SWAP1 DUP2 PUSH1 0x80 MSTORE PUSH1 0x1 PUSH1 0x1 PUSH1 0x40 SHL SUB DUP3 GT PUSH2 0x20D JUMPI PUSH1 0xA0 SWAP2 CALLDATASIZE SUB ADD SLT PUSH2 0x20D JUMPI PUSH2 0x84D PUSH2 0x51A2 JUMP JUMPDEST PUSH1 0x80 MLOAD PUSH1 0x4 ADD PUSH1 0x1 PUSH1 0x1 PUSH1 0xA0 SHL SUB PUSH2 0x864 DUP3 PUSH2 0x4F17 JUMP JUMPDEST AND CALLER EQ SWAP1 DUP2 PUSH2 0x1CD1 JUMPI JUMPDEST POP ISZERO PUSH2 0x1C9B JUMPI PUSH1 0xA4 PUSH1 0x24 CALLDATALOAD ADD CALLDATALOAD ISZERO PUSH2 0x1C66 JUMPI PUSH2 0x894 PUSH1 0x24 PUSH1 0x4 CALLDATALOAD ADD PUSH1 0x4 CALLDATALOAD PUSH1 0x4 ADD PUSH2 0x4F2B JUMP JUMPDEST SWAP1 POP ISZERO PUSH2 0x1C35 JUMPI PUSH4 0x1E13380 TIMESTAMP DIV PUSH2 0x7B2 DUP2 ADD DUP2 GT PUSH2 0x14D7 JUMPI PUSH2 0x7B2 ADD PUSH1 0xA4 PUSH1 0x4 CALLDATALOAD ADD CALLDATALOAD GT PUSH2 0x1C01 JUMPI PUSH4 0x3B9ACA00 PUSH1 0x24 CALLDATALOAD PUSH1 0x4 ADD CALLDATALOAD LT ISZERO PUSH2 0x1BCA JUMPI PUSH1 0x8 DUP1 SLOAD PUSH1 0x1 ADD PUSH1 0xC0 DUP2 SWAP1 MSTORE SWAP1 SSTORE PUSH2 0x8EB PUSH1 0x4 DUP1 CALLDATALOAD ADD DUP1 PUSH2 0x4F60 JUMP JUMPDEST PUSH2 0x100 MSTORE PUSH2 0x903 PUSH1 0x24 PUSH1 0x4 CALLDATALOAD ADD PUSH1 0x4 CALLDATALOAD PUSH1 0x4 ADD PUSH2 0x4F2B JUMP JUMPDEST SWAP1 PUSH2 0x918 PUSH1 0x44 PUSH1 0x4 CALLDATALOAD ADD PUSH1 0x4 CALLDATALOAD PUSH1 0x4 ADD PUSH2 0x4F60 JUMP JUMPDEST SWAP1 PUSH2 0x92D PUSH1 0x64 PUSH1 0x4 CALLDATALOAD ADD PUSH1 0x4 CALLDATALOAD PUSH1 0x4 ADD PUSH2 0x4F60 JUMP JUMPDEST SWAP1 PUSH2 0x942 PUSH1 0x84 PUSH1 0x4 CALLDATALOAD ADD PUSH1 0x4 CALLDATALOAD PUSH1 0x4 ADD PUSH2 0x4F60 JUMP JUMPDEST SWAP2 SWAP1 SWAP3 PUSH2 0x958 PUSH1 0x24 DUP1 CALLDATALOAD ADD PUSH1 0x24 CALLDATALOAD PUSH1 0x4 ADD PUSH2 0x4F60 JUMP JUMPDEST SWAP6 SWAP1 SWAP7 PUSH1 0x3 PUSH1 0x44 PUSH1 0x24 CALLDATALOAD ADD CALLDATALOAD LT ISZERO PUSH2 0x20D JUMPI PUSH1 0x2 PUSH1 0x64 PUSH1 0x24 CALLDATALOAD ADD CALLDATALOAD LT ISZERO PUSH2 0x20D JUMPI PUSH1 0x4 PUSH1 0x84 PUSH1 0x24 CALLDATALOAD ADD CALLDATALOAD LT ISZERO PUSH2 0x20D JUMPI PUSH2 0x997 PUSH1 0x4 PUSH1 0x44 CALLDATALOAD ADD DUP1 PUSH2 0x4F60 JUMP JUMPDEST SWAP10 SWAP1 SWAP11 PUSH1 0x44 CALLDATALOAD PUSH1 0x44 ADD PUSH1 0x44 CALLDATALOAD PUSH1 0x4 ADD SWAP1 PUSH2 0x9B0 SWAP2 PUSH2 0x4F2B JUMP JUMPDEST SWAP14 SWAP1 PUSH2 0x120 MSTORE PUSH1 0x40 MLOAD DUP1 PUSH2 0x180 MSTORE PUSH2 0x9C7 SWAP1 PUSH2 0x43A1 JUMP JUMPDEST PUSH2 0x180 MLOAD PUSH1 0x0 SWAP1 MSTORE PUSH1 0x40 MLOAD DUP1 PUSH2 0x1A0 MSTORE PUSH2 0x9E0 SWAP1 PUSH2 0x434F JUMP JUMPDEST PUSH1 0xC0 MLOAD PUSH2 0x1A0 MLOAD MSTORE CALLER PUSH2 0x1A0 MLOAD PUSH1 0x20 ADD MSTORE CALLDATASIZE PUSH2 0x100 MLOAD PUSH2 0x9FF SWAP3 PUSH2 0x43F8 JUMP JUMPDEST PUSH2 0x1A0 MLOAD PUSH1 0x40 ADD MSTORE CALLDATASIZE SWAP1 PUSH2 0xA12 SWAP3 PUSH2 0x4464 JUMP JUMPDEST PUSH2 0x1A0 MLOAD PUSH1 0x60 ADD MSTORE CALLDATASIZE SWAP1 PUSH2 0xA25 SWAP3 PUSH2 0x43F8 JUMP JUMPDEST PUSH2 0x1A0 MLOAD PUSH1 0x80 ADD MSTORE CALLDATASIZE SWAP1 PUSH2 0xA38 SWAP3 PUSH2 0x43F8 JUMP JUMPDEST PUSH2 0x1A0 MLOAD PUSH1 0xA0 ADD MSTORE CALLDATASIZE SWAP1 PUSH2 0xA4B SWAP3 PUSH2 0x43F8 JUMP JUMPDEST PUSH2 0x1A0 MLOAD PUSH1 0xC0 ADD MSTORE PUSH1 0x4 CALLDATALOAD PUSH1 0xA4 ADD CALLDATALOAD PUSH2 0x1A0 MLOAD PUSH1 0xE0 ADD MSTORE PUSH1 0x4 CALLDATALOAD PUSH1 0xC4 ADD CALLDATALOAD PUSH2 0x1A0 MLOAD PUSH2 0x100 ADD MSTORE PUSH1 0x24 CALLDATALOAD PUSH1 0x4 ADD CALLDATALOAD PUSH2 0x1A0 MLOAD PUSH2 0x120 ADD MSTORE CALLDATASIZE SWAP1 PUSH2 0xA8D SWAP3 PUSH2 0x43F8 JUMP JUMPDEST PUSH2 0x1A0 MLOAD PUSH2 0x140 ADD MSTORE PUSH1 0x24 CALLDATALOAD PUSH1 0x44 ADD CALLDATALOAD PUSH2 0x1A0 MLOAD PUSH2 0x160 ADD SWAP1 PUSH2 0xAAF SWAP2 PUSH2 0x4FBE JUMP JUMPDEST PUSH1 0x24 CALLDATALOAD PUSH1 0x64 ADD CALLDATALOAD PUSH2 0x1A0 MLOAD PUSH2 0x180 ADD SWAP1 PUSH2 0xAC8 SWAP2 PUSH2 0x4FCA JUMP JUMPDEST PUSH1 0x24 CALLDATALOAD PUSH1 0x84 ADD CALLDATALOAD PUSH2 0x1A0 MLOAD PUSH2 0x1A0 ADD SWAP1 PUSH2 0xAE1 SWAP2 PUSH2 0x4FD6 JUMP JUMPDEST PUSH1 0x24 CALLDATALOAD PUSH1 0xA4 ADD CALLDATALOAD PUSH2 0x1A0 MLOAD PUSH2 0x1C0 ADD MSTORE CALLDATASIZE SWAP1 PUSH2 0xAFC SWAP3 PUSH2 0x43F8 JUMP JUMPDEST PUSH2 0x1A0 MLOAD PUSH2 0x1E0 ADD MSTORE CALLDATASIZE PUSH2 0x120 MLOAD SWAP2 PUSH2 0xB14 SWAP3 PUSH2 0x4464 JUMP JUMPDEST PUSH2 0x1A0 MLOAD PUSH2 0x200 ADD MSTORE PUSH2 0x180 MLOAD PUSH2 0x1A0 MLOAD PUSH2 0x220 ADD MSTORE CALLDATASIZE PUSH1 0x80 MLOAD PUSH1 0x4 ADD SWAP1 PUSH2 0xB3B SWAP2 PUSH2 0x44EE JUMP JUMPDEST PUSH2 0x1A0 MLOAD PUSH2 0x240 ADD MSTORE PUSH2 0x1A0 MLOAD PUSH2 0x260 ADD PUSH1 0x0 SWAP1 MSTORE PUSH2 0x1A0 MLOAD PUSH2 0x280 ADD PUSH1 0x0 SWAP1 MSTORE PUSH1 0xC0 MLOAD PUSH1 0x0 MSTORE PUSH1 0xB PUSH1 0x20 MSTORE PUSH1 0x40 PUSH1 0x0 KECCAK256 PUSH2 0x1A0 MLOAD DUP1 MLOAD DUP3 SSTORE PUSH1 0x1 PUSH1 0xA0 SHL PUSH1 0x1 SWAP1 SUB PUSH1 0x20 DUP3 ADD MLOAD AND PUSH1 0x1 PUSH1 0x1 PUSH1 0x60 SHL SUB PUSH1 0xA0 SHL PUSH1 0x1 DUP5 ADD SLOAD AND OR PUSH1 0x1 DUP4 ADD SSTORE PUSH1 0x40 ADD MLOAD DUP1 MLOAD SWAP1 PUSH1 0x1 PUSH1 0x1 PUSH1 0x40 SHL SUB DUP3 GT PUSH2 0x12D6 JUMPI DUP2 SWAP1 PUSH2 0xBBE PUSH1 0x2 DUP6 ADD SLOAD PUSH2 0x49A1 JUMP JUMPDEST PUSH1 0x1F DUP2 GT PUSH2 0x1B95 JUMPI JUMPDEST POP PUSH1 0x20 SWAP1 PUSH1 0x1F DUP4 GT PUSH1 0x1 EQ PUSH2 0x1B23 JUMPI PUSH1 0x0 SWAP3 PUSH2 0x1B18 JUMPI JUMPDEST POP POP DUP2 PUSH1 0x1 SHL SWAP2 PUSH1 0x0 NOT SWAP1 PUSH1 0x3 SHL SHR NOT AND OR PUSH1 0x2 DUP3 ADD SSTORE JUMPDEST PUSH1 0x60 PUSH2 0x1A0 MLOAD ADD MLOAD DUP1 MLOAD SWAP1 PUSH1 0x1 PUSH1 0x40 SHL DUP3 GT PUSH2 0x12D6 JUMPI PUSH1 0x3 DUP4 ADD SLOAD DUP3 PUSH1 0x3 DUP6 ADD SSTORE DUP1 DUP4 LT PUSH2 0x1AE5 JUMPI JUMPDEST POP PUSH1 0x20 ADD SWAP1 PUSH1 0x3 DUP4 ADD PUSH1 0x0 MSTORE PUSH1 0x20 PUSH1 0x0 KECCAK256 SWAP2 PUSH1 0x0 SWAP1 JUMPDEST DUP3 DUP3 LT PUSH2 0x19C5 JUMPI DUP5 PUSH1 0x80 PUSH2 0x1A0 MLOAD ADD MLOAD DUP1 MLOAD SWAP1 PUSH1 0x1 PUSH1 0x1 PUSH1 0x40 SHL SUB DUP3 GT PUSH2 0x12D6 JUMPI DUP2 SWAP1 PUSH2 0xC65 PUSH1 0x4 DUP6 ADD SLOAD PUSH2 0x49A1 JUMP JUMPDEST PUSH1 0x1F DUP2 GT PUSH2 0x1990 JUMPI JUMPDEST POP PUSH1 0x20 SWAP1 PUSH1 0x1F DUP4 GT PUSH1 0x1 EQ PUSH2 0x191E JUMPI PUSH1 0x0 SWAP3 PUSH2 0x1913 JUMPI JUMPDEST POP POP DUP2 PUSH1 0x1 SHL SWAP2 PUSH1 0x0 NOT SWAP1 PUSH1 0x3 SHL SHR NOT AND OR PUSH1 0x4 DUP3 ADD SSTORE JUMPDEST PUSH1 0xA0 PUSH2 0x1A0 MLOAD ADD MLOAD DUP1 MLOAD SWAP1 PUSH1 0x1 PUSH1 0x1 PUSH1 0x40 SHL SUB DUP3 GT PUSH2 0x12D6 JUMPI DUP2 SWAP1 PUSH2 0xCC5 PUSH1 0x5 DUP6 ADD SLOAD PUSH2 0x49A1 JUMP JUMPDEST PUSH1 0x1F DUP2 GT PUSH2 0x18DE JUMPI JUMPDEST POP PUSH1 0x20 SWAP1 PUSH1 0x1F DUP4 GT PUSH1 0x1 EQ PUSH2 0x186C JUMPI PUSH1 0x0 SWAP3 PUSH2 0x1861 JUMPI JUMPDEST POP POP DUP2 PUSH1 0x1 SHL SWAP2 PUSH1 0x0 NOT SWAP1 PUSH1 0x3 SHL SHR NOT AND OR PUSH1 0x5 DUP3 ADD SSTORE JUMPDEST PUSH1 0xC0 PUSH2 0x1A0 MLOAD ADD MLOAD DUP1 MLOAD SWAP1 PUSH1 0x1 PUSH1 0x1 PUSH1 0x40 SHL SUB DUP3 GT PUSH2 0x12D6 JUMPI DUP2 SWAP1 PUSH2 0xD25 PUSH1 0x6 DUP6 ADD SLOAD PUSH2 0x49A1 JUMP JUMPDEST PUSH1 0x1F DUP2 GT PUSH2 0x182C JUMPI JUMPDEST POP PUSH1 0x20 SWAP1 PUSH1 0x1F DUP4 GT PUSH1 0x1 EQ PUSH2 0x17BA JUMPI PUSH1 0x0 SWAP3 PUSH2 0x17AF JUMPI JUMPDEST POP POP DUP2 PUSH1 0x1 SHL SWAP2 PUSH1 0x0 NOT SWAP1 PUSH1 0x3 SHL SHR NOT AND OR PUSH1 0x6 DUP3 ADD SSTORE JUMPDEST PUSH2 0x140 PUSH2 0x1A0 MLOAD PUSH1 0xE0 DUP2 ADD MLOAD PUSH1 0x7 DUP5 ADD SSTORE PUSH2 0x100 DUP2 ADD MLOAD PUSH1 0x8 DUP5 ADD SSTORE PUSH2 0x120 DUP2 ADD MLOAD PUSH1 0x9 DUP5 ADD SSTORE ADD MLOAD DUP1 MLOAD SWAP1 PUSH1 0x1 PUSH1 0x1 PUSH1 0x40 SHL SUB DUP3 GT PUSH2 0x12D6 JUMPI DUP2 SWAP1 PUSH2 0xDA6 PUSH1 0xA DUP6 ADD SLOAD PUSH2 0x49A1 JUMP JUMPDEST PUSH1 0x1F DUP2 GT PUSH2 0x177A JUMPI JUMPDEST POP PUSH1 0x20 SWAP1 PUSH1 0x1F DUP4 GT PUSH1 0x1 EQ PUSH2 0x1708 JUMPI PUSH1 0x0 SWAP3 PUSH2 0x16FD JUMPI JUMPDEST POP POP DUP2 PUSH1 0x1 SHL SWAP2 PUSH1 0x0 NOT SWAP1 PUSH1 0x3 SHL SHR NOT AND OR PUSH1 0xA DUP3 ADD SSTORE JUMPDEST PUSH2 0x1A0 MLOAD PUSH2 0x160 DUP2 ADD MLOAD SWAP1 PUSH1 0x3 DUP3 LT ISZERO PUSH2 0x16E7 JUMPI PUSH1 0xB DUP4 ADD SLOAD SWAP2 PUSH2 0x180 DUP3 ADD MLOAD PUSH1 0x2 DUP2 LT ISZERO PUSH2 0x16E7 JUMPI PUSH2 0x1A0 DUP4 ADD MLOAD PUSH1 0x4 DUP2 LT ISZERO PUSH2 0x16E7 JUMPI PUSH2 0x1E0 SWAP5 PUSH1 0xFF PUSH3 0xFF0000 PUSH2 0xFF00 SWAP4 PUSH1 0x10 SHL AND SWAP5 AND SWAP1 PUSH3 0xFFFFFF NOT AND OR SWAP2 PUSH1 0x8 SHL AND OR OR PUSH1 0xB DUP5 ADD SSTORE PUSH2 0x1C0 DUP2 ADD MLOAD PUSH1 0xC DUP5 ADD SSTORE ADD MLOAD DUP1 MLOAD SWAP1 PUSH1 0x1 PUSH1 0x1 PUSH1 0x40 SHL SUB DUP3 GT PUSH2 0x12D6 JUMPI DUP2 SWAP1 PUSH2 0xE6B PUSH1 0xD DUP6 ADD SLOAD PUSH2 0x49A1 JUMP JUMPDEST PUSH1 0x1F DUP2 GT PUSH2 0x16B2 JUMPI JUMPDEST POP PUSH1 0x20 SWAP1 PUSH1 0x1F DUP4 GT PUSH1 0x1 EQ PUSH2 0x1640 JUMPI PUSH1 0x0 SWAP3 PUSH2 0x1635 JUMPI JUMPDEST POP POP DUP2 PUSH1 0x1 SHL SWAP2 PUSH1 0x0 NOT SWAP1 PUSH1 0x3 SHL SHR NOT AND OR PUSH1 0xD DUP3 ADD SSTORE JUMPDEST PUSH2 0x200 PUSH2 0x1A0 MLOAD ADD MLOAD DUP1 MLOAD SWAP1 PUSH1 0x1 PUSH1 0x40 SHL DUP3 GT PUSH2 0x12D6 JUMPI PUSH1 0xE DUP4 ADD SLOAD DUP3 PUSH1 0xE DUP6 ADD SSTORE DUP1 DUP4 LT PUSH2 0x1602 JUMPI JUMPDEST POP PUSH1 0x20 ADD SWAP1 PUSH1 0xE DUP4 ADD PUSH1 0x0 MSTORE PUSH1 0x20 PUSH1 0x0 KECCAK256 SWAP2 PUSH1 0x0 SWAP1 JUMPDEST DUP3 DUP3 LT PUSH2 0x14ED JUMPI DUP5 PUSH2 0x220 PUSH2 0x1A0 MLOAD ADD MLOAD DUP1 MLOAD SWAP1 PUSH1 0x1 PUSH1 0x40 SHL DUP3 GT PUSH2 0x12D6 JUMPI PUSH1 0xF DUP4 ADD SLOAD DUP3 PUSH1 0xF DUP6 ADD SSTORE DUP1 DUP4 LT PUSH2 0x146B JUMPI JUMPDEST POP PUSH1 0x20 ADD PUSH1 0xF DUP4 ADD PUSH1 0x0 MSTORE PUSH1 0x20 PUSH1 0x0 KECCAK256 PUSH1 0x0 SWAP2 JUMPDEST DUP4 DUP4 LT PUSH2 0x144D JUMPI DUP5 PUSH1 0x10 DUP2 ADD SWAP1 PUSH2 0x240 PUSH2 0x1A0 MLOAD ADD MLOAD SWAP2 PUSH1 0x1 DUP1 PUSH1 0xA0 SHL SUB DUP4 MLOAD AND PUSH1 0x1 PUSH1 0x1 PUSH1 0x60 SHL SUB PUSH1 0xA0 SHL DUP3 SLOAD AND OR SWAP1 SSTORE PUSH1 0x20 DUP3 ADD MLOAD SWAP2 DUP3 MLOAD PUSH1 0x1 PUSH1 0x1 PUSH1 0x40 SHL SUB DUP2 GT PUSH2 0x12D6 JUMPI PUSH2 0xF7E PUSH1 0x11 DUP5 ADD SLOAD PUSH2 0x49A1 JUMP JUMPDEST PUSH1 0x1F DUP2 GT PUSH2 0x1418 JUMPI JUMPDEST POP PUSH1 0x20 PUSH1 0x1F DUP3 GT PUSH1 0x1 EQ PUSH2 0x13AA JUMPI DUP2 SWAP3 SWAP4 SWAP5 PUSH1 0x0 SWAP3 PUSH2 0x139F JUMPI JUMPDEST POP POP DUP2 PUSH1 0x1 SHL SWAP2 PUSH1 0x0 NOT SWAP1 PUSH1 0x3 SHL SHR NOT AND OR PUSH1 0x11 DUP4 ADD SSTORE JUMPDEST PUSH1 0x40 DUP2 ADD MLOAD DUP1 MLOAD SWAP1 PUSH1 0x1 PUSH1 0x1 PUSH1 0x40 SHL SUB DUP3 GT PUSH2 0x12D6 JUMPI PUSH2 0xFDC PUSH1 0x12 DUP6 ADD SLOAD PUSH2 0x49A1 JUMP JUMPDEST PUSH1 0x1F DUP2 GT PUSH2 0x136A JUMPI JUMPDEST POP PUSH1 0x20 SWAP1 PUSH1 0x1F DUP4 GT PUSH1 0x1 EQ PUSH2 0x12F7 JUMPI PUSH1 0x80 SWAP4 SWAP3 SWAP2 PUSH1 0x0 SWAP2 DUP4 PUSH2 0x12EC JUMPI JUMPDEST POP POP DUP2 PUSH1 0x1 SHL SWAP2 PUSH1 0x0 NOT SWAP1 PUSH1 0x3 SHL SHR NOT AND OR PUSH1 0x12 DUP5 ADD SSTORE JUMPDEST PUSH1 0x60 DUP2 ADD MLOAD PUSH1 0x13 DUP5 ADD SSTORE ADD MLOAD DUP1 MLOAD SWAP1 PUSH1 0x1 PUSH1 0x1 PUSH1 0x40 SHL SUB DUP3 GT PUSH2 0x12D6 JUMPI PUSH2 0x1044 PUSH1 0x14 DUP5 ADD SLOAD PUSH2 0x49A1 JUMP JUMPDEST PUSH1 0x1F DUP2 GT PUSH2 0x1296 JUMPI JUMPDEST POP PUSH1 0x20 SWAP1 PUSH1 0x1F DUP4 GT PUSH1 0x1 EQ PUSH2 0x1220 JUMPI SWAP2 DUP1 PUSH2 0x10C3 SWAP5 SWAP3 PUSH1 0x15 SWAP5 PUSH1 0x0 SWAP3 PUSH2 0x1215 JUMPI JUMPDEST POP POP DUP2 PUSH1 0x1 SHL SWAP2 PUSH1 0x0 NOT SWAP1 PUSH1 0x3 SHL SHR NOT AND OR PUSH1 0x14 DUP3 ADD SSTORE JUMPDEST ADD PUSH2 0x280 PUSH2 0x1A0 MLOAD PUSH2 0x10AB PUSH2 0x260 DUP3 ADD MLOAD ISZERO ISZERO DUP5 SWAP1 PUSH1 0xFF DUP1 NOT DUP4 SLOAD AND SWAP2 ISZERO ISZERO AND OR SWAP1 SSTORE JUMP JUMPDEST ADD MLOAD DUP2 SLOAD PUSH2 0xFF00 NOT AND SWAP1 ISZERO ISZERO PUSH1 0x8 SHL PUSH2 0xFF00 AND OR SWAP1 SSTORE JUMP JUMPDEST PUSH1 0x40 MLOAD PUSH2 0x10CF DUP2 PUSH2 0x43A1 JUMP JUMPDEST PUSH1 0x0 DUP2 MSTORE CALLER ISZERO PUSH2 0x11D1 JUMPI PUSH1 0xC0 MLOAD PUSH1 0x0 SWAP1 DUP2 MSTORE PUSH1 0x4 PUSH1 0x20 MSTORE PUSH1 0x40 SWAP1 KECCAK256 SLOAD PUSH2 0x1195 SWAP2 PUSH2 0x35C SWAP2 PUSH2 0x1109 SWAP1 PUSH1 0x1 PUSH1 0x1 PUSH1 0xA0 SHL SUB AND ISZERO ISZERO JUMPDEST ISZERO PUSH2 0x51F8 JUMP JUMPDEST PUSH1 0xC0 MLOAD PUSH1 0x0 SWAP1 DUP2 MSTORE PUSH1 0x4 PUSH1 0x20 MSTORE PUSH1 0x40 SWAP1 KECCAK256 SLOAD PUSH2 0x112F SWAP1 PUSH1 0x1 PUSH1 0x1 PUSH1 0xA0 SHL SUB AND ISZERO ISZERO PUSH2 0x1103 JUMP JUMPDEST CALLER PUSH1 0x0 MSTORE PUSH1 0x5 PUSH1 0x20 MSTORE PUSH1 0x40 PUSH1 0x0 KECCAK256 PUSH1 0x1 DUP2 SLOAD ADD SWAP1 SSTORE PUSH1 0xC0 MLOAD DUP1 PUSH1 0x0 MSTORE PUSH1 0x4 PUSH1 0x20 MSTORE PUSH1 0x40 PUSH1 0x0 KECCAK256 CALLER PUSH1 0x1 PUSH1 0x1 PUSH1 0x60 SHL SUB PUSH1 0xA0 SHL DUP3 SLOAD AND OR SWAP1 SSTORE DUP1 CALLER PUSH1 0x0 PUSH32 0xDDF252AD1BE2C89B69C2B068FC378DAA952BA7F163C4A11628F55A4DF523B3EF DUP2 DUP1 LOG4 CALLER PUSH2 0x4DA1 JUMP JUMPDEST PUSH1 0x40 MLOAD PUSH1 0xA4 PUSH1 0x24 CALLDATALOAD ADD CALLDATALOAD DUP2 MSTORE CALLER SWAP1 PUSH32 0x346237025E4B201CFBDB8011C7AFCD8A0CC16C50E910D6AC5645AB7406BE429D PUSH1 0x20 PUSH1 0xC0 MLOAD SWAP3 LOG3 PUSH1 0x1 DUP1 SSTORE STOP JUMPDEST PUSH1 0x64 PUSH1 0x40 MLOAD PUSH3 0x461BCD PUSH1 0xE5 SHL DUP2 MSTORE PUSH1 0x20 PUSH1 0x4 DUP3 ADD MSTORE PUSH1 0x20 PUSH1 0x24 DUP3 ADD MSTORE PUSH32 0x4552433732313A206D696E7420746F20746865207A65726F2061646472657373 PUSH1 0x44 DUP3 ADD MSTORE REVERT JUMPDEST ADD MLOAD SWAP1 POP DUP6 DUP1 PUSH2 0x106E JUMP JUMPDEST SWAP1 PUSH1 0x14 DUP5 ADD PUSH1 0x0 MSTORE PUSH1 0x20 PUSH1 0x0 KECCAK256 SWAP2 PUSH1 0x0 JUMPDEST PUSH1 0x1F NOT DUP6 AND DUP2 LT PUSH2 0x127E JUMPI POP SWAP3 PUSH2 0x10C3 SWAP5 SWAP3 PUSH1 0x1 SWAP3 PUSH1 0x15 SWAP6 DUP4 PUSH1 0x1F NOT DUP2 AND LT PUSH2 0x1265 JUMPI JUMPDEST POP POP POP DUP2 SHL ADD PUSH1 0x14 DUP3 ADD SSTORE PUSH2 0x1086 JUMP JUMPDEST ADD MLOAD PUSH1 0x0 NOT PUSH1 0xF8 DUP5 PUSH1 0x3 SHL AND SHR NOT AND SWAP1 SSTORE DUP6 DUP1 DUP1 PUSH2 0x1255 JUMP JUMPDEST SWAP2 SWAP3 PUSH1 0x20 PUSH1 0x1 DUP2 SWAP3 DUP7 DUP6 ADD MLOAD DUP2 SSTORE ADD SWAP5 ADD SWAP3 ADD PUSH2 0x1231 JUMP JUMPDEST PUSH2 0x12C6 SWAP1 PUSH1 0x14 DUP6 ADD PUSH1 0x0 MSTORE PUSH1 0x20 PUSH1 0x0 KECCAK256 PUSH1 0x1F DUP6 ADD PUSH1 0x5 SHR DUP2 ADD SWAP2 PUSH1 0x20 DUP7 LT PUSH2 0x12CC JUMPI JUMPDEST PUSH1 0x1F ADD PUSH1 0x5 SHR ADD SWAP1 PUSH2 0x4FE2 JUMP JUMPDEST DUP4 PUSH2 0x104D JUMP JUMPDEST SWAP1 SWAP2 POP DUP2 SWAP1 PUSH2 0x12B9 JUMP JUMPDEST PUSH4 0x4E487B71 PUSH1 0xE0 SHL PUSH1 0x0 MSTORE PUSH1 0x41 PUSH1 0x4 MSTORE PUSH1 0x24 PUSH1 0x0 REVERT JUMPDEST ADD MLOAD SWAP1 POP DUP6 DUP1 PUSH2 0x1002 JUMP JUMPDEST SWAP1 PUSH1 0x12 DUP6 ADD PUSH1 0x0 MSTORE PUSH1 0x20 PUSH1 0x0 KECCAK256 SWAP2 PUSH1 0x0 JUMPDEST PUSH1 0x1F NOT DUP6 AND DUP2 LT PUSH2 0x1352 JUMPI POP SWAP2 DUP4 SWAP2 PUSH1 0x1 SWAP4 PUSH1 0x80 SWAP7 SWAP6 PUSH1 0x1F NOT DUP2 AND LT PUSH2 0x1339 JUMPI JUMPDEST POP POP POP DUP2 SHL ADD PUSH1 0x12 DUP5 ADD SSTORE PUSH2 0x101A JUMP JUMPDEST ADD MLOAD PUSH1 0x0 NOT PUSH1 0xF8 DUP5 PUSH1 0x3 SHL AND SHR NOT AND SWAP1 SSTORE DUP6 DUP1 DUP1 PUSH2 0x1329 JUMP JUMPDEST SWAP2 SWAP3 PUSH1 0x20 PUSH1 0x1 DUP2 SWAP3 DUP7 DUP6 ADD MLOAD DUP2 SSTORE ADD SWAP5 ADD SWAP3 ADD PUSH2 0x1308 JUMP JUMPDEST PUSH2 0x1399 SWAP1 PUSH1 0x12 DUP7 ADD PUSH1 0x0 MSTORE PUSH1 0x20 PUSH1 0x0 KECCAK256 PUSH1 0x1F DUP6 ADD PUSH1 0x5 SHR DUP2 ADD SWAP2 PUSH1 0x20 DUP7 LT PUSH2 0x12CC JUMPI PUSH1 0x1F ADD PUSH1 0x5 SHR ADD SWAP1 PUSH2 0x4FE2 JUMP JUMPDEST DUP5 PUSH2 0xFE5 JUMP JUMPDEST ADD MLOAD SWAP1 POP DUP5 DUP1 PUSH2 0xFA1 JUMP JUMPDEST PUSH1 0x11 DUP5 ADD PUSH1 0x0 MSTORE PUSH1 0x20 PUSH1 0x0 KECCAK256 SWAP1 PUSH1 0x0 JUMPDEST PUSH1 0x1F NOT DUP5 AND DUP2 LT PUSH2 0x1400 JUMPI POP PUSH1 0x1 SWAP4 SWAP5 SWAP6 DUP4 PUSH1 0x1F NOT DUP2 AND LT PUSH2 0x13E7 JUMPI JUMPDEST POP POP POP DUP2 SHL ADD PUSH1 0x11 DUP4 ADD SSTORE PUSH2 0xFB9 JUMP JUMPDEST ADD MLOAD PUSH1 0x0 NOT PUSH1 0xF8 DUP5 PUSH1 0x3 SHL AND SHR NOT AND SWAP1 SSTORE DUP5 DUP1 DUP1 PUSH2 0x13D7 JUMP JUMPDEST SWAP1 SWAP2 PUSH1 0x20 PUSH1 0x1 DUP2 SWAP3 DUP6 DUP11 ADD MLOAD DUP2 SSTORE ADD SWAP4 ADD SWAP2 ADD PUSH2 0x13BA JUMP JUMPDEST PUSH2 0x1447 SWAP1 PUSH1 0x11 DUP6 ADD PUSH1 0x0 MSTORE PUSH1 0x20 PUSH1 0x0 KECCAK256 PUSH1 0x1F DUP5 ADD PUSH1 0x5 SHR DUP2 ADD SWAP2 PUSH1 0x20 DUP6 LT PUSH2 0x12CC JUMPI PUSH1 0x1F ADD PUSH1 0x5 SHR ADD SWAP1 PUSH2 0x4FE2 JUMP JUMPDEST DUP5 PUSH2 0xF87 JUMP JUMPDEST PUSH1 0x5 PUSH1 0x20 DUP3 PUSH2 0x145F PUSH1 0x1 SWAP5 MLOAD DUP7 PUSH2 0x5042 JUMP JUMPDEST ADD SWAP3 ADD SWAP3 ADD SWAP2 SWAP1 PUSH2 0xF29 JUMP JUMPDEST PUSH1 0x5 DUP2 DUP2 MUL DIV DUP2 SUB PUSH2 0x14D7 JUMPI PUSH1 0x5 DUP4 DUP2 MUL DIV DUP4 SUB PUSH2 0x14D7 JUMPI PUSH1 0xF DUP5 ADD PUSH1 0x0 MSTORE PUSH1 0x20 PUSH1 0x0 KECCAK256 DUP4 PUSH1 0x5 MUL DUP2 ADD JUMPDEST DUP3 PUSH1 0x5 MUL DUP3 ADD DUP2 LT PUSH2 0x14A9 JUMPI POP POP PUSH2 0xF15 JUMP JUMPDEST DUP1 PUSH1 0x0 PUSH1 0x5 SWAP3 SSTORE PUSH1 0x0 PUSH1 0x1 DUP3 ADD SSTORE PUSH2 0x14C3 PUSH1 0x2 DUP3 ADD PUSH2 0x4FF9 JUMP JUMPDEST PUSH1 0x0 PUSH1 0x3 DUP3 ADD SSTORE PUSH1 0x0 PUSH1 0x4 DUP3 ADD SSTORE ADD PUSH2 0x1496 JUMP JUMPDEST PUSH4 0x4E487B71 PUSH1 0xE0 SHL PUSH1 0x0 MSTORE PUSH1 0x11 PUSH1 0x4 MSTORE PUSH1 0x24 PUSH1 0x0 REVERT JUMPDEST DUP1 MLOAD DUP1 MLOAD SWAP1 PUSH1 0x1 PUSH1 0x1 PUSH1 0x40 SHL SUB DUP3 GT PUSH2 0x12D6 JUMPI PUSH2 0x150A DUP7 SLOAD PUSH2 0x49A1 JUMP JUMPDEST PUSH1 0x1F DUP2 GT PUSH2 0x15D0 JUMPI JUMPDEST POP PUSH1 0x20 SWAP1 PUSH1 0x1F DUP4 GT PUSH1 0x1 EQ PUSH2 0x1560 JUMPI SWAP3 DUP3 PUSH1 0x1 SWAP5 SWAP4 PUSH1 0x20 SWAP4 DUP7 SWAP6 PUSH1 0x0 SWAP3 PUSH2 0x1555 JUMPI JUMPDEST POP POP PUSH1 0x0 NOT PUSH1 0x3 DUP4 SWAP1 SHL SHR NOT AND SWAP1 DUP5 SHL OR DUP8 SSTORE JUMPDEST ADD SWAP5 ADD SWAP2 ADD SWAP1 SWAP3 PUSH2 0xEE3 JUMP JUMPDEST ADD MLOAD SWAP1 POP DUP11 DUP1 PUSH2 0x1535 JUMP JUMPDEST SWAP1 DUP7 PUSH1 0x0 MSTORE PUSH1 0x20 PUSH1 0x0 KECCAK256 SWAP2 PUSH1 0x0 JUMPDEST PUSH1 0x1F NOT DUP6 AND DUP2 LT PUSH2 0x15B8 JUMPI POP DUP4 PUSH1 0x20 SWAP4 PUSH1 0x1 SWAP7 SWAP4 DUP8 SWAP7 SWAP4 DUP8 SWAP5 PUSH1 0x1F NOT DUP2 AND LT PUSH2 0x159F JUMPI JUMPDEST POP POP POP DUP2 SHL ADD DUP8 SSTORE PUSH2 0x1549 JUMP JUMPDEST ADD MLOAD PUSH1 0x0 NOT PUSH1 0xF8 DUP5 PUSH1 0x3 SHL AND SHR NOT AND SWAP1 SSTORE DUP11 DUP1 DUP1 PUSH2 0x1592 JUMP JUMPDEST SWAP2 SWAP3 PUSH1 0x20 PUSH1 0x1 DUP2 SWAP3 DUP7 DUP6 ADD MLOAD DUP2 SSTORE ADD SWAP5 ADD SWAP3 ADD PUSH2 0x156E JUMP JUMPDEST PUSH2 0x15FC SWAP1 DUP8 PUSH1 0x0 MSTORE PUSH1 0x20 PUSH1 0x0 KECCAK256 PUSH1 0x1F DUP6 ADD PUSH1 0x5 SHR DUP2 ADD SWAP2 PUSH1 0x20 DUP7 LT PUSH2 0x12CC JUMPI PUSH1 0x1F ADD PUSH1 0x5 SHR ADD SWAP1 PUSH2 0x4FE2 JUMP JUMPDEST DUP8 PUSH2 0x1513 JUMP JUMPDEST PUSH1 0xE DUP5 ADD PUSH1 0x0 MSTORE PUSH1 0x20 PUSH1 0x0 KECCAK256 SWAP1 DUP4 DUP3 ADD JUMPDEST DUP2 DUP4 ADD DUP2 LT PUSH2 0x1623 JUMPI POP POP PUSH2 0xECD JUMP JUMPDEST DUP1 PUSH2 0x162F PUSH1 0x1 SWAP3 PUSH2 0x4FF9 JUMP JUMPDEST ADD PUSH2 0x1613 JUMP JUMPDEST ADD MLOAD SWAP1 POP DUP4 DUP1 PUSH2 0xE8B JUMP JUMPDEST SWAP3 POP PUSH1 0xD DUP5 ADD PUSH1 0x0 MSTORE PUSH1 0x20 PUSH1 0x0 KECCAK256 SWAP1 PUSH1 0x0 SWAP4 JUMPDEST PUSH1 0x1F NOT DUP5 AND DUP6 LT PUSH2 0x1697 JUMPI PUSH1 0x1 SWAP5 POP DUP4 PUSH1 0x1F NOT DUP2 AND LT PUSH2 0x167E JUMPI JUMPDEST POP POP POP DUP2 SHL ADD PUSH1 0xD DUP3 ADD SSTORE PUSH2 0xEA3 JUMP JUMPDEST ADD MLOAD PUSH1 0x0 NOT PUSH1 0xF8 DUP5 PUSH1 0x3 SHL AND SHR NOT AND SWAP1 SSTORE DUP4 DUP1 DUP1 PUSH2 0x166E JUMP JUMPDEST DUP2 DUP2 ADD MLOAD DUP4 SSTORE PUSH1 0x20 SWAP5 DUP6 ADD SWAP5 PUSH1 0x1 SWAP1 SWAP4 ADD SWAP3 SWAP1 SWAP2 ADD SWAP1 PUSH2 0x1653 JUMP JUMPDEST PUSH2 0x16E1 SWAP1 PUSH1 0xD DUP7 ADD PUSH1 0x0 MSTORE PUSH1 0x20 PUSH1 0x0 KECCAK256 PUSH1 0x1F DUP6 ADD PUSH1 0x5 SHR DUP2 ADD SWAP2 PUSH1 0x20 DUP7 LT PUSH2 0x12CC JUMPI PUSH1 0x1F ADD PUSH1 0x5 SHR ADD SWAP1 PUSH2 0x4FE2 JUMP JUMPDEST DUP5 PUSH2 0xE74 JUMP JUMPDEST PUSH4 0x4E487B71 PUSH1 0xE0 SHL PUSH1 0x0 MSTORE PUSH1 0x21 PUSH1 0x4 MSTORE PUSH1 0x24 PUSH1 0x0 REVERT JUMPDEST ADD MLOAD SWAP1 POP DUP4 DUP1 PUSH2 0xDC6 JUMP JUMPDEST SWAP3 POP PUSH1 0xA DUP5 ADD PUSH1 0x0 MSTORE PUSH1 0x20 PUSH1 0x0 KECCAK256 SWAP1 PUSH1 0x0 SWAP4 JUMPDEST PUSH1 0x1F NOT DUP5 AND DUP6 LT PUSH2 0x175F JUMPI PUSH1 0x1 SWAP5 POP DUP4 PUSH1 0x1F NOT DUP2 AND LT PUSH2 0x1746 JUMPI JUMPDEST POP POP POP DUP2 SHL ADD PUSH1 0xA DUP3 ADD SSTORE PUSH2 0xDDE JUMP JUMPDEST ADD MLOAD PUSH1 0x0 NOT PUSH1 0xF8 DUP5 PUSH1 0x3 SHL AND SHR NOT AND SWAP1 SSTORE DUP4 DUP1 DUP1 PUSH2 0x1736 JUMP JUMPDEST DUP2 DUP2 ADD MLOAD DUP4 SSTORE PUSH1 0x20 SWAP5 DUP6 ADD SWAP5 PUSH1 0x1 SWAP1 SWAP4 ADD SWAP3 SWAP1 SWAP2 ADD SWAP1 PUSH2 0x171B JUMP JUMPDEST PUSH2 0x17A9 SWAP1 PUSH1 0xA DUP7 ADD PUSH1 0x0 MSTORE PUSH1 0x20 PUSH1 0x0 KECCAK256 PUSH1 0x1F DUP6 ADD PUSH1 0x5 SHR DUP2 ADD SWAP2 PUSH1 0x20 DUP7 LT PUSH2 0x12CC JUMPI PUSH1 0x1F ADD PUSH1 0x5 SHR ADD SWAP1 PUSH2 0x4FE2 JUMP JUMPDEST DUP5 PUSH2 0xDAF JUMP JUMPDEST ADD MLOAD SWAP1 POP DUP4 DUP1 PUSH2 0xD45 JUMP JUMPDEST SWAP3 POP PUSH1 0x6 DUP5 ADD PUSH1 0x0 MSTORE PUSH1 0x20 PUSH1 0x0 KECCAK256 SWAP1 PUSH1 0x0 SWAP4 JUMPDEST PUSH1 0x1F NOT DUP5 AND DUP6 LT PUSH2 0x1811 JUMPI PUSH1 0x1 SWAP5 POP DUP4 PUSH1 0x1F NOT DUP2 AND LT PUSH2 0x17F8 JUMPI JUMPDEST POP POP POP DUP2 SHL ADD PUSH1 0x6 DUP3 ADD SSTORE PUSH2 0xD5D JUMP JUMPDEST ADD MLOAD PUSH1 0x0 NOT PUSH1 0xF8 DUP5 PUSH1 0x3 SHL AND SHR NOT AND SWAP1 SSTORE DUP4 DUP1 DUP1 PUSH2 0x17E8 JUMP JUMPDEST DUP2 DUP2 ADD MLOAD DUP4 SSTORE PUSH1 0x20 SWAP5 DUP6 ADD SWAP5 PUSH1 0x1 SWAP1 SWAP4 ADD SWAP3 SWAP1 SWAP2 ADD SWAP1 PUSH2 0x17CD JUMP JUMPDEST PUSH2 0x185B SWAP1 PUSH1 0x6 DUP7 ADD PUSH1 0x0 MSTORE PUSH1 0x20 PUSH1 0x0 KECCAK256 PUSH1 0x1F DUP6 ADD PUSH1 0x5 SHR DUP2 ADD SWAP2 PUSH1 0x20 DUP7 LT PUSH2 0x12CC JUMPI PUSH1 0x1F ADD PUSH1 0x5 SHR ADD SWAP1 PUSH2 0x4FE2 JUMP JUMPDEST DUP5 PUSH2 0xD2E JUMP JUMPDEST ADD MLOAD SWAP1 POP DUP4 DUP1 PUSH2 0xCE5 JUMP JUMPDEST SWAP3 POP PUSH1 0x5 DUP5 ADD PUSH1 0x0 MSTORE PUSH1 0x20 PUSH1 0x0 KECCAK256 SWAP1 PUSH1 0x0 SWAP4 JUMPDEST PUSH1 0x1F NOT DUP5 AND DUP6 LT PUSH2 0x18C3 JUMPI PUSH1 0x1 SWAP5 POP DUP4 PUSH1 0x1F NOT DUP2 AND LT PUSH2 0x18AA JUMPI JUMPDEST POP POP POP DUP2 SHL ADD PUSH1 0x5 DUP3 ADD SSTORE PUSH2 0xCFD JUMP JUMPDEST ADD MLOAD PUSH1 0x0 NOT PUSH1 0xF8 DUP5 PUSH1 0x3 SHL AND SHR NOT AND SWAP1 SSTORE DUP4 DUP1 DUP1 PUSH2 0x189A JUMP JUMPDEST DUP2 DUP2 ADD MLOAD DUP4 SSTORE PUSH1 0x20 SWAP5 DUP6 ADD SWAP5 PUSH1 0x1 SWAP1 SWAP4 ADD SWAP3 SWAP1 SWAP2 ADD SWAP1 PUSH2 0x187F JUMP JUMPDEST PUSH2 0x190D SWAP1 PUSH1 0x5 DUP7 ADD PUSH1 0x0 MSTORE PUSH1 0x20 PUSH1 0x0 KECCAK256 PUSH1 0x1F DUP6 ADD PUSH1 0x5 SHR DUP2 ADD SWAP2 PUSH1 0x20 DUP7 LT PUSH2 0x12CC JUMPI PUSH1 0x1F ADD PUSH1 0x5 SHR ADD SWAP1 PUSH2 0x4FE2 JUMP JUMPDEST DUP5 PUSH2 0xCCE JUMP JUMPDEST ADD MLOAD SWAP1 POP DUP4 DUP1 PUSH2 0xC85 JUMP JUMPDEST SWAP3 POP PUSH1 0x4 DUP5 ADD PUSH1 0x0 MSTORE PUSH1 0x20 PUSH1 0x0 KECCAK256 SWAP1 PUSH1 0x0 SWAP4 JUMPDEST PUSH1 0x1F NOT DUP5 AND DUP6 LT PUSH2 0x1975 JUMPI PUSH1 0x1 SWAP5 POP DUP4 PUSH1 0x1F NOT DUP2 AND LT PUSH2 0x195C JUMPI JUMPDEST POP POP POP DUP2 SHL ADD PUSH1 0x4 DUP3 ADD SSTORE PUSH2 0xC9D JUMP JUMPDEST ADD MLOAD PUSH1 0x0 NOT PUSH1 0xF8 DUP5 PUSH1 0x3 SHL AND SHR NOT AND SWAP1 SSTORE DUP4 DUP1 DUP1 PUSH2 0x194C JUMP JUMPDEST DUP2 DUP2 ADD MLOAD DUP4 SSTORE PUSH1 0x20 SWAP5 DUP6 ADD SWAP5 PUSH1 0x1 SWAP1 SWAP4 ADD SWAP3 SWAP1 SWAP2 ADD SWAP1 PUSH2 0x1931 JUMP JUMPDEST PUSH2 0x19BF SWAP1 PUSH1 0x4 DUP7 ADD PUSH1 0x0 MSTORE PUSH1 0x20 PUSH1 0x0 KECCAK256 PUSH1 0x1F DUP6 ADD PUSH1 0x5 SHR DUP2 ADD SWAP2 PUSH1 0x20 DUP7 LT PUSH2 0x12CC JUMPI PUSH1 0x1F ADD PUSH1 0x5 SHR ADD SWAP1 PUSH2 0x4FE2 JUMP JUMPDEST DUP5 PUSH2 0xC6E JUMP JUMPDEST DUP1 MLOAD DUP1 MLOAD SWAP1 PUSH1 0x1 PUSH1 0x1 PUSH1 0x40 SHL SUB DUP3 GT PUSH2 0x12D6 JUMPI PUSH2 0x19E2 DUP7 SLOAD PUSH2 0x49A1 JUMP JUMPDEST PUSH1 0x1F DUP2 GT PUSH2 0x1AA8 JUMPI JUMPDEST POP PUSH1 0x20 SWAP1 PUSH1 0x1F DUP4 GT PUSH1 0x1 EQ PUSH2 0x1A38 JUMPI SWAP3 DUP3 PUSH1 0x1 SWAP5 SWAP4 PUSH1 0x20 SWAP4 DUP7 SWAP6 PUSH1 0x0 SWAP3 PUSH2 0x1A2D JUMPI JUMPDEST POP POP PUSH1 0x0 NOT PUSH1 0x3 DUP4 SWAP1 SHL SHR NOT AND SWAP1 DUP5 SHL OR DUP8 SSTORE JUMPDEST ADD SWAP5 ADD SWAP2 ADD SWAP1 SWAP3 PUSH2 0xC35 JUMP JUMPDEST ADD MLOAD SWAP1 POP DUP11 DUP1 PUSH2 0x1A0D JUMP JUMPDEST SWAP1 DUP7 PUSH1 0x0 MSTORE PUSH1 0x20 PUSH1 0x0 KECCAK256 SWAP2 PUSH1 0x0 JUMPDEST PUSH1 0x1F NOT DUP6 AND DUP2 LT PUSH2 0x1A90 JUMPI POP DUP4 PUSH1 0x20 SWAP4 PUSH1 0x1 SWAP7 SWAP4 DUP8 SWAP7 SWAP4 DUP8 SWAP5 PUSH1 0x1F NOT DUP2 AND LT PUSH2 0x1A77 JUMPI JUMPDEST POP POP POP DUP2 SHL ADD DUP8 SSTORE PUSH2 0x1A21 JUMP JUMPDEST ADD MLOAD PUSH1 0x0 NOT PUSH1 0xF8 DUP5 PUSH1 0x3 SHL AND SHR NOT AND SWAP1 SSTORE DUP11 DUP1 DUP1 PUSH2 0x1A6A JUMP JUMPDEST SWAP2 SWAP3 PUSH1 0x20 PUSH1 0x1 DUP2 SWAP3 DUP7 DUP6 ADD MLOAD DUP2 SSTORE ADD SWAP5 ADD SWAP3 ADD PUSH2 0x1A46 JUMP JUMPDEST PUSH2 0x1AD5 SWAP1 DUP8 PUSH1 0x0 MSTORE PUSH1 0x20 PUSH1 0x0 KECCAK256 PUSH1 0x5 PUSH1 0x1F DUP7 ADD DUP2 SHR DUP3 ADD SWAP3 PUSH1 0x20 DUP8 LT PUSH2 0x1ADB JUMPI JUMPDEST PUSH1 0x1F ADD SWAP1 SHR ADD SWAP1 PUSH2 0x4FE2 JUMP JUMPDEST DUP8 PUSH2 0x19EB JUMP JUMPDEST SWAP2 SWAP3 POP DUP3 SWAP2 PUSH2 0x1AC9 JUMP JUMPDEST PUSH1 0x3 DUP5 ADD PUSH1 0x0 MSTORE PUSH1 0x20 PUSH1 0x0 KECCAK256 SWAP1 DUP4 DUP3 ADD JUMPDEST DUP2 DUP4 ADD DUP2 LT PUSH2 0x1B06 JUMPI POP POP PUSH2 0xC1F JUMP JUMPDEST DUP1 PUSH2 0x1B12 PUSH1 0x1 SWAP3 PUSH2 0x4FF9 JUMP JUMPDEST ADD PUSH2 0x1AF6 JUMP JUMPDEST ADD MLOAD SWAP1 POP DUP4 DUP1 PUSH2 0xBDE JUMP JUMPDEST SWAP3 POP PUSH1 0x2 DUP5 ADD PUSH1 0x0 MSTORE PUSH1 0x20 PUSH1 0x0 KECCAK256 SWAP1 PUSH1 0x0 SWAP4 JUMPDEST PUSH1 0x1F NOT DUP5 AND DUP6 LT PUSH2 0x1B7A JUMPI PUSH1 0x1 SWAP5 POP DUP4 PUSH1 0x1F NOT DUP2 AND LT PUSH2 0x1B61 JUMPI JUMPDEST POP POP POP DUP2 SHL ADD PUSH1 0x2 DUP3 ADD SSTORE PUSH2 0xBF6 JUMP JUMPDEST ADD MLOAD PUSH1 0x0 NOT PUSH1 0xF8 DUP5 PUSH1 0x3 SHL AND SHR NOT AND SWAP1 SSTORE DUP4 DUP1 DUP1 PUSH2 0x1B51 JUMP JUMPDEST DUP2 DUP2 ADD MLOAD DUP4 SSTORE PUSH1 0x20 SWAP5 DUP6 ADD SWAP5 PUSH1 0x1 SWAP1 SWAP4 ADD SWAP3 SWAP1 SWAP2 ADD SWAP1 PUSH2 0x1B36 JUMP JUMPDEST PUSH2 0x1BC4 SWAP1 PUSH1 0x2 DUP7 ADD PUSH1 0x0 MSTORE PUSH1 0x20 PUSH1 0x0 KECCAK256 PUSH1 0x1F DUP6 ADD PUSH1 0x5 SHR DUP2 ADD SWAP2 PUSH1 0x20 DUP7 LT PUSH2 0x12CC JUMPI PUSH1 0x1F ADD PUSH1 0x5 SHR ADD SWAP1 PUSH2 0x4FE2 JUMP JUMPDEST DUP5 PUSH2 0xBC7 JUMP JUMPDEST PUSH1 0x40 MLOAD PUSH3 0x461BCD PUSH1 0xE5 SHL DUP2 MSTORE PUSH1 0x20 PUSH1 0x4 DUP3 ADD MSTORE PUSH1 0xF PUSH1 0x24 DUP3 ADD MSTORE PUSH15 0x496E76616C6964206D696C65616765 PUSH1 0x88 SHL PUSH1 0x44 DUP3 ADD MSTORE PUSH1 0x64 SWAP1 REVERT JUMPDEST PUSH1 0x40 MLOAD PUSH3 0x461BCD PUSH1 0xE5 SHL DUP2 MSTORE PUSH1 0x20 PUSH1 0x4 DUP3 ADD MSTORE PUSH1 0xC PUSH1 0x24 DUP3 ADD MSTORE PUSH12 0x24B73B30B634B2103CB2B0B9 PUSH1 0xA1 SHL PUSH1 0x44 DUP3 ADD MSTORE PUSH1 0x64 SWAP1 REVERT JUMPDEST PUSH1 0x40 MLOAD PUSH3 0x461BCD PUSH1 0xE5 SHL DUP2 MSTORE PUSH1 0x20 PUSH1 0x4 DUP3 ADD MSTORE PUSH1 0x9 PUSH1 0x24 DUP3 ADD MSTORE PUSH9 0x4E6F20696D61676573 PUSH1 0xB8 SHL PUSH1 0x44 DUP3 ADD MSTORE PUSH1 0x64 SWAP1 REVERT JUMPDEST PUSH1 0x40 MLOAD PUSH3 0x461BCD PUSH1 0xE5 SHL DUP2 MSTORE PUSH1 0x20 PUSH1 0x4 DUP3 ADD MSTORE PUSH1 0xD PUSH1 0x24 DUP3 ADD MSTORE PUSH13 0x496E76616C6964207072696365 PUSH1 0x98 SHL PUSH1 0x44 DUP3 ADD MSTORE PUSH1 0x64 SWAP1 REVERT JUMPDEST PUSH1 0x40 MLOAD PUSH3 0x461BCD PUSH1 0xE5 SHL DUP2 MSTORE PUSH1 0x20 PUSH1 0x4 DUP3 ADD MSTORE PUSH1 0xE PUSH1 0x24 DUP3 ADD MSTORE PUSH14 0x24B73B30B634B21039B2B63632B9 PUSH1 0x91 SHL PUSH1 0x44 DUP3 ADD MSTORE PUSH1 0x64 SWAP1 REVERT JUMPDEST PUSH1 0x1 PUSH1 0x1 PUSH1 0xA0 SHL SUB SWAP2 POP PUSH2 0x1CE4 SWAP1 PUSH2 0x4F17 JUMP JUMPDEST AND ISZERO ISZERO DUP2 PUSH2 0x86E JUMP JUMPDEST CALLVALUE PUSH2 0x20D JUMPI PUSH1 0x0 CALLDATASIZE PUSH1 0x3 NOT ADD SLT PUSH2 0x20D JUMPI PUSH2 0x1D06 PUSH2 0x48DA JUMP JUMPDEST PUSH1 0x0 DUP1 SLOAD PUSH1 0x1 PUSH1 0x1 PUSH1 0xA0 SHL SUB NOT DUP2 AND DUP3 SSTORE PUSH1 0x1 PUSH1 0x1 PUSH1 0xA0 SHL SUB AND PUSH32 0x8BE0079C531659141344CD1FD0A4F28419497F9722A3DAAFE3B4186F6B6457E0 DUP3 DUP1 LOG3 STOP JUMPDEST CALLVALUE PUSH2 0x20D JUMPI PUSH1 0x20 CALLDATASIZE PUSH1 0x3 NOT ADD SLT PUSH2 0x20D JUMPI PUSH1 0x1 PUSH1 0x1 PUSH1 0xA0 SHL SUB PUSH2 0x1D67 PUSH2 0x4323 JUMP JUMPDEST AND DUP1 ISZERO PUSH2 0x1D86 JUMPI PUSH1 0x0 MSTORE PUSH1 0x5 PUSH1 0x20 MSTORE PUSH1 0x20 PUSH1 0x40 PUSH1 0x0 KECCAK256 SLOAD PUSH1 0x40 MLOAD SWAP1 DUP2 MSTORE RETURN JUMPDEST PUSH1 0x40 MLOAD PUSH3 0x461BCD PUSH1 0xE5 SHL DUP2 MSTORE PUSH1 0x20 PUSH1 0x4 DUP3 ADD MSTORE PUSH1 0x29 PUSH1 0x24 DUP3 ADD MSTORE PUSH32 0x4552433732313A2061646472657373207A65726F206973206E6F742061207661 PUSH1 0x44 DUP3 ADD MSTORE PUSH9 0x3634B21037BBB732B9 PUSH1 0xB9 SHL PUSH1 0x64 DUP3 ADD MSTORE PUSH1 0x84 SWAP1 REVERT JUMPDEST PUSH1 0x20 DUP1 PUSH1 0x3 NOT CALLDATASIZE ADD SLT PUSH2 0x20D JUMPI PUSH1 0x4 CALLDATALOAD SWAP1 PUSH2 0x1DF6 PUSH2 0x51A2 JUMP JUMPDEST DUP2 PUSH1 0x0 MSTORE PUSH1 0xB DUP2 MSTORE PUSH1 0x1 DUP1 PUSH1 0xA0 SHL SUB PUSH1 0x1 SWAP3 PUSH2 0x1E1C DUP3 DUP6 PUSH1 0x40 PUSH1 0x0 KECCAK256 ADD SLOAD AND ISZERO ISZERO PUSH2 0x53E4 JUMP JUMPDEST DUP1 PUSH1 0x0 MSTORE PUSH1 0xB DUP4 MSTORE PUSH2 0x1E3C PUSH1 0xFF PUSH1 0x15 PUSH1 0x40 PUSH1 0x0 KECCAK256 ADD SLOAD PUSH1 0x8 SHR AND ISZERO PUSH2 0x5425 JUMP JUMPDEST DUP1 PUSH1 0x0 MSTORE PUSH1 0xB DUP4 MSTORE PUSH1 0x40 PUSH1 0x0 KECCAK256 DUP3 DUP6 PUSH1 0xFF PUSH1 0x15 DUP5 ADD SLOAD AND ISZERO SWAP3 DUP4 PUSH2 0x2083 JUMPI JUMPDEST POP POP POP ISZERO PUSH2 0x204B JUMPI DUP1 PUSH1 0x0 MSTORE PUSH1 0xB DUP4 MSTORE PUSH1 0xC PUSH1 0x40 PUSH1 0x0 KECCAK256 ADD SLOAD CALLVALUE SUB PUSH2 0x2012 JUMPI DUP1 PUSH1 0x0 MSTORE PUSH1 0xB DUP4 MSTORE PUSH1 0x40 PUSH1 0x0 KECCAK256 SWAP2 DUP5 DUP4 ADD DUP1 SLOAD SWAP1 PUSH1 0x15 DUP4 DUP4 AND SWAP6 ADD DUP8 PUSH1 0xFF NOT DUP3 SLOAD AND OR SWAP1 SSTORE PUSH1 0x1 PUSH1 0x1 PUSH1 0x60 SHL SUB PUSH1 0xA0 SHL SWAP2 DUP3 CALLER SWAP2 AND OR SWAP1 SSTORE DUP6 PUSH1 0x9 SLOAD ADD SWAP2 DUP3 PUSH1 0x9 SSTORE PUSH1 0xC DUP7 MSTORE PUSH1 0x40 PUSH1 0x0 KECCAK256 SWAP3 PUSH1 0x40 MLOAD SWAP1 PUSH2 0x1ED3 DUP3 PUSH2 0x436B JUMP JUMPDEST DUP2 MSTORE DUP7 DUP2 ADD DUP6 DUP2 MSTORE PUSH1 0x40 DUP3 ADD CALLVALUE DUP2 MSTORE PUSH1 0x60 DUP4 ADD SWAP6 CALLER DUP8 MSTORE DUP1 SLOAD PUSH1 0x1 PUSH1 0x40 SHL DUP2 LT ISZERO PUSH2 0x12D6 JUMPI PUSH2 0x1F06 SWAP2 DUP13 DUP3 ADD DUP2 SSTORE PUSH2 0x56E5 JUMP JUMPDEST SWAP3 SWAP1 SWAP3 PUSH2 0x1FFC JUMPI PUSH1 0x3 SWAP4 MLOAD DUP4 SSTORE MLOAD DUP11 DUP4 ADD SSTORE MLOAD PUSH1 0x2 DUP3 ADD SSTORE ADD SWAP3 MLOAD AND SWAP1 DUP3 SLOAD AND OR SWAP1 SSTORE PUSH2 0x1F34 DUP2 CALLER DUP5 PUSH2 0x4C60 JUMP JUMPDEST DUP2 ISZERO PUSH2 0x1FB7 JUMPI PUSH1 0x0 DUP1 DUP1 DUP1 CALLVALUE DUP7 GAS CALL PUSH2 0x1F4B PUSH2 0x4D71 JUMP JUMPDEST POP ISZERO PUSH2 0x1F80 JUMPI PUSH32 0x8205A71867F7292BCEF9E53D4774758D6173B03F63017DEC9A03A6664B429DC5 PUSH1 0x40 MLOAD SWAP4 CALLVALUE DUP6 MSTORE CALLER SWAP5 LOG4 DUP1 SSTORE STOP JUMPDEST PUSH1 0x40 MLOAD PUSH3 0x461BCD PUSH1 0xE5 SHL DUP2 MSTORE PUSH1 0x4 DUP2 ADD DUP5 SWAP1 MSTORE PUSH1 0xF PUSH1 0x24 DUP3 ADD MSTORE PUSH15 0x151C985B9CD9995C8819985A5B1959 PUSH1 0x8A SHL PUSH1 0x44 DUP3 ADD MSTORE PUSH1 0x64 SWAP1 REVERT JUMPDEST PUSH1 0x40 MLOAD PUSH3 0x461BCD PUSH1 0xE5 SHL DUP2 MSTORE PUSH1 0x4 DUP2 ADD DUP5 SWAP1 MSTORE PUSH1 0x1A PUSH1 0x24 DUP3 ADD MSTORE PUSH32 0x43616E6E6F742070617920746F207A65726F2061646472657373000000000000 PUSH1 0x44 DUP3 ADD MSTORE PUSH1 0x64 SWAP1 REVERT JUMPDEST PUSH4 0x4E487B71 PUSH1 0xE0 SHL PUSH1 0x0 MSTORE PUSH1 0x0 PUSH1 0x4 MSTORE PUSH1 0x24 PUSH1 0x0 REVERT JUMPDEST PUSH1 0x40 MLOAD PUSH3 0x461BCD PUSH1 0xE5 SHL DUP2 MSTORE PUSH1 0x4 DUP2 ADD DUP5 SWAP1 MSTORE PUSH1 0x11 PUSH1 0x24 DUP3 ADD MSTORE PUSH17 0x125B98DBDC9C9958DD081C185E5B595B9D PUSH1 0x7A SHL PUSH1 0x44 DUP3 ADD MSTORE PUSH1 0x64 SWAP1 REVERT JUMPDEST PUSH1 0x40 MLOAD PUSH3 0x461BCD PUSH1 0xE5 SHL DUP2 MSTORE PUSH1 0x4 DUP2 ADD DUP5 SWAP1 MSTORE PUSH1 0x10 PUSH1 0x24 DUP3 ADD MSTORE PUSH16 0x496E76616C6964207075726368617365 PUSH1 0x80 SHL PUSH1 0x44 DUP3 ADD MSTORE PUSH1 0x64 SWAP1 REVERT JUMPDEST ADD SLOAD AND CALLER EQ ISZERO SWAP1 POP DUP3 DUP6 DUP8 PUSH2 0x1E5B JUMP JUMPDEST CALLVALUE PUSH2 0x20D JUMPI PUSH1 0x20 CALLDATASIZE PUSH1 0x3 NOT ADD SLT PUSH2 0x20D JUMPI PUSH1 0x20 PUSH2 0x20B1 PUSH1 0x4 CALLDATALOAD PUSH2 0x497E JUMP JUMPDEST PUSH1 0x40 MLOAD PUSH1 0x1 PUSH1 0x1 PUSH1 0xA0 SHL SUB SWAP1 SWAP2 AND DUP2 MSTORE RETURN JUMPDEST CALLVALUE PUSH2 0x20D JUMPI PUSH1 0x20 DUP1 PUSH1 0x3 NOT CALLDATASIZE ADD SLT PUSH2 0x20D JUMPI PUSH1 0x4 CALLDATALOAD SWAP1 PUSH2 0x20E1 PUSH2 0x51A2 JUMP JUMPDEST PUSH1 0x0 DUP3 DUP2 MSTORE PUSH1 0xB DUP3 MSTORE PUSH1 0x40 SWAP1 KECCAK256 PUSH1 0x1 ADD SLOAD PUSH1 0x1 PUSH1 0x1 PUSH1 0xA0 SHL SUB SWAP1 DUP2 AND CALLER EQ DUP1 ISZERO PUSH2 0x222C JUMPI JUMPDEST PUSH2 0x210F SWAP1 PUSH2 0x5244 JUMP JUMPDEST DUP3 PUSH1 0x0 MSTORE PUSH1 0xB DUP3 MSTORE PUSH1 0xFF PUSH1 0x15 PUSH1 0x40 PUSH1 0x0 KECCAK256 ADD SLOAD PUSH1 0x8 SHR AND PUSH2 0x21F1 JUMPI DUP3 SWAP2 PUSH1 0x0 SWAP2 DUP4 DUP4 MSTORE PUSH1 0xB DUP3 MSTORE PUSH1 0x15 PUSH1 0x40 DUP5 KECCAK256 ADD PUSH2 0x100 PUSH2 0xFF00 NOT DUP3 SLOAD AND OR SWAP1 SSTORE PUSH2 0x2153 DUP5 PUSH2 0x497E JUMP JUMPDEST POP PUSH1 0x4 PUSH2 0x215F DUP6 PUSH2 0x497E JUMP JUMPDEST SWAP2 DUP6 DUP6 MSTORE PUSH1 0x6 DUP5 MSTORE PUSH1 0x40 DUP6 KECCAK256 SWAP3 PUSH1 0x1 PUSH1 0x1 PUSH1 0x60 SHL SUB PUSH1 0xA0 SHL SWAP4 DUP5 DUP2 SLOAD AND SWAP1 SSTORE AND SWAP3 DUP4 DUP6 MSTORE PUSH1 0x5 DUP2 MSTORE PUSH1 0x40 DUP6 KECCAK256 DUP6 NOT DUP2 SLOAD ADD SWAP1 SSTORE DUP6 DUP6 MSTORE MSTORE PUSH1 0x40 DUP4 KECCAK256 SWAP1 DUP2 SLOAD AND SWAP1 SSTORE PUSH32 0xDDF252AD1BE2C89B69C2B068FC378DAA952BA7F163C4A11628F55A4DF523B3EF DUP3 DUP1 LOG4 CALLER SWAP1 PUSH32 0x975848B3B721E792B1AFE72032F4FA971D1FAEB9BFD806CCF1FFADA5BAC8BAFE PUSH1 0x0 DUP1 LOG3 PUSH1 0x1 DUP1 SSTORE STOP JUMPDEST PUSH1 0x40 MLOAD PUSH3 0x461BCD PUSH1 0xE5 SHL DUP2 MSTORE PUSH1 0x4 DUP2 ADD DUP4 SWAP1 MSTORE PUSH1 0x13 PUSH1 0x24 DUP3 ADD MSTORE PUSH19 0x10D85C88185B1C9958591E4819195B195D1959 PUSH1 0x6A SHL PUSH1 0x44 DUP3 ADD MSTORE PUSH1 0x64 SWAP1 REVERT JUMPDEST POP PUSH1 0x0 SLOAD DUP2 AND CALLER EQ PUSH2 0x2106 JUMP JUMPDEST CALLVALUE PUSH2 0x20D JUMPI PUSH1 0x20 DUP1 PUSH1 0x3 NOT CALLDATASIZE ADD SLT PUSH2 0x20D JUMPI PUSH1 0x4 CALLDATALOAD PUSH2 0x2256 PUSH2 0x5325 JUMP JUMPDEST POP PUSH1 0x0 DUP2 DUP2 MSTORE PUSH1 0xB DUP4 MSTORE PUSH1 0x40 SWAP1 KECCAK256 PUSH1 0x1 ADD SLOAD PUSH2 0x227C SWAP1 PUSH1 0x1 PUSH1 0x1 PUSH1 0xA0 SHL SUB AND ISZERO ISZERO PUSH2 0x53E4 JUMP JUMPDEST DUP1 PUSH1 0x0 MSTORE PUSH1 0xB DUP3 MSTORE PUSH2 0x229C PUSH1 0xFF PUSH1 0x15 PUSH1 0x40 PUSH1 0x0 KECCAK256 ADD SLOAD PUSH1 0x8 SHR AND ISZERO PUSH2 0x5425 JUMP JUMPDEST PUSH1 0x0 MSTORE PUSH1 0xB DUP2 MSTORE PUSH2 0x22B0 PUSH1 0x40 PUSH1 0x0 KECCAK256 PUSH2 0x54BD JUMP JUMPDEST SWAP1 PUSH2 0x2D8 PUSH1 0x40 MLOAD SWAP3 DUP3 DUP5 SWAP4 DUP5 MSTORE DUP4 ADD SWAP1 PUSH2 0x46AC JUMP JUMPDEST CALLVALUE PUSH2 0x20D JUMPI PUSH2 0x361 PUSH2 0x35C PUSH2 0x22D9 CALLDATASIZE PUSH2 0x458B JUMP JUMPDEST SWAP1 PUSH1 0x40 MLOAD SWAP3 PUSH2 0x22E7 DUP5 PUSH2 0x43A1 JUMP JUMPDEST PUSH1 0x0 DUP5 MSTORE PUSH2 0x34C PUSH2 0x347 DUP5 CALLER PUSH2 0x4B98 JUMP JUMPDEST CALLVALUE PUSH2 0x20D JUMPI PUSH1 0x0 CALLDATASIZE PUSH1 0x3 NOT ADD SLT PUSH2 0x20D JUMPI PUSH1 0x8 DUP1 SLOAD PUSH1 0x0 PUSH1 0x1 JUMPDEST DUP3 DUP2 GT ISZERO PUSH2 0x23A9 JUMPI POP PUSH2 0x2324 SWAP1 PUSH2 0x566B JUMP JUMPDEST SWAP2 PUSH1 0x1 PUSH1 0x0 JUMPDEST DUP4 DUP3 GT ISZERO PUSH2 0x2340 JUMPI PUSH1 0x40 MLOAD DUP1 PUSH2 0x2D8 DUP8 DUP3 PUSH2 0x4878 JUMP JUMPDEST DUP2 PUSH1 0x0 MSTORE PUSH1 0xB PUSH1 0x20 MSTORE PUSH1 0x40 PUSH1 0x0 KECCAK256 SWAP2 PUSH1 0xFF PUSH1 0x15 DUP5 ADD SLOAD DUP6 SHR AND ISZERO DUP1 PUSH2 0x2393 JUMPI JUMPDEST PUSH2 0x2376 JUMPI JUMPDEST PUSH2 0x2370 SWAP2 SWAP3 POP PUSH2 0x565C JUMP JUMPDEST SWAP1 PUSH2 0x232A JUMP JUMPDEST PUSH2 0x238A DUP3 PUSH2 0x3F5 PUSH2 0x3EF PUSH2 0x2370 SWAP6 SWAP3 PUSH2 0x565C JUMP JUMPDEST POP DUP3 SWAP2 POP PUSH2 0x2365 JUMP JUMPDEST POP PUSH1 0x1 DUP4 ADD SLOAD PUSH1 0x1 PUSH1 0x1 PUSH1 0xA0 SHL SUB AND CALLER EQ PUSH2 0x2360 JUMP JUMPDEST DUP1 PUSH1 0x0 MSTORE PUSH1 0xB PUSH1 0x20 MSTORE PUSH1 0x40 PUSH1 0x0 KECCAK256 PUSH1 0xFF PUSH1 0x15 DUP3 ADD SLOAD DUP7 SHR AND ISZERO SWAP1 DUP2 PUSH2 0x23F2 JUMPI JUMPDEST POP PUSH2 0x23DD JUMPI JUMPDEST PUSH2 0x23D8 SWAP1 PUSH2 0x565C JUMP JUMPDEST PUSH2 0x2312 JUMP JUMPDEST SWAP1 PUSH2 0x23EA PUSH2 0x23D8 SWAP2 PUSH2 0x565C JUMP JUMPDEST SWAP2 SWAP1 POP PUSH2 0x23CF JUMP JUMPDEST PUSH1 0x1 ADD SLOAD PUSH1 0x1 PUSH1 0x1 PUSH1 0xA0 SHL SUB AND CALLER EQ SWAP1 POP DUP6 PUSH2 0x23C9 JUMP JUMPDEST CALLVALUE PUSH2 0x20D JUMPI PUSH1 0x0 CALLDATASIZE PUSH1 0x3 NOT ADD SLT PUSH2 0x20D JUMPI PUSH1 0x0 PUSH1 0x1 PUSH1 0x8 SLOAD SWAP1 JUMPDEST DUP2 DUP2 GT ISZERO PUSH2 0x25A6 JUMPI POP PUSH2 0x2435 DUP3 PUSH2 0x444D JUMP JUMPDEST SWAP2 PUSH2 0x2443 PUSH1 0x40 MLOAD SWAP4 DUP5 PUSH2 0x43BC JUMP JUMPDEST DUP1 DUP4 MSTORE PUSH2 0x2452 PUSH1 0x1F NOT SWAP2 PUSH2 0x444D JUMP JUMPDEST ADD PUSH1 0x0 JUMPDEST DUP2 DUP2 LT PUSH2 0x2573 JUMPI POP POP PUSH1 0x0 PUSH1 0x1 SWAP1 JUMPDEST DUP3 DUP3 GT ISZERO PUSH2 0x24D2 JUMPI PUSH1 0x40 DUP1 MLOAD PUSH1 0x20 DUP1 DUP3 MSTORE DUP7 MLOAD DUP2 DUP4 ADD DUP2 SWAP1 MSTORE DUP2 DUP9 ADD SWAP4 DUP4 ADD SWAP2 PUSH1 0x0 JUMPDEST DUP3 DUP2 LT PUSH2 0x2495 JUMPI DUP5 DUP5 SUB DUP6 RETURN JUMPDEST DUP6 MLOAD DUP1 MLOAD DUP6 MSTORE DUP1 DUP4 ADD MLOAD DUP6 DUP5 ADD MSTORE PUSH1 0x40 DUP1 DUP3 ADD MLOAD SWAP1 DUP7 ADD MSTORE PUSH1 0x60 SWAP1 DUP2 ADD MLOAD PUSH1 0x1 PUSH1 0x1 PUSH1 0xA0 SHL SUB AND SWAP1 DUP6 ADD MSTORE SWAP5 DUP2 ADD SWAP5 PUSH1 0x80 SWAP1 SWAP4 ADD SWAP3 PUSH1 0x1 ADD PUSH2 0x2488 JUMP JUMPDEST PUSH1 0x0 SWAP4 SWAP2 SWAP3 SWAP4 SWAP1 JUMPDEST DUP4 PUSH1 0x0 MSTORE PUSH1 0x20 PUSH1 0xC DUP2 MSTORE PUSH1 0x40 PUSH1 0x0 KECCAK256 DUP1 SLOAD DUP5 LT ISZERO PUSH2 0x255C JUMPI SWAP2 PUSH2 0x2550 SWAP2 PUSH2 0x2504 DUP6 PUSH2 0x2556 SWAP6 PUSH2 0x56E5 JUMP JUMPDEST POP PUSH1 0x40 MLOAD SWAP2 PUSH2 0x2512 DUP4 PUSH2 0x436B JUMP JUMPDEST DUP2 SLOAD DUP4 MSTORE PUSH1 0x1 DUP3 ADD SLOAD SWAP1 DUP4 ADD MSTORE PUSH1 0x2 DUP2 ADD SLOAD PUSH1 0x40 DUP4 ADD MSTORE PUSH1 0x3 ADD SLOAD PUSH1 0x1 PUSH1 0x1 PUSH1 0xA0 SHL SUB AND PUSH1 0x60 DUP3 ADD MSTORE PUSH2 0x2545 DUP3 DUP8 PUSH2 0x56BB JUMP JUMPDEST MSTORE PUSH2 0x677 DUP2 DUP7 PUSH2 0x56BB JUMP JUMPDEST SWAP2 PUSH2 0x565C JUMP JUMPDEST SWAP1 PUSH2 0x24DA JUMP JUMPDEST POP POP SWAP3 PUSH2 0x256C SWAP2 POP SWAP4 SWAP2 SWAP4 PUSH2 0x565C JUMP JUMPDEST SWAP1 SWAP2 PUSH2 0x2465 JUMP JUMPDEST PUSH1 0x20 SWAP1 PUSH1 0x40 MLOAD PUSH2 0x2582 DUP2 PUSH2 0x436B JUMP JUMPDEST PUSH1 0x0 DUP2 MSTORE DUP3 PUSH1 0x0 DUP2 DUP4 ADD MSTORE PUSH1 0x0 PUSH1 0x40 DUP4 ADD MSTORE PUSH1 0x0 PUSH1 0x60 DUP4 ADD MSTORE DUP3 DUP8 ADD ADD MSTORE ADD PUSH2 0x2456 JUMP JUMPDEST SWAP2 DUP3 PUSH1 0x0 MSTORE PUSH1 0xC PUSH1 0x20 MSTORE PUSH1 0x40 PUSH1 0x0 KECCAK256 SLOAD DUP2 ADD DUP1 SWAP2 GT PUSH2 0x14D7 JUMPI PUSH2 0x25C9 SWAP1 SWAP3 PUSH2 0x565C JUMP JUMPDEST PUSH2 0x2423 JUMP JUMPDEST CALLVALUE PUSH2 0x20D JUMPI PUSH1 0x40 CALLDATASIZE PUSH1 0x3 NOT ADD SLT PUSH2 0x20D JUMPI PUSH1 0x24 PUSH1 0x4 CALLDATALOAD DUP2 CALLDATALOAD PUSH1 0x1 PUSH1 0x1 PUSH1 0x40 SHL SUB DUP2 GT PUSH2 0x20D JUMPI PUSH2 0x2602 SWAP1 CALLDATASIZE SWAP1 PUSH1 0x4 ADD PUSH2 0x442F JUMP JUMPDEST SWAP2 DUP3 MLOAD ISZERO PUSH2 0x27EE JUMPI DUP2 PUSH1 0x0 MSTORE PUSH1 0x20 PUSH1 0xB DUP2 MSTORE PUSH1 0xFF PUSH1 0x15 PUSH1 0x40 PUSH1 0x0 KECCAK256 ADD SLOAD PUSH1 0x8 SHR AND PUSH2 0x27A2 JUMPI PUSH1 0x0 DUP4 DUP2 MSTORE PUSH1 0xB DUP3 MSTORE PUSH1 0x40 SWAP1 KECCAK256 PUSH1 0x1 ADD SLOAD PUSH1 0x1 PUSH1 0x1 PUSH1 0xA0 SHL SUB SWAP1 PUSH2 0x264E SWAP1 DUP3 AND ISZERO ISZERO PUSH2 0x53E4 JUMP JUMPDEST DUP4 PUSH1 0x0 MSTORE PUSH1 0xB DUP3 MSTORE PUSH1 0x1 PUSH1 0x40 PUSH1 0x0 KECCAK256 ADD SLOAD AND CALLER EQ PUSH2 0x2760 JUMPI PUSH2 0x3E8 DUP5 MLOAD GT PUSH2 0x272B JUMPI PUSH1 0xB SWAP1 PUSH1 0x1 PUSH1 0xA SLOAD ADD SWAP5 DUP6 PUSH1 0xA SSTORE PUSH2 0x2686 PUSH2 0x4F92 JUMP JUMPDEST SWAP6 DUP7 MSTORE CALLER DUP3 DUP8 ADD MSTORE PUSH1 0x40 DUP7 ADD MSTORE TIMESTAMP PUSH1 0x60 DUP7 ADD MSTORE DUP4 PUSH1 0x0 MSTORE MSTORE PUSH1 0xF PUSH1 0x40 PUSH1 0x0 KECCAK256 ADD DUP1 SLOAD SWAP1 PUSH1 0x1 PUSH1 0x40 SHL DUP3 LT ISZERO PUSH2 0x2716 JUMPI SWAP1 PUSH2 0x26C5 SWAP2 PUSH1 0x1 DUP3 ADD DUP2 SSTORE PUSH2 0x5701 JUMP JUMPDEST SWAP2 SWAP1 SWAP2 PUSH2 0x2702 JUMPI POP DUP3 PUSH2 0x26D7 SWAP2 PUSH2 0x5042 JUMP JUMPDEST CALLER SWAP2 MLOAD SWAP1 PUSH32 0xA2A1DEE4425C37116291AB4D233678A915201B947533B0D540DEF4D8FCA8D28F PUSH1 0x0 DUP1 LOG4 STOP JUMPDEST PUSH4 0x4E487B71 PUSH1 0xE0 SHL PUSH1 0x0 MSTORE PUSH1 0x0 PUSH1 0x4 MSTORE PUSH1 0x0 REVERT JUMPDEST DUP3 PUSH4 0x4E487B71 PUSH1 0xE0 SHL PUSH1 0x0 MSTORE PUSH1 0x41 PUSH1 0x4 MSTORE PUSH1 0x0 REVERT JUMPDEST PUSH1 0x10 PUSH1 0x64 SWAP3 PUSH1 0x40 MLOAD SWAP3 PUSH3 0x461BCD PUSH1 0xE5 SHL DUP5 MSTORE PUSH1 0x4 DUP5 ADD MSTORE DUP3 ADD MSTORE PUSH16 0x436F6D6D656E7420746F6F206C6F6E67 PUSH1 0x80 SHL PUSH1 0x44 DUP3 ADD MSTORE REVERT JUMPDEST PUSH1 0x1A PUSH1 0x64 SWAP3 PUSH1 0x40 MLOAD SWAP3 PUSH3 0x461BCD PUSH1 0xE5 SHL DUP5 MSTORE PUSH1 0x4 DUP5 ADD MSTORE DUP3 ADD MSTORE PUSH32 0x43616E6E6F742072657669657720796F7572206F776E20636172000000000000 PUSH1 0x44 DUP3 ADD MSTORE REVERT JUMPDEST PUSH1 0x21 PUSH1 0x84 SWAP3 PUSH1 0x40 MLOAD SWAP3 PUSH3 0x461BCD PUSH1 0xE5 SHL DUP5 MSTORE PUSH1 0x4 DUP5 ADD MSTORE DUP3 ADD MSTORE PUSH32 0x43617220686173206265656E2064656C657465642066726F6D206C697374696E PUSH1 0x44 DUP3 ADD MSTORE PUSH1 0x67 PUSH1 0xF8 SHL PUSH1 0x64 DUP3 ADD MSTORE REVERT JUMPDEST PUSH1 0x64 SWAP1 PUSH1 0x17 PUSH1 0x40 MLOAD SWAP2 PUSH3 0x461BCD PUSH1 0xE5 SHL DUP4 MSTORE PUSH1 0x20 PUSH1 0x4 DUP5 ADD MSTORE DUP3 ADD MSTORE PUSH32 0x436F6D6D656E742063616E6E6F7420626520656D707479000000000000000000 PUSH1 0x44 DUP3 ADD MSTORE REVERT JUMPDEST CALLVALUE PUSH2 0x20D JUMPI PUSH1 0x40 CALLDATASIZE PUSH1 0x3 NOT ADD SLT PUSH2 0x20D JUMPI PUSH1 0x4 CALLDATALOAD PUSH1 0x24 CALLDATALOAD SWAP1 DUP1 PUSH1 0x0 MSTORE PUSH1 0xB PUSH1 0x20 SWAP1 DUP1 DUP3 MSTORE PUSH1 0x1 DUP1 PUSH1 0xA0 SHL SUB SWAP1 PUSH1 0x1 SWAP3 PUSH2 0x2875 DUP4 DUP6 PUSH1 0x40 PUSH1 0x0 KECCAK256 ADD SLOAD AND ISZERO ISZERO PUSH2 0x53E4 JUMP JUMPDEST DUP5 PUSH1 0x0 MSTORE DUP2 DUP2 MSTORE PUSH2 0x2894 PUSH1 0xFF PUSH1 0x15 PUSH1 0x40 PUSH1 0x0 KECCAK256 ADD SLOAD PUSH1 0x8 SHR AND ISZERO PUSH2 0x5425 JUMP JUMPDEST PUSH1 0x0 SWAP3 DUP4 DUP6 DUP9 DUP3 DUP3 JUMPDEST PUSH2 0x2A1A JUMPI JUMPDEST POP POP POP ISZERO PUSH2 0x29E2 JUMPI DUP6 PUSH1 0x0 MSTORE DUP3 DUP3 MSTORE DUP1 DUP6 PUSH2 0x28C4 DUP7 PUSH1 0xF PUSH1 0x40 PUSH1 0x0 KECCAK256 ADD PUSH2 0x5701 JUMP JUMPDEST POP ADD SLOAD AND CALLER EQ SWAP1 DUP2 ISZERO PUSH2 0x29D4 JUMPI JUMPDEST POP ISZERO PUSH2 0x2986 JUMPI DUP5 PUSH1 0x0 MSTORE DUP2 DUP2 MSTORE PUSH1 0xFF PUSH1 0x4 PUSH2 0x28F4 DUP6 PUSH1 0xF PUSH1 0x40 PUSH1 0x0 KECCAK256 ADD PUSH2 0x5701 JUMP JUMPDEST POP ADD SLOAD AND PUSH2 0x2949 JUMPI SWAP2 PUSH2 0x2916 SWAP2 PUSH1 0x4 SWAP4 DUP7 PUSH1 0x0 MSTORE MSTORE PUSH1 0xF PUSH1 0x40 PUSH1 0x0 KECCAK256 ADD PUSH2 0x5701 JUMP JUMPDEST POP ADD SWAP1 PUSH1 0xFF NOT DUP3 SLOAD AND OR SWAP1 SSTORE PUSH32 0xFE09911B3EC9652EF94A11286713BD397F2FB090F28C62303451D8040FF62C62 PUSH1 0x0 DUP1 LOG3 STOP JUMPDEST PUSH1 0x64 SWAP1 PUSH1 0x40 MLOAD SWAP1 PUSH3 0x461BCD PUSH1 0xE5 SHL DUP3 MSTORE PUSH1 0x4 DUP3 ADD MSTORE PUSH1 0x16 PUSH1 0x24 DUP3 ADD MSTORE PUSH22 0x14995D9A595DC8185B1C9958591E4819195B195D1959 PUSH1 0x52 SHL PUSH1 0x44 DUP3 ADD MSTORE REVERT JUMPDEST PUSH1 0x84 SWAP1 PUSH1 0x40 MLOAD SWAP1 PUSH3 0x461BCD PUSH1 0xE5 SHL DUP3 MSTORE PUSH1 0x4 DUP3 ADD MSTORE PUSH1 0x21 PUSH1 0x24 DUP3 ADD MSTORE PUSH32 0x4F6E6C79207265766965776572206F722061646D696E2063616E2064656C6574 PUSH1 0x44 DUP3 ADD MSTORE PUSH1 0x65 PUSH1 0xF8 SHL PUSH1 0x64 DUP3 ADD MSTORE REVERT JUMPDEST SWAP1 POP PUSH1 0x0 SLOAD AND CALLER EQ DUP8 PUSH2 0x28D2 JUMP JUMPDEST PUSH1 0x40 MLOAD PUSH3 0x461BCD PUSH1 0xE5 SHL DUP2 MSTORE PUSH1 0x4 DUP2 ADD DUP4 SWAP1 MSTORE PUSH1 0x10 PUSH1 0x24 DUP3 ADD MSTORE PUSH16 0x14995D9A595DC81B9BDD08199BDD5B99 PUSH1 0x82 SHL PUSH1 0x44 DUP3 ADD MSTORE PUSH1 0x64 SWAP1 REVERT JUMPDEST DUP10 PUSH1 0x0 MSTORE DUP7 DUP7 MSTORE PUSH1 0xF PUSH1 0x40 PUSH1 0x0 KECCAK256 ADD DUP1 SLOAD DUP3 LT ISZERO PUSH2 0x2A63 JUMPI PUSH2 0x2A3D DUP3 DUP5 SWAP3 PUSH2 0x5701 JUMP JUMPDEST POP SLOAD EQ PUSH2 0x2A53 JUMPI PUSH2 0x2A4D SWAP1 PUSH2 0x565C JUMP JUMPDEST DUP3 PUSH2 0x289D JUMP JUMPDEST SWAP4 SWAP7 POP POP POP POP SWAP3 DUP5 DUP6 DUP9 DUP11 PUSH2 0x28A2 JUMP JUMPDEST POP PUSH2 0x28A2 JUMP JUMPDEST CALLVALUE PUSH2 0x20D JUMPI PUSH2 0x361 PUSH2 0x2A7A CALLDATASIZE PUSH2 0x458B JUMP JUMPDEST SWAP2 PUSH2 0x2A88 PUSH2 0x347 DUP5 CALLER PUSH2 0x4B98 JUMP JUMPDEST PUSH2 0x4C60 JUMP JUMPDEST CALLVALUE PUSH2 0x20D JUMPI PUSH1 0xA0 CALLDATASIZE PUSH1 0x3 NOT ADD SLT PUSH2 0x20D JUMPI PUSH1 0x24 CALLDATALOAD PUSH1 0x1 PUSH1 0x1 PUSH1 0x40 SHL SUB DUP2 GT PUSH2 0x20D JUMPI PUSH1 0xE0 PUSH1 0x3 NOT DUP3 CALLDATASIZE SUB ADD SLT PUSH2 0x20D JUMPI PUSH1 0x40 MLOAD SWAP1 PUSH1 0xE0 DUP3 ADD DUP3 DUP2 LT PUSH1 0x1 PUSH1 0x1 PUSH1 0x40 SHL SUB DUP3 GT OR PUSH2 0x12D6 JUMPI PUSH1 0x40 MSTORE DUP1 PUSH1 0x4 ADD CALLDATALOAD PUSH1 0x1 PUSH1 0x1 PUSH1 0x40 SHL SUB DUP2 GT PUSH2 0x20D JUMPI PUSH2 0x2AFD SWAP1 PUSH1 0x4 CALLDATASIZE SWAP2 DUP5 ADD ADD PUSH2 0x442F JUMP JUMPDEST DUP3 MSTORE PUSH1 0x24 DUP2 ADD CALLDATALOAD PUSH1 0x1 PUSH1 0x1 PUSH1 0x40 SHL SUB DUP2 GT PUSH2 0x20D JUMPI PUSH2 0x2B22 SWAP1 PUSH1 0x4 CALLDATASIZE SWAP2 DUP5 ADD ADD PUSH2 0x44D3 JUMP JUMPDEST PUSH1 0x20 DUP4 ADD MSTORE PUSH1 0x44 DUP2 ADD CALLDATALOAD PUSH1 0x1 PUSH1 0x1 PUSH1 0x40 SHL SUB DUP2 GT PUSH2 0x20D JUMPI PUSH2 0x2B4A SWAP1 PUSH1 0x4 CALLDATASIZE SWAP2 DUP5 ADD ADD PUSH2 0x442F JUMP JUMPDEST PUSH1 0x40 DUP4 ADD MSTORE PUSH1 0x64 DUP2 ADD CALLDATALOAD PUSH1 0x1 PUSH1 0x1 PUSH1 0x40 SHL SUB DUP2 GT PUSH2 0x20D JUMPI PUSH2 0x2B72 SWAP1 PUSH1 0x4 CALLDATASIZE SWAP2 DUP5 ADD ADD PUSH2 0x442F JUMP JUMPDEST PUSH1 0x60 DUP4 ADD MSTORE PUSH1 0x84 DUP2 ADD CALLDATALOAD SWAP1 PUSH1 0x1 PUSH1 0x1 PUSH1 0x40 SHL SUB DUP3 GT PUSH2 0x20D JUMPI PUSH2 0x2B9D PUSH1 0xC4 SWAP3 PUSH1 0x4 CALLDATASIZE SWAP2 DUP5 ADD ADD PUSH2 0x442F JUMP JUMPDEST PUSH1 0x80 DUP5 ADD MSTORE PUSH1 0xA4 DUP2 ADD CALLDATALOAD PUSH1 0xA0 DUP5 ADD MSTORE ADD CALLDATALOAD PUSH1 0xC0 DUP3 ADD MSTORE PUSH1 0x1 PUSH1 0x1 PUSH1 0x40 SHL SUB PUSH1 0x44 CALLDATALOAD GT PUSH2 0x20D JUMPI PUSH1 0xC0 PUSH1 0x44 CALLDATALOAD CALLDATASIZE SUB PUSH1 0x3 NOT ADD SLT PUSH2 0x20D JUMPI PUSH1 0x40 MLOAD DUP1 PUSH1 0xC0 DUP2 ADD LT PUSH1 0x1 PUSH1 0x1 PUSH1 0x40 SHL SUB PUSH1 0xC0 DUP4 ADD GT OR PUSH2 0x12D6 JUMPI PUSH1 0xC0 DUP2 ADD PUSH1 0x40 MSTORE PUSH1 0x44 CALLDATALOAD PUSH1 0x4 ADD CALLDATALOAD DUP2 MSTORE PUSH1 0x1 PUSH1 0x1 PUSH1 0x40 SHL SUB PUSH1 0x24 PUSH1 0x44 CALLDATALOAD ADD CALLDATALOAD GT PUSH2 0x20D JUMPI PUSH2 0x2C27 CALLDATASIZE PUSH1 0x44 CALLDATALOAD PUSH1 0x24 DUP2 ADD CALLDATALOAD ADD PUSH1 0x4 ADD PUSH2 0x442F JUMP JUMPDEST PUSH1 0x20 DUP3 ADD MSTORE PUSH1 0x3 PUSH1 0x44 DUP1 CALLDATALOAD ADD CALLDATALOAD LT ISZERO PUSH2 0x20D JUMPI PUSH1 0x44 DUP1 CALLDATALOAD ADD CALLDATALOAD PUSH1 0x40 DUP3 ADD MSTORE PUSH1 0x2 PUSH1 0x64 PUSH1 0x44 CALLDATALOAD ADD CALLDATALOAD LT ISZERO PUSH2 0x20D JUMPI PUSH1 0x64 PUSH1 0x44 CALLDATALOAD ADD CALLDATALOAD PUSH1 0x60 DUP3 ADD MSTORE PUSH1 0x4 PUSH1 0x84 PUSH1 0x44 CALLDATALOAD ADD CALLDATALOAD LT ISZERO PUSH2 0x20D JUMPI PUSH1 0x44 CALLDATALOAD PUSH1 0x84 DUP2 ADD CALLDATALOAD PUSH1 0x80 DUP4 ADD MSTORE PUSH1 0xA4 ADD CALLDATALOAD PUSH1 0xA0 DUP3 ADD MSTORE PUSH1 0x1 PUSH1 0x1 PUSH1 0x40 SHL SUB PUSH1 0x64 CALLDATALOAD GT PUSH2 0x20D JUMPI PUSH1 0x60 PUSH1 0x64 CALLDATALOAD CALLDATASIZE SUB PUSH1 0x3 NOT ADD SLT PUSH2 0x20D JUMPI PUSH1 0x40 MLOAD DUP1 PUSH1 0x60 DUP2 ADD LT PUSH1 0x1 PUSH1 0x1 PUSH1 0x40 SHL SUB PUSH1 0x60 DUP4 ADD GT OR PUSH2 0x12D6 JUMPI PUSH1 0x60 DUP2 ADD PUSH1 0x40 MSTORE PUSH1 0x64 CALLDATALOAD PUSH1 0x4 ADD CALLDATALOAD PUSH1 0x1 PUSH1 0x1 PUSH1 0x40 SHL SUB DUP2 GT PUSH2 0x20D JUMPI PUSH2 0x2CEE SWAP1 PUSH1 0x4 CALLDATASIZE SWAP2 PUSH1 0x64 CALLDATALOAD ADD ADD PUSH2 0x442F JUMP JUMPDEST DUP2 MSTORE PUSH1 0x24 PUSH1 0x64 CALLDATALOAD ADD CALLDATALOAD PUSH1 0x1 PUSH1 0x1 PUSH1 0x40 SHL SUB DUP2 GT PUSH2 0x20D JUMPI PUSH2 0x2D17 SWAP1 PUSH1 0x4 CALLDATASIZE SWAP2 PUSH1 0x64 CALLDATALOAD ADD ADD PUSH2 0x442F JUMP JUMPDEST PUSH1 0x20 DUP3 ADD MSTORE PUSH1 0x44 PUSH1 0x64 CALLDATALOAD ADD CALLDATALOAD PUSH1 0x1 PUSH1 0x1 PUSH1 0x40 SHL SUB DUP2 GT PUSH2 0x20D JUMPI PUSH2 0x2D43 SWAP1 PUSH1 0x4 CALLDATASIZE SWAP2 PUSH1 0x64 CALLDATALOAD ADD ADD PUSH2 0x44D3 JUMP JUMPDEST PUSH1 0x40 DUP3 ADD MSTORE PUSH1 0x84 CALLDATALOAD PUSH1 0x1 PUSH1 0x1 PUSH1 0x40 SHL SUB DUP2 GT PUSH2 0x20D JUMPI PUSH2 0x2D67 SWAP1 CALLDATASIZE SWAP1 PUSH1 0x4 ADD PUSH2 0x44EE JUMP JUMPDEST PUSH1 0xA0 MSTORE PUSH2 0x2D72 PUSH2 0x51A2 JUMP JUMPDEST PUSH1 0x4 CALLDATALOAD PUSH1 0x0 MSTORE PUSH1 0xB PUSH1 0x20 MSTORE PUSH1 0x1 DUP1 PUSH1 0xA0 SHL SUB PUSH1 0x1 PUSH1 0x40 PUSH1 0x0 KECCAK256 ADD SLOAD AND CALLER EQ DUP1 ISZERO PUSH2 0x4026 JUMPI JUMPDEST PUSH2 0x2DA0 SWAP1 PUSH2 0x5244 JUMP JUMPDEST PUSH1 0xA0 DUP3 ADD MLOAD ISZERO PUSH2 0x3FE1 JUMPI DUP3 MLOAD MLOAD ISZERO PUSH2 0x3FA5 JUMPI PUSH1 0x20 DUP4 ADD MLOAD MLOAD ISZERO PUSH2 0x3F60 JUMPI PUSH1 0x60 DUP4 ADD MLOAD MLOAD ISZERO PUSH2 0x3F24 JUMPI PUSH1 0x80 DUP4 ADD MLOAD MLOAD ISZERO PUSH2 0x3EE7 JUMPI PUSH1 0xA0 MLOAD MLOAD PUSH1 0x4 CALLDATALOAD PUSH1 0x0 SWAP1 DUP2 MSTORE PUSH1 0xB PUSH1 0x20 MSTORE PUSH1 0x40 SWAP1 KECCAK256 PUSH1 0x10 ADD SLOAD PUSH1 0x1 PUSH1 0x1 PUSH1 0xA0 SHL SUB SWAP2 DUP3 AND SWAP2 AND SUB PUSH2 0x3EA2 JUMPI PUSH1 0xA0 MLOAD MLOAD PUSH1 0x1 PUSH1 0x1 PUSH1 0xA0 SHL SUB AND CALLER SUB PUSH2 0x3E5D JUMPI DUP3 MLOAD SWAP3 PUSH1 0x20 DUP2 ADD MLOAD PUSH1 0xE0 MSTORE PUSH1 0x40 DUP2 ADD MLOAD SWAP3 PUSH1 0x60 DUP3 ADD MLOAD SWAP2 PUSH1 0x80 DUP2 ADD MLOAD SWAP1 PUSH1 0xC0 PUSH1 0xA0 DUP3 ADD MLOAD SWAP2 ADD MLOAD DUP4 MLOAD PUSH1 0x20 DUP6 ADD MLOAD SWAP2 PUSH1 0x40 DUP7 ADD MLOAD SWAP4 PUSH1 0x3 DUP6 LT ISZERO PUSH2 0x16E7 JUMPI PUSH1 0x60 DUP8 ADD MLOAD SWAP6 PUSH1 0x2 DUP8 LT ISZERO PUSH2 0x16E7 JUMPI PUSH1 0x80 DUP9 ADD MLOAD SWAP8 PUSH1 0x4 DUP10 LT ISZERO PUSH2 0x16E7 JUMPI PUSH1 0xA0 ADD MLOAD SWAP9 DUP11 MLOAD SWAP11 PUSH1 0x40 ADD MLOAD SWAP12 PUSH1 0x4 CALLDATALOAD PUSH1 0x0 MSTORE PUSH1 0xB PUSH1 0x20 MSTORE PUSH1 0x40 PUSH1 0x0 KECCAK256 SWAP14 PUSH1 0x15 DUP16 ADD SLOAD PUSH1 0xFF AND PUSH2 0x140 MSTORE PUSH1 0x40 MLOAD DUP1 PUSH2 0x160 MSTORE PUSH2 0x2EA8 SWAP1 PUSH2 0x434F JUMP JUMPDEST PUSH1 0x4 CALLDATALOAD PUSH2 0x160 MLOAD MSTORE CALLER PUSH2 0x160 MLOAD PUSH1 0x20 ADD MSTORE PUSH2 0x160 MLOAD PUSH1 0x40 ADD MSTORE PUSH1 0xE0 MLOAD PUSH2 0x160 MLOAD PUSH1 0x60 ADD MSTORE PUSH2 0x160 MLOAD PUSH1 0x80 ADD MSTORE PUSH2 0x160 MLOAD PUSH1 0xA0 ADD MSTORE PUSH2 0x160 MLOAD PUSH1 0xC0 ADD MSTORE PUSH2 0x160 MLOAD PUSH1 0xE0 ADD MSTORE PUSH2 0x160 MLOAD PUSH2 0x100 ADD MSTORE PUSH2 0x160 MLOAD PUSH2 0x120 ADD MSTORE PUSH2 0x160 MLOAD PUSH2 0x140 ADD MSTORE PUSH2 0x160 MLOAD PUSH2 0x160 ADD SWAP1 PUSH2 0x2F19 SWAP2 PUSH2 0x4FBE JUMP JUMPDEST PUSH2 0x160 MLOAD PUSH2 0x180 ADD SWAP1 PUSH2 0x2F2B SWAP2 PUSH2 0x4FCA JUMP JUMPDEST PUSH2 0x160 MLOAD PUSH2 0x1A0 ADD SWAP1 PUSH2 0x2F3D SWAP2 PUSH2 0x4FD6 JUMP JUMPDEST PUSH2 0x160 MLOAD PUSH2 0x1C0 ADD MSTORE PUSH2 0x160 MLOAD PUSH2 0x1E0 ADD MSTORE PUSH2 0x160 MLOAD PUSH2 0x200 ADD MSTORE PUSH1 0xF ADD PUSH2 0x2F64 SWAP1 PUSH2 0x52CF JUMP JUMPDEST PUSH2 0x160 MLOAD PUSH2 0x220 ADD MSTORE PUSH1 0xA0 MLOAD PUSH2 0x160 MLOAD PUSH2 0x240 ADD MSTORE PUSH2 0x140 MLOAD ISZERO ISZERO PUSH2 0x160 MLOAD PUSH2 0x260 ADD MSTORE PUSH2 0x160 MLOAD PUSH2 0x280 ADD PUSH1 0x0 SWAP1 MSTORE PUSH1 0x4 CALLDATALOAD PUSH1 0x0 MSTORE PUSH1 0xB PUSH1 0x20 MSTORE PUSH1 0x40 PUSH1 0x0 KECCAK256 PUSH2 0x160 MLOAD DUP1 MLOAD DUP3 SSTORE PUSH1 0x1 PUSH1 0xA0 SHL PUSH1 0x1 SWAP1 SUB PUSH1 0x20 DUP3 ADD MLOAD AND PUSH1 0x1 PUSH1 0x1 PUSH1 0x60 SHL SUB PUSH1 0xA0 SHL PUSH1 0x1 DUP5 ADD SLOAD AND OR PUSH1 0x1 DUP4 ADD SSTORE PUSH1 0x40 ADD MLOAD DUP1 MLOAD SWAP1 PUSH1 0x1 PUSH1 0x1 PUSH1 0x40 SHL SUB DUP3 GT PUSH2 0x12D6 JUMPI DUP2 SWAP1 PUSH2 0x2FF6 PUSH1 0x2 DUP6 ADD SLOAD PUSH2 0x49A1 JUMP JUMPDEST PUSH1 0x1F DUP2 GT PUSH2 0x3E28 JUMPI JUMPDEST POP PUSH1 0x20 SWAP1 PUSH1 0x1F DUP4 GT PUSH1 0x1 EQ PUSH2 0x3DB6 JUMPI PUSH1 0x0 SWAP3 PUSH2 0x3DAB JUMPI JUMPDEST POP POP DUP2 PUSH1 0x1 SHL SWAP2 PUSH1 0x0 NOT SWAP1 PUSH1 0x3 SHL SHR NOT AND OR PUSH1 0x2 DUP3 ADD SSTORE JUMPDEST PUSH1 0x60 PUSH2 0x160 MLOAD ADD MLOAD DUP1 MLOAD SWAP1 PUSH1 0x1 PUSH1 0x40 SHL DUP3 GT PUSH2 0x12D6 JUMPI PUSH1 0x3 DUP4 ADD SLOAD DUP3 PUSH1 0x3 DUP6 ADD SSTORE DUP1 DUP4 LT PUSH2 0x3D78 JUMPI JUMPDEST POP PUSH1 0x20 ADD SWAP1 PUSH1 0x3 DUP4 ADD PUSH1 0x0 MSTORE PUSH1 0x20 PUSH1 0x0 KECCAK256 SWAP2 PUSH1 0x0 SWAP1 JUMPDEST DUP3 DUP3 LT PUSH2 0x3C63 JUMPI DUP5 PUSH1 0x80 PUSH2 0x160 MLOAD ADD MLOAD DUP1 MLOAD SWAP1 PUSH1 0x1 PUSH1 0x1 PUSH1 0x40 SHL SUB DUP3 GT PUSH2 0x12D6 JUMPI DUP2 SWAP1 PUSH2 0x309D PUSH1 0x4 DUP6 ADD SLOAD PUSH2 0x49A1 JUMP JUMPDEST PUSH1 0x1F DUP2 GT PUSH2 0x3C2E JUMPI JUMPDEST POP PUSH1 0x20 SWAP1 PUSH1 0x1F DUP4 GT PUSH1 0x1 EQ PUSH2 0x3BBC JUMPI PUSH1 0x0 SWAP3 PUSH2 0x3BB1 JUMPI JUMPDEST POP POP DUP2 PUSH1 0x1 SHL SWAP2 PUSH1 0x0 NOT SWAP1 PUSH1 0x3 SHL SHR NOT AND OR PUSH1 0x4 DUP3 ADD SSTORE JUMPDEST PUSH1 0xA0 PUSH2 0x160 MLOAD ADD MLOAD DUP1 MLOAD SWAP1 PUSH1 0x1 PUSH1 0x1 PUSH1 0x40 SHL SUB DUP3 GT PUSH2 0x12D6 JUMPI DUP2 SWAP1 PUSH2 0x30FD PUSH1 0x5 DUP6 ADD SLOAD PUSH2 0x49A1 JUMP JUMPDEST PUSH1 0x1F DUP2 GT PUSH2 0x3B7C JUMPI JUMPDEST POP PUSH1 0x20 SWAP1 PUSH1 0x1F DUP4 GT PUSH1 0x1 EQ PUSH2 0x3B0A JUMPI PUSH1 0x0 SWAP3 PUSH2 0x3AFF JUMPI JUMPDEST POP POP DUP2 PUSH1 0x1 SHL SWAP2 PUSH1 0x0 NOT SWAP1 PUSH1 0x3 SHL SHR NOT AND OR PUSH1 0x5 DUP3 ADD SSTORE JUMPDEST PUSH1 0xC0 PUSH2 0x160 MLOAD ADD MLOAD DUP1 MLOAD SWAP1 PUSH1 0x1 PUSH1 0x1 PUSH1 0x40 SHL SUB DUP3 GT PUSH2 0x12D6 JUMPI DUP2 SWAP1 PUSH2 0x315D PUSH1 0x6 DUP6 ADD SLOAD PUSH2 0x49A1 JUMP JUMPDEST PUSH1 0x1F DUP2 GT PUSH2 0x3ACA JUMPI JUMPDEST POP PUSH1 0x20 SWAP1 PUSH1 0x1F DUP4 GT PUSH1 0x1 EQ PUSH2 0x3A58 JUMPI PUSH1 0x0 SWAP3 PUSH2 0x3A4D JUMPI JUMPDEST POP POP DUP2 PUSH1 0x1 SHL SWAP2 PUSH1 0x0 NOT SWAP1 PUSH1 0x3 SHL SHR NOT AND OR PUSH1 0x6 DUP3 ADD SSTORE JUMPDEST PUSH2 0x140 PUSH2 0x160 MLOAD PUSH1 0xE0 DUP2 ADD MLOAD PUSH1 0x7 DUP5 ADD SSTORE PUSH2 0x100 DUP2 ADD MLOAD PUSH1 0x8 DUP5 ADD SSTORE PUSH2 0x120 DUP2 ADD MLOAD PUSH1 0x9 DUP5 ADD SSTORE ADD MLOAD DUP1 MLOAD SWAP1 PUSH1 0x1 PUSH1 0x1 PUSH1 0x40 SHL SUB DUP3 GT PUSH2 0x12D6 JUMPI DUP2 SWAP1 PUSH2 0x31DE PUSH1 0xA DUP6 ADD SLOAD PUSH2 0x49A1 JUMP JUMPDEST PUSH1 0x1F DUP2 GT PUSH2 0x3A18 JUMPI JUMPDEST POP PUSH1 0x20 SWAP1 PUSH1 0x1F DUP4 GT PUSH1 0x1 EQ PUSH2 0x39A6 JUMPI PUSH1 0x0 SWAP3 PUSH2 0x399B JUMPI JUMPDEST POP POP DUP2 PUSH1 0x1 SHL SWAP2 PUSH1 0x0 NOT SWAP1 PUSH1 0x3 SHL SHR NOT AND OR PUSH1 0xA DUP3 ADD SSTORE JUMPDEST PUSH2 0x160 MLOAD PUSH2 0x160 DUP2 ADD MLOAD SWAP1 PUSH1 0x3 DUP3 LT ISZERO PUSH2 0x16E7 JUMPI PUSH1 0xB DUP4 ADD SLOAD SWAP2 PUSH2 0x180 DUP3 ADD MLOAD PUSH1 0x2 DUP2 LT ISZERO PUSH2 0x16E7 JUMPI PUSH2 0x1A0 DUP4 ADD MLOAD PUSH1 0x4 DUP2 LT ISZERO PUSH2 0x16E7 JUMPI PUSH2 0x1E0 SWAP5 PUSH1 0xFF PUSH3 0xFF0000 PUSH2 0xFF00 SWAP4 PUSH1 0x10 SHL AND SWAP5 AND SWAP1 PUSH3 0xFFFFFF NOT AND OR SWAP2 PUSH1 0x8 SHL AND OR OR PUSH1 0xB DUP5 ADD SSTORE PUSH2 0x1C0 DUP2 ADD MLOAD PUSH1 0xC DUP5 ADD SSTORE ADD MLOAD DUP1 MLOAD SWAP1 PUSH1 0x1 PUSH1 0x1 PUSH1 0x40 SHL SUB DUP3 GT PUSH2 0x12D6 JUMPI DUP2 SWAP1 PUSH2 0x32A3 PUSH1 0xD DUP6 ADD SLOAD PUSH2 0x49A1 JUMP JUMPDEST PUSH1 0x1F DUP2 GT PUSH2 0x3966 JUMPI JUMPDEST POP PUSH1 0x20 SWAP1 PUSH1 0x1F DUP4 GT PUSH1 0x1 EQ PUSH2 0x38F4 JUMPI PUSH1 0x0 SWAP3 PUSH2 0x38E9 JUMPI JUMPDEST POP POP DUP2 PUSH1 0x1 SHL SWAP2 PUSH1 0x0 NOT SWAP1 PUSH1 0x3 SHL SHR NOT AND OR PUSH1 0xD DUP3 ADD SSTORE JUMPDEST PUSH2 0x200 PUSH2 0x160 MLOAD ADD MLOAD DUP1 MLOAD SWAP1 PUSH1 0x1 PUSH1 0x40 SHL DUP3 GT PUSH2 0x12D6 JUMPI PUSH1 0xE DUP4 ADD SLOAD DUP3 PUSH1 0xE DUP6 ADD SSTORE DUP1 DUP4 LT PUSH2 0x38B6 JUMPI JUMPDEST POP PUSH1 0x20 ADD SWAP1 PUSH1 0xE DUP4 ADD PUSH1 0x0 MSTORE PUSH1 0x20 PUSH1 0x0 KECCAK256 SWAP2 PUSH1 0x0 SWAP1 JUMPDEST DUP3 DUP3 LT PUSH2 0x37A1 JUMPI DUP5 PUSH2 0x220 PUSH2 0x160 MLOAD ADD MLOAD DUP1 MLOAD SWAP1 PUSH1 0x1 PUSH1 0x40 SHL DUP3 GT PUSH2 0x12D6 JUMPI PUSH1 0xF DUP4 ADD SLOAD DUP3 PUSH1 0xF DUP6 ADD SSTORE DUP1 DUP4 LT PUSH2 0x3735 JUMPI JUMPDEST POP PUSH1 0x20 ADD PUSH1 0xF DUP4 ADD PUSH1 0x0 MSTORE PUSH1 0x20 PUSH1 0x0 KECCAK256 PUSH1 0x0 SWAP2 JUMPDEST DUP4 DUP4 LT PUSH2 0x3717 JUMPI DUP5 PUSH1 0x10 DUP2 ADD PUSH2 0x240 PUSH2 0x160 MLOAD ADD MLOAD SWAP1 PUSH1 0x1 DUP1 PUSH1 0xA0 SHL SUB DUP3 MLOAD AND PUSH1 0x1 PUSH1 0x1 PUSH1 0x60 SHL SUB PUSH1 0xA0 SHL DUP3 SLOAD AND OR SWAP1 SSTORE PUSH1 0x20 DUP2 ADD MLOAD SWAP2 DUP3 MLOAD PUSH1 0x1 PUSH1 0x1 PUSH1 0x40 SHL SUB DUP2 GT PUSH2 0x12D6 JUMPI PUSH2 0x33B5 PUSH1 0x11 DUP4 ADD SLOAD PUSH2 0x49A1 JUMP JUMPDEST PUSH1 0x1F DUP2 GT PUSH2 0x36E2 JUMPI JUMPDEST POP PUSH1 0x20 PUSH1 0x1F DUP3 GT PUSH1 0x1 EQ PUSH2 0x3674 JUMPI DUP2 SWAP3 SWAP4 SWAP5 PUSH1 0x0 SWAP3 PUSH2 0x3669 JUMPI JUMPDEST POP POP DUP2 PUSH1 0x1 SHL SWAP2 PUSH1 0x0 NOT SWAP1 PUSH1 0x3 SHL SHR NOT AND OR PUSH1 0x11 DUP3 ADD SSTORE JUMPDEST PUSH1 0x40 DUP3 ADD MLOAD SWAP2 DUP3 MLOAD PUSH1 0x1 PUSH1 0x1 PUSH1 0x40 SHL SUB DUP2 GT PUSH2 0x12D6 JUMPI PUSH2 0x3413 PUSH1 0x12 DUP5 ADD SLOAD PUSH2 0x49A1 JUMP JUMPDEST PUSH1 0x1F DUP2 GT PUSH2 0x3634 JUMPI JUMPDEST POP PUSH1 0x20 PUSH1 0x1F DUP3 GT PUSH1 0x1 EQ PUSH2 0x35C6 JUMPI DUP2 SWAP3 SWAP4 SWAP5 PUSH1 0x0 SWAP3 PUSH2 0x35BB JUMPI JUMPDEST POP POP DUP2 PUSH1 0x1 SHL SWAP2 PUSH1 0x0 NOT SWAP1 PUSH1 0x3 SHL SHR NOT AND OR PUSH1 0x12 DUP4 ADD SSTORE JUMPDEST PUSH1 0x60 DUP2 ADD MLOAD PUSH1 0x13 DUP4 ADD SSTORE PUSH1 0x80 ADD MLOAD DUP1 MLOAD PUSH1 0x14 DUP4 ADD SWAP2 PUSH1 0x1 PUSH1 0x1 PUSH1 0x40 SHL SUB DUP3 GT PUSH2 0x12D6 JUMPI PUSH2 0x347B DUP4 SLOAD PUSH2 0x49A1 JUMP JUMPDEST PUSH1 0x1F DUP2 GT PUSH2 0x3589 JUMPI JUMPDEST POP PUSH1 0x20 SWAP1 PUSH1 0x1F DUP4 GT PUSH1 0x1 EQ PUSH2 0x351A JUMPI SWAP2 DUP1 PUSH1 0x15 SWAP5 SWAP3 PUSH2 0x34E0 SWAP7 SWAP5 PUSH1 0x0 SWAP3 PUSH2 0x350F JUMPI JUMPDEST POP POP DUP2 PUSH1 0x1 SHL SWAP2 PUSH1 0x0 NOT SWAP1 PUSH1 0x3 SHL SHR NOT AND OR SWAP1 SSTORE JUMPDEST ADD PUSH2 0x280 PUSH2 0x160 MLOAD PUSH2 0x10AB PUSH2 0x260 DUP3 ADD MLOAD ISZERO ISZERO DUP5 SWAP1 PUSH1 0xFF DUP1 NOT DUP4 SLOAD AND SWAP2 ISZERO ISZERO AND OR SWAP1 SSTORE JUMP JUMPDEST CALLER PUSH1 0x4 CALLDATALOAD PUSH32 0xAC4673E0C14F555F7A29DC1ABE824E57FEEB4DC61DFFC46E24A31D970178D6A PUSH1 0x0 DUP1 LOG3 PUSH1 0x1 DUP1 SSTORE STOP JUMPDEST ADD MLOAD SWAP1 POP DUP7 DUP1 PUSH2 0x34A6 JUMP JUMPDEST SWAP1 PUSH1 0x1F NOT DUP4 AND SWAP2 DUP5 PUSH1 0x0 MSTORE PUSH1 0x20 PUSH1 0x0 KECCAK256 SWAP3 PUSH1 0x0 JUMPDEST DUP2 DUP2 LT PUSH2 0x3571 JUMPI POP SWAP3 PUSH1 0x1 SWAP3 DUP6 SWAP3 PUSH2 0x34E0 SWAP9 SWAP7 PUSH1 0x15 SWAP9 SWAP7 LT PUSH2 0x3558 JUMPI JUMPDEST POP POP POP DUP2 SHL ADD SWAP1 SSTORE PUSH2 0x34BB JUMP JUMPDEST ADD MLOAD PUSH1 0x0 NOT PUSH1 0xF8 DUP5 PUSH1 0x3 SHL AND SHR NOT AND SWAP1 SSTORE DUP7 DUP1 DUP1 PUSH2 0x354B JUMP JUMPDEST SWAP3 SWAP4 PUSH1 0x20 PUSH1 0x1 DUP2 SWAP3 DUP8 DUP7 ADD MLOAD DUP2 SSTORE ADD SWAP6 ADD SWAP4 ADD PUSH2 0x352E JUMP JUMPDEST PUSH2 0x35B5 SWAP1 DUP5 PUSH1 0x0 MSTORE PUSH1 0x20 PUSH1 0x0 KECCAK256 PUSH1 0x1F DUP6 ADD PUSH1 0x5 SHR DUP2 ADD SWAP2 PUSH1 0x20 DUP7 LT PUSH2 0x12CC JUMPI PUSH1 0x1F ADD PUSH1 0x5 SHR ADD SWAP1 PUSH2 0x4FE2 JUMP JUMPDEST DUP5 PUSH2 0x3484 JUMP JUMPDEST ADD MLOAD SWAP1 POP DUP5 DUP1 PUSH2 0x3436 JUMP JUMPDEST PUSH1 0x12 DUP5 ADD PUSH1 0x0 MSTORE PUSH1 0x20 PUSH1 0x0 KECCAK256 SWAP1 PUSH1 0x0 JUMPDEST PUSH1 0x1F NOT DUP5 AND DUP2 LT PUSH2 0x361C JUMPI POP PUSH1 0x1 SWAP4 SWAP5 SWAP6 DUP4 PUSH1 0x1F NOT DUP2 AND LT PUSH2 0x3603 JUMPI JUMPDEST POP POP POP DUP2 SHL ADD PUSH1 0x12 DUP4 ADD SSTORE PUSH2 0x344E JUMP JUMPDEST ADD MLOAD PUSH1 0x0 NOT PUSH1 0xF8 DUP5 PUSH1 0x3 SHL AND SHR NOT AND SWAP1 SSTORE DUP5 DUP1 DUP1 PUSH2 0x35F3 JUMP JUMPDEST SWAP1 SWAP2 PUSH1 0x20 PUSH1 0x1 DUP2 SWAP3 DUP6 DUP11 ADD MLOAD DUP2 SSTORE ADD SWAP4 ADD SWAP2 ADD PUSH2 0x35D6 JUMP JUMPDEST PUSH2 0x3663 SWAP1 PUSH1 0x12 DUP6 ADD PUSH1 0x0 MSTORE PUSH1 0x20 PUSH1 0x0 KECCAK256 PUSH1 0x1F DUP5 ADD PUSH1 0x5 SHR DUP2 ADD SWAP2 PUSH1 0x20 DUP6 LT PUSH2 0x12CC JUMPI PUSH1 0x1F ADD PUSH1 0x5 SHR ADD SWAP1 PUSH2 0x4FE2 JUMP JUMPDEST DUP5 PUSH2 0x341C JUMP JUMPDEST ADD MLOAD SWAP1 POP DUP5 DUP1 PUSH2 0x33D8 JUMP JUMPDEST PUSH1 0x11 DUP4 ADD PUSH1 0x0 MSTORE PUSH1 0x20 PUSH1 0x0 KECCAK256 SWAP1 PUSH1 0x0 JUMPDEST PUSH1 0x1F NOT DUP5 AND DUP2 LT PUSH2 0x36CA JUMPI POP PUSH1 0x1 SWAP4 SWAP5 SWAP6 DUP4 PUSH1 0x1F NOT DUP2 AND LT PUSH2 0x36B1 JUMPI JUMPDEST POP POP POP DUP2 SHL ADD PUSH1 0x11 DUP3 ADD SSTORE PUSH2 0x33F0 JUMP JUMPDEST ADD MLOAD PUSH1 0x0 NOT PUSH1 0xF8 DUP5 PUSH1 0x3 SHL AND SHR NOT AND SWAP1 SSTORE DUP5 DUP1 DUP1 PUSH2 0x36A1 JUMP JUMPDEST SWAP1 SWAP2 PUSH1 0x20 PUSH1 0x1 DUP2 SWAP3 DUP6 DUP11 ADD MLOAD DUP2 SSTORE ADD SWAP4 ADD SWAP2 ADD PUSH2 0x3684 JUMP JUMPDEST PUSH2 0x3711 SWAP1 PUSH1 0x11 DUP5 ADD PUSH1 0x0 MSTORE PUSH1 0x20 PUSH1 0x0 KECCAK256 PUSH1 0x1F DUP5 ADD PUSH1 0x5 SHR DUP2 ADD SWAP2 PUSH1 0x20 DUP6 LT PUSH2 0x12CC JUMPI PUSH1 0x1F ADD PUSH1 0x5 SHR ADD SWAP1 PUSH2 0x4FE2 JUMP JUMPDEST DUP5 PUSH2 0x33BE JUMP JUMPDEST PUSH1 0x5 PUSH1 0x20 DUP3 PUSH2 0x3729 PUSH1 0x1 SWAP5 MLOAD DUP7 PUSH2 0x5042 JUMP JUMPDEST ADD SWAP3 ADD SWAP3 ADD SWAP2 SWAP1 PUSH2 0x3361 JUMP JUMPDEST PUSH1 0x5 DUP2 DUP2 MUL DIV DUP2 SUB PUSH2 0x14D7 JUMPI PUSH1 0x5 DUP4 DUP2 MUL DIV DUP4 SUB PUSH2 0x14D7 JUMPI PUSH1 0xF DUP5 ADD PUSH1 0x0 MSTORE PUSH1 0x20 PUSH1 0x0 KECCAK256 DUP4 PUSH1 0x5 MUL DUP2 ADD JUMPDEST DUP3 PUSH1 0x5 MUL DUP3 ADD DUP2 LT PUSH2 0x3773 JUMPI POP POP PUSH2 0x334D JUMP JUMPDEST DUP1 PUSH1 0x0 PUSH1 0x5 SWAP3 SSTORE PUSH1 0x0 PUSH1 0x1 DUP3 ADD SSTORE PUSH2 0x378D PUSH1 0x2 DUP3 ADD PUSH2 0x4FF9 JUMP JUMPDEST PUSH1 0x0 PUSH1 0x3 DUP3 ADD SSTORE PUSH1 0x0 PUSH1 0x4 DUP3 ADD SSTORE ADD PUSH2 0x3760 JUMP JUMPDEST DUP1 MLOAD DUP1 MLOAD SWAP1 PUSH1 0x1 PUSH1 0x1 PUSH1 0x40 SHL SUB DUP3 GT PUSH2 0x12D6 JUMPI PUSH2 0x37BE DUP7 SLOAD PUSH2 0x49A1 JUMP JUMPDEST PUSH1 0x1F DUP2 GT PUSH2 0x3884 JUMPI JUMPDEST POP PUSH1 0x20 SWAP1 PUSH1 0x1F DUP4 GT PUSH1 0x1 EQ PUSH2 0x3814 JUMPI SWAP3 DUP3 PUSH1 0x1 SWAP5 SWAP4 PUSH1 0x20 SWAP4 DUP7 SWAP6 PUSH1 0x0 SWAP3 PUSH2 0x3809 JUMPI JUMPDEST POP POP PUSH1 0x0 NOT PUSH1 0x3 DUP4 SWAP1 SHL SHR NOT AND SWAP1 DUP5 SHL OR DUP8 SSTORE JUMPDEST ADD SWAP5 ADD SWAP2 ADD SWAP1 SWAP3 PUSH2 0x331B JUMP JUMPDEST ADD MLOAD SWAP1 POP DUP11 DUP1 PUSH2 0x37E9 JUMP JUMPDEST SWAP1 DUP7 PUSH1 0x0 MSTORE PUSH1 0x20 PUSH1 0x0 KECCAK256 SWAP2 PUSH1 0x0 JUMPDEST PUSH1 0x1F NOT DUP6 AND DUP2 LT PUSH2 0x386C JUMPI POP DUP4 PUSH1 0x20 SWAP4 PUSH1 0x1 SWAP7 SWAP4 DUP8 SWAP7 SWAP4 DUP8 SWAP5 PUSH1 0x1F NOT DUP2 AND LT PUSH2 0x3853 JUMPI JUMPDEST POP POP POP DUP2 SHL ADD DUP8 SSTORE PUSH2 0x37FD JUMP JUMPDEST ADD MLOAD PUSH1 0x0 NOT PUSH1 0xF8 DUP5 PUSH1 0x3 SHL AND SHR NOT AND SWAP1 SSTORE DUP11 DUP1 DUP1 PUSH2 0x3846 JUMP JUMPDEST SWAP2 SWAP3 PUSH1 0x20 PUSH1 0x1 DUP2 SWAP3 DUP7 DUP6 ADD MLOAD DUP2 SSTORE ADD SWAP5 ADD SWAP3 ADD PUSH2 0x3822 JUMP JUMPDEST PUSH2 0x38B0 SWAP1 DUP8 PUSH1 0x0 MSTORE PUSH1 0x20 PUSH1 0x0 KECCAK256 PUSH1 0x1F DUP6 ADD PUSH1 0x5 SHR DUP2 ADD SWAP2 PUSH1 0x20 DUP7 LT PUSH2 0x12CC JUMPI PUSH1 0x1F ADD PUSH1 0x5 SHR ADD SWAP1 PUSH2 0x4FE2 JUMP JUMPDEST DUP8 PUSH2 0x37C7 JUMP JUMPDEST PUSH1 0xE DUP5 ADD PUSH1 0x0 MSTORE PUSH1 0x20 PUSH1 0x0 KECCAK256 SWAP1 DUP4 DUP3 ADD JUMPDEST DUP2 DUP4 ADD DUP2 LT PUSH2 0x38D7 JUMPI POP POP PUSH2 0x3305 JUMP JUMPDEST DUP1 PUSH2 0x38E3 PUSH1 0x1 SWAP3 PUSH2 0x4FF9 JUMP JUMPDEST ADD PUSH2 0x38C7 JUMP JUMPDEST ADD MLOAD SWAP1 POP DUP4 DUP1 PUSH2 0x32C3 JUMP JUMPDEST SWAP3 POP PUSH1 0xD DUP5 ADD PUSH1 0x0 MSTORE PUSH1 0x20 PUSH1 0x0 KECCAK256 SWAP1 PUSH1 0x0 SWAP4 JUMPDEST PUSH1 0x1F NOT DUP5 AND DUP6 LT PUSH2 0x394B JUMPI PUSH1 0x1 SWAP5 POP DUP4 PUSH1 0x1F NOT DUP2 AND LT PUSH2 0x3932 JUMPI JUMPDEST POP POP POP DUP2 SHL ADD PUSH1 0xD DUP3 ADD SSTORE PUSH2 0x32DB JUMP JUMPDEST ADD MLOAD PUSH1 0x0 NOT PUSH1 0xF8 DUP5 PUSH1 0x3 SHL AND SHR NOT AND SWAP1 SSTORE DUP4 DUP1 DUP1 PUSH2 0x3922 JUMP JUMPDEST DUP2 DUP2 ADD MLOAD DUP4 SSTORE PUSH1 0x20 SWAP5 DUP6 ADD SWAP5 PUSH1 0x1 SWAP1 SWAP4 ADD SWAP3 SWAP1 SWAP2 ADD SWAP1 PUSH2 0x3907 JUMP JUMPDEST PUSH2 0x3995 SWAP1 PUSH1 0xD DUP7 ADD PUSH1 0x0 MSTORE PUSH1 0x20 PUSH1 0x0 KECCAK256 PUSH1 0x1F DUP6 ADD PUSH1 0x5 SHR DUP2 ADD SWAP2 PUSH1 0x20 DUP7 LT PUSH2 0x12CC JUMPI PUSH1 0x1F ADD PUSH1 0x5 SHR ADD SWAP1 PUSH2 0x4FE2 JUMP JUMPDEST DUP5 PUSH2 0x32AC JUMP JUMPDEST ADD MLOAD SWAP1 POP DUP4 DUP1 PUSH2 0x31FE JUMP JUMPDEST SWAP3 POP PUSH1 0xA DUP5 ADD PUSH1 0x0 MSTORE PUSH1 0x20 PUSH1 0x0 KECCAK256 SWAP1 PUSH1 0x0 SWAP4 JUMPDEST PUSH1 0x1F NOT DUP5 AND DUP6 LT PUSH2 0x39FD JUMPI PUSH1 0x1 SWAP5 POP DUP4 PUSH1 0x1F NOT DUP2 AND LT PUSH2 0x39E4 JUMPI JUMPDEST POP POP POP DUP2 SHL ADD PUSH1 0xA DUP3 ADD SSTORE PUSH2 0x3216 JUMP JUMPDEST ADD MLOAD PUSH1 0x0 NOT PUSH1 0xF8 DUP5 PUSH1 0x3 SHL AND SHR NOT AND SWAP1 SSTORE DUP4 DUP1 DUP1 PUSH2 0x39D4 JUMP JUMPDEST DUP2 DUP2 ADD MLOAD DUP4 SSTORE PUSH1 0x20 SWAP5 DUP6 ADD SWAP5 PUSH1 0x1 SWAP1 SWAP4 ADD SWAP3 SWAP1 SWAP2 ADD SWAP1 PUSH2 0x39B9 JUMP JUMPDEST PUSH2 0x3A47 SWAP1 PUSH1 0xA DUP7 ADD PUSH1 0x0 MSTORE PUSH1 0x20 PUSH1 0x0 KECCAK256 PUSH1 0x1F DUP6 ADD PUSH1 0x5 SHR DUP2 ADD SWAP2 PUSH1 0x20 DUP7 LT PUSH2 0x12CC JUMPI PUSH1 0x1F ADD PUSH1 0x5 SHR ADD SWAP1 PUSH2 0x4FE2 JUMP JUMPDEST DUP5 PUSH2 0x31E7 JUMP JUMPDEST ADD MLOAD SWAP1 POP DUP4 DUP1 PUSH2 0x317D JUMP JUMPDEST SWAP3 POP PUSH1 0x6 DUP5 ADD PUSH1 0x0 MSTORE PUSH1 0x20 PUSH1 0x0 KECCAK256 SWAP1 PUSH1 0x0 SWAP4 JUMPDEST PUSH1 0x1F NOT DUP5 AND DUP6 LT PUSH2 0x3AAF JUMPI PUSH1 0x1 SWAP5 POP DUP4 PUSH1 0x1F NOT DUP2 AND LT PUSH2 0x3A96 JUMPI JUMPDEST POP POP POP DUP2 SHL ADD PUSH1 0x6 DUP3 ADD SSTORE PUSH2 0x3195 JUMP JUMPDEST ADD MLOAD PUSH1 0x0 NOT PUSH1 0xF8 DUP5 PUSH1 0x3 SHL AND SHR NOT AND SWAP1 SSTORE DUP4 DUP1 DUP1 PUSH2 0x3A86 JUMP JUMPDEST DUP2 DUP2 ADD MLOAD DUP4 SSTORE PUSH1 0x20 SWAP5 DUP6 ADD SWAP5 PUSH1 0x1 SWAP1 SWAP4 ADD SWAP3 SWAP1 SWAP2 ADD SWAP1 PUSH2 0x3A6B JUMP JUMPDEST PUSH2 0x3AF9 SWAP1 PUSH1 0x6 DUP7 ADD PUSH1 0x0 MSTORE PUSH1 0x20 PUSH1 0x0 KECCAK256 PUSH1 0x1F DUP6 ADD PUSH1 0x5 SHR DUP2 ADD SWAP2 PUSH1 0x20 DUP7 LT PUSH2 0x12CC JUMPI PUSH1 0x1F ADD PUSH1 0x5 SHR ADD SWAP1 PUSH2 0x4FE2 JUMP JUMPDEST DUP5 PUSH2 0x3166 JUMP JUMPDEST ADD MLOAD SWAP1 POP DUP4 DUP1 PUSH2 0x311D JUMP JUMPDEST SWAP3 POP PUSH1 0x5 DUP5 ADD PUSH1 0x0 MSTORE PUSH1 0x20 PUSH1 0x0 KECCAK256 SWAP1 PUSH1 0x0 SWAP4 JUMPDEST PUSH1 0x1F NOT DUP5 AND DUP6 LT PUSH2 0x3B61 JUMPI PUSH1 0x1 SWAP5 POP DUP4 PUSH1 0x1F NOT DUP2 AND LT PUSH2 0x3B48 JUMPI JUMPDEST POP POP POP DUP2 SHL ADD PUSH1 0x5 DUP3 ADD SSTORE PUSH2 0x3135 JUMP JUMPDEST ADD MLOAD PUSH1 0x0 NOT PUSH1 0xF8 DUP5 PUSH1 0x3 SHL AND SHR NOT AND SWAP1 SSTORE DUP4 DUP1 DUP1 PUSH2 0x3B38 JUMP JUMPDEST DUP2 DUP2 ADD MLOAD DUP4 SSTORE PUSH1 0x20 SWAP5 DUP6 ADD SWAP5 PUSH1 0x1 SWAP1 SWAP4 ADD SWAP3 SWAP1 SWAP2 ADD SWAP1 PUSH2 0x3B1D JUMP JUMPDEST PUSH2 0x3BAB SWAP1 PUSH1 0x5 DUP7 ADD PUSH1 0x0 MSTORE PUSH1 0x20 PUSH1 0x0 KECCAK256 PUSH1 0x1F DUP6 ADD PUSH1 0x5 SHR DUP2 ADD SWAP2 PUSH1 0x20 DUP7 LT PUSH2 0x12CC JUMPI PUSH1 0x1F ADD PUSH1 0x5 SHR ADD SWAP1 PUSH2 0x4FE2 JUMP JUMPDEST DUP5 PUSH2 0x3106 JUMP JUMPDEST ADD MLOAD SWAP1 POP DUP4 DUP1 PUSH2 0x30BD JUMP JUMPDEST SWAP3 POP PUSH1 0x4 DUP5 ADD PUSH1 0x0 MSTORE PUSH1 0x20 PUSH1 0x0 KECCAK256 SWAP1 PUSH1 0x0 SWAP4 JUMPDEST PUSH1 0x1F NOT DUP5 AND DUP6 LT PUSH2 0x3C13 JUMPI PUSH1 0x1 SWAP5 POP DUP4 PUSH1 0x1F NOT DUP2 AND LT PUSH2 0x3BFA JUMPI JUMPDEST POP POP POP DUP2 SHL ADD PUSH1 0x4 DUP3 ADD SSTORE PUSH2 0x30D5 JUMP JUMPDEST ADD MLOAD PUSH1 0x0 NOT PUSH1 0xF8 DUP5 PUSH1 0x3 SHL AND SHR NOT AND SWAP1 SSTORE DUP4 DUP1 DUP1 PUSH2 0x3BEA JUMP JUMPDEST DUP2 DUP2 ADD MLOAD DUP4 SSTORE PUSH1 0x20 SWAP5 DUP6 ADD SWAP5 PUSH1 0x1 SWAP1 SWAP4 ADD SWAP3 SWAP1 SWAP2 ADD SWAP1 PUSH2 0x3BCF JUMP JUMPDEST PUSH2 0x3C5D SWAP1 PUSH1 0x4 DUP7 ADD PUSH1 0x0 MSTORE PUSH1 0x20 PUSH1 0x0 KECCAK256 PUSH1 0x1F DUP6 ADD PUSH1 0x5 SHR DUP2 ADD SWAP2 PUSH1 0x20 DUP7 LT PUSH2 0x12CC JUMPI PUSH1 0x1F ADD PUSH1 0x5 SHR ADD SWAP1 PUSH2 0x4FE2 JUMP JUMPDEST DUP5 PUSH2 0x30A6 JUMP JUMPDEST DUP1 MLOAD DUP1 MLOAD SWAP1 PUSH1 0x1 PUSH1 0x1 PUSH1 0x40 SHL SUB DUP3 GT PUSH2 0x12D6 JUMPI PUSH2 0x3C80 DUP7 SLOAD PUSH2 0x49A1 JUMP JUMPDEST PUSH1 0x1F DUP2 GT PUSH2 0x3D46 JUMPI JUMPDEST POP PUSH1 0x20 SWAP1 PUSH1 0x1F DUP4 GT PUSH1 0x1 EQ PUSH2 0x3CD6 JUMPI SWAP3 DUP3 PUSH1 0x1 SWAP5 SWAP4 PUSH1 0x20 SWAP4 DUP7 SWAP6 PUSH1 0x0 SWAP3 PUSH2 0x3CCB JUMPI JUMPDEST POP POP PUSH1 0x0 NOT PUSH1 0x3 DUP4 SWAP1 SHL SHR NOT AND SWAP1 DUP5 SHL OR DUP8 SSTORE JUMPDEST ADD SWAP5 ADD SWAP2 ADD SWAP1 SWAP3 PUSH2 0x306D JUMP JUMPDEST ADD MLOAD SWAP1 POP DUP11 DUP1 PUSH2 0x3CAB JUMP JUMPDEST SWAP1 DUP7 PUSH1 0x0 MSTORE PUSH1 0x20 PUSH1 0x0 KECCAK256 SWAP2 PUSH1 0x0 JUMPDEST PUSH1 0x1F NOT DUP6 AND DUP2 LT PUSH2 0x3D2E JUMPI POP DUP4 PUSH1 0x20 SWAP4 PUSH1 0x1 SWAP7 SWAP4 DUP8 SWAP7 SWAP4 DUP8 SWAP5 PUSH1 0x1F NOT DUP2 AND LT PUSH2 0x3D15 JUMPI JUMPDEST POP POP POP DUP2 SHL ADD DUP8 SSTORE PUSH2 0x3CBF JUMP JUMPDEST ADD MLOAD PUSH1 0x0 NOT PUSH1 0xF8 DUP5 PUSH1 0x3 SHL AND SHR NOT AND SWAP1 SSTORE DUP11 DUP1 DUP1 PUSH2 0x3D08 JUMP JUMPDEST SWAP2 SWAP3 PUSH1 0x20 PUSH1 0x1 DUP2 SWAP3 DUP7 DUP6 ADD MLOAD DUP2 SSTORE ADD SWAP5 ADD SWAP3 ADD PUSH2 0x3CE4 JUMP JUMPDEST PUSH2 0x3D72 SWAP1 DUP8 PUSH1 0x0 MSTORE PUSH1 0x20 PUSH1 0x0 KECCAK256 PUSH1 0x5 PUSH1 0x1F DUP7 ADD DUP2 SHR DUP3 ADD SWAP3 PUSH1 0x20 DUP8 LT PUSH2 0x1ADB JUMPI PUSH1 0x1F ADD SWAP1 SHR ADD SWAP1 PUSH2 0x4FE2 JUMP JUMPDEST DUP8 PUSH2 0x3C89 JUMP JUMPDEST PUSH1 0x3 DUP5 ADD PUSH1 0x0 MSTORE PUSH1 0x20 PUSH1 0x0 KECCAK256 SWAP1 DUP4 DUP3 ADD JUMPDEST DUP2 DUP4 ADD DUP2 LT PUSH2 0x3D99 JUMPI POP POP PUSH2 0x3057 JUMP JUMPDEST DUP1 PUSH2 0x3DA5 PUSH1 0x1 SWAP3 PUSH2 0x4FF9 JUMP JUMPDEST ADD PUSH2 0x3D89 JUMP JUMPDEST ADD MLOAD SWAP1 POP DUP4 DUP1 PUSH2 0x3016 JUMP JUMPDEST SWAP3 POP PUSH1 0x2 DUP5 ADD PUSH1 0x0 MSTORE PUSH1 0x20 PUSH1 0x0 KECCAK256 SWAP1 PUSH1 0x0 SWAP4 JUMPDEST PUSH1 0x1F NOT DUP5 AND DUP6 LT PUSH2 0x3E0D JUMPI PUSH1 0x1 SWAP5 POP DUP4 PUSH1 0x1F NOT DUP2 AND LT PUSH2 0x3DF4 JUMPI JUMPDEST POP POP POP DUP2 SHL ADD PUSH1 0x2 DUP3 ADD SSTORE PUSH2 0x302E JUMP JUMPDEST ADD MLOAD PUSH1 0x0 NOT PUSH1 0xF8 DUP5 PUSH1 0x3 SHL AND SHR NOT AND SWAP1 SSTORE DUP4 DUP1 DUP1 PUSH2 0x3DE4 JUMP JUMPDEST DUP2 DUP2 ADD MLOAD DUP4 SSTORE PUSH1 0x20 SWAP5 DUP6 ADD SWAP5 PUSH1 0x1 SWAP1 SWAP4 ADD SWAP3 SWAP1 SWAP2 ADD SWAP1 PUSH2 0x3DC9 JUMP JUMPDEST PUSH2 0x3E57 SWAP1 PUSH1 0x2 DUP7 ADD PUSH1 0x0 MSTORE PUSH1 0x20 PUSH1 0x0 KECCAK256 PUSH1 0x1F DUP6 ADD PUSH1 0x5 SHR DUP2 ADD SWAP2 PUSH1 0x20 DUP7 LT PUSH2 0x12CC JUMPI PUSH1 0x1F ADD PUSH1 0x5 SHR ADD SWAP1 PUSH2 0x4FE2 JUMP JUMPDEST DUP5 PUSH2 0x2FFF JUMP JUMPDEST PUSH1 0x40 MLOAD PUSH3 0x461BCD PUSH1 0xE5 SHL DUP2 MSTORE PUSH1 0x20 PUSH1 0x4 DUP3 ADD MSTORE PUSH1 0x1F PUSH1 0x24 DUP3 ADD MSTORE PUSH32 0x53656C6C65722077616C6C6574206D757374206D617463682073656E64657200 PUSH1 0x44 DUP3 ADD MSTORE PUSH1 0x64 SWAP1 REVERT JUMPDEST PUSH1 0x40 MLOAD PUSH3 0x461BCD PUSH1 0xE5 SHL DUP2 MSTORE PUSH1 0x20 PUSH1 0x4 DUP3 ADD MSTORE PUSH1 0x1B PUSH1 0x24 DUP3 ADD MSTORE PUSH32 0x43616E6E6F74206368616E67652073656C6C65722077616C6C65740000000000 PUSH1 0x44 DUP3 ADD MSTORE PUSH1 0x64 SWAP1 REVERT JUMPDEST PUSH1 0x40 MLOAD PUSH3 0x461BCD PUSH1 0xE5 SHL DUP2 MSTORE PUSH1 0x20 PUSH1 0x4 DUP3 ADD MSTORE PUSH1 0x15 PUSH1 0x24 DUP3 ADD MSTORE PUSH21 0x4D6F64656C2063616E6E6F7420626520656D707479 PUSH1 0x58 SHL PUSH1 0x44 DUP3 ADD MSTORE PUSH1 0x64 SWAP1 REVERT JUMPDEST PUSH1 0x40 MLOAD PUSH3 0x461BCD PUSH1 0xE5 SHL DUP2 MSTORE PUSH1 0x20 PUSH1 0x4 DUP3 ADD MSTORE PUSH1 0x14 PUSH1 0x24 DUP3 ADD MSTORE PUSH20 0x4D616B652063616E6E6F7420626520656D707479 PUSH1 0x60 SHL PUSH1 0x44 DUP3 ADD MSTORE PUSH1 0x64 SWAP1 REVERT JUMPDEST PUSH1 0x40 MLOAD PUSH3 0x461BCD PUSH1 0xE5 SHL DUP2 MSTORE PUSH1 0x20 PUSH1 0x4 DUP3 ADD MSTORE PUSH1 0x1E PUSH1 0x24 DUP3 ADD MSTORE PUSH32 0x4174206C65617374206F6E6520696D6167652069732072657175697265640000 PUSH1 0x44 DUP3 ADD MSTORE PUSH1 0x64 SWAP1 REVERT JUMPDEST PUSH1 0x40 MLOAD PUSH3 0x461BCD PUSH1 0xE5 SHL DUP2 MSTORE PUSH1 0x20 PUSH1 0x4 DUP3 ADD MSTORE PUSH1 0x14 PUSH1 0x24 DUP3 ADD MSTORE PUSH20 0x4E616D652063616E6E6F7420626520656D707479 PUSH1 0x60 SHL PUSH1 0x44 DUP3 ADD MSTORE PUSH1 0x64 SWAP1 REVERT JUMPDEST PUSH1 0x40 MLOAD PUSH3 0x461BCD PUSH1 0xE5 SHL DUP2 MSTORE PUSH1 0x20 PUSH1 0x4 DUP3 ADD MSTORE PUSH1 0x1C PUSH1 0x24 DUP3 ADD MSTORE PUSH32 0x5072696365206D7573742062652067726561746572207468616E203000000000 PUSH1 0x44 DUP3 ADD MSTORE PUSH1 0x64 SWAP1 REVERT JUMPDEST POP PUSH1 0x0 SLOAD PUSH1 0x1 PUSH1 0x1 PUSH1 0xA0 SHL SUB AND CALLER EQ PUSH2 0x2D97 JUMP JUMPDEST CALLVALUE PUSH2 0x20D JUMPI PUSH1 0x40 CALLDATASIZE PUSH1 0x3 NOT ADD SLT PUSH2 0x20D JUMPI PUSH2 0x4053 PUSH2 0x4323 JUMP JUMPDEST PUSH1 0x24 CALLDATALOAD SWAP1 PUSH1 0x1 PUSH1 0x1 PUSH1 0xA0 SHL SUB DUP1 DUP1 PUSH2 0x406A DUP6 PUSH2 0x497E JUMP JUMPDEST AND SWAP3 AND SWAP2 DUP1 DUP4 EQ PUSH2 0x4165 JUMPI DUP1 CALLER EQ SWAP1 DUP2 ISZERO PUSH2 0x4140 JUMPI JUMPDEST POP ISZERO PUSH2 0x40D5 JUMPI PUSH1 0x0 DUP4 DUP2 MSTORE PUSH1 0x6 PUSH1 0x20 MSTORE PUSH1 0x40 SWAP1 KECCAK256 DUP1 SLOAD PUSH1 0x1 PUSH1 0x1 PUSH1 0xA0 SHL SUB NOT AND DUP4 OR SWAP1 SSTORE PUSH2 0x40AD DUP4 PUSH2 0x497E JUMP JUMPDEST AND PUSH32 0x8C5BE1E5EBEC7D5BD14F71427D1E84F3DD0314C0F7B2291E5B200AC8C7C3B925 PUSH1 0x0 DUP1 LOG4 STOP JUMPDEST PUSH1 0x40 MLOAD PUSH3 0x461BCD PUSH1 0xE5 SHL DUP2 MSTORE PUSH1 0x20 PUSH1 0x4 DUP3 ADD MSTORE PUSH1 0x3D PUSH1 0x24 DUP3 ADD MSTORE PUSH32 0x4552433732313A20617070726F76652063616C6C6572206973206E6F7420746F PUSH1 0x44 DUP3 ADD MSTORE PUSH32 0x6B656E206F776E6572206F7220617070726F76656420666F7220616C6C000000 PUSH1 0x64 DUP3 ADD MSTORE PUSH1 0x84 SWAP1 REVERT JUMPDEST SWAP1 POP PUSH1 0x0 MSTORE PUSH1 0x7 PUSH1 0x20 MSTORE PUSH1 0x40 PUSH1 0x0 KECCAK256 CALLER PUSH1 0x0 MSTORE PUSH1 0x20 MSTORE PUSH1 0xFF PUSH1 0x40 PUSH1 0x0 KECCAK256 SLOAD AND DUP5 PUSH2 0x4080 JUMP JUMPDEST PUSH1 0x40 MLOAD PUSH3 0x461BCD PUSH1 0xE5 SHL DUP2 MSTORE PUSH1 0x20 PUSH1 0x4 DUP3 ADD MSTORE PUSH1 0x21 PUSH1 0x24 DUP3 ADD MSTORE PUSH32 0x4552433732313A20617070726F76616C20746F2063757272656E74206F776E65 PUSH1 0x44 DUP3 ADD MSTORE PUSH1 0x39 PUSH1 0xF9 SHL PUSH1 0x64 DUP3 ADD MSTORE PUSH1 0x84 SWAP1 REVERT JUMPDEST CALLVALUE PUSH2 0x20D JUMPI PUSH1 0x20 CALLDATASIZE PUSH1 0x3 NOT ADD SLT PUSH2 0x20D JUMPI PUSH1 0x20 PUSH2 0x20B1 PUSH1 0x4 CALLDATALOAD PUSH2 0x4A81 JUMP JUMPDEST CALLVALUE PUSH2 0x20D JUMPI PUSH1 0x0 CALLDATASIZE PUSH1 0x3 NOT ADD SLT PUSH2 0x20D JUMPI PUSH1 0x40 MLOAD PUSH1 0x0 PUSH1 0x2 SLOAD PUSH2 0x41F4 DUP2 PUSH2 0x49A1 JUMP JUMPDEST DUP1 DUP5 MSTORE SWAP1 PUSH1 0x1 SWAP1 DUP2 DUP2 AND SWAP1 DUP2 ISZERO PUSH2 0x768 JUMPI POP PUSH1 0x1 EQ PUSH2 0x421D JUMPI PUSH2 0x2D8 DUP5 PUSH2 0x6F9 DUP2 DUP7 SUB DUP3 PUSH2 0x43BC JUMP JUMPDEST PUSH1 0x2 PUSH1 0x0 SWAP1 DUP2 MSTORE SWAP3 POP PUSH32 0x405787FA12A823E0F2B7631CC41B3BA8828B3321CA811111FA75CD3AA3BB5ACE JUMPDEST DUP3 DUP5 LT PUSH2 0x4260 JUMPI POP POP POP DUP2 ADD PUSH1 0x20 ADD PUSH2 0x6F9 DUP3 PUSH2 0x6E9 JUMP JUMPDEST DUP1 SLOAD PUSH1 0x20 DUP6 DUP8 ADD DUP2 ADD SWAP2 SWAP1 SWAP2 MSTORE SWAP1 SWAP4 ADD SWAP3 DUP2 ADD PUSH2 0x4248 JUMP JUMPDEST CALLVALUE PUSH2 0x20D JUMPI PUSH1 0x20 CALLDATASIZE PUSH1 0x3 NOT ADD SLT PUSH2 0x20D JUMPI PUSH1 0x4 CALLDATALOAD SWAP1 PUSH4 0xFFFFFFFF PUSH1 0xE0 SHL DUP3 AND DUP1 SWAP3 SUB PUSH2 0x20D JUMPI PUSH1 0x20 SWAP2 PUSH4 0x80AC58CD PUSH1 0xE0 SHL DUP2 EQ SWAP1 DUP2 ISZERO PUSH2 0x42D2 JUMPI JUMPDEST DUP2 ISZERO PUSH2 0x42C1 JUMPI JUMPDEST POP ISZERO ISZERO DUP2 MSTORE RETURN JUMPDEST PUSH4 0x1FFC9A7 PUSH1 0xE0 SHL EQ SWAP1 POP DUP4 PUSH2 0x42BA JUMP JUMPDEST PUSH4 0x5B5E139F PUSH1 0xE0 SHL DUP2 EQ SWAP2 POP PUSH2 0x42B3 JUMP JUMPDEST SWAP2 SWAP1 DUP3 MLOAD SWAP3 DUP4 DUP3 MSTORE PUSH1 0x0 JUMPDEST DUP5 DUP2 LT PUSH2 0x430F JUMPI POP POP DUP3 PUSH1 0x0 PUSH1 0x20 DUP1 SWAP5 SWAP6 DUP5 ADD ADD MSTORE PUSH1 0x1F DUP1 NOT SWAP2 ADD AND ADD ADD SWAP1 JUMP JUMPDEST PUSH1 0x20 DUP2 DUP4 ADD DUP2 ADD MLOAD DUP5 DUP4 ADD DUP3 ADD MSTORE ADD PUSH2 0x42EE JUMP JUMPDEST PUSH1 0x4 CALLDATALOAD SWAP1 PUSH1 0x1 PUSH1 0x1 PUSH1 0xA0 SHL SUB DUP3 AND DUP3 SUB PUSH2 0x20D JUMPI JUMP JUMPDEST PUSH1 0x24 CALLDATALOAD SWAP1 PUSH1 0x1 PUSH1 0x1 PUSH1 0xA0 SHL SUB DUP3 AND DUP3 SUB PUSH2 0x20D JUMPI JUMP JUMPDEST PUSH2 0x2A0 DUP2 ADD SWAP1 DUP2 LT PUSH1 0x1 PUSH1 0x1 PUSH1 0x40 SHL SUB DUP3 GT OR PUSH2 0x12D6 JUMPI PUSH1 0x40 MSTORE JUMP JUMPDEST PUSH1 0x80 DUP2 ADD SWAP1 DUP2 LT PUSH1 0x1 PUSH1 0x1 PUSH1 0x40 SHL SUB DUP3 GT OR PUSH2 0x12D6 JUMPI PUSH1 0x40 MSTORE JUMP JUMPDEST PUSH1 0xA0 DUP2 ADD SWAP1 DUP2 LT PUSH1 0x1 PUSH1 0x1 PUSH1 0x40 SHL SUB DUP3 GT OR PUSH2 0x12D6 JUMPI PUSH1 0x40 MSTORE JUMP JUMPDEST PUSH1 0x20 DUP2 ADD SWAP1 DUP2 LT PUSH1 0x1 PUSH1 0x1 PUSH1 0x40 SHL SUB DUP3 GT OR PUSH2 0x12D6 JUMPI PUSH1 0x40 MSTORE JUMP JUMPDEST SWAP1 PUSH1 0x1F DUP1 NOT SWAP2 ADD AND DUP2 ADD SWAP1 DUP2 LT PUSH1 0x1 PUSH1 0x1 PUSH1 0x40 SHL SUB DUP3 GT OR PUSH2 0x12D6 JUMPI PUSH1 0x40 MSTORE JUMP JUMPDEST PUSH1 0x1 PUSH1 0x1 PUSH1 0x40 SHL SUB DUP2 GT PUSH2 0x12D6 JUMPI PUSH1 0x1F ADD PUSH1 0x1F NOT AND PUSH1 0x20 ADD SWAP1 JUMP JUMPDEST SWAP3 SWAP2 SWAP3 PUSH2 0x4404 DUP3 PUSH2 0x43DD JUMP JUMPDEST SWAP2 PUSH2 0x4412 PUSH1 0x40 MLOAD SWAP4 DUP5 PUSH2 0x43BC JUMP JUMPDEST DUP3 SWAP5 DUP2 DUP5 MSTORE DUP2 DUP4 ADD GT PUSH2 0x20D JUMPI DUP3 DUP2 PUSH1 0x20 SWAP4 DUP5 PUSH1 0x0 SWAP7 ADD CALLDATACOPY ADD ADD MSTORE JUMP JUMPDEST SWAP1 DUP1 PUSH1 0x1F DUP4 ADD SLT ISZERO PUSH2 0x20D JUMPI DUP2 PUSH1 0x20 PUSH2 0x444A SWAP4 CALLDATALOAD SWAP2 ADD PUSH2 0x43F8 JUMP JUMPDEST SWAP1 JUMP JUMPDEST PUSH1 0x1 PUSH1 0x1 PUSH1 0x40 SHL SUB DUP2 GT PUSH2 0x12D6 JUMPI PUSH1 0x5 SHL PUSH1 0x20 ADD SWAP1 JUMP JUMPDEST SWAP3 SWAP2 SWAP1 SWAP3 PUSH2 0x4471 DUP5 PUSH2 0x444D JUMP JUMPDEST SWAP2 PUSH2 0x447F PUSH1 0x40 MLOAD SWAP4 DUP5 PUSH2 0x43BC JUMP JUMPDEST DUP3 SWAP5 DUP1 DUP5 MSTORE PUSH1 0x20 DUP1 SWAP5 ADD SWAP1 PUSH1 0x5 SHL DUP4 ADD SWAP3 DUP3 DUP5 GT PUSH2 0x20D JUMPI DUP1 SWAP2 JUMPDEST DUP5 DUP4 LT PUSH2 0x44A9 JUMPI POP POP POP POP POP POP JUMP JUMPDEST DUP3 CALLDATALOAD PUSH1 0x1 PUSH1 0x1 PUSH1 0x40 SHL SUB DUP2 GT PUSH2 0x20D JUMPI DUP7 SWAP2 PUSH2 0x44C8 DUP7 DUP5 SWAP4 DUP7 ADD PUSH2 0x442F JUMP JUMPDEST DUP2 MSTORE ADD SWAP3 ADD SWAP2 PUSH2 0x449A JUMP JUMPDEST SWAP1 DUP1 PUSH1 0x1F DUP4 ADD SLT ISZERO PUSH2 0x20D JUMPI DUP2 PUSH1 0x20 PUSH2 0x444A SWAP4 CALLDATALOAD SWAP2 ADD PUSH2 0x4464 JUMP JUMPDEST SWAP2 SWAP1 PUSH1 0xA0 DUP4 DUP3 SUB SLT PUSH2 0x20D JUMPI PUSH1 0x40 MLOAD SWAP1 PUSH2 0x4507 DUP3 PUSH2 0x4386 JUMP JUMPDEST SWAP1 SWAP3 DUP4 SWAP2 SWAP1 DUP1 CALLDATALOAD PUSH1 0x1 PUSH1 0x1 PUSH1 0xA0 SHL SUB DUP2 AND DUP2 SUB PUSH2 0x20D JUMPI DUP4 MSTORE PUSH1 0x1 PUSH1 0x1 PUSH1 0x40 SHL SUB SWAP2 PUSH1 0x20 DUP3 ADD CALLDATALOAD DUP4 DUP2 GT PUSH2 0x20D JUMPI DUP2 PUSH2 0x4541 SWAP2 DUP5 ADD PUSH2 0x442F JUMP JUMPDEST PUSH1 0x20 DUP6 ADD MSTORE PUSH1 0x40 DUP3 ADD CALLDATALOAD DUP4 DUP2 GT PUSH2 0x20D JUMPI DUP2 PUSH2 0x455E SWAP2 DUP5 ADD PUSH2 0x442F JUMP JUMPDEST PUSH1 0x40 DUP6 ADD MSTORE PUSH1 0x60 DUP3 ADD CALLDATALOAD PUSH1 0x60 DUP6 ADD MSTORE PUSH1 0x80 DUP3 ADD CALLDATALOAD SWAP3 DUP4 GT PUSH2 0x20D JUMPI PUSH1 0x80 SWAP3 PUSH2 0x4586 SWAP3 ADD PUSH2 0x442F JUMP JUMPDEST SWAP2 ADD MSTORE JUMP JUMPDEST PUSH1 0x60 SWAP1 PUSH1 0x3 NOT ADD SLT PUSH2 0x20D JUMPI PUSH1 0x1 PUSH1 0x1 PUSH1 0xA0 SHL SUB SWAP1 PUSH1 0x4 CALLDATALOAD DUP3 DUP2 AND DUP2 SUB PUSH2 0x20D JUMPI SWAP2 PUSH1 0x24 CALLDATALOAD SWAP1 DUP2 AND DUP2 SUB PUSH2 0x20D JUMPI SWAP1 PUSH1 0x44 CALLDATALOAD SWAP1 JUMP JUMPDEST SWAP1 DUP1 DUP3 MLOAD SWAP1 DUP2 DUP2 MSTORE PUSH1 0x20 DUP1 SWAP2 ADD SWAP3 DUP2 DUP1 DUP5 PUSH1 0x5 SHL DUP4 ADD ADD SWAP6 ADD SWAP4 PUSH1 0x0 SWAP2 JUMPDEST DUP5 DUP4 LT PUSH2 0x45EE JUMPI POP POP POP POP POP POP SWAP1 JUMP JUMPDEST SWAP1 SWAP2 SWAP3 SWAP4 SWAP5 SWAP6 DUP5 DUP1 PUSH2 0x460C PUSH1 0x1 SWAP4 PUSH1 0x1F NOT DUP7 DUP3 SUB ADD DUP8 MSTORE DUP11 MLOAD PUSH2 0x42E3 JUMP JUMPDEST SWAP9 ADD SWAP4 ADD SWAP4 ADD SWAP2 SWAP5 SWAP4 SWAP3 SWAP1 PUSH2 0x45DE JUMP JUMPDEST SWAP1 DUP2 MLOAD DUP1 DUP3 MSTORE PUSH1 0x20 DUP1 SWAP3 ADD SWAP2 DUP3 DUP2 DUP4 PUSH1 0x5 SHL DUP3 ADD SWAP6 ADD SWAP4 PUSH1 0x0 SWAP2 JUMPDEST DUP5 DUP4 LT PUSH2 0x4647 JUMPI POP POP POP POP POP POP SWAP1 JUMP JUMPDEST SWAP1 SWAP2 SWAP3 SWAP4 SWAP5 SWAP6 DUP5 DUP1 DUP3 DUP5 PUSH1 0x1 SWAP5 SUB DUP7 MSTORE DUP10 MLOAD SWAP1 DUP2 MLOAD DUP2 MSTORE DUP5 DUP1 PUSH1 0xA0 SHL SUB DUP4 DUP4 ADD MLOAD AND DUP4 DUP3 ADD MSTORE PUSH2 0x4686 PUSH1 0x40 DUP1 DUP5 ADD MLOAD SWAP1 PUSH1 0xA0 DUP1 SWAP2 DUP6 ADD MSTORE DUP4 ADD SWAP1 PUSH2 0x42E3 JUMP JUMPDEST SWAP2 PUSH1 0x60 DUP1 DUP3 ADD MLOAD SWAP1 DUP4 ADD MSTORE PUSH1 0x80 DUP1 SWAP2 ADD MLOAD ISZERO ISZERO SWAP2 ADD MSTORE SWAP9 ADD SWAP4 ADD SWAP4 ADD SWAP2 SWAP5 SWAP4 SWAP3 SWAP1 PUSH2 0x4637 JUMP JUMPDEST SWAP1 DUP2 MLOAD DUP2 MSTORE PUSH1 0x1 DUP1 PUSH1 0xA0 SHL SUB DUP1 PUSH1 0x20 DUP5 ADD MLOAD AND PUSH1 0x20 DUP4 ADD MSTORE PUSH2 0x4768 PUSH2 0x4734 PUSH2 0x4722 PUSH2 0x4710 PUSH2 0x46FE PUSH2 0x46EC PUSH1 0x40 DUP10 ADD MLOAD PUSH2 0x2A0 DUP1 PUSH1 0x40 DUP12 ADD MSTORE DUP10 ADD SWAP1 PUSH2 0x42E3 JUMP JUMPDEST PUSH1 0x60 DUP10 ADD MLOAD DUP9 DUP3 SUB PUSH1 0x60 DUP11 ADD MSTORE PUSH2 0x45C0 JUMP JUMPDEST PUSH1 0x80 DUP9 ADD MLOAD DUP8 DUP3 SUB PUSH1 0x80 DUP10 ADD MSTORE PUSH2 0x42E3 JUMP JUMPDEST PUSH1 0xA0 DUP8 ADD MLOAD DUP7 DUP3 SUB PUSH1 0xA0 DUP9 ADD MSTORE PUSH2 0x42E3 JUMP JUMPDEST PUSH1 0xC0 DUP7 ADD MLOAD DUP6 DUP3 SUB PUSH1 0xC0 DUP8 ADD MSTORE PUSH2 0x42E3 JUMP JUMPDEST PUSH1 0xE0 DUP6 ADD MLOAD PUSH1 0xE0 DUP6 ADD MSTORE PUSH2 0x100 DUP1 DUP7 ADD MLOAD SWAP1 DUP6 ADD MSTORE PUSH2 0x120 DUP1 DUP7 ADD MLOAD SWAP1 DUP6 ADD MSTORE PUSH2 0x140 DUP1 DUP7 ADD MLOAD SWAP1 DUP6 DUP4 SUB SWAP1 DUP7 ADD MSTORE PUSH2 0x42E3 JUMP JUMPDEST SWAP1 PUSH2 0x160 DUP1 DUP6 ADD MLOAD SWAP1 PUSH1 0x3 DUP3 LT ISZERO PUSH2 0x16E7 JUMPI DUP5 ADD MSTORE PUSH2 0x180 DUP1 DUP6 ADD MLOAD SWAP1 PUSH1 0x2 DUP3 LT ISZERO PUSH2 0x16E7 JUMPI DUP5 ADD MSTORE PUSH2 0x1A0 SWAP2 DUP3 DUP6 ADD MLOAD PUSH1 0x4 DUP2 LT ISZERO PUSH2 0x16E7 JUMPI PUSH2 0x47D3 PUSH2 0x47FB SWAP3 PUSH2 0x47E7 SWAP3 PUSH2 0x485B SWAP7 DUP9 ADD MSTORE PUSH2 0x1C0 DUP1 DUP10 ADD MLOAD SWAP1 DUP9 ADD MSTORE PUSH2 0x1E0 DUP1 DUP10 ADD MLOAD SWAP1 DUP9 DUP4 SUB SWAP1 DUP10 ADD MSTORE PUSH2 0x42E3 JUMP JUMPDEST PUSH2 0x200 DUP1 DUP9 ADD MLOAD SWAP1 DUP8 DUP4 SUB SWAP1 DUP9 ADD MSTORE PUSH2 0x45C0 JUMP JUMPDEST PUSH2 0x220 DUP1 DUP8 ADD MLOAD SWAP1 DUP7 DUP4 SUB SWAP1 DUP8 ADD MSTORE PUSH2 0x461C JUMP JUMPDEST PUSH2 0x240 SWAP2 DUP3 DUP7 ADD MLOAD SWAP3 DUP6 DUP4 SUB SWAP1 DUP7 ADD MSTORE DUP3 MLOAD AND DUP2 MSTORE PUSH1 0x80 PUSH2 0x4840 PUSH2 0x482E PUSH1 0x20 DUP6 ADD MLOAD PUSH1 0xA0 PUSH1 0x20 DUP7 ADD MSTORE PUSH1 0xA0 DUP6 ADD SWAP1 PUSH2 0x42E3 JUMP JUMPDEST PUSH1 0x40 DUP6 ADD MLOAD DUP5 DUP3 SUB PUSH1 0x40 DUP7 ADD MSTORE PUSH2 0x42E3 JUMP JUMPDEST SWAP3 PUSH1 0x60 DUP2 ADD MLOAD PUSH1 0x60 DUP5 ADD MSTORE ADD MLOAD SWAP1 PUSH1 0x80 DUP2 DUP5 SUB SWAP2 ADD MSTORE PUSH2 0x42E3 JUMP JUMPDEST SWAP2 PUSH2 0x260 DUP1 DUP3 ADD MLOAD ISZERO ISZERO SWAP1 DUP4 ADD MSTORE PUSH2 0x280 DUP1 SWAP2 ADD MLOAD ISZERO ISZERO SWAP2 ADD MSTORE SWAP1 JUMP JUMPDEST PUSH1 0x20 DUP1 DUP3 ADD SWAP1 DUP1 DUP4 MSTORE DUP4 MLOAD DUP1 SWAP3 MSTORE PUSH1 0x40 DUP4 ADD SWAP3 DUP2 PUSH1 0x40 DUP5 PUSH1 0x5 SHL DUP4 ADD ADD SWAP6 ADD SWAP4 PUSH1 0x0 SWAP2 JUMPDEST DUP5 DUP4 LT PUSH2 0x48AC JUMPI POP POP POP POP POP POP SWAP1 JUMP JUMPDEST SWAP1 SWAP2 SWAP3 SWAP4 SWAP5 SWAP6 DUP5 DUP1 PUSH2 0x48CA PUSH1 0x1 SWAP4 PUSH1 0x3F NOT DUP7 DUP3 SUB ADD DUP8 MSTORE DUP11 MLOAD PUSH2 0x46AC JUMP JUMPDEST SWAP9 ADD SWAP4 ADD SWAP4 ADD SWAP2 SWAP5 SWAP4 SWAP3 SWAP1 PUSH2 0x489C JUMP JUMPDEST PUSH1 0x0 SLOAD PUSH1 0x1 PUSH1 0x1 PUSH1 0xA0 SHL SUB AND CALLER SUB PUSH2 0x48EE JUMPI JUMP JUMPDEST PUSH1 0x64 PUSH1 0x40 MLOAD PUSH3 0x461BCD PUSH1 0xE5 SHL DUP2 MSTORE PUSH1 0x20 PUSH1 0x4 DUP3 ADD MSTORE PUSH1 0x20 PUSH1 0x24 DUP3 ADD MSTORE PUSH32 0x4F776E61626C653A2063616C6C6572206973206E6F7420746865206F776E6572 PUSH1 0x44 DUP3 ADD MSTORE REVERT JUMPDEST ISZERO PUSH2 0x4939 JUMPI JUMP JUMPDEST PUSH1 0x40 MLOAD PUSH3 0x461BCD PUSH1 0xE5 SHL DUP2 MSTORE PUSH1 0x20 PUSH1 0x4 DUP3 ADD MSTORE PUSH1 0x18 PUSH1 0x24 DUP3 ADD MSTORE PUSH32 0x4552433732313A20696E76616C696420746F6B656E2049440000000000000000 PUSH1 0x44 DUP3 ADD MSTORE PUSH1 0x64 SWAP1 REVERT JUMPDEST PUSH1 0x0 SWAP1 DUP2 MSTORE PUSH1 0x4 PUSH1 0x20 MSTORE PUSH1 0x40 SWAP1 KECCAK256 SLOAD PUSH1 0x1 PUSH1 0x1 PUSH1 0xA0 SHL SUB AND PUSH2 0x444A DUP2 ISZERO ISZERO PUSH2 0x4932 JUMP JUMPDEST SWAP1 PUSH1 0x1 DUP3 DUP2 SHR SWAP3 AND DUP1 ISZERO PUSH2 0x49D1 JUMPI JUMPDEST PUSH1 0x20 DUP4 LT EQ PUSH2 0x49BB JUMPI JUMP JUMPDEST PUSH4 0x4E487B71 PUSH1 0xE0 SHL PUSH1 0x0 MSTORE PUSH1 0x22 PUSH1 0x4 MSTORE PUSH1 0x24 PUSH1 0x0 REVERT JUMPDEST SWAP2 PUSH1 0x7F AND SWAP2 PUSH2 0x49B0 JUMP JUMPDEST SWAP1 PUSH1 0x40 MLOAD SWAP2 DUP3 PUSH1 0x0 DUP3 SLOAD SWAP3 PUSH2 0x49EF DUP5 PUSH2 0x49A1 JUMP JUMPDEST SWAP1 DUP2 DUP5 MSTORE PUSH1 0x1 SWAP5 DUP6 DUP2 AND SWAP1 DUP2 PUSH1 0x0 EQ PUSH2 0x4A5E JUMPI POP PUSH1 0x1 EQ PUSH2 0x4A1B JUMPI JUMPDEST POP POP PUSH2 0x4A19 SWAP3 POP SUB DUP4 PUSH2 0x43BC JUMP JUMPDEST JUMP JUMPDEST SWAP1 SWAP4 SWAP2 POP PUSH1 0x0 MSTORE PUSH1 0x20 SWAP1 DUP2 PUSH1 0x0 KECCAK256 SWAP4 PUSH1 0x0 SWAP2 JUMPDEST DUP2 DUP4 LT PUSH2 0x4A46 JUMPI POP POP PUSH2 0x4A19 SWAP4 POP DUP3 ADD ADD CODESIZE DUP1 PUSH2 0x4A0B JUMP JUMPDEST DUP6 SLOAD DUP9 DUP5 ADD DUP6 ADD MSTORE SWAP5 DUP6 ADD SWAP5 DUP8 SWAP5 POP SWAP2 DUP4 ADD SWAP2 PUSH2 0x4A2E JUMP JUMPDEST SWAP2 POP POP PUSH2 0x4A19 SWAP5 POP PUSH1 0x20 SWAP3 POP PUSH1 0xFF NOT AND DUP3 DUP5 ADD MSTORE ISZERO ISZERO PUSH1 0x5 SHL DUP3 ADD ADD CODESIZE DUP1 PUSH2 0x4A0B JUMP JUMPDEST PUSH1 0x0 DUP2 DUP2 MSTORE PUSH1 0x4 PUSH1 0x20 MSTORE PUSH1 0x40 SWAP1 KECCAK256 SLOAD PUSH2 0x4AA4 SWAP1 PUSH1 0x1 PUSH1 0x1 PUSH1 0xA0 SHL SUB AND ISZERO ISZERO PUSH2 0x4932 JUMP JUMPDEST PUSH1 0x0 SWAP1 DUP2 MSTORE PUSH1 0x6 PUSH1 0x20 MSTORE PUSH1 0x40 SWAP1 KECCAK256 SLOAD PUSH1 0x1 PUSH1 0x1 PUSH1 0xA0 SHL SUB AND SWAP1 JUMP JUMPDEST ISZERO PUSH2 0x4AC6 JUMPI JUMP JUMPDEST PUSH1 0x40 MLOAD PUSH3 0x461BCD PUSH1 0xE5 SHL DUP2 MSTORE PUSH1 0x20 PUSH1 0x4 DUP3 ADD MSTORE PUSH1 0x2D PUSH1 0x24 DUP3 ADD MSTORE PUSH32 0x4552433732313A2063616C6C6572206973206E6F7420746F6B656E206F776E65 PUSH1 0x44 DUP3 ADD MSTORE PUSH13 0x1C881BDC88185C1C1C9BDD9959 PUSH1 0x9A SHL PUSH1 0x64 DUP3 ADD MSTORE PUSH1 0x84 SWAP1 REVERT JUMPDEST PUSH1 0x80 SWAP1 PUSH1 0x20 DUP2 MSTORE PUSH1 0x32 PUSH1 0x20 DUP3 ADD MSTORE PUSH32 0x4552433732313A207472616E7366657220746F206E6F6E204552433732315265 PUSH1 0x40 DUP3 ADD MSTORE PUSH18 0x31B2B4BB32B91034B6B83632B6B2B73A32B9 PUSH1 0x71 SHL PUSH1 0x60 DUP3 ADD MSTORE ADD SWAP1 JUMP JUMPDEST ISZERO PUSH2 0x4B7B JUMPI JUMP JUMPDEST PUSH1 0x40 MLOAD PUSH3 0x461BCD PUSH1 0xE5 SHL DUP2 MSTORE DUP1 PUSH2 0x4B94 PUSH1 0x4 DUP3 ADD PUSH2 0x4B21 JUMP JUMPDEST SUB SWAP1 REVERT JUMPDEST SWAP1 PUSH1 0x1 PUSH1 0x1 PUSH1 0xA0 SHL SUB DUP1 DUP1 PUSH2 0x4BAC DUP5 PUSH2 0x497E JUMP JUMPDEST AND SWAP4 AND SWAP2 DUP4 DUP4 EQ SWAP4 DUP5 ISZERO PUSH2 0x4BDF JUMPI JUMPDEST POP DUP4 ISZERO PUSH2 0x4BC9 JUMPI JUMPDEST POP POP POP SWAP1 JUMP JUMPDEST PUSH2 0x4BD5 SWAP2 SWAP3 SWAP4 POP PUSH2 0x4A81 JUMP JUMPDEST AND EQ CODESIZE DUP1 DUP1 PUSH2 0x4BC3 JUMP JUMPDEST SWAP1 SWAP4 POP PUSH1 0x0 MSTORE PUSH1 0x7 PUSH1 0x20 MSTORE PUSH1 0x40 PUSH1 0x0 KECCAK256 DUP3 PUSH1 0x0 MSTORE PUSH1 0x20 MSTORE PUSH1 0xFF PUSH1 0x40 PUSH1 0x0 KECCAK256 SLOAD AND SWAP3 CODESIZE PUSH2 0x4BBB JUMP JUMPDEST ISZERO PUSH2 0x4C0D JUMPI JUMP JUMPDEST PUSH1 0x40 MLOAD PUSH3 0x461BCD PUSH1 0xE5 SHL DUP2 MSTORE PUSH1 0x20 PUSH1 0x4 DUP3 ADD MSTORE PUSH1 0x25 PUSH1 0x24 DUP3 ADD MSTORE PUSH32 0x4552433732313A207472616E736665722066726F6D20696E636F727265637420 PUSH1 0x44 DUP3 ADD MSTORE PUSH5 0x37BBB732B9 PUSH1 0xD9 SHL PUSH1 0x64 DUP3 ADD MSTORE PUSH1 0x84 SWAP1 REVERT JUMPDEST SWAP1 PUSH2 0x4C88 SWAP2 PUSH2 0x4C6E DUP5 PUSH2 0x497E JUMP JUMPDEST PUSH1 0x1 PUSH1 0x1 PUSH1 0xA0 SHL SUB SWAP4 SWAP2 DUP5 AND SWAP3 DUP5 SWAP3 SWAP1 SWAP2 DUP4 AND DUP5 EQ PUSH2 0x4C06 JUMP JUMPDEST AND SWAP2 DUP3 ISZERO PUSH2 0x4D20 JUMPI DUP2 PUSH2 0x4CA5 SWAP2 PUSH2 0x4C9E DUP7 PUSH2 0x497E JUMP JUMPDEST AND EQ PUSH2 0x4C06 JUMP JUMPDEST PUSH32 0xDDF252AD1BE2C89B69C2B068FC378DAA952BA7F163C4A11628F55A4DF523B3EF PUSH1 0x0 DUP5 DUP2 MSTORE PUSH1 0x6 PUSH1 0x20 MSTORE PUSH1 0x40 DUP2 KECCAK256 PUSH1 0x1 PUSH1 0x1 PUSH1 0x60 SHL SUB PUSH1 0xA0 SHL SWAP1 DUP2 DUP2 SLOAD AND SWAP1 SSTORE DUP4 DUP3 MSTORE PUSH1 0x5 PUSH1 0x20 MSTORE PUSH1 0x40 DUP3 KECCAK256 PUSH1 0x0 NOT DUP2 SLOAD ADD SWAP1 SSTORE DUP5 DUP3 MSTORE PUSH1 0x40 DUP3 KECCAK256 PUSH1 0x1 DUP2 SLOAD ADD SWAP1 SSTORE DUP6 DUP3 MSTORE PUSH1 0x4 PUSH1 0x20 MSTORE DUP5 PUSH1 0x40 DUP4 KECCAK256 SWAP2 DUP3 SLOAD AND OR SWAP1 SSTORE DUP1 LOG4 JUMP JUMPDEST PUSH1 0x40 MLOAD PUSH3 0x461BCD PUSH1 0xE5 SHL DUP2 MSTORE PUSH1 0x20 PUSH1 0x4 DUP3 ADD MSTORE PUSH1 0x24 DUP1 DUP3 ADD MSTORE PUSH32 0x4552433732313A207472616E7366657220746F20746865207A65726F20616464 PUSH1 0x44 DUP3 ADD MSTORE PUSH4 0x72657373 PUSH1 0xE0 SHL PUSH1 0x64 DUP3 ADD MSTORE PUSH1 0x84 SWAP1 REVERT JUMPDEST RETURNDATASIZE ISZERO PUSH2 0x4D9C JUMPI RETURNDATASIZE SWAP1 PUSH2 0x4D82 DUP3 PUSH2 0x43DD JUMP JUMPDEST SWAP2 PUSH2 0x4D90 PUSH1 0x40 MLOAD SWAP4 DUP5 PUSH2 0x43BC JUMP JUMPDEST DUP3 MSTORE RETURNDATASIZE PUSH1 0x0 PUSH1 0x20 DUP5 ADD RETURNDATACOPY JUMP JUMPDEST PUSH1 0x60 SWAP1 JUMP JUMPDEST SWAP1 SWAP2 PUSH1 0x0 SWAP2 DUP1 EXTCODESIZE ISZERO PUSH2 0x4E93 JUMPI PUSH2 0x4DEC PUSH1 0x20 SWAP2 DUP5 SWAP4 PUSH1 0x40 MLOAD SWAP5 DUP6 DUP1 SWAP5 DUP2 SWAP4 PUSH4 0xA85BD01 PUSH1 0xE1 SHL SWAP11 DUP12 DUP5 MSTORE CALLER PUSH1 0x4 DUP6 ADD MSTORE DUP5 PUSH1 0x24 DUP6 ADD MSTORE PUSH1 0x44 DUP5 ADD MSTORE PUSH1 0x80 PUSH1 0x64 DUP5 ADD MSTORE PUSH1 0x84 DUP4 ADD SWAP1 PUSH2 0x42E3 JUMP JUMPDEST SUB SWAP3 PUSH1 0x1 PUSH1 0x1 PUSH1 0xA0 SHL SUB AND GAS CALL SWAP1 DUP3 SWAP1 DUP3 PUSH2 0x4E44 JUMPI JUMPDEST POP POP PUSH2 0x4E36 JUMPI PUSH2 0x4E10 PUSH2 0x4D71 JUMP JUMPDEST DUP1 MLOAD SWAP1 DUP2 PUSH2 0x4E31 JUMPI PUSH1 0x40 MLOAD PUSH3 0x461BCD PUSH1 0xE5 SHL DUP2 MSTORE DUP1 PUSH2 0x4B94 PUSH1 0x4 DUP3 ADD PUSH2 0x4B21 JUMP JUMPDEST PUSH1 0x20 ADD REVERT JUMPDEST PUSH1 0x1 PUSH1 0x1 PUSH1 0xE0 SHL SUB NOT AND EQ SWAP1 JUMP JUMPDEST SWAP1 SWAP2 SWAP3 POP PUSH1 0x20 DUP2 RETURNDATASIZE DUP3 GT PUSH2 0x4E8B JUMPI JUMPDEST DUP2 PUSH2 0x4E60 PUSH1 0x20 SWAP4 DUP4 PUSH2 0x43BC JUMP JUMPDEST DUP2 ADD SUB SLT PUSH2 0x4E87 JUMPI MLOAD SWAP1 PUSH1 0x1 PUSH1 0x1 PUSH1 0xE0 SHL SUB NOT DUP3 AND DUP3 SUB PUSH2 0x4E84 JUMPI POP SWAP1 CODESIZE DUP1 PUSH2 0x4E02 JUMP JUMPDEST DUP1 REVERT JUMPDEST POP DUP1 REVERT JUMPDEST RETURNDATASIZE SWAP2 POP PUSH2 0x4E53 JUMP JUMPDEST POP POP POP POP PUSH1 0x1 SWAP1 JUMP JUMPDEST SWAP2 SWAP3 PUSH1 0x0 SWAP3 SWAP2 SWAP1 DUP2 EXTCODESIZE ISZERO PUSH2 0x4F0D JUMPI PUSH1 0x20 SWAP2 PUSH2 0x4EF2 SWAP2 DUP6 PUSH1 0x40 MLOAD SWAP6 DUP7 DUP1 SWAP6 DUP2 SWAP5 PUSH4 0xA85BD01 PUSH1 0xE1 SHL SWAP12 DUP13 DUP5 MSTORE CALLER PUSH1 0x4 DUP6 ADD MSTORE PUSH1 0x1 DUP1 PUSH1 0xA0 SHL SUB DUP1 SWAP6 AND PUSH1 0x24 DUP6 ADD MSTORE PUSH1 0x44 DUP5 ADD MSTORE PUSH1 0x80 PUSH1 0x64 DUP5 ADD MSTORE PUSH1 0x84 DUP4 ADD SWAP1 PUSH2 0x42E3 JUMP JUMPDEST SUB SWAP4 AND GAS CALL SWAP1 DUP3 SWAP1 DUP3 PUSH2 0x4E44 JUMPI POP POP PUSH2 0x4E36 JUMPI PUSH2 0x4E10 PUSH2 0x4D71 JUMP JUMPDEST POP POP POP POP POP PUSH1 0x1 SWAP1 JUMP JUMPDEST CALLDATALOAD PUSH1 0x1 PUSH1 0x1 PUSH1 0xA0 SHL SUB DUP2 AND DUP2 SUB PUSH2 0x20D JUMPI SWAP1 JUMP JUMPDEST SWAP1 CALLDATALOAD SWAP1 PUSH1 0x1E NOT DUP2 CALLDATASIZE SUB ADD DUP3 SLT ISZERO PUSH2 0x20D JUMPI ADD DUP1 CALLDATALOAD SWAP1 PUSH1 0x1 PUSH1 0x1 PUSH1 0x40 SHL SUB DUP3 GT PUSH2 0x20D JUMPI PUSH1 0x20 ADD SWAP2 DUP2 PUSH1 0x5 SHL CALLDATASIZE SUB DUP4 SGT PUSH2 0x20D JUMPI JUMP JUMPDEST SWAP1 CALLDATALOAD SWAP1 PUSH1 0x1E NOT DUP2 CALLDATASIZE SUB ADD DUP3 SLT ISZERO PUSH2 0x20D JUMPI ADD DUP1 CALLDATALOAD SWAP1 PUSH1 0x1 PUSH1 0x1 PUSH1 0x40 SHL SUB DUP3 GT PUSH2 0x20D JUMPI PUSH1 0x20 ADD SWAP2 DUP2 CALLDATASIZE SUB DUP4 SGT PUSH2 0x20D JUMPI JUMP JUMPDEST PUSH1 0x40 MLOAD SWAP1 PUSH2 0x4F9F DUP3 PUSH2 0x4386 JUMP JUMPDEST PUSH1 0x0 PUSH1 0x80 DUP4 DUP3 DUP2 MSTORE DUP3 PUSH1 0x20 DUP3 ADD MSTORE PUSH1 0x60 PUSH1 0x40 DUP3 ADD MSTORE DUP3 PUSH1 0x60 DUP3 ADD MSTORE ADD MSTORE JUMP JUMPDEST PUSH1 0x3 DUP3 LT ISZERO PUSH2 0x16E7 JUMPI MSTORE JUMP JUMPDEST PUSH1 0x2 DUP3 LT ISZERO PUSH2 0x16E7 JUMPI MSTORE JUMP JUMPDEST PUSH1 0x4 DUP3 LT ISZERO PUSH2 0x16E7 JUMPI MSTORE JUMP JUMPDEST DUP2 DUP2 LT PUSH2 0x4FED JUMPI POP POP JUMP JUMPDEST PUSH1 0x0 DUP2 SSTORE PUSH1 0x1 ADD PUSH2 0x4FE2 JUMP JUMPDEST PUSH2 0x5003 DUP2 SLOAD PUSH2 0x49A1 JUMP JUMPDEST SWAP1 DUP2 PUSH2 0x500D JUMPI POP POP JUMP JUMPDEST DUP2 PUSH1 0x1F PUSH1 0x0 SWAP4 GT PUSH1 0x1 EQ PUSH2 0x501F JUMPI POP SSTORE JUMP JUMPDEST SWAP1 DUP1 DUP4 SWAP2 DUP3 MSTORE PUSH2 0x503E PUSH1 0x1F PUSH1 0x20 DUP5 KECCAK256 SWAP5 ADD PUSH1 0x5 SHR DUP5 ADD PUSH1 0x1 DUP6 ADD PUSH2 0x4FE2 JUMP JUMPDEST SSTORE SSTORE JUMP JUMPDEST DUP2 MLOAD DUP2 SSTORE PUSH1 0x1 SWAP2 DUP3 DUP3 ADD PUSH1 0x20 SWAP1 PUSH1 0x1 DUP1 PUSH1 0xA0 SHL SUB DUP3 DUP5 ADD MLOAD AND PUSH1 0x1 PUSH1 0x1 PUSH1 0x60 SHL SUB PUSH1 0xA0 SHL DUP3 SLOAD AND OR SWAP1 SSTORE PUSH1 0x2 DUP4 ADD SWAP1 PUSH1 0x40 DUP4 ADD MLOAD SWAP5 DUP6 MLOAD SWAP2 PUSH1 0x1 PUSH1 0x1 PUSH1 0x40 SHL SUB DUP4 GT PUSH2 0x12D6 JUMPI PUSH2 0x5092 DUP5 SLOAD PUSH2 0x49A1 JUMP JUMPDEST PUSH1 0x1F DUP2 GT PUSH2 0x5172 JUMPI JUMPDEST POP DUP1 PUSH1 0x1F DUP5 GT PUSH1 0x1 EQ PUSH2 0x50FE JUMPI POP SWAP2 DUP1 DUP1 PUSH1 0x80 SWAP6 SWAP4 PUSH1 0x4 SWAP8 SWAP6 PUSH2 0x4A19 SWAP11 PUSH1 0x0 SWAP5 PUSH2 0x50F3 JUMPI JUMPDEST POP POP SHL SWAP2 PUSH1 0x0 NOT SWAP1 PUSH1 0x3 SHL SHR NOT AND OR SWAP1 SSTORE JUMPDEST PUSH1 0x60 DUP2 ADD MLOAD PUSH1 0x3 DUP6 ADD SSTORE ADD MLOAD ISZERO ISZERO SWAP2 ADD SWAP1 PUSH1 0xFF DUP1 NOT DUP4 SLOAD AND SWAP2 ISZERO ISZERO AND OR SWAP1 SSTORE JUMP JUMPDEST ADD MLOAD SWAP3 POP CODESIZE DUP1 PUSH2 0x50C0 JUMP JUMPDEST SWAP2 SWAP4 SWAP5 SWAP6 SWAP7 PUSH1 0x1F NOT DUP5 AND DUP7 PUSH1 0x0 MSTORE DUP4 PUSH1 0x0 KECCAK256 SWAP4 PUSH1 0x0 SWAP1 JUMPDEST DUP3 DUP3 LT PUSH2 0x515B JUMPI POP POP SWAP3 PUSH1 0x80 SWAP6 SWAP3 DUP6 SWAP3 PUSH2 0x4A19 SWAP11 SWAP10 SWAP7 PUSH1 0x4 SWAP10 SWAP7 LT PUSH2 0x5142 JUMPI JUMPDEST POP POP POP DUP2 SHL ADD SWAP1 SSTORE PUSH2 0x50D2 JUMP JUMPDEST ADD MLOAD PUSH1 0x0 NOT PUSH1 0xF8 DUP5 PUSH1 0x3 SHL AND SHR NOT AND SWAP1 SSTORE CODESIZE DUP1 DUP1 PUSH2 0x5135 JUMP JUMPDEST DUP1 DUP9 DUP7 SWAP8 DUP3 SWAP5 SWAP8 DUP8 ADD MLOAD DUP2 SSTORE ADD SWAP7 ADD SWAP5 ADD SWAP1 PUSH2 0x5115 JUMP JUMPDEST PUSH2 0x519C SWAP1 DUP6 PUSH1 0x0 MSTORE DUP3 PUSH1 0x0 KECCAK256 PUSH1 0x1F DUP7 ADD PUSH1 0x5 SHR DUP2 ADD SWAP2 DUP5 DUP8 LT PUSH2 0x12CC JUMPI PUSH1 0x1F ADD PUSH1 0x5 SHR ADD SWAP1 PUSH2 0x4FE2 JUMP JUMPDEST CODESIZE PUSH2 0x509B JUMP JUMPDEST PUSH1 0x2 PUSH1 0x1 SLOAD EQ PUSH2 0x51B3 JUMPI PUSH1 0x2 PUSH1 0x1 SSTORE JUMP JUMPDEST PUSH1 0x40 MLOAD PUSH3 0x461BCD PUSH1 0xE5 SHL DUP2 MSTORE PUSH1 0x20 PUSH1 0x4 DUP3 ADD MSTORE PUSH1 0x1F PUSH1 0x24 DUP3 ADD MSTORE PUSH32 0x5265656E7472616E637947756172643A207265656E7472616E742063616C6C00 PUSH1 0x44 DUP3 ADD MSTORE PUSH1 0x64 SWAP1 REVERT JUMPDEST ISZERO PUSH2 0x51FF JUMPI JUMP JUMPDEST PUSH1 0x40 MLOAD PUSH3 0x461BCD PUSH1 0xE5 SHL DUP2 MSTORE PUSH1 0x20 PUSH1 0x4 DUP3 ADD MSTORE PUSH1 0x1C PUSH1 0x24 DUP3 ADD MSTORE PUSH32 0x4552433732313A20746F6B656E20616C7265616479206D696E74656400000000 PUSH1 0x44 DUP3 ADD MSTORE PUSH1 0x64 SWAP1 REVERT JUMPDEST ISZERO PUSH2 0x524B JUMPI JUMP JUMPDEST PUSH1 0x40 MLOAD PUSH3 0x461BCD PUSH1 0xE5 SHL DUP2 MSTORE PUSH1 0x20 PUSH1 0x4 DUP3 ADD MSTORE PUSH1 0xC PUSH1 0x24 DUP3 ADD MSTORE PUSH12 0x155B985D5D1A1BDC9A5E9959 PUSH1 0xA2 SHL PUSH1 0x44 DUP3 ADD MSTORE PUSH1 0x64 SWAP1 REVERT JUMPDEST SWAP1 PUSH1 0x40 MLOAD PUSH2 0x528C DUP2 PUSH2 0x4386 JUMP JUMPDEST PUSH1 0x80 PUSH1 0xFF PUSH1 0x4 DUP4 SWAP6 DUP1 SLOAD DUP6 MSTORE PUSH1 0x1 DUP1 PUSH1 0xA0 SHL SUB PUSH1 0x1 DUP3 ADD SLOAD AND PUSH1 0x20 DUP7 ADD MSTORE PUSH2 0x52B6 PUSH1 0x2 DUP3 ADD PUSH2 0x49DB JUMP JUMPDEST PUSH1 0x40 DUP7 ADD MSTORE PUSH1 0x3 DUP2 ADD SLOAD PUSH1 0x60 DUP7 ADD MSTORE ADD SLOAD AND ISZERO ISZERO SWAP2 ADD MSTORE JUMP JUMPDEST SWAP1 DUP2 SLOAD PUSH2 0x52DB DUP2 PUSH2 0x444D JUMP JUMPDEST SWAP3 PUSH2 0x52E9 PUSH1 0x40 MLOAD SWAP5 DUP6 PUSH2 0x43BC JUMP JUMPDEST DUP2 DUP5 MSTORE PUSH1 0x0 SWAP1 DUP2 MSTORE PUSH1 0x20 DUP1 DUP3 KECCAK256 DUP2 DUP7 ADD JUMPDEST DUP5 DUP5 LT PUSH2 0x5308 JUMPI POP POP POP POP POP JUMP JUMPDEST PUSH1 0x5 DUP4 PUSH1 0x1 SWAP3 PUSH2 0x5317 DUP6 PUSH2 0x527F JUMP JUMPDEST DUP2 MSTORE ADD SWAP3 ADD SWAP4 ADD SWAP3 SWAP1 PUSH2 0x52FA JUMP JUMPDEST PUSH1 0x40 MLOAD SWAP1 PUSH2 0x5332 DUP3 PUSH2 0x434F JUMP JUMPDEST DUP2 PUSH2 0x280 PUSH1 0x0 SWAP2 DUP3 DUP2 MSTORE DUP3 PUSH1 0x20 DUP3 ADD MSTORE PUSH1 0x60 DUP1 PUSH1 0x40 DUP4 ADD MSTORE DUP1 DUP1 DUP4 ADD MSTORE DUP1 PUSH1 0x80 DUP4 ADD MSTORE DUP1 PUSH1 0xA0 DUP4 ADD MSTORE DUP1 PUSH1 0xC0 DUP4 ADD MSTORE DUP4 PUSH1 0xE0 DUP4 ADD MSTORE DUP4 PUSH2 0x100 DUP4 ADD MSTORE DUP4 PUSH2 0x120 DUP4 ADD MSTORE DUP1 PUSH2 0x140 DUP4 ADD MSTORE DUP4 PUSH2 0x160 DUP4 ADD MSTORE DUP4 PUSH2 0x180 DUP4 ADD MSTORE DUP4 PUSH2 0x1A0 DUP4 ADD MSTORE DUP4 PUSH2 0x1C0 DUP4 ADD MSTORE DUP1 PUSH2 0x1E0 DUP4 ADD MSTORE DUP1 PUSH2 0x200 DUP4 ADD MSTORE DUP1 PUSH2 0x220 DUP4 ADD MSTORE PUSH1 0x40 MLOAD SWAP1 PUSH2 0x53BA DUP3 PUSH2 0x4386 JUMP JUMPDEST DUP5 DUP3 MSTORE DUP1 PUSH1 0x20 DUP4 ADD MSTORE DUP1 PUSH1 0x40 DUP4 ADD MSTORE DUP5 DUP2 DUP4 ADD MSTORE PUSH1 0x80 DUP3 ADD MSTORE PUSH2 0x240 DUP3 ADD MSTORE DUP3 PUSH2 0x260 DUP3 ADD MSTORE ADD MSTORE JUMP JUMPDEST ISZERO PUSH2 0x53EB JUMPI JUMP JUMPDEST PUSH1 0x40 MLOAD PUSH3 0x461BCD PUSH1 0xE5 SHL DUP2 MSTORE PUSH1 0x20 PUSH1 0x4 DUP3 ADD MSTORE PUSH1 0x12 PUSH1 0x24 DUP3 ADD MSTORE PUSH18 0x10D85C88191BD95CC81B9BDD08195E1A5CDD PUSH1 0x72 SHL PUSH1 0x44 DUP3 ADD MSTORE PUSH1 0x64 SWAP1 REVERT JUMPDEST ISZERO PUSH2 0x542C JUMPI JUMP JUMPDEST PUSH1 0x40 MLOAD PUSH3 0x461BCD PUSH1 0xE5 SHL DUP2 MSTORE PUSH1 0x20 PUSH1 0x4 DUP3 ADD MSTORE PUSH1 0x14 PUSH1 0x24 DUP3 ADD MSTORE PUSH20 0x10D85C881A185CC81899595B8819195B195D1959 PUSH1 0x62 SHL PUSH1 0x44 DUP3 ADD MSTORE PUSH1 0x64 SWAP1 REVERT JUMPDEST SWAP1 DUP2 SLOAD PUSH2 0x5474 DUP2 PUSH2 0x444D JUMP JUMPDEST SWAP3 PUSH2 0x5482 PUSH1 0x40 MLOAD SWAP5 DUP6 PUSH2 0x43BC JUMP JUMPDEST DUP2 DUP5 MSTORE PUSH1 0x0 SWAP1 DUP2 MSTORE PUSH1 0x20 DUP1 DUP3 KECCAK256 DUP2 DUP7 ADD JUMPDEST DUP5 DUP5 LT PUSH2 0x54A1 JUMPI POP POP POP POP POP JUMP JUMPDEST PUSH1 0x1 DUP4 DUP2 SWAP3 PUSH2 0x54AF DUP6 PUSH2 0x49DB JUMP JUMPDEST DUP2 MSTORE ADD SWAP3 ADD SWAP4 ADD SWAP3 SWAP1 PUSH2 0x5493 JUMP JUMPDEST SWAP1 PUSH1 0x40 MLOAD PUSH2 0x54CA DUP2 PUSH2 0x434F JUMP JUMPDEST PUSH2 0x280 PUSH1 0xFF PUSH1 0x15 DUP4 SWAP6 DUP1 SLOAD DUP6 MSTORE PUSH1 0x1 DUP1 PUSH1 0xA0 SHL SUB DUP1 PUSH1 0x1 DUP4 ADD SLOAD AND PUSH1 0x20 DUP8 ADD MSTORE PUSH2 0x54F6 PUSH1 0x2 DUP4 ADD PUSH2 0x49DB JUMP JUMPDEST PUSH1 0x40 DUP8 ADD MSTORE PUSH2 0x5507 PUSH1 0x3 DUP4 ADD PUSH2 0x5468 JUMP JUMPDEST PUSH1 0x60 DUP8 ADD MSTORE PUSH2 0x5518 PUSH1 0x4 DUP4 ADD PUSH2 0x49DB JUMP JUMPDEST PUSH1 0x80 DUP8 ADD MSTORE PUSH2 0x5529 PUSH1 0x5 DUP4 ADD PUSH2 0x49DB JUMP JUMPDEST PUSH1 0xA0 DUP8 ADD MSTORE PUSH2 0x553A PUSH1 0x6 DUP4 ADD PUSH2 0x49DB JUMP JUMPDEST PUSH1 0xC0 DUP8 ADD MSTORE PUSH1 0x7 DUP3 ADD SLOAD PUSH1 0xE0 DUP8 ADD MSTORE PUSH1 0x8 DUP3 ADD SLOAD PUSH2 0x100 DUP8 ADD MSTORE PUSH1 0x9 DUP3 ADD SLOAD PUSH2 0x120 DUP8 ADD MSTORE PUSH2 0x556B PUSH1 0xA DUP4 ADD PUSH2 0x49DB JUMP JUMPDEST PUSH2 0x140 DUP8 ADD MSTORE PUSH2 0x55AB DUP5 PUSH1 0xB DUP5 ADD SLOAD PUSH2 0x558A DUP3 DUP3 AND PUSH2 0x160 DUP12 ADD PUSH2 0x4FBE JUMP JUMPDEST PUSH2 0x559D DUP3 DUP3 PUSH1 0x8 SHR AND PUSH2 0x180 DUP12 ADD PUSH2 0x4FCA JUMP JUMPDEST PUSH1 0x10 SHR AND PUSH2 0x1A0 DUP9 ADD PUSH2 0x4FD6 JUMP JUMPDEST PUSH1 0xC DUP3 ADD SLOAD PUSH2 0x1C0 DUP8 ADD MSTORE PUSH2 0x55C2 PUSH1 0xD DUP4 ADD PUSH2 0x49DB JUMP JUMPDEST PUSH2 0x1E0 DUP8 ADD MSTORE PUSH2 0x55D4 PUSH1 0xE DUP4 ADD PUSH2 0x5468 JUMP JUMPDEST PUSH2 0x200 DUP8 ADD MSTORE PUSH2 0x55E6 PUSH1 0xF DUP4 ADD PUSH2 0x52CF JUMP JUMPDEST PUSH2 0x220 DUP8 ADD MSTORE PUSH1 0x40 MLOAD SWAP1 PUSH2 0x55F9 DUP3 PUSH2 0x4386 JUMP JUMPDEST PUSH1 0x10 DUP4 ADD SLOAD AND DUP2 MSTORE PUSH2 0x560D PUSH1 0x11 DUP4 ADD PUSH2 0x49DB JUMP JUMPDEST PUSH1 0x20 DUP3 ADD MSTORE PUSH2 0x561E PUSH1 0x12 DUP4 ADD PUSH2 0x49DB JUMP JUMPDEST PUSH1 0x40 DUP3 ADD MSTORE PUSH1 0x13 DUP3 ADD SLOAD PUSH1 0x60 DUP3 ADD MSTORE PUSH2 0x5639 PUSH1 0x14 DUP4 ADD PUSH2 0x49DB JUMP JUMPDEST PUSH1 0x80 DUP3 ADD MSTORE PUSH2 0x240 DUP7 ADD MSTORE ADD SLOAD DUP2 DUP2 AND ISZERO ISZERO PUSH2 0x260 DUP6 ADD MSTORE PUSH1 0x8 SHR AND ISZERO ISZERO SWAP2 ADD MSTORE JUMP JUMPDEST PUSH1 0x0 NOT DUP2 EQ PUSH2 0x14D7 JUMPI PUSH1 0x1 ADD SWAP1 JUMP JUMPDEST SWAP1 PUSH2 0x5675 DUP3 PUSH2 0x444D JUMP JUMPDEST PUSH2 0x5682 PUSH1 0x40 MLOAD SWAP2 DUP3 PUSH2 0x43BC JUMP JUMPDEST DUP3 DUP2 MSTORE DUP1 SWAP3 PUSH2 0x5693 PUSH1 0x1F NOT SWAP2 PUSH2 0x444D JUMP JUMPDEST ADD SWAP1 PUSH1 0x0 JUMPDEST DUP3 DUP2 LT PUSH2 0x56A4 JUMPI POP POP POP JUMP JUMPDEST PUSH1 0x20 SWAP1 PUSH2 0x56AF PUSH2 0x5325 JUMP JUMPDEST DUP3 DUP3 DUP6 ADD ADD MSTORE ADD PUSH2 0x5698 JUMP JUMPDEST DUP1 MLOAD DUP3 LT ISZERO PUSH2 0x56CF JUMPI PUSH1 0x20 SWAP2 PUSH1 0x5 SHL ADD ADD SWAP1 JUMP JUMPDEST PUSH4 0x4E487B71 PUSH1 0xE0 SHL PUSH1 0x0 MSTORE PUSH1 0x32 PUSH1 0x4 MSTORE PUSH1 0x24 PUSH1 0x0 REVERT JUMPDEST DUP1 SLOAD DUP3 LT ISZERO PUSH2 0x56CF JUMPI PUSH1 0x0 MSTORE PUSH1 0x20 PUSH1 0x0 KECCAK256 SWAP1 PUSH1 0x2 SHL ADD SWAP1 PUSH1 0x0 SWAP1 JUMP JUMPDEST DUP1 SLOAD DUP3 LT ISZERO PUSH2 0x56CF JUMPI PUSH1 0x0 MSTORE PUSH1 0x5 PUSH1 0x20 PUSH1 0x0 KECCAK256 SWAP2 MUL ADD SWAP1 PUSH1 0x0 SWAP1 JUMP INVALID LOG2 PUSH5 0x6970667358 0x22 SLT KECCAK256 DUP14 LOG4 0xD2 EXTCODESIZE 0xB0 0xE6 SLT 0xBC BALANCE 0xDD DUP5 LOG4 PUSH21 0x54D55EFAF84E8CEDCB8D925D077455AFFC4C0A6473 PUSH16 0x6C634300081300330000000000000000 "},"methodIdentifiers":{"approve(address,uint256)":"095ea7b3","balanceOf(address)":"70a08231","buyCar(uint256)":"6c231060","createReview(uint256,string)":"2c0e839b","deleteCar(uint256)":"60098088","deleteReview(uint256,uint256)":"24d41a03","getAllCars()":"abfe5d57","getAllSales()":"33396917","getApproved(uint256)":"081812fc","getCar(uint256)":"5e8be190","getMyCars()":"341fa05d","getReviews(uint256)":"9d4a2255","isApprovedForAll(address,address)":"e985e9c5","listCar((string,string[],string,string,string,uint256,uint256),(uint256,string,uint8,uint8,uint8,uint256),(string,string,string[]),(address,string,string,uint256,string))":"82925893","name()":"06fdde03","owner()":"8da5cb5b","ownerOf(uint256)":"6352211e","renounceOwnership()":"715018a6","safeTransferFrom(address,address,uint256)":"42842e0e","safeTransferFrom(address,address,uint256,bytes)":"b88d4fde","setApprovalForAll(address,bool)":"a22cb465","supportsInterface(bytes4)":"01ffc9a7","symbol()":"95d89b41","tokenURI(uint256)":"c87b56dd","transferFrom(address,address,uint256)":"23b872dd","transferOwnership(address)":"f2fde38b","updateCar(uint256,(string,string[],string,string,string,uint256,uint256),(uint256,string,uint8,uint8,uint8,uint256),(string,string,string[]),(address,string,string,uint256,string))":"0d5d841a"}}}}}