{"contracts/HemDealerCrossChain.sol":{"HemDealerCrossChain":{"abi":[{"inputs":[{"internalType":"address","name":"_hemDealer","type":"address"},{"internalType":"address","name":"_acrossRouter","type":"address"}],"stateMutability":"nonpayable","type":"constructor"},{"anonymous":false,"inputs":[{"indexed":true,"internalType":"uint256","name":"carId","type":"uint256"},{"indexed":false,"internalType":"uint256","name":"destinationChainId","type":"uint256"},{"indexed":true,"internalType":"address","name":"newOwner","type":"address"}],"name":"CrossChainTransferCompleted","type":"event"},{"anonymous":false,"inputs":[{"indexed":true,"internalType":"uint256","name":"carId","type":"uint256"},{"indexed":false,"internalType":"uint256","name":"sourceChainId","type":"uint256"},{"indexed":false,"internalType":"uint256","name":"destinationChainId","type":"uint256"},{"indexed":true,"internalType":"address","name":"seller","type":"address"},{"indexed":true,"internalType":"address","name":"buyer","type":"address"}],"name":"CrossChainTransferInitiated","type":"event"},{"anonymous":false,"inputs":[{"indexed":true,"internalType":"address","name":"previousOwner","type":"address"},{"indexed":true,"internalType":"address","name":"newOwner","type":"address"}],"name":"OwnershipTransferred","type":"event"},{"anonymous":false,"inputs":[{"indexed":true,"internalType":"uint256","name":"carId","type":"uint256"},{"indexed":true,"internalType":"address","name":"owner","type":"address"}],"name":"TransferCancelled","type":"event"},{"inputs":[],"name":"MAX_SLIPPAGE","outputs":[{"internalType":"uint256","name":"","type":"uint256"}],"stateMutability":"view","type":"function"},{"inputs":[],"name":"TRANSFER_TIMEOUT","outputs":[{"internalType":"uint256","name":"","type":"uint256"}],"stateMutability":"view","type":"function"},{"inputs":[],"name":"acrossRouter","outputs":[{"internalType":"address","name":"","type":"address"}],"stateMutability":"view","type":"function"},{"inputs":[{"internalType":"address","name":"token","type":"address"}],"name":"addSupportedToken","outputs":[],"stateMutability":"nonpayable","type":"function"},{"inputs":[{"internalType":"address","name":"token","type":"address"},{"internalType":"uint256","name":"amount","type":"uint256"},{"internalType":"address","name":"recipient","type":"address"},{"internalType":"uint256","name":"destinationChainId","type":"uint256"}],"name":"bridgePayment","outputs":[],"stateMutability":"payable","type":"function"},{"inputs":[{"internalType":"uint256","name":"carId","type":"uint256"}],"name":"cancelTimedOutTransfer","outputs":[],"stateMutability":"nonpayable","type":"function"},{"inputs":[{"internalType":"uint256","name":"","type":"uint256"}],"name":"crossChainTransferPending","outputs":[{"internalType":"bool","name":"","type":"bool"}],"stateMutability":"view","type":"function"},{"inputs":[],"name":"hemDealer","outputs":[{"internalType":"contract HemDealer","name":"","type":"address"}],"stateMutability":"view","type":"function"},{"inputs":[{"internalType":"uint256","name":"carId","type":"uint256"},{"internalType":"uint256","name":"targetChainId","type":"uint256"}],"name":"initiateCrossChainTransfer","outputs":[],"stateMutability":"nonpayable","type":"function"},{"inputs":[{"internalType":"address","name":"token","type":"address"}],"name":"isSupportedToken","outputs":[{"internalType":"bool","name":"","type":"bool"}],"stateMutability":"view","type":"function"},{"inputs":[],"name":"owner","outputs":[{"internalType":"address","name":"","type":"address"}],"stateMutability":"view","type":"function"},{"inputs":[{"internalType":"bytes32","name":"","type":"bytes32"}],"name":"processedMessages","outputs":[{"internalType":"bool","name":"","type":"bool"}],"stateMutability":"view","type":"function"},{"inputs":[{"internalType":"bytes","name":"message","type":"bytes"},{"internalType":"uint256","name":"sourceChainId","type":"uint256"}],"name":"receiveCrossChainTransfer","outputs":[],"stateMutability":"nonpayable","type":"function"},{"inputs":[{"internalType":"address","name":"token","type":"address"}],"name":"removeSupportedToken","outputs":[],"stateMutability":"nonpayable","type":"function"},{"inputs":[],"name":"renounceOwnership","outputs":[],"stateMutability":"nonpayable","type":"function"},{"inputs":[{"internalType":"uint256","name":"","type":"uint256"}],"name":"sourceChainIds","outputs":[{"internalType":"uint256","name":"","type":"uint256"}],"stateMutability":"view","type":"function"},{"inputs":[{"internalType":"address","name":"","type":"address"}],"name":"supportedTokens","outputs":[{"internalType":"bool","name":"","type":"bool"}],"stateMutability":"view","type":"function"},{"inputs":[{"internalType":"bytes32","name":"","type":"bytes32"}],"name":"transferHashes","outputs":[{"internalType":"uint256","name":"","type":"uint256"}],"stateMutability":"view","type":"function"},{"inputs":[{"internalType":"uint256","name":"","type":"uint256"}],"name":"transferInitiatedAt","outputs":[{"internalType":"uint256","name":"","type":"uint256"}],"stateMutability":"view","type":"function"},{"inputs":[{"internalType":"address","name":"newOwner","type":"address"}],"name":"transferOwnership","outputs":[],"stateMutability":"nonpayable","type":"function"},{"stateMutability":"payable","type":"receive"}],"evm":{"bytecode":{"linkReferences":{},"object":"6080346200016a57601f62001d6d38819003918201601f19168301916001600160401b038311848410176200016f5780849260409485528339810103126200016a576200005a6020620000528362000185565b920162000185565b60008054336001600160a01b0319808316821784556040519590946001600160a01b03949093859391908416907f8be0079c531659141344cd1fd0a4f28419497f9722a3daafe3b4186f6b6457e09080a3600180551693841562000128575016918215620000e3578160025416176002556003541617600355604051611bd290816200019b8239f35b60405162461bcd60e51b815260206004820152601660248201527f496e76616c696420726f757465722061646472657373000000000000000000006044820152606490fd5b62461bcd60e51b815260206004820152601960248201527f496e76616c69642048656d4465616c65722061646472657373000000000000006044820152606490fd5b600080fd5b634e487b7160e01b600052604160045260246000fd5b51906001600160a01b03821682036200016a5756fe6080604052600436101561001b575b361561001957600080fd5b005b6000803560e01c80632351d10f14610df2578063240028e8146109bc578063402ebd7d14610a245780634f8359f1146109fb57806368c4ac26146109bc5780636d69fcaf1461093d578063715018a6146108e357806376319190146108a257806378df8f7d1461087957806384dfc55d1461084a57806387065deb1461082c57806388ba16ab146107fd5780638da5cb5b146107d65780639efeff1c146107ac5780639f725a1d146105c1578063ceb6c12f14610597578063e2d995ae14610216578063ef821fe8146101ec578063f2fde38b146101215763f975951814610103575061000e565b3461011e578060031936011261011e57602060405160328152f35b80fd5b503461011e57602036600319011261011e5761013b61145a565b610143611470565b6001600160a01b0390811690811561019857600054826bffffffffffffffffffffffff60a01b821617600055167f8be0079c531659141344cd1fd0a4f28419497f9722a3daafe3b4186f6b6457e0600080a380f35b60405162461bcd60e51b815260206004820152602660248201527f4f776e61626c653a206e6577206f776e657220697320746865207a65726f206160448201526564647265737360d01b6064820152608490fd5b503461011e57602036600319011261011e5760406020916004358152600983522054604051908152f35b50608036600319011261011e5761022b61145a565b6044906001600160a01b0382358181169290839003610592578116908185526020916004835260ff604087205416801561058a575b15610552578061031057506024358034036102d857928593926102d5959261271061028b879661198f565b0490600354169360405192830193630efe6a8b60e01b85526024840152606435908301526064820152606481526102c1816113d2565b519134905af16102cf611903565b506119bc565b80f35b60405162461bcd60e51b8152600481018490526011602482015270125b98dbdc9c9958dd081c185e5b595b9d607a1b81870152606490fd5b91929493903461051b57602480359161271061032b8461198f565b04976103626040516323b872dd60e01b89820152338582015230878201528560648201526064815261035c816113d2565b87611a01565b816003541693801580156104ab575b15610449576103a560405163095ea7b360e01b96878b83015286820152828882015287815261039f81611403565b88611a01565b826003541699604051918983019363201bd06f60e11b85528987850152888401526064830152606435608483015260a482015260a4815260e081018181106001600160401b038211176104345798809a61040f938280946102d59d60405251925af16102cf611903565b600354169160405195860152840152600081840152825261042f82611403565b611a01565b84634e487b7160e01b60005260416004526000fd5b60405162461bcd60e51b8152600481018990526036818601527f5361666545524332303a20617070726f76652066726f6d206e6f6e2d7a65726f818801527520746f206e6f6e2d7a65726f20616c6c6f77616e636560501b6064820152608490fd5b50604051636eb1769f60e11b8152306004820152848101869052888188818b5afa90811561050f576000916104e2575b5015610371565b908982813d8311610508575b6104f8818361141e565b8101031261011e575051386104db565b503d6104ee565b6040513d6000823e3d90fd5b60405162461bcd60e51b815260048101859052601060248201526f115512081b9bdd081858d8d95c1d195960821b81840152606490fd5b60405162461bcd60e51b81526004810184905260116024820152702ab739bab83837b93a32b2103a37b5b2b760791b81870152606490fd5b508015610260565b600080fd5b503461011e57602036600319011261011e5760406020916004358152600783522054604051908152f35b503461011e576020806003193601126107a857600435908183526005815260ff6040842054161561076e5781835260098152604083205462015180810180911161075a5742111561071d576002546040516305e8be1960e41b8152600481018490526001600160a01b03929185908290602490829087165afa801561071257829186916106f0575b50019082825116331480156106e4575b156106af57600690848652600581526040862060ff19815416905560098152856040812055528360408120555116907fad5d1da63a71147a146daa2d4c6cdc9ab57b00bd41306f855d0afe41c5ed28408380a380f35b6064906040519062461bcd60e51b82526004820152600e60248201526d139bdd08185d5d1a1bdc9a5e995960921b6044820152fd5b50828554163314610659565b61070c91503d8088833e610704818361141e565b81019061166f565b38610649565b6040513d87823e3d90fd5b6064906040519062461bcd60e51b825260048201526016602482015275151c985b9cd9995c881b9bdd081d1a5b5959081bdd5d60521b6044820152fd5b634e487b7160e01b84526011600452602484fd5b6064906040519062461bcd60e51b8252600482015260136024820152722737903832b73234b733903a3930b739b332b960691b6044820152fd5b5080fd5b503461011e57602036600319011261011e5760406020916004358152600683522054604051908152f35b503461011e578060031936011261011e57546040516001600160a01b039091168152602090f35b503461011e57602036600319011261011e5760ff60406020926004358152600884522054166040519015158152f35b503461011e578060031936011261011e576020604051620151808152f35b503461011e57602036600319011261011e5760ff60406020926004358152600584522054166040519015158152f35b503461011e578060031936011261011e576002546040516001600160a01b039091168152602090f35b503461011e57602036600319011261011e576108bc61145a565b6108c4611470565b6001600160a01b03168152600460205260408120805460ff1916905580f35b503461011e578060031936011261011e576108fc611470565b600080546001600160a01b0319811682556001600160a01b03167f8be0079c531659141344cd1fd0a4f28419497f9722a3daafe3b4186f6b6457e08280a380f35b503461011e57602036600319011261011e5761095761145a565b61095f611470565b6001600160a01b03168015610987578152600460205260408120805460ff1916600117905580f35b60405162461bcd60e51b815260206004820152600d60248201526c24b73b30b634b2103a37b5b2b760991b6044820152606490fd5b503461011e57602036600319011261011e5760209060ff906040906001600160a01b036109e761145a565b168152600484522054166040519015158152f35b503461011e578060031936011261011e576003546040516001600160a01b039091168152602090f35b503461011e57604036600319011261011e576004358152600560205260ff604082205416610dad574660243514610d68576002546040516305e8be1960e41b81526004803590820152908290829060249082906001600160a01b03165afa908115610d5d578291610d43575b5060208101516001600160a01b03163303610d0e5760208101516101c082015190610b6c60e861022085015180519060208101519060408101516080606083015192015192604051978895602087019a6004358c526bffffffffffffffffffffffff19809360601b166040890152466054890152607488015260601b166094860152610b2681518092602060a8890191016114dc565b8401610b3c82518093602060a8850191016114dc565b019060a8820152610b5782518093602060c8850191016114dc565b014260c88201520360c881018452018261141e565b519020828060018060a01b036020850151166101c085015190610bc26102208701516040519384938860208601526004356040860152606085015246608085015260a084015260c08084015260e08301906118a8565b0390610bd6601f199283810183528261141e565b8260018060a01b036003541692610c226040519182610c16602082019663e289adcd60e01b88526024356024840152604060448401526064830190611883565b0390810183528261141e565b51925af1610c2e611903565b5015610cc9576004358352600560205260408320600160ff198254161790556009602052426040842055600660205246604084205582526007602052600435604083205560018060a01b036020820151169061022060018060a01b0391015151169060405146815260243560208201527f1e5ef349341852f5f199e2bce07397e4d55c83226632236095641c8af9af549f604060043592a480f35b60405162461bcd60e51b815260206004820152601b60248201527f4661696c656420746f20696e697469617465207472616e7366657200000000006044820152606490fd5b60405162461bcd60e51b815260206004820152600d60248201526c2737ba1031b0b91037bbb732b960991b6044820152606490fd5b610d5791503d8084833e610704818361141e565b38610a90565b6040513d84823e3d90fd5b60405162461bcd60e51b815260206004820152601f60248201527f53616d6520636861696e207472616e73666572206e6f7420616c6c6f776564006044820152606490fd5b60405162461bcd60e51b815260206004820152601860248201527f5472616e7366657220616c72656164792070656e64696e6700000000000000006044820152606490fd5b503461011e57604036600319011261011e576004356001600160401b0381116107a857366023820112156107a85780600401359082610e308361143f565b91610e3e604051938461141e565b838352602083019336602482840101116113ce57806024602093018637830101526003546001600160a01b0316330361139257805181019160c08284031261138e575160408201516060830151939092906001600160a01b038516850361138a5760a08201519160c0810151916001600160401b03831161138657610eca9260208092019201016115c7565b91808652600860205260ff60408720541661134157855260086020526040808620805460ff1916600117905560025490516305e8be1960e41b815260048101859052926001600160a01b039190911691908684602481865afa93841561133657879461131a575b506040840151936060810151608082015160a083015160c08401519060e085015192610100860151946040519a8b6001600160401b0360e08281810110920111176113065760e08c016040528b5260208b015260408a01526060890152608088015260a087015260c08601526101208101519261014082015161016083015160038110156112f25761018084015190600282101561129e576101a08501519260048410156112de57604051978860c08101106001600160401b0360c08b0111176112ca5760c089016040528852602088015260408701526060860152608085015260a08401526101e081015190610200810151604051928360608101106001600160401b036060860111176112b6576060840160405283526040518060208101106001600160401b036020830111176112b657602081016040528a8152602084015260408301526102a060018060a01b039101511692843b156112b25760405195636bfa74c360e01b875260c0600488015260c06111218861110b6110f66110e16110c9875160e060c48701526101a4860190611883565b602088015160c3199560e48782850301910152611933565b60408701518d820385016101048f0152611883565b60608601518c820384016101248e0152611883565b906080850151908b8303016101448c0152611883565b9160a08101516101648a015201516101848801526003198782030160248801528151815261115e602083015160c0602084015260c0830190611883565b916040810151600381101561129e5760408301526060810151600281101561129e5760608301526080810151600481101561129e578b97956111fb8a9893968a968660a0808d9b61120d9860808e9c0152015191015260031987820301604488015260406111ea6111d88451606085526060850190611883565b60208501518482036020860152611883565b920151906040818403910152611933565b848103600319016064860152906118a8565b9046608484015260a483015203925af1801561129357611264575b506040514681526001600160a01b03909216917f17a35fad4f245f65a33dfc21a8118014a34e233321c287ab88ff612f9e1147f890602090a380f35b6001600160401b03819492941161127f576040529138611228565b634e487b7160e01b82526041600452602482fd5b6040513d86823e3d90fd5b634e487b7160e01b8c52602160045260248cfd5b8880fd5b634e487b7160e01b8b52604160045260248bfd5b634e487b7160e01b8e52604160045260248efd5b634e487b7160e01b8d52602160045260248dfd5b634e487b7160e01b8b52602160045260248bfd5b634e487b7160e01b8f52604160045260248ffd5b61132f9194503d8089833e610704818361141e565b9238610f31565b6040513d89823e3d90fd5b60405162461bcd60e51b815260206004820152601960248201527f4d65737361676520616c72656164792070726f636573736564000000000000006044820152606490fd5b8780fd5b8580fd5b8380fd5b60405162461bcd60e51b815260206004820152601460248201527313db9b1e481c9bdd5d195c8818d85b8818d85b1b60621b6044820152606490fd5b8280fd5b60a081019081106001600160401b038211176113ed57604052565b634e487b7160e01b600052604160045260246000fd5b608081019081106001600160401b038211176113ed57604052565b90601f801991011681019081106001600160401b038211176113ed57604052565b6001600160401b0381116113ed57601f01601f191660200190565b600435906001600160a01b038216820361059257565b6000546001600160a01b0316330361148457565b606460405162461bcd60e51b815260206004820152602060248201527f4f776e61626c653a2063616c6c6572206973206e6f7420746865206f776e65726044820152fd5b51906001600160a01b038216820361059257565b60005b8381106114ef5750506000910152565b81810151838201526020016114df565b81601f820112156105925780516115158161143f565b92611523604051948561141e565b818452602082840101116105925761154191602080850191016114dc565b90565b9080601f83011215610592578151906001600160401b03928383116113ed578260051b6040519460209461157a8684018861141e565b865284808701928401019380851161059257858401925b8584106115a2575050505050505090565b83518381116105925787916115bc848480948a01016114ff565b815201930192611591565b91909160a08184031261059257604051906001600160401b039060a08301828111848210176113ed5760405282946115fe826114c8565b8452602082015183811161059257816116189184016114ff565b6020850152604082015183811161059257816116359184016114ff565b60408501526060820151606085015260808201519283116105925760809261165d92016114ff565b910152565b5190811515820361059257565b906020828203126105925781516001600160401b03928382116105925701906102e092838383031261059257604051938401848110828211176113ed57604052825184526116bf602084016114c8565b6020850152604083015181811161059257826116dc9185016114ff565b6040850152606083015181811161059257826116f9918501611544565b6060850152608083015181811161059257826117169185016114ff565b608085015260a083015181811161059257826117339185016114ff565b60a085015260c083015181811161059257826117509185016114ff565b60c085015260e083015160e08501526101008084015190850152610120808401519085015261014080840151828111610592578361178f9186016114ff565b90850152610160808401519060038210156105925785015261018080840151906002821015610592578501526101a080840151906004821015610592578501526101c080840151908501526101e08084015182811161059257836117f49186016114ff565b90850152610200808401518281116105925783611812918601611544565b908501526102209182840151918211610592576118309184016115c7565b90830152610240611842818301611662565b90830152610260611854818301611662565b9083015261028080820151908301526102a06118718183016114c8565b908301526102c0809101519082015290565b9060209161189c815180928185528580860191016114dc565b601f01601f1916010190565b6115419160018060a01b03825116815260806118e86118d6602085015160a0602086015260a0850190611883565b60408501518482036040860152611883565b92606081015160608401520151906080818403910152611883565b3d1561192e573d906119148261143f565b91611922604051938461141e565b82523d6000602084013e565b606090565b908082519081815260208091019281808460051b8301019501936000915b8483106119615750505050505090565b909192939495848061197f600193601f198682030187528a51611883565b9801930193019194939290611951565b906126de918281029281840414901517156119a657565b634e487b7160e01b600052601160045260246000fd5b156119c357565b60405162461bcd60e51b8152602060048201526016602482015275109c9a5919d9481d1c985b9cd9995c8819985a5b195960521b6044820152606490fd5b60408051908101916001600160a01b03166001600160401b038311828410176113ed57611a70926040526000806020958685527f5361666545524332303a206c6f772d6c6576656c2063616c6c206661696c656487860152868151910182855af1611a6a611903565b91611aff565b8051828115918215611ae0575b5050905015611a895750565b6084906040519062461bcd60e51b82526004820152602a60248201527f5361666545524332303a204552433230206f7065726174696f6e20646964206e6044820152691bdd081cdd58d8d9595960b21b6064820152fd5b83809293500103126105925781611af79101611662565b808238611a7d565b91929015611b615750815115611b13575090565b3b15611b1c5790565b60405162461bcd60e51b815260206004820152601d60248201527f416464726573733a2063616c6c20746f206e6f6e2d636f6e74726163740000006044820152606490fd5b825190915015611b745750805190602001fd5b60405162461bcd60e51b815260206004820152908190611b98906024830190611883565b0390fdfea2646970667358221220055b1a26e59e9f6866db998282703e121b168f7d275659d07fc296e290bca64e64736f6c63430008130033","opcodes":"PUSH1 0x80 CALLVALUE PUSH3 0x16A JUMPI PUSH1 0x1F PUSH3 0x1D6D CODESIZE DUP2 SWAP1 SUB SWAP2 DUP3 ADD PUSH1 0x1F NOT AND DUP4 ADD SWAP2 PUSH1 0x1 PUSH1 0x1 PUSH1 0x40 SHL SUB DUP4 GT DUP5 DUP5 LT OR PUSH3 0x16F JUMPI DUP1 DUP5 SWAP3 PUSH1 0x40 SWAP5 DUP6 MSTORE DUP4 CODECOPY DUP2 ADD SUB SLT PUSH3 0x16A JUMPI PUSH3 0x5A PUSH1 0x20 PUSH3 0x52 DUP4 PUSH3 0x185 JUMP JUMPDEST SWAP3 ADD PUSH3 0x185 JUMP JUMPDEST PUSH1 0x0 DUP1 SLOAD CALLER PUSH1 0x1 PUSH1 0x1 PUSH1 0xA0 SHL SUB NOT DUP1 DUP4 AND DUP3 OR DUP5 SSTORE PUSH1 0x40 MLOAD SWAP6 SWAP1 SWAP5 PUSH1 0x1 PUSH1 0x1 PUSH1 0xA0 SHL SUB SWAP5 SWAP1 SWAP4 DUP6 SWAP4 SWAP2 SWAP1 DUP5 AND SWAP1 PUSH32 0x8BE0079C531659141344CD1FD0A4F28419497F9722A3DAAFE3B4186F6B6457E0 SWAP1 DUP1 LOG3 PUSH1 0x1 DUP1 SSTORE AND SWAP4 DUP5 ISZERO PUSH3 0x128 JUMPI POP AND SWAP2 DUP3 ISZERO PUSH3 0xE3 JUMPI DUP2 PUSH1 0x2 SLOAD AND OR PUSH1 0x2 SSTORE PUSH1 0x3 SLOAD AND OR PUSH1 0x3 SSTORE PUSH1 0x40 MLOAD PUSH2 0x1BD2 SWAP1 DUP2 PUSH3 0x19B DUP3 CODECOPY RETURN JUMPDEST PUSH1 0x40 MLOAD PUSH3 0x461BCD PUSH1 0xE5 SHL DUP2 MSTORE PUSH1 0x20 PUSH1 0x4 DUP3 ADD MSTORE PUSH1 0x16 PUSH1 0x24 DUP3 ADD MSTORE PUSH32 0x496E76616C696420726F75746572206164647265737300000000000000000000 PUSH1 0x44 DUP3 ADD MSTORE PUSH1 0x64 SWAP1 REVERT JUMPDEST PUSH3 0x461BCD PUSH1 0xE5 SHL DUP2 MSTORE PUSH1 0x20 PUSH1 0x4 DUP3 ADD MSTORE PUSH1 0x19 PUSH1 0x24 DUP3 ADD MSTORE PUSH32 0x496E76616C69642048656D4465616C6572206164647265737300000000000000 PUSH1 0x44 DUP3 ADD MSTORE PUSH1 0x64 SWAP1 REVERT JUMPDEST PUSH1 0x0 DUP1 REVERT JUMPDEST PUSH4 0x4E487B71 PUSH1 0xE0 SHL PUSH1 0x0 MSTORE PUSH1 0x41 PUSH1 0x4 MSTORE PUSH1 0x24 PUSH1 0x0 REVERT JUMPDEST MLOAD SWAP1 PUSH1 0x1 PUSH1 0x1 PUSH1 0xA0 SHL SUB DUP3 AND DUP3 SUB PUSH3 0x16A JUMPI JUMP INVALID PUSH1 0x80 PUSH1 0x40 MSTORE PUSH1 0x4 CALLDATASIZE LT ISZERO PUSH2 0x1B JUMPI JUMPDEST CALLDATASIZE ISZERO PUSH2 0x19 JUMPI PUSH1 0x0 DUP1 REVERT JUMPDEST STOP JUMPDEST PUSH1 0x0 DUP1 CALLDATALOAD PUSH1 0xE0 SHR DUP1 PUSH4 0x2351D10F EQ PUSH2 0xDF2 JUMPI DUP1 PUSH4 0x240028E8 EQ PUSH2 0x9BC JUMPI DUP1 PUSH4 0x402EBD7D EQ PUSH2 0xA24 JUMPI DUP1 PUSH4 0x4F8359F1 EQ PUSH2 0x9FB JUMPI DUP1 PUSH4 0x68C4AC26 EQ PUSH2 0x9BC JUMPI DUP1 PUSH4 0x6D69FCAF EQ PUSH2 0x93D JUMPI DUP1 PUSH4 0x715018A6 EQ PUSH2 0x8E3 JUMPI DUP1 PUSH4 0x76319190 EQ PUSH2 0x8A2 JUMPI DUP1 PUSH4 0x78DF8F7D EQ PUSH2 0x879 JUMPI DUP1 PUSH4 0x84DFC55D EQ PUSH2 0x84A JUMPI DUP1 PUSH4 0x87065DEB EQ PUSH2 0x82C JUMPI DUP1 PUSH4 0x88BA16AB EQ PUSH2 0x7FD JUMPI DUP1 PUSH4 0x8DA5CB5B EQ PUSH2 0x7D6 JUMPI DUP1 PUSH4 0x9EFEFF1C EQ PUSH2 0x7AC JUMPI DUP1 PUSH4 0x9F725A1D EQ PUSH2 0x5C1 JUMPI DUP1 PUSH4 0xCEB6C12F EQ PUSH2 0x597 JUMPI DUP1 PUSH4 0xE2D995AE EQ PUSH2 0x216 JUMPI DUP1 PUSH4 0xEF821FE8 EQ PUSH2 0x1EC JUMPI DUP1 PUSH4 0xF2FDE38B EQ PUSH2 0x121 JUMPI PUSH4 0xF9759518 EQ PUSH2 0x103 JUMPI POP PUSH2 0xE JUMP JUMPDEST CALLVALUE PUSH2 0x11E JUMPI DUP1 PUSH1 0x3 NOT CALLDATASIZE ADD SLT PUSH2 0x11E JUMPI PUSH1 0x20 PUSH1 0x40 MLOAD PUSH1 0x32 DUP2 MSTORE RETURN JUMPDEST DUP1 REVERT JUMPDEST POP CALLVALUE PUSH2 0x11E JUMPI PUSH1 0x20 CALLDATASIZE PUSH1 0x3 NOT ADD SLT PUSH2 0x11E JUMPI PUSH2 0x13B PUSH2 0x145A JUMP JUMPDEST PUSH2 0x143 PUSH2 0x1470 JUMP JUMPDEST PUSH1 0x1 PUSH1 0x1 PUSH1 0xA0 SHL SUB SWAP1 DUP2 AND SWAP1 DUP2 ISZERO PUSH2 0x198 JUMPI PUSH1 0x0 SLOAD DUP3 PUSH12 0xFFFFFFFFFFFFFFFFFFFFFFFF PUSH1 0xA0 SHL DUP3 AND OR PUSH1 0x0 SSTORE AND PUSH32 0x8BE0079C531659141344CD1FD0A4F28419497F9722A3DAAFE3B4186F6B6457E0 PUSH1 0x0 DUP1 LOG3 DUP1 RETURN JUMPDEST PUSH1 0x40 MLOAD PUSH3 0x461BCD PUSH1 0xE5 SHL DUP2 MSTORE PUSH1 0x20 PUSH1 0x4 DUP3 ADD MSTORE PUSH1 0x26 PUSH1 0x24 DUP3 ADD MSTORE PUSH32 0x4F776E61626C653A206E6577206F776E657220697320746865207A65726F2061 PUSH1 0x44 DUP3 ADD MSTORE PUSH6 0x646472657373 PUSH1 0xD0 SHL PUSH1 0x64 DUP3 ADD MSTORE PUSH1 0x84 SWAP1 REVERT JUMPDEST POP CALLVALUE PUSH2 0x11E JUMPI PUSH1 0x20 CALLDATASIZE PUSH1 0x3 NOT ADD SLT PUSH2 0x11E JUMPI PUSH1 0x40 PUSH1 0x20 SWAP2 PUSH1 0x4 CALLDATALOAD DUP2 MSTORE PUSH1 0x9 DUP4 MSTORE KECCAK256 SLOAD PUSH1 0x40 MLOAD SWAP1 DUP2 MSTORE RETURN JUMPDEST POP PUSH1 0x80 CALLDATASIZE PUSH1 0x3 NOT ADD SLT PUSH2 0x11E JUMPI PUSH2 0x22B PUSH2 0x145A JUMP JUMPDEST PUSH1 0x44 SWAP1 PUSH1 0x1 PUSH1 0x1 PUSH1 0xA0 SHL SUB DUP3 CALLDATALOAD DUP2 DUP2 AND SWAP3 SWAP1 DUP4 SWAP1 SUB PUSH2 0x592 JUMPI DUP2 AND SWAP1 DUP2 DUP6 MSTORE PUSH1 0x20 SWAP2 PUSH1 0x4 DUP4 MSTORE PUSH1 0xFF PUSH1 0x40 DUP8 KECCAK256 SLOAD AND DUP1 ISZERO PUSH2 0x58A JUMPI JUMPDEST ISZERO PUSH2 0x552 JUMPI DUP1 PUSH2 0x310 JUMPI POP PUSH1 0x24 CALLDATALOAD DUP1 CALLVALUE SUB PUSH2 0x2D8 JUMPI SWAP3 DUP6 SWAP4 SWAP3 PUSH2 0x2D5 SWAP6 SWAP3 PUSH2 0x2710 PUSH2 0x28B DUP8 SWAP7 PUSH2 0x198F JUMP JUMPDEST DIV SWAP1 PUSH1 0x3 SLOAD AND SWAP4 PUSH1 0x40 MLOAD SWAP3 DUP4 ADD SWAP4 PUSH4 0xEFE6A8B PUSH1 0xE0 SHL DUP6 MSTORE PUSH1 0x24 DUP5 ADD MSTORE PUSH1 0x64 CALLDATALOAD SWAP1 DUP4 ADD MSTORE PUSH1 0x64 DUP3 ADD MSTORE PUSH1 0x64 DUP2 MSTORE PUSH2 0x2C1 DUP2 PUSH2 0x13D2 JUMP JUMPDEST MLOAD SWAP2 CALLVALUE SWAP1 GAS CALL PUSH2 0x2CF PUSH2 0x1903 JUMP JUMPDEST POP PUSH2 0x19BC JUMP JUMPDEST DUP1 RETURN JUMPDEST PUSH1 0x40 MLOAD PUSH3 0x461BCD PUSH1 0xE5 SHL DUP2 MSTORE PUSH1 0x4 DUP2 ADD DUP5 SWAP1 MSTORE PUSH1 0x11 PUSH1 0x24 DUP3 ADD MSTORE PUSH17 0x125B98DBDC9C9958DD081C185E5B595B9D PUSH1 0x7A SHL DUP2 DUP8 ADD MSTORE PUSH1 0x64 SWAP1 REVERT JUMPDEST SWAP2 SWAP3 SWAP5 SWAP4 SWAP1 CALLVALUE PUSH2 0x51B JUMPI PUSH1 0x24 DUP1 CALLDATALOAD SWAP2 PUSH2 0x2710 PUSH2 0x32B DUP5 PUSH2 0x198F JUMP JUMPDEST DIV SWAP8 PUSH2 0x362 PUSH1 0x40 MLOAD PUSH4 0x23B872DD PUSH1 0xE0 SHL DUP10 DUP3 ADD MSTORE CALLER DUP6 DUP3 ADD MSTORE ADDRESS DUP8 DUP3 ADD MSTORE DUP6 PUSH1 0x64 DUP3 ADD MSTORE PUSH1 0x64 DUP2 MSTORE PUSH2 0x35C DUP2 PUSH2 0x13D2 JUMP JUMPDEST DUP8 PUSH2 0x1A01 JUMP JUMPDEST DUP2 PUSH1 0x3 SLOAD AND SWAP4 DUP1 ISZERO DUP1 ISZERO PUSH2 0x4AB JUMPI JUMPDEST ISZERO PUSH2 0x449 JUMPI PUSH2 0x3A5 PUSH1 0x40 MLOAD PUSH4 0x95EA7B3 PUSH1 0xE0 SHL SWAP7 DUP8 DUP12 DUP4 ADD MSTORE DUP7 DUP3 ADD MSTORE DUP3 DUP9 DUP3 ADD MSTORE DUP8 DUP2 MSTORE PUSH2 0x39F DUP2 PUSH2 0x1403 JUMP JUMPDEST DUP9 PUSH2 0x1A01 JUMP JUMPDEST DUP3 PUSH1 0x3 SLOAD AND SWAP10 PUSH1 0x40 MLOAD SWAP2 DUP10 DUP4 ADD SWAP4 PUSH4 0x201BD06F PUSH1 0xE1 SHL DUP6 MSTORE DUP10 DUP8 DUP6 ADD MSTORE DUP9 DUP5 ADD MSTORE PUSH1 0x64 DUP4 ADD MSTORE PUSH1 0x64 CALLDATALOAD PUSH1 0x84 DUP4 ADD MSTORE PUSH1 0xA4 DUP3 ADD MSTORE PUSH1 0xA4 DUP2 MSTORE PUSH1 0xE0 DUP2 ADD DUP2 DUP2 LT PUSH1 0x1 PUSH1 0x1 PUSH1 0x40 SHL SUB DUP3 GT OR PUSH2 0x434 JUMPI SWAP9 DUP1 SWAP11 PUSH2 0x40F SWAP4 DUP3 DUP1 SWAP5 PUSH2 0x2D5 SWAP14 PUSH1 0x40 MSTORE MLOAD SWAP3 GAS CALL PUSH2 0x2CF PUSH2 0x1903 JUMP JUMPDEST PUSH1 0x3 SLOAD AND SWAP2 PUSH1 0x40 MLOAD SWAP6 DUP7 ADD MSTORE DUP5 ADD MSTORE PUSH1 0x0 DUP2 DUP5 ADD MSTORE DUP3 MSTORE PUSH2 0x42F DUP3 PUSH2 0x1403 JUMP JUMPDEST PUSH2 0x1A01 JUMP JUMPDEST DUP5 PUSH4 0x4E487B71 PUSH1 0xE0 SHL PUSH1 0x0 MSTORE PUSH1 0x41 PUSH1 0x4 MSTORE PUSH1 0x0 REVERT JUMPDEST PUSH1 0x40 MLOAD PUSH3 0x461BCD PUSH1 0xE5 SHL DUP2 MSTORE PUSH1 0x4 DUP2 ADD DUP10 SWAP1 MSTORE PUSH1 0x36 DUP2 DUP7 ADD MSTORE PUSH32 0x5361666545524332303A20617070726F76652066726F6D206E6F6E2D7A65726F DUP2 DUP9 ADD MSTORE PUSH22 0x20746F206E6F6E2D7A65726F20616C6C6F77616E6365 PUSH1 0x50 SHL PUSH1 0x64 DUP3 ADD MSTORE PUSH1 0x84 SWAP1 REVERT JUMPDEST POP PUSH1 0x40 MLOAD PUSH4 0x6EB1769F PUSH1 0xE1 SHL DUP2 MSTORE ADDRESS PUSH1 0x4 DUP3 ADD MSTORE DUP5 DUP2 ADD DUP7 SWAP1 MSTORE DUP9 DUP2 DUP9 DUP2 DUP12 GAS STATICCALL SWAP1 DUP2 ISZERO PUSH2 0x50F JUMPI PUSH1 0x0 SWAP2 PUSH2 0x4E2 JUMPI JUMPDEST POP ISZERO PUSH2 0x371 JUMP JUMPDEST SWAP1 DUP10 DUP3 DUP2 RETURNDATASIZE DUP4 GT PUSH2 0x508 JUMPI JUMPDEST PUSH2 0x4F8 DUP2 DUP4 PUSH2 0x141E JUMP JUMPDEST DUP2 ADD SUB SLT PUSH2 0x11E JUMPI POP MLOAD CODESIZE PUSH2 0x4DB JUMP JUMPDEST POP RETURNDATASIZE PUSH2 0x4EE JUMP JUMPDEST PUSH1 0x40 MLOAD RETURNDATASIZE PUSH1 0x0 DUP3 RETURNDATACOPY RETURNDATASIZE SWAP1 REVERT JUMPDEST PUSH1 0x40 MLOAD PUSH3 0x461BCD PUSH1 0xE5 SHL DUP2 MSTORE PUSH1 0x4 DUP2 ADD DUP6 SWAP1 MSTORE PUSH1 0x10 PUSH1 0x24 DUP3 ADD MSTORE PUSH16 0x115512081B9BDD081858D8D95C1D1959 PUSH1 0x82 SHL DUP2 DUP5 ADD MSTORE PUSH1 0x64 SWAP1 REVERT JUMPDEST PUSH1 0x40 MLOAD PUSH3 0x461BCD PUSH1 0xE5 SHL DUP2 MSTORE PUSH1 0x4 DUP2 ADD DUP5 SWAP1 MSTORE PUSH1 0x11 PUSH1 0x24 DUP3 ADD MSTORE PUSH17 0x2AB739BAB83837B93A32B2103A37B5B2B7 PUSH1 0x79 SHL DUP2 DUP8 ADD MSTORE PUSH1 0x64 SWAP1 REVERT JUMPDEST POP DUP1 ISZERO PUSH2 0x260 JUMP JUMPDEST PUSH1 0x0 DUP1 REVERT JUMPDEST POP CALLVALUE PUSH2 0x11E JUMPI PUSH1 0x20 CALLDATASIZE PUSH1 0x3 NOT ADD SLT PUSH2 0x11E JUMPI PUSH1 0x40 PUSH1 0x20 SWAP2 PUSH1 0x4 CALLDATALOAD DUP2 MSTORE PUSH1 0x7 DUP4 MSTORE KECCAK256 SLOAD PUSH1 0x40 MLOAD SWAP1 DUP2 MSTORE RETURN JUMPDEST POP CALLVALUE PUSH2 0x11E JUMPI PUSH1 0x20 DUP1 PUSH1 0x3 NOT CALLDATASIZE ADD SLT PUSH2 0x7A8 JUMPI PUSH1 0x4 CALLDATALOAD SWAP1 DUP2 DUP4 MSTORE PUSH1 0x5 DUP2 MSTORE PUSH1 0xFF PUSH1 0x40 DUP5 KECCAK256 SLOAD AND ISZERO PUSH2 0x76E JUMPI DUP2 DUP4 MSTORE PUSH1 0x9 DUP2 MSTORE PUSH1 0x40 DUP4 KECCAK256 SLOAD PUSH3 0x15180 DUP2 ADD DUP1 SWAP2 GT PUSH2 0x75A JUMPI TIMESTAMP GT ISZERO PUSH2 0x71D JUMPI PUSH1 0x2 SLOAD PUSH1 0x40 MLOAD PUSH4 0x5E8BE19 PUSH1 0xE4 SHL DUP2 MSTORE PUSH1 0x4 DUP2 ADD DUP5 SWAP1 MSTORE PUSH1 0x1 PUSH1 0x1 PUSH1 0xA0 SHL SUB SWAP3 SWAP2 DUP6 SWAP1 DUP3 SWAP1 PUSH1 0x24 SWAP1 DUP3 SWAP1 DUP8 AND GAS STATICCALL DUP1 ISZERO PUSH2 0x712 JUMPI DUP3 SWAP2 DUP7 SWAP2 PUSH2 0x6F0 JUMPI JUMPDEST POP ADD SWAP1 DUP3 DUP3 MLOAD AND CALLER EQ DUP1 ISZERO PUSH2 0x6E4 JUMPI JUMPDEST ISZERO PUSH2 0x6AF JUMPI PUSH1 0x6 SWAP1 DUP5 DUP7 MSTORE PUSH1 0x5 DUP2 MSTORE PUSH1 0x40 DUP7 KECCAK256 PUSH1 0xFF NOT DUP2 SLOAD AND SWAP1 SSTORE PUSH1 0x9 DUP2 MSTORE DUP6 PUSH1 0x40 DUP2 KECCAK256 SSTORE MSTORE DUP4 PUSH1 0x40 DUP2 KECCAK256 SSTORE MLOAD AND SWAP1 PUSH32 0xAD5D1DA63A71147A146DAA2D4C6CDC9AB57B00BD41306F855D0AFE41C5ED2840 DUP4 DUP1 LOG3 DUP1 RETURN JUMPDEST PUSH1 0x64 SWAP1 PUSH1 0x40 MLOAD SWAP1 PUSH3 0x461BCD PUSH1 0xE5 SHL DUP3 MSTORE PUSH1 0x4 DUP3 ADD MSTORE PUSH1 0xE PUSH1 0x24 DUP3 ADD MSTORE PUSH14 0x139BDD08185D5D1A1BDC9A5E9959 PUSH1 0x92 SHL PUSH1 0x44 DUP3 ADD MSTORE REVERT JUMPDEST POP DUP3 DUP6 SLOAD AND CALLER EQ PUSH2 0x659 JUMP JUMPDEST PUSH2 0x70C SWAP2 POP RETURNDATASIZE DUP1 DUP9 DUP4 RETURNDATACOPY PUSH2 0x704 DUP2 DUP4 PUSH2 0x141E JUMP JUMPDEST DUP2 ADD SWAP1 PUSH2 0x166F JUMP JUMPDEST CODESIZE PUSH2 0x649 JUMP JUMPDEST PUSH1 0x40 MLOAD RETURNDATASIZE DUP8 DUP3 RETURNDATACOPY RETURNDATASIZE SWAP1 REVERT JUMPDEST PUSH1 0x64 SWAP1 PUSH1 0x40 MLOAD SWAP1 PUSH3 0x461BCD PUSH1 0xE5 SHL DUP3 MSTORE PUSH1 0x4 DUP3 ADD MSTORE PUSH1 0x16 PUSH1 0x24 DUP3 ADD MSTORE PUSH22 0x151C985B9CD9995C881B9BDD081D1A5B5959081BDD5D PUSH1 0x52 SHL PUSH1 0x44 DUP3 ADD MSTORE REVERT JUMPDEST PUSH4 0x4E487B71 PUSH1 0xE0 SHL DUP5 MSTORE PUSH1 0x11 PUSH1 0x4 MSTORE PUSH1 0x24 DUP5 REVERT JUMPDEST PUSH1 0x64 SWAP1 PUSH1 0x40 MLOAD SWAP1 PUSH3 0x461BCD PUSH1 0xE5 SHL DUP3 MSTORE PUSH1 0x4 DUP3 ADD MSTORE PUSH1 0x13 PUSH1 0x24 DUP3 ADD MSTORE PUSH19 0x2737903832B73234B733903A3930B739B332B9 PUSH1 0x69 SHL PUSH1 0x44 DUP3 ADD MSTORE REVERT JUMPDEST POP DUP1 REVERT JUMPDEST POP CALLVALUE PUSH2 0x11E JUMPI PUSH1 0x20 CALLDATASIZE PUSH1 0x3 NOT ADD SLT PUSH2 0x11E JUMPI PUSH1 0x40 PUSH1 0x20 SWAP2 PUSH1 0x4 CALLDATALOAD DUP2 MSTORE PUSH1 0x6 DUP4 MSTORE KECCAK256 SLOAD PUSH1 0x40 MLOAD SWAP1 DUP2 MSTORE RETURN JUMPDEST POP CALLVALUE PUSH2 0x11E JUMPI DUP1 PUSH1 0x3 NOT CALLDATASIZE ADD SLT PUSH2 0x11E JUMPI SLOAD PUSH1 0x40 MLOAD PUSH1 0x1 PUSH1 0x1 PUSH1 0xA0 SHL SUB SWAP1 SWAP2 AND DUP2 MSTORE PUSH1 0x20 SWAP1 RETURN JUMPDEST POP CALLVALUE PUSH2 0x11E JUMPI PUSH1 0x20 CALLDATASIZE PUSH1 0x3 NOT ADD SLT PUSH2 0x11E JUMPI PUSH1 0xFF PUSH1 0x40 PUSH1 0x20 SWAP3 PUSH1 0x4 CALLDATALOAD DUP2 MSTORE PUSH1 0x8 DUP5 MSTORE KECCAK256 SLOAD AND PUSH1 0x40 MLOAD SWAP1 ISZERO ISZERO DUP2 MSTORE RETURN JUMPDEST POP CALLVALUE PUSH2 0x11E JUMPI DUP1 PUSH1 0x3 NOT CALLDATASIZE ADD SLT PUSH2 0x11E JUMPI PUSH1 0x20 PUSH1 0x40 MLOAD PUSH3 0x15180 DUP2 MSTORE RETURN JUMPDEST POP CALLVALUE PUSH2 0x11E JUMPI PUSH1 0x20 CALLDATASIZE PUSH1 0x3 NOT ADD SLT PUSH2 0x11E JUMPI PUSH1 0xFF PUSH1 0x40 PUSH1 0x20 SWAP3 PUSH1 0x4 CALLDATALOAD DUP2 MSTORE PUSH1 0x5 DUP5 MSTORE KECCAK256 SLOAD AND PUSH1 0x40 MLOAD SWAP1 ISZERO ISZERO DUP2 MSTORE RETURN JUMPDEST POP CALLVALUE PUSH2 0x11E JUMPI DUP1 PUSH1 0x3 NOT CALLDATASIZE ADD SLT PUSH2 0x11E JUMPI PUSH1 0x2 SLOAD PUSH1 0x40 MLOAD PUSH1 0x1 PUSH1 0x1 PUSH1 0xA0 SHL SUB SWAP1 SWAP2 AND DUP2 MSTORE PUSH1 0x20 SWAP1 RETURN JUMPDEST POP CALLVALUE PUSH2 0x11E JUMPI PUSH1 0x20 CALLDATASIZE PUSH1 0x3 NOT ADD SLT PUSH2 0x11E JUMPI PUSH2 0x8BC PUSH2 0x145A JUMP JUMPDEST PUSH2 0x8C4 PUSH2 0x1470 JUMP JUMPDEST PUSH1 0x1 PUSH1 0x1 PUSH1 0xA0 SHL SUB AND DUP2 MSTORE PUSH1 0x4 PUSH1 0x20 MSTORE PUSH1 0x40 DUP2 KECCAK256 DUP1 SLOAD PUSH1 0xFF NOT AND SWAP1 SSTORE DUP1 RETURN JUMPDEST POP CALLVALUE PUSH2 0x11E JUMPI DUP1 PUSH1 0x3 NOT CALLDATASIZE ADD SLT PUSH2 0x11E JUMPI PUSH2 0x8FC PUSH2 0x1470 JUMP JUMPDEST PUSH1 0x0 DUP1 SLOAD PUSH1 0x1 PUSH1 0x1 PUSH1 0xA0 SHL SUB NOT DUP2 AND DUP3 SSTORE PUSH1 0x1 PUSH1 0x1 PUSH1 0xA0 SHL SUB AND PUSH32 0x8BE0079C531659141344CD1FD0A4F28419497F9722A3DAAFE3B4186F6B6457E0 DUP3 DUP1 LOG3 DUP1 RETURN JUMPDEST POP CALLVALUE PUSH2 0x11E JUMPI PUSH1 0x20 CALLDATASIZE PUSH1 0x3 NOT ADD SLT PUSH2 0x11E JUMPI PUSH2 0x957 PUSH2 0x145A JUMP JUMPDEST PUSH2 0x95F PUSH2 0x1470 JUMP JUMPDEST PUSH1 0x1 PUSH1 0x1 PUSH1 0xA0 SHL SUB AND DUP1 ISZERO PUSH2 0x987 JUMPI DUP2 MSTORE PUSH1 0x4 PUSH1 0x20 MSTORE PUSH1 0x40 DUP2 KECCAK256 DUP1 SLOAD PUSH1 0xFF NOT AND PUSH1 0x1 OR SWAP1 SSTORE DUP1 RETURN JUMPDEST PUSH1 0x40 MLOAD PUSH3 0x461BCD PUSH1 0xE5 SHL DUP2 MSTORE PUSH1 0x20 PUSH1 0x4 DUP3 ADD MSTORE PUSH1 0xD PUSH1 0x24 DUP3 ADD MSTORE PUSH13 0x24B73B30B634B2103A37B5B2B7 PUSH1 0x99 SHL PUSH1 0x44 DUP3 ADD MSTORE PUSH1 0x64 SWAP1 REVERT JUMPDEST POP CALLVALUE PUSH2 0x11E JUMPI PUSH1 0x20 CALLDATASIZE PUSH1 0x3 NOT ADD SLT PUSH2 0x11E JUMPI PUSH1 0x20 SWAP1 PUSH1 0xFF SWAP1 PUSH1 0x40 SWAP1 PUSH1 0x1 PUSH1 0x1 PUSH1 0xA0 SHL SUB PUSH2 0x9E7 PUSH2 0x145A JUMP JUMPDEST AND DUP2 MSTORE PUSH1 0x4 DUP5 MSTORE KECCAK256 SLOAD AND PUSH1 0x40 MLOAD SWAP1 ISZERO ISZERO DUP2 MSTORE RETURN JUMPDEST POP CALLVALUE PUSH2 0x11E JUMPI DUP1 PUSH1 0x3 NOT CALLDATASIZE ADD SLT PUSH2 0x11E JUMPI PUSH1 0x3 SLOAD PUSH1 0x40 MLOAD PUSH1 0x1 PUSH1 0x1 PUSH1 0xA0 SHL SUB SWAP1 SWAP2 AND DUP2 MSTORE PUSH1 0x20 SWAP1 RETURN JUMPDEST POP CALLVALUE PUSH2 0x11E JUMPI PUSH1 0x40 CALLDATASIZE PUSH1 0x3 NOT ADD SLT PUSH2 0x11E JUMPI PUSH1 0x4 CALLDATALOAD DUP2 MSTORE PUSH1 0x5 PUSH1 0x20 MSTORE PUSH1 0xFF PUSH1 0x40 DUP3 KECCAK256 SLOAD AND PUSH2 0xDAD JUMPI CHAINID PUSH1 0x24 CALLDATALOAD EQ PUSH2 0xD68 JUMPI PUSH1 0x2 SLOAD PUSH1 0x40 MLOAD PUSH4 0x5E8BE19 PUSH1 0xE4 SHL DUP2 MSTORE PUSH1 0x4 DUP1 CALLDATALOAD SWAP1 DUP3 ADD MSTORE SWAP1 DUP3 SWAP1 DUP3 SWAP1 PUSH1 0x24 SWAP1 DUP3 SWAP1 PUSH1 0x1 PUSH1 0x1 PUSH1 0xA0 SHL SUB AND GAS STATICCALL SWAP1 DUP2 ISZERO PUSH2 0xD5D JUMPI DUP3 SWAP2 PUSH2 0xD43 JUMPI JUMPDEST POP PUSH1 0x20 DUP2 ADD MLOAD PUSH1 0x1 PUSH1 0x1 PUSH1 0xA0 SHL SUB AND CALLER SUB PUSH2 0xD0E JUMPI PUSH1 0x20 DUP2 ADD MLOAD PUSH2 0x1C0 DUP3 ADD MLOAD SWAP1 PUSH2 0xB6C PUSH1 0xE8 PUSH2 0x220 DUP6 ADD MLOAD DUP1 MLOAD SWAP1 PUSH1 0x20 DUP2 ADD MLOAD SWAP1 PUSH1 0x40 DUP2 ADD MLOAD PUSH1 0x80 PUSH1 0x60 DUP4 ADD MLOAD SWAP3 ADD MLOAD SWAP3 PUSH1 0x40 MLOAD SWAP8 DUP9 SWAP6 PUSH1 0x20 DUP8 ADD SWAP11 PUSH1 0x4 CALLDATALOAD DUP13 MSTORE PUSH12 0xFFFFFFFFFFFFFFFFFFFFFFFF NOT DUP1 SWAP4 PUSH1 0x60 SHL AND PUSH1 0x40 DUP10 ADD MSTORE CHAINID PUSH1 0x54 DUP10 ADD MSTORE PUSH1 0x74 DUP9 ADD MSTORE PUSH1 0x60 SHL AND PUSH1 0x94 DUP7 ADD MSTORE PUSH2 0xB26 DUP2 MLOAD DUP1 SWAP3 PUSH1 0x20 PUSH1 0xA8 DUP10 ADD SWAP2 ADD PUSH2 0x14DC JUMP JUMPDEST DUP5 ADD PUSH2 0xB3C DUP3 MLOAD DUP1 SWAP4 PUSH1 0x20 PUSH1 0xA8 DUP6 ADD SWAP2 ADD PUSH2 0x14DC JUMP JUMPDEST ADD SWAP1 PUSH1 0xA8 DUP3 ADD MSTORE PUSH2 0xB57 DUP3 MLOAD DUP1 SWAP4 PUSH1 0x20 PUSH1 0xC8 DUP6 ADD SWAP2 ADD PUSH2 0x14DC JUMP JUMPDEST ADD TIMESTAMP PUSH1 0xC8 DUP3 ADD MSTORE SUB PUSH1 0xC8 DUP2 ADD DUP5 MSTORE ADD DUP3 PUSH2 0x141E JUMP JUMPDEST MLOAD SWAP1 KECCAK256 DUP3 DUP1 PUSH1 0x1 DUP1 PUSH1 0xA0 SHL SUB PUSH1 0x20 DUP6 ADD MLOAD AND PUSH2 0x1C0 DUP6 ADD MLOAD SWAP1 PUSH2 0xBC2 PUSH2 0x220 DUP8 ADD MLOAD PUSH1 0x40 MLOAD SWAP4 DUP5 SWAP4 DUP9 PUSH1 0x20 DUP7 ADD MSTORE PUSH1 0x4 CALLDATALOAD PUSH1 0x40 DUP7 ADD MSTORE PUSH1 0x60 DUP6 ADD MSTORE CHAINID PUSH1 0x80 DUP6 ADD MSTORE PUSH1 0xA0 DUP5 ADD MSTORE PUSH1 0xC0 DUP1 DUP5 ADD MSTORE PUSH1 0xE0 DUP4 ADD SWAP1 PUSH2 0x18A8 JUMP JUMPDEST SUB SWAP1 PUSH2 0xBD6 PUSH1 0x1F NOT SWAP3 DUP4 DUP2 ADD DUP4 MSTORE DUP3 PUSH2 0x141E JUMP JUMPDEST DUP3 PUSH1 0x1 DUP1 PUSH1 0xA0 SHL SUB PUSH1 0x3 SLOAD AND SWAP3 PUSH2 0xC22 PUSH1 0x40 MLOAD SWAP2 DUP3 PUSH2 0xC16 PUSH1 0x20 DUP3 ADD SWAP7 PUSH4 0xE289ADCD PUSH1 0xE0 SHL DUP9 MSTORE PUSH1 0x24 CALLDATALOAD PUSH1 0x24 DUP5 ADD MSTORE PUSH1 0x40 PUSH1 0x44 DUP5 ADD MSTORE PUSH1 0x64 DUP4 ADD SWAP1 PUSH2 0x1883 JUMP JUMPDEST SUB SWAP1 DUP2 ADD DUP4 MSTORE DUP3 PUSH2 0x141E JUMP JUMPDEST MLOAD SWAP3 GAS CALL PUSH2 0xC2E PUSH2 0x1903 JUMP JUMPDEST POP ISZERO PUSH2 0xCC9 JUMPI PUSH1 0x4 CALLDATALOAD DUP4 MSTORE PUSH1 0x5 PUSH1 0x20 MSTORE PUSH1 0x40 DUP4 KECCAK256 PUSH1 0x1 PUSH1 0xFF NOT DUP3 SLOAD AND OR SWAP1 SSTORE PUSH1 0x9 PUSH1 0x20 MSTORE TIMESTAMP PUSH1 0x40 DUP5 KECCAK256 SSTORE PUSH1 0x6 PUSH1 0x20 MSTORE CHAINID PUSH1 0x40 DUP5 KECCAK256 SSTORE DUP3 MSTORE PUSH1 0x7 PUSH1 0x20 MSTORE PUSH1 0x4 CALLDATALOAD PUSH1 0x40 DUP4 KECCAK256 SSTORE PUSH1 0x1 DUP1 PUSH1 0xA0 SHL SUB PUSH1 0x20 DUP3 ADD MLOAD AND SWAP1 PUSH2 0x220 PUSH1 0x1 DUP1 PUSH1 0xA0 SHL SUB SWAP2 ADD MLOAD MLOAD AND SWAP1 PUSH1 0x40 MLOAD CHAINID DUP2 MSTORE PUSH1 0x24 CALLDATALOAD PUSH1 0x20 DUP3 ADD MSTORE PUSH32 0x1E5EF349341852F5F199E2BCE07397E4D55C83226632236095641C8AF9AF549F PUSH1 0x40 PUSH1 0x4 CALLDATALOAD SWAP3 LOG4 DUP1 RETURN JUMPDEST PUSH1 0x40 MLOAD PUSH3 0x461BCD PUSH1 0xE5 SHL DUP2 MSTORE PUSH1 0x20 PUSH1 0x4 DUP3 ADD MSTORE PUSH1 0x1B PUSH1 0x24 DUP3 ADD MSTORE PUSH32 0x4661696C656420746F20696E697469617465207472616E736665720000000000 PUSH1 0x44 DUP3 ADD MSTORE PUSH1 0x64 SWAP1 REVERT JUMPDEST PUSH1 0x40 MLOAD PUSH3 0x461BCD PUSH1 0xE5 SHL DUP2 MSTORE PUSH1 0x20 PUSH1 0x4 DUP3 ADD MSTORE PUSH1 0xD PUSH1 0x24 DUP3 ADD MSTORE PUSH13 0x2737BA1031B0B91037BBB732B9 PUSH1 0x99 SHL PUSH1 0x44 DUP3 ADD MSTORE PUSH1 0x64 SWAP1 REVERT JUMPDEST PUSH2 0xD57 SWAP2 POP RETURNDATASIZE DUP1 DUP5 DUP4 RETURNDATACOPY PUSH2 0x704 DUP2 DUP4 PUSH2 0x141E JUMP JUMPDEST CODESIZE PUSH2 0xA90 JUMP JUMPDEST PUSH1 0x40 MLOAD RETURNDATASIZE DUP5 DUP3 RETURNDATACOPY RETURNDATASIZE SWAP1 REVERT JUMPDEST PUSH1 0x40 MLOAD PUSH3 0x461BCD PUSH1 0xE5 SHL DUP2 MSTORE PUSH1 0x20 PUSH1 0x4 DUP3 ADD MSTORE PUSH1 0x1F PUSH1 0x24 DUP3 ADD MSTORE PUSH32 0x53616D6520636861696E207472616E73666572206E6F7420616C6C6F77656400 PUSH1 0x44 DUP3 ADD MSTORE PUSH1 0x64 SWAP1 REVERT JUMPDEST PUSH1 0x40 MLOAD PUSH3 0x461BCD PUSH1 0xE5 SHL DUP2 MSTORE PUSH1 0x20 PUSH1 0x4 DUP3 ADD MSTORE PUSH1 0x18 PUSH1 0x24 DUP3 ADD MSTORE PUSH32 0x5472616E7366657220616C72656164792070656E64696E670000000000000000 PUSH1 0x44 DUP3 ADD MSTORE PUSH1 0x64 SWAP1 REVERT JUMPDEST POP CALLVALUE PUSH2 0x11E JUMPI PUSH1 0x40 CALLDATASIZE PUSH1 0x3 NOT ADD SLT PUSH2 0x11E JUMPI PUSH1 0x4 CALLDATALOAD PUSH1 0x1 PUSH1 0x1 PUSH1 0x40 SHL SUB DUP2 GT PUSH2 0x7A8 JUMPI CALLDATASIZE PUSH1 0x23 DUP3 ADD SLT ISZERO PUSH2 0x7A8 JUMPI DUP1 PUSH1 0x4 ADD CALLDATALOAD SWAP1 DUP3 PUSH2 0xE30 DUP4 PUSH2 0x143F JUMP JUMPDEST SWAP2 PUSH2 0xE3E PUSH1 0x40 MLOAD SWAP4 DUP5 PUSH2 0x141E JUMP JUMPDEST DUP4 DUP4 MSTORE PUSH1 0x20 DUP4 ADD SWAP4 CALLDATASIZE PUSH1 0x24 DUP3 DUP5 ADD ADD GT PUSH2 0x13CE JUMPI DUP1 PUSH1 0x24 PUSH1 0x20 SWAP4 ADD DUP7 CALLDATACOPY DUP4 ADD ADD MSTORE PUSH1 0x3 SLOAD PUSH1 0x1 PUSH1 0x1 PUSH1 0xA0 SHL SUB AND CALLER SUB PUSH2 0x1392 JUMPI DUP1 MLOAD DUP2 ADD SWAP2 PUSH1 0xC0 DUP3 DUP5 SUB SLT PUSH2 0x138E JUMPI MLOAD PUSH1 0x40 DUP3 ADD MLOAD PUSH1 0x60 DUP4 ADD MLOAD SWAP4 SWAP1 SWAP3 SWAP1 PUSH1 0x1 PUSH1 0x1 PUSH1 0xA0 SHL SUB DUP6 AND DUP6 SUB PUSH2 0x138A JUMPI PUSH1 0xA0 DUP3 ADD MLOAD SWAP2 PUSH1 0xC0 DUP2 ADD MLOAD SWAP2 PUSH1 0x1 PUSH1 0x1 PUSH1 0x40 SHL SUB DUP4 GT PUSH2 0x1386 JUMPI PUSH2 0xECA SWAP3 PUSH1 0x20 DUP1 SWAP3 ADD SWAP3 ADD ADD PUSH2 0x15C7 JUMP JUMPDEST SWAP2 DUP1 DUP7 MSTORE PUSH1 0x8 PUSH1 0x20 MSTORE PUSH1 0xFF PUSH1 0x40 DUP8 KECCAK256 SLOAD AND PUSH2 0x1341 JUMPI DUP6 MSTORE PUSH1 0x8 PUSH1 0x20 MSTORE PUSH1 0x40 DUP1 DUP7 KECCAK256 DUP1 SLOAD PUSH1 0xFF NOT AND PUSH1 0x1 OR SWAP1 SSTORE PUSH1 0x2 SLOAD SWAP1 MLOAD PUSH4 0x5E8BE19 PUSH1 0xE4 SHL DUP2 MSTORE PUSH1 0x4 DUP2 ADD DUP6 SWAP1 MSTORE SWAP3 PUSH1 0x1 PUSH1 0x1 PUSH1 0xA0 SHL SUB SWAP2 SWAP1 SWAP2 AND SWAP2 SWAP1 DUP7 DUP5 PUSH1 0x24 DUP2 DUP7 GAS STATICCALL SWAP4 DUP5 ISZERO PUSH2 0x1336 JUMPI DUP8 SWAP5 PUSH2 0x131A JUMPI JUMPDEST POP PUSH1 0x40 DUP5 ADD MLOAD SWAP4 PUSH1 0x60 DUP2 ADD MLOAD PUSH1 0x80 DUP3 ADD MLOAD PUSH1 0xA0 DUP4 ADD MLOAD PUSH1 0xC0 DUP5 ADD MLOAD SWAP1 PUSH1 0xE0 DUP6 ADD MLOAD SWAP3 PUSH2 0x100 DUP7 ADD MLOAD SWAP5 PUSH1 0x40 MLOAD SWAP11 DUP12 PUSH1 0x1 PUSH1 0x1 PUSH1 0x40 SHL SUB PUSH1 0xE0 DUP3 DUP2 DUP2 ADD LT SWAP3 ADD GT OR PUSH2 0x1306 JUMPI PUSH1 0xE0 DUP13 ADD PUSH1 0x40 MSTORE DUP12 MSTORE PUSH1 0x20 DUP12 ADD MSTORE PUSH1 0x40 DUP11 ADD MSTORE PUSH1 0x60 DUP10 ADD MSTORE PUSH1 0x80 DUP9 ADD MSTORE PUSH1 0xA0 DUP8 ADD MSTORE PUSH1 0xC0 DUP7 ADD MSTORE PUSH2 0x120 DUP2 ADD MLOAD SWAP3 PUSH2 0x140 DUP3 ADD MLOAD PUSH2 0x160 DUP4 ADD MLOAD PUSH1 0x3 DUP2 LT ISZERO PUSH2 0x12F2 JUMPI PUSH2 0x180 DUP5 ADD MLOAD SWAP1 PUSH1 0x2 DUP3 LT ISZERO PUSH2 0x129E JUMPI PUSH2 0x1A0 DUP6 ADD MLOAD SWAP3 PUSH1 0x4 DUP5 LT ISZERO PUSH2 0x12DE JUMPI PUSH1 0x40 MLOAD SWAP8 DUP9 PUSH1 0xC0 DUP2 ADD LT PUSH1 0x1 PUSH1 0x1 PUSH1 0x40 SHL SUB PUSH1 0xC0 DUP12 ADD GT OR PUSH2 0x12CA JUMPI PUSH1 0xC0 DUP10 ADD PUSH1 0x40 MSTORE DUP9 MSTORE PUSH1 0x20 DUP9 ADD MSTORE PUSH1 0x40 DUP8 ADD MSTORE PUSH1 0x60 DUP7 ADD MSTORE PUSH1 0x80 DUP6 ADD MSTORE PUSH1 0xA0 DUP5 ADD MSTORE PUSH2 0x1E0 DUP2 ADD MLOAD SWAP1 PUSH2 0x200 DUP2 ADD MLOAD PUSH1 0x40 MLOAD SWAP3 DUP4 PUSH1 0x60 DUP2 ADD LT PUSH1 0x1 PUSH1 0x1 PUSH1 0x40 SHL SUB PUSH1 0x60 DUP7 ADD GT OR PUSH2 0x12B6 JUMPI PUSH1 0x60 DUP5 ADD PUSH1 0x40 MSTORE DUP4 MSTORE PUSH1 0x40 MLOAD DUP1 PUSH1 0x20 DUP2 ADD LT PUSH1 0x1 PUSH1 0x1 PUSH1 0x40 SHL SUB PUSH1 0x20 DUP4 ADD GT OR PUSH2 0x12B6 JUMPI PUSH1 0x20 DUP2 ADD PUSH1 0x40 MSTORE DUP11 DUP2 MSTORE PUSH1 0x20 DUP5 ADD MSTORE PUSH1 0x40 DUP4 ADD MSTORE PUSH2 0x2A0 PUSH1 0x1 DUP1 PUSH1 0xA0 SHL SUB SWAP2 ADD MLOAD AND SWAP3 DUP5 EXTCODESIZE ISZERO PUSH2 0x12B2 JUMPI PUSH1 0x40 MLOAD SWAP6 PUSH4 0x6BFA74C3 PUSH1 0xE0 SHL DUP8 MSTORE PUSH1 0xC0 PUSH1 0x4 DUP9 ADD MSTORE PUSH1 0xC0 PUSH2 0x1121 DUP9 PUSH2 0x110B PUSH2 0x10F6 PUSH2 0x10E1 PUSH2 0x10C9 DUP8 MLOAD PUSH1 0xE0 PUSH1 0xC4 DUP8 ADD MSTORE PUSH2 0x1A4 DUP7 ADD SWAP1 PUSH2 0x1883 JUMP JUMPDEST PUSH1 0x20 DUP9 ADD MLOAD PUSH1 0xC3 NOT SWAP6 PUSH1 0xE4 DUP8 DUP3 DUP6 SUB ADD SWAP2 ADD MSTORE PUSH2 0x1933 JUMP JUMPDEST PUSH1 0x40 DUP8 ADD MLOAD DUP14 DUP3 SUB DUP6 ADD PUSH2 0x104 DUP16 ADD MSTORE PUSH2 0x1883 JUMP JUMPDEST PUSH1 0x60 DUP7 ADD MLOAD DUP13 DUP3 SUB DUP5 ADD PUSH2 0x124 DUP15 ADD MSTORE PUSH2 0x1883 JUMP JUMPDEST SWAP1 PUSH1 0x80 DUP6 ADD MLOAD SWAP1 DUP12 DUP4 SUB ADD PUSH2 0x144 DUP13 ADD MSTORE PUSH2 0x1883 JUMP JUMPDEST SWAP2 PUSH1 0xA0 DUP2 ADD MLOAD PUSH2 0x164 DUP11 ADD MSTORE ADD MLOAD PUSH2 0x184 DUP9 ADD MSTORE PUSH1 0x3 NOT DUP8 DUP3 SUB ADD PUSH1 0x24 DUP9 ADD MSTORE DUP2 MLOAD DUP2 MSTORE PUSH2 0x115E PUSH1 0x20 DUP4 ADD MLOAD PUSH1 0xC0 PUSH1 0x20 DUP5 ADD MSTORE PUSH1 0xC0 DUP4 ADD SWAP1 PUSH2 0x1883 JUMP JUMPDEST SWAP2 PUSH1 0x40 DUP2 ADD MLOAD PUSH1 0x3 DUP2 LT ISZERO PUSH2 0x129E JUMPI PUSH1 0x40 DUP4 ADD MSTORE PUSH1 0x60 DUP2 ADD MLOAD PUSH1 0x2 DUP2 LT ISZERO PUSH2 0x129E JUMPI PUSH1 0x60 DUP4 ADD MSTORE PUSH1 0x80 DUP2 ADD MLOAD PUSH1 0x4 DUP2 LT ISZERO PUSH2 0x129E JUMPI DUP12 SWAP8 SWAP6 PUSH2 0x11FB DUP11 SWAP9 SWAP4 SWAP7 DUP11 SWAP7 DUP7 PUSH1 0xA0 DUP1 DUP14 SWAP12 PUSH2 0x120D SWAP9 PUSH1 0x80 DUP15 SWAP13 ADD MSTORE ADD MLOAD SWAP2 ADD MSTORE PUSH1 0x3 NOT DUP8 DUP3 SUB ADD PUSH1 0x44 DUP9 ADD MSTORE PUSH1 0x40 PUSH2 0x11EA PUSH2 0x11D8 DUP5 MLOAD PUSH1 0x60 DUP6 MSTORE PUSH1 0x60 DUP6 ADD SWAP1 PUSH2 0x1883 JUMP JUMPDEST PUSH1 0x20 DUP6 ADD MLOAD DUP5 DUP3 SUB PUSH1 0x20 DUP7 ADD MSTORE PUSH2 0x1883 JUMP JUMPDEST SWAP3 ADD MLOAD SWAP1 PUSH1 0x40 DUP2 DUP5 SUB SWAP2 ADD MSTORE PUSH2 0x1933 JUMP JUMPDEST DUP5 DUP2 SUB PUSH1 0x3 NOT ADD PUSH1 0x64 DUP7 ADD MSTORE SWAP1 PUSH2 0x18A8 JUMP JUMPDEST SWAP1 CHAINID PUSH1 0x84 DUP5 ADD MSTORE PUSH1 0xA4 DUP4 ADD MSTORE SUB SWAP3 GAS CALL DUP1 ISZERO PUSH2 0x1293 JUMPI PUSH2 0x1264 JUMPI JUMPDEST POP PUSH1 0x40 MLOAD CHAINID DUP2 MSTORE PUSH1 0x1 PUSH1 0x1 PUSH1 0xA0 SHL SUB SWAP1 SWAP3 AND SWAP2 PUSH32 0x17A35FAD4F245F65A33DFC21A8118014A34E233321C287AB88FF612F9E1147F8 SWAP1 PUSH1 0x20 SWAP1 LOG3 DUP1 RETURN JUMPDEST PUSH1 0x1 PUSH1 0x1 PUSH1 0x40 SHL SUB DUP2 SWAP5 SWAP3 SWAP5 GT PUSH2 0x127F JUMPI PUSH1 0x40 MSTORE SWAP2 CODESIZE PUSH2 0x1228 JUMP JUMPDEST PUSH4 0x4E487B71 PUSH1 0xE0 SHL DUP3 MSTORE PUSH1 0x41 PUSH1 0x4 MSTORE PUSH1 0x24 DUP3 REVERT JUMPDEST PUSH1 0x40 MLOAD RETURNDATASIZE DUP7 DUP3 RETURNDATACOPY RETURNDATASIZE SWAP1 REVERT JUMPDEST PUSH4 0x4E487B71 PUSH1 0xE0 SHL DUP13 MSTORE PUSH1 0x21 PUSH1 0x4 MSTORE PUSH1 0x24 DUP13 REVERT JUMPDEST DUP9 DUP1 REVERT JUMPDEST PUSH4 0x4E487B71 PUSH1 0xE0 SHL DUP12 MSTORE PUSH1 0x41 PUSH1 0x4 MSTORE PUSH1 0x24 DUP12 REVERT JUMPDEST PUSH4 0x4E487B71 PUSH1 0xE0 SHL DUP15 MSTORE PUSH1 0x41 PUSH1 0x4 MSTORE PUSH1 0x24 DUP15 REVERT JUMPDEST PUSH4 0x4E487B71 PUSH1 0xE0 SHL DUP14 MSTORE PUSH1 0x21 PUSH1 0x4 MSTORE PUSH1 0x24 DUP14 REVERT JUMPDEST PUSH4 0x4E487B71 PUSH1 0xE0 SHL DUP12 MSTORE PUSH1 0x21 PUSH1 0x4 MSTORE PUSH1 0x24 DUP12 REVERT JUMPDEST PUSH4 0x4E487B71 PUSH1 0xE0 SHL DUP16 MSTORE PUSH1 0x41 PUSH1 0x4 MSTORE PUSH1 0x24 DUP16 REVERT JUMPDEST PUSH2 0x132F SWAP2 SWAP5 POP RETURNDATASIZE DUP1 DUP10 DUP4 RETURNDATACOPY PUSH2 0x704 DUP2 DUP4 PUSH2 0x141E JUMP JUMPDEST SWAP3 CODESIZE PUSH2 0xF31 JUMP JUMPDEST PUSH1 0x40 MLOAD RETURNDATASIZE DUP10 DUP3 RETURNDATACOPY RETURNDATASIZE SWAP1 REVERT JUMPDEST PUSH1 0x40 MLOAD PUSH3 0x461BCD PUSH1 0xE5 SHL DUP2 MSTORE PUSH1 0x20 PUSH1 0x4 DUP3 ADD MSTORE PUSH1 0x19 PUSH1 0x24 DUP3 ADD MSTORE PUSH32 0x4D65737361676520616C72656164792070726F63657373656400000000000000 PUSH1 0x44 DUP3 ADD MSTORE PUSH1 0x64 SWAP1 REVERT JUMPDEST DUP8 DUP1 REVERT JUMPDEST DUP6 DUP1 REVERT JUMPDEST DUP4 DUP1 REVERT JUMPDEST PUSH1 0x40 MLOAD PUSH3 0x461BCD PUSH1 0xE5 SHL DUP2 MSTORE PUSH1 0x20 PUSH1 0x4 DUP3 ADD MSTORE PUSH1 0x14 PUSH1 0x24 DUP3 ADD MSTORE PUSH20 0x13DB9B1E481C9BDD5D195C8818D85B8818D85B1B PUSH1 0x62 SHL PUSH1 0x44 DUP3 ADD MSTORE PUSH1 0x64 SWAP1 REVERT JUMPDEST DUP3 DUP1 REVERT JUMPDEST PUSH1 0xA0 DUP2 ADD SWAP1 DUP2 LT PUSH1 0x1 PUSH1 0x1 PUSH1 0x40 SHL SUB DUP3 GT OR PUSH2 0x13ED JUMPI PUSH1 0x40 MSTORE JUMP JUMPDEST PUSH4 0x4E487B71 PUSH1 0xE0 SHL PUSH1 0x0 MSTORE PUSH1 0x41 PUSH1 0x4 MSTORE PUSH1 0x24 PUSH1 0x0 REVERT JUMPDEST PUSH1 0x80 DUP2 ADD SWAP1 DUP2 LT PUSH1 0x1 PUSH1 0x1 PUSH1 0x40 SHL SUB DUP3 GT OR PUSH2 0x13ED JUMPI PUSH1 0x40 MSTORE JUMP JUMPDEST SWAP1 PUSH1 0x1F DUP1 NOT SWAP2 ADD AND DUP2 ADD SWAP1 DUP2 LT PUSH1 0x1 PUSH1 0x1 PUSH1 0x40 SHL SUB DUP3 GT OR PUSH2 0x13ED JUMPI PUSH1 0x40 MSTORE JUMP JUMPDEST PUSH1 0x1 PUSH1 0x1 PUSH1 0x40 SHL SUB DUP2 GT PUSH2 0x13ED JUMPI PUSH1 0x1F ADD PUSH1 0x1F NOT AND PUSH1 0x20 ADD SWAP1 JUMP JUMPDEST PUSH1 0x4 CALLDATALOAD SWAP1 PUSH1 0x1 PUSH1 0x1 PUSH1 0xA0 SHL SUB DUP3 AND DUP3 SUB PUSH2 0x592 JUMPI JUMP JUMPDEST PUSH1 0x0 SLOAD PUSH1 0x1 PUSH1 0x1 PUSH1 0xA0 SHL SUB AND CALLER SUB PUSH2 0x1484 JUMPI JUMP JUMPDEST PUSH1 0x64 PUSH1 0x40 MLOAD PUSH3 0x461BCD PUSH1 0xE5 SHL DUP2 MSTORE PUSH1 0x20 PUSH1 0x4 DUP3 ADD MSTORE PUSH1 0x20 PUSH1 0x24 DUP3 ADD MSTORE PUSH32 0x4F776E61626C653A2063616C6C6572206973206E6F7420746865206F776E6572 PUSH1 0x44 DUP3 ADD MSTORE REVERT JUMPDEST MLOAD SWAP1 PUSH1 0x1 PUSH1 0x1 PUSH1 0xA0 SHL SUB DUP3 AND DUP3 SUB PUSH2 0x592 JUMPI JUMP JUMPDEST PUSH1 0x0 JUMPDEST DUP4 DUP2 LT PUSH2 0x14EF JUMPI POP POP PUSH1 0x0 SWAP2 ADD MSTORE JUMP JUMPDEST DUP2 DUP2 ADD MLOAD DUP4 DUP3 ADD MSTORE PUSH1 0x20 ADD PUSH2 0x14DF JUMP JUMPDEST DUP2 PUSH1 0x1F DUP3 ADD SLT ISZERO PUSH2 0x592 JUMPI DUP1 MLOAD PUSH2 0x1515 DUP2 PUSH2 0x143F JUMP JUMPDEST SWAP3 PUSH2 0x1523 PUSH1 0x40 MLOAD SWAP5 DUP6 PUSH2 0x141E JUMP JUMPDEST DUP2 DUP5 MSTORE PUSH1 0x20 DUP3 DUP5 ADD ADD GT PUSH2 0x592 JUMPI PUSH2 0x1541 SWAP2 PUSH1 0x20 DUP1 DUP6 ADD SWAP2 ADD PUSH2 0x14DC JUMP JUMPDEST SWAP1 JUMP JUMPDEST SWAP1 DUP1 PUSH1 0x1F DUP4 ADD SLT ISZERO PUSH2 0x592 JUMPI DUP2 MLOAD SWAP1 PUSH1 0x1 PUSH1 0x1 PUSH1 0x40 SHL SUB SWAP3 DUP4 DUP4 GT PUSH2 0x13ED JUMPI DUP3 PUSH1 0x5 SHL PUSH1 0x40 MLOAD SWAP5 PUSH1 0x20 SWAP5 PUSH2 0x157A DUP7 DUP5 ADD DUP9 PUSH2 0x141E JUMP JUMPDEST DUP7 MSTORE DUP5 DUP1 DUP8 ADD SWAP3 DUP5 ADD ADD SWAP4 DUP1 DUP6 GT PUSH2 0x592 JUMPI DUP6 DUP5 ADD SWAP3 JUMPDEST DUP6 DUP5 LT PUSH2 0x15A2 JUMPI POP POP POP POP POP POP POP SWAP1 JUMP JUMPDEST DUP4 MLOAD DUP4 DUP2 GT PUSH2 0x592 JUMPI DUP8 SWAP2 PUSH2 0x15BC DUP5 DUP5 DUP1 SWAP5 DUP11 ADD ADD PUSH2 0x14FF JUMP JUMPDEST DUP2 MSTORE ADD SWAP4 ADD SWAP3 PUSH2 0x1591 JUMP JUMPDEST SWAP2 SWAP1 SWAP2 PUSH1 0xA0 DUP2 DUP5 SUB SLT PUSH2 0x592 JUMPI PUSH1 0x40 MLOAD SWAP1 PUSH1 0x1 PUSH1 0x1 PUSH1 0x40 SHL SUB SWAP1 PUSH1 0xA0 DUP4 ADD DUP3 DUP2 GT DUP5 DUP3 LT OR PUSH2 0x13ED JUMPI PUSH1 0x40 MSTORE DUP3 SWAP5 PUSH2 0x15FE DUP3 PUSH2 0x14C8 JUMP JUMPDEST DUP5 MSTORE PUSH1 0x20 DUP3 ADD MLOAD DUP4 DUP2 GT PUSH2 0x592 JUMPI DUP2 PUSH2 0x1618 SWAP2 DUP5 ADD PUSH2 0x14FF JUMP JUMPDEST PUSH1 0x20 DUP6 ADD MSTORE PUSH1 0x40 DUP3 ADD MLOAD DUP4 DUP2 GT PUSH2 0x592 JUMPI DUP2 PUSH2 0x1635 SWAP2 DUP5 ADD PUSH2 0x14FF JUMP JUMPDEST PUSH1 0x40 DUP6 ADD MSTORE PUSH1 0x60 DUP3 ADD MLOAD PUSH1 0x60 DUP6 ADD MSTORE PUSH1 0x80 DUP3 ADD MLOAD SWAP3 DUP4 GT PUSH2 0x592 JUMPI PUSH1 0x80 SWAP3 PUSH2 0x165D SWAP3 ADD PUSH2 0x14FF JUMP JUMPDEST SWAP2 ADD MSTORE JUMP JUMPDEST MLOAD SWAP1 DUP2 ISZERO ISZERO DUP3 SUB PUSH2 0x592 JUMPI JUMP JUMPDEST SWAP1 PUSH1 0x20 DUP3 DUP3 SUB SLT PUSH2 0x592 JUMPI DUP2 MLOAD PUSH1 0x1 PUSH1 0x1 PUSH1 0x40 SHL SUB SWAP3 DUP4 DUP3 GT PUSH2 0x592 JUMPI ADD SWAP1 PUSH2 0x2E0 SWAP3 DUP4 DUP4 DUP4 SUB SLT PUSH2 0x592 JUMPI PUSH1 0x40 MLOAD SWAP4 DUP5 ADD DUP5 DUP2 LT DUP3 DUP3 GT OR PUSH2 0x13ED JUMPI PUSH1 0x40 MSTORE DUP3 MLOAD DUP5 MSTORE PUSH2 0x16BF PUSH1 0x20 DUP5 ADD PUSH2 0x14C8 JUMP JUMPDEST PUSH1 0x20 DUP6 ADD MSTORE PUSH1 0x40 DUP4 ADD MLOAD DUP2 DUP2 GT PUSH2 0x592 JUMPI DUP3 PUSH2 0x16DC SWAP2 DUP6 ADD PUSH2 0x14FF JUMP JUMPDEST PUSH1 0x40 DUP6 ADD MSTORE PUSH1 0x60 DUP4 ADD MLOAD DUP2 DUP2 GT PUSH2 0x592 JUMPI DUP3 PUSH2 0x16F9 SWAP2 DUP6 ADD PUSH2 0x1544 JUMP JUMPDEST PUSH1 0x60 DUP6 ADD MSTORE PUSH1 0x80 DUP4 ADD MLOAD DUP2 DUP2 GT PUSH2 0x592 JUMPI DUP3 PUSH2 0x1716 SWAP2 DUP6 ADD PUSH2 0x14FF JUMP JUMPDEST PUSH1 0x80 DUP6 ADD MSTORE PUSH1 0xA0 DUP4 ADD MLOAD DUP2 DUP2 GT PUSH2 0x592 JUMPI DUP3 PUSH2 0x1733 SWAP2 DUP6 ADD PUSH2 0x14FF JUMP JUMPDEST PUSH1 0xA0 DUP6 ADD MSTORE PUSH1 0xC0 DUP4 ADD MLOAD DUP2 DUP2 GT PUSH2 0x592 JUMPI DUP3 PUSH2 0x1750 SWAP2 DUP6 ADD PUSH2 0x14FF JUMP JUMPDEST PUSH1 0xC0 DUP6 ADD MSTORE PUSH1 0xE0 DUP4 ADD MLOAD PUSH1 0xE0 DUP6 ADD MSTORE PUSH2 0x100 DUP1 DUP5 ADD MLOAD SWAP1 DUP6 ADD MSTORE PUSH2 0x120 DUP1 DUP5 ADD MLOAD SWAP1 DUP6 ADD MSTORE PUSH2 0x140 DUP1 DUP5 ADD MLOAD DUP3 DUP2 GT PUSH2 0x592 JUMPI DUP4 PUSH2 0x178F SWAP2 DUP7 ADD PUSH2 0x14FF JUMP JUMPDEST SWAP1 DUP6 ADD MSTORE PUSH2 0x160 DUP1 DUP5 ADD MLOAD SWAP1 PUSH1 0x3 DUP3 LT ISZERO PUSH2 0x592 JUMPI DUP6 ADD MSTORE PUSH2 0x180 DUP1 DUP5 ADD MLOAD SWAP1 PUSH1 0x2 DUP3 LT ISZERO PUSH2 0x592 JUMPI DUP6 ADD MSTORE PUSH2 0x1A0 DUP1 DUP5 ADD MLOAD SWAP1 PUSH1 0x4 DUP3 LT ISZERO PUSH2 0x592 JUMPI DUP6 ADD MSTORE PUSH2 0x1C0 DUP1 DUP5 ADD MLOAD SWAP1 DUP6 ADD MSTORE PUSH2 0x1E0 DUP1 DUP5 ADD MLOAD DUP3 DUP2 GT PUSH2 0x592 JUMPI DUP4 PUSH2 0x17F4 SWAP2 DUP7 ADD PUSH2 0x14FF JUMP JUMPDEST SWAP1 DUP6 ADD MSTORE PUSH2 0x200 DUP1 DUP5 ADD MLOAD DUP3 DUP2 GT PUSH2 0x592 JUMPI DUP4 PUSH2 0x1812 SWAP2 DUP7 ADD PUSH2 0x1544 JUMP JUMPDEST SWAP1 DUP6 ADD MSTORE PUSH2 0x220 SWAP2 DUP3 DUP5 ADD MLOAD SWAP2 DUP3 GT PUSH2 0x592 JUMPI PUSH2 0x1830 SWAP2 DUP5 ADD PUSH2 0x15C7 JUMP JUMPDEST SWAP1 DUP4 ADD MSTORE PUSH2 0x240 PUSH2 0x1842 DUP2 DUP4 ADD PUSH2 0x1662 JUMP JUMPDEST SWAP1 DUP4 ADD MSTORE PUSH2 0x260 PUSH2 0x1854 DUP2 DUP4 ADD PUSH2 0x1662 JUMP JUMPDEST SWAP1 DUP4 ADD MSTORE PUSH2 0x280 DUP1 DUP3 ADD MLOAD SWAP1 DUP4 ADD MSTORE PUSH2 0x2A0 PUSH2 0x1871 DUP2 DUP4 ADD PUSH2 0x14C8 JUMP JUMPDEST SWAP1 DUP4 ADD MSTORE PUSH2 0x2C0 DUP1 SWAP2 ADD MLOAD SWAP1 DUP3 ADD MSTORE SWAP1 JUMP JUMPDEST SWAP1 PUSH1 0x20 SWAP2 PUSH2 0x189C DUP2 MLOAD DUP1 SWAP3 DUP2 DUP6 MSTORE DUP6 DUP1 DUP7 ADD SWAP2 ADD PUSH2 0x14DC JUMP JUMPDEST PUSH1 0x1F ADD PUSH1 0x1F NOT AND ADD ADD SWAP1 JUMP JUMPDEST PUSH2 0x1541 SWAP2 PUSH1 0x1 DUP1 PUSH1 0xA0 SHL SUB DUP3 MLOAD AND DUP2 MSTORE PUSH1 0x80 PUSH2 0x18E8 PUSH2 0x18D6 PUSH1 0x20 DUP6 ADD MLOAD PUSH1 0xA0 PUSH1 0x20 DUP7 ADD MSTORE PUSH1 0xA0 DUP6 ADD SWAP1 PUSH2 0x1883 JUMP JUMPDEST PUSH1 0x40 DUP6 ADD MLOAD DUP5 DUP3 SUB PUSH1 0x40 DUP7 ADD MSTORE PUSH2 0x1883 JUMP JUMPDEST SWAP3 PUSH1 0x60 DUP2 ADD MLOAD PUSH1 0x60 DUP5 ADD MSTORE ADD MLOAD SWAP1 PUSH1 0x80 DUP2 DUP5 SUB SWAP2 ADD MSTORE PUSH2 0x1883 JUMP JUMPDEST RETURNDATASIZE ISZERO PUSH2 0x192E JUMPI RETURNDATASIZE SWAP1 PUSH2 0x1914 DUP3 PUSH2 0x143F JUMP JUMPDEST SWAP2 PUSH2 0x1922 PUSH1 0x40 MLOAD SWAP4 DUP5 PUSH2 0x141E JUMP JUMPDEST DUP3 MSTORE RETURNDATASIZE PUSH1 0x0 PUSH1 0x20 DUP5 ADD RETURNDATACOPY JUMP JUMPDEST PUSH1 0x60 SWAP1 JUMP JUMPDEST SWAP1 DUP1 DUP3 MLOAD SWAP1 DUP2 DUP2 MSTORE PUSH1 0x20 DUP1 SWAP2 ADD SWAP3 DUP2 DUP1 DUP5 PUSH1 0x5 SHL DUP4 ADD ADD SWAP6 ADD SWAP4 PUSH1 0x0 SWAP2 JUMPDEST DUP5 DUP4 LT PUSH2 0x1961 JUMPI POP POP POP POP POP POP SWAP1 JUMP JUMPDEST SWAP1 SWAP2 SWAP3 SWAP4 SWAP5 SWAP6 DUP5 DUP1 PUSH2 0x197F PUSH1 0x1 SWAP4 PUSH1 0x1F NOT DUP7 DUP3 SUB ADD DUP8 MSTORE DUP11 MLOAD PUSH2 0x1883 JUMP JUMPDEST SWAP9 ADD SWAP4 ADD SWAP4 ADD SWAP2 SWAP5 SWAP4 SWAP3 SWAP1 PUSH2 0x1951 JUMP JUMPDEST SWAP1 PUSH2 0x26DE SWAP2 DUP3 DUP2 MUL SWAP3 DUP2 DUP5 DIV EQ SWAP1 ISZERO OR ISZERO PUSH2 0x19A6 JUMPI JUMP JUMPDEST PUSH4 0x4E487B71 PUSH1 0xE0 SHL PUSH1 0x0 MSTORE PUSH1 0x11 PUSH1 0x4 MSTORE PUSH1 0x24 PUSH1 0x0 REVERT JUMPDEST ISZERO PUSH2 0x19C3 JUMPI JUMP JUMPDEST PUSH1 0x40 MLOAD PUSH3 0x461BCD PUSH1 0xE5 SHL DUP2 MSTORE PUSH1 0x20 PUSH1 0x4 DUP3 ADD MSTORE PUSH1 0x16 PUSH1 0x24 DUP3 ADD MSTORE PUSH22 0x109C9A5919D9481D1C985B9CD9995C8819985A5B1959 PUSH1 0x52 SHL PUSH1 0x44 DUP3 ADD MSTORE PUSH1 0x64 SWAP1 REVERT JUMPDEST PUSH1 0x40 DUP1 MLOAD SWAP1 DUP2 ADD SWAP2 PUSH1 0x1 PUSH1 0x1 PUSH1 0xA0 SHL SUB AND PUSH1 0x1 PUSH1 0x1 PUSH1 0x40 SHL SUB DUP4 GT DUP3 DUP5 LT OR PUSH2 0x13ED JUMPI PUSH2 0x1A70 SWAP3 PUSH1 0x40 MSTORE PUSH1 0x0 DUP1 PUSH1 0x20 SWAP6 DUP7 DUP6 MSTORE PUSH32 0x5361666545524332303A206C6F772D6C6576656C2063616C6C206661696C6564 DUP8 DUP7 ADD MSTORE DUP7 DUP2 MLOAD SWAP2 ADD DUP3 DUP6 GAS CALL PUSH2 0x1A6A PUSH2 0x1903 JUMP JUMPDEST SWAP2 PUSH2 0x1AFF JUMP JUMPDEST DUP1 MLOAD DUP3 DUP2 ISZERO SWAP2 DUP3 ISZERO PUSH2 0x1AE0 JUMPI JUMPDEST POP POP SWAP1 POP ISZERO PUSH2 0x1A89 JUMPI POP JUMP JUMPDEST PUSH1 0x84 SWAP1 PUSH1 0x40 MLOAD SWAP1 PUSH3 0x461BCD PUSH1 0xE5 SHL DUP3 MSTORE PUSH1 0x4 DUP3 ADD MSTORE PUSH1 0x2A PUSH1 0x24 DUP3 ADD MSTORE PUSH32 0x5361666545524332303A204552433230206F7065726174696F6E20646964206E PUSH1 0x44 DUP3 ADD MSTORE PUSH10 0x1BDD081CDD58D8D95959 PUSH1 0xB2 SHL PUSH1 0x64 DUP3 ADD MSTORE REVERT JUMPDEST DUP4 DUP1 SWAP3 SWAP4 POP ADD SUB SLT PUSH2 0x592 JUMPI DUP2 PUSH2 0x1AF7 SWAP2 ADD PUSH2 0x1662 JUMP JUMPDEST DUP1 DUP3 CODESIZE PUSH2 0x1A7D JUMP JUMPDEST SWAP2 SWAP3 SWAP1 ISZERO PUSH2 0x1B61 JUMPI POP DUP2 MLOAD ISZERO PUSH2 0x1B13 JUMPI POP SWAP1 JUMP JUMPDEST EXTCODESIZE ISZERO PUSH2 0x1B1C JUMPI SWAP1 JUMP JUMPDEST PUSH1 0x40 MLOAD PUSH3 0x461BCD PUSH1 0xE5 SHL DUP2 MSTORE PUSH1 0x20 PUSH1 0x4 DUP3 ADD MSTORE PUSH1 0x1D PUSH1 0x24 DUP3 ADD MSTORE PUSH32 0x416464726573733A2063616C6C20746F206E6F6E2D636F6E7472616374000000 PUSH1 0x44 DUP3 ADD MSTORE PUSH1 0x64 SWAP1 REVERT JUMPDEST DUP3 MLOAD SWAP1 SWAP2 POP ISZERO PUSH2 0x1B74 JUMPI POP DUP1 MLOAD SWAP1 PUSH1 0x20 ADD REVERT JUMPDEST PUSH1 0x40 MLOAD PUSH3 0x461BCD PUSH1 0xE5 SHL DUP2 MSTORE PUSH1 0x20 PUSH1 0x4 DUP3 ADD MSTORE SWAP1 DUP2 SWAP1 PUSH2 0x1B98 SWAP1 PUSH1 0x24 DUP4 ADD SWAP1 PUSH2 0x1883 JUMP JUMPDEST SUB SWAP1 REVERT INVALID LOG2 PUSH5 0x6970667358 0x22 SLT KECCAK256 SDIV JUMPDEST BYTE 0x26 0xE5 SWAP15 SWAP16 PUSH9 0x66DB998282703E121B AND DUP16 PUSH30 0x275659D07FC296E290BCA64E64736F6C6343000813003300000000000000 "},"methodIdentifiers":{"MAX_SLIPPAGE()":"f9759518","TRANSFER_TIMEOUT()":"87065deb","acrossRouter()":"4f8359f1","addSupportedToken(address)":"6d69fcaf","bridgePayment(address,uint256,address,uint256)":"e2d995ae","cancelTimedOutTransfer(uint256)":"9f725a1d","crossChainTransferPending(uint256)":"84dfc55d","hemDealer()":"78df8f7d","initiateCrossChainTransfer(uint256,uint256)":"402ebd7d","isSupportedToken(address)":"240028e8","owner()":"8da5cb5b","processedMessages(bytes32)":"88ba16ab","receiveCrossChainTransfer(bytes,uint256)":"2351d10f","removeSupportedToken(address)":"76319190","renounceOwnership()":"715018a6","sourceChainIds(uint256)":"9efeff1c","supportedTokens(address)":"68c4ac26","transferHashes(bytes32)":"ceb6c12f","transferInitiatedAt(uint256)":"ef821fe8","transferOwnership(address)":"f2fde38b"}}}}}