{"contracts/HemDealer.sol":{"HemDealer":{"abi":[{"inputs":[{"internalType":"string","name":"name","type":"string"},{"internalType":"string","name":"symbol","type":"string"}],"stateMutability":"nonpayable","type":"constructor"},{"anonymous":false,"inputs":[{"indexed":true,"internalType":"address","name":"owner","type":"address"},{"indexed":true,"internalType":"address","name":"approved","type":"address"},{"indexed":true,"internalType":"uint256","name":"tokenId","type":"uint256"}],"name":"Approval","type":"event"},{"anonymous":false,"inputs":[{"indexed":true,"internalType":"address","name":"owner","type":"address"},{"indexed":true,"internalType":"address","name":"operator","type":"address"},{"indexed":false,"internalType":"bool","name":"approved","type":"bool"}],"name":"ApprovalForAll","type":"event"},{"anonymous":false,"inputs":[{"indexed":true,"internalType":"uint256","name":"carId","type":"uint256"},{"indexed":true,"internalType":"address","name":"owner","type":"address"}],"name":"CarDeleted","type":"event"},{"anonymous":false,"inputs":[{"indexed":true,"internalType":"uint256","name":"carId","type":"uint256"},{"indexed":true,"internalType":"address","name":"seller","type":"address"},{"indexed":false,"internalType":"uint256","name":"price","type":"uint256"}],"name":"CarListed","type":"event"},{"anonymous":false,"inputs":[{"indexed":true,"internalType":"uint256","name":"carId","type":"uint256"},{"indexed":true,"internalType":"address","name":"seller","type":"address"},{"indexed":true,"internalType":"address","name":"buyer","type":"address"},{"indexed":false,"internalType":"uint256","name":"price","type":"uint256"}],"name":"CarSold","type":"event"},{"anonymous":false,"inputs":[{"indexed":true,"internalType":"uint256","name":"carId","type":"uint256"},{"indexed":true,"internalType":"address","name":"owner","type":"address"}],"name":"CarUpdated","type":"event"},{"anonymous":false,"inputs":[{"indexed":true,"internalType":"address","name":"handler","type":"address"}],"name":"CrossChainHandlerSet","type":"event"},{"anonymous":false,"inputs":[{"indexed":true,"internalType":"address","name":"previousOwner","type":"address"},{"indexed":true,"internalType":"address","name":"newOwner","type":"address"}],"name":"OwnershipTransferred","type":"event"},{"anonymous":false,"inputs":[{"indexed":true,"internalType":"address","name":"from","type":"address"},{"indexed":true,"internalType":"address","name":"to","type":"address"},{"indexed":true,"internalType":"uint256","name":"tokenId","type":"uint256"}],"name":"Transfer","type":"event"},{"inputs":[{"internalType":"address","name":"to","type":"address"},{"internalType":"uint256","name":"tokenId","type":"uint256"}],"name":"approve","outputs":[],"stateMutability":"nonpayable","type":"function"},{"inputs":[{"internalType":"address","name":"owner","type":"address"}],"name":"balanceOf","outputs":[{"internalType":"uint256","name":"","type":"uint256"}],"stateMutability":"view","type":"function"},{"inputs":[{"internalType":"uint256","name":"carId","type":"uint256"}],"name":"buyCar","outputs":[],"stateMutability":"payable","type":"function"},{"inputs":[],"name":"crossChainHandler","outputs":[{"internalType":"contract HemDealerCrossChain","name":"","type":"address"}],"stateMutability":"view","type":"function"},{"inputs":[{"internalType":"uint256","name":"newCarId","type":"uint256"}],"name":"deleteCar","outputs":[],"stateMutability":"nonpayable","type":"function"},{"inputs":[],"name":"getAllCars","outputs":[{"components":[{"internalType":"uint256","name":"id","type":"uint256"},{"internalType":"address","name":"owner","type":"address"},{"internalType":"string","name":"name","type":"string"},{"internalType":"string[]","name":"images","type":"string[]"},{"internalType":"string","name":"description","type":"string"},{"internalType":"string","name":"make","type":"string"},{"internalType":"string","name":"model","type":"string"},{"internalType":"uint256","name":"year","type":"uint256"},{"internalType":"uint256","name":"vin","type":"uint256"},{"internalType":"uint256","name":"mileage","type":"uint256"},{"internalType":"string","name":"color","type":"string"},{"internalType":"enum HemDealer.CarCondition","name":"condition","type":"uint8"},{"internalType":"enum HemDealer.CarTransmission","name":"transmission","type":"uint8"},{"internalType":"enum HemDealer.FuelType","name":"fuelType","type":"uint8"},{"internalType":"uint256","name":"price","type":"uint256"},{"internalType":"string","name":"location","type":"string"},{"internalType":"string[]","name":"features","type":"string[]"},{"components":[{"internalType":"address","name":"wallet","type":"address"},{"internalType":"string","name":"sellerName","type":"string"},{"internalType":"string","name":"email","type":"string"},{"internalType":"uint256","name":"phoneNumber","type":"uint256"},{"internalType":"string","name":"profileImage","type":"string"}],"internalType":"struct HemDealer.SellerDetails","name":"seller","type":"tuple"},{"internalType":"bool","name":"sold","type":"bool"},{"internalType":"bool","name":"deleted","type":"bool"},{"internalType":"uint256","name":"destinationChainId","type":"uint256"},{"internalType":"address","name":"paymentToken","type":"address"},{"internalType":"uint256","name":"sourceChainId","type":"uint256"}],"internalType":"struct HemDealer.CarStruct[]","name":"","type":"tuple[]"}],"stateMutability":"view","type":"function"},{"inputs":[],"name":"getAllSales","outputs":[{"components":[{"internalType":"uint256","name":"id","type":"uint256"},{"internalType":"uint256","name":"newCarId","type":"uint256"},{"internalType":"uint256","name":"price","type":"uint256"},{"internalType":"address","name":"owner","type":"address"}],"internalType":"struct HemDealer.SalesStruct[]","name":"","type":"tuple[]"}],"stateMutability":"view","type":"function"},{"inputs":[{"internalType":"uint256","name":"tokenId","type":"uint256"}],"name":"getApproved","outputs":[{"internalType":"address","name":"","type":"address"}],"stateMutability":"view","type":"function"},{"inputs":[{"internalType":"uint256","name":"newCarId","type":"uint256"}],"name":"getCar","outputs":[{"components":[{"internalType":"uint256","name":"id","type":"uint256"},{"internalType":"address","name":"owner","type":"address"},{"internalType":"string","name":"name","type":"string"},{"internalType":"string[]","name":"images","type":"string[]"},{"internalType":"string","name":"description","type":"string"},{"internalType":"string","name":"make","type":"string"},{"internalType":"string","name":"model","type":"string"},{"internalType":"uint256","name":"year","type":"uint256"},{"internalType":"uint256","name":"vin","type":"uint256"},{"internalType":"uint256","name":"mileage","type":"uint256"},{"internalType":"string","name":"color","type":"string"},{"internalType":"enum HemDealer.CarCondition","name":"condition","type":"uint8"},{"internalType":"enum HemDealer.CarTransmission","name":"transmission","type":"uint8"},{"internalType":"enum HemDealer.FuelType","name":"fuelType","type":"uint8"},{"internalType":"uint256","name":"price","type":"uint256"},{"internalType":"string","name":"location","type":"string"},{"internalType":"string[]","name":"features","type":"string[]"},{"components":[{"internalType":"address","name":"wallet","type":"address"},{"internalType":"string","name":"sellerName","type":"string"},{"internalType":"string","name":"email","type":"string"},{"internalType":"uint256","name":"phoneNumber","type":"uint256"},{"internalType":"string","name":"profileImage","type":"string"}],"internalType":"struct HemDealer.SellerDetails","name":"seller","type":"tuple"},{"internalType":"bool","name":"sold","type":"bool"},{"internalType":"bool","name":"deleted","type":"bool"},{"internalType":"uint256","name":"destinationChainId","type":"uint256"},{"internalType":"address","name":"paymentToken","type":"address"},{"internalType":"uint256","name":"sourceChainId","type":"uint256"}],"internalType":"struct HemDealer.CarStruct","name":"","type":"tuple"}],"stateMutability":"view","type":"function"},{"inputs":[],"name":"getMyCars","outputs":[{"components":[{"internalType":"uint256","name":"id","type":"uint256"},{"internalType":"address","name":"owner","type":"address"},{"internalType":"string","name":"name","type":"string"},{"internalType":"string[]","name":"images","type":"string[]"},{"internalType":"string","name":"description","type":"string"},{"internalType":"string","name":"make","type":"string"},{"internalType":"string","name":"model","type":"string"},{"internalType":"uint256","name":"year","type":"uint256"},{"internalType":"uint256","name":"vin","type":"uint256"},{"internalType":"uint256","name":"mileage","type":"uint256"},{"internalType":"string","name":"color","type":"string"},{"internalType":"enum HemDealer.CarCondition","name":"condition","type":"uint8"},{"internalType":"enum HemDealer.CarTransmission","name":"transmission","type":"uint8"},{"internalType":"enum HemDealer.FuelType","name":"fuelType","type":"uint8"},{"internalType":"uint256","name":"price","type":"uint256"},{"internalType":"string","name":"location","type":"string"},{"internalType":"string[]","name":"features","type":"string[]"},{"components":[{"internalType":"address","name":"wallet","type":"address"},{"internalType":"string","name":"sellerName","type":"string"},{"internalType":"string","name":"email","type":"string"},{"internalType":"uint256","name":"phoneNumber","type":"uint256"},{"internalType":"string","name":"profileImage","type":"string"}],"internalType":"struct HemDealer.SellerDetails","name":"seller","type":"tuple"},{"internalType":"bool","name":"sold","type":"bool"},{"internalType":"bool","name":"deleted","type":"bool"},{"internalType":"uint256","name":"destinationChainId","type":"uint256"},{"internalType":"address","name":"paymentToken","type":"address"},{"internalType":"uint256","name":"sourceChainId","type":"uint256"}],"internalType":"struct HemDealer.CarStruct[]","name":"","type":"tuple[]"}],"stateMutability":"view","type":"function"},{"inputs":[{"internalType":"address","name":"owner","type":"address"},{"internalType":"address","name":"operator","type":"address"}],"name":"isApprovedForAll","outputs":[{"internalType":"bool","name":"","type":"bool"}],"stateMutability":"view","type":"function"},{"inputs":[{"components":[{"internalType":"string","name":"name","type":"string"},{"internalType":"string[]","name":"images","type":"string[]"},{"internalType":"string","name":"description","type":"string"},{"internalType":"string","name":"make","type":"string"},{"internalType":"string","name":"model","type":"string"},{"internalType":"uint256","name":"year","type":"uint256"},{"internalType":"uint256","name":"vin","type":"uint256"}],"internalType":"struct HemDealer.CarBasicDetails","name":"basicDetails","type":"tuple"},{"components":[{"internalType":"uint256","name":"mileage","type":"uint256"},{"internalType":"string","name":"color","type":"string"},{"internalType":"enum HemDealer.CarCondition","name":"condition","type":"uint8"},{"internalType":"enum HemDealer.CarTransmission","name":"transmission","type":"uint8"},{"internalType":"enum HemDealer.FuelType","name":"fuelType","type":"uint8"},{"internalType":"uint256","name":"price","type":"uint256"}],"internalType":"struct HemDealer.CarTechnicalDetails","name":"technicalDetails","type":"tuple"},{"components":[{"internalType":"string","name":"location","type":"string"},{"internalType":"string","name":"carHistory","type":"string"},{"internalType":"string[]","name":"features","type":"string[]"}],"internalType":"struct HemDealer.CarAdditionalInfo","name":"additionalInfo","type":"tuple"},{"components":[{"internalType":"address","name":"wallet","type":"address"},{"internalType":"string","name":"sellerName","type":"string"},{"internalType":"string","name":"email","type":"string"},{"internalType":"uint256","name":"phoneNumber","type":"uint256"},{"internalType":"string","name":"profileImage","type":"string"}],"internalType":"struct HemDealer.SellerDetails","name":"sellerDetails","type":"tuple"},{"internalType":"uint256","name":"destinationChainId","type":"uint256"},{"internalType":"address","name":"paymentToken","type":"address"}],"name":"listCar","outputs":[],"stateMutability":"nonpayable","type":"function"},{"inputs":[],"name":"name","outputs":[{"internalType":"string","name":"","type":"string"}],"stateMutability":"view","type":"function"},{"inputs":[],"name":"owner","outputs":[{"internalType":"address","name":"","type":"address"}],"stateMutability":"view","type":"function"},{"inputs":[{"internalType":"uint256","name":"tokenId","type":"uint256"}],"name":"ownerOf","outputs":[{"internalType":"address","name":"","type":"address"}],"stateMutability":"view","type":"function"},{"inputs":[],"name":"renounceOwnership","outputs":[],"stateMutability":"nonpayable","type":"function"},{"inputs":[{"internalType":"address","name":"from","type":"address"},{"internalType":"address","name":"to","type":"address"},{"internalType":"uint256","name":"tokenId","type":"uint256"}],"name":"safeTransferFrom","outputs":[],"stateMutability":"nonpayable","type":"function"},{"inputs":[{"internalType":"address","name":"from","type":"address"},{"internalType":"address","name":"to","type":"address"},{"internalType":"uint256","name":"tokenId","type":"uint256"},{"internalType":"bytes","name":"data","type":"bytes"}],"name":"safeTransferFrom","outputs":[],"stateMutability":"nonpayable","type":"function"},{"inputs":[{"internalType":"address","name":"operator","type":"address"},{"internalType":"bool","name":"approved","type":"bool"}],"name":"setApprovalForAll","outputs":[],"stateMutability":"nonpayable","type":"function"},{"inputs":[{"internalType":"address payable","name":"_handler","type":"address"}],"name":"setCrossChainHandler","outputs":[],"stateMutability":"nonpayable","type":"function"},{"inputs":[{"internalType":"bytes4","name":"interfaceId","type":"bytes4"}],"name":"supportsInterface","outputs":[{"internalType":"bool","name":"","type":"bool"}],"stateMutability":"view","type":"function"},{"inputs":[],"name":"symbol","outputs":[{"internalType":"string","name":"","type":"string"}],"stateMutability":"view","type":"function"},{"inputs":[{"internalType":"uint256","name":"tokenId","type":"uint256"}],"name":"tokenURI","outputs":[{"internalType":"string","name":"","type":"string"}],"stateMutability":"view","type":"function"},{"inputs":[{"internalType":"address","name":"from","type":"address"},{"internalType":"address","name":"to","type":"address"},{"internalType":"uint256","name":"tokenId","type":"uint256"}],"name":"transferFrom","outputs":[],"stateMutability":"nonpayable","type":"function"},{"inputs":[{"internalType":"address","name":"newOwner","type":"address"}],"name":"transferOwnership","outputs":[],"stateMutability":"nonpayable","type":"function"},{"inputs":[{"internalType":"uint256","name":"newCarId","type":"uint256"},{"components":[{"internalType":"string","name":"name","type":"string"},{"internalType":"string[]","name":"images","type":"string[]"},{"internalType":"string","name":"description","type":"string"},{"internalType":"string","name":"make","type":"string"},{"internalType":"string","name":"model","type":"string"},{"internalType":"uint256","name":"year","type":"uint256"},{"internalType":"uint256","name":"vin","type":"uint256"}],"internalType":"struct HemDealer.CarBasicDetails","name":"basicDetails","type":"tuple"},{"components":[{"internalType":"uint256","name":"mileage","type":"uint256"},{"internalType":"string","name":"color","type":"string"},{"internalType":"enum HemDealer.CarCondition","name":"condition","type":"uint8"},{"internalType":"enum HemDealer.CarTransmission","name":"transmission","type":"uint8"},{"internalType":"enum HemDealer.FuelType","name":"fuelType","type":"uint8"},{"internalType":"uint256","name":"price","type":"uint256"}],"internalType":"struct HemDealer.CarTechnicalDetails","name":"technicalDetails","type":"tuple"},{"components":[{"internalType":"string","name":"location","type":"string"},{"internalType":"string","name":"carHistory","type":"string"},{"internalType":"string[]","name":"features","type":"string[]"}],"internalType":"struct HemDealer.CarAdditionalInfo","name":"additionalInfo","type":"tuple"},{"components":[{"internalType":"address","name":"wallet","type":"address"},{"internalType":"string","name":"sellerName","type":"string"},{"internalType":"string","name":"email","type":"string"},{"internalType":"uint256","name":"phoneNumber","type":"uint256"},{"internalType":"string","name":"profileImage","type":"string"}],"internalType":"struct HemDealer.SellerDetails","name":"sellerDetails","type":"tuple"}],"name":"updateCar","outputs":[],"stateMutability":"nonpayable","type":"function"}],"evm":{"bytecode":{"linkReferences":{},"object":"608060405234620003895762005544803803806200001d816200038e565b928339810190604081830312620003895780516001600160401b03908181116200038957836200004f918401620003ca565b916020938482015183811162000389576200006b9201620003ca565b60008054336001600160a01b031982168117835591949291906001600160a01b03167f8be0079c531659141344cd1fd0a4f28419497f9722a3daafe3b4186f6b6457e08680a381519383851162000293576001948554938685811c951680156200037e575b888610146200036a578190601f9586811162000317575b508890868311600114620002b3578492620002a7575b5050600019600383901b1c191690861b1785555b815193841162000293576002548581811c9116801562000288575b8782101462000274578381116200022b575b5085928411600114620001c55791839491849394620001b9575b50501b916000199060031b1c1916176002555b3315620001825760405161510790816200043d8239f35b6064906040519062461bcd60e51b82526004820152601060248201526f24b73b30b634b2103232b83637bcb2b960811b6044820152fd5b01519250388062000158565b919083601f19811660028552878520945b8888838310620002135750505010620001f9575b505050811b016002556200016b565b015160001960f88460031b161c19169055388080620001ea565b868601518855909601959485019487935001620001d6565b600282528682208480870160051c8201928988106200026a575b0160051c019086905b8281106200025e5750506200013e565b8381550186906200024e565b9250819262000245565b634e487b7160e01b82526022600452602482fd5b90607f16906200012c565b634e487b7160e01b81526041600452602490fd5b015190503880620000fd565b8885528985208994509190601f198416865b8c828210620003005750508411620002e6575b505050811b01855562000111565b015160001960f88460031b161c19169055388080620002d8565b8385015186558c97909501949384019301620002c5565b9091508784528884208680850160051c8201928b861062000360575b918a91869594930160051c01915b82811062000351575050620000e7565b8681558594508a910162000341565b9250819262000333565b634e487b7160e01b83526022600452602483fd5b94607f1694620000d0565b600080fd5b6040519190601f01601f191682016001600160401b03811183821017620003b457604052565b634e487b7160e01b600052604160045260246000fd5b919080601f84011215620003895782516001600160401b038111620003b45760209062000400601f8201601f191683016200038e565b92818452828287010111620003895760005b8181106200042857508260009394955001015290565b85810183015184820184015282016200041256fe61022080604052600436101561001457600080fd5b600090813560e01c90816301ffc9a714613f535750806306fdde0314613e84578063081812fc14613e65578063095ea7b314613cf05780630d5d841a1461276d57806323b872dd146127485780633339691714612565578063341fa05d1461245c57806342842e0e146124295780635e8be190146123a357806360098088146122705780636352211e1461223f5780636bfa74c314610c445780636c2310601461096857806370a08231146108d2578063715018a6146108785780638da5cb5b1461085157806395d89b411461076f57806396cc304f14610703578063a22cb46514610624578063abfe5d5714610540578063b88d4fde146104b3578063c87b56dd14610285578063d03703f51461025c578063e985e9c5146102085763f2fde38b1461014057600080fd5b3461020557602036600319011261020557610159614008565b610161614580565b6001600160a01b039081169081156101b157600054826001600160601b0360a01b821617600055167f8be0079c531659141344cd1fd0a4f28419497f9722a3daafe3b4186f6b6457e0600080a380f35b60405162461bcd60e51b815260206004820152602660248201527f4f776e61626c653a206e6577206f776e657220697320746865207a65726f206160448201526564647265737360d01b6064820152608490fd5b80fd5b503461020557604036600319011261020557610222614008565b604061022c614023565b9260018060a01b0380931681526006602052209116600052602052602060ff604060002054166040519015158152f35b5034610205578060031936011261020557600b546040516001600160a01b039091168152602090f35b5034610205576020908160031936011261020557600435600081815260036020526040902054909183916102c3906001600160a01b031615156145d8565b604051926102d0846140b4565b8184528115610499578190807a184f03e93ff9f4daa797ed6e38ed64bf6a1f010000000000000000818181101561048b575b5050846d04ee2d6d415b85acef81000000008084101561047d575b5050662386f26fc100008083101561046e575b506305f5e1008083101561045f575b5061271080831015610450575b506064821015610440575b600a80921015610436575b6001908160218186019561038e610378886140f0565b97610386604051998a6140cf565b8089526140f0565b878a019890601f1901368a3750860101905b610400575b50505050926103e692916103da9460405195836103cb8895518092888089019101613fc0565b84019151809386840190613fc0565b010380845201826140cf565b905b6103fc604051928284938452830190613fe3565b0390f35b600019019083906f181899199a1a9b1b9c1cb0b131b232b360811b8282061a835304918215610431579190826103a0565b6103a5565b9160010191610362565b9190606460029104910191610357565b6004919392049101913861034c565b6008919392049101913861033f565b60109193920491019138610330565b93019290910490843861031d565b604094500491503880610302565b505050506040516104a9816140b4565b60008152906103e8565b5034610205576080366003190112610205576104cd614008565b6104d5614023565b90606435906044356001600160401b03831161053c573660238401121561053c576105399361051161053494369060248160040135910161410b565b9261052461051f843361483e565b614765565b61052f838383614906565b614b33565b61481a565b80f35b8480fd5b50346102055780600319360112610205576007548160015b828111156105e5575061056a9061503b565b918060015b8381111561058557604051806103fc878261451e565b80825260096020526040822060ff601482015460081c16156105b1575b506105ac90615016565b61056f565b92906105de826105cd6105c76105ac9592615016565b96614e66565b6105d7828a61508b565b528761508b565b50906105a2565b808452600960205260ff601460408620015460081c161561060f575b61060a90615016565b610558565b9061061c61060a91615016565b919050610601565b50346102055760403660031901126102055761063e614008565b60243590811515908183036106ff576001600160a01b0316913383146106ba5761068b903385526006602052604085208460005260205260406000209060ff801983541691151516179055565b6040519081527f17307eab39ab6107e8899845ad3d59bd9653f200f220920489ca2b5937696c3160203392a380f35b60405162461bcd60e51b815260206004820152601960248201527f4552433732313a20617070726f766520746f2063616c6c6572000000000000006044820152606490fd5b8380fd5b5034610205576020366003190112610205576004356001600160a01b0381169081900361076b57610732614580565b600b80546001600160a01b031916821790557fe29ca28fd64dbdc992ce63b7fc32e81b50e1f2e800e0bbbb994cea2e35aa047c8280a280f35b5080fd5b5034610205578060031936011261020557604051600060025461079181614647565b8084529060019081811690811561082a57506001146107cf575b6103fc846107bb818603826140cf565b604051918291602083526020830190613fe3565b6002600090815292507f405787fa12a823e0f2b7631cc41b3ba8828b3321ca811111fa75cd3aa3bb5ace5b8284106108125750505081016020016107bb826107ab565b805460208587018101919091529093019281016107fa565b60ff191660208087019190915292151560051b850190920192506107bb91508390506107ab565b5034610205578060031936011261020557546040516001600160a01b039091168152602090f35b5034610205578060031936011261020557610891614580565b600080546001600160a01b0319811682556001600160a01b03167f8be0079c531659141344cd1fd0a4f28419497f9722a3daafe3b4186f6b6457e08280a380f35b5034610205576020366003190112610205576001600160a01b036108f4614008565b168015610911578160409160209352600483522054604051908152f35b60405162461bcd60e51b815260206004820152602960248201527f4552433732313a2061646472657373207a65726f206973206e6f7420612076616044820152683634b21037bbb732b960b91b6064820152608490fd5b5060208060031936011261076b576004358083526009825260018060a01b039060019161099e8184604088200154161515614d8d565b818552600984526109bc60ff601460408820015460081c1615614dce565b81855260098452604085206014810180549060ff82161580610c35575b15610bfd57601583018054909287914614610bc85750505082600b5416878460168501541691600c8501549086600f87015416938554823b1561053c576084928591604051978896879563716ccad760e11b875260048701526024860152604485015260648401525af18015610bbd57610baa575b50869083600b54169054813b15610ba657829160448392604051948593849263402ebd7d60e01b84528b600485015260248401525af18015610b9b57610b83575b50505b836008540180600855838752600a86526040872090600c83019586549060405192610abc8461406b565b8352888301878152604084019283526060840194338652805490600160401b821015610b6f5790610af19184820181556150b5565b949094610b5b5751845551908301555160028201559051600390910180546001600160a01b031916918416919091179055600f01549254604051908152339493909116927f8205a71867f7292bcef9e53d4774758d6173b03f63017dec9a03a6664b429dc591a480f35b634e487b7160e01b8c5260048c905260248cfd5b634e487b7160e01b8d52604160045260248dfd5b610b8c90614086565b610b97578538610a8f565b8580fd5b6040513d84823e3d90fd5b8280fd5b610bb690979197614086565b9538610a4e565b6040513d8a823e3d90fd5b60ff19161790555080840180546001600160a01b03191633908117909155600f820154610bf89185918516614906565b610a92565b60405162461bcd60e51b815260048101889052601060248201526f496e76616c696420707572636861736560801b6044820152606490fd5b508386840154163314156109d9565b50346102055760031960c03682011261076b576001600160401b036004351161076b5760e0816004353603011261076b576001600160401b036024351161076b5760c0816024353603011261076b576001600160401b036044351161076b576060816044353603011261076b5760643590816101a0526001600160401b038211610ba65760a091360301126102055760a43560c08190526001600160a01b0381160361020557600b54604051630480051d60e31b815260c0516001600160a01b039081166004830152909160209183916024918391165afa908115610b9b578291612204575b50156121bf576101a0516004016001600160a01b03610d4882614bbe565b16331490816121a3575b501561216d5760a460243501351561213857610d78602460043501600435600401614bd2565b905015612107576301e1338042046107b281018091116120f35760a46004350135116120bf57633b9aca00602435600401351015612088576007805460010190819055610dc9600480350180614c07565b6101605291610de060048035602481019101614bd2565b610df7604460049693963501600435600401614c07565b90610e0c606460043501600435600401614c07565b90610e21608460043501600435600401614c07565b919092610e376024803501602435600401614c07565b9590966003604460243501351015612084576002606460243501351015612084576004608460243501351015612084579a9b999a8c9a610e7c60046044350180614c07565b9a909b60443560440160443560040190610e9591614bd2565b9e90610140526040518060a052610eab90614039565b60a051523360a051602001523661016051610ec59261410b565b60a051604001523690610ed792614177565b60a051606001523690610ee99261410b565b60a051608001523690610efb9261410b565b60a05160a001523690610f0d9261410b565b60a05160c0015260043560a4013560a05160e0015260043560c4013560a05161010001526024356004013560a05161012001523690610f4b9261410b565b60a05161014001526024356044013560a0516101600190610f6b91614c39565b6024356064013560a0516101800190610f8391614c45565b6024356084013560a0516101a00190610f9b91614c51565b60243560a4013560a0516101c001523690610fb59261410b565b60a0516101e00152366101405191610fcc92614177565b60a0516102000152366101a05160040190610fe691614201565b60a05161022001528060a05161024001528060a051610260015260843560a0516102800152600160a01b6001900360c0511660a0516102a001528060a0516102c001528181526009602052604081209160a05180518455600160a01b600190036020820151166001600160601b0360a01b600186015416176001850155604001519283516001600160401b038111611768576110856002830154614647565b601f8111612051575b506020601f8211600114611fe55784958293949592611fda575b50508160011b916000199060031b1c19161760028201555b606060a0510151805190600160401b821161182a576003830154826003850155808310611f66575b506020016003830185526020852085915b838310611e385750505050608060a05101519283516001600160401b038111611c26576111296004840154614647565b601f8111611e05575b506020601f8211600114611d995782939495829392611d8e575b50508160011b916000199060031b1c19161760048301555b60a0805101519283516001600160401b038111611b2c576111886005850154614647565b601f8111611d5b575b506020601f8211600114611cef5783949582939492611ce4575b50508160011b916000199060031b1c19161760058401555b60c060a05101519283516001600160401b038111611768576111e86006830154614647565b601f8111611cb1575b506020601f8211600114611c455784958293949592611c3a575b50508160011b916000199060031b1c19161760068201555b61014060a05160e081015160078401556101008101516008840155610120810151600984015501519283516001600160401b038111611c2657611269600a840154614647565b601f8111611bf3575b506020601f8211600114611b875782939495829392611b7c575b50508160011b916000199060031b1c191617600a8301555b60a0516101608101516003811015611b6857600b840154610180830151906002821015611b54576101a08401516004811015611b40576101e09493929160ff62ff000061ff009360101b1694169062ffffff1916179160081b161717600b8501556101c0810151600c85015501519283516001600160401b038111611b2c57611330600d850154614647565b601f8111611af9575b506020601f8211600114611a8d5783949582939492611a82575b50508160011b916000199060031b1c191617600d8401555b61020060a0510151805190600160401b821161176857600e85015482600e870155808310611a0e575b50602001600e850184526020842084915b8383106118eb5750505050600f830161022060a05101519060018060a01b038251166001600160601b0360a01b82541617905560208101518051906001600160401b03821161182a5781906113fd6010880154614647565b601f81116118b8575b50602090601f831160011461184957869261183e575b50508160011b916000199060031b1c19161760108501555b60408101518051906001600160401b03821161182a576114576011870154614647565b601f81116117f7575b50602090601f831160011461178757608093929186918361177c575b50508160011b916000199060031b1c19161760118601555b6060810151601286015501519283516001600160401b038111611768576114be6013830154614647565b601f811161172a575b506020601f82116001146116be57849582939495926116b3575b50508160011b916000199060031b1c19161760138201555b60176102c06014830161154260a051916115266102408401511515829060ff801983541691151516179055565b610260830151815461ff00191690151560081b61ff0016179055565b61028081015160158501556016840160018060a01b036102a0830151166001600160601b0360a01b8254161790550151910155604051611581816140b4565b828152331561166f5760008281526003602052604090205461163991610534916115b7906001600160a01b031615155b15614c74565b6000848152600360205260409020546115da906001600160a01b031615156115b1565b33855260046020526040852060018154019055838552600360205260408520336001600160601b0360a01b8254161790558333867fddf252ad1be2c89b69c2b068fc378daa952ba7f163c4a11628f55a4df523b3ef8180a48333614a17565b6040519060a4602435013582527f346237025e4b201cfbdb8011c7afcd8a0cc16c50e910d6ac5645ab7406be429d60203393a380f35b606460405162461bcd60e51b815260206004820152602060248201527f4552433732313a206d696e7420746f20746865207a65726f20616464726573736044820152fd5b0151905038806114e1565b6013830185526020852090855b601f1984168110611712575060019394959683601f198116106116f9575b505050811b0160138201556114f9565b015160001960f88460031b161c191690553880806116e9565b9091602060018192858b0151815501930191016116cb565b6117589060138401865260208620601f840160051c8101916020851061175e575b601f0160051c0190614c5d565b386114c7565b909150819061174b565b634e487b7160e01b84526041600452602484fd5b01519050388061147c565b906011870186526020862091865b601f19851681106117df575091839160019360809695601f198116106117c6575b505050811b016011860155611494565b015160001960f88460031b161c191690553880806117b6565b91926020600181928685015181550194019201611795565b6118249060118801875260208720601f850160051c8101916020861061175e57601f0160051c0190614c5d565b38611460565b634e487b7160e01b85526041600452602485fd5b01519050388061141c565b9250601087018652602086209086935b601f198416851061189d576001945083601f19811610611884575b505050811b016010850155611434565b015160001960f88460031b161c19169055388080611874565b81810151835560209485019460019093019290910190611859565b6118e59060108901885260208820601f850160051c8101916020861061175e57601f0160051c0190614c5d565b38611406565b80518051906001600160401b0382116119fa576119088454614647565b601f81116119ca575b50602090601f831160011461195d5792826001949360209386958c92611952575b5050600019600383901b1c191690841b1785555b019201920191906113a5565b015190503880611932565b908489526020892091895b601f19851681106119b2575083602093600196938796938794601f19811610611999575b505050811b018555611946565b015160001960f88460031b161c1916905538808061198c565b91926020600181928685015181550194019201611968565b6119f490858a5260208a20601f850160051c8101916020861061175e57601f0160051c0190614c5d565b38611911565b634e487b7160e01b88526041600452602488fd5b600e8601855260208520908382015b8183018110611a2d575050611394565b8087611a3b60019354614647565b80611a49575b505001611a1d565b601f81118414611a5e575081555b8738611a41565b828252611a79601f60208420920160051c8201858301614c5d565b81835555611a57565b015190503880611353565b600d850184526020842090845b601f1984168110611ae1575060019394959683601f19811610611ac8575b505050811b01600d84015561136b565b015160001960f88460031b161c19169055388080611ab8565b9091602060018192858b015181550193019101611a9a565b611b2690600d8601855260208520601f840160051c8101916020851061175e57601f0160051c0190614c5d565b38611339565b634e487b7160e01b83526041600452602483fd5b634e487b7160e01b86526021600452602486fd5b634e487b7160e01b85526021600452602485fd5b634e487b7160e01b83526021600452602483fd5b01519050388061128c565b600a840183526020832090835b601f1984168110611bdb575060019394959683601f19811610611bc2575b505050811b01600a8301556112a4565b015160001960f88460031b161c19169055388080611bb2565b9091602060018192858b015181550193019101611b94565b611c2090600a8501845260208420601f840160051c8101916020851061175e57601f0160051c0190614c5d565b38611272565b634e487b7160e01b82526041600452602482fd5b01519050388061120b565b6006830185526020852090855b601f1984168110611c99575060019394959683601f19811610611c80575b505050811b016006820155611223565b015160001960f88460031b161c19169055388080611c70565b9091602060018192858b015181550193019101611c52565b611cde9060068401865260208620601f840160051c8101916020851061175e57601f0160051c0190614c5d565b386111f1565b0151905038806111ab565b6005850184526020842090845b601f1984168110611d43575060019394959683601f19811610611d2a575b505050811b0160058401556111c3565b015160001960f88460031b161c19169055388080611d1a565b9091602060018192858b015181550193019101611cfc565b611d889060058601855260208520601f840160051c8101916020851061175e57601f0160051c0190614c5d565b38611191565b01519050388061114c565b6004840183526020832090835b601f1984168110611ded575060019394959683601f19811610611dd4575b505050811b016004830155611164565b015160001960f88460031b161c19169055388080611dc4565b9091602060018192858b015181550193019101611da6565b611e329060048501845260208420601f840160051c8101916020851061175e57601f0160051c0190614c5d565b38611132565b80518051906001600160401b038211611f5257611e558454614647565b601f8111611f17575b50602090601f8311600114611eaa5792826001949360209386958d92611e9f575b5050600019600383901b1c191690841b1785555b019201920191906110f9565b015190503880611e7f565b90848a5260208a20918a5b601f1985168110611eff575083602093600196938796938794601f19811610611ee6575b505050811b018555611e93565b015160001960f88460031b161c19169055388080611ed9565b91926020600181928685015181550194019201611eb5565b611f4290858b5260208b206005601f8601811c82019260208710611f48575b601f01901c0190614c5d565b38611e5e565b9192508291611f36565b634e487b7160e01b89526041600452602489fd5b60038401865260208620908382015b8183018110611f855750506110e8565b8088611f9360019354614647565b80611fa1575b505001611f75565b601f81118414611fb6575081555b8838611f99565b828252611fd1601f60208420920160051c8201858301614c5d565b81835555611faf565b0151905038806110a8565b6002830185526020852090855b601f1984168110612039575060019394959683601f19811610612020575b505050811b0160028201556110c0565b015160001960f88460031b161c19169055388080612010565b9091602060018192858b015181550193019101611ff2565b61207e9060028401865260208620601f840160051c8101916020851061175e57601f0160051c0190614c5d565b3861108e565b8a80fd5b60405162461bcd60e51b815260206004820152600f60248201526e496e76616c6964206d696c6561676560881b6044820152606490fd5b60405162461bcd60e51b815260206004820152600c60248201526b24b73b30b634b2103cb2b0b960a11b6044820152606490fd5b634e487b7160e01b82526011600452602482fd5b60405162461bcd60e51b81526020600482015260096024820152684e6f20696d6167657360b81b6044820152606490fd5b60405162461bcd60e51b815260206004820152600d60248201526c496e76616c696420707269636560981b6044820152606490fd5b60405162461bcd60e51b815260206004820152600e60248201526d24b73b30b634b21039b2b63632b960911b6044820152606490fd5b6001600160a01b0391506121b690614bbe565b16151538610d52565b60405162461bcd60e51b815260206004820152601960248201527f556e737570706f72746564207061796d656e7420746f6b656e000000000000006044820152606490fd5b90506020813d602011612237575b8161221f602093836140cf565b8101031261076b5751801515810361076b5738610d2a565b3d9150612212565b503461020557602036600319011261020557602061225e600435614624565b6040516001600160a01b039091168152f35b50346102055760208060031936011261076b57600435908183526009815260ff601460408520015460081c1661236957828291828252600981526014604083200161010061ff00198254161790556122c783614624565b506122d183614624565b83835260058252604080842080546001600160a01b03199081169091556001600160a01b0390921680855260048452818520805460001901905585855260039093528320805490911690557fddf252ad1be2c89b69c2b068fc378daa952ba7f163c4a11628f55a4df523b3ef8280a433907f975848b3b721e792b1afe72032f4fa971d1faeb9bfd806ccf1ffada5bac8bafe8380a380f35b6064906040519062461bcd60e51b82526004820152601360248201527210d85c88185b1c9958591e4819195b195d1959606a1b6044820152fd5b50346102055760209081600319360112610205576040612414916004356123c8614cc0565b5080825260098552828220600101546123eb906001600160a01b03161515614d8d565b8082526009855261240860ff6014858520015460081c1615614dce565b81526009845220614e66565b906103fc60405192828493845283019061432f565b50346102055761053961053461243e3661429e565b906040519261244c846140b4565b86845261052461051f843361483e565b50346102055780600319360112610205576007548160015b8281111561250657506124869061503b565b918060015b838111156124a157604051806103fc878261451e565b80825260096020526040822060ff601482015460081c1615806124f0575b6124d3575b506124ce90615016565b61248b565b92906124e9826105cd6105c76124ce9592615016565b50906124c4565b5060018101546001600160a01b031633146124bf565b80845260096020526040842060ff601482015460081c1615908161254e575b50612539575b61253490615016565b612474565b9061254661253491615016565b91905061252b565b600101546001600160a01b03163314905038612525565b5034610205578060031936011261020557806001600754905b8181111561270a575061259082614160565b9161259e60405193846140cf565b8083526125ad601f1991614160565b01835b8181106126d5575050826001905b8282111561262e5750505060405190602080830190808452825180925280604085019301945b8281106125f15784840385f35b8551805185528083015185840152604080820151908601526060908101516001600160a01b031690850152948101946080909301926001016125e4565b8491939294905b8483526020600a81526040842080548410156126bb57916126af9161265d856126b5956150b5565b506040519161266b8361406b565b8154835260018201549083015260028101546040830152600301546001600160a01b0316606082015261269e828861508b565b526126a9818761508b565b50615016565b91615016565b90612635565b5050929491936126cb9150615016565b90919392936125be565b6020906040959495516126e78161406b565b8581528286818301528660408301528660608301528288010152019392936125b0565b9291838352600a602052604083205481018091116127345761272c9093615016565b92919261257e565b634e487b7160e01b83526011600452602483fd5b50346102055761053961275a3661429e565b9161276861051f843361483e565b614906565b50346102055760a0366003190112610205576001600160401b03602435116102055760e060243536036003190112610205576040519060e082018281106001600160401b03821117611c2657604052602435600401356001600160401b03811161076b576127e390600436916024350101614142565b82526024803501356001600160401b03811161076b5761280b906004369160243501016141e6565b6020830152604460243501356001600160401b03811161076b5761283790600436916024350101614142565b6040830152606460243501356001600160401b03811161076b5761286390600436916024350101614142565b6060830152608460243501356001600160401b03811161076b5761288f90600436916024350101614142565b608083015260243560a481013560a084015260c4013560c08301526001600160401b03604435116102055760c06044353603600319011261020557604051918260c08101106001600160401b0360c085011117611c265760c083016040526044356004013583526001600160401b03602460443501351161076b5761291f36604435602481013501600401614142565b60208401526003604480350135101561076b576044803501356040840152606460443501356002811015610ba6576060840152600460846044350135101561076b576044356084810135608085015260a4013560a08401526001600160401b036064351161076b5760606064353603600319011261076b576040518060608101106001600160401b03606083011117611b2c5760608101604052606435600401356001600160401b0381116106ff576129e090600436916064350101614142565b8152602460643501356001600160401b0381116106ff57612a0990600436916064350101614142565b6020820152604460643501356001600160401b0381116106ff57612a35906004369160643501016141e6565b60408201526001600160401b0360843511610ba657612a5936608435600401614201565b9160a085015115613cab5780515115613c6f5760208101515115613c2a5760608101515115613bee5760808101515115613bb15782516004358552600960205260408520600f01546001600160a01b03918216911603613b6c5782516001600160a01b03163303613b2757805190602081015161020052604081015160805260608101519060808101519060c060a0820151910151885160208a01519160408b0151936003851015613b135760608c0151956002871015613aff5760808d0151976004891015613aeb5760a08d9e9d9c9d0151998b519b604001519c6004358152600960205260409020806101e052601481015460ff1661018052601581015460e052600160a01b6001900360168201541661010052601701546101c0526040518061012052612b8890614039565b6004356101205152336101205160200152610120516040015261020051610120516060015260805161012051608001526101205160a001526101205160c001526101205160e00152610120516101000152610120516101200152610120516101400152610120516101600190612bfd91614c39565b610120516101800190612c0f91614c45565b610120516101a00190612c2191614c51565b610120516101c00152610120516101e001526101205161020001526101205161022001526101805115156101205161024001528061012051610260015260e05161012051610280015261010051610120516102a001526101c051610120516102c0015260043581526009602052604081206101205180518255600160a01b600190036020820151166001600160601b0360a01b600184015416176001830155604001519182516001600160401b038111611c2657612ce26002840154614647565b601f8111613ab8575b506020601f8211600114613a4d57829394829392613a42575b50508160011b916000199060031b1c19161760028301555b6060610120510151805190600160401b8211611b2c5760038401548260038601558083106139ce575b506020016003840183526020832083915b8383106138ab57858560806101205101519182516001600160401b038111611b2c57612d856004830154614647565b601f8111613878575b506020601f821160011461380d57839482939492613802575b50508160011b916000199060031b1c19161760048201555b60a06101205101519182516001600160401b038111611c2657612de56005840154614647565b601f81116137cf575b506020601f821160011461376457829394829392613759575b50508160011b916000199060031b1c19161760058301555b60c06101205101519182516001600160401b038111611b2c57612e456006830154614647565b601f8111613726575b506020601f82116001146136bb578394829394926136b0575b50508160011b916000199060031b1c19161760068201555b6101406101205160e081015160078401556101008101516008840155610120810151600984015501519182516001600160401b038111611c2657612ec6600a840154614647565b601f811161367d575b506020601f821160011461361257829394829392613607575b50508160011b916000199060031b1c191617600a8301555b610120516101608101516003811015611b6857600b840154610180830151906002821015611b54576101a08401516004811015611b40576101e09493929160ff62ff000061ff009360101b1694169062ffffff1916179160081b161717600b8501556101c0810151600c85015501519182516001600160401b038111611b2c57612f8d600d830154614647565b601f81116135d4575b506020601f82116001146135695783948293949261355e575b50508160011b916000199060031b1c191617600d8201555b610200610120510151805190600160401b821161176857600e83015482600e8501558083106134ea575b50602001600e830184526020842084915b8383106133db578585600f8101906102206101205101519160018060a01b038351166001600160601b0360a01b82541617905560208201519283516001600160401b038111611c26576130586010840154614647565b601f81116133a8575b506020601f821160011461333c5782939495829392613331575b50508160011b916000199060031b1c19161760108301555b60408301519283516001600160401b038111611b2c576130b66011850154614647565b601f81116132fe575b506020601f821160011461328e57819084959660809592613283575b50508160011b916000199060031b1c19161760118501555b6060810151601285015501519182516001600160401b038111611b2c57601382019061311f8254614647565b601f8111613253575b50602094601f82116001146131f05794849582939495926131e5575b50508160011b916000199060031b1c19161790555b60176102c06014830161318761012051916115266102408401511515829060ff801983541691151516179055565b61028081015160158501556016840160018060a01b036102a0830151166001600160601b0360a01b8254161790550151910155336004357f0ac4673e0c14f555f7a29dc1abe824e57feeb4dc61dffc46e24a31d970178d6a8380a380f35b015190508580613144565b601f198216958386526020862091865b88811061323b57508360019596979810613222575b505050811b019055613159565b015160001960f88460031b161c19169055858080613215565b91926020600181928685015181550194019201613200565b61327d9083865260208620601f840160051c8101916020851061175e57601f0160051c0190614c5d565b85613128565b0151905086806130db565b6011850184526020842095845b601f19841681106132e657509582916080959697600194601f198116106132cd575b505050811b0160118501556130f3565b015160001960f88460031b161c191690558680806132bd565b8282015188556001909701966020928301920161329b565b61332b9060118601855260208520601f840160051c8101916020851061175e57601f0160051c0190614c5d565b856130bf565b01519050858061307b565b6010840183526020832090835b601f1984168110613390575060019394959683601f19811610613377575b505050811b016010830155613093565b015160001960f88460031b161c19169055858080613367565b9091602060018192858b015181550193019101613349565b6133d59060108501845260208420601f840160051c8101916020851061175e57601f0160051c0190614c5d565b85613061565b80518051906001600160401b0382116119fa576133f88454614647565b601f81116134ba575b50602090601f831160011461344d5792826001949360209386958c92613442575b5050600019600383901b1c191690841b1785555b01920192019190613002565b015190508b80613422565b908489526020892091895b601f19851681106134a2575083602093600196938796938794601f19811610613489575b505050811b018555613436565b015160001960f88460031b161c191690558b808061347c565b91926020600181928685015181550194019201613458565b6134e490858a5260208a20601f850160051c8101916020861061175e57601f0160051c0190614c5d565b88613401565b600e8401855260208520908382015b8183018110613509575050612ff1565b808761351760019354614647565b80613525575b5050016134f9565b601f8111841461353a575081555b878961351d565b828252613555601f60208420920160051c8201858301614c5d565b81835555613533565b015190508480612faf565b600d830184526020842090845b601f19841681106135bc5750600193949583601f198116106135a3575b505050811b01600d820155612fc7565b015160001960f88460031b161c19169055848080613593565b9091602060018192858a015181550193019101613576565b61360190600d8401855260208520601f840160051c8101916020851061175e57601f0160051c0190614c5d565b84612f96565b015190508480612ee8565b600a840183526020832090835b601f19841681106136655750600193949583601f1981161061364c575b505050811b01600a830155612f00565b015160001960f88460031b161c1916905584808061363c565b9091602060018192858a01518155019301910161361f565b6136aa90600a8501845260208420601f840160051c8101916020851061175e57601f0160051c0190614c5d565b84612ecf565b015190508480612e67565b6006830184526020842090845b601f198416811061370e5750600193949583601f198116106136f5575b505050811b016006820155612e7f565b015160001960f88460031b161c191690558480806136e5565b9091602060018192858a0151815501930191016136c8565b6137539060068401855260208520601f840160051c8101916020851061175e57601f0160051c0190614c5d565b84612e4e565b015190508480612e07565b6005840183526020832090835b601f19841681106137b75750600193949583601f1981161061379e575b505050811b016005830155612e1f565b015160001960f88460031b161c1916905584808061378e565b9091602060018192858a015181550193019101613771565b6137fc9060058501845260208420601f840160051c8101916020851061175e57601f0160051c0190614c5d565b84612dee565b015190508480612da7565b6004830184526020842090845b601f19841681106138605750600193949583601f19811610613847575b505050811b016004820155612dbf565b015160001960f88460031b161c19169055848080613837565b9091602060018192858a01518155019301910161381a565b6138a59060048401855260208520601f840160051c8101916020851061175e57601f0160051c0190614c5d565b84612d8e565b80518051906001600160401b0382116139ba576138c88454614647565b601f811161398a575b50602090601f831160011461391d5792826001949360209386958b92613912575b5050600019600383901b1c191690841b1785555b01920192019190612d56565b0151905038806138f2565b908488526020882091885b601f1985168110613972575083602093600196938796938794601f19811610613959575b505050811b018555613906565b015160001960f88460031b161c1916905538808061394c565b91926020600181928685015181550194019201613928565b6139b490858952602089206005601f8601811c82019260208710611f4857601f01901c0190614c5d565b386138d1565b634e487b7160e01b87526041600452602487fd5b60038501845260208420908382015b81830181106139ed575050612d45565b80866139fb60019354614647565b80613a09575b5050016139dd565b601f81118414613a1e575081555b8638613a01565b828252613a39601f60208420920160051c8201858301614c5d565b81835555613a17565b015190503880612d04565b6002840183526020832090835b601f1984168110613aa05750600193949583601f19811610613a87575b505050811b016002830155612d1c565b015160001960f88460031b161c19169055388080613a77565b9091602060018192858a015181550193019101613a5a565b613ae59060028501845260208420601f840160051c8101916020851061175e57601f0160051c0190614c5d565b38612ceb565b634e487b7160e01b8d52602160045260248dfd5b634e487b7160e01b8c52602160045260248cfd5b634e487b7160e01b8b52602160045260248bfd5b60405162461bcd60e51b815260206004820152601f60248201527f53656c6c65722077616c6c6574206d757374206d617463682073656e646572006044820152606490fd5b60405162461bcd60e51b815260206004820152601b60248201527f43616e6e6f74206368616e67652073656c6c65722077616c6c657400000000006044820152606490fd5b60405162461bcd60e51b81526020600482015260156024820152744d6f64656c2063616e6e6f7420626520656d70747960581b6044820152606490fd5b60405162461bcd60e51b81526020600482015260146024820152734d616b652063616e6e6f7420626520656d70747960601b6044820152606490fd5b60405162461bcd60e51b815260206004820152601e60248201527f4174206c65617374206f6e6520696d61676520697320726571756972656400006044820152606490fd5b60405162461bcd60e51b81526020600482015260146024820152734e616d652063616e6e6f7420626520656d70747960601b6044820152606490fd5b60405162461bcd60e51b815260206004820152601c60248201527f5072696365206d7573742062652067726561746572207468616e2030000000006044820152606490fd5b503461020557604036600319011261020557613d0a614008565b602435906001600160a01b038080613d2185614624565b16921691808314613e1657803314908115613df5575b5015613d8a5782845260056020526040842080546001600160a01b03191683179055613d6283614624565b167f8c5be1e5ebec7d5bd14f71427d1e84f3dd0314c0f7b2291e5b200ac8c7c3b9258480a480f35b60405162461bcd60e51b815260206004820152603d60248201527f4552433732313a20617070726f76652063616c6c6572206973206e6f7420746f60448201527f6b656e206f776e6572206f7220617070726f76656420666f7220616c6c0000006064820152608490fd5b9050845260066020526040842033855260205260ff60408520541638613d37565b60405162461bcd60e51b815260206004820152602160248201527f4552433732313a20617070726f76616c20746f2063757272656e74206f776e656044820152603960f91b6064820152608490fd5b503461020557602036600319011261020557602061225e600435614727565b503461020557806003193601126102055760405190806001805491613ea883614647565b80865292828116908115613f295750600114613ecf575b6103fc856107bb818703826140cf565b92508083527fb10e2d527612073b26eecdfd717e6a320cf44b4afac2b0732d9fcbe2b7fa0cf65b828410613f115750505081016020016107bb826103fc613ebf565b80546020858701810191909152909301928101613ef6565b8695506103fc969350602092506107bb94915060ff191682840152151560051b8201019293613ebf565b90503461076b57602036600319011261076b5760043563ffffffff60e01b8116809103610ba657602092506380ac58cd60e01b8114908115613faf575b8115613f9e575b5015158152f35b6301ffc9a760e01b14905038613f97565b635b5e139f60e01b81149150613f90565b60005b838110613fd35750506000910152565b8181015183820152602001613fc3565b90602091613ffc81518092818552858086019101613fc0565b601f01601f1916010190565b600435906001600160a01b038216820361401e57565b600080fd5b602435906001600160a01b038216820361401e57565b6102e081019081106001600160401b0382111761405557604052565b634e487b7160e01b600052604160045260246000fd5b608081019081106001600160401b0382111761405557604052565b6001600160401b03811161405557604052565b60a081019081106001600160401b0382111761405557604052565b602081019081106001600160401b0382111761405557604052565b90601f801991011681019081106001600160401b0382111761405557604052565b6001600160401b03811161405557601f01601f191660200190565b929192614117826140f0565b9161412560405193846140cf565b82948184528183011161401e578281602093846000960137010152565b9080601f8301121561401e5781602061415d9335910161410b565b90565b6001600160401b0381116140555760051b60200190565b9291909261418484614160565b9161419260405193846140cf565b829480845260208094019060051b83019282841161401e5780915b8483106141bc57505050505050565b82356001600160401b03811161401e5786916141db8684938601614142565b8152019201916141ad565b9080601f8301121561401e5781602061415d93359101614177565b919060a08382031261401e576040519061421a82614099565b909283919080356001600160a01b038116810361401e5783526001600160401b0391602082013583811161401e5781614254918401614142565b6020850152604082013583811161401e5781614271918401614142565b604085015260608201356060850152608082013592831161401e576080926142999201614142565b910152565b606090600319011261401e576001600160a01b0390600435828116810361401e5791602435908116810361401e579060443590565b908082519081815260208091019281808460051b8301019501936000915b8483106143015750505050505090565b909192939495848061431f600193601f198682030187528a51613fe3565b98019301930191949392906142f1565b908151815260018060a01b03918260208201511660208301526143ec6143b86143a661439461438261437060408701516102e08060408b0152890190613fe3565b606087015188820360608a01526142d3565b60808601518782036080890152613fe3565b60a085015186820360a0880152613fe3565b60c084015185820360c0870152613fe3565b60e083015160e085015261010080840151908501526101208084015190850152610140808401519085830390860152613fe3565b610160808301519060038210156145085784015261018080830151906002821015614508578401526101a080830151906004821015614508576144c89261446792614453928701526101c080860151908701526101e0808601519087830390880152613fe3565b6102008085015190868303908701526142d3565b6102209081840151918582039086015285825116815260806144ad61449b602085015160a0602086015260a0850190613fe3565b60408501518482036040860152613fe3565b92606081015160608401520151906080818403910152613fe3565b92610240808301511515908401526102608083015115159084015261028080830151908401526102a0908183015116908301526102c08091015191015290565b634e487b7160e01b600052602160045260246000fd5b602080820190808352835180925260408301928160408460051b8301019501936000915b8483106145525750505050505090565b9091929394958480614570600193603f198682030187528a5161432f565b9801930193019194939290614542565b6000546001600160a01b0316330361459457565b606460405162461bcd60e51b815260206004820152602060248201527f4f776e61626c653a2063616c6c6572206973206e6f7420746865206f776e65726044820152fd5b156145df57565b60405162461bcd60e51b815260206004820152601860248201527f4552433732313a20696e76616c696420746f6b656e20494400000000000000006044820152606490fd5b6000908152600360205260409020546001600160a01b031661415d8115156145d8565b90600182811c92168015614677575b602083101461466157565b634e487b7160e01b600052602260045260246000fd5b91607f1691614656565b906040519182600082549261469584614647565b90818452600194858116908160001461470457506001146146c1575b50506146bf925003836140cf565b565b9093915060005260209081600020936000915b8183106146ec5750506146bf935082010138806146b1565b855488840185015294850194879450918301916146d4565b9150506146bf94506020925060ff191682840152151560051b82010138806146b1565b60008181526003602052604090205461474a906001600160a01b031615156145d8565b6000908152600560205260409020546001600160a01b031690565b1561476c57565b60405162461bcd60e51b815260206004820152602d60248201527f4552433732313a2063616c6c6572206973206e6f7420746f6b656e206f776e6560448201526c1c881bdc88185c1c1c9bdd9959609a1b6064820152608490fd5b60809060208152603260208201527f4552433732313a207472616e7366657220746f206e6f6e20455243373231526560408201527131b2b4bb32b91034b6b83632b6b2b73a32b960711b60608201520190565b1561482157565b60405162461bcd60e51b81528061483a600482016147c7565b0390fd5b906001600160a01b03808061485284614624565b16931691838314938415614885575b50831561486f575b50505090565b61487b91929350614727565b1614388080614869565b909350600052600660205260406000208260005260205260ff604060002054169238614861565b156148b357565b60405162461bcd60e51b815260206004820152602560248201527f4552433732313a207472616e736665722066726f6d20696e636f72726563742060448201526437bbb732b960d91b6064820152608490fd5b9061492e9161491484614624565b6001600160a01b03939184169284929091831684146148ac565b169182156149c6578161494b9161494486614624565b16146148ac565b7fddf252ad1be2c89b69c2b068fc378daa952ba7f163c4a11628f55a4df523b3ef60008481526005602052604081206001600160601b0360a01b9081815416905583825260046020526040822060001981540190558482526040822060018154019055858252600360205284604083209182541617905580a4565b60405162461bcd60e51b8152602060048201526024808201527f4552433732313a207472616e7366657220746f20746865207a65726f206164646044820152637265737360e01b6064820152608490fd5b9192600092909190803b15614b2957614a65946040518092630a85bd0160e11b9485835233600484015287602484015260448301526080606483015281878160209a8b966084830190613fe3565b03926001600160a01b03165af1849181614ae9575b50614ad8575050503d600014614ad0573d614a94816140f0565b90614aa260405192836140cf565b81528091833d92013e5b80519182614acd5760405162461bcd60e51b81528061483a600482016147c7565b01fd5b506060614aac565b6001600160e01b0319161492509050565b9091508581813d8311614b22575b614b0181836140cf565b8101031261053c57516001600160e01b03198116810361053c579038614a7a565b503d614af7565b5050915050600190565b9293600093909291803b15614bb357948491614b8d9660405180948193630a85bd0160e11b9788845233600485015260018060a01b0380921660248501526044840152608060648401528260209b8c976084830190613fe3565b0393165af1849181614ae95750614ad8575050503d600014614ad0573d614a94816140f0565b505050915050600190565b356001600160a01b038116810361401e5790565b903590601e198136030182121561401e57018035906001600160401b03821161401e57602001918160051b3603831361401e57565b903590601e198136030182121561401e57018035906001600160401b03821161401e5760200191813603831361401e57565b60038210156145085752565b60028210156145085752565b60048210156145085752565b818110614c68575050565b60008155600101614c5d565b15614c7b57565b60405162461bcd60e51b815260206004820152601c60248201527f4552433732313a20746f6b656e20616c7265616479206d696e746564000000006044820152606490fd5b60405190614ccd82614039565b816102c0600091828152826020820152606080604083015280808301528060808301528060a08301528060c08301528360e08301528361010083015283610120830152806101408301528361016083015283610180830152836101a0830152836101c0830152806101e08301528061020083015260405190614d4e82614099565b84825280602083015280604083015284818301526080820152610220820152826102408201528261026082015282610280820152826102a08201520152565b15614d9457565b60405162461bcd60e51b815260206004820152601260248201527110d85c88191bd95cc81b9bdd08195e1a5cdd60721b6044820152606490fd5b15614dd557565b60405162461bcd60e51b815260206004820152601460248201527310d85c881a185cc81899595b8819195b195d195960621b6044820152606490fd5b908154614e1d81614160565b92614e2b60405194856140cf565b818452600090815260208082208186015b848410614e4a575050505050565b6001838192614e5885614681565b815201920193019290614e3c565b90604051614e7381614039565b6102c0601782948054845260018060a01b03806001830154166020860152614e9d60028301614681565b6040860152614eae60038301614e11565b6060860152614ebf60048301614681565b6080860152614ed060058301614681565b60a0860152614ee160068301614681565b60c0860152600782015460e086015260088201546101008601526009820154610120860152614f12600a8301614681565b610140860152614f5360ff600b840154614f328282166101608a01614c39565b614f45828260081c166101808a01614c45565b60101c166101a08701614c51565b600c8201546101c0860152614f6a600d8301614681565b6101e0860152614f7c600e8301614e11565b610200860152604051614f8e81614099565b81600f840154168152614fa360108401614681565b6020820152614fb460118401614681565b604082015260128301546060820152614fcf60138401614681565b608082015261022086015260ff6014830154818116151561024088015260081c16151561026086015260158201546102808601526016820154166102a08501520154910152565b60001981146150255760010190565b634e487b7160e01b600052601160045260246000fd5b9061504582614160565b61505260405191826140cf565b8281528092615063601f1991614160565b019060005b82811061507457505050565b60209061507f614cc0565b82828501015201615068565b805182101561509f5760209160051b010190565b634e487b7160e01b600052603260045260246000fd5b805482101561509f5760005260206000209060021b019060009056fea26469706673582212200bfee2b26c142b8fd441a4ecae4561cf3dc24c424d21b63b009d6cd41460b02f64736f6c63430008130033","opcodes":"PUSH1 0x80 PUSH1 0x40 MSTORE CALLVALUE PUSH3 0x389 JUMPI PUSH3 0x5544 DUP1 CODESIZE SUB DUP1 PUSH3 0x1D DUP2 PUSH3 0x38E JUMP JUMPDEST SWAP3 DUP4 CODECOPY DUP2 ADD SWAP1 PUSH1 0x40 DUP2 DUP4 SUB SLT PUSH3 0x389 JUMPI DUP1 MLOAD PUSH1 0x1 PUSH1 0x1 PUSH1 0x40 SHL SUB SWAP1 DUP2 DUP2 GT PUSH3 0x389 JUMPI DUP4 PUSH3 0x4F SWAP2 DUP5 ADD PUSH3 0x3CA JUMP JUMPDEST SWAP2 PUSH1 0x20 SWAP4 DUP5 DUP3 ADD MLOAD DUP4 DUP2 GT PUSH3 0x389 JUMPI PUSH3 0x6B SWAP3 ADD PUSH3 0x3CA JUMP JUMPDEST PUSH1 0x0 DUP1 SLOAD CALLER PUSH1 0x1 PUSH1 0x1 PUSH1 0xA0 SHL SUB NOT DUP3 AND DUP2 OR DUP4 SSTORE SWAP2 SWAP5 SWAP3 SWAP2 SWAP1 PUSH1 0x1 PUSH1 0x1 PUSH1 0xA0 SHL SUB AND PUSH32 0x8BE0079C531659141344CD1FD0A4F28419497F9722A3DAAFE3B4186F6B6457E0 DUP7 DUP1 LOG3 DUP2 MLOAD SWAP4 DUP4 DUP6 GT PUSH3 0x293 JUMPI PUSH1 0x1 SWAP5 DUP6 SLOAD SWAP4 DUP7 DUP6 DUP2 SHR SWAP6 AND DUP1 ISZERO PUSH3 0x37E JUMPI JUMPDEST DUP9 DUP7 LT EQ PUSH3 0x36A JUMPI DUP2 SWAP1 PUSH1 0x1F SWAP6 DUP7 DUP2 GT PUSH3 0x317 JUMPI JUMPDEST POP DUP9 SWAP1 DUP7 DUP4 GT PUSH1 0x1 EQ PUSH3 0x2B3 JUMPI DUP5 SWAP3 PUSH3 0x2A7 JUMPI JUMPDEST POP POP PUSH1 0x0 NOT PUSH1 0x3 DUP4 SWAP1 SHL SHR NOT AND SWAP1 DUP7 SHL OR DUP6 SSTORE JUMPDEST DUP2 MLOAD SWAP4 DUP5 GT PUSH3 0x293 JUMPI PUSH1 0x2 SLOAD DUP6 DUP2 DUP2 SHR SWAP2 AND DUP1 ISZERO PUSH3 0x288 JUMPI JUMPDEST DUP8 DUP3 LT EQ PUSH3 0x274 JUMPI DUP4 DUP2 GT PUSH3 0x22B JUMPI JUMPDEST POP DUP6 SWAP3 DUP5 GT PUSH1 0x1 EQ PUSH3 0x1C5 JUMPI SWAP2 DUP4 SWAP5 SWAP2 DUP5 SWAP4 SWAP5 PUSH3 0x1B9 JUMPI JUMPDEST POP POP SHL SWAP2 PUSH1 0x0 NOT SWAP1 PUSH1 0x3 SHL SHR NOT AND OR PUSH1 0x2 SSTORE JUMPDEST CALLER ISZERO PUSH3 0x182 JUMPI PUSH1 0x40 MLOAD PUSH2 0x5107 SWAP1 DUP2 PUSH3 0x43D DUP3 CODECOPY RETURN JUMPDEST PUSH1 0x64 SWAP1 PUSH1 0x40 MLOAD SWAP1 PUSH3 0x461BCD PUSH1 0xE5 SHL DUP3 MSTORE PUSH1 0x4 DUP3 ADD MSTORE PUSH1 0x10 PUSH1 0x24 DUP3 ADD MSTORE PUSH16 0x24B73B30B634B2103232B83637BCB2B9 PUSH1 0x81 SHL PUSH1 0x44 DUP3 ADD MSTORE REVERT JUMPDEST ADD MLOAD SWAP3 POP CODESIZE DUP1 PUSH3 0x158 JUMP JUMPDEST SWAP2 SWAP1 DUP4 PUSH1 0x1F NOT DUP2 AND PUSH1 0x2 DUP6 MSTORE DUP8 DUP6 KECCAK256 SWAP5 JUMPDEST DUP9 DUP9 DUP4 DUP4 LT PUSH3 0x213 JUMPI POP POP POP LT PUSH3 0x1F9 JUMPI JUMPDEST POP POP POP DUP2 SHL ADD PUSH1 0x2 SSTORE PUSH3 0x16B JUMP JUMPDEST ADD MLOAD PUSH1 0x0 NOT PUSH1 0xF8 DUP5 PUSH1 0x3 SHL AND SHR NOT AND SWAP1 SSTORE CODESIZE DUP1 DUP1 PUSH3 0x1EA JUMP JUMPDEST DUP7 DUP7 ADD MLOAD DUP9 SSTORE SWAP1 SWAP7 ADD SWAP6 SWAP5 DUP6 ADD SWAP5 DUP8 SWAP4 POP ADD PUSH3 0x1D6 JUMP JUMPDEST PUSH1 0x2 DUP3 MSTORE DUP7 DUP3 KECCAK256 DUP5 DUP1 DUP8 ADD PUSH1 0x5 SHR DUP3 ADD SWAP3 DUP10 DUP9 LT PUSH3 0x26A JUMPI JUMPDEST ADD PUSH1 0x5 SHR ADD SWAP1 DUP7 SWAP1 JUMPDEST DUP3 DUP2 LT PUSH3 0x25E JUMPI POP POP PUSH3 0x13E JUMP JUMPDEST DUP4 DUP2 SSTORE ADD DUP7 SWAP1 PUSH3 0x24E JUMP JUMPDEST SWAP3 POP DUP2 SWAP3 PUSH3 0x245 JUMP JUMPDEST PUSH4 0x4E487B71 PUSH1 0xE0 SHL DUP3 MSTORE PUSH1 0x22 PUSH1 0x4 MSTORE PUSH1 0x24 DUP3 REVERT JUMPDEST SWAP1 PUSH1 0x7F AND SWAP1 PUSH3 0x12C JUMP JUMPDEST PUSH4 0x4E487B71 PUSH1 0xE0 SHL DUP2 MSTORE PUSH1 0x41 PUSH1 0x4 MSTORE PUSH1 0x24 SWAP1 REVERT JUMPDEST ADD MLOAD SWAP1 POP CODESIZE DUP1 PUSH3 0xFD JUMP JUMPDEST DUP9 DUP6 MSTORE DUP10 DUP6 KECCAK256 DUP10 SWAP5 POP SWAP2 SWAP1 PUSH1 0x1F NOT DUP5 AND DUP7 JUMPDEST DUP13 DUP3 DUP3 LT PUSH3 0x300 JUMPI POP POP DUP5 GT PUSH3 0x2E6 JUMPI JUMPDEST POP POP POP DUP2 SHL ADD DUP6 SSTORE PUSH3 0x111 JUMP JUMPDEST ADD MLOAD PUSH1 0x0 NOT PUSH1 0xF8 DUP5 PUSH1 0x3 SHL AND SHR NOT AND SWAP1 SSTORE CODESIZE DUP1 DUP1 PUSH3 0x2D8 JUMP JUMPDEST DUP4 DUP6 ADD MLOAD DUP7 SSTORE DUP13 SWAP8 SWAP1 SWAP6 ADD SWAP5 SWAP4 DUP5 ADD SWAP4 ADD PUSH3 0x2C5 JUMP JUMPDEST SWAP1 SWAP2 POP DUP8 DUP5 MSTORE DUP9 DUP5 KECCAK256 DUP7 DUP1 DUP6 ADD PUSH1 0x5 SHR DUP3 ADD SWAP3 DUP12 DUP7 LT PUSH3 0x360 JUMPI JUMPDEST SWAP2 DUP11 SWAP2 DUP7 SWAP6 SWAP5 SWAP4 ADD PUSH1 0x5 SHR ADD SWAP2 JUMPDEST DUP3 DUP2 LT PUSH3 0x351 JUMPI POP POP PUSH3 0xE7 JUMP JUMPDEST DUP7 DUP2 SSTORE DUP6 SWAP5 POP DUP11 SWAP2 ADD PUSH3 0x341 JUMP JUMPDEST SWAP3 POP DUP2 SWAP3 PUSH3 0x333 JUMP JUMPDEST PUSH4 0x4E487B71 PUSH1 0xE0 SHL DUP4 MSTORE PUSH1 0x22 PUSH1 0x4 MSTORE PUSH1 0x24 DUP4 REVERT JUMPDEST SWAP5 PUSH1 0x7F AND SWAP5 PUSH3 0xD0 JUMP JUMPDEST PUSH1 0x0 DUP1 REVERT JUMPDEST PUSH1 0x40 MLOAD SWAP2 SWAP1 PUSH1 0x1F ADD PUSH1 0x1F NOT AND DUP3 ADD PUSH1 0x1 PUSH1 0x1 PUSH1 0x40 SHL SUB DUP2 GT DUP4 DUP3 LT OR PUSH3 0x3B4 JUMPI PUSH1 0x40 MSTORE JUMP JUMPDEST PUSH4 0x4E487B71 PUSH1 0xE0 SHL PUSH1 0x0 MSTORE PUSH1 0x41 PUSH1 0x4 MSTORE PUSH1 0x24 PUSH1 0x0 REVERT JUMPDEST SWAP2 SWAP1 DUP1 PUSH1 0x1F DUP5 ADD SLT ISZERO PUSH3 0x389 JUMPI DUP3 MLOAD PUSH1 0x1 PUSH1 0x1 PUSH1 0x40 SHL SUB DUP2 GT PUSH3 0x3B4 JUMPI PUSH1 0x20 SWAP1 PUSH3 0x400 PUSH1 0x1F DUP3 ADD PUSH1 0x1F NOT AND DUP4 ADD PUSH3 0x38E JUMP JUMPDEST SWAP3 DUP2 DUP5 MSTORE DUP3 DUP3 DUP8 ADD ADD GT PUSH3 0x389 JUMPI PUSH1 0x0 JUMPDEST DUP2 DUP2 LT PUSH3 0x428 JUMPI POP DUP3 PUSH1 0x0 SWAP4 SWAP5 SWAP6 POP ADD ADD MSTORE SWAP1 JUMP JUMPDEST DUP6 DUP2 ADD DUP4 ADD MLOAD DUP5 DUP3 ADD DUP5 ADD MSTORE DUP3 ADD PUSH3 0x412 JUMP INVALID PUSH2 0x220 DUP1 PUSH1 0x40 MSTORE PUSH1 0x4 CALLDATASIZE LT ISZERO PUSH2 0x14 JUMPI PUSH1 0x0 DUP1 REVERT JUMPDEST PUSH1 0x0 SWAP1 DUP2 CALLDATALOAD PUSH1 0xE0 SHR SWAP1 DUP2 PUSH4 0x1FFC9A7 EQ PUSH2 0x3F53 JUMPI POP DUP1 PUSH4 0x6FDDE03 EQ PUSH2 0x3E84 JUMPI DUP1 PUSH4 0x81812FC EQ PUSH2 0x3E65 JUMPI DUP1 PUSH4 0x95EA7B3 EQ PUSH2 0x3CF0 JUMPI DUP1 PUSH4 0xD5D841A EQ PUSH2 0x276D JUMPI DUP1 PUSH4 0x23B872DD EQ PUSH2 0x2748 JUMPI DUP1 PUSH4 0x33396917 EQ PUSH2 0x2565 JUMPI DUP1 PUSH4 0x341FA05D EQ PUSH2 0x245C JUMPI DUP1 PUSH4 0x42842E0E EQ PUSH2 0x2429 JUMPI DUP1 PUSH4 0x5E8BE190 EQ PUSH2 0x23A3 JUMPI DUP1 PUSH4 0x60098088 EQ PUSH2 0x2270 JUMPI DUP1 PUSH4 0x6352211E EQ PUSH2 0x223F JUMPI DUP1 PUSH4 0x6BFA74C3 EQ PUSH2 0xC44 JUMPI DUP1 PUSH4 0x6C231060 EQ PUSH2 0x968 JUMPI DUP1 PUSH4 0x70A08231 EQ PUSH2 0x8D2 JUMPI DUP1 PUSH4 0x715018A6 EQ PUSH2 0x878 JUMPI DUP1 PUSH4 0x8DA5CB5B EQ PUSH2 0x851 JUMPI DUP1 PUSH4 0x95D89B41 EQ PUSH2 0x76F JUMPI DUP1 PUSH4 0x96CC304F EQ PUSH2 0x703 JUMPI DUP1 PUSH4 0xA22CB465 EQ PUSH2 0x624 JUMPI DUP1 PUSH4 0xABFE5D57 EQ PUSH2 0x540 JUMPI DUP1 PUSH4 0xB88D4FDE EQ PUSH2 0x4B3 JUMPI DUP1 PUSH4 0xC87B56DD EQ PUSH2 0x285 JUMPI DUP1 PUSH4 0xD03703F5 EQ PUSH2 0x25C JUMPI DUP1 PUSH4 0xE985E9C5 EQ PUSH2 0x208 JUMPI PUSH4 0xF2FDE38B EQ PUSH2 0x140 JUMPI PUSH1 0x0 DUP1 REVERT JUMPDEST CALLVALUE PUSH2 0x205 JUMPI PUSH1 0x20 CALLDATASIZE PUSH1 0x3 NOT ADD SLT PUSH2 0x205 JUMPI PUSH2 0x159 PUSH2 0x4008 JUMP JUMPDEST PUSH2 0x161 PUSH2 0x4580 JUMP JUMPDEST PUSH1 0x1 PUSH1 0x1 PUSH1 0xA0 SHL SUB SWAP1 DUP2 AND SWAP1 DUP2 ISZERO PUSH2 0x1B1 JUMPI PUSH1 0x0 SLOAD DUP3 PUSH1 0x1 PUSH1 0x1 PUSH1 0x60 SHL SUB PUSH1 0xA0 SHL DUP3 AND OR PUSH1 0x0 SSTORE AND PUSH32 0x8BE0079C531659141344CD1FD0A4F28419497F9722A3DAAFE3B4186F6B6457E0 PUSH1 0x0 DUP1 LOG3 DUP1 RETURN JUMPDEST PUSH1 0x40 MLOAD PUSH3 0x461BCD PUSH1 0xE5 SHL DUP2 MSTORE PUSH1 0x20 PUSH1 0x4 DUP3 ADD MSTORE PUSH1 0x26 PUSH1 0x24 DUP3 ADD MSTORE PUSH32 0x4F776E61626C653A206E6577206F776E657220697320746865207A65726F2061 PUSH1 0x44 DUP3 ADD MSTORE PUSH6 0x646472657373 PUSH1 0xD0 SHL PUSH1 0x64 DUP3 ADD MSTORE PUSH1 0x84 SWAP1 REVERT JUMPDEST DUP1 REVERT JUMPDEST POP CALLVALUE PUSH2 0x205 JUMPI PUSH1 0x40 CALLDATASIZE PUSH1 0x3 NOT ADD SLT PUSH2 0x205 JUMPI PUSH2 0x222 PUSH2 0x4008 JUMP JUMPDEST PUSH1 0x40 PUSH2 0x22C PUSH2 0x4023 JUMP JUMPDEST SWAP3 PUSH1 0x1 DUP1 PUSH1 0xA0 SHL SUB DUP1 SWAP4 AND DUP2 MSTORE PUSH1 0x6 PUSH1 0x20 MSTORE KECCAK256 SWAP2 AND PUSH1 0x0 MSTORE PUSH1 0x20 MSTORE PUSH1 0x20 PUSH1 0xFF PUSH1 0x40 PUSH1 0x0 KECCAK256 SLOAD AND PUSH1 0x40 MLOAD SWAP1 ISZERO ISZERO DUP2 MSTORE RETURN JUMPDEST POP CALLVALUE PUSH2 0x205 JUMPI DUP1 PUSH1 0x3 NOT CALLDATASIZE ADD SLT PUSH2 0x205 JUMPI PUSH1 0xB SLOAD PUSH1 0x40 MLOAD PUSH1 0x1 PUSH1 0x1 PUSH1 0xA0 SHL SUB SWAP1 SWAP2 AND DUP2 MSTORE PUSH1 0x20 SWAP1 RETURN JUMPDEST POP CALLVALUE PUSH2 0x205 JUMPI PUSH1 0x20 SWAP1 DUP2 PUSH1 0x3 NOT CALLDATASIZE ADD SLT PUSH2 0x205 JUMPI PUSH1 0x4 CALLDATALOAD PUSH1 0x0 DUP2 DUP2 MSTORE PUSH1 0x3 PUSH1 0x20 MSTORE PUSH1 0x40 SWAP1 KECCAK256 SLOAD SWAP1 SWAP2 DUP4 SWAP2 PUSH2 0x2C3 SWAP1 PUSH1 0x1 PUSH1 0x1 PUSH1 0xA0 SHL SUB AND ISZERO ISZERO PUSH2 0x45D8 JUMP JUMPDEST PUSH1 0x40 MLOAD SWAP3 PUSH2 0x2D0 DUP5 PUSH2 0x40B4 JUMP JUMPDEST DUP2 DUP5 MSTORE DUP2 ISZERO PUSH2 0x499 JUMPI DUP2 SWAP1 DUP1 PUSH27 0x184F03E93FF9F4DAA797ED6E38ED64BF6A1F010000000000000000 DUP2 DUP2 DUP2 LT ISZERO PUSH2 0x48B JUMPI JUMPDEST POP POP DUP5 PUSH14 0x4EE2D6D415B85ACEF8100000000 DUP1 DUP5 LT ISZERO PUSH2 0x47D JUMPI JUMPDEST POP POP PUSH7 0x2386F26FC10000 DUP1 DUP4 LT ISZERO PUSH2 0x46E JUMPI JUMPDEST POP PUSH4 0x5F5E100 DUP1 DUP4 LT ISZERO PUSH2 0x45F JUMPI JUMPDEST POP PUSH2 0x2710 DUP1 DUP4 LT ISZERO PUSH2 0x450 JUMPI JUMPDEST POP PUSH1 0x64 DUP3 LT ISZERO PUSH2 0x440 JUMPI JUMPDEST PUSH1 0xA DUP1 SWAP3 LT ISZERO PUSH2 0x436 JUMPI JUMPDEST PUSH1 0x1 SWAP1 DUP2 PUSH1 0x21 DUP2 DUP7 ADD SWAP6 PUSH2 0x38E PUSH2 0x378 DUP9 PUSH2 0x40F0 JUMP JUMPDEST SWAP8 PUSH2 0x386 PUSH1 0x40 MLOAD SWAP10 DUP11 PUSH2 0x40CF JUMP JUMPDEST DUP1 DUP10 MSTORE PUSH2 0x40F0 JUMP JUMPDEST DUP8 DUP11 ADD SWAP9 SWAP1 PUSH1 0x1F NOT ADD CALLDATASIZE DUP11 CALLDATACOPY POP DUP7 ADD ADD SWAP1 JUMPDEST PUSH2 0x400 JUMPI JUMPDEST POP POP POP POP SWAP3 PUSH2 0x3E6 SWAP3 SWAP2 PUSH2 0x3DA SWAP5 PUSH1 0x40 MLOAD SWAP6 DUP4 PUSH2 0x3CB DUP9 SWAP6 MLOAD DUP1 SWAP3 DUP9 DUP1 DUP10 ADD SWAP2 ADD PUSH2 0x3FC0 JUMP JUMPDEST DUP5 ADD SWAP2 MLOAD DUP1 SWAP4 DUP7 DUP5 ADD SWAP1 PUSH2 0x3FC0 JUMP JUMPDEST ADD SUB DUP1 DUP5 MSTORE ADD DUP3 PUSH2 0x40CF JUMP JUMPDEST SWAP1 JUMPDEST PUSH2 0x3FC PUSH1 0x40 MLOAD SWAP3 DUP3 DUP5 SWAP4 DUP5 MSTORE DUP4 ADD SWAP1 PUSH2 0x3FE3 JUMP JUMPDEST SUB SWAP1 RETURN JUMPDEST PUSH1 0x0 NOT ADD SWAP1 DUP4 SWAP1 PUSH16 0x181899199A1A9B1B9C1CB0B131B232B3 PUSH1 0x81 SHL DUP3 DUP3 MOD BYTE DUP4 MSTORE8 DIV SWAP2 DUP3 ISZERO PUSH2 0x431 JUMPI SWAP2 SWAP1 DUP3 PUSH2 0x3A0 JUMP JUMPDEST PUSH2 0x3A5 JUMP JUMPDEST SWAP2 PUSH1 0x1 ADD SWAP2 PUSH2 0x362 JUMP JUMPDEST SWAP2 SWAP1 PUSH1 0x64 PUSH1 0x2 SWAP2 DIV SWAP2 ADD SWAP2 PUSH2 0x357 JUMP JUMPDEST PUSH1 0x4 SWAP2 SWAP4 SWAP3 DIV SWAP2 ADD SWAP2 CODESIZE PUSH2 0x34C JUMP JUMPDEST PUSH1 0x8 SWAP2 SWAP4 SWAP3 DIV SWAP2 ADD SWAP2 CODESIZE PUSH2 0x33F JUMP JUMPDEST PUSH1 0x10 SWAP2 SWAP4 SWAP3 DIV SWAP2 ADD SWAP2 CODESIZE PUSH2 0x330 JUMP JUMPDEST SWAP4 ADD SWAP3 SWAP1 SWAP2 DIV SWAP1 DUP5 CODESIZE PUSH2 0x31D JUMP JUMPDEST PUSH1 0x40 SWAP5 POP DIV SWAP2 POP CODESIZE DUP1 PUSH2 0x302 JUMP JUMPDEST POP POP POP POP PUSH1 0x40 MLOAD PUSH2 0x4A9 DUP2 PUSH2 0x40B4 JUMP JUMPDEST PUSH1 0x0 DUP2 MSTORE SWAP1 PUSH2 0x3E8 JUMP JUMPDEST POP CALLVALUE PUSH2 0x205 JUMPI PUSH1 0x80 CALLDATASIZE PUSH1 0x3 NOT ADD SLT PUSH2 0x205 JUMPI PUSH2 0x4CD PUSH2 0x4008 JUMP JUMPDEST PUSH2 0x4D5 PUSH2 0x4023 JUMP JUMPDEST SWAP1 PUSH1 0x64 CALLDATALOAD SWAP1 PUSH1 0x44 CALLDATALOAD PUSH1 0x1 PUSH1 0x1 PUSH1 0x40 SHL SUB DUP4 GT PUSH2 0x53C JUMPI CALLDATASIZE PUSH1 0x23 DUP5 ADD SLT ISZERO PUSH2 0x53C JUMPI PUSH2 0x539 SWAP4 PUSH2 0x511 PUSH2 0x534 SWAP5 CALLDATASIZE SWAP1 PUSH1 0x24 DUP2 PUSH1 0x4 ADD CALLDATALOAD SWAP2 ADD PUSH2 0x410B JUMP JUMPDEST SWAP3 PUSH2 0x524 PUSH2 0x51F DUP5 CALLER PUSH2 0x483E JUMP JUMPDEST PUSH2 0x4765 JUMP JUMPDEST PUSH2 0x52F DUP4 DUP4 DUP4 PUSH2 0x4906 JUMP JUMPDEST PUSH2 0x4B33 JUMP JUMPDEST PUSH2 0x481A JUMP JUMPDEST DUP1 RETURN JUMPDEST DUP5 DUP1 REVERT JUMPDEST POP CALLVALUE PUSH2 0x205 JUMPI DUP1 PUSH1 0x3 NOT CALLDATASIZE ADD SLT PUSH2 0x205 JUMPI PUSH1 0x7 SLOAD DUP2 PUSH1 0x1 JUMPDEST DUP3 DUP2 GT ISZERO PUSH2 0x5E5 JUMPI POP PUSH2 0x56A SWAP1 PUSH2 0x503B JUMP JUMPDEST SWAP2 DUP1 PUSH1 0x1 JUMPDEST DUP4 DUP2 GT ISZERO PUSH2 0x585 JUMPI PUSH1 0x40 MLOAD DUP1 PUSH2 0x3FC DUP8 DUP3 PUSH2 0x451E JUMP JUMPDEST DUP1 DUP3 MSTORE PUSH1 0x9 PUSH1 0x20 MSTORE PUSH1 0x40 DUP3 KECCAK256 PUSH1 0xFF PUSH1 0x14 DUP3 ADD SLOAD PUSH1 0x8 SHR AND ISZERO PUSH2 0x5B1 JUMPI JUMPDEST POP PUSH2 0x5AC SWAP1 PUSH2 0x5016 JUMP JUMPDEST PUSH2 0x56F JUMP JUMPDEST SWAP3 SWAP1 PUSH2 0x5DE DUP3 PUSH2 0x5CD PUSH2 0x5C7 PUSH2 0x5AC SWAP6 SWAP3 PUSH2 0x5016 JUMP JUMPDEST SWAP7 PUSH2 0x4E66 JUMP JUMPDEST PUSH2 0x5D7 DUP3 DUP11 PUSH2 0x508B JUMP JUMPDEST MSTORE DUP8 PUSH2 0x508B JUMP JUMPDEST POP SWAP1 PUSH2 0x5A2 JUMP JUMPDEST DUP1 DUP5 MSTORE PUSH1 0x9 PUSH1 0x20 MSTORE PUSH1 0xFF PUSH1 0x14 PUSH1 0x40 DUP7 KECCAK256 ADD SLOAD PUSH1 0x8 SHR AND ISZERO PUSH2 0x60F JUMPI JUMPDEST PUSH2 0x60A SWAP1 PUSH2 0x5016 JUMP JUMPDEST PUSH2 0x558 JUMP JUMPDEST SWAP1 PUSH2 0x61C PUSH2 0x60A SWAP2 PUSH2 0x5016 JUMP JUMPDEST SWAP2 SWAP1 POP PUSH2 0x601 JUMP JUMPDEST POP CALLVALUE PUSH2 0x205 JUMPI PUSH1 0x40 CALLDATASIZE PUSH1 0x3 NOT ADD SLT PUSH2 0x205 JUMPI PUSH2 0x63E PUSH2 0x4008 JUMP JUMPDEST PUSH1 0x24 CALLDATALOAD SWAP1 DUP2 ISZERO ISZERO SWAP1 DUP2 DUP4 SUB PUSH2 0x6FF JUMPI PUSH1 0x1 PUSH1 0x1 PUSH1 0xA0 SHL SUB AND SWAP2 CALLER DUP4 EQ PUSH2 0x6BA JUMPI PUSH2 0x68B SWAP1 CALLER DUP6 MSTORE PUSH1 0x6 PUSH1 0x20 MSTORE PUSH1 0x40 DUP6 KECCAK256 DUP5 PUSH1 0x0 MSTORE PUSH1 0x20 MSTORE PUSH1 0x40 PUSH1 0x0 KECCAK256 SWAP1 PUSH1 0xFF DUP1 NOT DUP4 SLOAD AND SWAP2 ISZERO ISZERO AND OR SWAP1 SSTORE JUMP JUMPDEST PUSH1 0x40 MLOAD SWAP1 DUP2 MSTORE PUSH32 0x17307EAB39AB6107E8899845AD3D59BD9653F200F220920489CA2B5937696C31 PUSH1 0x20 CALLER SWAP3 LOG3 DUP1 RETURN JUMPDEST PUSH1 0x40 MLOAD PUSH3 0x461BCD PUSH1 0xE5 SHL DUP2 MSTORE PUSH1 0x20 PUSH1 0x4 DUP3 ADD MSTORE PUSH1 0x19 PUSH1 0x24 DUP3 ADD MSTORE PUSH32 0x4552433732313A20617070726F766520746F2063616C6C657200000000000000 PUSH1 0x44 DUP3 ADD MSTORE PUSH1 0x64 SWAP1 REVERT JUMPDEST DUP4 DUP1 REVERT JUMPDEST POP CALLVALUE PUSH2 0x205 JUMPI PUSH1 0x20 CALLDATASIZE PUSH1 0x3 NOT ADD SLT PUSH2 0x205 JUMPI PUSH1 0x4 CALLDATALOAD PUSH1 0x1 PUSH1 0x1 PUSH1 0xA0 SHL SUB DUP2 AND SWAP1 DUP2 SWAP1 SUB PUSH2 0x76B JUMPI PUSH2 0x732 PUSH2 0x4580 JUMP JUMPDEST PUSH1 0xB DUP1 SLOAD PUSH1 0x1 PUSH1 0x1 PUSH1 0xA0 SHL SUB NOT AND DUP3 OR SWAP1 SSTORE PUSH32 0xE29CA28FD64DBDC992CE63B7FC32E81B50E1F2E800E0BBBB994CEA2E35AA047C DUP3 DUP1 LOG2 DUP1 RETURN JUMPDEST POP DUP1 REVERT JUMPDEST POP CALLVALUE PUSH2 0x205 JUMPI DUP1 PUSH1 0x3 NOT CALLDATASIZE ADD SLT PUSH2 0x205 JUMPI PUSH1 0x40 MLOAD PUSH1 0x0 PUSH1 0x2 SLOAD PUSH2 0x791 DUP2 PUSH2 0x4647 JUMP JUMPDEST DUP1 DUP5 MSTORE SWAP1 PUSH1 0x1 SWAP1 DUP2 DUP2 AND SWAP1 DUP2 ISZERO PUSH2 0x82A JUMPI POP PUSH1 0x1 EQ PUSH2 0x7CF JUMPI JUMPDEST PUSH2 0x3FC DUP5 PUSH2 0x7BB DUP2 DUP7 SUB DUP3 PUSH2 0x40CF JUMP JUMPDEST PUSH1 0x40 MLOAD SWAP2 DUP3 SWAP2 PUSH1 0x20 DUP4 MSTORE PUSH1 0x20 DUP4 ADD SWAP1 PUSH2 0x3FE3 JUMP JUMPDEST PUSH1 0x2 PUSH1 0x0 SWAP1 DUP2 MSTORE SWAP3 POP PUSH32 0x405787FA12A823E0F2B7631CC41B3BA8828B3321CA811111FA75CD3AA3BB5ACE JUMPDEST DUP3 DUP5 LT PUSH2 0x812 JUMPI POP POP POP DUP2 ADD PUSH1 0x20 ADD PUSH2 0x7BB DUP3 PUSH2 0x7AB JUMP JUMPDEST DUP1 SLOAD PUSH1 0x20 DUP6 DUP8 ADD DUP2 ADD SWAP2 SWAP1 SWAP2 MSTORE SWAP1 SWAP4 ADD SWAP3 DUP2 ADD PUSH2 0x7FA JUMP JUMPDEST PUSH1 0xFF NOT AND PUSH1 0x20 DUP1 DUP8 ADD SWAP2 SWAP1 SWAP2 MSTORE SWAP3 ISZERO ISZERO PUSH1 0x5 SHL DUP6 ADD SWAP1 SWAP3 ADD SWAP3 POP PUSH2 0x7BB SWAP2 POP DUP4 SWAP1 POP PUSH2 0x7AB JUMP JUMPDEST POP CALLVALUE PUSH2 0x205 JUMPI DUP1 PUSH1 0x3 NOT CALLDATASIZE ADD SLT PUSH2 0x205 JUMPI SLOAD PUSH1 0x40 MLOAD PUSH1 0x1 PUSH1 0x1 PUSH1 0xA0 SHL SUB SWAP1 SWAP2 AND DUP2 MSTORE PUSH1 0x20 SWAP1 RETURN JUMPDEST POP CALLVALUE PUSH2 0x205 JUMPI DUP1 PUSH1 0x3 NOT CALLDATASIZE ADD SLT PUSH2 0x205 JUMPI PUSH2 0x891 PUSH2 0x4580 JUMP JUMPDEST PUSH1 0x0 DUP1 SLOAD PUSH1 0x1 PUSH1 0x1 PUSH1 0xA0 SHL SUB NOT DUP2 AND DUP3 SSTORE PUSH1 0x1 PUSH1 0x1 PUSH1 0xA0 SHL SUB AND PUSH32 0x8BE0079C531659141344CD1FD0A4F28419497F9722A3DAAFE3B4186F6B6457E0 DUP3 DUP1 LOG3 DUP1 RETURN JUMPDEST POP CALLVALUE PUSH2 0x205 JUMPI PUSH1 0x20 CALLDATASIZE PUSH1 0x3 NOT ADD SLT PUSH2 0x205 JUMPI PUSH1 0x1 PUSH1 0x1 PUSH1 0xA0 SHL SUB PUSH2 0x8F4 PUSH2 0x4008 JUMP JUMPDEST AND DUP1 ISZERO PUSH2 0x911 JUMPI DUP2 PUSH1 0x40 SWAP2 PUSH1 0x20 SWAP4 MSTORE PUSH1 0x4 DUP4 MSTORE KECCAK256 SLOAD PUSH1 0x40 MLOAD SWAP1 DUP2 MSTORE RETURN JUMPDEST PUSH1 0x40 MLOAD PUSH3 0x461BCD PUSH1 0xE5 SHL DUP2 MSTORE PUSH1 0x20 PUSH1 0x4 DUP3 ADD MSTORE PUSH1 0x29 PUSH1 0x24 DUP3 ADD MSTORE PUSH32 0x4552433732313A2061646472657373207A65726F206973206E6F742061207661 PUSH1 0x44 DUP3 ADD MSTORE PUSH9 0x3634B21037BBB732B9 PUSH1 0xB9 SHL PUSH1 0x64 DUP3 ADD MSTORE PUSH1 0x84 SWAP1 REVERT JUMPDEST POP PUSH1 0x20 DUP1 PUSH1 0x3 NOT CALLDATASIZE ADD SLT PUSH2 0x76B JUMPI PUSH1 0x4 CALLDATALOAD DUP1 DUP4 MSTORE PUSH1 0x9 DUP3 MSTORE PUSH1 0x1 DUP1 PUSH1 0xA0 SHL SUB SWAP1 PUSH1 0x1 SWAP2 PUSH2 0x99E DUP2 DUP5 PUSH1 0x40 DUP9 KECCAK256 ADD SLOAD AND ISZERO ISZERO PUSH2 0x4D8D JUMP JUMPDEST DUP2 DUP6 MSTORE PUSH1 0x9 DUP5 MSTORE PUSH2 0x9BC PUSH1 0xFF PUSH1 0x14 PUSH1 0x40 DUP9 KECCAK256 ADD SLOAD PUSH1 0x8 SHR AND ISZERO PUSH2 0x4DCE JUMP JUMPDEST DUP2 DUP6 MSTORE PUSH1 0x9 DUP5 MSTORE PUSH1 0x40 DUP6 KECCAK256 PUSH1 0x14 DUP2 ADD DUP1 SLOAD SWAP1 PUSH1 0xFF DUP3 AND ISZERO DUP1 PUSH2 0xC35 JUMPI JUMPDEST ISZERO PUSH2 0xBFD JUMPI PUSH1 0x15 DUP4 ADD DUP1 SLOAD SWAP1 SWAP3 DUP8 SWAP2 CHAINID EQ PUSH2 0xBC8 JUMPI POP POP POP DUP3 PUSH1 0xB SLOAD AND DUP8 DUP5 PUSH1 0x16 DUP6 ADD SLOAD AND SWAP2 PUSH1 0xC DUP6 ADD SLOAD SWAP1 DUP7 PUSH1 0xF DUP8 ADD SLOAD AND SWAP4 DUP6 SLOAD DUP3 EXTCODESIZE ISZERO PUSH2 0x53C JUMPI PUSH1 0x84 SWAP3 DUP6 SWAP2 PUSH1 0x40 MLOAD SWAP8 DUP9 SWAP7 DUP8 SWAP6 PUSH4 0x716CCAD7 PUSH1 0xE1 SHL DUP8 MSTORE PUSH1 0x4 DUP8 ADD MSTORE PUSH1 0x24 DUP7 ADD MSTORE PUSH1 0x44 DUP6 ADD MSTORE PUSH1 0x64 DUP5 ADD MSTORE GAS CALL DUP1 ISZERO PUSH2 0xBBD JUMPI PUSH2 0xBAA JUMPI JUMPDEST POP DUP7 SWAP1 DUP4 PUSH1 0xB SLOAD AND SWAP1 SLOAD DUP2 EXTCODESIZE ISZERO PUSH2 0xBA6 JUMPI DUP3 SWAP2 PUSH1 0x44 DUP4 SWAP3 PUSH1 0x40 MLOAD SWAP5 DUP6 SWAP4 DUP5 SWAP3 PUSH4 0x402EBD7D PUSH1 0xE0 SHL DUP5 MSTORE DUP12 PUSH1 0x4 DUP6 ADD MSTORE PUSH1 0x24 DUP5 ADD MSTORE GAS CALL DUP1 ISZERO PUSH2 0xB9B JUMPI PUSH2 0xB83 JUMPI JUMPDEST POP POP JUMPDEST DUP4 PUSH1 0x8 SLOAD ADD DUP1 PUSH1 0x8 SSTORE DUP4 DUP8 MSTORE PUSH1 0xA DUP7 MSTORE PUSH1 0x40 DUP8 KECCAK256 SWAP1 PUSH1 0xC DUP4 ADD SWAP6 DUP7 SLOAD SWAP1 PUSH1 0x40 MLOAD SWAP3 PUSH2 0xABC DUP5 PUSH2 0x406B JUMP JUMPDEST DUP4 MSTORE DUP9 DUP4 ADD DUP8 DUP2 MSTORE PUSH1 0x40 DUP5 ADD SWAP3 DUP4 MSTORE PUSH1 0x60 DUP5 ADD SWAP5 CALLER DUP7 MSTORE DUP1 SLOAD SWAP1 PUSH1 0x1 PUSH1 0x40 SHL DUP3 LT ISZERO PUSH2 0xB6F JUMPI SWAP1 PUSH2 0xAF1 SWAP2 DUP5 DUP3 ADD DUP2 SSTORE PUSH2 0x50B5 JUMP JUMPDEST SWAP5 SWAP1 SWAP5 PUSH2 0xB5B JUMPI MLOAD DUP5 SSTORE MLOAD SWAP1 DUP4 ADD SSTORE MLOAD PUSH1 0x2 DUP3 ADD SSTORE SWAP1 MLOAD PUSH1 0x3 SWAP1 SWAP2 ADD DUP1 SLOAD PUSH1 0x1 PUSH1 0x1 PUSH1 0xA0 SHL SUB NOT AND SWAP2 DUP5 AND SWAP2 SWAP1 SWAP2 OR SWAP1 SSTORE PUSH1 0xF ADD SLOAD SWAP3 SLOAD PUSH1 0x40 MLOAD SWAP1 DUP2 MSTORE CALLER SWAP5 SWAP4 SWAP1 SWAP2 AND SWAP3 PUSH32 0x8205A71867F7292BCEF9E53D4774758D6173B03F63017DEC9A03A6664B429DC5 SWAP2 LOG4 DUP1 RETURN JUMPDEST PUSH4 0x4E487B71 PUSH1 0xE0 SHL DUP13 MSTORE PUSH1 0x4 DUP13 SWAP1 MSTORE PUSH1 0x24 DUP13 REVERT JUMPDEST PUSH4 0x4E487B71 PUSH1 0xE0 SHL DUP14 MSTORE PUSH1 0x41 PUSH1 0x4 MSTORE PUSH1 0x24 DUP14 REVERT JUMPDEST PUSH2 0xB8C SWAP1 PUSH2 0x4086 JUMP JUMPDEST PUSH2 0xB97 JUMPI DUP6 CODESIZE PUSH2 0xA8F JUMP JUMPDEST DUP6 DUP1 REVERT JUMPDEST PUSH1 0x40 MLOAD RETURNDATASIZE DUP5 DUP3 RETURNDATACOPY RETURNDATASIZE SWAP1 REVERT JUMPDEST DUP3 DUP1 REVERT JUMPDEST PUSH2 0xBB6 SWAP1 SWAP8 SWAP2 SWAP8 PUSH2 0x4086 JUMP JUMPDEST SWAP6 CODESIZE PUSH2 0xA4E JUMP JUMPDEST PUSH1 0x40 MLOAD RETURNDATASIZE DUP11 DUP3 RETURNDATACOPY RETURNDATASIZE SWAP1 REVERT JUMPDEST PUSH1 0xFF NOT AND OR SWAP1 SSTORE POP DUP1 DUP5 ADD DUP1 SLOAD PUSH1 0x1 PUSH1 0x1 PUSH1 0xA0 SHL SUB NOT AND CALLER SWAP1 DUP2 OR SWAP1 SWAP2 SSTORE PUSH1 0xF DUP3 ADD SLOAD PUSH2 0xBF8 SWAP2 DUP6 SWAP2 DUP6 AND PUSH2 0x4906 JUMP JUMPDEST PUSH2 0xA92 JUMP JUMPDEST PUSH1 0x40 MLOAD PUSH3 0x461BCD PUSH1 0xE5 SHL DUP2 MSTORE PUSH1 0x4 DUP2 ADD DUP9 SWAP1 MSTORE PUSH1 0x10 PUSH1 0x24 DUP3 ADD MSTORE PUSH16 0x496E76616C6964207075726368617365 PUSH1 0x80 SHL PUSH1 0x44 DUP3 ADD MSTORE PUSH1 0x64 SWAP1 REVERT JUMPDEST POP DUP4 DUP7 DUP5 ADD SLOAD AND CALLER EQ ISZERO PUSH2 0x9D9 JUMP JUMPDEST POP CALLVALUE PUSH2 0x205 JUMPI PUSH1 0x3 NOT PUSH1 0xC0 CALLDATASIZE DUP3 ADD SLT PUSH2 0x76B JUMPI PUSH1 0x1 PUSH1 0x1 PUSH1 0x40 SHL SUB PUSH1 0x4 CALLDATALOAD GT PUSH2 0x76B JUMPI PUSH1 0xE0 DUP2 PUSH1 0x4 CALLDATALOAD CALLDATASIZE SUB ADD SLT PUSH2 0x76B JUMPI PUSH1 0x1 PUSH1 0x1 PUSH1 0x40 SHL SUB PUSH1 0x24 CALLDATALOAD GT PUSH2 0x76B JUMPI PUSH1 0xC0 DUP2 PUSH1 0x24 CALLDATALOAD CALLDATASIZE SUB ADD SLT PUSH2 0x76B JUMPI PUSH1 0x1 PUSH1 0x1 PUSH1 0x40 SHL SUB PUSH1 0x44 CALLDATALOAD GT PUSH2 0x76B JUMPI PUSH1 0x60 DUP2 PUSH1 0x44 CALLDATALOAD CALLDATASIZE SUB ADD SLT PUSH2 0x76B JUMPI PUSH1 0x64 CALLDATALOAD SWAP1 DUP2 PUSH2 0x1A0 MSTORE PUSH1 0x1 PUSH1 0x1 PUSH1 0x40 SHL SUB DUP3 GT PUSH2 0xBA6 JUMPI PUSH1 0xA0 SWAP2 CALLDATASIZE SUB ADD SLT PUSH2 0x205 JUMPI PUSH1 0xA4 CALLDATALOAD PUSH1 0xC0 DUP2 SWAP1 MSTORE PUSH1 0x1 PUSH1 0x1 PUSH1 0xA0 SHL SUB DUP2 AND SUB PUSH2 0x205 JUMPI PUSH1 0xB SLOAD PUSH1 0x40 MLOAD PUSH4 0x480051D PUSH1 0xE3 SHL DUP2 MSTORE PUSH1 0xC0 MLOAD PUSH1 0x1 PUSH1 0x1 PUSH1 0xA0 SHL SUB SWAP1 DUP2 AND PUSH1 0x4 DUP4 ADD MSTORE SWAP1 SWAP2 PUSH1 0x20 SWAP2 DUP4 SWAP2 PUSH1 0x24 SWAP2 DUP4 SWAP2 AND GAS STATICCALL SWAP1 DUP2 ISZERO PUSH2 0xB9B JUMPI DUP3 SWAP2 PUSH2 0x2204 JUMPI JUMPDEST POP ISZERO PUSH2 0x21BF JUMPI PUSH2 0x1A0 MLOAD PUSH1 0x4 ADD PUSH1 0x1 PUSH1 0x1 PUSH1 0xA0 SHL SUB PUSH2 0xD48 DUP3 PUSH2 0x4BBE JUMP JUMPDEST AND CALLER EQ SWAP1 DUP2 PUSH2 0x21A3 JUMPI JUMPDEST POP ISZERO PUSH2 0x216D JUMPI PUSH1 0xA4 PUSH1 0x24 CALLDATALOAD ADD CALLDATALOAD ISZERO PUSH2 0x2138 JUMPI PUSH2 0xD78 PUSH1 0x24 PUSH1 0x4 CALLDATALOAD ADD PUSH1 0x4 CALLDATALOAD PUSH1 0x4 ADD PUSH2 0x4BD2 JUMP JUMPDEST SWAP1 POP ISZERO PUSH2 0x2107 JUMPI PUSH4 0x1E13380 TIMESTAMP DIV PUSH2 0x7B2 DUP2 ADD DUP1 SWAP2 GT PUSH2 0x20F3 JUMPI PUSH1 0xA4 PUSH1 0x4 CALLDATALOAD ADD CALLDATALOAD GT PUSH2 0x20BF JUMPI PUSH4 0x3B9ACA00 PUSH1 0x24 CALLDATALOAD PUSH1 0x4 ADD CALLDATALOAD LT ISZERO PUSH2 0x2088 JUMPI PUSH1 0x7 DUP1 SLOAD PUSH1 0x1 ADD SWAP1 DUP2 SWAP1 SSTORE PUSH2 0xDC9 PUSH1 0x4 DUP1 CALLDATALOAD ADD DUP1 PUSH2 0x4C07 JUMP JUMPDEST PUSH2 0x160 MSTORE SWAP2 PUSH2 0xDE0 PUSH1 0x4 DUP1 CALLDATALOAD PUSH1 0x24 DUP2 ADD SWAP2 ADD PUSH2 0x4BD2 JUMP JUMPDEST PUSH2 0xDF7 PUSH1 0x44 PUSH1 0x4 SWAP7 SWAP4 SWAP7 CALLDATALOAD ADD PUSH1 0x4 CALLDATALOAD PUSH1 0x4 ADD PUSH2 0x4C07 JUMP JUMPDEST SWAP1 PUSH2 0xE0C PUSH1 0x64 PUSH1 0x4 CALLDATALOAD ADD PUSH1 0x4 CALLDATALOAD PUSH1 0x4 ADD PUSH2 0x4C07 JUMP JUMPDEST SWAP1 PUSH2 0xE21 PUSH1 0x84 PUSH1 0x4 CALLDATALOAD ADD PUSH1 0x4 CALLDATALOAD PUSH1 0x4 ADD PUSH2 0x4C07 JUMP JUMPDEST SWAP2 SWAP1 SWAP3 PUSH2 0xE37 PUSH1 0x24 DUP1 CALLDATALOAD ADD PUSH1 0x24 CALLDATALOAD PUSH1 0x4 ADD PUSH2 0x4C07 JUMP JUMPDEST SWAP6 SWAP1 SWAP7 PUSH1 0x3 PUSH1 0x44 PUSH1 0x24 CALLDATALOAD ADD CALLDATALOAD LT ISZERO PUSH2 0x2084 JUMPI PUSH1 0x2 PUSH1 0x64 PUSH1 0x24 CALLDATALOAD ADD CALLDATALOAD LT ISZERO PUSH2 0x2084 JUMPI PUSH1 0x4 PUSH1 0x84 PUSH1 0x24 CALLDATALOAD ADD CALLDATALOAD LT ISZERO PUSH2 0x2084 JUMPI SWAP11 SWAP12 SWAP10 SWAP11 DUP13 SWAP11 PUSH2 0xE7C PUSH1 0x4 PUSH1 0x44 CALLDATALOAD ADD DUP1 PUSH2 0x4C07 JUMP JUMPDEST SWAP11 SWAP1 SWAP12 PUSH1 0x44 CALLDATALOAD PUSH1 0x44 ADD PUSH1 0x44 CALLDATALOAD PUSH1 0x4 ADD SWAP1 PUSH2 0xE95 SWAP2 PUSH2 0x4BD2 JUMP JUMPDEST SWAP15 SWAP1 PUSH2 0x140 MSTORE PUSH1 0x40 MLOAD DUP1 PUSH1 0xA0 MSTORE PUSH2 0xEAB SWAP1 PUSH2 0x4039 JUMP JUMPDEST PUSH1 0xA0 MLOAD MSTORE CALLER PUSH1 0xA0 MLOAD PUSH1 0x20 ADD MSTORE CALLDATASIZE PUSH2 0x160 MLOAD PUSH2 0xEC5 SWAP3 PUSH2 0x410B JUMP JUMPDEST PUSH1 0xA0 MLOAD PUSH1 0x40 ADD MSTORE CALLDATASIZE SWAP1 PUSH2 0xED7 SWAP3 PUSH2 0x4177 JUMP JUMPDEST PUSH1 0xA0 MLOAD PUSH1 0x60 ADD MSTORE CALLDATASIZE SWAP1 PUSH2 0xEE9 SWAP3 PUSH2 0x410B JUMP JUMPDEST PUSH1 0xA0 MLOAD PUSH1 0x80 ADD MSTORE CALLDATASIZE SWAP1 PUSH2 0xEFB SWAP3 PUSH2 0x410B JUMP JUMPDEST PUSH1 0xA0 MLOAD PUSH1 0xA0 ADD MSTORE CALLDATASIZE SWAP1 PUSH2 0xF0D SWAP3 PUSH2 0x410B JUMP JUMPDEST PUSH1 0xA0 MLOAD PUSH1 0xC0 ADD MSTORE PUSH1 0x4 CALLDATALOAD PUSH1 0xA4 ADD CALLDATALOAD PUSH1 0xA0 MLOAD PUSH1 0xE0 ADD MSTORE PUSH1 0x4 CALLDATALOAD PUSH1 0xC4 ADD CALLDATALOAD PUSH1 0xA0 MLOAD PUSH2 0x100 ADD MSTORE PUSH1 0x24 CALLDATALOAD PUSH1 0x4 ADD CALLDATALOAD PUSH1 0xA0 MLOAD PUSH2 0x120 ADD MSTORE CALLDATASIZE SWAP1 PUSH2 0xF4B SWAP3 PUSH2 0x410B JUMP JUMPDEST PUSH1 0xA0 MLOAD PUSH2 0x140 ADD MSTORE PUSH1 0x24 CALLDATALOAD PUSH1 0x44 ADD CALLDATALOAD PUSH1 0xA0 MLOAD PUSH2 0x160 ADD SWAP1 PUSH2 0xF6B SWAP2 PUSH2 0x4C39 JUMP JUMPDEST PUSH1 0x24 CALLDATALOAD PUSH1 0x64 ADD CALLDATALOAD PUSH1 0xA0 MLOAD PUSH2 0x180 ADD SWAP1 PUSH2 0xF83 SWAP2 PUSH2 0x4C45 JUMP JUMPDEST PUSH1 0x24 CALLDATALOAD PUSH1 0x84 ADD CALLDATALOAD PUSH1 0xA0 MLOAD PUSH2 0x1A0 ADD SWAP1 PUSH2 0xF9B SWAP2 PUSH2 0x4C51 JUMP JUMPDEST PUSH1 0x24 CALLDATALOAD PUSH1 0xA4 ADD CALLDATALOAD PUSH1 0xA0 MLOAD PUSH2 0x1C0 ADD MSTORE CALLDATASIZE SWAP1 PUSH2 0xFB5 SWAP3 PUSH2 0x410B JUMP JUMPDEST PUSH1 0xA0 MLOAD PUSH2 0x1E0 ADD MSTORE CALLDATASIZE PUSH2 0x140 MLOAD SWAP2 PUSH2 0xFCC SWAP3 PUSH2 0x4177 JUMP JUMPDEST PUSH1 0xA0 MLOAD PUSH2 0x200 ADD MSTORE CALLDATASIZE PUSH2 0x1A0 MLOAD PUSH1 0x4 ADD SWAP1 PUSH2 0xFE6 SWAP2 PUSH2 0x4201 JUMP JUMPDEST PUSH1 0xA0 MLOAD PUSH2 0x220 ADD MSTORE DUP1 PUSH1 0xA0 MLOAD PUSH2 0x240 ADD MSTORE DUP1 PUSH1 0xA0 MLOAD PUSH2 0x260 ADD MSTORE PUSH1 0x84 CALLDATALOAD PUSH1 0xA0 MLOAD PUSH2 0x280 ADD MSTORE PUSH1 0x1 PUSH1 0xA0 SHL PUSH1 0x1 SWAP1 SUB PUSH1 0xC0 MLOAD AND PUSH1 0xA0 MLOAD PUSH2 0x2A0 ADD MSTORE DUP1 PUSH1 0xA0 MLOAD PUSH2 0x2C0 ADD MSTORE DUP2 DUP2 MSTORE PUSH1 0x9 PUSH1 0x20 MSTORE PUSH1 0x40 DUP2 KECCAK256 SWAP2 PUSH1 0xA0 MLOAD DUP1 MLOAD DUP5 SSTORE PUSH1 0x1 PUSH1 0xA0 SHL PUSH1 0x1 SWAP1 SUB PUSH1 0x20 DUP3 ADD MLOAD AND PUSH1 0x1 PUSH1 0x1 PUSH1 0x60 SHL SUB PUSH1 0xA0 SHL PUSH1 0x1 DUP7 ADD SLOAD AND OR PUSH1 0x1 DUP6 ADD SSTORE PUSH1 0x40 ADD MLOAD SWAP3 DUP4 MLOAD PUSH1 0x1 PUSH1 0x1 PUSH1 0x40 SHL SUB DUP2 GT PUSH2 0x1768 JUMPI PUSH2 0x1085 PUSH1 0x2 DUP4 ADD SLOAD PUSH2 0x4647 JUMP JUMPDEST PUSH1 0x1F DUP2 GT PUSH2 0x2051 JUMPI JUMPDEST POP PUSH1 0x20 PUSH1 0x1F DUP3 GT PUSH1 0x1 EQ PUSH2 0x1FE5 JUMPI DUP5 SWAP6 DUP3 SWAP4 SWAP5 SWAP6 SWAP3 PUSH2 0x1FDA JUMPI JUMPDEST POP POP DUP2 PUSH1 0x1 SHL SWAP2 PUSH1 0x0 NOT SWAP1 PUSH1 0x3 SHL SHR NOT AND OR PUSH1 0x2 DUP3 ADD SSTORE JUMPDEST PUSH1 0x60 PUSH1 0xA0 MLOAD ADD MLOAD DUP1 MLOAD SWAP1 PUSH1 0x1 PUSH1 0x40 SHL DUP3 GT PUSH2 0x182A JUMPI PUSH1 0x3 DUP4 ADD SLOAD DUP3 PUSH1 0x3 DUP6 ADD SSTORE DUP1 DUP4 LT PUSH2 0x1F66 JUMPI JUMPDEST POP PUSH1 0x20 ADD PUSH1 0x3 DUP4 ADD DUP6 MSTORE PUSH1 0x20 DUP6 KECCAK256 DUP6 SWAP2 JUMPDEST DUP4 DUP4 LT PUSH2 0x1E38 JUMPI POP POP POP POP PUSH1 0x80 PUSH1 0xA0 MLOAD ADD MLOAD SWAP3 DUP4 MLOAD PUSH1 0x1 PUSH1 0x1 PUSH1 0x40 SHL SUB DUP2 GT PUSH2 0x1C26 JUMPI PUSH2 0x1129 PUSH1 0x4 DUP5 ADD SLOAD PUSH2 0x4647 JUMP JUMPDEST PUSH1 0x1F DUP2 GT PUSH2 0x1E05 JUMPI JUMPDEST POP PUSH1 0x20 PUSH1 0x1F DUP3 GT PUSH1 0x1 EQ PUSH2 0x1D99 JUMPI DUP3 SWAP4 SWAP5 SWAP6 DUP3 SWAP4 SWAP3 PUSH2 0x1D8E JUMPI JUMPDEST POP POP DUP2 PUSH1 0x1 SHL SWAP2 PUSH1 0x0 NOT SWAP1 PUSH1 0x3 SHL SHR NOT AND OR PUSH1 0x4 DUP4 ADD SSTORE JUMPDEST PUSH1 0xA0 DUP1 MLOAD ADD MLOAD SWAP3 DUP4 MLOAD PUSH1 0x1 PUSH1 0x1 PUSH1 0x40 SHL SUB DUP2 GT PUSH2 0x1B2C JUMPI PUSH2 0x1188 PUSH1 0x5 DUP6 ADD SLOAD PUSH2 0x4647 JUMP JUMPDEST PUSH1 0x1F DUP2 GT PUSH2 0x1D5B JUMPI JUMPDEST POP PUSH1 0x20 PUSH1 0x1F DUP3 GT PUSH1 0x1 EQ PUSH2 0x1CEF JUMPI DUP4 SWAP5 SWAP6 DUP3 SWAP4 SWAP5 SWAP3 PUSH2 0x1CE4 JUMPI JUMPDEST POP POP DUP2 PUSH1 0x1 SHL SWAP2 PUSH1 0x0 NOT SWAP1 PUSH1 0x3 SHL SHR NOT AND OR PUSH1 0x5 DUP5 ADD SSTORE JUMPDEST PUSH1 0xC0 PUSH1 0xA0 MLOAD ADD MLOAD SWAP3 DUP4 MLOAD PUSH1 0x1 PUSH1 0x1 PUSH1 0x40 SHL SUB DUP2 GT PUSH2 0x1768 JUMPI PUSH2 0x11E8 PUSH1 0x6 DUP4 ADD SLOAD PUSH2 0x4647 JUMP JUMPDEST PUSH1 0x1F DUP2 GT PUSH2 0x1CB1 JUMPI JUMPDEST POP PUSH1 0x20 PUSH1 0x1F DUP3 GT PUSH1 0x1 EQ PUSH2 0x1C45 JUMPI DUP5 SWAP6 DUP3 SWAP4 SWAP5 SWAP6 SWAP3 PUSH2 0x1C3A JUMPI JUMPDEST POP POP DUP2 PUSH1 0x1 SHL SWAP2 PUSH1 0x0 NOT SWAP1 PUSH1 0x3 SHL SHR NOT AND OR PUSH1 0x6 DUP3 ADD SSTORE JUMPDEST PUSH2 0x140 PUSH1 0xA0 MLOAD PUSH1 0xE0 DUP2 ADD MLOAD PUSH1 0x7 DUP5 ADD SSTORE PUSH2 0x100 DUP2 ADD MLOAD PUSH1 0x8 DUP5 ADD SSTORE PUSH2 0x120 DUP2 ADD MLOAD PUSH1 0x9 DUP5 ADD SSTORE ADD MLOAD SWAP3 DUP4 MLOAD PUSH1 0x1 PUSH1 0x1 PUSH1 0x40 SHL SUB DUP2 GT PUSH2 0x1C26 JUMPI PUSH2 0x1269 PUSH1 0xA DUP5 ADD SLOAD PUSH2 0x4647 JUMP JUMPDEST PUSH1 0x1F DUP2 GT PUSH2 0x1BF3 JUMPI JUMPDEST POP PUSH1 0x20 PUSH1 0x1F DUP3 GT PUSH1 0x1 EQ PUSH2 0x1B87 JUMPI DUP3 SWAP4 SWAP5 SWAP6 DUP3 SWAP4 SWAP3 PUSH2 0x1B7C JUMPI JUMPDEST POP POP DUP2 PUSH1 0x1 SHL SWAP2 PUSH1 0x0 NOT SWAP1 PUSH1 0x3 SHL SHR NOT AND OR PUSH1 0xA DUP4 ADD SSTORE JUMPDEST PUSH1 0xA0 MLOAD PUSH2 0x160 DUP2 ADD MLOAD PUSH1 0x3 DUP2 LT ISZERO PUSH2 0x1B68 JUMPI PUSH1 0xB DUP5 ADD SLOAD PUSH2 0x180 DUP4 ADD MLOAD SWAP1 PUSH1 0x2 DUP3 LT ISZERO PUSH2 0x1B54 JUMPI PUSH2 0x1A0 DUP5 ADD MLOAD PUSH1 0x4 DUP2 LT ISZERO PUSH2 0x1B40 JUMPI PUSH2 0x1E0 SWAP5 SWAP4 SWAP3 SWAP2 PUSH1 0xFF PUSH3 0xFF0000 PUSH2 0xFF00 SWAP4 PUSH1 0x10 SHL AND SWAP5 AND SWAP1 PUSH3 0xFFFFFF NOT AND OR SWAP2 PUSH1 0x8 SHL AND OR OR PUSH1 0xB DUP6 ADD SSTORE PUSH2 0x1C0 DUP2 ADD MLOAD PUSH1 0xC DUP6 ADD SSTORE ADD MLOAD SWAP3 DUP4 MLOAD PUSH1 0x1 PUSH1 0x1 PUSH1 0x40 SHL SUB DUP2 GT PUSH2 0x1B2C JUMPI PUSH2 0x1330 PUSH1 0xD DUP6 ADD SLOAD PUSH2 0x4647 JUMP JUMPDEST PUSH1 0x1F DUP2 GT PUSH2 0x1AF9 JUMPI JUMPDEST POP PUSH1 0x20 PUSH1 0x1F DUP3 GT PUSH1 0x1 EQ PUSH2 0x1A8D JUMPI DUP4 SWAP5 SWAP6 DUP3 SWAP4 SWAP5 SWAP3 PUSH2 0x1A82 JUMPI JUMPDEST POP POP DUP2 PUSH1 0x1 SHL SWAP2 PUSH1 0x0 NOT SWAP1 PUSH1 0x3 SHL SHR NOT AND OR PUSH1 0xD DUP5 ADD SSTORE JUMPDEST PUSH2 0x200 PUSH1 0xA0 MLOAD ADD MLOAD DUP1 MLOAD SWAP1 PUSH1 0x1 PUSH1 0x40 SHL DUP3 GT PUSH2 0x1768 JUMPI PUSH1 0xE DUP6 ADD SLOAD DUP3 PUSH1 0xE DUP8 ADD SSTORE DUP1 DUP4 LT PUSH2 0x1A0E JUMPI JUMPDEST POP PUSH1 0x20 ADD PUSH1 0xE DUP6 ADD DUP5 MSTORE PUSH1 0x20 DUP5 KECCAK256 DUP5 SWAP2 JUMPDEST DUP4 DUP4 LT PUSH2 0x18EB JUMPI POP POP POP POP PUSH1 0xF DUP4 ADD PUSH2 0x220 PUSH1 0xA0 MLOAD ADD MLOAD SWAP1 PUSH1 0x1 DUP1 PUSH1 0xA0 SHL SUB DUP3 MLOAD AND PUSH1 0x1 PUSH1 0x1 PUSH1 0x60 SHL SUB PUSH1 0xA0 SHL DUP3 SLOAD AND OR SWAP1 SSTORE PUSH1 0x20 DUP2 ADD MLOAD DUP1 MLOAD SWAP1 PUSH1 0x1 PUSH1 0x1 PUSH1 0x40 SHL SUB DUP3 GT PUSH2 0x182A JUMPI DUP2 SWAP1 PUSH2 0x13FD PUSH1 0x10 DUP9 ADD SLOAD PUSH2 0x4647 JUMP JUMPDEST PUSH1 0x1F DUP2 GT PUSH2 0x18B8 JUMPI JUMPDEST POP PUSH1 0x20 SWAP1 PUSH1 0x1F DUP4 GT PUSH1 0x1 EQ PUSH2 0x1849 JUMPI DUP7 SWAP3 PUSH2 0x183E JUMPI JUMPDEST POP POP DUP2 PUSH1 0x1 SHL SWAP2 PUSH1 0x0 NOT SWAP1 PUSH1 0x3 SHL SHR NOT AND OR PUSH1 0x10 DUP6 ADD SSTORE JUMPDEST PUSH1 0x40 DUP2 ADD MLOAD DUP1 MLOAD SWAP1 PUSH1 0x1 PUSH1 0x1 PUSH1 0x40 SHL SUB DUP3 GT PUSH2 0x182A JUMPI PUSH2 0x1457 PUSH1 0x11 DUP8 ADD SLOAD PUSH2 0x4647 JUMP JUMPDEST PUSH1 0x1F DUP2 GT PUSH2 0x17F7 JUMPI JUMPDEST POP PUSH1 0x20 SWAP1 PUSH1 0x1F DUP4 GT PUSH1 0x1 EQ PUSH2 0x1787 JUMPI PUSH1 0x80 SWAP4 SWAP3 SWAP2 DUP7 SWAP2 DUP4 PUSH2 0x177C JUMPI JUMPDEST POP POP DUP2 PUSH1 0x1 SHL SWAP2 PUSH1 0x0 NOT SWAP1 PUSH1 0x3 SHL SHR NOT AND OR PUSH1 0x11 DUP7 ADD SSTORE JUMPDEST PUSH1 0x60 DUP2 ADD MLOAD PUSH1 0x12 DUP7 ADD SSTORE ADD MLOAD SWAP3 DUP4 MLOAD PUSH1 0x1 PUSH1 0x1 PUSH1 0x40 SHL SUB DUP2 GT PUSH2 0x1768 JUMPI PUSH2 0x14BE PUSH1 0x13 DUP4 ADD SLOAD PUSH2 0x4647 JUMP JUMPDEST PUSH1 0x1F DUP2 GT PUSH2 0x172A JUMPI JUMPDEST POP PUSH1 0x20 PUSH1 0x1F DUP3 GT PUSH1 0x1 EQ PUSH2 0x16BE JUMPI DUP5 SWAP6 DUP3 SWAP4 SWAP5 SWAP6 SWAP3 PUSH2 0x16B3 JUMPI JUMPDEST POP POP DUP2 PUSH1 0x1 SHL SWAP2 PUSH1 0x0 NOT SWAP1 PUSH1 0x3 SHL SHR NOT AND OR PUSH1 0x13 DUP3 ADD SSTORE JUMPDEST PUSH1 0x17 PUSH2 0x2C0 PUSH1 0x14 DUP4 ADD PUSH2 0x1542 PUSH1 0xA0 MLOAD SWAP2 PUSH2 0x1526 PUSH2 0x240 DUP5 ADD MLOAD ISZERO ISZERO DUP3 SWAP1 PUSH1 0xFF DUP1 NOT DUP4 SLOAD AND SWAP2 ISZERO ISZERO AND OR SWAP1 SSTORE JUMP JUMPDEST PUSH2 0x260 DUP4 ADD MLOAD DUP2 SLOAD PUSH2 0xFF00 NOT AND SWAP1 ISZERO ISZERO PUSH1 0x8 SHL PUSH2 0xFF00 AND OR SWAP1 SSTORE JUMP JUMPDEST PUSH2 0x280 DUP2 ADD MLOAD PUSH1 0x15 DUP6 ADD SSTORE PUSH1 0x16 DUP5 ADD PUSH1 0x1 DUP1 PUSH1 0xA0 SHL SUB PUSH2 0x2A0 DUP4 ADD MLOAD AND PUSH1 0x1 PUSH1 0x1 PUSH1 0x60 SHL SUB PUSH1 0xA0 SHL DUP3 SLOAD AND OR SWAP1 SSTORE ADD MLOAD SWAP2 ADD SSTORE PUSH1 0x40 MLOAD PUSH2 0x1581 DUP2 PUSH2 0x40B4 JUMP JUMPDEST DUP3 DUP2 MSTORE CALLER ISZERO PUSH2 0x166F JUMPI PUSH1 0x0 DUP3 DUP2 MSTORE PUSH1 0x3 PUSH1 0x20 MSTORE PUSH1 0x40 SWAP1 KECCAK256 SLOAD PUSH2 0x1639 SWAP2 PUSH2 0x534 SWAP2 PUSH2 0x15B7 SWAP1 PUSH1 0x1 PUSH1 0x1 PUSH1 0xA0 SHL SUB AND ISZERO ISZERO JUMPDEST ISZERO PUSH2 0x4C74 JUMP JUMPDEST PUSH1 0x0 DUP5 DUP2 MSTORE PUSH1 0x3 PUSH1 0x20 MSTORE PUSH1 0x40 SWAP1 KECCAK256 SLOAD PUSH2 0x15DA SWAP1 PUSH1 0x1 PUSH1 0x1 PUSH1 0xA0 SHL SUB AND ISZERO ISZERO PUSH2 0x15B1 JUMP JUMPDEST CALLER DUP6 MSTORE PUSH1 0x4 PUSH1 0x20 MSTORE PUSH1 0x40 DUP6 KECCAK256 PUSH1 0x1 DUP2 SLOAD ADD SWAP1 SSTORE DUP4 DUP6 MSTORE PUSH1 0x3 PUSH1 0x20 MSTORE PUSH1 0x40 DUP6 KECCAK256 CALLER PUSH1 0x1 PUSH1 0x1 PUSH1 0x60 SHL SUB PUSH1 0xA0 SHL DUP3 SLOAD AND OR SWAP1 SSTORE DUP4 CALLER DUP7 PUSH32 0xDDF252AD1BE2C89B69C2B068FC378DAA952BA7F163C4A11628F55A4DF523B3EF DUP2 DUP1 LOG4 DUP4 CALLER PUSH2 0x4A17 JUMP JUMPDEST PUSH1 0x40 MLOAD SWAP1 PUSH1 0xA4 PUSH1 0x24 CALLDATALOAD ADD CALLDATALOAD DUP3 MSTORE PUSH32 0x346237025E4B201CFBDB8011C7AFCD8A0CC16C50E910D6AC5645AB7406BE429D PUSH1 0x20 CALLER SWAP4 LOG3 DUP1 RETURN JUMPDEST PUSH1 0x64 PUSH1 0x40 MLOAD PUSH3 0x461BCD PUSH1 0xE5 SHL DUP2 MSTORE PUSH1 0x20 PUSH1 0x4 DUP3 ADD MSTORE PUSH1 0x20 PUSH1 0x24 DUP3 ADD MSTORE PUSH32 0x4552433732313A206D696E7420746F20746865207A65726F2061646472657373 PUSH1 0x44 DUP3 ADD MSTORE REVERT JUMPDEST ADD MLOAD SWAP1 POP CODESIZE DUP1 PUSH2 0x14E1 JUMP JUMPDEST PUSH1 0x13 DUP4 ADD DUP6 MSTORE PUSH1 0x20 DUP6 KECCAK256 SWAP1 DUP6 JUMPDEST PUSH1 0x1F NOT DUP5 AND DUP2 LT PUSH2 0x1712 JUMPI POP PUSH1 0x1 SWAP4 SWAP5 SWAP6 SWAP7 DUP4 PUSH1 0x1F NOT DUP2 AND LT PUSH2 0x16F9 JUMPI JUMPDEST POP POP POP DUP2 SHL ADD PUSH1 0x13 DUP3 ADD SSTORE PUSH2 0x14F9 JUMP JUMPDEST ADD MLOAD PUSH1 0x0 NOT PUSH1 0xF8 DUP5 PUSH1 0x3 SHL AND SHR NOT AND SWAP1 SSTORE CODESIZE DUP1 DUP1 PUSH2 0x16E9 JUMP JUMPDEST SWAP1 SWAP2 PUSH1 0x20 PUSH1 0x1 DUP2 SWAP3 DUP6 DUP12 ADD MLOAD DUP2 SSTORE ADD SWAP4 ADD SWAP2 ADD PUSH2 0x16CB JUMP JUMPDEST PUSH2 0x1758 SWAP1 PUSH1 0x13 DUP5 ADD DUP7 MSTORE PUSH1 0x20 DUP7 KECCAK256 PUSH1 0x1F DUP5 ADD PUSH1 0x5 SHR DUP2 ADD SWAP2 PUSH1 0x20 DUP6 LT PUSH2 0x175E JUMPI JUMPDEST PUSH1 0x1F ADD PUSH1 0x5 SHR ADD SWAP1 PUSH2 0x4C5D JUMP JUMPDEST CODESIZE PUSH2 0x14C7 JUMP JUMPDEST SWAP1 SWAP2 POP DUP2 SWAP1 PUSH2 0x174B JUMP JUMPDEST PUSH4 0x4E487B71 PUSH1 0xE0 SHL DUP5 MSTORE PUSH1 0x41 PUSH1 0x4 MSTORE PUSH1 0x24 DUP5 REVERT JUMPDEST ADD MLOAD SWAP1 POP CODESIZE DUP1 PUSH2 0x147C JUMP JUMPDEST SWAP1 PUSH1 0x11 DUP8 ADD DUP7 MSTORE PUSH1 0x20 DUP7 KECCAK256 SWAP2 DUP7 JUMPDEST PUSH1 0x1F NOT DUP6 AND DUP2 LT PUSH2 0x17DF JUMPI POP SWAP2 DUP4 SWAP2 PUSH1 0x1 SWAP4 PUSH1 0x80 SWAP7 SWAP6 PUSH1 0x1F NOT DUP2 AND LT PUSH2 0x17C6 JUMPI JUMPDEST POP POP POP DUP2 SHL ADD PUSH1 0x11 DUP7 ADD SSTORE PUSH2 0x1494 JUMP JUMPDEST ADD MLOAD PUSH1 0x0 NOT PUSH1 0xF8 DUP5 PUSH1 0x3 SHL AND SHR NOT AND SWAP1 SSTORE CODESIZE DUP1 DUP1 PUSH2 0x17B6 JUMP JUMPDEST SWAP2 SWAP3 PUSH1 0x20 PUSH1 0x1 DUP2 SWAP3 DUP7 DUP6 ADD MLOAD DUP2 SSTORE ADD SWAP5 ADD SWAP3 ADD PUSH2 0x1795 JUMP JUMPDEST PUSH2 0x1824 SWAP1 PUSH1 0x11 DUP9 ADD DUP8 MSTORE PUSH1 0x20 DUP8 KECCAK256 PUSH1 0x1F DUP6 ADD PUSH1 0x5 SHR DUP2 ADD SWAP2 PUSH1 0x20 DUP7 LT PUSH2 0x175E JUMPI PUSH1 0x1F ADD PUSH1 0x5 SHR ADD SWAP1 PUSH2 0x4C5D JUMP JUMPDEST CODESIZE PUSH2 0x1460 JUMP JUMPDEST PUSH4 0x4E487B71 PUSH1 0xE0 SHL DUP6 MSTORE PUSH1 0x41 PUSH1 0x4 MSTORE PUSH1 0x24 DUP6 REVERT JUMPDEST ADD MLOAD SWAP1 POP CODESIZE DUP1 PUSH2 0x141C JUMP JUMPDEST SWAP3 POP PUSH1 0x10 DUP8 ADD DUP7 MSTORE PUSH1 0x20 DUP7 KECCAK256 SWAP1 DUP7 SWAP4 JUMPDEST PUSH1 0x1F NOT DUP5 AND DUP6 LT PUSH2 0x189D JUMPI PUSH1 0x1 SWAP5 POP DUP4 PUSH1 0x1F NOT DUP2 AND LT PUSH2 0x1884 JUMPI JUMPDEST POP POP POP DUP2 SHL ADD PUSH1 0x10 DUP6 ADD SSTORE PUSH2 0x1434 JUMP JUMPDEST ADD MLOAD PUSH1 0x0 NOT PUSH1 0xF8 DUP5 PUSH1 0x3 SHL AND SHR NOT AND SWAP1 SSTORE CODESIZE DUP1 DUP1 PUSH2 0x1874 JUMP JUMPDEST DUP2 DUP2 ADD MLOAD DUP4 SSTORE PUSH1 0x20 SWAP5 DUP6 ADD SWAP5 PUSH1 0x1 SWAP1 SWAP4 ADD SWAP3 SWAP1 SWAP2 ADD SWAP1 PUSH2 0x1859 JUMP JUMPDEST PUSH2 0x18E5 SWAP1 PUSH1 0x10 DUP10 ADD DUP9 MSTORE PUSH1 0x20 DUP9 KECCAK256 PUSH1 0x1F DUP6 ADD PUSH1 0x5 SHR DUP2 ADD SWAP2 PUSH1 0x20 DUP7 LT PUSH2 0x175E JUMPI PUSH1 0x1F ADD PUSH1 0x5 SHR ADD SWAP1 PUSH2 0x4C5D JUMP JUMPDEST CODESIZE PUSH2 0x1406 JUMP JUMPDEST DUP1 MLOAD DUP1 MLOAD SWAP1 PUSH1 0x1 PUSH1 0x1 PUSH1 0x40 SHL SUB DUP3 GT PUSH2 0x19FA JUMPI PUSH2 0x1908 DUP5 SLOAD PUSH2 0x4647 JUMP JUMPDEST PUSH1 0x1F DUP2 GT PUSH2 0x19CA JUMPI JUMPDEST POP PUSH1 0x20 SWAP1 PUSH1 0x1F DUP4 GT PUSH1 0x1 EQ PUSH2 0x195D JUMPI SWAP3 DUP3 PUSH1 0x1 SWAP5 SWAP4 PUSH1 0x20 SWAP4 DUP7 SWAP6 DUP13 SWAP3 PUSH2 0x1952 JUMPI JUMPDEST POP POP PUSH1 0x0 NOT PUSH1 0x3 DUP4 SWAP1 SHL SHR NOT AND SWAP1 DUP5 SHL OR DUP6 SSTORE JUMPDEST ADD SWAP3 ADD SWAP3 ADD SWAP2 SWAP1 PUSH2 0x13A5 JUMP JUMPDEST ADD MLOAD SWAP1 POP CODESIZE DUP1 PUSH2 0x1932 JUMP JUMPDEST SWAP1 DUP5 DUP10 MSTORE PUSH1 0x20 DUP10 KECCAK256 SWAP2 DUP10 JUMPDEST PUSH1 0x1F NOT DUP6 AND DUP2 LT PUSH2 0x19B2 JUMPI POP DUP4 PUSH1 0x20 SWAP4 PUSH1 0x1 SWAP7 SWAP4 DUP8 SWAP7 SWAP4 DUP8 SWAP5 PUSH1 0x1F NOT DUP2 AND LT PUSH2 0x1999 JUMPI JUMPDEST POP POP POP DUP2 SHL ADD DUP6 SSTORE PUSH2 0x1946 JUMP JUMPDEST ADD MLOAD PUSH1 0x0 NOT PUSH1 0xF8 DUP5 PUSH1 0x3 SHL AND SHR NOT AND SWAP1 SSTORE CODESIZE DUP1 DUP1 PUSH2 0x198C JUMP JUMPDEST SWAP2 SWAP3 PUSH1 0x20 PUSH1 0x1 DUP2 SWAP3 DUP7 DUP6 ADD MLOAD DUP2 SSTORE ADD SWAP5 ADD SWAP3 ADD PUSH2 0x1968 JUMP JUMPDEST PUSH2 0x19F4 SWAP1 DUP6 DUP11 MSTORE PUSH1 0x20 DUP11 KECCAK256 PUSH1 0x1F DUP6 ADD PUSH1 0x5 SHR DUP2 ADD SWAP2 PUSH1 0x20 DUP7 LT PUSH2 0x175E JUMPI PUSH1 0x1F ADD PUSH1 0x5 SHR ADD SWAP1 PUSH2 0x4C5D JUMP JUMPDEST CODESIZE PUSH2 0x1911 JUMP JUMPDEST PUSH4 0x4E487B71 PUSH1 0xE0 SHL DUP9 MSTORE PUSH1 0x41 PUSH1 0x4 MSTORE PUSH1 0x24 DUP9 REVERT JUMPDEST PUSH1 0xE DUP7 ADD DUP6 MSTORE PUSH1 0x20 DUP6 KECCAK256 SWAP1 DUP4 DUP3 ADD JUMPDEST DUP2 DUP4 ADD DUP2 LT PUSH2 0x1A2D JUMPI POP POP PUSH2 0x1394 JUMP JUMPDEST DUP1 DUP8 PUSH2 0x1A3B PUSH1 0x1 SWAP4 SLOAD PUSH2 0x4647 JUMP JUMPDEST DUP1 PUSH2 0x1A49 JUMPI JUMPDEST POP POP ADD PUSH2 0x1A1D JUMP JUMPDEST PUSH1 0x1F DUP2 GT DUP5 EQ PUSH2 0x1A5E JUMPI POP DUP2 SSTORE JUMPDEST DUP8 CODESIZE PUSH2 0x1A41 JUMP JUMPDEST DUP3 DUP3 MSTORE PUSH2 0x1A79 PUSH1 0x1F PUSH1 0x20 DUP5 KECCAK256 SWAP3 ADD PUSH1 0x5 SHR DUP3 ADD DUP6 DUP4 ADD PUSH2 0x4C5D JUMP JUMPDEST DUP2 DUP4 SSTORE SSTORE PUSH2 0x1A57 JUMP JUMPDEST ADD MLOAD SWAP1 POP CODESIZE DUP1 PUSH2 0x1353 JUMP JUMPDEST PUSH1 0xD DUP6 ADD DUP5 MSTORE PUSH1 0x20 DUP5 KECCAK256 SWAP1 DUP5 JUMPDEST PUSH1 0x1F NOT DUP5 AND DUP2 LT PUSH2 0x1AE1 JUMPI POP PUSH1 0x1 SWAP4 SWAP5 SWAP6 SWAP7 DUP4 PUSH1 0x1F NOT DUP2 AND LT PUSH2 0x1AC8 JUMPI JUMPDEST POP POP POP DUP2 SHL ADD PUSH1 0xD DUP5 ADD SSTORE PUSH2 0x136B JUMP JUMPDEST ADD MLOAD PUSH1 0x0 NOT PUSH1 0xF8 DUP5 PUSH1 0x3 SHL AND SHR NOT AND SWAP1 SSTORE CODESIZE DUP1 DUP1 PUSH2 0x1AB8 JUMP JUMPDEST SWAP1 SWAP2 PUSH1 0x20 PUSH1 0x1 DUP2 SWAP3 DUP6 DUP12 ADD MLOAD DUP2 SSTORE ADD SWAP4 ADD SWAP2 ADD PUSH2 0x1A9A JUMP JUMPDEST PUSH2 0x1B26 SWAP1 PUSH1 0xD DUP7 ADD DUP6 MSTORE PUSH1 0x20 DUP6 KECCAK256 PUSH1 0x1F DUP5 ADD PUSH1 0x5 SHR DUP2 ADD SWAP2 PUSH1 0x20 DUP6 LT PUSH2 0x175E JUMPI PUSH1 0x1F ADD PUSH1 0x5 SHR ADD SWAP1 PUSH2 0x4C5D JUMP JUMPDEST CODESIZE PUSH2 0x1339 JUMP JUMPDEST PUSH4 0x4E487B71 PUSH1 0xE0 SHL DUP4 MSTORE PUSH1 0x41 PUSH1 0x4 MSTORE PUSH1 0x24 DUP4 REVERT JUMPDEST PUSH4 0x4E487B71 PUSH1 0xE0 SHL DUP7 MSTORE PUSH1 0x21 PUSH1 0x4 MSTORE PUSH1 0x24 DUP7 REVERT JUMPDEST PUSH4 0x4E487B71 PUSH1 0xE0 SHL DUP6 MSTORE PUSH1 0x21 PUSH1 0x4 MSTORE PUSH1 0x24 DUP6 REVERT JUMPDEST PUSH4 0x4E487B71 PUSH1 0xE0 SHL DUP4 MSTORE PUSH1 0x21 PUSH1 0x4 MSTORE PUSH1 0x24 DUP4 REVERT JUMPDEST ADD MLOAD SWAP1 POP CODESIZE DUP1 PUSH2 0x128C JUMP JUMPDEST PUSH1 0xA DUP5 ADD DUP4 MSTORE PUSH1 0x20 DUP4 KECCAK256 SWAP1 DUP4 JUMPDEST PUSH1 0x1F NOT DUP5 AND DUP2 LT PUSH2 0x1BDB JUMPI POP PUSH1 0x1 SWAP4 SWAP5 SWAP6 SWAP7 DUP4 PUSH1 0x1F NOT DUP2 AND LT PUSH2 0x1BC2 JUMPI JUMPDEST POP POP POP DUP2 SHL ADD PUSH1 0xA DUP4 ADD SSTORE PUSH2 0x12A4 JUMP JUMPDEST ADD MLOAD PUSH1 0x0 NOT PUSH1 0xF8 DUP5 PUSH1 0x3 SHL AND SHR NOT AND SWAP1 SSTORE CODESIZE DUP1 DUP1 PUSH2 0x1BB2 JUMP JUMPDEST SWAP1 SWAP2 PUSH1 0x20 PUSH1 0x1 DUP2 SWAP3 DUP6 DUP12 ADD MLOAD DUP2 SSTORE ADD SWAP4 ADD SWAP2 ADD PUSH2 0x1B94 JUMP JUMPDEST PUSH2 0x1C20 SWAP1 PUSH1 0xA DUP6 ADD DUP5 MSTORE PUSH1 0x20 DUP5 KECCAK256 PUSH1 0x1F DUP5 ADD PUSH1 0x5 SHR DUP2 ADD SWAP2 PUSH1 0x20 DUP6 LT PUSH2 0x175E JUMPI PUSH1 0x1F ADD PUSH1 0x5 SHR ADD SWAP1 PUSH2 0x4C5D JUMP JUMPDEST CODESIZE PUSH2 0x1272 JUMP JUMPDEST PUSH4 0x4E487B71 PUSH1 0xE0 SHL DUP3 MSTORE PUSH1 0x41 PUSH1 0x4 MSTORE PUSH1 0x24 DUP3 REVERT JUMPDEST ADD MLOAD SWAP1 POP CODESIZE DUP1 PUSH2 0x120B JUMP JUMPDEST PUSH1 0x6 DUP4 ADD DUP6 MSTORE PUSH1 0x20 DUP6 KECCAK256 SWAP1 DUP6 JUMPDEST PUSH1 0x1F NOT DUP5 AND DUP2 LT PUSH2 0x1C99 JUMPI POP PUSH1 0x1 SWAP4 SWAP5 SWAP6 SWAP7 DUP4 PUSH1 0x1F NOT DUP2 AND LT PUSH2 0x1C80 JUMPI JUMPDEST POP POP POP DUP2 SHL ADD PUSH1 0x6 DUP3 ADD SSTORE PUSH2 0x1223 JUMP JUMPDEST ADD MLOAD PUSH1 0x0 NOT PUSH1 0xF8 DUP5 PUSH1 0x3 SHL AND SHR NOT AND SWAP1 SSTORE CODESIZE DUP1 DUP1 PUSH2 0x1C70 JUMP JUMPDEST SWAP1 SWAP2 PUSH1 0x20 PUSH1 0x1 DUP2 SWAP3 DUP6 DUP12 ADD MLOAD DUP2 SSTORE ADD SWAP4 ADD SWAP2 ADD PUSH2 0x1C52 JUMP JUMPDEST PUSH2 0x1CDE SWAP1 PUSH1 0x6 DUP5 ADD DUP7 MSTORE PUSH1 0x20 DUP7 KECCAK256 PUSH1 0x1F DUP5 ADD PUSH1 0x5 SHR DUP2 ADD SWAP2 PUSH1 0x20 DUP6 LT PUSH2 0x175E JUMPI PUSH1 0x1F ADD PUSH1 0x5 SHR ADD SWAP1 PUSH2 0x4C5D JUMP JUMPDEST CODESIZE PUSH2 0x11F1 JUMP JUMPDEST ADD MLOAD SWAP1 POP CODESIZE DUP1 PUSH2 0x11AB JUMP JUMPDEST PUSH1 0x5 DUP6 ADD DUP5 MSTORE PUSH1 0x20 DUP5 KECCAK256 SWAP1 DUP5 JUMPDEST PUSH1 0x1F NOT DUP5 AND DUP2 LT PUSH2 0x1D43 JUMPI POP PUSH1 0x1 SWAP4 SWAP5 SWAP6 SWAP7 DUP4 PUSH1 0x1F NOT DUP2 AND LT PUSH2 0x1D2A JUMPI JUMPDEST POP POP POP DUP2 SHL ADD PUSH1 0x5 DUP5 ADD SSTORE PUSH2 0x11C3 JUMP JUMPDEST ADD MLOAD PUSH1 0x0 NOT PUSH1 0xF8 DUP5 PUSH1 0x3 SHL AND SHR NOT AND SWAP1 SSTORE CODESIZE DUP1 DUP1 PUSH2 0x1D1A JUMP JUMPDEST SWAP1 SWAP2 PUSH1 0x20 PUSH1 0x1 DUP2 SWAP3 DUP6 DUP12 ADD MLOAD DUP2 SSTORE ADD SWAP4 ADD SWAP2 ADD PUSH2 0x1CFC JUMP JUMPDEST PUSH2 0x1D88 SWAP1 PUSH1 0x5 DUP7 ADD DUP6 MSTORE PUSH1 0x20 DUP6 KECCAK256 PUSH1 0x1F DUP5 ADD PUSH1 0x5 SHR DUP2 ADD SWAP2 PUSH1 0x20 DUP6 LT PUSH2 0x175E JUMPI PUSH1 0x1F ADD PUSH1 0x5 SHR ADD SWAP1 PUSH2 0x4C5D JUMP JUMPDEST CODESIZE PUSH2 0x1191 JUMP JUMPDEST ADD MLOAD SWAP1 POP CODESIZE DUP1 PUSH2 0x114C JUMP JUMPDEST PUSH1 0x4 DUP5 ADD DUP4 MSTORE PUSH1 0x20 DUP4 KECCAK256 SWAP1 DUP4 JUMPDEST PUSH1 0x1F NOT DUP5 AND DUP2 LT PUSH2 0x1DED JUMPI POP PUSH1 0x1 SWAP4 SWAP5 SWAP6 SWAP7 DUP4 PUSH1 0x1F NOT DUP2 AND LT PUSH2 0x1DD4 JUMPI JUMPDEST POP POP POP DUP2 SHL ADD PUSH1 0x4 DUP4 ADD SSTORE PUSH2 0x1164 JUMP JUMPDEST ADD MLOAD PUSH1 0x0 NOT PUSH1 0xF8 DUP5 PUSH1 0x3 SHL AND SHR NOT AND SWAP1 SSTORE CODESIZE DUP1 DUP1 PUSH2 0x1DC4 JUMP JUMPDEST SWAP1 SWAP2 PUSH1 0x20 PUSH1 0x1 DUP2 SWAP3 DUP6 DUP12 ADD MLOAD DUP2 SSTORE ADD SWAP4 ADD SWAP2 ADD PUSH2 0x1DA6 JUMP JUMPDEST PUSH2 0x1E32 SWAP1 PUSH1 0x4 DUP6 ADD DUP5 MSTORE PUSH1 0x20 DUP5 KECCAK256 PUSH1 0x1F DUP5 ADD PUSH1 0x5 SHR DUP2 ADD SWAP2 PUSH1 0x20 DUP6 LT PUSH2 0x175E JUMPI PUSH1 0x1F ADD PUSH1 0x5 SHR ADD SWAP1 PUSH2 0x4C5D JUMP JUMPDEST CODESIZE PUSH2 0x1132 JUMP JUMPDEST DUP1 MLOAD DUP1 MLOAD SWAP1 PUSH1 0x1 PUSH1 0x1 PUSH1 0x40 SHL SUB DUP3 GT PUSH2 0x1F52 JUMPI PUSH2 0x1E55 DUP5 SLOAD PUSH2 0x4647 JUMP JUMPDEST PUSH1 0x1F DUP2 GT PUSH2 0x1F17 JUMPI JUMPDEST POP PUSH1 0x20 SWAP1 PUSH1 0x1F DUP4 GT PUSH1 0x1 EQ PUSH2 0x1EAA JUMPI SWAP3 DUP3 PUSH1 0x1 SWAP5 SWAP4 PUSH1 0x20 SWAP4 DUP7 SWAP6 DUP14 SWAP3 PUSH2 0x1E9F JUMPI JUMPDEST POP POP PUSH1 0x0 NOT PUSH1 0x3 DUP4 SWAP1 SHL SHR NOT AND SWAP1 DUP5 SHL OR DUP6 SSTORE JUMPDEST ADD SWAP3 ADD SWAP3 ADD SWAP2 SWAP1 PUSH2 0x10F9 JUMP JUMPDEST ADD MLOAD SWAP1 POP CODESIZE DUP1 PUSH2 0x1E7F JUMP JUMPDEST SWAP1 DUP5 DUP11 MSTORE PUSH1 0x20 DUP11 KECCAK256 SWAP2 DUP11 JUMPDEST PUSH1 0x1F NOT DUP6 AND DUP2 LT PUSH2 0x1EFF JUMPI POP DUP4 PUSH1 0x20 SWAP4 PUSH1 0x1 SWAP7 SWAP4 DUP8 SWAP7 SWAP4 DUP8 SWAP5 PUSH1 0x1F NOT DUP2 AND LT PUSH2 0x1EE6 JUMPI JUMPDEST POP POP POP DUP2 SHL ADD DUP6 SSTORE PUSH2 0x1E93 JUMP JUMPDEST ADD MLOAD PUSH1 0x0 NOT PUSH1 0xF8 DUP5 PUSH1 0x3 SHL AND SHR NOT AND SWAP1 SSTORE CODESIZE DUP1 DUP1 PUSH2 0x1ED9 JUMP JUMPDEST SWAP2 SWAP3 PUSH1 0x20 PUSH1 0x1 DUP2 SWAP3 DUP7 DUP6 ADD MLOAD DUP2 SSTORE ADD SWAP5 ADD SWAP3 ADD PUSH2 0x1EB5 JUMP JUMPDEST PUSH2 0x1F42 SWAP1 DUP6 DUP12 MSTORE PUSH1 0x20 DUP12 KECCAK256 PUSH1 0x5 PUSH1 0x1F DUP7 ADD DUP2 SHR DUP3 ADD SWAP3 PUSH1 0x20 DUP8 LT PUSH2 0x1F48 JUMPI JUMPDEST PUSH1 0x1F ADD SWAP1 SHR ADD SWAP1 PUSH2 0x4C5D JUMP JUMPDEST CODESIZE PUSH2 0x1E5E JUMP JUMPDEST SWAP2 SWAP3 POP DUP3 SWAP2 PUSH2 0x1F36 JUMP JUMPDEST PUSH4 0x4E487B71 PUSH1 0xE0 SHL DUP10 MSTORE PUSH1 0x41 PUSH1 0x4 MSTORE PUSH1 0x24 DUP10 REVERT JUMPDEST PUSH1 0x3 DUP5 ADD DUP7 MSTORE PUSH1 0x20 DUP7 KECCAK256 SWAP1 DUP4 DUP3 ADD JUMPDEST DUP2 DUP4 ADD DUP2 LT PUSH2 0x1F85 JUMPI POP POP PUSH2 0x10E8 JUMP JUMPDEST DUP1 DUP9 PUSH2 0x1F93 PUSH1 0x1 SWAP4 SLOAD PUSH2 0x4647 JUMP JUMPDEST DUP1 PUSH2 0x1FA1 JUMPI JUMPDEST POP POP ADD PUSH2 0x1F75 JUMP JUMPDEST PUSH1 0x1F DUP2 GT DUP5 EQ PUSH2 0x1FB6 JUMPI POP DUP2 SSTORE JUMPDEST DUP9 CODESIZE PUSH2 0x1F99 JUMP JUMPDEST DUP3 DUP3 MSTORE PUSH2 0x1FD1 PUSH1 0x1F PUSH1 0x20 DUP5 KECCAK256 SWAP3 ADD PUSH1 0x5 SHR DUP3 ADD DUP6 DUP4 ADD PUSH2 0x4C5D JUMP JUMPDEST DUP2 DUP4 SSTORE SSTORE PUSH2 0x1FAF JUMP JUMPDEST ADD MLOAD SWAP1 POP CODESIZE DUP1 PUSH2 0x10A8 JUMP JUMPDEST PUSH1 0x2 DUP4 ADD DUP6 MSTORE PUSH1 0x20 DUP6 KECCAK256 SWAP1 DUP6 JUMPDEST PUSH1 0x1F NOT DUP5 AND DUP2 LT PUSH2 0x2039 JUMPI POP PUSH1 0x1 SWAP4 SWAP5 SWAP6 SWAP7 DUP4 PUSH1 0x1F NOT DUP2 AND LT PUSH2 0x2020 JUMPI JUMPDEST POP POP POP DUP2 SHL ADD PUSH1 0x2 DUP3 ADD SSTORE PUSH2 0x10C0 JUMP JUMPDEST ADD MLOAD PUSH1 0x0 NOT PUSH1 0xF8 DUP5 PUSH1 0x3 SHL AND SHR NOT AND SWAP1 SSTORE CODESIZE DUP1 DUP1 PUSH2 0x2010 JUMP JUMPDEST SWAP1 SWAP2 PUSH1 0x20 PUSH1 0x1 DUP2 SWAP3 DUP6 DUP12 ADD MLOAD DUP2 SSTORE ADD SWAP4 ADD SWAP2 ADD PUSH2 0x1FF2 JUMP JUMPDEST PUSH2 0x207E SWAP1 PUSH1 0x2 DUP5 ADD DUP7 MSTORE PUSH1 0x20 DUP7 KECCAK256 PUSH1 0x1F DUP5 ADD PUSH1 0x5 SHR DUP2 ADD SWAP2 PUSH1 0x20 DUP6 LT PUSH2 0x175E JUMPI PUSH1 0x1F ADD PUSH1 0x5 SHR ADD SWAP1 PUSH2 0x4C5D JUMP JUMPDEST CODESIZE PUSH2 0x108E JUMP JUMPDEST DUP11 DUP1 REVERT JUMPDEST PUSH1 0x40 MLOAD PUSH3 0x461BCD PUSH1 0xE5 SHL DUP2 MSTORE PUSH1 0x20 PUSH1 0x4 DUP3 ADD MSTORE PUSH1 0xF PUSH1 0x24 DUP3 ADD MSTORE PUSH15 0x496E76616C6964206D696C65616765 PUSH1 0x88 SHL PUSH1 0x44 DUP3 ADD MSTORE PUSH1 0x64 SWAP1 REVERT JUMPDEST PUSH1 0x40 MLOAD PUSH3 0x461BCD PUSH1 0xE5 SHL DUP2 MSTORE PUSH1 0x20 PUSH1 0x4 DUP3 ADD MSTORE PUSH1 0xC PUSH1 0x24 DUP3 ADD MSTORE PUSH12 0x24B73B30B634B2103CB2B0B9 PUSH1 0xA1 SHL PUSH1 0x44 DUP3 ADD MSTORE PUSH1 0x64 SWAP1 REVERT JUMPDEST PUSH4 0x4E487B71 PUSH1 0xE0 SHL DUP3 MSTORE PUSH1 0x11 PUSH1 0x4 MSTORE PUSH1 0x24 DUP3 REVERT JUMPDEST PUSH1 0x40 MLOAD PUSH3 0x461BCD PUSH1 0xE5 SHL DUP2 MSTORE PUSH1 0x20 PUSH1 0x4 DUP3 ADD MSTORE PUSH1 0x9 PUSH1 0x24 DUP3 ADD MSTORE PUSH9 0x4E6F20696D61676573 PUSH1 0xB8 SHL PUSH1 0x44 DUP3 ADD MSTORE PUSH1 0x64 SWAP1 REVERT JUMPDEST PUSH1 0x40 MLOAD PUSH3 0x461BCD PUSH1 0xE5 SHL DUP2 MSTORE PUSH1 0x20 PUSH1 0x4 DUP3 ADD MSTORE PUSH1 0xD PUSH1 0x24 DUP3 ADD MSTORE PUSH13 0x496E76616C6964207072696365 PUSH1 0x98 SHL PUSH1 0x44 DUP3 ADD MSTORE PUSH1 0x64 SWAP1 REVERT JUMPDEST PUSH1 0x40 MLOAD PUSH3 0x461BCD PUSH1 0xE5 SHL DUP2 MSTORE PUSH1 0x20 PUSH1 0x4 DUP3 ADD MSTORE PUSH1 0xE PUSH1 0x24 DUP3 ADD MSTORE PUSH14 0x24B73B30B634B21039B2B63632B9 PUSH1 0x91 SHL PUSH1 0x44 DUP3 ADD MSTORE PUSH1 0x64 SWAP1 REVERT JUMPDEST PUSH1 0x1 PUSH1 0x1 PUSH1 0xA0 SHL SUB SWAP2 POP PUSH2 0x21B6 SWAP1 PUSH2 0x4BBE JUMP JUMPDEST AND ISZERO ISZERO CODESIZE PUSH2 0xD52 JUMP JUMPDEST PUSH1 0x40 MLOAD PUSH3 0x461BCD PUSH1 0xE5 SHL DUP2 MSTORE PUSH1 0x20 PUSH1 0x4 DUP3 ADD MSTORE PUSH1 0x19 PUSH1 0x24 DUP3 ADD MSTORE PUSH32 0x556E737570706F72746564207061796D656E7420746F6B656E00000000000000 PUSH1 0x44 DUP3 ADD MSTORE PUSH1 0x64 SWAP1 REVERT JUMPDEST SWAP1 POP PUSH1 0x20 DUP2 RETURNDATASIZE PUSH1 0x20 GT PUSH2 0x2237 JUMPI JUMPDEST DUP2 PUSH2 0x221F PUSH1 0x20 SWAP4 DUP4 PUSH2 0x40CF JUMP JUMPDEST DUP2 ADD SUB SLT PUSH2 0x76B JUMPI MLOAD DUP1 ISZERO ISZERO DUP2 SUB PUSH2 0x76B JUMPI CODESIZE PUSH2 0xD2A JUMP JUMPDEST RETURNDATASIZE SWAP2 POP PUSH2 0x2212 JUMP JUMPDEST POP CALLVALUE PUSH2 0x205 JUMPI PUSH1 0x20 CALLDATASIZE PUSH1 0x3 NOT ADD SLT PUSH2 0x205 JUMPI PUSH1 0x20 PUSH2 0x225E PUSH1 0x4 CALLDATALOAD PUSH2 0x4624 JUMP JUMPDEST PUSH1 0x40 MLOAD PUSH1 0x1 PUSH1 0x1 PUSH1 0xA0 SHL SUB SWAP1 SWAP2 AND DUP2 MSTORE RETURN JUMPDEST POP CALLVALUE PUSH2 0x205 JUMPI PUSH1 0x20 DUP1 PUSH1 0x3 NOT CALLDATASIZE ADD SLT PUSH2 0x76B JUMPI PUSH1 0x4 CALLDATALOAD SWAP1 DUP2 DUP4 MSTORE PUSH1 0x9 DUP2 MSTORE PUSH1 0xFF PUSH1 0x14 PUSH1 0x40 DUP6 KECCAK256 ADD SLOAD PUSH1 0x8 SHR AND PUSH2 0x2369 JUMPI DUP3 DUP3 SWAP2 DUP3 DUP3 MSTORE PUSH1 0x9 DUP2 MSTORE PUSH1 0x14 PUSH1 0x40 DUP4 KECCAK256 ADD PUSH2 0x100 PUSH2 0xFF00 NOT DUP3 SLOAD AND OR SWAP1 SSTORE PUSH2 0x22C7 DUP4 PUSH2 0x4624 JUMP JUMPDEST POP PUSH2 0x22D1 DUP4 PUSH2 0x4624 JUMP JUMPDEST DUP4 DUP4 MSTORE PUSH1 0x5 DUP3 MSTORE PUSH1 0x40 DUP1 DUP5 KECCAK256 DUP1 SLOAD PUSH1 0x1 PUSH1 0x1 PUSH1 0xA0 SHL SUB NOT SWAP1 DUP2 AND SWAP1 SWAP2 SSTORE PUSH1 0x1 PUSH1 0x1 PUSH1 0xA0 SHL SUB SWAP1 SWAP3 AND DUP1 DUP6 MSTORE PUSH1 0x4 DUP5 MSTORE DUP2 DUP6 KECCAK256 DUP1 SLOAD PUSH1 0x0 NOT ADD SWAP1 SSTORE DUP6 DUP6 MSTORE PUSH1 0x3 SWAP1 SWAP4 MSTORE DUP4 KECCAK256 DUP1 SLOAD SWAP1 SWAP2 AND SWAP1 SSTORE PUSH32 0xDDF252AD1BE2C89B69C2B068FC378DAA952BA7F163C4A11628F55A4DF523B3EF DUP3 DUP1 LOG4 CALLER SWAP1 PUSH32 0x975848B3B721E792B1AFE72032F4FA971D1FAEB9BFD806CCF1FFADA5BAC8BAFE DUP4 DUP1 LOG3 DUP1 RETURN JUMPDEST PUSH1 0x64 SWAP1 PUSH1 0x40 MLOAD SWAP1 PUSH3 0x461BCD PUSH1 0xE5 SHL DUP3 MSTORE PUSH1 0x4 DUP3 ADD MSTORE PUSH1 0x13 PUSH1 0x24 DUP3 ADD MSTORE PUSH19 0x10D85C88185B1C9958591E4819195B195D1959 PUSH1 0x6A SHL PUSH1 0x44 DUP3 ADD MSTORE REVERT JUMPDEST POP CALLVALUE PUSH2 0x205 JUMPI PUSH1 0x20 SWAP1 DUP2 PUSH1 0x3 NOT CALLDATASIZE ADD SLT PUSH2 0x205 JUMPI PUSH1 0x40 PUSH2 0x2414 SWAP2 PUSH1 0x4 CALLDATALOAD PUSH2 0x23C8 PUSH2 0x4CC0 JUMP JUMPDEST POP DUP1 DUP3 MSTORE PUSH1 0x9 DUP6 MSTORE DUP3 DUP3 KECCAK256 PUSH1 0x1 ADD SLOAD PUSH2 0x23EB SWAP1 PUSH1 0x1 PUSH1 0x1 PUSH1 0xA0 SHL SUB AND ISZERO ISZERO PUSH2 0x4D8D JUMP JUMPDEST DUP1 DUP3 MSTORE PUSH1 0x9 DUP6 MSTORE PUSH2 0x2408 PUSH1 0xFF PUSH1 0x14 DUP6 DUP6 KECCAK256 ADD SLOAD PUSH1 0x8 SHR AND ISZERO PUSH2 0x4DCE JUMP JUMPDEST DUP2 MSTORE PUSH1 0x9 DUP5 MSTORE KECCAK256 PUSH2 0x4E66 JUMP JUMPDEST SWAP1 PUSH2 0x3FC PUSH1 0x40 MLOAD SWAP3 DUP3 DUP5 SWAP4 DUP5 MSTORE DUP4 ADD SWAP1 PUSH2 0x432F JUMP JUMPDEST POP CALLVALUE PUSH2 0x205 JUMPI PUSH2 0x539 PUSH2 0x534 PUSH2 0x243E CALLDATASIZE PUSH2 0x429E JUMP JUMPDEST SWAP1 PUSH1 0x40 MLOAD SWAP3 PUSH2 0x244C DUP5 PUSH2 0x40B4 JUMP JUMPDEST DUP7 DUP5 MSTORE PUSH2 0x524 PUSH2 0x51F DUP5 CALLER PUSH2 0x483E JUMP JUMPDEST POP CALLVALUE PUSH2 0x205 JUMPI DUP1 PUSH1 0x3 NOT CALLDATASIZE ADD SLT PUSH2 0x205 JUMPI PUSH1 0x7 SLOAD DUP2 PUSH1 0x1 JUMPDEST DUP3 DUP2 GT ISZERO PUSH2 0x2506 JUMPI POP PUSH2 0x2486 SWAP1 PUSH2 0x503B JUMP JUMPDEST SWAP2 DUP1 PUSH1 0x1 JUMPDEST DUP4 DUP2 GT ISZERO PUSH2 0x24A1 JUMPI PUSH1 0x40 MLOAD DUP1 PUSH2 0x3FC DUP8 DUP3 PUSH2 0x451E JUMP JUMPDEST DUP1 DUP3 MSTORE PUSH1 0x9 PUSH1 0x20 MSTORE PUSH1 0x40 DUP3 KECCAK256 PUSH1 0xFF PUSH1 0x14 DUP3 ADD SLOAD PUSH1 0x8 SHR AND ISZERO DUP1 PUSH2 0x24F0 JUMPI JUMPDEST PUSH2 0x24D3 JUMPI JUMPDEST POP PUSH2 0x24CE SWAP1 PUSH2 0x5016 JUMP JUMPDEST PUSH2 0x248B JUMP JUMPDEST SWAP3 SWAP1 PUSH2 0x24E9 DUP3 PUSH2 0x5CD PUSH2 0x5C7 PUSH2 0x24CE SWAP6 SWAP3 PUSH2 0x5016 JUMP JUMPDEST POP SWAP1 PUSH2 0x24C4 JUMP JUMPDEST POP PUSH1 0x1 DUP2 ADD SLOAD PUSH1 0x1 PUSH1 0x1 PUSH1 0xA0 SHL SUB AND CALLER EQ PUSH2 0x24BF JUMP JUMPDEST DUP1 DUP5 MSTORE PUSH1 0x9 PUSH1 0x20 MSTORE PUSH1 0x40 DUP5 KECCAK256 PUSH1 0xFF PUSH1 0x14 DUP3 ADD SLOAD PUSH1 0x8 SHR AND ISZERO SWAP1 DUP2 PUSH2 0x254E JUMPI JUMPDEST POP PUSH2 0x2539 JUMPI JUMPDEST PUSH2 0x2534 SWAP1 PUSH2 0x5016 JUMP JUMPDEST PUSH2 0x2474 JUMP JUMPDEST SWAP1 PUSH2 0x2546 PUSH2 0x2534 SWAP2 PUSH2 0x5016 JUMP JUMPDEST SWAP2 SWAP1 POP PUSH2 0x252B JUMP JUMPDEST PUSH1 0x1 ADD SLOAD PUSH1 0x1 PUSH1 0x1 PUSH1 0xA0 SHL SUB AND CALLER EQ SWAP1 POP CODESIZE PUSH2 0x2525 JUMP JUMPDEST POP CALLVALUE PUSH2 0x205 JUMPI DUP1 PUSH1 0x3 NOT CALLDATASIZE ADD SLT PUSH2 0x205 JUMPI DUP1 PUSH1 0x1 PUSH1 0x7 SLOAD SWAP1 JUMPDEST DUP2 DUP2 GT ISZERO PUSH2 0x270A JUMPI POP PUSH2 0x2590 DUP3 PUSH2 0x4160 JUMP JUMPDEST SWAP2 PUSH2 0x259E PUSH1 0x40 MLOAD SWAP4 DUP5 PUSH2 0x40CF JUMP JUMPDEST DUP1 DUP4 MSTORE PUSH2 0x25AD PUSH1 0x1F NOT SWAP2 PUSH2 0x4160 JUMP JUMPDEST ADD DUP4 JUMPDEST DUP2 DUP2 LT PUSH2 0x26D5 JUMPI POP POP DUP3 PUSH1 0x1 SWAP1 JUMPDEST DUP3 DUP3 GT ISZERO PUSH2 0x262E JUMPI POP POP POP PUSH1 0x40 MLOAD SWAP1 PUSH1 0x20 DUP1 DUP4 ADD SWAP1 DUP1 DUP5 MSTORE DUP3 MLOAD DUP1 SWAP3 MSTORE DUP1 PUSH1 0x40 DUP6 ADD SWAP4 ADD SWAP5 JUMPDEST DUP3 DUP2 LT PUSH2 0x25F1 JUMPI DUP5 DUP5 SUB DUP6 RETURN JUMPDEST DUP6 MLOAD DUP1 MLOAD DUP6 MSTORE DUP1 DUP4 ADD MLOAD DUP6 DUP5 ADD MSTORE PUSH1 0x40 DUP1 DUP3 ADD MLOAD SWAP1 DUP7 ADD MSTORE PUSH1 0x60 SWAP1 DUP2 ADD MLOAD PUSH1 0x1 PUSH1 0x1 PUSH1 0xA0 SHL SUB AND SWAP1 DUP6 ADD MSTORE SWAP5 DUP2 ADD SWAP5 PUSH1 0x80 SWAP1 SWAP4 ADD SWAP3 PUSH1 0x1 ADD PUSH2 0x25E4 JUMP JUMPDEST DUP5 SWAP2 SWAP4 SWAP3 SWAP5 SWAP1 JUMPDEST DUP5 DUP4 MSTORE PUSH1 0x20 PUSH1 0xA DUP2 MSTORE PUSH1 0x40 DUP5 KECCAK256 DUP1 SLOAD DUP5 LT ISZERO PUSH2 0x26BB JUMPI SWAP2 PUSH2 0x26AF SWAP2 PUSH2 0x265D DUP6 PUSH2 0x26B5 SWAP6 PUSH2 0x50B5 JUMP JUMPDEST POP PUSH1 0x40 MLOAD SWAP2 PUSH2 0x266B DUP4 PUSH2 0x406B JUMP JUMPDEST DUP2 SLOAD DUP4 MSTORE PUSH1 0x1 DUP3 ADD SLOAD SWAP1 DUP4 ADD MSTORE PUSH1 0x2 DUP2 ADD SLOAD PUSH1 0x40 DUP4 ADD MSTORE PUSH1 0x3 ADD SLOAD PUSH1 0x1 PUSH1 0x1 PUSH1 0xA0 SHL SUB AND PUSH1 0x60 DUP3 ADD MSTORE PUSH2 0x269E DUP3 DUP9 PUSH2 0x508B JUMP JUMPDEST MSTORE PUSH2 0x26A9 DUP2 DUP8 PUSH2 0x508B JUMP JUMPDEST POP PUSH2 0x5016 JUMP JUMPDEST SWAP2 PUSH2 0x5016 JUMP JUMPDEST SWAP1 PUSH2 0x2635 JUMP JUMPDEST POP POP SWAP3 SWAP5 SWAP2 SWAP4 PUSH2 0x26CB SWAP2 POP PUSH2 0x5016 JUMP JUMPDEST SWAP1 SWAP2 SWAP4 SWAP3 SWAP4 PUSH2 0x25BE JUMP JUMPDEST PUSH1 0x20 SWAP1 PUSH1 0x40 SWAP6 SWAP5 SWAP6 MLOAD PUSH2 0x26E7 DUP2 PUSH2 0x406B JUMP JUMPDEST DUP6 DUP2 MSTORE DUP3 DUP7 DUP2 DUP4 ADD MSTORE DUP7 PUSH1 0x40 DUP4 ADD MSTORE DUP7 PUSH1 0x60 DUP4 ADD MSTORE DUP3 DUP9 ADD ADD MSTORE ADD SWAP4 SWAP3 SWAP4 PUSH2 0x25B0 JUMP JUMPDEST SWAP3 SWAP2 DUP4 DUP4 MSTORE PUSH1 0xA PUSH1 0x20 MSTORE PUSH1 0x40 DUP4 KECCAK256 SLOAD DUP2 ADD DUP1 SWAP2 GT PUSH2 0x2734 JUMPI PUSH2 0x272C SWAP1 SWAP4 PUSH2 0x5016 JUMP JUMPDEST SWAP3 SWAP2 SWAP3 PUSH2 0x257E JUMP JUMPDEST PUSH4 0x4E487B71 PUSH1 0xE0 SHL DUP4 MSTORE PUSH1 0x11 PUSH1 0x4 MSTORE PUSH1 0x24 DUP4 REVERT JUMPDEST POP CALLVALUE PUSH2 0x205 JUMPI PUSH2 0x539 PUSH2 0x275A CALLDATASIZE PUSH2 0x429E JUMP JUMPDEST SWAP2 PUSH2 0x2768 PUSH2 0x51F DUP5 CALLER PUSH2 0x483E JUMP JUMPDEST PUSH2 0x4906 JUMP JUMPDEST POP CALLVALUE PUSH2 0x205 JUMPI PUSH1 0xA0 CALLDATASIZE PUSH1 0x3 NOT ADD SLT PUSH2 0x205 JUMPI PUSH1 0x1 PUSH1 0x1 PUSH1 0x40 SHL SUB PUSH1 0x24 CALLDATALOAD GT PUSH2 0x205 JUMPI PUSH1 0xE0 PUSH1 0x24 CALLDATALOAD CALLDATASIZE SUB PUSH1 0x3 NOT ADD SLT PUSH2 0x205 JUMPI PUSH1 0x40 MLOAD SWAP1 PUSH1 0xE0 DUP3 ADD DUP3 DUP2 LT PUSH1 0x1 PUSH1 0x1 PUSH1 0x40 SHL SUB DUP3 GT OR PUSH2 0x1C26 JUMPI PUSH1 0x40 MSTORE PUSH1 0x24 CALLDATALOAD PUSH1 0x4 ADD CALLDATALOAD PUSH1 0x1 PUSH1 0x1 PUSH1 0x40 SHL SUB DUP2 GT PUSH2 0x76B JUMPI PUSH2 0x27E3 SWAP1 PUSH1 0x4 CALLDATASIZE SWAP2 PUSH1 0x24 CALLDATALOAD ADD ADD PUSH2 0x4142 JUMP JUMPDEST DUP3 MSTORE PUSH1 0x24 DUP1 CALLDATALOAD ADD CALLDATALOAD PUSH1 0x1 PUSH1 0x1 PUSH1 0x40 SHL SUB DUP2 GT PUSH2 0x76B JUMPI PUSH2 0x280B SWAP1 PUSH1 0x4 CALLDATASIZE SWAP2 PUSH1 0x24 CALLDATALOAD ADD ADD PUSH2 0x41E6 JUMP JUMPDEST PUSH1 0x20 DUP4 ADD MSTORE PUSH1 0x44 PUSH1 0x24 CALLDATALOAD ADD CALLDATALOAD PUSH1 0x1 PUSH1 0x1 PUSH1 0x40 SHL SUB DUP2 GT PUSH2 0x76B JUMPI PUSH2 0x2837 SWAP1 PUSH1 0x4 CALLDATASIZE SWAP2 PUSH1 0x24 CALLDATALOAD ADD ADD PUSH2 0x4142 JUMP JUMPDEST PUSH1 0x40 DUP4 ADD MSTORE PUSH1 0x64 PUSH1 0x24 CALLDATALOAD ADD CALLDATALOAD PUSH1 0x1 PUSH1 0x1 PUSH1 0x40 SHL SUB DUP2 GT PUSH2 0x76B JUMPI PUSH2 0x2863 SWAP1 PUSH1 0x4 CALLDATASIZE SWAP2 PUSH1 0x24 CALLDATALOAD ADD ADD PUSH2 0x4142 JUMP JUMPDEST PUSH1 0x60 DUP4 ADD MSTORE PUSH1 0x84 PUSH1 0x24 CALLDATALOAD ADD CALLDATALOAD PUSH1 0x1 PUSH1 0x1 PUSH1 0x40 SHL SUB DUP2 GT PUSH2 0x76B JUMPI PUSH2 0x288F SWAP1 PUSH1 0x4 CALLDATASIZE SWAP2 PUSH1 0x24 CALLDATALOAD ADD ADD PUSH2 0x4142 JUMP JUMPDEST PUSH1 0x80 DUP4 ADD MSTORE PUSH1 0x24 CALLDATALOAD PUSH1 0xA4 DUP2 ADD CALLDATALOAD PUSH1 0xA0 DUP5 ADD MSTORE PUSH1 0xC4 ADD CALLDATALOAD PUSH1 0xC0 DUP4 ADD MSTORE PUSH1 0x1 PUSH1 0x1 PUSH1 0x40 SHL SUB PUSH1 0x44 CALLDATALOAD GT PUSH2 0x205 JUMPI PUSH1 0xC0 PUSH1 0x44 CALLDATALOAD CALLDATASIZE SUB PUSH1 0x3 NOT ADD SLT PUSH2 0x205 JUMPI PUSH1 0x40 MLOAD SWAP2 DUP3 PUSH1 0xC0 DUP2 ADD LT PUSH1 0x1 PUSH1 0x1 PUSH1 0x40 SHL SUB PUSH1 0xC0 DUP6 ADD GT OR PUSH2 0x1C26 JUMPI PUSH1 0xC0 DUP4 ADD PUSH1 0x40 MSTORE PUSH1 0x44 CALLDATALOAD PUSH1 0x4 ADD CALLDATALOAD DUP4 MSTORE PUSH1 0x1 PUSH1 0x1 PUSH1 0x40 SHL SUB PUSH1 0x24 PUSH1 0x44 CALLDATALOAD ADD CALLDATALOAD GT PUSH2 0x76B JUMPI PUSH2 0x291F CALLDATASIZE PUSH1 0x44 CALLDATALOAD PUSH1 0x24 DUP2 ADD CALLDATALOAD ADD PUSH1 0x4 ADD PUSH2 0x4142 JUMP JUMPDEST PUSH1 0x20 DUP5 ADD MSTORE PUSH1 0x3 PUSH1 0x44 DUP1 CALLDATALOAD ADD CALLDATALOAD LT ISZERO PUSH2 0x76B JUMPI PUSH1 0x44 DUP1 CALLDATALOAD ADD CALLDATALOAD PUSH1 0x40 DUP5 ADD MSTORE PUSH1 0x64 PUSH1 0x44 CALLDATALOAD ADD CALLDATALOAD PUSH1 0x2 DUP2 LT ISZERO PUSH2 0xBA6 JUMPI PUSH1 0x60 DUP5 ADD MSTORE PUSH1 0x4 PUSH1 0x84 PUSH1 0x44 CALLDATALOAD ADD CALLDATALOAD LT ISZERO PUSH2 0x76B JUMPI PUSH1 0x44 CALLDATALOAD PUSH1 0x84 DUP2 ADD CALLDATALOAD PUSH1 0x80 DUP6 ADD MSTORE PUSH1 0xA4 ADD CALLDATALOAD PUSH1 0xA0 DUP5 ADD MSTORE PUSH1 0x1 PUSH1 0x1 PUSH1 0x40 SHL SUB PUSH1 0x64 CALLDATALOAD GT PUSH2 0x76B JUMPI PUSH1 0x60 PUSH1 0x64 CALLDATALOAD CALLDATASIZE SUB PUSH1 0x3 NOT ADD SLT PUSH2 0x76B JUMPI PUSH1 0x40 MLOAD DUP1 PUSH1 0x60 DUP2 ADD LT PUSH1 0x1 PUSH1 0x1 PUSH1 0x40 SHL SUB PUSH1 0x60 DUP4 ADD GT OR PUSH2 0x1B2C JUMPI PUSH1 0x60 DUP2 ADD PUSH1 0x40 MSTORE PUSH1 0x64 CALLDATALOAD PUSH1 0x4 ADD CALLDATALOAD PUSH1 0x1 PUSH1 0x1 PUSH1 0x40 SHL SUB DUP2 GT PUSH2 0x6FF JUMPI PUSH2 0x29E0 SWAP1 PUSH1 0x4 CALLDATASIZE SWAP2 PUSH1 0x64 CALLDATALOAD ADD ADD PUSH2 0x4142 JUMP JUMPDEST DUP2 MSTORE PUSH1 0x24 PUSH1 0x64 CALLDATALOAD ADD CALLDATALOAD PUSH1 0x1 PUSH1 0x1 PUSH1 0x40 SHL SUB DUP2 GT PUSH2 0x6FF JUMPI PUSH2 0x2A09 SWAP1 PUSH1 0x4 CALLDATASIZE SWAP2 PUSH1 0x64 CALLDATALOAD ADD ADD PUSH2 0x4142 JUMP JUMPDEST PUSH1 0x20 DUP3 ADD MSTORE PUSH1 0x44 PUSH1 0x64 CALLDATALOAD ADD CALLDATALOAD PUSH1 0x1 PUSH1 0x1 PUSH1 0x40 SHL SUB DUP2 GT PUSH2 0x6FF JUMPI PUSH2 0x2A35 SWAP1 PUSH1 0x4 CALLDATASIZE SWAP2 PUSH1 0x64 CALLDATALOAD ADD ADD PUSH2 0x41E6 JUMP JUMPDEST PUSH1 0x40 DUP3 ADD MSTORE PUSH1 0x1 PUSH1 0x1 PUSH1 0x40 SHL SUB PUSH1 0x84 CALLDATALOAD GT PUSH2 0xBA6 JUMPI PUSH2 0x2A59 CALLDATASIZE PUSH1 0x84 CALLDATALOAD PUSH1 0x4 ADD PUSH2 0x4201 JUMP JUMPDEST SWAP2 PUSH1 0xA0 DUP6 ADD MLOAD ISZERO PUSH2 0x3CAB JUMPI DUP1 MLOAD MLOAD ISZERO PUSH2 0x3C6F JUMPI PUSH1 0x20 DUP2 ADD MLOAD MLOAD ISZERO PUSH2 0x3C2A JUMPI PUSH1 0x60 DUP2 ADD MLOAD MLOAD ISZERO PUSH2 0x3BEE JUMPI PUSH1 0x80 DUP2 ADD MLOAD MLOAD ISZERO PUSH2 0x3BB1 JUMPI DUP3 MLOAD PUSH1 0x4 CALLDATALOAD DUP6 MSTORE PUSH1 0x9 PUSH1 0x20 MSTORE PUSH1 0x40 DUP6 KECCAK256 PUSH1 0xF ADD SLOAD PUSH1 0x1 PUSH1 0x1 PUSH1 0xA0 SHL SUB SWAP2 DUP3 AND SWAP2 AND SUB PUSH2 0x3B6C JUMPI DUP3 MLOAD PUSH1 0x1 PUSH1 0x1 PUSH1 0xA0 SHL SUB AND CALLER SUB PUSH2 0x3B27 JUMPI DUP1 MLOAD SWAP1 PUSH1 0x20 DUP2 ADD MLOAD PUSH2 0x200 MSTORE PUSH1 0x40 DUP2 ADD MLOAD PUSH1 0x80 MSTORE PUSH1 0x60 DUP2 ADD MLOAD SWAP1 PUSH1 0x80 DUP2 ADD MLOAD SWAP1 PUSH1 0xC0 PUSH1 0xA0 DUP3 ADD MLOAD SWAP2 ADD MLOAD DUP9 MLOAD PUSH1 0x20 DUP11 ADD MLOAD SWAP2 PUSH1 0x40 DUP12 ADD MLOAD SWAP4 PUSH1 0x3 DUP6 LT ISZERO PUSH2 0x3B13 JUMPI PUSH1 0x60 DUP13 ADD MLOAD SWAP6 PUSH1 0x2 DUP8 LT ISZERO PUSH2 0x3AFF JUMPI PUSH1 0x80 DUP14 ADD MLOAD SWAP8 PUSH1 0x4 DUP10 LT ISZERO PUSH2 0x3AEB JUMPI PUSH1 0xA0 DUP14 SWAP15 SWAP14 SWAP13 SWAP14 ADD MLOAD SWAP10 DUP12 MLOAD SWAP12 PUSH1 0x40 ADD MLOAD SWAP13 PUSH1 0x4 CALLDATALOAD DUP2 MSTORE PUSH1 0x9 PUSH1 0x20 MSTORE PUSH1 0x40 SWAP1 KECCAK256 DUP1 PUSH2 0x1E0 MSTORE PUSH1 0x14 DUP2 ADD SLOAD PUSH1 0xFF AND PUSH2 0x180 MSTORE PUSH1 0x15 DUP2 ADD SLOAD PUSH1 0xE0 MSTORE PUSH1 0x1 PUSH1 0xA0 SHL PUSH1 0x1 SWAP1 SUB PUSH1 0x16 DUP3 ADD SLOAD AND PUSH2 0x100 MSTORE PUSH1 0x17 ADD SLOAD PUSH2 0x1C0 MSTORE PUSH1 0x40 MLOAD DUP1 PUSH2 0x120 MSTORE PUSH2 0x2B88 SWAP1 PUSH2 0x4039 JUMP JUMPDEST PUSH1 0x4 CALLDATALOAD PUSH2 0x120 MLOAD MSTORE CALLER PUSH2 0x120 MLOAD PUSH1 0x20 ADD MSTORE PUSH2 0x120 MLOAD PUSH1 0x40 ADD MSTORE PUSH2 0x200 MLOAD PUSH2 0x120 MLOAD PUSH1 0x60 ADD MSTORE PUSH1 0x80 MLOAD PUSH2 0x120 MLOAD PUSH1 0x80 ADD MSTORE PUSH2 0x120 MLOAD PUSH1 0xA0 ADD MSTORE PUSH2 0x120 MLOAD PUSH1 0xC0 ADD MSTORE PUSH2 0x120 MLOAD PUSH1 0xE0 ADD MSTORE PUSH2 0x120 MLOAD PUSH2 0x100 ADD MSTORE PUSH2 0x120 MLOAD PUSH2 0x120 ADD MSTORE PUSH2 0x120 MLOAD PUSH2 0x140 ADD MSTORE PUSH2 0x120 MLOAD PUSH2 0x160 ADD SWAP1 PUSH2 0x2BFD SWAP2 PUSH2 0x4C39 JUMP JUMPDEST PUSH2 0x120 MLOAD PUSH2 0x180 ADD SWAP1 PUSH2 0x2C0F SWAP2 PUSH2 0x4C45 JUMP JUMPDEST PUSH2 0x120 MLOAD PUSH2 0x1A0 ADD SWAP1 PUSH2 0x2C21 SWAP2 PUSH2 0x4C51 JUMP JUMPDEST PUSH2 0x120 MLOAD PUSH2 0x1C0 ADD MSTORE PUSH2 0x120 MLOAD PUSH2 0x1E0 ADD MSTORE PUSH2 0x120 MLOAD PUSH2 0x200 ADD MSTORE PUSH2 0x120 MLOAD PUSH2 0x220 ADD MSTORE PUSH2 0x180 MLOAD ISZERO ISZERO PUSH2 0x120 MLOAD PUSH2 0x240 ADD MSTORE DUP1 PUSH2 0x120 MLOAD PUSH2 0x260 ADD MSTORE PUSH1 0xE0 MLOAD PUSH2 0x120 MLOAD PUSH2 0x280 ADD MSTORE PUSH2 0x100 MLOAD PUSH2 0x120 MLOAD PUSH2 0x2A0 ADD MSTORE PUSH2 0x1C0 MLOAD PUSH2 0x120 MLOAD PUSH2 0x2C0 ADD MSTORE PUSH1 0x4 CALLDATALOAD DUP2 MSTORE PUSH1 0x9 PUSH1 0x20 MSTORE PUSH1 0x40 DUP2 KECCAK256 PUSH2 0x120 MLOAD DUP1 MLOAD DUP3 SSTORE PUSH1 0x1 PUSH1 0xA0 SHL PUSH1 0x1 SWAP1 SUB PUSH1 0x20 DUP3 ADD MLOAD AND PUSH1 0x1 PUSH1 0x1 PUSH1 0x60 SHL SUB PUSH1 0xA0 SHL PUSH1 0x1 DUP5 ADD SLOAD AND OR PUSH1 0x1 DUP4 ADD SSTORE PUSH1 0x40 ADD MLOAD SWAP2 DUP3 MLOAD PUSH1 0x1 PUSH1 0x1 PUSH1 0x40 SHL SUB DUP2 GT PUSH2 0x1C26 JUMPI PUSH2 0x2CE2 PUSH1 0x2 DUP5 ADD SLOAD PUSH2 0x4647 JUMP JUMPDEST PUSH1 0x1F DUP2 GT PUSH2 0x3AB8 JUMPI JUMPDEST POP PUSH1 0x20 PUSH1 0x1F DUP3 GT PUSH1 0x1 EQ PUSH2 0x3A4D JUMPI DUP3 SWAP4 SWAP5 DUP3 SWAP4 SWAP3 PUSH2 0x3A42 JUMPI JUMPDEST POP POP DUP2 PUSH1 0x1 SHL SWAP2 PUSH1 0x0 NOT SWAP1 PUSH1 0x3 SHL SHR NOT AND OR PUSH1 0x2 DUP4 ADD SSTORE JUMPDEST PUSH1 0x60 PUSH2 0x120 MLOAD ADD MLOAD DUP1 MLOAD SWAP1 PUSH1 0x1 PUSH1 0x40 SHL DUP3 GT PUSH2 0x1B2C JUMPI PUSH1 0x3 DUP5 ADD SLOAD DUP3 PUSH1 0x3 DUP7 ADD SSTORE DUP1 DUP4 LT PUSH2 0x39CE JUMPI JUMPDEST POP PUSH1 0x20 ADD PUSH1 0x3 DUP5 ADD DUP4 MSTORE PUSH1 0x20 DUP4 KECCAK256 DUP4 SWAP2 JUMPDEST DUP4 DUP4 LT PUSH2 0x38AB JUMPI DUP6 DUP6 PUSH1 0x80 PUSH2 0x120 MLOAD ADD MLOAD SWAP2 DUP3 MLOAD PUSH1 0x1 PUSH1 0x1 PUSH1 0x40 SHL SUB DUP2 GT PUSH2 0x1B2C JUMPI PUSH2 0x2D85 PUSH1 0x4 DUP4 ADD SLOAD PUSH2 0x4647 JUMP JUMPDEST PUSH1 0x1F DUP2 GT PUSH2 0x3878 JUMPI JUMPDEST POP PUSH1 0x20 PUSH1 0x1F DUP3 GT PUSH1 0x1 EQ PUSH2 0x380D JUMPI DUP4 SWAP5 DUP3 SWAP4 SWAP5 SWAP3 PUSH2 0x3802 JUMPI JUMPDEST POP POP DUP2 PUSH1 0x1 SHL SWAP2 PUSH1 0x0 NOT SWAP1 PUSH1 0x3 SHL SHR NOT AND OR PUSH1 0x4 DUP3 ADD SSTORE JUMPDEST PUSH1 0xA0 PUSH2 0x120 MLOAD ADD MLOAD SWAP2 DUP3 MLOAD PUSH1 0x1 PUSH1 0x1 PUSH1 0x40 SHL SUB DUP2 GT PUSH2 0x1C26 JUMPI PUSH2 0x2DE5 PUSH1 0x5 DUP5 ADD SLOAD PUSH2 0x4647 JUMP JUMPDEST PUSH1 0x1F DUP2 GT PUSH2 0x37CF JUMPI JUMPDEST POP PUSH1 0x20 PUSH1 0x1F DUP3 GT PUSH1 0x1 EQ PUSH2 0x3764 JUMPI DUP3 SWAP4 SWAP5 DUP3 SWAP4 SWAP3 PUSH2 0x3759 JUMPI JUMPDEST POP POP DUP2 PUSH1 0x1 SHL SWAP2 PUSH1 0x0 NOT SWAP1 PUSH1 0x3 SHL SHR NOT AND OR PUSH1 0x5 DUP4 ADD SSTORE JUMPDEST PUSH1 0xC0 PUSH2 0x120 MLOAD ADD MLOAD SWAP2 DUP3 MLOAD PUSH1 0x1 PUSH1 0x1 PUSH1 0x40 SHL SUB DUP2 GT PUSH2 0x1B2C JUMPI PUSH2 0x2E45 PUSH1 0x6 DUP4 ADD SLOAD PUSH2 0x4647 JUMP JUMPDEST PUSH1 0x1F DUP2 GT PUSH2 0x3726 JUMPI JUMPDEST POP PUSH1 0x20 PUSH1 0x1F DUP3 GT PUSH1 0x1 EQ PUSH2 0x36BB JUMPI DUP4 SWAP5 DUP3 SWAP4 SWAP5 SWAP3 PUSH2 0x36B0 JUMPI JUMPDEST POP POP DUP2 PUSH1 0x1 SHL SWAP2 PUSH1 0x0 NOT SWAP1 PUSH1 0x3 SHL SHR NOT AND OR PUSH1 0x6 DUP3 ADD SSTORE JUMPDEST PUSH2 0x140 PUSH2 0x120 MLOAD PUSH1 0xE0 DUP2 ADD MLOAD PUSH1 0x7 DUP5 ADD SSTORE PUSH2 0x100 DUP2 ADD MLOAD PUSH1 0x8 DUP5 ADD SSTORE PUSH2 0x120 DUP2 ADD MLOAD PUSH1 0x9 DUP5 ADD SSTORE ADD MLOAD SWAP2 DUP3 MLOAD PUSH1 0x1 PUSH1 0x1 PUSH1 0x40 SHL SUB DUP2 GT PUSH2 0x1C26 JUMPI PUSH2 0x2EC6 PUSH1 0xA DUP5 ADD SLOAD PUSH2 0x4647 JUMP JUMPDEST PUSH1 0x1F DUP2 GT PUSH2 0x367D JUMPI JUMPDEST POP PUSH1 0x20 PUSH1 0x1F DUP3 GT PUSH1 0x1 EQ PUSH2 0x3612 JUMPI DUP3 SWAP4 SWAP5 DUP3 SWAP4 SWAP3 PUSH2 0x3607 JUMPI JUMPDEST POP POP DUP2 PUSH1 0x1 SHL SWAP2 PUSH1 0x0 NOT SWAP1 PUSH1 0x3 SHL SHR NOT AND OR PUSH1 0xA DUP4 ADD SSTORE JUMPDEST PUSH2 0x120 MLOAD PUSH2 0x160 DUP2 ADD MLOAD PUSH1 0x3 DUP2 LT ISZERO PUSH2 0x1B68 JUMPI PUSH1 0xB DUP5 ADD SLOAD PUSH2 0x180 DUP4 ADD MLOAD SWAP1 PUSH1 0x2 DUP3 LT ISZERO PUSH2 0x1B54 JUMPI PUSH2 0x1A0 DUP5 ADD MLOAD PUSH1 0x4 DUP2 LT ISZERO PUSH2 0x1B40 JUMPI PUSH2 0x1E0 SWAP5 SWAP4 SWAP3 SWAP2 PUSH1 0xFF PUSH3 0xFF0000 PUSH2 0xFF00 SWAP4 PUSH1 0x10 SHL AND SWAP5 AND SWAP1 PUSH3 0xFFFFFF NOT AND OR SWAP2 PUSH1 0x8 SHL AND OR OR PUSH1 0xB DUP6 ADD SSTORE PUSH2 0x1C0 DUP2 ADD MLOAD PUSH1 0xC DUP6 ADD SSTORE ADD MLOAD SWAP2 DUP3 MLOAD PUSH1 0x1 PUSH1 0x1 PUSH1 0x40 SHL SUB DUP2 GT PUSH2 0x1B2C JUMPI PUSH2 0x2F8D PUSH1 0xD DUP4 ADD SLOAD PUSH2 0x4647 JUMP JUMPDEST PUSH1 0x1F DUP2 GT PUSH2 0x35D4 JUMPI JUMPDEST POP PUSH1 0x20 PUSH1 0x1F DUP3 GT PUSH1 0x1 EQ PUSH2 0x3569 JUMPI DUP4 SWAP5 DUP3 SWAP4 SWAP5 SWAP3 PUSH2 0x355E JUMPI JUMPDEST POP POP DUP2 PUSH1 0x1 SHL SWAP2 PUSH1 0x0 NOT SWAP1 PUSH1 0x3 SHL SHR NOT AND OR PUSH1 0xD DUP3 ADD SSTORE JUMPDEST PUSH2 0x200 PUSH2 0x120 MLOAD ADD MLOAD DUP1 MLOAD SWAP1 PUSH1 0x1 PUSH1 0x40 SHL DUP3 GT PUSH2 0x1768 JUMPI PUSH1 0xE DUP4 ADD SLOAD DUP3 PUSH1 0xE DUP6 ADD SSTORE DUP1 DUP4 LT PUSH2 0x34EA JUMPI JUMPDEST POP PUSH1 0x20 ADD PUSH1 0xE DUP4 ADD DUP5 MSTORE PUSH1 0x20 DUP5 KECCAK256 DUP5 SWAP2 JUMPDEST DUP4 DUP4 LT PUSH2 0x33DB JUMPI DUP6 DUP6 PUSH1 0xF DUP2 ADD SWAP1 PUSH2 0x220 PUSH2 0x120 MLOAD ADD MLOAD SWAP2 PUSH1 0x1 DUP1 PUSH1 0xA0 SHL SUB DUP4 MLOAD AND PUSH1 0x1 PUSH1 0x1 PUSH1 0x60 SHL SUB PUSH1 0xA0 SHL DUP3 SLOAD AND OR SWAP1 SSTORE PUSH1 0x20 DUP3 ADD MLOAD SWAP3 DUP4 MLOAD PUSH1 0x1 PUSH1 0x1 PUSH1 0x40 SHL SUB DUP2 GT PUSH2 0x1C26 JUMPI PUSH2 0x3058 PUSH1 0x10 DUP5 ADD SLOAD PUSH2 0x4647 JUMP JUMPDEST PUSH1 0x1F DUP2 GT PUSH2 0x33A8 JUMPI JUMPDEST POP PUSH1 0x20 PUSH1 0x1F DUP3 GT PUSH1 0x1 EQ PUSH2 0x333C JUMPI DUP3 SWAP4 SWAP5 SWAP6 DUP3 SWAP4 SWAP3 PUSH2 0x3331 JUMPI JUMPDEST POP POP DUP2 PUSH1 0x1 SHL SWAP2 PUSH1 0x0 NOT SWAP1 PUSH1 0x3 SHL SHR NOT AND OR PUSH1 0x10 DUP4 ADD SSTORE JUMPDEST PUSH1 0x40 DUP4 ADD MLOAD SWAP3 DUP4 MLOAD PUSH1 0x1 PUSH1 0x1 PUSH1 0x40 SHL SUB DUP2 GT PUSH2 0x1B2C JUMPI PUSH2 0x30B6 PUSH1 0x11 DUP6 ADD SLOAD PUSH2 0x4647 JUMP JUMPDEST PUSH1 0x1F DUP2 GT PUSH2 0x32FE JUMPI JUMPDEST POP PUSH1 0x20 PUSH1 0x1F DUP3 GT PUSH1 0x1 EQ PUSH2 0x328E JUMPI DUP2 SWAP1 DUP5 SWAP6 SWAP7 PUSH1 0x80 SWAP6 SWAP3 PUSH2 0x3283 JUMPI JUMPDEST POP POP DUP2 PUSH1 0x1 SHL SWAP2 PUSH1 0x0 NOT SWAP1 PUSH1 0x3 SHL SHR NOT AND OR PUSH1 0x11 DUP6 ADD SSTORE JUMPDEST PUSH1 0x60 DUP2 ADD MLOAD PUSH1 0x12 DUP6 ADD SSTORE ADD MLOAD SWAP2 DUP3 MLOAD PUSH1 0x1 PUSH1 0x1 PUSH1 0x40 SHL SUB DUP2 GT PUSH2 0x1B2C JUMPI PUSH1 0x13 DUP3 ADD SWAP1 PUSH2 0x311F DUP3 SLOAD PUSH2 0x4647 JUMP JUMPDEST PUSH1 0x1F DUP2 GT PUSH2 0x3253 JUMPI JUMPDEST POP PUSH1 0x20 SWAP5 PUSH1 0x1F DUP3 GT PUSH1 0x1 EQ PUSH2 0x31F0 JUMPI SWAP5 DUP5 SWAP6 DUP3 SWAP4 SWAP5 SWAP6 SWAP3 PUSH2 0x31E5 JUMPI JUMPDEST POP POP DUP2 PUSH1 0x1 SHL SWAP2 PUSH1 0x0 NOT SWAP1 PUSH1 0x3 SHL SHR NOT AND OR SWAP1 SSTORE JUMPDEST PUSH1 0x17 PUSH2 0x2C0 PUSH1 0x14 DUP4 ADD PUSH2 0x3187 PUSH2 0x120 MLOAD SWAP2 PUSH2 0x1526 PUSH2 0x240 DUP5 ADD MLOAD ISZERO ISZERO DUP3 SWAP1 PUSH1 0xFF DUP1 NOT DUP4 SLOAD AND SWAP2 ISZERO ISZERO AND OR SWAP1 SSTORE JUMP JUMPDEST PUSH2 0x280 DUP2 ADD MLOAD PUSH1 0x15 DUP6 ADD SSTORE PUSH1 0x16 DUP5 ADD PUSH1 0x1 DUP1 PUSH1 0xA0 SHL SUB PUSH2 0x2A0 DUP4 ADD MLOAD AND PUSH1 0x1 PUSH1 0x1 PUSH1 0x60 SHL SUB PUSH1 0xA0 SHL DUP3 SLOAD AND OR SWAP1 SSTORE ADD MLOAD SWAP2 ADD SSTORE CALLER PUSH1 0x4 CALLDATALOAD PUSH32 0xAC4673E0C14F555F7A29DC1ABE824E57FEEB4DC61DFFC46E24A31D970178D6A DUP4 DUP1 LOG3 DUP1 RETURN JUMPDEST ADD MLOAD SWAP1 POP DUP6 DUP1 PUSH2 0x3144 JUMP JUMPDEST PUSH1 0x1F NOT DUP3 AND SWAP6 DUP4 DUP7 MSTORE PUSH1 0x20 DUP7 KECCAK256 SWAP2 DUP7 JUMPDEST DUP9 DUP2 LT PUSH2 0x323B JUMPI POP DUP4 PUSH1 0x1 SWAP6 SWAP7 SWAP8 SWAP9 LT PUSH2 0x3222 JUMPI JUMPDEST POP POP POP DUP2 SHL ADD SWAP1 SSTORE PUSH2 0x3159 JUMP JUMPDEST ADD MLOAD PUSH1 0x0 NOT PUSH1 0xF8 DUP5 PUSH1 0x3 SHL AND SHR NOT AND SWAP1 SSTORE DUP6 DUP1 DUP1 PUSH2 0x3215 JUMP JUMPDEST SWAP2 SWAP3 PUSH1 0x20 PUSH1 0x1 DUP2 SWAP3 DUP7 DUP6 ADD MLOAD DUP2 SSTORE ADD SWAP5 ADD SWAP3 ADD PUSH2 0x3200 JUMP JUMPDEST PUSH2 0x327D SWAP1 DUP4 DUP7 MSTORE PUSH1 0x20 DUP7 KECCAK256 PUSH1 0x1F DUP5 ADD PUSH1 0x5 SHR DUP2 ADD SWAP2 PUSH1 0x20 DUP6 LT PUSH2 0x175E JUMPI PUSH1 0x1F ADD PUSH1 0x5 SHR ADD SWAP1 PUSH2 0x4C5D JUMP JUMPDEST DUP6 PUSH2 0x3128 JUMP JUMPDEST ADD MLOAD SWAP1 POP DUP7 DUP1 PUSH2 0x30DB JUMP JUMPDEST PUSH1 0x11 DUP6 ADD DUP5 MSTORE PUSH1 0x20 DUP5 KECCAK256 SWAP6 DUP5 JUMPDEST PUSH1 0x1F NOT DUP5 AND DUP2 LT PUSH2 0x32E6 JUMPI POP SWAP6 DUP3 SWAP2 PUSH1 0x80 SWAP6 SWAP7 SWAP8 PUSH1 0x1 SWAP5 PUSH1 0x1F NOT DUP2 AND LT PUSH2 0x32CD JUMPI JUMPDEST POP POP POP DUP2 SHL ADD PUSH1 0x11 DUP6 ADD SSTORE PUSH2 0x30F3 JUMP JUMPDEST ADD MLOAD PUSH1 0x0 NOT PUSH1 0xF8 DUP5 PUSH1 0x3 SHL AND SHR NOT AND SWAP1 SSTORE DUP7 DUP1 DUP1 PUSH2 0x32BD JUMP JUMPDEST DUP3 DUP3 ADD MLOAD DUP9 SSTORE PUSH1 0x1 SWAP1 SWAP8 ADD SWAP7 PUSH1 0x20 SWAP3 DUP4 ADD SWAP3 ADD PUSH2 0x329B JUMP JUMPDEST PUSH2 0x332B SWAP1 PUSH1 0x11 DUP7 ADD DUP6 MSTORE PUSH1 0x20 DUP6 KECCAK256 PUSH1 0x1F DUP5 ADD PUSH1 0x5 SHR DUP2 ADD SWAP2 PUSH1 0x20 DUP6 LT PUSH2 0x175E JUMPI PUSH1 0x1F ADD PUSH1 0x5 SHR ADD SWAP1 PUSH2 0x4C5D JUMP JUMPDEST DUP6 PUSH2 0x30BF JUMP JUMPDEST ADD MLOAD SWAP1 POP DUP6 DUP1 PUSH2 0x307B JUMP JUMPDEST PUSH1 0x10 DUP5 ADD DUP4 MSTORE PUSH1 0x20 DUP4 KECCAK256 SWAP1 DUP4 JUMPDEST PUSH1 0x1F NOT DUP5 AND DUP2 LT PUSH2 0x3390 JUMPI POP PUSH1 0x1 SWAP4 SWAP5 SWAP6 SWAP7 DUP4 PUSH1 0x1F NOT DUP2 AND LT PUSH2 0x3377 JUMPI JUMPDEST POP POP POP DUP2 SHL ADD PUSH1 0x10 DUP4 ADD SSTORE PUSH2 0x3093 JUMP JUMPDEST ADD MLOAD PUSH1 0x0 NOT PUSH1 0xF8 DUP5 PUSH1 0x3 SHL AND SHR NOT AND SWAP1 SSTORE DUP6 DUP1 DUP1 PUSH2 0x3367 JUMP JUMPDEST SWAP1 SWAP2 PUSH1 0x20 PUSH1 0x1 DUP2 SWAP3 DUP6 DUP12 ADD MLOAD DUP2 SSTORE ADD SWAP4 ADD SWAP2 ADD PUSH2 0x3349 JUMP JUMPDEST PUSH2 0x33D5 SWAP1 PUSH1 0x10 DUP6 ADD DUP5 MSTORE PUSH1 0x20 DUP5 KECCAK256 PUSH1 0x1F DUP5 ADD PUSH1 0x5 SHR DUP2 ADD SWAP2 PUSH1 0x20 DUP6 LT PUSH2 0x175E JUMPI PUSH1 0x1F ADD PUSH1 0x5 SHR ADD SWAP1 PUSH2 0x4C5D JUMP JUMPDEST DUP6 PUSH2 0x3061 JUMP JUMPDEST DUP1 MLOAD DUP1 MLOAD SWAP1 PUSH1 0x1 PUSH1 0x1 PUSH1 0x40 SHL SUB DUP3 GT PUSH2 0x19FA JUMPI PUSH2 0x33F8 DUP5 SLOAD PUSH2 0x4647 JUMP JUMPDEST PUSH1 0x1F DUP2 GT PUSH2 0x34BA JUMPI JUMPDEST POP PUSH1 0x20 SWAP1 PUSH1 0x1F DUP4 GT PUSH1 0x1 EQ PUSH2 0x344D JUMPI SWAP3 DUP3 PUSH1 0x1 SWAP5 SWAP4 PUSH1 0x20 SWAP4 DUP7 SWAP6 DUP13 SWAP3 PUSH2 0x3442 JUMPI JUMPDEST POP POP PUSH1 0x0 NOT PUSH1 0x3 DUP4 SWAP1 SHL SHR NOT AND SWAP1 DUP5 SHL OR DUP6 SSTORE JUMPDEST ADD SWAP3 ADD SWAP3 ADD SWAP2 SWAP1 PUSH2 0x3002 JUMP JUMPDEST ADD MLOAD SWAP1 POP DUP12 DUP1 PUSH2 0x3422 JUMP JUMPDEST SWAP1 DUP5 DUP10 MSTORE PUSH1 0x20 DUP10 KECCAK256 SWAP2 DUP10 JUMPDEST PUSH1 0x1F NOT DUP6 AND DUP2 LT PUSH2 0x34A2 JUMPI POP DUP4 PUSH1 0x20 SWAP4 PUSH1 0x1 SWAP7 SWAP4 DUP8 SWAP7 SWAP4 DUP8 SWAP5 PUSH1 0x1F NOT DUP2 AND LT PUSH2 0x3489 JUMPI JUMPDEST POP POP POP DUP2 SHL ADD DUP6 SSTORE PUSH2 0x3436 JUMP JUMPDEST ADD MLOAD PUSH1 0x0 NOT PUSH1 0xF8 DUP5 PUSH1 0x3 SHL AND SHR NOT AND SWAP1 SSTORE DUP12 DUP1 DUP1 PUSH2 0x347C JUMP JUMPDEST SWAP2 SWAP3 PUSH1 0x20 PUSH1 0x1 DUP2 SWAP3 DUP7 DUP6 ADD MLOAD DUP2 SSTORE ADD SWAP5 ADD SWAP3 ADD PUSH2 0x3458 JUMP JUMPDEST PUSH2 0x34E4 SWAP1 DUP6 DUP11 MSTORE PUSH1 0x20 DUP11 KECCAK256 PUSH1 0x1F DUP6 ADD PUSH1 0x5 SHR DUP2 ADD SWAP2 PUSH1 0x20 DUP7 LT PUSH2 0x175E JUMPI PUSH1 0x1F ADD PUSH1 0x5 SHR ADD SWAP1 PUSH2 0x4C5D JUMP JUMPDEST DUP9 PUSH2 0x3401 JUMP JUMPDEST PUSH1 0xE DUP5 ADD DUP6 MSTORE PUSH1 0x20 DUP6 KECCAK256 SWAP1 DUP4 DUP3 ADD JUMPDEST DUP2 DUP4 ADD DUP2 LT PUSH2 0x3509 JUMPI POP POP PUSH2 0x2FF1 JUMP JUMPDEST DUP1 DUP8 PUSH2 0x3517 PUSH1 0x1 SWAP4 SLOAD PUSH2 0x4647 JUMP JUMPDEST DUP1 PUSH2 0x3525 JUMPI JUMPDEST POP POP ADD PUSH2 0x34F9 JUMP JUMPDEST PUSH1 0x1F DUP2 GT DUP5 EQ PUSH2 0x353A JUMPI POP DUP2 SSTORE JUMPDEST DUP8 DUP10 PUSH2 0x351D JUMP JUMPDEST DUP3 DUP3 MSTORE PUSH2 0x3555 PUSH1 0x1F PUSH1 0x20 DUP5 KECCAK256 SWAP3 ADD PUSH1 0x5 SHR DUP3 ADD DUP6 DUP4 ADD PUSH2 0x4C5D JUMP JUMPDEST DUP2 DUP4 SSTORE SSTORE PUSH2 0x3533 JUMP JUMPDEST ADD MLOAD SWAP1 POP DUP5 DUP1 PUSH2 0x2FAF JUMP JUMPDEST PUSH1 0xD DUP4 ADD DUP5 MSTORE PUSH1 0x20 DUP5 KECCAK256 SWAP1 DUP5 JUMPDEST PUSH1 0x1F NOT DUP5 AND DUP2 LT PUSH2 0x35BC JUMPI POP PUSH1 0x1 SWAP4 SWAP5 SWAP6 DUP4 PUSH1 0x1F NOT DUP2 AND LT PUSH2 0x35A3 JUMPI JUMPDEST POP POP POP DUP2 SHL ADD PUSH1 0xD DUP3 ADD SSTORE PUSH2 0x2FC7 JUMP JUMPDEST ADD MLOAD PUSH1 0x0 NOT PUSH1 0xF8 DUP5 PUSH1 0x3 SHL AND SHR NOT AND SWAP1 SSTORE DUP5 DUP1 DUP1 PUSH2 0x3593 JUMP JUMPDEST SWAP1 SWAP2 PUSH1 0x20 PUSH1 0x1 DUP2 SWAP3 DUP6 DUP11 ADD MLOAD DUP2 SSTORE ADD SWAP4 ADD SWAP2 ADD PUSH2 0x3576 JUMP JUMPDEST PUSH2 0x3601 SWAP1 PUSH1 0xD DUP5 ADD DUP6 MSTORE PUSH1 0x20 DUP6 KECCAK256 PUSH1 0x1F DUP5 ADD PUSH1 0x5 SHR DUP2 ADD SWAP2 PUSH1 0x20 DUP6 LT PUSH2 0x175E JUMPI PUSH1 0x1F ADD PUSH1 0x5 SHR ADD SWAP1 PUSH2 0x4C5D JUMP JUMPDEST DUP5 PUSH2 0x2F96 JUMP JUMPDEST ADD MLOAD SWAP1 POP DUP5 DUP1 PUSH2 0x2EE8 JUMP JUMPDEST PUSH1 0xA DUP5 ADD DUP4 MSTORE PUSH1 0x20 DUP4 KECCAK256 SWAP1 DUP4 JUMPDEST PUSH1 0x1F NOT DUP5 AND DUP2 LT PUSH2 0x3665 JUMPI POP PUSH1 0x1 SWAP4 SWAP5 SWAP6 DUP4 PUSH1 0x1F NOT DUP2 AND LT PUSH2 0x364C JUMPI JUMPDEST POP POP POP DUP2 SHL ADD PUSH1 0xA DUP4 ADD SSTORE PUSH2 0x2F00 JUMP JUMPDEST ADD MLOAD PUSH1 0x0 NOT PUSH1 0xF8 DUP5 PUSH1 0x3 SHL AND SHR NOT AND SWAP1 SSTORE DUP5 DUP1 DUP1 PUSH2 0x363C JUMP JUMPDEST SWAP1 SWAP2 PUSH1 0x20 PUSH1 0x1 DUP2 SWAP3 DUP6 DUP11 ADD MLOAD DUP2 SSTORE ADD SWAP4 ADD SWAP2 ADD PUSH2 0x361F JUMP JUMPDEST PUSH2 0x36AA SWAP1 PUSH1 0xA DUP6 ADD DUP5 MSTORE PUSH1 0x20 DUP5 KECCAK256 PUSH1 0x1F DUP5 ADD PUSH1 0x5 SHR DUP2 ADD SWAP2 PUSH1 0x20 DUP6 LT PUSH2 0x175E JUMPI PUSH1 0x1F ADD PUSH1 0x5 SHR ADD SWAP1 PUSH2 0x4C5D JUMP JUMPDEST DUP5 PUSH2 0x2ECF JUMP JUMPDEST ADD MLOAD SWAP1 POP DUP5 DUP1 PUSH2 0x2E67 JUMP JUMPDEST PUSH1 0x6 DUP4 ADD DUP5 MSTORE PUSH1 0x20 DUP5 KECCAK256 SWAP1 DUP5 JUMPDEST PUSH1 0x1F NOT DUP5 AND DUP2 LT PUSH2 0x370E JUMPI POP PUSH1 0x1 SWAP4 SWAP5 SWAP6 DUP4 PUSH1 0x1F NOT DUP2 AND LT PUSH2 0x36F5 JUMPI JUMPDEST POP POP POP DUP2 SHL ADD PUSH1 0x6 DUP3 ADD SSTORE PUSH2 0x2E7F JUMP JUMPDEST ADD MLOAD PUSH1 0x0 NOT PUSH1 0xF8 DUP5 PUSH1 0x3 SHL AND SHR NOT AND SWAP1 SSTORE DUP5 DUP1 DUP1 PUSH2 0x36E5 JUMP JUMPDEST SWAP1 SWAP2 PUSH1 0x20 PUSH1 0x1 DUP2 SWAP3 DUP6 DUP11 ADD MLOAD DUP2 SSTORE ADD SWAP4 ADD SWAP2 ADD PUSH2 0x36C8 JUMP JUMPDEST PUSH2 0x3753 SWAP1 PUSH1 0x6 DUP5 ADD DUP6 MSTORE PUSH1 0x20 DUP6 KECCAK256 PUSH1 0x1F DUP5 ADD PUSH1 0x5 SHR DUP2 ADD SWAP2 PUSH1 0x20 DUP6 LT PUSH2 0x175E JUMPI PUSH1 0x1F ADD PUSH1 0x5 SHR ADD SWAP1 PUSH2 0x4C5D JUMP JUMPDEST DUP5 PUSH2 0x2E4E JUMP JUMPDEST ADD MLOAD SWAP1 POP DUP5 DUP1 PUSH2 0x2E07 JUMP JUMPDEST PUSH1 0x5 DUP5 ADD DUP4 MSTORE PUSH1 0x20 DUP4 KECCAK256 SWAP1 DUP4 JUMPDEST PUSH1 0x1F NOT DUP5 AND DUP2 LT PUSH2 0x37B7 JUMPI POP PUSH1 0x1 SWAP4 SWAP5 SWAP6 DUP4 PUSH1 0x1F NOT DUP2 AND LT PUSH2 0x379E JUMPI JUMPDEST POP POP POP DUP2 SHL ADD PUSH1 0x5 DUP4 ADD SSTORE PUSH2 0x2E1F JUMP JUMPDEST ADD MLOAD PUSH1 0x0 NOT PUSH1 0xF8 DUP5 PUSH1 0x3 SHL AND SHR NOT AND SWAP1 SSTORE DUP5 DUP1 DUP1 PUSH2 0x378E JUMP JUMPDEST SWAP1 SWAP2 PUSH1 0x20 PUSH1 0x1 DUP2 SWAP3 DUP6 DUP11 ADD MLOAD DUP2 SSTORE ADD SWAP4 ADD SWAP2 ADD PUSH2 0x3771 JUMP JUMPDEST PUSH2 0x37FC SWAP1 PUSH1 0x5 DUP6 ADD DUP5 MSTORE PUSH1 0x20 DUP5 KECCAK256 PUSH1 0x1F DUP5 ADD PUSH1 0x5 SHR DUP2 ADD SWAP2 PUSH1 0x20 DUP6 LT PUSH2 0x175E JUMPI PUSH1 0x1F ADD PUSH1 0x5 SHR ADD SWAP1 PUSH2 0x4C5D JUMP JUMPDEST DUP5 PUSH2 0x2DEE JUMP JUMPDEST ADD MLOAD SWAP1 POP DUP5 DUP1 PUSH2 0x2DA7 JUMP JUMPDEST PUSH1 0x4 DUP4 ADD DUP5 MSTORE PUSH1 0x20 DUP5 KECCAK256 SWAP1 DUP5 JUMPDEST PUSH1 0x1F NOT DUP5 AND DUP2 LT PUSH2 0x3860 JUMPI POP PUSH1 0x1 SWAP4 SWAP5 SWAP6 DUP4 PUSH1 0x1F NOT DUP2 AND LT PUSH2 0x3847 JUMPI JUMPDEST POP POP POP DUP2 SHL ADD PUSH1 0x4 DUP3 ADD SSTORE PUSH2 0x2DBF JUMP JUMPDEST ADD MLOAD PUSH1 0x0 NOT PUSH1 0xF8 DUP5 PUSH1 0x3 SHL AND SHR NOT AND SWAP1 SSTORE DUP5 DUP1 DUP1 PUSH2 0x3837 JUMP JUMPDEST SWAP1 SWAP2 PUSH1 0x20 PUSH1 0x1 DUP2 SWAP3 DUP6 DUP11 ADD MLOAD DUP2 SSTORE ADD SWAP4 ADD SWAP2 ADD PUSH2 0x381A JUMP JUMPDEST PUSH2 0x38A5 SWAP1 PUSH1 0x4 DUP5 ADD DUP6 MSTORE PUSH1 0x20 DUP6 KECCAK256 PUSH1 0x1F DUP5 ADD PUSH1 0x5 SHR DUP2 ADD SWAP2 PUSH1 0x20 DUP6 LT PUSH2 0x175E JUMPI PUSH1 0x1F ADD PUSH1 0x5 SHR ADD SWAP1 PUSH2 0x4C5D JUMP JUMPDEST DUP5 PUSH2 0x2D8E JUMP JUMPDEST DUP1 MLOAD DUP1 MLOAD SWAP1 PUSH1 0x1 PUSH1 0x1 PUSH1 0x40 SHL SUB DUP3 GT PUSH2 0x39BA JUMPI PUSH2 0x38C8 DUP5 SLOAD PUSH2 0x4647 JUMP JUMPDEST PUSH1 0x1F DUP2 GT PUSH2 0x398A JUMPI JUMPDEST POP PUSH1 0x20 SWAP1 PUSH1 0x1F DUP4 GT PUSH1 0x1 EQ PUSH2 0x391D JUMPI SWAP3 DUP3 PUSH1 0x1 SWAP5 SWAP4 PUSH1 0x20 SWAP4 DUP7 SWAP6 DUP12 SWAP3 PUSH2 0x3912 JUMPI JUMPDEST POP POP PUSH1 0x0 NOT PUSH1 0x3 DUP4 SWAP1 SHL SHR NOT AND SWAP1 DUP5 SHL OR DUP6 SSTORE JUMPDEST ADD SWAP3 ADD SWAP3 ADD SWAP2 SWAP1 PUSH2 0x2D56 JUMP JUMPDEST ADD MLOAD SWAP1 POP CODESIZE DUP1 PUSH2 0x38F2 JUMP JUMPDEST SWAP1 DUP5 DUP9 MSTORE PUSH1 0x20 DUP9 KECCAK256 SWAP2 DUP9 JUMPDEST PUSH1 0x1F NOT DUP6 AND DUP2 LT PUSH2 0x3972 JUMPI POP DUP4 PUSH1 0x20 SWAP4 PUSH1 0x1 SWAP7 SWAP4 DUP8 SWAP7 SWAP4 DUP8 SWAP5 PUSH1 0x1F NOT DUP2 AND LT PUSH2 0x3959 JUMPI JUMPDEST POP POP POP DUP2 SHL ADD DUP6 SSTORE PUSH2 0x3906 JUMP JUMPDEST ADD MLOAD PUSH1 0x0 NOT PUSH1 0xF8 DUP5 PUSH1 0x3 SHL AND SHR NOT AND SWAP1 SSTORE CODESIZE DUP1 DUP1 PUSH2 0x394C JUMP JUMPDEST SWAP2 SWAP3 PUSH1 0x20 PUSH1 0x1 DUP2 SWAP3 DUP7 DUP6 ADD MLOAD DUP2 SSTORE ADD SWAP5 ADD SWAP3 ADD PUSH2 0x3928 JUMP JUMPDEST PUSH2 0x39B4 SWAP1 DUP6 DUP10 MSTORE PUSH1 0x20 DUP10 KECCAK256 PUSH1 0x5 PUSH1 0x1F DUP7 ADD DUP2 SHR DUP3 ADD SWAP3 PUSH1 0x20 DUP8 LT PUSH2 0x1F48 JUMPI PUSH1 0x1F ADD SWAP1 SHR ADD SWAP1 PUSH2 0x4C5D JUMP JUMPDEST CODESIZE PUSH2 0x38D1 JUMP JUMPDEST PUSH4 0x4E487B71 PUSH1 0xE0 SHL DUP8 MSTORE PUSH1 0x41 PUSH1 0x4 MSTORE PUSH1 0x24 DUP8 REVERT JUMPDEST PUSH1 0x3 DUP6 ADD DUP5 MSTORE PUSH1 0x20 DUP5 KECCAK256 SWAP1 DUP4 DUP3 ADD JUMPDEST DUP2 DUP4 ADD DUP2 LT PUSH2 0x39ED JUMPI POP POP PUSH2 0x2D45 JUMP JUMPDEST DUP1 DUP7 PUSH2 0x39FB PUSH1 0x1 SWAP4 SLOAD PUSH2 0x4647 JUMP JUMPDEST DUP1 PUSH2 0x3A09 JUMPI JUMPDEST POP POP ADD PUSH2 0x39DD JUMP JUMPDEST PUSH1 0x1F DUP2 GT DUP5 EQ PUSH2 0x3A1E JUMPI POP DUP2 SSTORE JUMPDEST DUP7 CODESIZE PUSH2 0x3A01 JUMP JUMPDEST DUP3 DUP3 MSTORE PUSH2 0x3A39 PUSH1 0x1F PUSH1 0x20 DUP5 KECCAK256 SWAP3 ADD PUSH1 0x5 SHR DUP3 ADD DUP6 DUP4 ADD PUSH2 0x4C5D JUMP JUMPDEST DUP2 DUP4 SSTORE SSTORE PUSH2 0x3A17 JUMP JUMPDEST ADD MLOAD SWAP1 POP CODESIZE DUP1 PUSH2 0x2D04 JUMP JUMPDEST PUSH1 0x2 DUP5 ADD DUP4 MSTORE PUSH1 0x20 DUP4 KECCAK256 SWAP1 DUP4 JUMPDEST PUSH1 0x1F NOT DUP5 AND DUP2 LT PUSH2 0x3AA0 JUMPI POP PUSH1 0x1 SWAP4 SWAP5 SWAP6 DUP4 PUSH1 0x1F NOT DUP2 AND LT PUSH2 0x3A87 JUMPI JUMPDEST POP POP POP DUP2 SHL ADD PUSH1 0x2 DUP4 ADD SSTORE PUSH2 0x2D1C JUMP JUMPDEST ADD MLOAD PUSH1 0x0 NOT PUSH1 0xF8 DUP5 PUSH1 0x3 SHL AND SHR NOT AND SWAP1 SSTORE CODESIZE DUP1 DUP1 PUSH2 0x3A77 JUMP JUMPDEST SWAP1 SWAP2 PUSH1 0x20 PUSH1 0x1 DUP2 SWAP3 DUP6 DUP11 ADD MLOAD DUP2 SSTORE ADD SWAP4 ADD SWAP2 ADD PUSH2 0x3A5A JUMP JUMPDEST PUSH2 0x3AE5 SWAP1 PUSH1 0x2 DUP6 ADD DUP5 MSTORE PUSH1 0x20 DUP5 KECCAK256 PUSH1 0x1F DUP5 ADD PUSH1 0x5 SHR DUP2 ADD SWAP2 PUSH1 0x20 DUP6 LT PUSH2 0x175E JUMPI PUSH1 0x1F ADD PUSH1 0x5 SHR ADD SWAP1 PUSH2 0x4C5D JUMP JUMPDEST CODESIZE PUSH2 0x2CEB JUMP JUMPDEST PUSH4 0x4E487B71 PUSH1 0xE0 SHL DUP14 MSTORE PUSH1 0x21 PUSH1 0x4 MSTORE PUSH1 0x24 DUP14 REVERT JUMPDEST PUSH4 0x4E487B71 PUSH1 0xE0 SHL DUP13 MSTORE PUSH1 0x21 PUSH1 0x4 MSTORE PUSH1 0x24 DUP13 REVERT JUMPDEST PUSH4 0x4E487B71 PUSH1 0xE0 SHL DUP12 MSTORE PUSH1 0x21 PUSH1 0x4 MSTORE PUSH1 0x24 DUP12 REVERT JUMPDEST PUSH1 0x40 MLOAD PUSH3 0x461BCD PUSH1 0xE5 SHL DUP2 MSTORE PUSH1 0x20 PUSH1 0x4 DUP3 ADD MSTORE PUSH1 0x1F PUSH1 0x24 DUP3 ADD MSTORE PUSH32 0x53656C6C65722077616C6C6574206D757374206D617463682073656E64657200 PUSH1 0x44 DUP3 ADD MSTORE PUSH1 0x64 SWAP1 REVERT JUMPDEST PUSH1 0x40 MLOAD PUSH3 0x461BCD PUSH1 0xE5 SHL DUP2 MSTORE PUSH1 0x20 PUSH1 0x4 DUP3 ADD MSTORE PUSH1 0x1B PUSH1 0x24 DUP3 ADD MSTORE PUSH32 0x43616E6E6F74206368616E67652073656C6C65722077616C6C65740000000000 PUSH1 0x44 DUP3 ADD MSTORE PUSH1 0x64 SWAP1 REVERT JUMPDEST PUSH1 0x40 MLOAD PUSH3 0x461BCD PUSH1 0xE5 SHL DUP2 MSTORE PUSH1 0x20 PUSH1 0x4 DUP3 ADD MSTORE PUSH1 0x15 PUSH1 0x24 DUP3 ADD MSTORE PUSH21 0x4D6F64656C2063616E6E6F7420626520656D707479 PUSH1 0x58 SHL PUSH1 0x44 DUP3 ADD MSTORE PUSH1 0x64 SWAP1 REVERT JUMPDEST PUSH1 0x40 MLOAD PUSH3 0x461BCD PUSH1 0xE5 SHL DUP2 MSTORE PUSH1 0x20 PUSH1 0x4 DUP3 ADD MSTORE PUSH1 0x14 PUSH1 0x24 DUP3 ADD MSTORE PUSH20 0x4D616B652063616E6E6F7420626520656D707479 PUSH1 0x60 SHL PUSH1 0x44 DUP3 ADD MSTORE PUSH1 0x64 SWAP1 REVERT JUMPDEST PUSH1 0x40 MLOAD PUSH3 0x461BCD PUSH1 0xE5 SHL DUP2 MSTORE PUSH1 0x20 PUSH1 0x4 DUP3 ADD MSTORE PUSH1 0x1E PUSH1 0x24 DUP3 ADD MSTORE PUSH32 0x4174206C65617374206F6E6520696D6167652069732072657175697265640000 PUSH1 0x44 DUP3 ADD MSTORE PUSH1 0x64 SWAP1 REVERT JUMPDEST PUSH1 0x40 MLOAD PUSH3 0x461BCD PUSH1 0xE5 SHL DUP2 MSTORE PUSH1 0x20 PUSH1 0x4 DUP3 ADD MSTORE PUSH1 0x14 PUSH1 0x24 DUP3 ADD MSTORE PUSH20 0x4E616D652063616E6E6F7420626520656D707479 PUSH1 0x60 SHL PUSH1 0x44 DUP3 ADD MSTORE PUSH1 0x64 SWAP1 REVERT JUMPDEST PUSH1 0x40 MLOAD PUSH3 0x461BCD PUSH1 0xE5 SHL DUP2 MSTORE PUSH1 0x20 PUSH1 0x4 DUP3 ADD MSTORE PUSH1 0x1C PUSH1 0x24 DUP3 ADD MSTORE PUSH32 0x5072696365206D7573742062652067726561746572207468616E203000000000 PUSH1 0x44 DUP3 ADD MSTORE PUSH1 0x64 SWAP1 REVERT JUMPDEST POP CALLVALUE PUSH2 0x205 JUMPI PUSH1 0x40 CALLDATASIZE PUSH1 0x3 NOT ADD SLT PUSH2 0x205 JUMPI PUSH2 0x3D0A PUSH2 0x4008 JUMP JUMPDEST PUSH1 0x24 CALLDATALOAD SWAP1 PUSH1 0x1 PUSH1 0x1 PUSH1 0xA0 SHL SUB DUP1 DUP1 PUSH2 0x3D21 DUP6 PUSH2 0x4624 JUMP JUMPDEST AND SWAP3 AND SWAP2 DUP1 DUP4 EQ PUSH2 0x3E16 JUMPI DUP1 CALLER EQ SWAP1 DUP2 ISZERO PUSH2 0x3DF5 JUMPI JUMPDEST POP ISZERO PUSH2 0x3D8A JUMPI DUP3 DUP5 MSTORE PUSH1 0x5 PUSH1 0x20 MSTORE PUSH1 0x40 DUP5 KECCAK256 DUP1 SLOAD PUSH1 0x1 PUSH1 0x1 PUSH1 0xA0 SHL SUB NOT AND DUP4 OR SWAP1 SSTORE PUSH2 0x3D62 DUP4 PUSH2 0x4624 JUMP JUMPDEST AND PUSH32 0x8C5BE1E5EBEC7D5BD14F71427D1E84F3DD0314C0F7B2291E5B200AC8C7C3B925 DUP5 DUP1 LOG4 DUP1 RETURN JUMPDEST PUSH1 0x40 MLOAD PUSH3 0x461BCD PUSH1 0xE5 SHL DUP2 MSTORE PUSH1 0x20 PUSH1 0x4 DUP3 ADD MSTORE PUSH1 0x3D PUSH1 0x24 DUP3 ADD MSTORE PUSH32 0x4552433732313A20617070726F76652063616C6C6572206973206E6F7420746F PUSH1 0x44 DUP3 ADD MSTORE PUSH32 0x6B656E206F776E6572206F7220617070726F76656420666F7220616C6C000000 PUSH1 0x64 DUP3 ADD MSTORE PUSH1 0x84 SWAP1 REVERT JUMPDEST SWAP1 POP DUP5 MSTORE PUSH1 0x6 PUSH1 0x20 MSTORE PUSH1 0x40 DUP5 KECCAK256 CALLER DUP6 MSTORE PUSH1 0x20 MSTORE PUSH1 0xFF PUSH1 0x40 DUP6 KECCAK256 SLOAD AND CODESIZE PUSH2 0x3D37 JUMP JUMPDEST PUSH1 0x40 MLOAD PUSH3 0x461BCD PUSH1 0xE5 SHL DUP2 MSTORE PUSH1 0x20 PUSH1 0x4 DUP3 ADD MSTORE PUSH1 0x21 PUSH1 0x24 DUP3 ADD MSTORE PUSH32 0x4552433732313A20617070726F76616C20746F2063757272656E74206F776E65 PUSH1 0x44 DUP3 ADD MSTORE PUSH1 0x39 PUSH1 0xF9 SHL PUSH1 0x64 DUP3 ADD MSTORE PUSH1 0x84 SWAP1 REVERT JUMPDEST POP CALLVALUE PUSH2 0x205 JUMPI PUSH1 0x20 CALLDATASIZE PUSH1 0x3 NOT ADD SLT PUSH2 0x205 JUMPI PUSH1 0x20 PUSH2 0x225E PUSH1 0x4 CALLDATALOAD PUSH2 0x4727 JUMP JUMPDEST POP CALLVALUE PUSH2 0x205 JUMPI DUP1 PUSH1 0x3 NOT CALLDATASIZE ADD SLT PUSH2 0x205 JUMPI PUSH1 0x40 MLOAD SWAP1 DUP1 PUSH1 0x1 DUP1 SLOAD SWAP2 PUSH2 0x3EA8 DUP4 PUSH2 0x4647 JUMP JUMPDEST DUP1 DUP7 MSTORE SWAP3 DUP3 DUP2 AND SWAP1 DUP2 ISZERO PUSH2 0x3F29 JUMPI POP PUSH1 0x1 EQ PUSH2 0x3ECF JUMPI JUMPDEST PUSH2 0x3FC DUP6 PUSH2 0x7BB DUP2 DUP8 SUB DUP3 PUSH2 0x40CF JUMP JUMPDEST SWAP3 POP DUP1 DUP4 MSTORE PUSH32 0xB10E2D527612073B26EECDFD717E6A320CF44B4AFAC2B0732D9FCBE2B7FA0CF6 JUMPDEST DUP3 DUP5 LT PUSH2 0x3F11 JUMPI POP POP POP DUP2 ADD PUSH1 0x20 ADD PUSH2 0x7BB DUP3 PUSH2 0x3FC PUSH2 0x3EBF JUMP JUMPDEST DUP1 SLOAD PUSH1 0x20 DUP6 DUP8 ADD DUP2 ADD SWAP2 SWAP1 SWAP2 MSTORE SWAP1 SWAP4 ADD SWAP3 DUP2 ADD PUSH2 0x3EF6 JUMP JUMPDEST DUP7 SWAP6 POP PUSH2 0x3FC SWAP7 SWAP4 POP PUSH1 0x20 SWAP3 POP PUSH2 0x7BB SWAP5 SWAP2 POP PUSH1 0xFF NOT AND DUP3 DUP5 ADD MSTORE ISZERO ISZERO PUSH1 0x5 SHL DUP3 ADD ADD SWAP3 SWAP4 PUSH2 0x3EBF JUMP JUMPDEST SWAP1 POP CALLVALUE PUSH2 0x76B JUMPI PUSH1 0x20 CALLDATASIZE PUSH1 0x3 NOT ADD SLT PUSH2 0x76B JUMPI PUSH1 0x4 CALLDATALOAD PUSH4 0xFFFFFFFF PUSH1 0xE0 SHL DUP2 AND DUP1 SWAP2 SUB PUSH2 0xBA6 JUMPI PUSH1 0x20 SWAP3 POP PUSH4 0x80AC58CD PUSH1 0xE0 SHL DUP2 EQ SWAP1 DUP2 ISZERO PUSH2 0x3FAF JUMPI JUMPDEST DUP2 ISZERO PUSH2 0x3F9E JUMPI JUMPDEST POP ISZERO ISZERO DUP2 MSTORE RETURN JUMPDEST PUSH4 0x1FFC9A7 PUSH1 0xE0 SHL EQ SWAP1 POP CODESIZE PUSH2 0x3F97 JUMP JUMPDEST PUSH4 0x5B5E139F PUSH1 0xE0 SHL DUP2 EQ SWAP2 POP PUSH2 0x3F90 JUMP JUMPDEST PUSH1 0x0 JUMPDEST DUP4 DUP2 LT PUSH2 0x3FD3 JUMPI POP POP PUSH1 0x0 SWAP2 ADD MSTORE JUMP JUMPDEST DUP2 DUP2 ADD MLOAD DUP4 DUP3 ADD MSTORE PUSH1 0x20 ADD PUSH2 0x3FC3 JUMP JUMPDEST SWAP1 PUSH1 0x20 SWAP2 PUSH2 0x3FFC DUP2 MLOAD DUP1 SWAP3 DUP2 DUP6 MSTORE DUP6 DUP1 DUP7 ADD SWAP2 ADD PUSH2 0x3FC0 JUMP JUMPDEST PUSH1 0x1F ADD PUSH1 0x1F NOT AND ADD ADD SWAP1 JUMP JUMPDEST PUSH1 0x4 CALLDATALOAD SWAP1 PUSH1 0x1 PUSH1 0x1 PUSH1 0xA0 SHL SUB DUP3 AND DUP3 SUB PUSH2 0x401E JUMPI JUMP JUMPDEST PUSH1 0x0 DUP1 REVERT JUMPDEST PUSH1 0x24 CALLDATALOAD SWAP1 PUSH1 0x1 PUSH1 0x1 PUSH1 0xA0 SHL SUB DUP3 AND DUP3 SUB PUSH2 0x401E JUMPI JUMP JUMPDEST PUSH2 0x2E0 DUP2 ADD SWAP1 DUP2 LT PUSH1 0x1 PUSH1 0x1 PUSH1 0x40 SHL SUB DUP3 GT OR PUSH2 0x4055 JUMPI PUSH1 0x40 MSTORE JUMP JUMPDEST PUSH4 0x4E487B71 PUSH1 0xE0 SHL PUSH1 0x0 MSTORE PUSH1 0x41 PUSH1 0x4 MSTORE PUSH1 0x24 PUSH1 0x0 REVERT JUMPDEST PUSH1 0x80 DUP2 ADD SWAP1 DUP2 LT PUSH1 0x1 PUSH1 0x1 PUSH1 0x40 SHL SUB DUP3 GT OR PUSH2 0x4055 JUMPI PUSH1 0x40 MSTORE JUMP JUMPDEST PUSH1 0x1 PUSH1 0x1 PUSH1 0x40 SHL SUB DUP2 GT PUSH2 0x4055 JUMPI PUSH1 0x40 MSTORE JUMP JUMPDEST PUSH1 0xA0 DUP2 ADD SWAP1 DUP2 LT PUSH1 0x1 PUSH1 0x1 PUSH1 0x40 SHL SUB DUP3 GT OR PUSH2 0x4055 JUMPI PUSH1 0x40 MSTORE JUMP JUMPDEST PUSH1 0x20 DUP2 ADD SWAP1 DUP2 LT PUSH1 0x1 PUSH1 0x1 PUSH1 0x40 SHL SUB DUP3 GT OR PUSH2 0x4055 JUMPI PUSH1 0x40 MSTORE JUMP JUMPDEST SWAP1 PUSH1 0x1F DUP1 NOT SWAP2 ADD AND DUP2 ADD SWAP1 DUP2 LT PUSH1 0x1 PUSH1 0x1 PUSH1 0x40 SHL SUB DUP3 GT OR PUSH2 0x4055 JUMPI PUSH1 0x40 MSTORE JUMP JUMPDEST PUSH1 0x1 PUSH1 0x1 PUSH1 0x40 SHL SUB DUP2 GT PUSH2 0x4055 JUMPI PUSH1 0x1F ADD PUSH1 0x1F NOT AND PUSH1 0x20 ADD SWAP1 JUMP JUMPDEST SWAP3 SWAP2 SWAP3 PUSH2 0x4117 DUP3 PUSH2 0x40F0 JUMP JUMPDEST SWAP2 PUSH2 0x4125 PUSH1 0x40 MLOAD SWAP4 DUP5 PUSH2 0x40CF JUMP JUMPDEST DUP3 SWAP5 DUP2 DUP5 MSTORE DUP2 DUP4 ADD GT PUSH2 0x401E JUMPI DUP3 DUP2 PUSH1 0x20 SWAP4 DUP5 PUSH1 0x0 SWAP7 ADD CALLDATACOPY ADD ADD MSTORE JUMP JUMPDEST SWAP1 DUP1 PUSH1 0x1F DUP4 ADD SLT ISZERO PUSH2 0x401E JUMPI DUP2 PUSH1 0x20 PUSH2 0x415D SWAP4 CALLDATALOAD SWAP2 ADD PUSH2 0x410B JUMP JUMPDEST SWAP1 JUMP JUMPDEST PUSH1 0x1 PUSH1 0x1 PUSH1 0x40 SHL SUB DUP2 GT PUSH2 0x4055 JUMPI PUSH1 0x5 SHL PUSH1 0x20 ADD SWAP1 JUMP JUMPDEST SWAP3 SWAP2 SWAP1 SWAP3 PUSH2 0x4184 DUP5 PUSH2 0x4160 JUMP JUMPDEST SWAP2 PUSH2 0x4192 PUSH1 0x40 MLOAD SWAP4 DUP5 PUSH2 0x40CF JUMP JUMPDEST DUP3 SWAP5 DUP1 DUP5 MSTORE PUSH1 0x20 DUP1 SWAP5 ADD SWAP1 PUSH1 0x5 SHL DUP4 ADD SWAP3 DUP3 DUP5 GT PUSH2 0x401E JUMPI DUP1 SWAP2 JUMPDEST DUP5 DUP4 LT PUSH2 0x41BC JUMPI POP POP POP POP POP POP JUMP JUMPDEST DUP3 CALLDATALOAD PUSH1 0x1 PUSH1 0x1 PUSH1 0x40 SHL SUB DUP2 GT PUSH2 0x401E JUMPI DUP7 SWAP2 PUSH2 0x41DB DUP7 DUP5 SWAP4 DUP7 ADD PUSH2 0x4142 JUMP JUMPDEST DUP2 MSTORE ADD SWAP3 ADD SWAP2 PUSH2 0x41AD JUMP JUMPDEST SWAP1 DUP1 PUSH1 0x1F DUP4 ADD SLT ISZERO PUSH2 0x401E JUMPI DUP2 PUSH1 0x20 PUSH2 0x415D SWAP4 CALLDATALOAD SWAP2 ADD PUSH2 0x4177 JUMP JUMPDEST SWAP2 SWAP1 PUSH1 0xA0 DUP4 DUP3 SUB SLT PUSH2 0x401E JUMPI PUSH1 0x40 MLOAD SWAP1 PUSH2 0x421A DUP3 PUSH2 0x4099 JUMP JUMPDEST SWAP1 SWAP3 DUP4 SWAP2 SWAP1 DUP1 CALLDATALOAD PUSH1 0x1 PUSH1 0x1 PUSH1 0xA0 SHL SUB DUP2 AND DUP2 SUB PUSH2 0x401E JUMPI DUP4 MSTORE PUSH1 0x1 PUSH1 0x1 PUSH1 0x40 SHL SUB SWAP2 PUSH1 0x20 DUP3 ADD CALLDATALOAD DUP4 DUP2 GT PUSH2 0x401E JUMPI DUP2 PUSH2 0x4254 SWAP2 DUP5 ADD PUSH2 0x4142 JUMP JUMPDEST PUSH1 0x20 DUP6 ADD MSTORE PUSH1 0x40 DUP3 ADD CALLDATALOAD DUP4 DUP2 GT PUSH2 0x401E JUMPI DUP2 PUSH2 0x4271 SWAP2 DUP5 ADD PUSH2 0x4142 JUMP JUMPDEST PUSH1 0x40 DUP6 ADD MSTORE PUSH1 0x60 DUP3 ADD CALLDATALOAD PUSH1 0x60 DUP6 ADD MSTORE PUSH1 0x80 DUP3 ADD CALLDATALOAD SWAP3 DUP4 GT PUSH2 0x401E JUMPI PUSH1 0x80 SWAP3 PUSH2 0x4299 SWAP3 ADD PUSH2 0x4142 JUMP JUMPDEST SWAP2 ADD MSTORE JUMP JUMPDEST PUSH1 0x60 SWAP1 PUSH1 0x3 NOT ADD SLT PUSH2 0x401E JUMPI PUSH1 0x1 PUSH1 0x1 PUSH1 0xA0 SHL SUB SWAP1 PUSH1 0x4 CALLDATALOAD DUP3 DUP2 AND DUP2 SUB PUSH2 0x401E JUMPI SWAP2 PUSH1 0x24 CALLDATALOAD SWAP1 DUP2 AND DUP2 SUB PUSH2 0x401E JUMPI SWAP1 PUSH1 0x44 CALLDATALOAD SWAP1 JUMP JUMPDEST SWAP1 DUP1 DUP3 MLOAD SWAP1 DUP2 DUP2 MSTORE PUSH1 0x20 DUP1 SWAP2 ADD SWAP3 DUP2 DUP1 DUP5 PUSH1 0x5 SHL DUP4 ADD ADD SWAP6 ADD SWAP4 PUSH1 0x0 SWAP2 JUMPDEST DUP5 DUP4 LT PUSH2 0x4301 JUMPI POP POP POP POP POP POP SWAP1 JUMP JUMPDEST SWAP1 SWAP2 SWAP3 SWAP4 SWAP5 SWAP6 DUP5 DUP1 PUSH2 0x431F PUSH1 0x1 SWAP4 PUSH1 0x1F NOT DUP7 DUP3 SUB ADD DUP8 MSTORE DUP11 MLOAD PUSH2 0x3FE3 JUMP JUMPDEST SWAP9 ADD SWAP4 ADD SWAP4 ADD SWAP2 SWAP5 SWAP4 SWAP3 SWAP1 PUSH2 0x42F1 JUMP JUMPDEST SWAP1 DUP2 MLOAD DUP2 MSTORE PUSH1 0x1 DUP1 PUSH1 0xA0 SHL SUB SWAP2 DUP3 PUSH1 0x20 DUP3 ADD MLOAD AND PUSH1 0x20 DUP4 ADD MSTORE PUSH2 0x43EC PUSH2 0x43B8 PUSH2 0x43A6 PUSH2 0x4394 PUSH2 0x4382 PUSH2 0x4370 PUSH1 0x40 DUP8 ADD MLOAD PUSH2 0x2E0 DUP1 PUSH1 0x40 DUP12 ADD MSTORE DUP10 ADD SWAP1 PUSH2 0x3FE3 JUMP JUMPDEST PUSH1 0x60 DUP8 ADD MLOAD DUP9 DUP3 SUB PUSH1 0x60 DUP11 ADD MSTORE PUSH2 0x42D3 JUMP JUMPDEST PUSH1 0x80 DUP7 ADD MLOAD DUP8 DUP3 SUB PUSH1 0x80 DUP10 ADD MSTORE PUSH2 0x3FE3 JUMP JUMPDEST PUSH1 0xA0 DUP6 ADD MLOAD DUP7 DUP3 SUB PUSH1 0xA0 DUP9 ADD MSTORE PUSH2 0x3FE3 JUMP JUMPDEST PUSH1 0xC0 DUP5 ADD MLOAD DUP6 DUP3 SUB PUSH1 0xC0 DUP8 ADD MSTORE PUSH2 0x3FE3 JUMP JUMPDEST PUSH1 0xE0 DUP4 ADD MLOAD PUSH1 0xE0 DUP6 ADD MSTORE PUSH2 0x100 DUP1 DUP5 ADD MLOAD SWAP1 DUP6 ADD MSTORE PUSH2 0x120 DUP1 DUP5 ADD MLOAD SWAP1 DUP6 ADD MSTORE PUSH2 0x140 DUP1 DUP5 ADD MLOAD SWAP1 DUP6 DUP4 SUB SWAP1 DUP7 ADD MSTORE PUSH2 0x3FE3 JUMP JUMPDEST PUSH2 0x160 DUP1 DUP4 ADD MLOAD SWAP1 PUSH1 0x3 DUP3 LT ISZERO PUSH2 0x4508 JUMPI DUP5 ADD MSTORE PUSH2 0x180 DUP1 DUP4 ADD MLOAD SWAP1 PUSH1 0x2 DUP3 LT ISZERO PUSH2 0x4508 JUMPI DUP5 ADD MSTORE PUSH2 0x1A0 DUP1 DUP4 ADD MLOAD SWAP1 PUSH1 0x4 DUP3 LT ISZERO PUSH2 0x4508 JUMPI PUSH2 0x44C8 SWAP3 PUSH2 0x4467 SWAP3 PUSH2 0x4453 SWAP3 DUP8 ADD MSTORE PUSH2 0x1C0 DUP1 DUP7 ADD MLOAD SWAP1 DUP8 ADD MSTORE PUSH2 0x1E0 DUP1 DUP7 ADD MLOAD SWAP1 DUP8 DUP4 SUB SWAP1 DUP9 ADD MSTORE PUSH2 0x3FE3 JUMP JUMPDEST PUSH2 0x200 DUP1 DUP6 ADD MLOAD SWAP1 DUP7 DUP4 SUB SWAP1 DUP8 ADD MSTORE PUSH2 0x42D3 JUMP JUMPDEST PUSH2 0x220 SWAP1 DUP2 DUP5 ADD MLOAD SWAP2 DUP6 DUP3 SUB SWAP1 DUP7 ADD MSTORE DUP6 DUP3 MLOAD AND DUP2 MSTORE PUSH1 0x80 PUSH2 0x44AD PUSH2 0x449B PUSH1 0x20 DUP6 ADD MLOAD PUSH1 0xA0 PUSH1 0x20 DUP7 ADD MSTORE PUSH1 0xA0 DUP6 ADD SWAP1 PUSH2 0x3FE3 JUMP JUMPDEST PUSH1 0x40 DUP6 ADD MLOAD DUP5 DUP3 SUB PUSH1 0x40 DUP7 ADD MSTORE PUSH2 0x3FE3 JUMP JUMPDEST SWAP3 PUSH1 0x60 DUP2 ADD MLOAD PUSH1 0x60 DUP5 ADD MSTORE ADD MLOAD SWAP1 PUSH1 0x80 DUP2 DUP5 SUB SWAP2 ADD MSTORE PUSH2 0x3FE3 JUMP JUMPDEST SWAP3 PUSH2 0x240 DUP1 DUP4 ADD MLOAD ISZERO ISZERO SWAP1 DUP5 ADD MSTORE PUSH2 0x260 DUP1 DUP4 ADD MLOAD ISZERO ISZERO SWAP1 DUP5 ADD MSTORE PUSH2 0x280 DUP1 DUP4 ADD MLOAD SWAP1 DUP5 ADD MSTORE PUSH2 0x2A0 SWAP1 DUP2 DUP4 ADD MLOAD AND SWAP1 DUP4 ADD MSTORE PUSH2 0x2C0 DUP1 SWAP2 ADD MLOAD SWAP2 ADD MSTORE SWAP1 JUMP JUMPDEST PUSH4 0x4E487B71 PUSH1 0xE0 SHL PUSH1 0x0 MSTORE PUSH1 0x21 PUSH1 0x4 MSTORE PUSH1 0x24 PUSH1 0x0 REVERT JUMPDEST PUSH1 0x20 DUP1 DUP3 ADD SWAP1 DUP1 DUP4 MSTORE DUP4 MLOAD DUP1 SWAP3 MSTORE PUSH1 0x40 DUP4 ADD SWAP3 DUP2 PUSH1 0x40 DUP5 PUSH1 0x5 SHL DUP4 ADD ADD SWAP6 ADD SWAP4 PUSH1 0x0 SWAP2 JUMPDEST DUP5 DUP4 LT PUSH2 0x4552 JUMPI POP POP POP POP POP POP SWAP1 JUMP JUMPDEST SWAP1 SWAP2 SWAP3 SWAP4 SWAP5 SWAP6 DUP5 DUP1 PUSH2 0x4570 PUSH1 0x1 SWAP4 PUSH1 0x3F NOT DUP7 DUP3 SUB ADD DUP8 MSTORE DUP11 MLOAD PUSH2 0x432F JUMP JUMPDEST SWAP9 ADD SWAP4 ADD SWAP4 ADD SWAP2 SWAP5 SWAP4 SWAP3 SWAP1 PUSH2 0x4542 JUMP JUMPDEST PUSH1 0x0 SLOAD PUSH1 0x1 PUSH1 0x1 PUSH1 0xA0 SHL SUB AND CALLER SUB PUSH2 0x4594 JUMPI JUMP JUMPDEST PUSH1 0x64 PUSH1 0x40 MLOAD PUSH3 0x461BCD PUSH1 0xE5 SHL DUP2 MSTORE PUSH1 0x20 PUSH1 0x4 DUP3 ADD MSTORE PUSH1 0x20 PUSH1 0x24 DUP3 ADD MSTORE PUSH32 0x4F776E61626C653A2063616C6C6572206973206E6F7420746865206F776E6572 PUSH1 0x44 DUP3 ADD MSTORE REVERT JUMPDEST ISZERO PUSH2 0x45DF JUMPI JUMP JUMPDEST PUSH1 0x40 MLOAD PUSH3 0x461BCD PUSH1 0xE5 SHL DUP2 MSTORE PUSH1 0x20 PUSH1 0x4 DUP3 ADD MSTORE PUSH1 0x18 PUSH1 0x24 DUP3 ADD MSTORE PUSH32 0x4552433732313A20696E76616C696420746F6B656E2049440000000000000000 PUSH1 0x44 DUP3 ADD MSTORE PUSH1 0x64 SWAP1 REVERT JUMPDEST PUSH1 0x0 SWAP1 DUP2 MSTORE PUSH1 0x3 PUSH1 0x20 MSTORE PUSH1 0x40 SWAP1 KECCAK256 SLOAD PUSH1 0x1 PUSH1 0x1 PUSH1 0xA0 SHL SUB AND PUSH2 0x415D DUP2 ISZERO ISZERO PUSH2 0x45D8 JUMP JUMPDEST SWAP1 PUSH1 0x1 DUP3 DUP2 SHR SWAP3 AND DUP1 ISZERO PUSH2 0x4677 JUMPI JUMPDEST PUSH1 0x20 DUP4 LT EQ PUSH2 0x4661 JUMPI JUMP JUMPDEST PUSH4 0x4E487B71 PUSH1 0xE0 SHL PUSH1 0x0 MSTORE PUSH1 0x22 PUSH1 0x4 MSTORE PUSH1 0x24 PUSH1 0x0 REVERT JUMPDEST SWAP2 PUSH1 0x7F AND SWAP2 PUSH2 0x4656 JUMP JUMPDEST SWAP1 PUSH1 0x40 MLOAD SWAP2 DUP3 PUSH1 0x0 DUP3 SLOAD SWAP3 PUSH2 0x4695 DUP5 PUSH2 0x4647 JUMP JUMPDEST SWAP1 DUP2 DUP5 MSTORE PUSH1 0x1 SWAP5 DUP6 DUP2 AND SWAP1 DUP2 PUSH1 0x0 EQ PUSH2 0x4704 JUMPI POP PUSH1 0x1 EQ PUSH2 0x46C1 JUMPI JUMPDEST POP POP PUSH2 0x46BF SWAP3 POP SUB DUP4 PUSH2 0x40CF JUMP JUMPDEST JUMP JUMPDEST SWAP1 SWAP4 SWAP2 POP PUSH1 0x0 MSTORE PUSH1 0x20 SWAP1 DUP2 PUSH1 0x0 KECCAK256 SWAP4 PUSH1 0x0 SWAP2 JUMPDEST DUP2 DUP4 LT PUSH2 0x46EC JUMPI POP POP PUSH2 0x46BF SWAP4 POP DUP3 ADD ADD CODESIZE DUP1 PUSH2 0x46B1 JUMP JUMPDEST DUP6 SLOAD DUP9 DUP5 ADD DUP6 ADD MSTORE SWAP5 DUP6 ADD SWAP5 DUP8 SWAP5 POP SWAP2 DUP4 ADD SWAP2 PUSH2 0x46D4 JUMP JUMPDEST SWAP2 POP POP PUSH2 0x46BF SWAP5 POP PUSH1 0x20 SWAP3 POP PUSH1 0xFF NOT AND DUP3 DUP5 ADD MSTORE ISZERO ISZERO PUSH1 0x5 SHL DUP3 ADD ADD CODESIZE DUP1 PUSH2 0x46B1 JUMP JUMPDEST PUSH1 0x0 DUP2 DUP2 MSTORE PUSH1 0x3 PUSH1 0x20 MSTORE PUSH1 0x40 SWAP1 KECCAK256 SLOAD PUSH2 0x474A SWAP1 PUSH1 0x1 PUSH1 0x1 PUSH1 0xA0 SHL SUB AND ISZERO ISZERO PUSH2 0x45D8 JUMP JUMPDEST PUSH1 0x0 SWAP1 DUP2 MSTORE PUSH1 0x5 PUSH1 0x20 MSTORE PUSH1 0x40 SWAP1 KECCAK256 SLOAD PUSH1 0x1 PUSH1 0x1 PUSH1 0xA0 SHL SUB AND SWAP1 JUMP JUMPDEST ISZERO PUSH2 0x476C JUMPI JUMP JUMPDEST PUSH1 0x40 MLOAD PUSH3 0x461BCD PUSH1 0xE5 SHL DUP2 MSTORE PUSH1 0x20 PUSH1 0x4 DUP3 ADD MSTORE PUSH1 0x2D PUSH1 0x24 DUP3 ADD MSTORE PUSH32 0x4552433732313A2063616C6C6572206973206E6F7420746F6B656E206F776E65 PUSH1 0x44 DUP3 ADD MSTORE PUSH13 0x1C881BDC88185C1C1C9BDD9959 PUSH1 0x9A SHL PUSH1 0x64 DUP3 ADD MSTORE PUSH1 0x84 SWAP1 REVERT JUMPDEST PUSH1 0x80 SWAP1 PUSH1 0x20 DUP2 MSTORE PUSH1 0x32 PUSH1 0x20 DUP3 ADD MSTORE PUSH32 0x4552433732313A207472616E7366657220746F206E6F6E204552433732315265 PUSH1 0x40 DUP3 ADD MSTORE PUSH18 0x31B2B4BB32B91034B6B83632B6B2B73A32B9 PUSH1 0x71 SHL PUSH1 0x60 DUP3 ADD MSTORE ADD SWAP1 JUMP JUMPDEST ISZERO PUSH2 0x4821 JUMPI JUMP JUMPDEST PUSH1 0x40 MLOAD PUSH3 0x461BCD PUSH1 0xE5 SHL DUP2 MSTORE DUP1 PUSH2 0x483A PUSH1 0x4 DUP3 ADD PUSH2 0x47C7 JUMP JUMPDEST SUB SWAP1 REVERT JUMPDEST SWAP1 PUSH1 0x1 PUSH1 0x1 PUSH1 0xA0 SHL SUB DUP1 DUP1 PUSH2 0x4852 DUP5 PUSH2 0x4624 JUMP JUMPDEST AND SWAP4 AND SWAP2 DUP4 DUP4 EQ SWAP4 DUP5 ISZERO PUSH2 0x4885 JUMPI JUMPDEST POP DUP4 ISZERO PUSH2 0x486F JUMPI JUMPDEST POP POP POP SWAP1 JUMP JUMPDEST PUSH2 0x487B SWAP2 SWAP3 SWAP4 POP PUSH2 0x4727 JUMP JUMPDEST AND EQ CODESIZE DUP1 DUP1 PUSH2 0x4869 JUMP JUMPDEST SWAP1 SWAP4 POP PUSH1 0x0 MSTORE PUSH1 0x6 PUSH1 0x20 MSTORE PUSH1 0x40 PUSH1 0x0 KECCAK256 DUP3 PUSH1 0x0 MSTORE PUSH1 0x20 MSTORE PUSH1 0xFF PUSH1 0x40 PUSH1 0x0 KECCAK256 SLOAD AND SWAP3 CODESIZE PUSH2 0x4861 JUMP JUMPDEST ISZERO PUSH2 0x48B3 JUMPI JUMP JUMPDEST PUSH1 0x40 MLOAD PUSH3 0x461BCD PUSH1 0xE5 SHL DUP2 MSTORE PUSH1 0x20 PUSH1 0x4 DUP3 ADD MSTORE PUSH1 0x25 PUSH1 0x24 DUP3 ADD MSTORE PUSH32 0x4552433732313A207472616E736665722066726F6D20696E636F727265637420 PUSH1 0x44 DUP3 ADD MSTORE PUSH5 0x37BBB732B9 PUSH1 0xD9 SHL PUSH1 0x64 DUP3 ADD MSTORE PUSH1 0x84 SWAP1 REVERT JUMPDEST SWAP1 PUSH2 0x492E SWAP2 PUSH2 0x4914 DUP5 PUSH2 0x4624 JUMP JUMPDEST PUSH1 0x1 PUSH1 0x1 PUSH1 0xA0 SHL SUB SWAP4 SWAP2 DUP5 AND SWAP3 DUP5 SWAP3 SWAP1 SWAP2 DUP4 AND DUP5 EQ PUSH2 0x48AC JUMP JUMPDEST AND SWAP2 DUP3 ISZERO PUSH2 0x49C6 JUMPI DUP2 PUSH2 0x494B SWAP2 PUSH2 0x4944 DUP7 PUSH2 0x4624 JUMP JUMPDEST AND EQ PUSH2 0x48AC JUMP JUMPDEST PUSH32 0xDDF252AD1BE2C89B69C2B068FC378DAA952BA7F163C4A11628F55A4DF523B3EF PUSH1 0x0 DUP5 DUP2 MSTORE PUSH1 0x5 PUSH1 0x20 MSTORE PUSH1 0x40 DUP2 KECCAK256 PUSH1 0x1 PUSH1 0x1 PUSH1 0x60 SHL SUB PUSH1 0xA0 SHL SWAP1 DUP2 DUP2 SLOAD AND SWAP1 SSTORE DUP4 DUP3 MSTORE PUSH1 0x4 PUSH1 0x20 MSTORE PUSH1 0x40 DUP3 KECCAK256 PUSH1 0x0 NOT DUP2 SLOAD ADD SWAP1 SSTORE DUP5 DUP3 MSTORE PUSH1 0x40 DUP3 KECCAK256 PUSH1 0x1 DUP2 SLOAD ADD SWAP1 SSTORE DUP6 DUP3 MSTORE PUSH1 0x3 PUSH1 0x20 MSTORE DUP5 PUSH1 0x40 DUP4 KECCAK256 SWAP2 DUP3 SLOAD AND OR SWAP1 SSTORE DUP1 LOG4 JUMP JUMPDEST PUSH1 0x40 MLOAD PUSH3 0x461BCD PUSH1 0xE5 SHL DUP2 MSTORE PUSH1 0x20 PUSH1 0x4 DUP3 ADD MSTORE PUSH1 0x24 DUP1 DUP3 ADD MSTORE PUSH32 0x4552433732313A207472616E7366657220746F20746865207A65726F20616464 PUSH1 0x44 DUP3 ADD MSTORE PUSH4 0x72657373 PUSH1 0xE0 SHL PUSH1 0x64 DUP3 ADD MSTORE PUSH1 0x84 SWAP1 REVERT JUMPDEST SWAP2 SWAP3 PUSH1 0x0 SWAP3 SWAP1 SWAP2 SWAP1 DUP1 EXTCODESIZE ISZERO PUSH2 0x4B29 JUMPI PUSH2 0x4A65 SWAP5 PUSH1 0x40 MLOAD DUP1 SWAP3 PUSH4 0xA85BD01 PUSH1 0xE1 SHL SWAP5 DUP6 DUP4 MSTORE CALLER PUSH1 0x4 DUP5 ADD MSTORE DUP8 PUSH1 0x24 DUP5 ADD MSTORE PUSH1 0x44 DUP4 ADD MSTORE PUSH1 0x80 PUSH1 0x64 DUP4 ADD MSTORE DUP2 DUP8 DUP2 PUSH1 0x20 SWAP11 DUP12 SWAP7 PUSH1 0x84 DUP4 ADD SWAP1 PUSH2 0x3FE3 JUMP JUMPDEST SUB SWAP3 PUSH1 0x1 PUSH1 0x1 PUSH1 0xA0 SHL SUB AND GAS CALL DUP5 SWAP2 DUP2 PUSH2 0x4AE9 JUMPI JUMPDEST POP PUSH2 0x4AD8 JUMPI POP POP POP RETURNDATASIZE PUSH1 0x0 EQ PUSH2 0x4AD0 JUMPI RETURNDATASIZE PUSH2 0x4A94 DUP2 PUSH2 0x40F0 JUMP JUMPDEST SWAP1 PUSH2 0x4AA2 PUSH1 0x40 MLOAD SWAP3 DUP4 PUSH2 0x40CF JUMP JUMPDEST DUP2 MSTORE DUP1 SWAP2 DUP4 RETURNDATASIZE SWAP3 ADD RETURNDATACOPY JUMPDEST DUP1 MLOAD SWAP2 DUP3 PUSH2 0x4ACD JUMPI PUSH1 0x40 MLOAD PUSH3 0x461BCD PUSH1 0xE5 SHL DUP2 MSTORE DUP1 PUSH2 0x483A PUSH1 0x4 DUP3 ADD PUSH2 0x47C7 JUMP JUMPDEST ADD REVERT JUMPDEST POP PUSH1 0x60 PUSH2 0x4AAC JUMP JUMPDEST PUSH1 0x1 PUSH1 0x1 PUSH1 0xE0 SHL SUB NOT AND EQ SWAP3 POP SWAP1 POP JUMP JUMPDEST SWAP1 SWAP2 POP DUP6 DUP2 DUP2 RETURNDATASIZE DUP4 GT PUSH2 0x4B22 JUMPI JUMPDEST PUSH2 0x4B01 DUP2 DUP4 PUSH2 0x40CF JUMP JUMPDEST DUP2 ADD SUB SLT PUSH2 0x53C JUMPI MLOAD PUSH1 0x1 PUSH1 0x1 PUSH1 0xE0 SHL SUB NOT DUP2 AND DUP2 SUB PUSH2 0x53C JUMPI SWAP1 CODESIZE PUSH2 0x4A7A JUMP JUMPDEST POP RETURNDATASIZE PUSH2 0x4AF7 JUMP JUMPDEST POP POP SWAP2 POP POP PUSH1 0x1 SWAP1 JUMP JUMPDEST SWAP3 SWAP4 PUSH1 0x0 SWAP4 SWAP1 SWAP3 SWAP2 DUP1 EXTCODESIZE ISZERO PUSH2 0x4BB3 JUMPI SWAP5 DUP5 SWAP2 PUSH2 0x4B8D SWAP7 PUSH1 0x40 MLOAD DUP1 SWAP5 DUP2 SWAP4 PUSH4 0xA85BD01 PUSH1 0xE1 SHL SWAP8 DUP9 DUP5 MSTORE CALLER PUSH1 0x4 DUP6 ADD MSTORE PUSH1 0x1 DUP1 PUSH1 0xA0 SHL SUB DUP1 SWAP3 AND PUSH1 0x24 DUP6 ADD MSTORE PUSH1 0x44 DUP5 ADD MSTORE PUSH1 0x80 PUSH1 0x64 DUP5 ADD MSTORE DUP3 PUSH1 0x20 SWAP12 DUP13 SWAP8 PUSH1 0x84 DUP4 ADD SWAP1 PUSH2 0x3FE3 JUMP JUMPDEST SUB SWAP4 AND GAS CALL DUP5 SWAP2 DUP2 PUSH2 0x4AE9 JUMPI POP PUSH2 0x4AD8 JUMPI POP POP POP RETURNDATASIZE PUSH1 0x0 EQ PUSH2 0x4AD0 JUMPI RETURNDATASIZE PUSH2 0x4A94 DUP2 PUSH2 0x40F0 JUMP JUMPDEST POP POP POP SWAP2 POP POP PUSH1 0x1 SWAP1 JUMP JUMPDEST CALLDATALOAD PUSH1 0x1 PUSH1 0x1 PUSH1 0xA0 SHL SUB DUP2 AND DUP2 SUB PUSH2 0x401E JUMPI SWAP1 JUMP JUMPDEST SWAP1 CALLDATALOAD SWAP1 PUSH1 0x1E NOT DUP2 CALLDATASIZE SUB ADD DUP3 SLT ISZERO PUSH2 0x401E JUMPI ADD DUP1 CALLDATALOAD SWAP1 PUSH1 0x1 PUSH1 0x1 PUSH1 0x40 SHL SUB DUP3 GT PUSH2 0x401E JUMPI PUSH1 0x20 ADD SWAP2 DUP2 PUSH1 0x5 SHL CALLDATASIZE SUB DUP4 SGT PUSH2 0x401E JUMPI JUMP JUMPDEST SWAP1 CALLDATALOAD SWAP1 PUSH1 0x1E NOT DUP2 CALLDATASIZE SUB ADD DUP3 SLT ISZERO PUSH2 0x401E JUMPI ADD DUP1 CALLDATALOAD SWAP1 PUSH1 0x1 PUSH1 0x1 PUSH1 0x40 SHL SUB DUP3 GT PUSH2 0x401E JUMPI PUSH1 0x20 ADD SWAP2 DUP2 CALLDATASIZE SUB DUP4 SGT PUSH2 0x401E JUMPI JUMP JUMPDEST PUSH1 0x3 DUP3 LT ISZERO PUSH2 0x4508 JUMPI MSTORE JUMP JUMPDEST PUSH1 0x2 DUP3 LT ISZERO PUSH2 0x4508 JUMPI MSTORE JUMP JUMPDEST PUSH1 0x4 DUP3 LT ISZERO PUSH2 0x4508 JUMPI MSTORE JUMP JUMPDEST DUP2 DUP2 LT PUSH2 0x4C68 JUMPI POP POP JUMP JUMPDEST PUSH1 0x0 DUP2 SSTORE PUSH1 0x1 ADD PUSH2 0x4C5D JUMP JUMPDEST ISZERO PUSH2 0x4C7B JUMPI JUMP JUMPDEST PUSH1 0x40 MLOAD PUSH3 0x461BCD PUSH1 0xE5 SHL DUP2 MSTORE PUSH1 0x20 PUSH1 0x4 DUP3 ADD MSTORE PUSH1 0x1C PUSH1 0x24 DUP3 ADD MSTORE PUSH32 0x4552433732313A20746F6B656E20616C7265616479206D696E74656400000000 PUSH1 0x44 DUP3 ADD MSTORE PUSH1 0x64 SWAP1 REVERT JUMPDEST PUSH1 0x40 MLOAD SWAP1 PUSH2 0x4CCD DUP3 PUSH2 0x4039 JUMP JUMPDEST DUP2 PUSH2 0x2C0 PUSH1 0x0 SWAP2 DUP3 DUP2 MSTORE DUP3 PUSH1 0x20 DUP3 ADD MSTORE PUSH1 0x60 DUP1 PUSH1 0x40 DUP4 ADD MSTORE DUP1 DUP1 DUP4 ADD MSTORE DUP1 PUSH1 0x80 DUP4 ADD MSTORE DUP1 PUSH1 0xA0 DUP4 ADD MSTORE DUP1 PUSH1 0xC0 DUP4 ADD MSTORE DUP4 PUSH1 0xE0 DUP4 ADD MSTORE DUP4 PUSH2 0x100 DUP4 ADD MSTORE DUP4 PUSH2 0x120 DUP4 ADD MSTORE DUP1 PUSH2 0x140 DUP4 ADD MSTORE DUP4 PUSH2 0x160 DUP4 ADD MSTORE DUP4 PUSH2 0x180 DUP4 ADD MSTORE DUP4 PUSH2 0x1A0 DUP4 ADD MSTORE DUP4 PUSH2 0x1C0 DUP4 ADD MSTORE DUP1 PUSH2 0x1E0 DUP4 ADD MSTORE DUP1 PUSH2 0x200 DUP4 ADD MSTORE PUSH1 0x40 MLOAD SWAP1 PUSH2 0x4D4E DUP3 PUSH2 0x4099 JUMP JUMPDEST DUP5 DUP3 MSTORE DUP1 PUSH1 0x20 DUP4 ADD MSTORE DUP1 PUSH1 0x40 DUP4 ADD MSTORE DUP5 DUP2 DUP4 ADD MSTORE PUSH1 0x80 DUP3 ADD MSTORE PUSH2 0x220 DUP3 ADD MSTORE DUP3 PUSH2 0x240 DUP3 ADD MSTORE DUP3 PUSH2 0x260 DUP3 ADD MSTORE DUP3 PUSH2 0x280 DUP3 ADD MSTORE DUP3 PUSH2 0x2A0 DUP3 ADD MSTORE ADD MSTORE JUMP JUMPDEST ISZERO PUSH2 0x4D94 JUMPI JUMP JUMPDEST PUSH1 0x40 MLOAD PUSH3 0x461BCD PUSH1 0xE5 SHL DUP2 MSTORE PUSH1 0x20 PUSH1 0x4 DUP3 ADD MSTORE PUSH1 0x12 PUSH1 0x24 DUP3 ADD MSTORE PUSH18 0x10D85C88191BD95CC81B9BDD08195E1A5CDD PUSH1 0x72 SHL PUSH1 0x44 DUP3 ADD MSTORE PUSH1 0x64 SWAP1 REVERT JUMPDEST ISZERO PUSH2 0x4DD5 JUMPI JUMP JUMPDEST PUSH1 0x40 MLOAD PUSH3 0x461BCD PUSH1 0xE5 SHL DUP2 MSTORE PUSH1 0x20 PUSH1 0x4 DUP3 ADD MSTORE PUSH1 0x14 PUSH1 0x24 DUP3 ADD MSTORE PUSH20 0x10D85C881A185CC81899595B8819195B195D1959 PUSH1 0x62 SHL PUSH1 0x44 DUP3 ADD MSTORE PUSH1 0x64 SWAP1 REVERT JUMPDEST SWAP1 DUP2 SLOAD PUSH2 0x4E1D DUP2 PUSH2 0x4160 JUMP JUMPDEST SWAP3 PUSH2 0x4E2B PUSH1 0x40 MLOAD SWAP5 DUP6 PUSH2 0x40CF JUMP JUMPDEST DUP2 DUP5 MSTORE PUSH1 0x0 SWAP1 DUP2 MSTORE PUSH1 0x20 DUP1 DUP3 KECCAK256 DUP2 DUP7 ADD JUMPDEST DUP5 DUP5 LT PUSH2 0x4E4A JUMPI POP POP POP POP POP JUMP JUMPDEST PUSH1 0x1 DUP4 DUP2 SWAP3 PUSH2 0x4E58 DUP6 PUSH2 0x4681 JUMP JUMPDEST DUP2 MSTORE ADD SWAP3 ADD SWAP4 ADD SWAP3 SWAP1 PUSH2 0x4E3C JUMP JUMPDEST SWAP1 PUSH1 0x40 MLOAD PUSH2 0x4E73 DUP2 PUSH2 0x4039 JUMP JUMPDEST PUSH2 0x2C0 PUSH1 0x17 DUP3 SWAP5 DUP1 SLOAD DUP5 MSTORE PUSH1 0x1 DUP1 PUSH1 0xA0 SHL SUB DUP1 PUSH1 0x1 DUP4 ADD SLOAD AND PUSH1 0x20 DUP7 ADD MSTORE PUSH2 0x4E9D PUSH1 0x2 DUP4 ADD PUSH2 0x4681 JUMP JUMPDEST PUSH1 0x40 DUP7 ADD MSTORE PUSH2 0x4EAE PUSH1 0x3 DUP4 ADD PUSH2 0x4E11 JUMP JUMPDEST PUSH1 0x60 DUP7 ADD MSTORE PUSH2 0x4EBF PUSH1 0x4 DUP4 ADD PUSH2 0x4681 JUMP JUMPDEST PUSH1 0x80 DUP7 ADD MSTORE PUSH2 0x4ED0 PUSH1 0x5 DUP4 ADD PUSH2 0x4681 JUMP JUMPDEST PUSH1 0xA0 DUP7 ADD MSTORE PUSH2 0x4EE1 PUSH1 0x6 DUP4 ADD PUSH2 0x4681 JUMP JUMPDEST PUSH1 0xC0 DUP7 ADD MSTORE PUSH1 0x7 DUP3 ADD SLOAD PUSH1 0xE0 DUP7 ADD MSTORE PUSH1 0x8 DUP3 ADD SLOAD PUSH2 0x100 DUP7 ADD MSTORE PUSH1 0x9 DUP3 ADD SLOAD PUSH2 0x120 DUP7 ADD MSTORE PUSH2 0x4F12 PUSH1 0xA DUP4 ADD PUSH2 0x4681 JUMP JUMPDEST PUSH2 0x140 DUP7 ADD MSTORE PUSH2 0x4F53 PUSH1 0xFF PUSH1 0xB DUP5 ADD SLOAD PUSH2 0x4F32 DUP3 DUP3 AND PUSH2 0x160 DUP11 ADD PUSH2 0x4C39 JUMP JUMPDEST PUSH2 0x4F45 DUP3 DUP3 PUSH1 0x8 SHR AND PUSH2 0x180 DUP11 ADD PUSH2 0x4C45 JUMP JUMPDEST PUSH1 0x10 SHR AND PUSH2 0x1A0 DUP8 ADD PUSH2 0x4C51 JUMP JUMPDEST PUSH1 0xC DUP3 ADD SLOAD PUSH2 0x1C0 DUP7 ADD MSTORE PUSH2 0x4F6A PUSH1 0xD DUP4 ADD PUSH2 0x4681 JUMP JUMPDEST PUSH2 0x1E0 DUP7 ADD MSTORE PUSH2 0x4F7C PUSH1 0xE DUP4 ADD PUSH2 0x4E11 JUMP JUMPDEST PUSH2 0x200 DUP7 ADD MSTORE PUSH1 0x40 MLOAD PUSH2 0x4F8E DUP2 PUSH2 0x4099 JUMP JUMPDEST DUP2 PUSH1 0xF DUP5 ADD SLOAD AND DUP2 MSTORE PUSH2 0x4FA3 PUSH1 0x10 DUP5 ADD PUSH2 0x4681 JUMP JUMPDEST PUSH1 0x20 DUP3 ADD MSTORE PUSH2 0x4FB4 PUSH1 0x11 DUP5 ADD PUSH2 0x4681 JUMP JUMPDEST PUSH1 0x40 DUP3 ADD MSTORE PUSH1 0x12 DUP4 ADD SLOAD PUSH1 0x60 DUP3 ADD MSTORE PUSH2 0x4FCF PUSH1 0x13 DUP5 ADD PUSH2 0x4681 JUMP JUMPDEST PUSH1 0x80 DUP3 ADD MSTORE PUSH2 0x220 DUP7 ADD MSTORE PUSH1 0xFF PUSH1 0x14 DUP4 ADD SLOAD DUP2 DUP2 AND ISZERO ISZERO PUSH2 0x240 DUP9 ADD MSTORE PUSH1 0x8 SHR AND ISZERO ISZERO PUSH2 0x260 DUP7 ADD MSTORE PUSH1 0x15 DUP3 ADD SLOAD PUSH2 0x280 DUP7 ADD MSTORE PUSH1 0x16 DUP3 ADD SLOAD AND PUSH2 0x2A0 DUP6 ADD MSTORE ADD SLOAD SWAP2 ADD MSTORE JUMP JUMPDEST PUSH1 0x0 NOT DUP2 EQ PUSH2 0x5025 JUMPI PUSH1 0x1 ADD SWAP1 JUMP JUMPDEST PUSH4 0x4E487B71 PUSH1 0xE0 SHL PUSH1 0x0 MSTORE PUSH1 0x11 PUSH1 0x4 MSTORE PUSH1 0x24 PUSH1 0x0 REVERT JUMPDEST SWAP1 PUSH2 0x5045 DUP3 PUSH2 0x4160 JUMP JUMPDEST PUSH2 0x5052 PUSH1 0x40 MLOAD SWAP2 DUP3 PUSH2 0x40CF JUMP JUMPDEST DUP3 DUP2 MSTORE DUP1 SWAP3 PUSH2 0x5063 PUSH1 0x1F NOT SWAP2 PUSH2 0x4160 JUMP JUMPDEST ADD SWAP1 PUSH1 0x0 JUMPDEST DUP3 DUP2 LT PUSH2 0x5074 JUMPI POP POP POP JUMP JUMPDEST PUSH1 0x20 SWAP1 PUSH2 0x507F PUSH2 0x4CC0 JUMP JUMPDEST DUP3 DUP3 DUP6 ADD ADD MSTORE ADD PUSH2 0x5068 JUMP JUMPDEST DUP1 MLOAD DUP3 LT ISZERO PUSH2 0x509F JUMPI PUSH1 0x20 SWAP2 PUSH1 0x5 SHL ADD ADD SWAP1 JUMP JUMPDEST PUSH4 0x4E487B71 PUSH1 0xE0 SHL PUSH1 0x0 MSTORE PUSH1 0x32 PUSH1 0x4 MSTORE PUSH1 0x24 PUSH1 0x0 REVERT JUMPDEST DUP1 SLOAD DUP3 LT ISZERO PUSH2 0x509F JUMPI PUSH1 0x0 MSTORE PUSH1 0x20 PUSH1 0x0 KECCAK256 SWAP1 PUSH1 0x2 SHL ADD SWAP1 PUSH1 0x0 SWAP1 JUMP INVALID LOG2 PUSH5 0x6970667358 0x22 SLT KECCAK256 SIGNEXTEND INVALID 0xE2 0xB2 PUSH13 0x142B8FD441A4ECAE4561CF3DC2 0x4C TIMESTAMP 0x4D 0x21 0xB6 EXTCODESIZE STOP SWAP14 PUSH13 0xD41460B02F64736F6C63430008 SGT STOP CALLER "},"methodIdentifiers":{"approve(address,uint256)":"095ea7b3","balanceOf(address)":"70a08231","buyCar(uint256)":"6c231060","crossChainHandler()":"d03703f5","deleteCar(uint256)":"60098088","getAllCars()":"abfe5d57","getAllSales()":"33396917","getApproved(uint256)":"081812fc","getCar(uint256)":"5e8be190","getMyCars()":"341fa05d","isApprovedForAll(address,address)":"e985e9c5","listCar((string,string[],string,string,string,uint256,uint256),(uint256,string,uint8,uint8,uint8,uint256),(string,string,string[]),(address,string,string,uint256,string),uint256,address)":"6bfa74c3","name()":"06fdde03","owner()":"8da5cb5b","ownerOf(uint256)":"6352211e","renounceOwnership()":"715018a6","safeTransferFrom(address,address,uint256)":"42842e0e","safeTransferFrom(address,address,uint256,bytes)":"b88d4fde","setApprovalForAll(address,bool)":"a22cb465","setCrossChainHandler(address)":"96cc304f","supportsInterface(bytes4)":"01ffc9a7","symbol()":"95d89b41","tokenURI(uint256)":"c87b56dd","transferFrom(address,address,uint256)":"23b872dd","transferOwnership(address)":"f2fde38b","updateCar(uint256,(string,string[],string,string,string,uint256,uint256),(uint256,string,uint8,uint8,uint8,uint256),(string,string,string[]),(address,string,string,uint256,string))":"0d5d841a"}}}}}