{
  "_format": "hh-sol-artifact-1",
  "contractName": "HemDealer",
  "sourceName": "contracts/HemDealer.sol",
  "abi": [
    {
      "inputs": [
        {
          "internalType": "address",
          "name": "_acrossRouter",
          "type": "address"
        }
      ],
      "stateMutability": "nonpayable",
      "type": "constructor"
    },
    {
      "anonymous": false,
      "inputs": [
        {
          "indexed": true,
          "internalType": "address",
          "name": "owner",
          "type": "address"
        },
        {
          "indexed": true,
          "internalType": "address",
          "name": "approved",
          "type": "address"
        },
        {
          "indexed": true,
          "internalType": "uint256",
          "name": "tokenId",
          "type": "uint256"
        }
      ],
      "name": "Approval",
      "type": "event"
    },
    {
      "anonymous": false,
      "inputs": [
        {
          "indexed": true,
          "internalType": "address",
          "name": "owner",
          "type": "address"
        },
        {
          "indexed": true,
          "internalType": "address",
          "name": "operator",
          "type": "address"
        },
        {
          "indexed": false,
          "internalType": "bool",
          "name": "approved",
          "type": "bool"
        }
      ],
      "name": "ApprovalForAll",
      "type": "event"
    },
    {
      "anonymous": false,
      "inputs": [
        {
          "indexed": true,
          "internalType": "uint256",
          "name": "carId",
          "type": "uint256"
        },
        {
          "indexed": true,
          "internalType": "address",
          "name": "owner",
          "type": "address"
        }
      ],
      "name": "CarDeleted",
      "type": "event"
    },
    {
      "anonymous": false,
      "inputs": [
        {
          "indexed": true,
          "internalType": "uint256",
          "name": "carId",
          "type": "uint256"
        },
        {
          "indexed": true,
          "internalType": "address",
          "name": "seller",
          "type": "address"
        },
        {
          "indexed": false,
          "internalType": "uint256",
          "name": "price",
          "type": "uint256"
        }
      ],
      "name": "CarListed",
      "type": "event"
    },
    {
      "anonymous": false,
      "inputs": [
        {
          "indexed": true,
          "internalType": "uint256",
          "name": "carId",
          "type": "uint256"
        },
        {
          "indexed": true,
          "internalType": "address",
          "name": "seller",
          "type": "address"
        },
        {
          "indexed": true,
          "internalType": "address",
          "name": "buyer",
          "type": "address"
        },
        {
          "indexed": false,
          "internalType": "uint256",
          "name": "price",
          "type": "uint256"
        }
      ],
      "name": "CarSold",
      "type": "event"
    },
    {
      "anonymous": false,
      "inputs": [
        {
          "indexed": true,
          "internalType": "uint256",
          "name": "carId",
          "type": "uint256"
        },
        {
          "indexed": true,
          "internalType": "address",
          "name": "owner",
          "type": "address"
        }
      ],
      "name": "CarUpdated",
      "type": "event"
    },
    {
      "anonymous": false,
      "inputs": [
        {
          "indexed": true,
          "internalType": "uint256",
          "name": "carId",
          "type": "uint256"
        },
        {
          "indexed": false,
          "internalType": "uint256",
          "name": "destinationChainId",
          "type": "uint256"
        },
        {
          "indexed": true,
          "internalType": "address",
          "name": "newOwner",
          "type": "address"
        }
      ],
      "name": "CrossChainTransferCompleted",
      "type": "event"
    },
    {
      "anonymous": false,
      "inputs": [
        {
          "indexed": true,
          "internalType": "uint256",
          "name": "carId",
          "type": "uint256"
        },
        {
          "indexed": false,
          "internalType": "uint256",
          "name": "sourceChainId",
          "type": "uint256"
        },
        {
          "indexed": false,
          "internalType": "uint256",
          "name": "destinationChainId",
          "type": "uint256"
        },
        {
          "indexed": true,
          "internalType": "address",
          "name": "seller",
          "type": "address"
        },
        {
          "indexed": true,
          "internalType": "address",
          "name": "buyer",
          "type": "address"
        }
      ],
      "name": "CrossChainTransferInitiated",
      "type": "event"
    },
    {
      "anonymous": false,
      "inputs": [
        {
          "indexed": true,
          "internalType": "address",
          "name": "previousOwner",
          "type": "address"
        },
        {
          "indexed": true,
          "internalType": "address",
          "name": "newOwner",
          "type": "address"
        }
      ],
      "name": "OwnershipTransferred",
      "type": "event"
    },
    {
      "anonymous": false,
      "inputs": [
        {
          "indexed": true,
          "internalType": "address",
          "name": "from",
          "type": "address"
        },
        {
          "indexed": true,
          "internalType": "address",
          "name": "to",
          "type": "address"
        },
        {
          "indexed": true,
          "internalType": "uint256",
          "name": "tokenId",
          "type": "uint256"
        }
      ],
      "name": "Transfer",
      "type": "event"
    },
    {
      "anonymous": false,
      "inputs": [
        {
          "indexed": true,
          "internalType": "uint256",
          "name": "carId",
          "type": "uint256"
        },
        {
          "indexed": true,
          "internalType": "address",
          "name": "owner",
          "type": "address"
        }
      ],
      "name": "TransferCancelled",
      "type": "event"
    },
    {
      "inputs": [],
      "name": "MAX_SLIPPAGE",
      "outputs": [
        {
          "internalType": "uint256",
          "name": "",
          "type": "uint256"
        }
      ],
      "stateMutability": "view",
      "type": "function"
    },
    {
      "inputs": [],
      "name": "TRANSFER_TIMEOUT",
      "outputs": [
        {
          "internalType": "uint256",
          "name": "",
          "type": "uint256"
        }
      ],
      "stateMutability": "view",
      "type": "function"
    },
    {
      "inputs": [],
      "name": "acrossRouter",
      "outputs": [
        {
          "internalType": "address",
          "name": "",
          "type": "address"
        }
      ],
      "stateMutability": "view",
      "type": "function"
    },
    {
      "inputs": [
        {
          "internalType": "address",
          "name": "token",
          "type": "address"
        }
      ],
      "name": "addSupportedToken",
      "outputs": [],
      "stateMutability": "nonpayable",
      "type": "function"
    },
    {
      "inputs": [
        {
          "internalType": "address",
          "name": "to",
          "type": "address"
        },
        {
          "internalType": "uint256",
          "name": "tokenId",
          "type": "uint256"
        }
      ],
      "name": "approve",
      "outputs": [],
      "stateMutability": "nonpayable",
      "type": "function"
    },
    {
      "inputs": [
        {
          "internalType": "address",
          "name": "owner",
          "type": "address"
        }
      ],
      "name": "balanceOf",
      "outputs": [
        {
          "internalType": "uint256",
          "name": "",
          "type": "uint256"
        }
      ],
      "stateMutability": "view",
      "type": "function"
    },
    {
      "inputs": [
        {
          "internalType": "uint256",
          "name": "carId",
          "type": "uint256"
        }
      ],
      "name": "buyCar",
      "outputs": [],
      "stateMutability": "payable",
      "type": "function"
    },
    {
      "inputs": [
        {
          "internalType": "uint256",
          "name": "carId",
          "type": "uint256"
        }
      ],
      "name": "cancelTimedOutTransfer",
      "outputs": [],
      "stateMutability": "nonpayable",
      "type": "function"
    },
    {
      "inputs": [
        {
          "internalType": "uint256",
          "name": "",
          "type": "uint256"
        }
      ],
      "name": "crossChainTransferPending",
      "outputs": [
        {
          "internalType": "bool",
          "name": "",
          "type": "bool"
        }
      ],
      "stateMutability": "view",
      "type": "function"
    },
    {
      "inputs": [
        {
          "internalType": "uint256",
          "name": "newCarId",
          "type": "uint256"
        }
      ],
      "name": "deleteCar",
      "outputs": [],
      "stateMutability": "nonpayable",
      "type": "function"
    },
    {
      "inputs": [
        {
          "internalType": "uint256",
          "name": "",
          "type": "uint256"
        }
      ],
      "name": "destinationChainIds",
      "outputs": [
        {
          "internalType": "uint256",
          "name": "",
          "type": "uint256"
        }
      ],
      "stateMutability": "view",
      "type": "function"
    },
    {
      "inputs": [],
      "name": "getAllCars",
      "outputs": [
        {
          "components": [
            {
              "internalType": "uint256",
              "name": "id",
              "type": "uint256"
            },
            {
              "internalType": "address",
              "name": "owner",
              "type": "address"
            },
            {
              "internalType": "string",
              "name": "name",
              "type": "string"
            },
            {
              "internalType": "string[]",
              "name": "images",
              "type": "string[]"
            },
            {
              "internalType": "string",
              "name": "description",
              "type": "string"
            },
            {
              "internalType": "string",
              "name": "make",
              "type": "string"
            },
            {
              "internalType": "string",
              "name": "model",
              "type": "string"
            },
            {
              "internalType": "uint256",
              "name": "year",
              "type": "uint256"
            },
            {
              "internalType": "uint256",
              "name": "vin",
              "type": "uint256"
            },
            {
              "internalType": "uint256",
              "name": "mileage",
              "type": "uint256"
            },
            {
              "internalType": "string",
              "name": "color",
              "type": "string"
            },
            {
              "internalType": "enum HemDealer.CarCondition",
              "name": "condition",
              "type": "uint8"
            },
            {
              "internalType": "enum HemDealer.CarTransmission",
              "name": "transmission",
              "type": "uint8"
            },
            {
              "internalType": "enum HemDealer.FuelType",
              "name": "fuelType",
              "type": "uint8"
            },
            {
              "internalType": "uint256",
              "name": "price",
              "type": "uint256"
            },
            {
              "internalType": "string",
              "name": "location",
              "type": "string"
            },
            {
              "internalType": "string[]",
              "name": "features",
              "type": "string[]"
            },
            {
              "components": [
                {
                  "internalType": "address",
                  "name": "wallet",
                  "type": "address"
                },
                {
                  "internalType": "string",
                  "name": "sellerName",
                  "type": "string"
                },
                {
                  "internalType": "string",
                  "name": "email",
                  "type": "string"
                },
                {
                  "internalType": "uint256",
                  "name": "phoneNumber",
                  "type": "uint256"
                },
                {
                  "internalType": "string",
                  "name": "profileImage",
                  "type": "string"
                }
              ],
              "internalType": "struct HemDealer.SellerDetails",
              "name": "seller",
              "type": "tuple"
            },
            {
              "internalType": "bool",
              "name": "sold",
              "type": "bool"
            },
            {
              "internalType": "bool",
              "name": "deleted",
              "type": "bool"
            },
            {
              "internalType": "uint256",
              "name": "destinationChainId",
              "type": "uint256"
            },
            {
              "internalType": "address",
              "name": "paymentToken",
              "type": "address"
            },
            {
              "internalType": "uint256",
              "name": "sourceChainId",
              "type": "uint256"
            }
          ],
          "internalType": "struct HemDealer.CarStruct[]",
          "name": "",
          "type": "tuple[]"
        }
      ],
      "stateMutability": "view",
      "type": "function"
    },
    {
      "inputs": [],
      "name": "getAllSales",
      "outputs": [
        {
          "components": [
            {
              "internalType": "uint256",
              "name": "id",
              "type": "uint256"
            },
            {
              "internalType": "uint256",
              "name": "newCarId",
              "type": "uint256"
            },
            {
              "internalType": "uint256",
              "name": "price",
              "type": "uint256"
            },
            {
              "internalType": "address",
              "name": "owner",
              "type": "address"
            }
          ],
          "internalType": "struct HemDealer.SalesStruct[]",
          "name": "",
          "type": "tuple[]"
        }
      ],
      "stateMutability": "view",
      "type": "function"
    },
    {
      "inputs": [
        {
          "internalType": "uint256",
          "name": "tokenId",
          "type": "uint256"
        }
      ],
      "name": "getApproved",
      "outputs": [
        {
          "internalType": "address",
          "name": "",
          "type": "address"
        }
      ],
      "stateMutability": "view",
      "type": "function"
    },
    {
      "inputs": [
        {
          "internalType": "uint256",
          "name": "newCarId",
          "type": "uint256"
        }
      ],
      "name": "getCar",
      "outputs": [
        {
          "components": [
            {
              "internalType": "uint256",
              "name": "id",
              "type": "uint256"
            },
            {
              "internalType": "address",
              "name": "owner",
              "type": "address"
            },
            {
              "internalType": "string",
              "name": "name",
              "type": "string"
            },
            {
              "internalType": "string[]",
              "name": "images",
              "type": "string[]"
            },
            {
              "internalType": "string",
              "name": "description",
              "type": "string"
            },
            {
              "internalType": "string",
              "name": "make",
              "type": "string"
            },
            {
              "internalType": "string",
              "name": "model",
              "type": "string"
            },
            {
              "internalType": "uint256",
              "name": "year",
              "type": "uint256"
            },
            {
              "internalType": "uint256",
              "name": "vin",
              "type": "uint256"
            },
            {
              "internalType": "uint256",
              "name": "mileage",
              "type": "uint256"
            },
            {
              "internalType": "string",
              "name": "color",
              "type": "string"
            },
            {
              "internalType": "enum HemDealer.CarCondition",
              "name": "condition",
              "type": "uint8"
            },
            {
              "internalType": "enum HemDealer.CarTransmission",
              "name": "transmission",
              "type": "uint8"
            },
            {
              "internalType": "enum HemDealer.FuelType",
              "name": "fuelType",
              "type": "uint8"
            },
            {
              "internalType": "uint256",
              "name": "price",
              "type": "uint256"
            },
            {
              "internalType": "string",
              "name": "location",
              "type": "string"
            },
            {
              "internalType": "string[]",
              "name": "features",
              "type": "string[]"
            },
            {
              "components": [
                {
                  "internalType": "address",
                  "name": "wallet",
                  "type": "address"
                },
                {
                  "internalType": "string",
                  "name": "sellerName",
                  "type": "string"
                },
                {
                  "internalType": "string",
                  "name": "email",
                  "type": "string"
                },
                {
                  "internalType": "uint256",
                  "name": "phoneNumber",
                  "type": "uint256"
                },
                {
                  "internalType": "string",
                  "name": "profileImage",
                  "type": "string"
                }
              ],
              "internalType": "struct HemDealer.SellerDetails",
              "name": "seller",
              "type": "tuple"
            },
            {
              "internalType": "bool",
              "name": "sold",
              "type": "bool"
            },
            {
              "internalType": "bool",
              "name": "deleted",
              "type": "bool"
            },
            {
              "internalType": "uint256",
              "name": "destinationChainId",
              "type": "uint256"
            },
            {
              "internalType": "address",
              "name": "paymentToken",
              "type": "address"
            },
            {
              "internalType": "uint256",
              "name": "sourceChainId",
              "type": "uint256"
            }
          ],
          "internalType": "struct HemDealer.CarStruct",
          "name": "",
          "type": "tuple"
        }
      ],
      "stateMutability": "view",
      "type": "function"
    },
    {
      "inputs": [],
      "name": "getMyCars",
      "outputs": [
        {
          "components": [
            {
              "internalType": "uint256",
              "name": "id",
              "type": "uint256"
            },
            {
              "internalType": "address",
              "name": "owner",
              "type": "address"
            },
            {
              "internalType": "string",
              "name": "name",
              "type": "string"
            },
            {
              "internalType": "string[]",
              "name": "images",
              "type": "string[]"
            },
            {
              "internalType": "string",
              "name": "description",
              "type": "string"
            },
            {
              "internalType": "string",
              "name": "make",
              "type": "string"
            },
            {
              "internalType": "string",
              "name": "model",
              "type": "string"
            },
            {
              "internalType": "uint256",
              "name": "year",
              "type": "uint256"
            },
            {
              "internalType": "uint256",
              "name": "vin",
              "type": "uint256"
            },
            {
              "internalType": "uint256",
              "name": "mileage",
              "type": "uint256"
            },
            {
              "internalType": "string",
              "name": "color",
              "type": "string"
            },
            {
              "internalType": "enum HemDealer.CarCondition",
              "name": "condition",
              "type": "uint8"
            },
            {
              "internalType": "enum HemDealer.CarTransmission",
              "name": "transmission",
              "type": "uint8"
            },
            {
              "internalType": "enum HemDealer.FuelType",
              "name": "fuelType",
              "type": "uint8"
            },
            {
              "internalType": "uint256",
              "name": "price",
              "type": "uint256"
            },
            {
              "internalType": "string",
              "name": "location",
              "type": "string"
            },
            {
              "internalType": "string[]",
              "name": "features",
              "type": "string[]"
            },
            {
              "components": [
                {
                  "internalType": "address",
                  "name": "wallet",
                  "type": "address"
                },
                {
                  "internalType": "string",
                  "name": "sellerName",
                  "type": "string"
                },
                {
                  "internalType": "string",
                  "name": "email",
                  "type": "string"
                },
                {
                  "internalType": "uint256",
                  "name": "phoneNumber",
                  "type": "uint256"
                },
                {
                  "internalType": "string",
                  "name": "profileImage",
                  "type": "string"
                }
              ],
              "internalType": "struct HemDealer.SellerDetails",
              "name": "seller",
              "type": "tuple"
            },
            {
              "internalType": "bool",
              "name": "sold",
              "type": "bool"
            },
            {
              "internalType": "bool",
              "name": "deleted",
              "type": "bool"
            },
            {
              "internalType": "uint256",
              "name": "destinationChainId",
              "type": "uint256"
            },
            {
              "internalType": "address",
              "name": "paymentToken",
              "type": "address"
            },
            {
              "internalType": "uint256",
              "name": "sourceChainId",
              "type": "uint256"
            }
          ],
          "internalType": "struct HemDealer.CarStruct[]",
          "name": "",
          "type": "tuple[]"
        }
      ],
      "stateMutability": "view",
      "type": "function"
    },
    {
      "inputs": [
        {
          "internalType": "uint256",
          "name": "carId",
          "type": "uint256"
        },
        {
          "internalType": "uint256",
          "name": "targetChainId",
          "type": "uint256"
        }
      ],
      "name": "initiateCrossChainTransfer",
      "outputs": [],
      "stateMutability": "nonpayable",
      "type": "function"
    },
    {
      "inputs": [
        {
          "internalType": "address",
          "name": "owner",
          "type": "address"
        },
        {
          "internalType": "address",
          "name": "operator",
          "type": "address"
        }
      ],
      "name": "isApprovedForAll",
      "outputs": [
        {
          "internalType": "bool",
          "name": "",
          "type": "bool"
        }
      ],
      "stateMutability": "view",
      "type": "function"
    },
    {
      "inputs": [
        {
          "components": [
            {
              "internalType": "string",
              "name": "name",
              "type": "string"
            },
            {
              "internalType": "string[]",
              "name": "images",
              "type": "string[]"
            },
            {
              "internalType": "string",
              "name": "description",
              "type": "string"
            },
            {
              "internalType": "string",
              "name": "make",
              "type": "string"
            },
            {
              "internalType": "string",
              "name": "model",
              "type": "string"
            },
            {
              "internalType": "uint256",
              "name": "year",
              "type": "uint256"
            },
            {
              "internalType": "uint256",
              "name": "vin",
              "type": "uint256"
            }
          ],
          "internalType": "struct HemDealer.CarBasicDetails",
          "name": "basicDetails",
          "type": "tuple"
        },
        {
          "components": [
            {
              "internalType": "uint256",
              "name": "mileage",
              "type": "uint256"
            },
            {
              "internalType": "string",
              "name": "color",
              "type": "string"
            },
            {
              "internalType": "enum HemDealer.CarCondition",
              "name": "condition",
              "type": "uint8"
            },
            {
              "internalType": "enum HemDealer.CarTransmission",
              "name": "transmission",
              "type": "uint8"
            },
            {
              "internalType": "enum HemDealer.FuelType",
              "name": "fuelType",
              "type": "uint8"
            },
            {
              "internalType": "uint256",
              "name": "price",
              "type": "uint256"
            }
          ],
          "internalType": "struct HemDealer.CarTechnicalDetails",
          "name": "technicalDetails",
          "type": "tuple"
        },
        {
          "components": [
            {
              "internalType": "string",
              "name": "location",
              "type": "string"
            },
            {
              "internalType": "string",
              "name": "carHistory",
              "type": "string"
            },
            {
              "internalType": "string[]",
              "name": "features",
              "type": "string[]"
            }
          ],
          "internalType": "struct HemDealer.CarAdditionalInfo",
          "name": "additionalInfo",
          "type": "tuple"
        },
        {
          "components": [
            {
              "internalType": "address",
              "name": "wallet",
              "type": "address"
            },
            {
              "internalType": "string",
              "name": "sellerName",
              "type": "string"
            },
            {
              "internalType": "string",
              "name": "email",
              "type": "string"
            },
            {
              "internalType": "uint256",
              "name": "phoneNumber",
              "type": "uint256"
            },
            {
              "internalType": "string",
              "name": "profileImage",
              "type": "string"
            }
          ],
          "internalType": "struct HemDealer.SellerDetails",
          "name": "sellerDetails",
          "type": "tuple"
        },
        {
          "internalType": "uint256",
          "name": "destinationChainId",
          "type": "uint256"
        },
        {
          "internalType": "address",
          "name": "paymentToken",
          "type": "address"
        }
      ],
      "name": "listCar",
      "outputs": [],
      "stateMutability": "nonpayable",
      "type": "function"
    },
    {
      "inputs": [],
      "name": "name",
      "outputs": [
        {
          "internalType": "string",
          "name": "",
          "type": "string"
        }
      ],
      "stateMutability": "view",
      "type": "function"
    },
    {
      "inputs": [],
      "name": "owner",
      "outputs": [
        {
          "internalType": "address",
          "name": "",
          "type": "address"
        }
      ],
      "stateMutability": "view",
      "type": "function"
    },
    {
      "inputs": [
        {
          "internalType": "uint256",
          "name": "tokenId",
          "type": "uint256"
        }
      ],
      "name": "ownerOf",
      "outputs": [
        {
          "internalType": "address",
          "name": "",
          "type": "address"
        }
      ],
      "stateMutability": "view",
      "type": "function"
    },
    {
      "inputs": [
        {
          "internalType": "bytes32",
          "name": "",
          "type": "bytes32"
        }
      ],
      "name": "processedMessages",
      "outputs": [
        {
          "internalType": "bool",
          "name": "",
          "type": "bool"
        }
      ],
      "stateMutability": "view",
      "type": "function"
    },
    {
      "inputs": [
        {
          "internalType": "bytes",
          "name": "message",
          "type": "bytes"
        },
        {
          "internalType": "uint256",
          "name": "sourceChainId",
          "type": "uint256"
        }
      ],
      "name": "receiveCrossChainTransfer",
      "outputs": [],
      "stateMutability": "nonpayable",
      "type": "function"
    },
    {
      "inputs": [
        {
          "internalType": "address",
          "name": "token",
          "type": "address"
        }
      ],
      "name": "removeSupportedToken",
      "outputs": [],
      "stateMutability": "nonpayable",
      "type": "function"
    },
    {
      "inputs": [],
      "name": "renounceOwnership",
      "outputs": [],
      "stateMutability": "nonpayable",
      "type": "function"
    },
    {
      "inputs": [
        {
          "internalType": "address",
          "name": "from",
          "type": "address"
        },
        {
          "internalType": "address",
          "name": "to",
          "type": "address"
        },
        {
          "internalType": "uint256",
          "name": "tokenId",
          "type": "uint256"
        }
      ],
      "name": "safeTransferFrom",
      "outputs": [],
      "stateMutability": "nonpayable",
      "type": "function"
    },
    {
      "inputs": [
        {
          "internalType": "address",
          "name": "from",
          "type": "address"
        },
        {
          "internalType": "address",
          "name": "to",
          "type": "address"
        },
        {
          "internalType": "uint256",
          "name": "tokenId",
          "type": "uint256"
        },
        {
          "internalType": "bytes",
          "name": "data",
          "type": "bytes"
        }
      ],
      "name": "safeTransferFrom",
      "outputs": [],
      "stateMutability": "nonpayable",
      "type": "function"
    },
    {
      "inputs": [
        {
          "internalType": "address",
          "name": "operator",
          "type": "address"
        },
        {
          "internalType": "bool",
          "name": "approved",
          "type": "bool"
        }
      ],
      "name": "setApprovalForAll",
      "outputs": [],
      "stateMutability": "nonpayable",
      "type": "function"
    },
    {
      "inputs": [
        {
          "internalType": "uint256",
          "name": "",
          "type": "uint256"
        }
      ],
      "name": "sourceChainIds",
      "outputs": [
        {
          "internalType": "uint256",
          "name": "",
          "type": "uint256"
        }
      ],
      "stateMutability": "view",
      "type": "function"
    },
    {
      "inputs": [
        {
          "internalType": "address",
          "name": "",
          "type": "address"
        }
      ],
      "name": "supportedTokens",
      "outputs": [
        {
          "internalType": "bool",
          "name": "",
          "type": "bool"
        }
      ],
      "stateMutability": "view",
      "type": "function"
    },
    {
      "inputs": [
        {
          "internalType": "bytes4",
          "name": "interfaceId",
          "type": "bytes4"
        }
      ],
      "name": "supportsInterface",
      "outputs": [
        {
          "internalType": "bool",
          "name": "",
          "type": "bool"
        }
      ],
      "stateMutability": "view",
      "type": "function"
    },
    {
      "inputs": [],
      "name": "symbol",
      "outputs": [
        {
          "internalType": "string",
          "name": "",
          "type": "string"
        }
      ],
      "stateMutability": "view",
      "type": "function"
    },
    {
      "inputs": [
        {
          "internalType": "uint256",
          "name": "tokenId",
          "type": "uint256"
        }
      ],
      "name": "tokenURI",
      "outputs": [
        {
          "internalType": "string",
          "name": "",
          "type": "string"
        }
      ],
      "stateMutability": "view",
      "type": "function"
    },
    {
      "inputs": [
        {
          "internalType": "address",
          "name": "from",
          "type": "address"
        },
        {
          "internalType": "address",
          "name": "to",
          "type": "address"
        },
        {
          "internalType": "uint256",
          "name": "tokenId",
          "type": "uint256"
        }
      ],
      "name": "transferFrom",
      "outputs": [],
      "stateMutability": "nonpayable",
      "type": "function"
    },
    {
      "inputs": [
        {
          "internalType": "bytes32",
          "name": "",
          "type": "bytes32"
        }
      ],
      "name": "transferHashes",
      "outputs": [
        {
          "internalType": "uint256",
          "name": "",
          "type": "uint256"
        }
      ],
      "stateMutability": "view",
      "type": "function"
    },
    {
      "inputs": [
        {
          "internalType": "uint256",
          "name": "",
          "type": "uint256"
        }
      ],
      "name": "transferInitiatedAt",
      "outputs": [
        {
          "internalType": "uint256",
          "name": "",
          "type": "uint256"
        }
      ],
      "stateMutability": "view",
      "type": "function"
    },
    {
      "inputs": [
        {
          "internalType": "address",
          "name": "newOwner",
          "type": "address"
        }
      ],
      "name": "transferOwnership",
      "outputs": [],
      "stateMutability": "nonpayable",
      "type": "function"
    },
    {
      "inputs": [
        {
          "internalType": "uint256",
          "name": "newCarId",
          "type": "uint256"
        },
        {
          "components": [
            {
              "internalType": "string",
              "name": "name",
              "type": "string"
            },
            {
              "internalType": "string[]",
              "name": "images",
              "type": "string[]"
            },
            {
              "internalType": "string",
              "name": "description",
              "type": "string"
            },
            {
              "internalType": "string",
              "name": "make",
              "type": "string"
            },
            {
              "internalType": "string",
              "name": "model",
              "type": "string"
            },
            {
              "internalType": "uint256",
              "name": "year",
              "type": "uint256"
            },
            {
              "internalType": "uint256",
              "name": "vin",
              "type": "uint256"
            }
          ],
          "internalType": "struct HemDealer.CarBasicDetails",
          "name": "basicDetails",
          "type": "tuple"
        },
        {
          "components": [
            {
              "internalType": "uint256",
              "name": "mileage",
              "type": "uint256"
            },
            {
              "internalType": "string",
              "name": "color",
              "type": "string"
            },
            {
              "internalType": "enum HemDealer.CarCondition",
              "name": "condition",
              "type": "uint8"
            },
            {
              "internalType": "enum HemDealer.CarTransmission",
              "name": "transmission",
              "type": "uint8"
            },
            {
              "internalType": "enum HemDealer.FuelType",
              "name": "fuelType",
              "type": "uint8"
            },
            {
              "internalType": "uint256",
              "name": "price",
              "type": "uint256"
            }
          ],
          "internalType": "struct HemDealer.CarTechnicalDetails",
          "name": "technicalDetails",
          "type": "tuple"
        },
        {
          "components": [
            {
              "internalType": "string",
              "name": "location",
              "type": "string"
            },
            {
              "internalType": "string",
              "name": "carHistory",
              "type": "string"
            },
            {
              "internalType": "string[]",
              "name": "features",
              "type": "string[]"
            }
          ],
          "internalType": "struct HemDealer.CarAdditionalInfo",
          "name": "additionalInfo",
          "type": "tuple"
        },
        {
          "components": [
            {
              "internalType": "address",
              "name": "wallet",
              "type": "address"
            },
            {
              "internalType": "string",
              "name": "sellerName",
              "type": "string"
            },
            {
              "internalType": "string",
              "name": "email",
              "type": "string"
            },
            {
              "internalType": "uint256",
              "name": "phoneNumber",
              "type": "uint256"
            },
            {
              "internalType": "string",
              "name": "profileImage",
              "type": "string"
            }
          ],
          "internalType": "struct HemDealer.SellerDetails",
          "name": "sellerDetails",
          "type": "tuple"
        }
      ],
      "name": "updateCar",
      "outputs": [],
      "stateMutability": "nonpayable",
      "type": "function"
    }
  ],
  "bytecode": "0x6080346200040157601f19906001600160401b0390601f620075e538819003828101861684018581118582101762000406578492829160405283396020938491810103126200040157516001600160a01b03808216959094909186900362000401576200006b6200041c565b60098152682432b6a232b0b632b960b91b858201526200008a6200041c565b936003948581526248444d60e81b878201526000805460018060a01b031999338b83161783553391167f8be0079c531659141344cd1fd0a4f28419497f9722a3daafe3b4186f6b6457e08380a3600193848055805190868211620003ed576002548681811c91168015620003e2575b8b821014620003ce579081868493116200037a575b508a90868311600114620003165784926200030a575b5050600019828a1b1c191690851b176002555b8151948511620002f65786548481811c91168015620002eb575b89821014620002d7578381116200028f575b50879285116001146200022e57939450849291908362000222575b50501b9160001990841b1c19161790555b3315620001eb578215620001b65750600c541617600c556040516171a890816200043d8239f35b6064906040519062461bcd60e51b82526004820152600e60248201526d24b73b30b634b2103937baba32b960911b6044820152fd5b6064906040519062461bcd60e51b82526004820152601060248201526f24b73b30b634b2103232b83637bcb2b960811b6044820152fd5b0151925038806200017e565b929484908116878552888520945b89888383106200027757505050106200025e575b505050811b0190556200018f565b015160001983861b60f8161c1916905538808062000250565b8686015188559096019594850194879350016200023c565b8782528882208480880160051c8201928b8910620002cd575b0160051c019085905b828110620002c157505062000163565b838155018590620002b1565b92508192620002a8565b634e487b7160e01b82526022600452602482fd5b90607f169062000151565b634e487b7160e01b81526041600452602490fd5b01519050388062000124565b908988941691600286528c8620928d87905b82821062000362575050841162000349575b505050811b0160025562000137565b0151600019838c1b60f8161c191690553880806200033a565b8385015186558b979095019493840193018e62000328565b909150600284528a84208680850160051c8201928d8610620003c4575b918991869594930160051c01915b828110620003b55750506200010e565b868155859450899101620003a5565b9250819262000397565b634e487b7160e01b84526022600452602484fd5b90607f1690620000f9565b634e487b7160e01b83526041600452602483fd5b600080fd5b634e487b7160e01b600052604160045260246000fd5b60408051919082016001600160401b03811183821017620004065760405256fe61022080604052600436101561001457600080fd5b60003560e01c90816301ffc9a714615cbd5750806306fdde0314615c17578063081812fc14615bf9578063095ea7b314615a7f5780630ce7fc0314615a535780630d5d841a1461446d5780632351d10f146131f557806323b872dd146131d15780633339691714613006578063341fa05d14612ef5578063402ebd7d14612c5c57806342842e0e14612c295780634f8359f114612c005780635e8be19014612b7457806360098088146129fe5780636352211e146129ce57806368c4ac261461298f5780636bfa74c3146114135780636c23106014610b185780636d69fcaf14610a9857806370a0823114610a01578063715018a6146109a8578063763191901461096657806384dfc55d1461093557806387065deb1461091757806388ba16ab146108e65780638da5cb5b146108bd57806395d89b41146107db5780639efeff1c146107af5780639f725a1d14610611578063a22cb46514610536578063abfe5d571461044a578063b88d4fde146103d4578063c87b56dd14610360578063ceb6c12f14610334578063e985e9c5146102de578063ef821fe8146102b2578063f2fde38b146101ee5763f9759518146101cd57600080fd5b346101e95760003660031901126101e957602060405160328152f35b600080fd5b346101e95760203660031901126101e957610207615d70565b61020f61629d565b6001600160a01b0390811690811561025e57600054826001600160601b0360a01b821617600055167f8be0079c531659141344cd1fd0a4f28419497f9722a3daafe3b4186f6b6457e0600080a3005b60405162461bcd60e51b815260206004820152602660248201527f4f776e61626c653a206e6577206f776e657220697320746865207a65726f206160448201526564647265737360d01b6064820152608490fd5b346101e95760203660031901126101e95760043560005260126020526020604060002054604051908152f35b346101e95760403660031901126101e9576102f7615d70565b6102ff615d86565b9060018060a01b03809116600052600760205260406000209116600052602052602060ff604060002054166040519015158152f35b346101e95760203660031901126101e95760043560005260116020526020604060002054604051908152f35b346101e95760203660031901126101e95761039a610395600435600052600460205260018060a01b0360406000205416151590565b6162f5565b60006040516103a881615dee565b526103d06040516103b881615dee565b60008152604051918291602083526020830190615d4b565b0390f35b346101e95760803660031901126101e9576103ed615d70565b6103f5615d86565b90606435906044356001600160401b0383116101e95761044893610420610443943690600401615e7c565b9261043361042e843361654b565b616472565b61043e838383616613565b61684f565b616527565b005b346101e95760003660031901126101e95760088054600060015b828111156104f6575061047690616e33565b91600160005b8382111561049257604051806103d0878261623b565b81600052600a60205260406000209160ff6014840154851c16156104c2575b6104bc919250616e24565b9061047c565b6104ed826104dc6104d66104bc9592616e24565b95616c31565b6104e6828a616e83565b5287616e83565b508291506104b1565b80600052600a60205260ff601460406000200154851c1615610521575b61051c90616e24565b610464565b9061052e61051c91616e24565b919050610513565b346101e95760403660031901126101e95761054f615d70565b60243590811515908183036101e9576001600160a01b0316913383146105cc5761059e9033600052600760205260406000208460005260205260406000209060ff801983541691151516179055565b6040519081527f17307eab39ab6107e8899845ad3d59bd9653f200f220920489ca2b5937696c3160203392a3005b60405162461bcd60e51b815260206004820152601960248201527f4552433732313a20617070726f766520746f2063616c6c6572000000000000006044820152606490fd5b346101e9576020806003193601126101e9576004359081600052600f815260ff604060002054161561077557816000526012815260406000205462015180810180911161075f57421115610722576000828152600a82526040902060010180546001600160a01b039290831633148015610715575b156106e05760109084600052600f8152604060002060ff198154169055601281526000604081205552600060408120555416907fad5d1da63a71147a146daa2d4c6cdc9ab57b00bd41306f855d0afe41c5ed2840600080a3005b6064906040519062461bcd60e51b82526004820152600e60248201526d139bdd08185d5d1a1bdc9a5e995960921b6044820152fd5b5082600054163314610686565b6064906040519062461bcd60e51b825260048201526016602482015275151c985b9cd9995c881b9bdd081d1a5b5959081bdd5d60521b6044820152fd5b634e487b7160e01b600052601160045260246000fd5b6064906040519062461bcd60e51b8252600482015260136024820152722737903832b73234b733903a3930b739b332b960691b6044820152fd5b346101e95760203660031901126101e95760043560005260106020526020604060002054604051908152f35b346101e95760003660031901126101e95760405160006003546107fd81616364565b80845290600190818116908115610896575060011461083b575b6103d08461082781860382615e09565b604051918291602083526020830190615d4b565b6003600090815292507fc2575a0e9e593c00f959f8c92f12db2869c3395a3b0502d05e2516446f71f85b5b82841061087e57505050810160200161082782610817565b80546020858701810191909152909301928101610866565b60ff191660208087019190915292151560051b850190920192506108279150839050610817565b346101e95760003660031901126101e9576000546040516001600160a01b039091168152602090f35b346101e95760203660031901126101e9576004356000526013602052602060ff604060002054166040519015158152f35b346101e95760003660031901126101e9576020604051620151808152f35b346101e95760203660031901126101e957600435600052600f602052602060ff604060002054166040519015158152f35b346101e95760203660031901126101e95761097f615d70565b61098761629d565b6001600160a01b03166000908152600d60205260409020805460ff19169055005b346101e95760003660031901126101e9576109c161629d565b600080546001600160a01b0319811682556001600160a01b03167f8be0079c531659141344cd1fd0a4f28419497f9722a3daafe3b4186f6b6457e08280a3005b346101e95760203660031901126101e9576001600160a01b03610a22615d70565b168015610a415760005260056020526020604060002054604051908152f35b60405162461bcd60e51b815260206004820152602960248201527f4552433732313a2061646472657373207a65726f206973206e6f7420612076616044820152683634b21037bbb732b960b91b6064820152608490fd5b346101e95760203660031901126101e957610ab1615d70565b610ab961629d565b6001600160a01b03168015610ae3576000908152600d60205260409020805460ff19166001179055005b60405162461bcd60e51b815260206004820152600d60248201526c24b73b30b634b2103a37b5b2b760991b6044820152606490fd5b60203660031901126101e957610b2c616997565b6004356000908152600a6020526040902060010154610b55906001600160a01b03161515616b41565b600435600052600a602052610b7860ff60146040600020015460081c1615616b82565b600435600052600a602052604060002060ff60148201541615806113fc575b156113c45760168101546001600160a01b0316806111395750600c81015480340361110057600080612710610bce610c3394616980565b600c54600f8701546015880154604051630efe6a8b60e01b602082019081526001600160a01b03938416602483015260448201929092529490930460648086019190915284521691610c1f81615db8565b519134905af1610c2d616724565b50616ec9565b60158101805446146110b85754600435600052600a60205260018060a01b0360016040600020015416331480156110a4575b610c6e90616a39565b600435600052600f60205260ff6040600020541661105f5746811461101a57600435600052600a602052604060002060018101805491600080600c830154948682610e19610e25600f880199610dcf8b549960136012820154918c6040518b602082019260043584526001600160601b0319809260601b16604084015246605484015288607484015260601b166094820152610d40602082610d3282610d26610d1d60a8850160108b016170ae565b60118a016170ae565b8a8152018888016170ae565b428152038084520182615e09565b5190209c8d956040519b8c976020890152600435604089015260018060a01b0316606088015246608088015260a087015260c08087015260018060a01b031660e086015260a0610100860152610d9d61018086016010830161639e565b610db860df199182888203016101208901526011840161639e565b93610140870152858403016101608601520161639e565b03610de2601f1991828101885287615e09565b60018060a01b03600c541695604051938491602083019763e289adcd60e01b89526024840152604060448401526064830190615d4b565b03908101835282615e09565b51925af1610e31616724565b5015610fd557600435600052600f6020526040600020600160ff19825416179055601260205242604060002055601060205246604060002055600052601160205260043560406000205560018060a01b039054169060018060a01b03905416916040519046825260208201527f1e5ef349341852f5f199e2bce07397e4d55c83226632236095641c8af9af549f604060043592a45b6001600954019081600955600435600052600b6020526040600020600c820192835460405191610ef583615dd3565b8252602082019060043582526040830190815260608301933385528054600160401b811015610fbf57610f2d91600182018155616ead565b929092610fa957600393518355516001830155516002820155019060018060a01b039051166001600160601b0360a01b825416179055600f60018060a01b039101541690549060405191825233917f8205a71867f7292bcef9e53d4774758d6173b03f63017dec9a03a6664b429dc5602060043592a460018055005b634e487b7160e01b600052600060045260246000fd5b634e487b7160e01b600052604160045260246000fd5b60405162461bcd60e51b815260206004820152601b60248201527f4661696c656420746f20696e697469617465207472616e7366657200000000006044820152606490fd5b60405162461bcd60e51b815260206004820152601f60248201527f53616d6520636861696e207472616e73666572206e6f7420616c6c6f776564006044820152606490fd5b60405162461bcd60e51b815260206004820152601860248201527f5472616e7366657220616c72656164792070656e64696e6700000000000000006044820152606490fd5b506000546001600160a01b03163314610c65565b5060148101805460ff19166001908117909155810180546001600160a01b03191633908117909155600f8201546110fb91600435916001600160a01b0316616613565b610ec6565b60405162461bcd60e51b8152602060048201526011602482015270125b98dbdc9c9958dd081c185e5b595b9d607a1b6044820152606490fd5b3461138c57600c8201549061118a61271061115384616980565b0492604051906323b872dd60e01b602083015233602483015230604483015260648201526064815261118481615db8565b82616f0e565b600c805490840154906001600160a01b031681158015611314575b156112b0576111d6916040519163095ea7b360e01b6020840152602483015260448201526044815261118481615dd3565b600c80546016850154600f86015492860154601587015460405163201bd06f60e11b60208201526001600160a01b03938416602482015294831660448601526064850191909152608484015260a4808401959095529382529092166001600160401b0360e0840190811190841117610fbf576000808461126c9360e06112ab970160405282602083519301915af1610c2d616724565b600c5460405163095ea7b360e01b60208201526001600160a01b03909116602482015260006044808301919091528152906112a682615dd3565b616f0e565b610c33565b60405162461bcd60e51b815260206004820152603660248201527f5361666545524332303a20617070726f76652066726f6d206e6f6e2d7a65726f60448201527520746f206e6f6e2d7a65726f20616c6c6f77616e636560501b6064820152608490fd5b50604051636eb1769f60e11b815230600482015260248101829052602081604481875afa9081156113805760009161134e575b50156111a5565b90506020813d602011611378575b8161136960209383615e09565b810103126101e9575186611347565b3d915061135c565b6040513d6000823e3d90fd5b60405162461bcd60e51b815260206004820152601060248201526f115512081b9bdd081858d8d95c1d195960821b6044820152606490fd5b60405162461bcd60e51b815260206004820152601060248201526f496e76616c696420707572636861736560801b6044820152606490fd5b5060018101546001600160a01b0316331415610b97565b346101e95760031960c0368201126101e9576001600160401b03600435116101e95760e081600435360301126101e9576001600160401b03602435116101e95760c081602435360301126101e9576001600160401b03604435116101e957606081604435360301126101e95760643590816101a0526001600160401b0382116101e95760a091360301126101e95760a4356101408190526001600160a01b038116036101e9576114c1616997565b610140516001600160a01b03166000908152600d602052604090205460ff161561294a576101a0516004016001600160a01b036114fd826168ca565b163314908161292e575b50156128f85760a46024350135156128c35761152d6024600435016004356004016168de565b905015612892576301e1338042046107b281011061075f576107b26301e1338042040160a460043501351161285e57633b9aca00602435600401351015612827576008805460010190819055611587600480350180616913565b6101e05261159f6024600435016004356004016168de565b6115b6604460049493943501600435600401616913565b906115cb606460043501600435600401616913565b906115e0608460043501600435600401616913565b9190926115f66024803501602435600401616913565b95909660036044602435013510156101e95760026064602435013510156101e95760046084602435013510156101e9578b9a61163760046044350180616913565b9a909b60443560440160443560040190611650916168de565b9e9061010052604051806101205261166790615d9c565b6101205152336101205160200152366101e05161168392615e45565b6101205160400152369061169692615eb1565b610120516060015236906116a992615e45565b610120516080015236906116bc92615e45565b6101205160a0015236906116cf92615e45565b6101205160c0015260043560a401356101205160e0015260043560c4013561012051610100015260243560040135610120516101200152369061171192615e45565b6101205161014001526024356044013561012051610160019061173391616945565b6024356064013561012051610180019061174c91616951565b60243560840135610120516101a001906117659161695d565b60243560a40135610120516101c00152369061178092615e45565b610120516101e0015236610100519161179892615eb1565b610120516102000152366101a051600401906117b391615f3b565b610120516102200152610120516102400160009052610120516102600160009052608435610120516102800152600160a01b600190036101405116610120516102a00152610120516102c0016000905280600052600a60205260406000206101205180518255600160a01b600190036020820151166001600160601b0360a01b600184015416176001830155604001519182516001600160401b038111610fbf576118616002840154616364565b601f81116127f2575b506020601f82116001146127845781929394600092612779575b50508160011b916000199060031b1c19161760028301555b6060610120510151805190600160401b8211610fbf576003840154826003860155808310612701575b5060200190600384016000526020600020916000905b8282106125e157858560806101205101519182516001600160401b038111610fbf5761190a6004830154616364565b601f81116125ac575b506020601f821160011461253e5781929394600092612533575b50508160011b916000199060031b1c19161760048201555b60a06101205101519182516001600160401b038111610fbf5761196b6005840154616364565b601f81116124fe575b506020601f82116001146124905781929394600092612485575b50508160011b916000199060031b1c19161760058301555b60c06101205101519182516001600160401b038111610fbf576119cc6006830154616364565b601f8111612450575b506020601f82116001146123e257819293946000926123d7575b50508160011b916000199060031b1c19161760068201555b6101406101205160e081015160078401556101008101516008840155610120810151600984015501519182516001600160401b038111610fbf57611a4e600a840154616364565b601f81116123a2575b506020601f82116001146123345781929394600092612329575b50508160011b916000199060031b1c191617600a8301555b6101205161016081015190600382101561231357600b840154916101808201516002811015612313576101a08301516004811015612313576101e09460ff62ff000061ff009360101b1694169062ffffff1916179160081b161717600b8501556101c0810151600c85015501519182516001600160401b038111610fbf57611b14600d830154616364565b601f81116122de575b506020601f82116001146122705781929394600092612265575b50508160011b916000199060031b1c191617600d8201555b610200610120510151805190600160401b8211610fbf57600e83015482600e8501558083106121ed575b5060200190600e83016000526020600020916000905b8282106120d8578585600f8101906102206101205101519160018060a01b038351166001600160601b0360a01b82541617905560208201519283516001600160401b038111610fbf57611be56010840154616364565b601f81116120a3575b506020601f8211600114612034578192939495600092612029575b50508160011b916000199060031b1c19161760108301555b60408301519283516001600160401b038111610fbf57611c446011850154616364565b601f8111611ff4575b506020601f8211600114611f815781906080949596600092611f76575b50508160011b916000199060031b1c19161760118501555b6060810151601285015501519182516001600160401b038111610fbf57611cac6013830154616364565b601f8111611f36575b506020601f8211600114611ec85781929394600092611ebd575b50508160011b916000199060031b1c19161760138201555b60176102c060148301611d316101205191611d156102408401511515829060ff801983541691151516179055565b610260830151815461ff00191690151560081b61ff0016179055565b61028081015160158501556016840160018060a01b036102a0830151166001600160601b0360a01b825416179055015191015580600052600e602052608435604060002055604051611d8281615dee565b600081523315611e7957600082815260046020526040902054611e409161044391611db9906001600160a01b031615155b156169ed565b600084815260046020526040902054611ddc906001600160a01b03161515611db3565b3360005260056020526040600020600181540190558360005260046020526040600020336001600160601b0360a01b825416179055833360007fddf252ad1be2c89b69c2b068fc378daa952ba7f163c4a11628f55a4df523b3ef8180a48333616754565b6040519060a4602435013582527f346237025e4b201cfbdb8011c7afcd8a0cc16c50e910d6ac5645ab7406be429d60203393a360018055005b606460405162461bcd60e51b815260206004820152602060248201527f4552433732313a206d696e7420746f20746865207a65726f20616464726573736044820152fd5b015190508480611ccf565b6013830160005260206000209060005b601f1984168110611f1e5750600193949583601f19811610611f05575b505050811b016013820155611ce7565b015160001960f88460031b161c19169055848080611ef5565b9091602060018192858a015181550193019101611ed8565b611f6690601384016000526020600020601f840160051c81019160208510611f6c575b601f0160051c0190616969565b84611cb5565b9091508190611f59565b015190508680611c6a565b6011850160005260206000209560005b601f1984168110611fdc57509582916080959697600194601f19811610611fc3575b505050811b016011850155611c82565b015160001960f88460031b161c19169055868080611fb3565b82820151885560019097019660209283019201611f91565b61202390601186016000526020600020601f840160051c81019160208510611f6c57601f0160051c0190616969565b85611c4d565b015190508580611c09565b6010840160005260206000209060005b601f198416811061208b575060019394959683601f19811610612072575b505050811b016010830155611c21565b015160001960f88460031b161c19169055858080612062565b9091602060018192858b015181550193019101612044565b6120d290601085016000526020600020601f840160051c81019160208510611f6c57601f0160051c0190616969565b85611bee565b80518051906001600160401b038211610fbf576120f58654616364565b601f81116121bb575b50602090601f831160011461214b579282600194936020938695600092612140575b5050600019600383901b1c191690841b1787555b01940191019092611b8f565b015190508b80612120565b908660005260206000209160005b601f19851681106121a3575083602093600196938796938794601f1981161061218a575b505050811b018755612134565b015160001960f88460031b161c191690558b808061217d565b91926020600181928685015181550194019201612159565b6121e790876000526020600020601f850160051c81019160208610611f6c57601f0160051c0190616969565b886120fe565b600e84016000526020600020908382015b818301811061220e575050611b79565b8061221b60019254616364565b80612228575b50016121fe565b601f8111831461223e5750600081555b88612221565b60009082825261225c601f60208420920160051c8201858301616969565b81835555612238565b015190508480611b37565b600d830160005260206000209060005b601f19841681106122c65750600193949583601f198116106122ad575b505050811b01600d820155611b4f565b015160001960f88460031b161c1916905584808061229d565b9091602060018192858a015181550193019101612280565b61230d90600d84016000526020600020601f840160051c81019160208510611f6c57601f0160051c0190616969565b84611b1d565b634e487b7160e01b600052602160045260246000fd5b015190508480611a71565b600a840160005260206000209060005b601f198416811061238a5750600193949583601f19811610612371575b505050811b01600a830155611a89565b015160001960f88460031b161c19169055848080612361565b9091602060018192858a015181550193019101612344565b6123d190600a85016000526020600020601f840160051c81019160208510611f6c57601f0160051c0190616969565b84611a57565b0151905084806119ef565b6006830160005260206000209060005b601f19841681106124385750600193949583601f1981161061241f575b505050811b016006820155611a07565b015160001960f88460031b161c1916905584808061240f565b9091602060018192858a0151815501930191016123f2565b61247f90600684016000526020600020601f840160051c81019160208510611f6c57601f0160051c0190616969565b846119d5565b01519050848061198e565b6005840160005260206000209060005b601f19841681106124e65750600193949583601f198116106124cd575b505050811b0160058301556119a6565b015160001960f88460031b161c191690558480806124bd565b9091602060018192858a0151815501930191016124a0565b61252d90600585016000526020600020601f840160051c81019160208510611f6c57601f0160051c0190616969565b84611974565b01519050848061192d565b6004830160005260206000209060005b601f19841681106125945750600193949583601f1981161061257b575b505050811b016004820155611945565b015160001960f88460031b161c1916905584808061256b565b9091602060018192858a01518155019301910161254e565b6125db90600484016000526020600020601f840160051c81019160208510611f6c57601f0160051c0190616969565b84611913565b80518051906001600160401b038211610fbf576125fe8654616364565b601f81116126c4575b50602090601f8311600114612654579282600194936020938695600092612649575b5050600019600383901b1c191690841b1787555b019401910190926118db565b015190508b80612629565b908660005260206000209160005b601f19851681106126ac575083602093600196938796938794601f19811610612693575b505050811b01875561263d565b015160001960f88460031b161c191690558b8080612686565b91926020600181928685015181550194019201612662565b6126f1908760005260206000206005601f8601811c820192602087106126f7575b601f01901c0190616969565b88612607565b91925082916126e5565b600385016000526020600020908382015b81830181106127225750506118c5565b8061272f60019254616364565b8061273c575b5001612712565b601f811183146127525750600081555b88612735565b600090828252612770601f60208420920160051c8201858301616969565b8183555561274c565b015190508480611884565b6002840160005260206000209060005b601f19841681106127da5750600193949583601f198116106127c1575b505050811b01600283015561189c565b015160001960f88460031b161c191690558480806127b1565b9091602060018192858a015181550193019101612794565b61282190600285016000526020600020601f840160051c81019160208510611f6c57601f0160051c0190616969565b8461186a565b60405162461bcd60e51b815260206004820152600f60248201526e496e76616c6964206d696c6561676560881b6044820152606490fd5b60405162461bcd60e51b815260206004820152600c60248201526b24b73b30b634b2103cb2b0b960a11b6044820152606490fd5b60405162461bcd60e51b81526020600482015260096024820152684e6f20696d6167657360b81b6044820152606490fd5b60405162461bcd60e51b815260206004820152600d60248201526c496e76616c696420707269636560981b6044820152606490fd5b60405162461bcd60e51b815260206004820152600e60248201526d24b73b30b634b21039b2b63632b960911b6044820152606490fd5b6001600160a01b039150612941906168ca565b16151581611507565b60405162461bcd60e51b815260206004820152601960248201527f556e737570706f72746564207061796d656e7420746f6b656e000000000000006044820152606490fd5b346101e95760203660031901126101e9576001600160a01b036129b0615d70565b16600052600d602052602060ff604060002054166040519015158152f35b346101e95760203660031901126101e95760206129ec600435616341565b6040516001600160a01b039091168152f35b346101e9576020806003193601126101e95760043590612a1c616997565b6000828152600a825260409020600101546001600160a01b0390811633148015612b67575b612a4a90616a39565b82600052600a825260ff60146040600020015460081c16612b2c578291600091838352600a82526014604084200161010061ff0019825416179055612a8e84616341565b506004612a9a85616341565b918585526006845260408520926001600160601b0360a01b93848154169055169283855260058152604085208519815401905585855252604083209081541690557fddf252ad1be2c89b69c2b068fc378daa952ba7f163c4a11628f55a4df523b3ef8280a433907f975848b3b721e792b1afe72032f4fa971d1faeb9bfd806ccf1ffada5bac8bafe600080a360018055005b60405162461bcd60e51b815260048101839052601360248201527210d85c88185b1c9958591e4819195b195d1959606a1b6044820152606490fd5b5060005481163314612a41565b346101e9576020806003193601126101e957600435612b91616a74565b506000818152600a83526040902060010154612bb7906001600160a01b03161515616b41565b80600052600a8252612bd760ff60146040600020015460081c1615616b82565b600052600a8152612beb6040600020616c31565b906103d0604051928284938452830190616062565b346101e95760003660031901126101e957600c546040516001600160a01b039091168152602090f35b346101e957610448610443612c3d36615fd8565b9060405192612c4b84615dee565b6000845261043361042e843361654b565b346101e95760403660031901126101e957600435600052600a60205260018060a01b036001604060002001541633148015612ee1575b612c9b90616a39565b600435600052600f60205260ff6040600020541661105f57466024351461101a57600435600052600a60205260406000206001810154600080600c840154600f85015493612de36012870154604051602081019060043582526001600160601b0319808660601b1660408301524660548301528660748301528960601b166094820152612d52602082610d328d601384612d47612d3e60a88701601086016170ae565b601185016170ae565b8a81520191016170ae565b51902096604051948594896020870152600435604087015260018060a01b0316606086015246608086015260a085015260c08085015260018060a01b031660e084015260a0610100840152612dae610180840160108a0161639e565b612dc960df1991828682030161012087015260118b0161639e565b91610140850152838203016101608401526013880161639e565b0390612df7601f1992838101835282615e09565b8260018060a01b03600c541692612e376040519182610e19602082019663e289adcd60e01b88526024356024840152604060448401526064830190615d4b565b51925af1612e43616724565b5015610fd557600435600052600f6020526040600020600160ff19825416179055601260205242604060002055601060205246604060002055600052601160205260043560406000205560018060a01b0360018201541690600f60018060a01b03910154169060405146815260243560208201527f1e5ef349341852f5f199e2bce07397e4d55c83226632236095641c8af9af549f604060043592a4005b506000546001600160a01b03163314612c92565b346101e95760003660031901126101e95760088054600060015b82811115612fa65750612f2190616e33565b91600160005b83821115612f3d57604051806103d0878261623b565b81600052600a60205260406000209160ff6014840154851c161580612f90575b612f73575b612f6d919250616e24565b90612f27565b612f87826104dc6104d6612f6d9592616e24565b50829150612f62565b5060018301546001600160a01b03163314612f5d565b80600052600a602052604060002060ff6014820154861c16159081612fef575b50612fda575b612fd590616e24565b612f0f565b90612fe7612fd591616e24565b919050612fcc565b600101546001600160a01b03163314905085612fc6565b346101e95760003660031901126101e95760006001600854905b818111156131a9575061303282615e9a565b916130406040519384615e09565b80835261304f601f1991615e9a565b0160005b81811061317657505060006001905b828211156130cf5760408051602080825286518183018190528188019383019160005b8281106130925784840385f35b8551805185528083015185840152604080820151908601526060908101516001600160a01b03169085015294810194608090930192600101613085565b600093919293905b836000526020600b81526040600020805484101561315f5791613153916131018561315995616ead565b506040519161310f83615dd3565b8154835260018201549083015260028101546040830152600301546001600160a01b031660608201526131428287616e83565b5261314d8186616e83565b50616e24565b91616e24565b906130d7565b50509261316f9150939193616e24565b9091613062565b60209060405161318581615dd3565b60008152826000818301526000604083015260006060830152828701015201613053565b9182600052600b602052604060002054810180911161075f576131cc9092616e24565b613020565b346101e9576104486131e236615fd8565b916131f061042e843361654b565b616613565b346101e95760403660031901126101e9576004356001600160401b0381116101e957613225903690600401615e7c565b600c546001600160a01b031633036144315780518101906020820160c0828403126101e95760208201516040830151606084015194909390916001600160a01b03861686036101e95760808201519260a08301519260c08101516001600160401b0381116101e95760a09101809203126101e957604051946132a686615db8565b60208201516001600160a01b03811681036101e957865260408201516001600160401b0381116101e9578160206132df92850101617130565b602087015260608201516001600160401b0381116101e95781602061330692850101617130565b60408701526080820151606087015260a0820151916001600160401b0383116101e9576133369201602001617130565b608085015280600052601360205260ff604060002054166143ec576000526013602052604060002060ff1981541660011790556008546001019384600855600052600a6020526040600020926007840154936008810154926009820154600b83015490600160a01b6001900360168501541695604051986133b68a615d9c565b8a8a526001600160a01b038c1660208b0152604051806133d98160028a0161639e565b036133e49082615e09565b60408b01526133f560038701616bc5565b60608b01526040518061340b8160048a0161639e565b036134169082615e09565b60808b01526040518061342c8160058a0161639e565b036134379082615e09565b60a08b01526040518061344d8160068a0161639e565b036134589082615e09565b60c08b015260e08a01526101008901526101208801526040518061347f81600a870161639e565b0361348a9082615e09565b6101408801526134a160ff82166101608901616945565b6134b660ff600883901c166101808901616951565b60101c60ff166101a08701906134cb9161695d565b6101c0860152604051806134e281600d850161639e565b036134ed9082615e09565b6101e0860152600e016134ff90616bc5565b610200850152610220840152610240830160009052610260830160009052466102808401526102a08301526102c082015281600052600a60205260406000209080518255600160a01b600190036020820151166001600160601b0360a01b60018401541617600183015560408101518051906001600160401b038211610fbf57819061358e6002860154616364565b601f81116143b7575b50602090601f83116001146143455760009261433a575b50508160011b916000199060031b1c19161760028301555b6060810151805190600160401b8211610fbf5760038401548260038601558083106142c2575b5060200190600384016000526020600020916000905b8282106141ad575050505060808101518051906001600160401b038211610fbf5781906136326004860154616364565b601f8111614178575b50602090601f8311600114614106576000926140fb575b50508160011b916000199060031b1c19161760048301555b60a08101518051906001600160401b038211610fbf57819061368f6005860154616364565b601f81116140c6575b50602090601f831160011461405457600092614049575b50508160011b916000199060031b1c19161760058301555b60c08101518051906001600160401b038211610fbf5781906136ec6006860154616364565b601f8111614014575b50602090601f8311600114613fa257600092613f97575b50508160011b916000199060031b1c19161760068301555b60e08101516007830155610100810151600883015561012081015160098301556101408101518051906001600160401b038211610fbf57819061376a600a860154616364565b601f8111613f62575b50602090601f8311600114613ef057600092613ee5575b50508160011b916000199060031b1c191617600a8301555b610160810151600381101561231357600b830154610180830151906002821015612313576101a08401519060048210156123135760ff62ff000061ff009360101b1694169062ffffff1916179160081b161717600b8301556101c0810151600c8301556101e08101518051906001600160401b038211610fbf57819061382b600d860154616364565b601f8111613eb0575b50602090601f8311600114613e3e57600092613e33575b50508160011b916000199060031b1c191617600d8301555b610200810151805190600160401b8211610fbf57600e84015482600e860155808310613dbb575b5060200190600e84016000526020600020916000905b828210613ca657505050506102208101518051600f840180546001600160a01b0319166001600160a01b039290921691909117905560208101518051906001600160401b038211610fbf5781906138fa6010870154616364565b601f8111613c71575b50602090601f8311600114613bff57600092613bf4575b50508160011b916000199060031b1c19161760108401555b60408101518051906001600160401b038211610fbf576139556011860154616364565b601f8111613bbf575b50602090601f8311600114613b4c57608093929160009183613b41575b50508160011b916000199060031b1c19161760118501555b6060810151601285015501518051906001600160401b038211610fbf576139bd6013850154616364565b601f8111613b0c575b50602090601f8311600114613a96579180601794926102c094600092613a8b575b50508160011b916000199060031b1c19161760138501555b613a2360148501611d156102408401511515829060ff801983541691151516179055565b61028081015160158501556102a08101516016850180546001600160a01b0319166001600160a01b0392831617905591015191909201556040514681529216917f17a35fad4f245f65a33dfc21a8118014a34e233321c287ab88ff612f9e1147f890602090a3005b0151905088806139e7565b906013850160005260206000209160005b601f1985168110613af4575092601794926001926102c09583601f19811610613adb575b505050811b0160138501556139ff565b015160001960f88460031b161c19169055888080613acb565b91926020600181928685015181550194019201613aa7565b613b3b90601386016000526020600020601f850160051c81019160208610611f6c57601f0160051c0190616969565b866139c6565b01519050888061397b565b906011860160005260206000209160005b601f1985168110613ba7575091839160019360809695601f19811610613b8e575b505050811b016011850155613993565b015160001960f88460031b161c19169055888080613b7e565b91926020600181928685015181550194019201613b5d565b613bee90601187016000526020600020601f850160051c81019160208610611f6c57601f0160051c0190616969565b8761395e565b01519050878061391a565b9250601086016000526020600020906000935b601f1984168510613c56576001945083601f19811610613c3d575b505050811b016010840155613932565b015160001960f88460031b161c19169055878080613c2d565b81810151835560209485019460019093019290910190613c12565b613ca090601088016000526020600020601f850160051c81019160208610611f6c57601f0160051c0190616969565b88613903565b80518051906001600160401b038211610fbf57613cc38654616364565b601f8111613d89575b50602090601f8311600114613d19579282600194936020938695600092613d0e575b5050600019600383901b1c191690841b1787555b019401910190926138a0565b015190508d80613cee565b908660005260206000209160005b601f1985168110613d71575083602093600196938796938794601f19811610613d58575b505050811b018755613d02565b015160001960f88460031b161c191690558d8080613d4b565b91926020600181928685015181550194019201613d27565b613db590876000526020600020601f850160051c81019160208610611f6c57601f0160051c0190616969565b8a613ccc565b600e85016000526020600020908382015b8183018110613ddc57505061388a565b80613de960019254616364565b80613df6575b5001613dcc565b601f81118314613e0c5750600081555b8a613def565b600090828252613e2a601f60208420920160051c8201858301616969565b81835555613e06565b01519050868061384b565b9250600d85016000526020600020906000935b601f1984168510613e95576001945083601f19811610613e7c575b505050811b01600d830155613863565b015160001960f88460031b161c19169055868080613e6c565b81810151835560209485019460019093019290910190613e51565b613edf90600d87016000526020600020601f850160051c81019160208610611f6c57601f0160051c0190616969565b87613834565b01519050868061378a565b9250600a85016000526020600020906000935b601f1984168510613f47576001945083601f19811610613f2e575b505050811b01600a8301556137a2565b015160001960f88460031b161c19169055868080613f1e565b81810151835560209485019460019093019290910190613f03565b613f9190600a87016000526020600020601f850160051c81019160208610611f6c57601f0160051c0190616969565b87613773565b01519050868061370c565b9250600685016000526020600020906000935b601f1984168510613ff9576001945083601f19811610613fe0575b505050811b016006830155613724565b015160001960f88460031b161c19169055868080613fd0565b81810151835560209485019460019093019290910190613fb5565b61404390600687016000526020600020601f850160051c81019160208610611f6c57601f0160051c0190616969565b876136f5565b0151905086806136af565b9250600585016000526020600020906000935b601f19841685106140ab576001945083601f19811610614092575b505050811b0160058301556136c7565b015160001960f88460031b161c19169055868080614082565b81810151835560209485019460019093019290910190614067565b6140f590600587016000526020600020601f850160051c81019160208610611f6c57601f0160051c0190616969565b87613698565b015190508680613652565b9250600485016000526020600020906000935b601f198416851061415d576001945083601f19811610614144575b505050811b01600483015561366a565b015160001960f88460031b161c19169055868080614134565b81810151835560209485019460019093019290910190614119565b6141a790600487016000526020600020601f850160051c81019160208610611f6c57601f0160051c0190616969565b8761363b565b80518051906001600160401b038211610fbf576141ca8654616364565b601f8111614290575b50602090601f8311600114614220579282600194936020938695600092614215575b5050600019600383901b1c191690841b1787555b01940191019092613602565b015190508d806141f5565b908660005260206000209160005b601f1985168110614278575083602093600196938796938794601f1981161061425f575b505050811b018755614209565b015160001960f88460031b161c191690558d8080614252565b9192602060018192868501518155019401920161422e565b6142bc90876000526020600020601f850160051c81019160208610611f6c57601f0160051c0190616969565b8a6141d3565b600385016000526020600020908382015b81830181106142e35750506135ec565b806142f060019254616364565b806142fd575b50016142d3565b601f811183146143135750600081555b8a6142f6565b600090828252614331601f60208420920160051c8201858301616969565b8183555561430d565b0151905086806135ae565b9250600285016000526020600020906000935b601f198416851061439c576001945083601f19811610614383575b505050811b0160028301556135c6565b015160001960f88460031b161c19169055868080614373565b81810151835560209485019460019093019290910190614358565b6143e690600287016000526020600020601f850160051c81019160208610611f6c57601f0160051c0190616969565b87613597565b60405162461bcd60e51b815260206004820152601960248201527f4d65737361676520616c72656164792070726f636573736564000000000000006044820152606490fd5b60405162461bcd60e51b815260206004820152601460248201527313db9b1e481c9bdd5d195c8818d85b8818d85b1b60621b6044820152606490fd5b346101e95760a03660031901126101e9576001600160401b03602435116101e95760e0602435360360031901126101e95760405160e081018181106001600160401b03821117610fbf57604052602435600401356001600160401b0381116101e9576144e190600436916024350101615e7c565b81526024803501356001600160401b0381116101e95761450990600436916024350101615f20565b6020820152604460243501356001600160401b0381116101e95761453590600436916024350101615e7c565b6040820152606460243501356001600160401b0381116101e95761456190600436916024350101615e7c565b60608201526001600160401b0360846024350135116101e95761458f36602435608481013501600401615e7c565b608082015260243560a481013560a083015260c4013560c08201526001600160401b03604435116101e95760c0604435360360031901126101e9576040518060c08101106001600160401b0360c083011117610fbf5760c081016040526044356004013581526001600160401b0360246044350135116101e95761461e36604435602481013501600401615e7c565b6020820152600360448035013510156101e95760448035013560408201526064604435013560028110156101e957606082015260046084604435013510156101e9576044356084810135608083015260a4013560a08201526001600160401b03606435116101e9576060606435360360031901126101e9576040518060608101106001600160401b03606083011117610fbf5760608101604052606435600401356001600160401b0381116101e9576146df90600436916064350101615e7c565b81526001600160401b0360246064350135116101e95761470a36606435602481013501600401615e7c565b6020820152604460643501356001600160401b0381116101e95761473690600436916064350101615f20565b60408201526084356001600160401b0381116101e95761475a903690600401615f3b565b92614763616997565b600435600052600a60205260018060a01b036001604060002001541633148015615a3f575b61479190616a39565b60a0830151156159fa57805151156159be5760208101515115615979576060810151511561593d57608081015151156159005783516004356000908152600a60205260409020600f01546001600160a01b039182169116036158bb5783516001600160a01b0316330361587657805192602082015160805260408201516101605260608201519060808301519160c060a08501519401519180519060208101516040820151906003821015612313576060830151936002851015612313576080840151966004881015612313578a996149509961494398604060a06149389901519d519e01519e600435600052600a602052601760406000208060a05260ff60148201541660c05260158101546102005260018060a01b036016820154166101c052015460e0526148c86040518061018052615d9c565b60043561018051523360206101805101526040610180510152608051606061018051015261016051608061018051015260a061018051015260c061018051015260e06101805101526101006101805101526101206101805101526101406101805101526101606101805101616945565b610180805101616951565b6101a0610180510161695d565b6101c06101805101526101e061018051015261020061018051015261022061018051015260c05115156102406101805101526000610260610180510152610200516102806101805101526101c0516102a061018051015260e0516102c0610180510152600435600052600a60205260406000206040610180518051835560018060a01b036020820151166001600160601b0360a01b60018501541617600184015501518051906001600160401b038211610fbf578190614a136002850154616364565b601f8111615841575b50602090601f83116001146157cf576000926157c4575b50508160011b916000199060031b1c19161760028201555b6060610180510151805190600160401b8211610fbf57600383015482600385015580831061574c575b5060200190600383016000526020600020916000905b828210615637578460806101805101518051906001600160401b038211610fbf578190614aba6004850154616364565b601f8111615602575b50602090601f831160011461559057600092615585575b50508160011b916000199060031b1c19161760048201555b60a06101805101518051906001600160401b038211610fbf578190614b1a6005850154616364565b601f8111615550575b50602090601f83116001146154de576000926154d3575b50508160011b916000199060031b1c19161760058201555b60c06101805101518051906001600160401b038211610fbf578190614b7a6006850154616364565b601f811161549e575b50602090601f831160011461542c57600092615421575b50508160011b916000199060031b1c19161760068201555b6101406101805160e081015160078401556101008101516008840155610120810151600984015501518051906001600160401b038211610fbf578190614bfb600a850154616364565b601f81116153ec575b50602090601f831160011461537a5760009261536f575b50508160011b916000199060031b1c191617600a8201555b6101805161016081015190600382101561231357600b830154916101808201516002811015612313576101a08301516004811015612313576101e09460ff62ff000061ff009360101b1694169062ffffff1916179160081b161717600b8401556101c0810151600c84015501518051906001600160401b038211610fbf578190614cc0600d850154616364565b601f811161533a575b50602090601f83116001146152c8576000926152bd575b50508160011b916000199060031b1c191617600d8201555b610200610180510151805190600160401b8211610fbf57600e83015482600e850155808310615245575b5060200190600e83016000526020600020916000905b8282106151305784600f8101906102206101805101519160018060a01b038351166001600160601b0360a01b82541617905560208201519182516001600160401b038111610fbf57614d8d6010840154616364565b601f81116150fb575b506020601f821160011461508d5781929394600092615082575b50508160011b916000199060031b1c19161760108301555b60408101518051906001600160401b038211610fbf57614deb6011850154616364565b601f811161504d575b50602090601f8311600114614fda57608093929160009183614fcf575b50508160011b916000199060031b1c19161760118401555b6060810151601284015501518051906001600160401b038211610fbf578190614e556013850154616364565b601f8111614f9a575b50602090601f8311600114614f2857600092614f1d575b50508160011b916000199060031b1c19161760138201555b60176102c060148301614ebb6101805191611d156102408401511515829060ff801983541691151516179055565b61028081015160158501556016840160018060a01b036102a0830151166001600160601b0360a01b8254161790550151910155336004357f0ac4673e0c14f555f7a29dc1abe824e57feeb4dc61dffc46e24a31d970178d6a600080a360018055005b015190508380614e75565b9250601384016000526020600020906000935b601f1984168510614f7f576001945083601f19811610614f66575b505050811b016013820155614e8d565b015160001960f88460031b161c19169055838080614f56565b81810151835560209485019460019093019290910190614f3b565b614fc990601386016000526020600020601f850160051c81019160208610611f6c57601f0160051c0190616969565b84614e5e565b015190508580614e11565b906011850160005260206000209160005b601f1985168110615035575091839160019360809695601f1981161061501c575b505050811b016011840155614e29565b015160001960f88460031b161c1916905585808061500c565b91926020600181928685015181550194019201614feb565b61507c90601186016000526020600020601f850160051c81019160208610611f6c57601f0160051c0190616969565b84614df4565b015190508480614db0565b6010840160005260206000209060005b601f19841681106150e35750600193949583601f198116106150ca575b505050811b016010830155614dc8565b015160001960f88460031b161c191690558480806150ba565b9091602060018192858a01518155019301910161509d565b61512a90601085016000526020600020601f840160051c81019160208510611f6c57601f0160051c0190616969565b84614d96565b80518051906001600160401b038211610fbf5761514d8654616364565b601f8111615213575b50602090601f83116001146151a3579282600194936020938695600092615198575b5050600019600383901b1c191690841b1787555b01940191019092614d38565b015190508a80615178565b908660005260206000209160005b601f19851681106151fb575083602093600196938796938794601f198116106151e2575b505050811b01875561518c565b015160001960f88460031b161c191690558a80806151d5565b919260206001819286850151815501940192016151b1565b61523f90876000526020600020601f850160051c81019160208610611f6c57601f0160051c0190616969565b87615156565b600e84016000526020600020908382015b8183018110615266575050614d22565b8061527360019254616364565b80615280575b5001615256565b601f811183146152965750600081555b87615279565b6000908282526152b4601f60208420920160051c8201858301616969565b81835555615290565b015190508380614ce0565b9250600d84016000526020600020906000935b601f198416851061531f576001945083601f19811610615306575b505050811b01600d820155614cf8565b015160001960f88460031b161c191690558380806152f6565b818101518355602094850194600190930192909101906152db565b61536990600d86016000526020600020601f850160051c81019160208610611f6c57601f0160051c0190616969565b84614cc9565b015190508380614c1b565b9250600a84016000526020600020906000935b601f19841685106153d1576001945083601f198116106153b8575b505050811b01600a820155614c33565b015160001960f88460031b161c191690558380806153a8565b8181015183556020948501946001909301929091019061538d565b61541b90600a86016000526020600020601f850160051c81019160208610611f6c57601f0160051c0190616969565b84614c04565b015190508380614b9a565b9250600684016000526020600020906000935b601f1984168510615483576001945083601f1981161061546a575b505050811b016006820155614bb2565b015160001960f88460031b161c1916905583808061545a565b8181015183556020948501946001909301929091019061543f565b6154cd90600686016000526020600020601f850160051c81019160208610611f6c57601f0160051c0190616969565b84614b83565b015190508380614b3a565b9250600584016000526020600020906000935b601f1984168510615535576001945083601f1981161061551c575b505050811b016005820155614b52565b015160001960f88460031b161c1916905583808061550c565b818101518355602094850194600190930192909101906154f1565b61557f90600586016000526020600020601f850160051c81019160208610611f6c57601f0160051c0190616969565b84614b23565b015190508380614ada565b9250600484016000526020600020906000935b601f19841685106155e7576001945083601f198116106155ce575b505050811b016004820155614af2565b015160001960f88460031b161c191690558380806155be565b818101518355602094850194600190930192909101906155a3565b61563190600486016000526020600020601f850160051c81019160208610611f6c57601f0160051c0190616969565b84614ac3565b80518051906001600160401b038211610fbf576156548654616364565b601f811161571a575b50602090601f83116001146156aa57928260019493602093869560009261569f575b5050600019600383901b1c191690841b1787555b01940191019092614a8a565b015190508a8061567f565b908660005260206000209160005b601f1985168110615702575083602093600196938796938794601f198116106156e9575b505050811b018755615693565b015160001960f88460031b161c191690558a80806156dc565b919260206001819286850151815501940192016156b8565b615746908760005260206000206005601f8601811c820192602087106126f757601f01901c0190616969565b8761565d565b600384016000526020600020908382015b818301811061576d575050614a74565b8061577a60019254616364565b80615787575b500161575d565b601f8111831461579d5750600081555b87615780565b6000908282526157bb601f60208420920160051c8201858301616969565b81835555615797565b015190508380614a33565b9250600284016000526020600020906000935b601f1984168510615826576001945083601f1981161061580d575b505050811b016002820155614a4b565b015160001960f88460031b161c191690558380806157fd565b818101518355602094850194600190930192909101906157e2565b61587090600286016000526020600020601f850160051c81019160208610611f6c57601f0160051c0190616969565b84614a1c565b60405162461bcd60e51b815260206004820152601f60248201527f53656c6c65722077616c6c6574206d757374206d617463682073656e646572006044820152606490fd5b60405162461bcd60e51b815260206004820152601b60248201527f43616e6e6f74206368616e67652073656c6c65722077616c6c657400000000006044820152606490fd5b60405162461bcd60e51b81526020600482015260156024820152744d6f64656c2063616e6e6f7420626520656d70747960581b6044820152606490fd5b60405162461bcd60e51b81526020600482015260146024820152734d616b652063616e6e6f7420626520656d70747960601b6044820152606490fd5b60405162461bcd60e51b815260206004820152601e60248201527f4174206c65617374206f6e6520696d61676520697320726571756972656400006044820152606490fd5b60405162461bcd60e51b81526020600482015260146024820152734e616d652063616e6e6f7420626520656d70747960601b6044820152606490fd5b60405162461bcd60e51b815260206004820152601c60248201527f5072696365206d7573742062652067726561746572207468616e2030000000006044820152606490fd5b506000546001600160a01b03163314614788565b346101e95760203660031901126101e957600435600052600e6020526020604060002054604051908152f35b346101e95760403660031901126101e957615a98615d70565b602435906001600160a01b038080615aaf85616341565b16921691808314615baa57803314908115615b85575b5015615b1a57600083815260066020526040902080546001600160a01b03191683179055615af283616341565b167f8c5be1e5ebec7d5bd14f71427d1e84f3dd0314c0f7b2291e5b200ac8c7c3b925600080a4005b60405162461bcd60e51b815260206004820152603d60248201527f4552433732313a20617070726f76652063616c6c6572206973206e6f7420746f60448201527f6b656e206f776e6572206f7220617070726f76656420666f7220616c6c0000006064820152608490fd5b9050600052600760205260406000203360005260205260ff6040600020541684615ac5565b60405162461bcd60e51b815260206004820152602160248201527f4552433732313a20617070726f76616c20746f2063757272656e74206f776e656044820152603960f91b6064820152608490fd5b346101e95760203660031901126101e95760206129ec600435616434565b346101e95760003660031901126101e9576040516000600254615c3981616364565b808452906001908181169081156108965750600114615c62576103d08461082781860382615e09565b6002600090815292507f405787fa12a823e0f2b7631cc41b3ba8828b3321ca811111fa75cd3aa3bb5ace5b828410615ca557505050810160200161082782610817565b80546020858701810191909152909301928101615c8d565b346101e95760203660031901126101e9576004359063ffffffff60e01b82168092036101e9576020916380ac58cd60e01b8114908115615d17575b8115615d06575b5015158152f35b6301ffc9a760e01b14905083615cff565b635b5e139f60e01b81149150615cf8565b60005b838110615d3b5750506000910152565b8181015183820152602001615d2b565b90602091615d6481518092818552858086019101615d28565b601f01601f1916010190565b600435906001600160a01b03821682036101e957565b602435906001600160a01b03821682036101e957565b6102e081019081106001600160401b03821117610fbf57604052565b60a081019081106001600160401b03821117610fbf57604052565b608081019081106001600160401b03821117610fbf57604052565b602081019081106001600160401b03821117610fbf57604052565b90601f801991011681019081106001600160401b03821117610fbf57604052565b6001600160401b038111610fbf57601f01601f191660200190565b929192615e5182615e2a565b91615e5f6040519384615e09565b8294818452818301116101e9578281602093846000960137010152565b9080601f830112156101e957816020615e9793359101615e45565b90565b6001600160401b038111610fbf5760051b60200190565b92919092615ebe84615e9a565b91615ecc6040519384615e09565b829480845260208094019060051b8301928284116101e95780915b848310615ef657505050505050565b82356001600160401b0381116101e9578691615f158684938601615e7c565b815201920191615ee7565b9080601f830112156101e957816020615e9793359101615eb1565b919060a0838203126101e95760405190615f5482615db8565b909283919080356001600160a01b03811681036101e95783526001600160401b039160208201358381116101e95781615f8e918401615e7c565b602085015260408201358381116101e95781615fab918401615e7c565b60408501526060820135606085015260808201359283116101e957608092615fd39201615e7c565b910152565b60609060031901126101e9576001600160a01b039060043582811681036101e9579160243590811681036101e9579060443590565b90815180825260208092019182818360051b85019501936000915b8483106160385750505050505090565b909192939495848061605283856001950387528a51615d4b565b9801930193019194939290616028565b908151815260018060a01b039182602082015116602083015261611f6160eb6160d96160c76160b56160a360408701516102e08060408b0152890190615d4b565b606087015188820360608a015261600d565b60808601518782036080890152615d4b565b60a085015186820360a0880152615d4b565b60c084015185820360c0870152615d4b565b60e083015160e085015261010080840151908501526101208084015190850152610140808401519085830390860152615d4b565b610160808301519060038210156123135784015261018080830151906002821015612313578401526101a080830151906004821015612313576161fb9261619a92616186928701526101c080860151908701526101e0808601519087830390880152615d4b565b61020080850151908683039087015261600d565b6102209081840151918582039086015285825116815260806161e06161ce602085015160a0602086015260a0850190615d4b565b60408501518482036040860152615d4b565b92606081015160608401520151906080818403910152615d4b565b92610240808301511515908401526102608083015115159084015261028080830151908401526102a0908183015116908301526102c08091015191015290565b602080820190808352835180925260408301928160408460051b8301019501936000915b84831061626f5750505050505090565b909192939495848061628d600193603f198682030187528a51616062565b980193019301919493929061625f565b6000546001600160a01b031633036162b157565b606460405162461bcd60e51b815260206004820152602060248201527f4f776e61626c653a2063616c6c6572206973206e6f7420746865206f776e65726044820152fd5b156162fc57565b60405162461bcd60e51b815260206004820152601860248201527f4552433732313a20696e76616c696420746f6b656e20494400000000000000006044820152606490fd5b6000908152600460205260409020546001600160a01b0316615e978115156162f5565b90600182811c92168015616394575b602083101461637e57565b634e487b7160e01b600052602260045260246000fd5b91607f1691616373565b90600092918054916163af83616364565b91828252600193848116908160001461641157506001146163d1575b50505050565b90919394506000526020928360002092846000945b8386106163fd5750505050010190388080806163cb565b8054858701830152940193859082016163e6565b9294505050602093945060ff191683830152151560051b010190388080806163cb565b600081815260046020526040902054616457906001600160a01b031615156162f5565b6000908152600660205260409020546001600160a01b031690565b1561647957565b60405162461bcd60e51b815260206004820152602d60248201527f4552433732313a2063616c6c6572206973206e6f7420746f6b656e206f776e6560448201526c1c881bdc88185c1c1c9bdd9959609a1b6064820152608490fd5b60809060208152603260208201527f4552433732313a207472616e7366657220746f206e6f6e20455243373231526560408201527131b2b4bb32b91034b6b83632b6b2b73a32b960711b60608201520190565b1561652e57565b60405162461bcd60e51b815280616547600482016164d4565b0390fd5b906001600160a01b03808061655f84616341565b16931691838314938415616592575b50831561657c575b50505090565b61658891929350616434565b1614388080616576565b909350600052600760205260406000208260005260205260ff60406000205416923861656e565b156165c057565b60405162461bcd60e51b815260206004820152602560248201527f4552433732313a207472616e736665722066726f6d20696e636f72726563742060448201526437bbb732b960d91b6064820152608490fd5b9061663b9161662184616341565b6001600160a01b03939184169284929091831684146165b9565b169182156166d357816166589161665186616341565b16146165b9565b7fddf252ad1be2c89b69c2b068fc378daa952ba7f163c4a11628f55a4df523b3ef60008481526006602052604081206001600160601b0360a01b9081815416905583825260056020526040822060001981540190558482526040822060018154019055858252600460205284604083209182541617905580a4565b60405162461bcd60e51b8152602060048201526024808201527f4552433732313a207472616e7366657220746f20746865207a65726f206164646044820152637265737360e01b6064820152608490fd5b3d1561674f573d9061673582615e2a565b916167436040519384615e09565b82523d6000602084013e565b606090565b9091600091803b156168465761679f6020918493604051948580948193630a85bd0160e11b9a8b84523360048501528460248501526044840152608060648401526084830190615d4b565b03926001600160a01b03165af1908290826167f7575b50506167e9576167c3616724565b805190816167e45760405162461bcd60e51b815280616547600482016164d4565b602001fd5b6001600160e01b0319161490565b909192506020813d821161683e575b8161681360209383615e09565b8101031261683a5751906001600160e01b03198216820361683757509038806167b5565b80fd5b5080fd5b3d9150616806565b50505050600190565b91926000929190813b156168c0576020916168a59185604051958680958194630a85bd0160e11b9b8c845233600485015260018060a01b0380951660248501526044840152608060648401526084830190615d4b565b0393165af1908290826167f75750506167e9576167c3616724565b5050505050600190565b356001600160a01b03811681036101e95790565b903590601e19813603018212156101e957018035906001600160401b0382116101e957602001918160051b360383136101e957565b903590601e19813603018212156101e957018035906001600160401b0382116101e9576020019181360383136101e957565b60038210156123135752565b60028210156123135752565b60048210156123135752565b818110616974575050565b60008155600101616969565b906126de9182810292818404149015171561075f57565b6002600154146169a8576002600155565b60405162461bcd60e51b815260206004820152601f60248201527f5265656e7472616e637947756172643a207265656e7472616e742063616c6c006044820152606490fd5b156169f457565b60405162461bcd60e51b815260206004820152601c60248201527f4552433732313a20746f6b656e20616c7265616479206d696e746564000000006044820152606490fd5b15616a4057565b60405162461bcd60e51b815260206004820152600c60248201526b155b985d5d1a1bdc9a5e995960a21b6044820152606490fd5b60405190616a8182615d9c565b816102c0600091828152826020820152606080604083015280808301528060808301528060a08301528060c08301528360e08301528361010083015283610120830152806101408301528361016083015283610180830152836101a0830152836101c0830152806101e08301528061020083015260405190616b0282615db8565b84825280602083015280604083015284818301526080820152610220820152826102408201528261026082015282610280820152826102a08201520152565b15616b4857565b60405162461bcd60e51b815260206004820152601260248201527110d85c88191bd95cc81b9bdd08195e1a5cdd60721b6044820152606490fd5b15616b8957565b60405162461bcd60e51b815260206004820152601460248201527310d85c881a185cc81899595b8819195b195d195960621b6044820152606490fd5b908154616bd181615e9a565b92604093616be185519182615e09565b828152809460208092019260005281600020906000935b858510616c0757505050505050565b60018481928451616c2381616c1c818a61639e565b0382615e09565b815201930194019391616bf8565b906040916102c06017845192616c4684615d9c565b8054845260018101546001600160a01b039081166020860152865194968795616c7681616c1c816002880161639e565b81870152616c8660038401616bc5565b60608701528051616c9e81616c1c816004880161639e565b60808701528051616cb681616c1c816005880161639e565b60a08701528051616cce81616c1c816006880161639e565b60c0870152600783015460e0870152600883015461010087015260098301546101208701528051616d0681616c1c81600a880161639e565b610140870152616d4760ff600b850154616d268282166101608b01616945565b616d39828260081c166101808b01616951565b60101c166101a0880161695d565b600c8301546101c08701528051616d6581616c1c81600d880161639e565b6101e0870152616d77600e8401616bc5565b610200870152805190616d8982615db8565b82600f8501541682528051616da581616c1c816010890161639e565b60208301528051616dbd81616c1c816011890161639e565b818301526012840154606083015251616ddd81616c1c816013880161639e565b608082015261022086015260ff6014830154818116151561024088015260081c16151561026086015260158201546102808601526016820154166102a08501520154910152565b600019811461075f5760010190565b90616e3d82615e9a565b616e4a6040519182615e09565b8281528092616e5b601f1991615e9a565b019060005b828110616e6c57505050565b602090616e77616a74565b82828501015201616e60565b8051821015616e975760209160051b010190565b634e487b7160e01b600052603260045260246000fd5b8054821015616e975760005260206000209060021b0190600090565b15616ed057565b60405162461bcd60e51b8152602060048201526016602482015275109c9a5919d9481d1c985b9cd9995c8819985a5b195960521b6044820152606490fd5b60018060a01b03169060405160408101908082106001600160401b03831117610fbf57616f7f916040526020938482527f5361666545524332303a206c6f772d6c6576656c2063616c6c206661696c6564858301526000808587829751910182855af1616f79616724565b91617015565b805191821591848315616ff1575b505050905015616f9a5750565b6084906040519062461bcd60e51b82526004820152602a60248201527f5361666545524332303a204552433230206f7065726174696f6e20646964206e6044820152691bdd081cdd58d8d9595960b21b6064820152fd5b91938180945001031261683a57820151908115158203616837575080388084616f8d565b919290156170775750815115617029575090565b3b156170325790565b60405162461bcd60e51b815260206004820152601d60248201527f416464726573733a2063616c6c20746f206e6f6e2d636f6e74726163740000006044820152606490fd5b82519091501561708a5750805190602001fd5b60405162461bcd60e51b815260206004820152908190616547906024830190615d4b565b6000929181546170bd81616364565b9260019180831690811561711557506001146170d95750505050565b90919293945060005260209081600020906000915b85831061710457505050500190388080806163cb565b8054858401529183019181016170ee565b60ff19168452505050811515909102019150388080806163cb565b81601f820112156101e957805161714681615e2a565b926171546040519485615e09565b818452602082840101116101e957615e979160208085019101615d2856fea2646970667358221220c0c18a8ad18ba1a4600ff53f8ed5b6ac963d794cb2a160872626b41f5e42de7f64736f6c63430008130033",
  "linkReferences": {},
  "deployedLinkReferences": {}
}