{
  "_format": "hh-sol-artifact-1",
  "contractName": "HemDealer",
  "sourceName": "contracts/HemDealer.sol",
  "abi": [
    {
      "inputs": [],
      "stateMutability": "nonpayable",
      "type": "constructor"
    },
    {
      "anonymous": false,
      "inputs": [
        {
          "indexed": true,
          "internalType": "address",
          "name": "owner",
          "type": "address"
        },
        {
          "indexed": true,
          "internalType": "address",
          "name": "approved",
          "type": "address"
        },
        {
          "indexed": true,
          "internalType": "uint256",
          "name": "tokenId",
          "type": "uint256"
        }
      ],
      "name": "Approval",
      "type": "event"
    },
    {
      "anonymous": false,
      "inputs": [
        {
          "indexed": true,
          "internalType": "address",
          "name": "owner",
          "type": "address"
        },
        {
          "indexed": true,
          "internalType": "address",
          "name": "operator",
          "type": "address"
        },
        {
          "indexed": false,
          "internalType": "bool",
          "name": "approved",
          "type": "bool"
        }
      ],
      "name": "ApprovalForAll",
      "type": "event"
    },
    {
      "anonymous": false,
      "inputs": [
        {
          "indexed": true,
          "internalType": "uint256",
          "name": "carId",
          "type": "uint256"
        },
        {
          "indexed": true,
          "internalType": "address",
          "name": "winner",
          "type": "address"
        },
        {
          "indexed": false,
          "internalType": "uint256",
          "name": "amount",
          "type": "uint256"
        }
      ],
      "name": "AuctionEnded",
      "type": "event"
    },
    {
      "anonymous": false,
      "inputs": [
        {
          "indexed": true,
          "internalType": "uint256",
          "name": "carId",
          "type": "uint256"
        },
        {
          "indexed": false,
          "internalType": "uint256",
          "name": "startingPrice",
          "type": "uint256"
        },
        {
          "indexed": false,
          "internalType": "uint256",
          "name": "endTime",
          "type": "uint256"
        }
      ],
      "name": "AuctionStarted",
      "type": "event"
    },
    {
      "anonymous": false,
      "inputs": [
        {
          "indexed": true,
          "internalType": "uint256",
          "name": "carId",
          "type": "uint256"
        },
        {
          "indexed": true,
          "internalType": "address",
          "name": "bidder",
          "type": "address"
        },
        {
          "indexed": false,
          "internalType": "uint256",
          "name": "amount",
          "type": "uint256"
        }
      ],
      "name": "BidPlaced",
      "type": "event"
    },
    {
      "anonymous": false,
      "inputs": [
        {
          "indexed": true,
          "internalType": "uint256",
          "name": "carId",
          "type": "uint256"
        }
      ],
      "name": "CarDeleted",
      "type": "event"
    },
    {
      "anonymous": false,
      "inputs": [
        {
          "indexed": true,
          "internalType": "uint256",
          "name": "carId",
          "type": "uint256"
        },
        {
          "indexed": true,
          "internalType": "address",
          "name": "seller",
          "type": "address"
        },
        {
          "indexed": false,
          "internalType": "uint256",
          "name": "price",
          "type": "uint256"
        },
        {
          "indexed": false,
          "internalType": "string",
          "name": "make",
          "type": "string"
        },
        {
          "indexed": false,
          "internalType": "string",
          "name": "model",
          "type": "string"
        },
        {
          "indexed": false,
          "internalType": "uint256",
          "name": "year",
          "type": "uint256"
        }
      ],
      "name": "CarListed",
      "type": "event"
    },
    {
      "anonymous": false,
      "inputs": [
        {
          "indexed": true,
          "internalType": "uint256",
          "name": "carId",
          "type": "uint256"
        },
        {
          "indexed": true,
          "internalType": "address",
          "name": "seller",
          "type": "address"
        },
        {
          "indexed": true,
          "internalType": "address",
          "name": "buyer",
          "type": "address"
        },
        {
          "indexed": false,
          "internalType": "uint256",
          "name": "price",
          "type": "uint256"
        }
      ],
      "name": "CarSold",
      "type": "event"
    },
    {
      "anonymous": false,
      "inputs": [
        {
          "indexed": true,
          "internalType": "uint256",
          "name": "carId",
          "type": "uint256"
        },
        {
          "indexed": true,
          "internalType": "address",
          "name": "from",
          "type": "address"
        },
        {
          "indexed": true,
          "internalType": "address",
          "name": "to",
          "type": "address"
        }
      ],
      "name": "CarTransferred",
      "type": "event"
    },
    {
      "anonymous": false,
      "inputs": [
        {
          "indexed": true,
          "internalType": "uint256",
          "name": "carId",
          "type": "uint256"
        },
        {
          "indexed": true,
          "internalType": "address",
          "name": "owner",
          "type": "address"
        },
        {
          "indexed": false,
          "internalType": "uint256",
          "name": "newPrice",
          "type": "uint256"
        },
        {
          "indexed": false,
          "internalType": "string",
          "name": "make",
          "type": "string"
        },
        {
          "indexed": false,
          "internalType": "string",
          "name": "model",
          "type": "string"
        }
      ],
      "name": "CarUpdated",
      "type": "event"
    },
    {
      "anonymous": false,
      "inputs": [
        {
          "indexed": true,
          "internalType": "address",
          "name": "previousOwner",
          "type": "address"
        },
        {
          "indexed": true,
          "internalType": "address",
          "name": "newOwner",
          "type": "address"
        }
      ],
      "name": "OwnershipTransferred",
      "type": "event"
    },
    {
      "anonymous": false,
      "inputs": [
        {
          "indexed": true,
          "internalType": "uint256",
          "name": "carId",
          "type": "uint256"
        },
        {
          "indexed": true,
          "internalType": "uint256",
          "name": "reviewId",
          "type": "uint256"
        },
        {
          "indexed": true,
          "internalType": "address",
          "name": "reviewer",
          "type": "address"
        }
      ],
      "name": "ReviewAdded",
      "type": "event"
    },
    {
      "anonymous": false,
      "inputs": [
        {
          "indexed": true,
          "internalType": "uint256",
          "name": "carId",
          "type": "uint256"
        },
        {
          "indexed": true,
          "internalType": "uint256",
          "name": "reviewId",
          "type": "uint256"
        }
      ],
      "name": "ReviewDeleted",
      "type": "event"
    },
    {
      "anonymous": false,
      "inputs": [
        {
          "indexed": true,
          "internalType": "uint256",
          "name": "carId",
          "type": "uint256"
        },
        {
          "indexed": true,
          "internalType": "uint256",
          "name": "reviewId",
          "type": "uint256"
        },
        {
          "indexed": false,
          "internalType": "string",
          "name": "comment",
          "type": "string"
        }
      ],
      "name": "ReviewUpdated",
      "type": "event"
    },
    {
      "anonymous": false,
      "inputs": [
        {
          "indexed": true,
          "internalType": "address",
          "name": "from",
          "type": "address"
        },
        {
          "indexed": true,
          "internalType": "address",
          "name": "to",
          "type": "address"
        },
        {
          "indexed": true,
          "internalType": "uint256",
          "name": "tokenId",
          "type": "uint256"
        }
      ],
      "name": "Transfer",
      "type": "event"
    },
    {
      "inputs": [
        {
          "internalType": "address",
          "name": "to",
          "type": "address"
        },
        {
          "internalType": "uint256",
          "name": "tokenId",
          "type": "uint256"
        }
      ],
      "name": "approve",
      "outputs": [],
      "stateMutability": "nonpayable",
      "type": "function"
    },
    {
      "inputs": [
        {
          "internalType": "address",
          "name": "owner",
          "type": "address"
        }
      ],
      "name": "balanceOf",
      "outputs": [
        {
          "internalType": "uint256",
          "name": "",
          "type": "uint256"
        }
      ],
      "stateMutability": "view",
      "type": "function"
    },
    {
      "inputs": [
        {
          "internalType": "uint256",
          "name": "carId",
          "type": "uint256"
        }
      ],
      "name": "buyCar",
      "outputs": [],
      "stateMutability": "payable",
      "type": "function"
    },
    {
      "inputs": [
        {
          "internalType": "uint256",
          "name": "carId",
          "type": "uint256"
        }
      ],
      "name": "cancelAuction",
      "outputs": [],
      "stateMutability": "nonpayable",
      "type": "function"
    },
    {
      "inputs": [
        {
          "internalType": "uint256",
          "name": "",
          "type": "uint256"
        }
      ],
      "name": "carAuctions",
      "outputs": [
        {
          "internalType": "uint256",
          "name": "carId",
          "type": "uint256"
        },
        {
          "internalType": "uint256",
          "name": "startingPrice",
          "type": "uint256"
        },
        {
          "internalType": "uint256",
          "name": "currentHighestBid",
          "type": "uint256"
        },
        {
          "internalType": "address",
          "name": "highestBidder",
          "type": "address"
        },
        {
          "internalType": "uint256",
          "name": "endTime",
          "type": "uint256"
        },
        {
          "internalType": "bool",
          "name": "active",
          "type": "bool"
        }
      ],
      "stateMutability": "view",
      "type": "function"
    },
    {
      "inputs": [
        {
          "internalType": "uint256",
          "name": "newCarId",
          "type": "uint256"
        },
        {
          "internalType": "string",
          "name": "comment",
          "type": "string"
        }
      ],
      "name": "createReview",
      "outputs": [],
      "stateMutability": "nonpayable",
      "type": "function"
    },
    {
      "inputs": [
        {
          "internalType": "uint256",
          "name": "newCarId",
          "type": "uint256"
        }
      ],
      "name": "deleteCar",
      "outputs": [],
      "stateMutability": "nonpayable",
      "type": "function"
    },
    {
      "inputs": [
        {
          "internalType": "uint256",
          "name": "newCarId",
          "type": "uint256"
        },
        {
          "internalType": "uint256",
          "name": "reviewId",
          "type": "uint256"
        }
      ],
      "name": "deleteReview",
      "outputs": [],
      "stateMutability": "nonpayable",
      "type": "function"
    },
    {
      "inputs": [
        {
          "internalType": "uint256",
          "name": "carId",
          "type": "uint256"
        }
      ],
      "name": "endAuction",
      "outputs": [],
      "stateMutability": "nonpayable",
      "type": "function"
    },
    {
      "inputs": [],
      "name": "getAllCars",
      "outputs": [
        {
          "components": [
            {
              "internalType": "uint256",
              "name": "id",
              "type": "uint256"
            },
            {
              "internalType": "address",
              "name": "owner",
              "type": "address"
            },
            {
              "internalType": "string",
              "name": "name",
              "type": "string"
            },
            {
              "internalType": "string[]",
              "name": "images",
              "type": "string[]"
            },
            {
              "internalType": "string",
              "name": "description",
              "type": "string"
            },
            {
              "internalType": "string",
              "name": "make",
              "type": "string"
            },
            {
              "internalType": "string",
              "name": "model",
              "type": "string"
            },
            {
              "internalType": "uint256",
              "name": "year",
              "type": "uint256"
            },
            {
              "internalType": "uint256",
              "name": "vin",
              "type": "uint256"
            },
            {
              "internalType": "uint256",
              "name": "mileage",
              "type": "uint256"
            },
            {
              "internalType": "string",
              "name": "color",
              "type": "string"
            },
            {
              "internalType": "enum HemDealer.CarCondition",
              "name": "condition",
              "type": "uint8"
            },
            {
              "internalType": "enum HemDealer.CarTransmission",
              "name": "transmission",
              "type": "uint8"
            },
            {
              "internalType": "enum HemDealer.FuelType",
              "name": "fuelType",
              "type": "uint8"
            },
            {
              "internalType": "uint256",
              "name": "price",
              "type": "uint256"
            },
            {
              "internalType": "string",
              "name": "location",
              "type": "string"
            },
            {
              "internalType": "string[]",
              "name": "features",
              "type": "string[]"
            },
            {
              "components": [
                {
                  "internalType": "uint256",
                  "name": "reviewId",
                  "type": "uint256"
                },
                {
                  "internalType": "address",
                  "name": "reviewer",
                  "type": "address"
                },
                {
                  "internalType": "string",
                  "name": "comment",
                  "type": "string"
                },
                {
                  "internalType": "uint256",
                  "name": "timestamp",
                  "type": "uint256"
                },
                {
                  "internalType": "bool",
                  "name": "deleted",
                  "type": "bool"
                }
              ],
              "internalType": "struct HemDealer.ReviewStruct[]",
              "name": "reviews",
              "type": "tuple[]"
            },
            {
              "components": [
                {
                  "internalType": "address",
                  "name": "wallet",
                  "type": "address"
                },
                {
                  "internalType": "string",
                  "name": "sellerName",
                  "type": "string"
                },
                {
                  "internalType": "string",
                  "name": "email",
                  "type": "string"
                },
                {
                  "internalType": "uint256",
                  "name": "phoneNumber",
                  "type": "uint256"
                },
                {
                  "internalType": "string",
                  "name": "profileImage",
                  "type": "string"
                }
              ],
              "internalType": "struct HemDealer.SellerDetails",
              "name": "seller",
              "type": "tuple"
            },
            {
              "internalType": "bool",
              "name": "sold",
              "type": "bool"
            },
            {
              "internalType": "bool",
              "name": "deleted",
              "type": "bool"
            },
            {
              "internalType": "enum HemDealer.SaleType",
              "name": "saleType",
              "type": "uint8"
            }
          ],
          "internalType": "struct HemDealer.CarStruct[]",
          "name": "",
          "type": "tuple[]"
        }
      ],
      "stateMutability": "view",
      "type": "function"
    },
    {
      "inputs": [],
      "name": "getAllSales",
      "outputs": [
        {
          "components": [
            {
              "internalType": "uint256",
              "name": "id",
              "type": "uint256"
            },
            {
              "internalType": "uint256",
              "name": "newCarId",
              "type": "uint256"
            },
            {
              "internalType": "uint256",
              "name": "price",
              "type": "uint256"
            },
            {
              "internalType": "address",
              "name": "owner",
              "type": "address"
            }
          ],
          "internalType": "struct HemDealer.SalesStruct[]",
          "name": "",
          "type": "tuple[]"
        }
      ],
      "stateMutability": "view",
      "type": "function"
    },
    {
      "inputs": [
        {
          "internalType": "uint256",
          "name": "tokenId",
          "type": "uint256"
        }
      ],
      "name": "getApproved",
      "outputs": [
        {
          "internalType": "address",
          "name": "",
          "type": "address"
        }
      ],
      "stateMutability": "view",
      "type": "function"
    },
    {
      "inputs": [
        {
          "internalType": "uint256",
          "name": "carId",
          "type": "uint256"
        }
      ],
      "name": "getAuctionDetails",
      "outputs": [
        {
          "internalType": "uint256",
          "name": "startingPrice",
          "type": "uint256"
        },
        {
          "internalType": "uint256",
          "name": "currentBid",
          "type": "uint256"
        },
        {
          "internalType": "address",
          "name": "highestBidder",
          "type": "address"
        },
        {
          "internalType": "uint256",
          "name": "endTime",
          "type": "uint256"
        },
        {
          "internalType": "bool",
          "name": "active",
          "type": "bool"
        }
      ],
      "stateMutability": "view",
      "type": "function"
    },
    {
      "inputs": [
        {
          "internalType": "uint256",
          "name": "newCarId",
          "type": "uint256"
        }
      ],
      "name": "getCar",
      "outputs": [
        {
          "components": [
            {
              "internalType": "uint256",
              "name": "id",
              "type": "uint256"
            },
            {
              "internalType": "address",
              "name": "owner",
              "type": "address"
            },
            {
              "internalType": "string",
              "name": "name",
              "type": "string"
            },
            {
              "internalType": "string[]",
              "name": "images",
              "type": "string[]"
            },
            {
              "internalType": "string",
              "name": "description",
              "type": "string"
            },
            {
              "internalType": "string",
              "name": "make",
              "type": "string"
            },
            {
              "internalType": "string",
              "name": "model",
              "type": "string"
            },
            {
              "internalType": "uint256",
              "name": "year",
              "type": "uint256"
            },
            {
              "internalType": "uint256",
              "name": "vin",
              "type": "uint256"
            },
            {
              "internalType": "uint256",
              "name": "mileage",
              "type": "uint256"
            },
            {
              "internalType": "string",
              "name": "color",
              "type": "string"
            },
            {
              "internalType": "enum HemDealer.CarCondition",
              "name": "condition",
              "type": "uint8"
            },
            {
              "internalType": "enum HemDealer.CarTransmission",
              "name": "transmission",
              "type": "uint8"
            },
            {
              "internalType": "enum HemDealer.FuelType",
              "name": "fuelType",
              "type": "uint8"
            },
            {
              "internalType": "uint256",
              "name": "price",
              "type": "uint256"
            },
            {
              "internalType": "string",
              "name": "location",
              "type": "string"
            },
            {
              "internalType": "string[]",
              "name": "features",
              "type": "string[]"
            },
            {
              "components": [
                {
                  "internalType": "uint256",
                  "name": "reviewId",
                  "type": "uint256"
                },
                {
                  "internalType": "address",
                  "name": "reviewer",
                  "type": "address"
                },
                {
                  "internalType": "string",
                  "name": "comment",
                  "type": "string"
                },
                {
                  "internalType": "uint256",
                  "name": "timestamp",
                  "type": "uint256"
                },
                {
                  "internalType": "bool",
                  "name": "deleted",
                  "type": "bool"
                }
              ],
              "internalType": "struct HemDealer.ReviewStruct[]",
              "name": "reviews",
              "type": "tuple[]"
            },
            {
              "components": [
                {
                  "internalType": "address",
                  "name": "wallet",
                  "type": "address"
                },
                {
                  "internalType": "string",
                  "name": "sellerName",
                  "type": "string"
                },
                {
                  "internalType": "string",
                  "name": "email",
                  "type": "string"
                },
                {
                  "internalType": "uint256",
                  "name": "phoneNumber",
                  "type": "uint256"
                },
                {
                  "internalType": "string",
                  "name": "profileImage",
                  "type": "string"
                }
              ],
              "internalType": "struct HemDealer.SellerDetails",
              "name": "seller",
              "type": "tuple"
            },
            {
              "internalType": "bool",
              "name": "sold",
              "type": "bool"
            },
            {
              "internalType": "bool",
              "name": "deleted",
              "type": "bool"
            },
            {
              "internalType": "enum HemDealer.SaleType",
              "name": "saleType",
              "type": "uint8"
            }
          ],
          "internalType": "struct HemDealer.CarStruct",
          "name": "",
          "type": "tuple"
        }
      ],
      "stateMutability": "view",
      "type": "function"
    },
    {
      "inputs": [],
      "name": "getMyCars",
      "outputs": [
        {
          "components": [
            {
              "internalType": "uint256",
              "name": "id",
              "type": "uint256"
            },
            {
              "internalType": "address",
              "name": "owner",
              "type": "address"
            },
            {
              "internalType": "string",
              "name": "name",
              "type": "string"
            },
            {
              "internalType": "string[]",
              "name": "images",
              "type": "string[]"
            },
            {
              "internalType": "string",
              "name": "description",
              "type": "string"
            },
            {
              "internalType": "string",
              "name": "make",
              "type": "string"
            },
            {
              "internalType": "string",
              "name": "model",
              "type": "string"
            },
            {
              "internalType": "uint256",
              "name": "year",
              "type": "uint256"
            },
            {
              "internalType": "uint256",
              "name": "vin",
              "type": "uint256"
            },
            {
              "internalType": "uint256",
              "name": "mileage",
              "type": "uint256"
            },
            {
              "internalType": "string",
              "name": "color",
              "type": "string"
            },
            {
              "internalType": "enum HemDealer.CarCondition",
              "name": "condition",
              "type": "uint8"
            },
            {
              "internalType": "enum HemDealer.CarTransmission",
              "name": "transmission",
              "type": "uint8"
            },
            {
              "internalType": "enum HemDealer.FuelType",
              "name": "fuelType",
              "type": "uint8"
            },
            {
              "internalType": "uint256",
              "name": "price",
              "type": "uint256"
            },
            {
              "internalType": "string",
              "name": "location",
              "type": "string"
            },
            {
              "internalType": "string[]",
              "name": "features",
              "type": "string[]"
            },
            {
              "components": [
                {
                  "internalType": "uint256",
                  "name": "reviewId",
                  "type": "uint256"
                },
                {
                  "internalType": "address",
                  "name": "reviewer",
                  "type": "address"
                },
                {
                  "internalType": "string",
                  "name": "comment",
                  "type": "string"
                },
                {
                  "internalType": "uint256",
                  "name": "timestamp",
                  "type": "uint256"
                },
                {
                  "internalType": "bool",
                  "name": "deleted",
                  "type": "bool"
                }
              ],
              "internalType": "struct HemDealer.ReviewStruct[]",
              "name": "reviews",
              "type": "tuple[]"
            },
            {
              "components": [
                {
                  "internalType": "address",
                  "name": "wallet",
                  "type": "address"
                },
                {
                  "internalType": "string",
                  "name": "sellerName",
                  "type": "string"
                },
                {
                  "internalType": "string",
                  "name": "email",
                  "type": "string"
                },
                {
                  "internalType": "uint256",
                  "name": "phoneNumber",
                  "type": "uint256"
                },
                {
                  "internalType": "string",
                  "name": "profileImage",
                  "type": "string"
                }
              ],
              "internalType": "struct HemDealer.SellerDetails",
              "name": "seller",
              "type": "tuple"
            },
            {
              "internalType": "bool",
              "name": "sold",
              "type": "bool"
            },
            {
              "internalType": "bool",
              "name": "deleted",
              "type": "bool"
            },
            {
              "internalType": "enum HemDealer.SaleType",
              "name": "saleType",
              "type": "uint8"
            }
          ],
          "internalType": "struct HemDealer.CarStruct[]",
          "name": "",
          "type": "tuple[]"
        }
      ],
      "stateMutability": "view",
      "type": "function"
    },
    {
      "inputs": [
        {
          "internalType": "uint256",
          "name": "newCarId",
          "type": "uint256"
        }
      ],
      "name": "getReviews",
      "outputs": [
        {
          "components": [
            {
              "internalType": "uint256",
              "name": "reviewId",
              "type": "uint256"
            },
            {
              "internalType": "address",
              "name": "reviewer",
              "type": "address"
            },
            {
              "internalType": "string",
              "name": "comment",
              "type": "string"
            },
            {
              "internalType": "uint256",
              "name": "timestamp",
              "type": "uint256"
            },
            {
              "internalType": "bool",
              "name": "deleted",
              "type": "bool"
            }
          ],
          "internalType": "struct HemDealer.ReviewStruct[]",
          "name": "",
          "type": "tuple[]"
        }
      ],
      "stateMutability": "view",
      "type": "function"
    },
    {
      "inputs": [
        {
          "internalType": "address",
          "name": "owner",
          "type": "address"
        },
        {
          "internalType": "address",
          "name": "operator",
          "type": "address"
        }
      ],
      "name": "isApprovedForAll",
      "outputs": [
        {
          "internalType": "bool",
          "name": "",
          "type": "bool"
        }
      ],
      "stateMutability": "view",
      "type": "function"
    },
    {
      "inputs": [
        {
          "components": [
            {
              "internalType": "string",
              "name": "name",
              "type": "string"
            },
            {
              "internalType": "string[]",
              "name": "images",
              "type": "string[]"
            },
            {
              "internalType": "string",
              "name": "description",
              "type": "string"
            },
            {
              "internalType": "string",
              "name": "make",
              "type": "string"
            },
            {
              "internalType": "string",
              "name": "model",
              "type": "string"
            },
            {
              "internalType": "uint256",
              "name": "year",
              "type": "uint256"
            },
            {
              "internalType": "uint256",
              "name": "vin",
              "type": "uint256"
            }
          ],
          "internalType": "struct HemDealer.CarBasicDetails",
          "name": "basicDetails",
          "type": "tuple"
        },
        {
          "components": [
            {
              "internalType": "uint256",
              "name": "mileage",
              "type": "uint256"
            },
            {
              "internalType": "string",
              "name": "color",
              "type": "string"
            },
            {
              "internalType": "enum HemDealer.CarCondition",
              "name": "condition",
              "type": "uint8"
            },
            {
              "internalType": "enum HemDealer.CarTransmission",
              "name": "transmission",
              "type": "uint8"
            },
            {
              "internalType": "enum HemDealer.FuelType",
              "name": "fuelType",
              "type": "uint8"
            },
            {
              "internalType": "uint256",
              "name": "price",
              "type": "uint256"
            }
          ],
          "internalType": "struct HemDealer.CarTechnicalDetails",
          "name": "technicalDetails",
          "type": "tuple"
        },
        {
          "components": [
            {
              "internalType": "string",
              "name": "location",
              "type": "string"
            },
            {
              "internalType": "string",
              "name": "carHistory",
              "type": "string"
            },
            {
              "internalType": "string[]",
              "name": "features",
              "type": "string[]"
            }
          ],
          "internalType": "struct HemDealer.CarAdditionalInfo",
          "name": "additionalInfo",
          "type": "tuple"
        },
        {
          "components": [
            {
              "internalType": "address",
              "name": "wallet",
              "type": "address"
            },
            {
              "internalType": "string",
              "name": "sellerName",
              "type": "string"
            },
            {
              "internalType": "string",
              "name": "email",
              "type": "string"
            },
            {
              "internalType": "uint256",
              "name": "phoneNumber",
              "type": "uint256"
            },
            {
              "internalType": "string",
              "name": "profileImage",
              "type": "string"
            }
          ],
          "internalType": "struct HemDealer.SellerDetails",
          "name": "sellerDetails",
          "type": "tuple"
        },
        {
          "internalType": "enum HemDealer.SaleType",
          "name": "saleType",
          "type": "uint8"
        }
      ],
      "name": "listCar",
      "outputs": [],
      "stateMutability": "nonpayable",
      "type": "function"
    },
    {
      "inputs": [],
      "name": "name",
      "outputs": [
        {
          "internalType": "string",
          "name": "",
          "type": "string"
        }
      ],
      "stateMutability": "view",
      "type": "function"
    },
    {
      "inputs": [],
      "name": "owner",
      "outputs": [
        {
          "internalType": "address",
          "name": "",
          "type": "address"
        }
      ],
      "stateMutability": "view",
      "type": "function"
    },
    {
      "inputs": [
        {
          "internalType": "uint256",
          "name": "tokenId",
          "type": "uint256"
        }
      ],
      "name": "ownerOf",
      "outputs": [
        {
          "internalType": "address",
          "name": "",
          "type": "address"
        }
      ],
      "stateMutability": "view",
      "type": "function"
    },
    {
      "inputs": [
        {
          "internalType": "uint256",
          "name": "carId",
          "type": "uint256"
        }
      ],
      "name": "placeBid",
      "outputs": [],
      "stateMutability": "payable",
      "type": "function"
    },
    {
      "inputs": [],
      "name": "renounceOwnership",
      "outputs": [],
      "stateMutability": "nonpayable",
      "type": "function"
    },
    {
      "inputs": [
        {
          "internalType": "address",
          "name": "from",
          "type": "address"
        },
        {
          "internalType": "address",
          "name": "to",
          "type": "address"
        },
        {
          "internalType": "uint256",
          "name": "tokenId",
          "type": "uint256"
        }
      ],
      "name": "safeTransferFrom",
      "outputs": [],
      "stateMutability": "nonpayable",
      "type": "function"
    },
    {
      "inputs": [
        {
          "internalType": "address",
          "name": "from",
          "type": "address"
        },
        {
          "internalType": "address",
          "name": "to",
          "type": "address"
        },
        {
          "internalType": "uint256",
          "name": "tokenId",
          "type": "uint256"
        },
        {
          "internalType": "bytes",
          "name": "data",
          "type": "bytes"
        }
      ],
      "name": "safeTransferFrom",
      "outputs": [],
      "stateMutability": "nonpayable",
      "type": "function"
    },
    {
      "inputs": [
        {
          "internalType": "address",
          "name": "operator",
          "type": "address"
        },
        {
          "internalType": "bool",
          "name": "approved",
          "type": "bool"
        }
      ],
      "name": "setApprovalForAll",
      "outputs": [],
      "stateMutability": "nonpayable",
      "type": "function"
    },
    {
      "inputs": [
        {
          "internalType": "uint256",
          "name": "carId",
          "type": "uint256"
        },
        {
          "internalType": "uint256",
          "name": "startingPrice",
          "type": "uint256"
        },
        {
          "internalType": "uint256",
          "name": "durationInDays",
          "type": "uint256"
        }
      ],
      "name": "startAuction",
      "outputs": [],
      "stateMutability": "nonpayable",
      "type": "function"
    },
    {
      "inputs": [
        {
          "internalType": "bytes4",
          "name": "interfaceId",
          "type": "bytes4"
        }
      ],
      "name": "supportsInterface",
      "outputs": [
        {
          "internalType": "bool",
          "name": "",
          "type": "bool"
        }
      ],
      "stateMutability": "view",
      "type": "function"
    },
    {
      "inputs": [],
      "name": "symbol",
      "outputs": [
        {
          "internalType": "string",
          "name": "",
          "type": "string"
        }
      ],
      "stateMutability": "view",
      "type": "function"
    },
    {
      "inputs": [
        {
          "internalType": "uint256",
          "name": "tokenId",
          "type": "uint256"
        }
      ],
      "name": "tokenURI",
      "outputs": [
        {
          "internalType": "string",
          "name": "",
          "type": "string"
        }
      ],
      "stateMutability": "view",
      "type": "function"
    },
    {
      "inputs": [
        {
          "internalType": "uint256",
          "name": "newCarId",
          "type": "uint256"
        },
        {
          "internalType": "address",
          "name": "newOwner",
          "type": "address"
        }
      ],
      "name": "transfer",
      "outputs": [],
      "stateMutability": "nonpayable",
      "type": "function"
    },
    {
      "inputs": [
        {
          "internalType": "address",
          "name": "from",
          "type": "address"
        },
        {
          "internalType": "address",
          "name": "to",
          "type": "address"
        },
        {
          "internalType": "uint256",
          "name": "tokenId",
          "type": "uint256"
        }
      ],
      "name": "transferFrom",
      "outputs": [],
      "stateMutability": "nonpayable",
      "type": "function"
    },
    {
      "inputs": [
        {
          "internalType": "address",
          "name": "newOwner",
          "type": "address"
        }
      ],
      "name": "transferOwnership",
      "outputs": [],
      "stateMutability": "nonpayable",
      "type": "function"
    },
    {
      "inputs": [
        {
          "internalType": "uint256",
          "name": "newCarId",
          "type": "uint256"
        },
        {
          "components": [
            {
              "internalType": "string",
              "name": "name",
              "type": "string"
            },
            {
              "internalType": "string[]",
              "name": "images",
              "type": "string[]"
            },
            {
              "internalType": "string",
              "name": "description",
              "type": "string"
            },
            {
              "internalType": "string",
              "name": "make",
              "type": "string"
            },
            {
              "internalType": "string",
              "name": "model",
              "type": "string"
            },
            {
              "internalType": "uint256",
              "name": "year",
              "type": "uint256"
            },
            {
              "internalType": "uint256",
              "name": "vin",
              "type": "uint256"
            }
          ],
          "internalType": "struct HemDealer.CarBasicDetails",
          "name": "basicDetails",
          "type": "tuple"
        },
        {
          "components": [
            {
              "internalType": "uint256",
              "name": "mileage",
              "type": "uint256"
            },
            {
              "internalType": "string",
              "name": "color",
              "type": "string"
            },
            {
              "internalType": "enum HemDealer.CarCondition",
              "name": "condition",
              "type": "uint8"
            },
            {
              "internalType": "enum HemDealer.CarTransmission",
              "name": "transmission",
              "type": "uint8"
            },
            {
              "internalType": "enum HemDealer.FuelType",
              "name": "fuelType",
              "type": "uint8"
            },
            {
              "internalType": "uint256",
              "name": "price",
              "type": "uint256"
            }
          ],
          "internalType": "struct HemDealer.CarTechnicalDetails",
          "name": "technicalDetails",
          "type": "tuple"
        },
        {
          "components": [
            {
              "internalType": "string",
              "name": "location",
              "type": "string"
            },
            {
              "internalType": "string",
              "name": "carHistory",
              "type": "string"
            },
            {
              "internalType": "string[]",
              "name": "features",
              "type": "string[]"
            }
          ],
          "internalType": "struct HemDealer.CarAdditionalInfo",
          "name": "additionalInfo",
          "type": "tuple"
        },
        {
          "components": [
            {
              "internalType": "address",
              "name": "wallet",
              "type": "address"
            },
            {
              "internalType": "string",
              "name": "sellerName",
              "type": "string"
            },
            {
              "internalType": "string",
              "name": "email",
              "type": "string"
            },
            {
              "internalType": "uint256",
              "name": "phoneNumber",
              "type": "uint256"
            },
            {
              "internalType": "string",
              "name": "profileImage",
              "type": "string"
            }
          ],
          "internalType": "struct HemDealer.SellerDetails",
          "name": "sellerDetails",
          "type": "tuple"
        },
        {
          "internalType": "enum HemDealer.SaleType",
          "name": "saleType",
          "type": "uint8"
        }
      ],
      "name": "updateCar",
      "outputs": [],
      "stateMutability": "nonpayable",
      "type": "function"
    },
    {
      "inputs": [
        {
          "internalType": "uint256",
          "name": "newCarId",
          "type": "uint256"
        },
        {
          "internalType": "uint256",
          "name": "reviewId",
          "type": "uint256"
        },
        {
          "internalType": "string",
          "name": "comment",
          "type": "string"
        }
      ],
      "name": "updateReview",
      "outputs": [
        {
          "components": [
            {
              "internalType": "uint256",
              "name": "reviewId",
              "type": "uint256"
            },
            {
              "internalType": "address",
              "name": "reviewer",
              "type": "address"
            },
            {
              "internalType": "string",
              "name": "comment",
              "type": "string"
            },
            {
              "internalType": "uint256",
              "name": "timestamp",
              "type": "uint256"
            },
            {
              "internalType": "bool",
              "name": "deleted",
              "type": "bool"
            }
          ],
          "internalType": "struct HemDealer.ReviewStruct",
          "name": "",
          "type": "tuple"
        }
      ],
      "stateMutability": "nonpayable",
      "type": "function"
    }
  ],
  "bytecode": "0x608034620003a4576040906001600160401b0390808301828111828210176200038e57835260098152602091682432b6a232b0b632b960b91b83830152835190848201828110828211176200038e57855260038083526248444d60e81b8584015260008054336001600160a01b0319821681178355929591949192906001600160a01b03167f8be0079c531659141344cd1fd0a4f28419497f9722a3daafe3b4186f6b6457e08680a360019384805582518481116200037a57600254938685811c951680156200036f575b898610146200035b578190601f9586811162000307575b508990868311600114620002a257849262000296575b505060001982891b1c191690861b176002555b8151938411620002825785548581811c9116801562000277575b8882101462000263578381116200021b575b5086928411600114620001b85791839491849394620001ac575b50501b9160001990841b1c19161790555b331562000177575051616ad09081620003aa8239f35b606491519062461bcd60e51b82526004820152601060248201526f24b73b30b634b2103232b83637bcb2b960811b6044820152fd5b01519250388062000150565b919083601f198116878552888520945b8988838310620002035750505010620001ea575b505050811b01905562000161565b015160001983861b60f8161c19169055388080620001dc565b868601518855909601959485019487935001620001c8565b8682528782208480870160051c8201928a881062000259575b0160051c019086905b8281106200024d57505062000136565b8381550186906200023d565b9250819262000234565b634e487b7160e01b82526022600452602482fd5b90607f169062000124565b634e487b7160e01b81526041600452602490fd5b015190503880620000f7565b600285528a85208994509190601f198416865b8d828210620002f05750508411620002d7575b505050811b016002556200010a565b0151600019838b1b60f8161c19169055388080620002c8565b8385015186558c97909501949384019301620002b5565b909150600284528984208680850160051c8201928c861062000351575b918a91869594930160051c01915b82811062000342575050620000e1565b8681558594508a910162000332565b9250819262000324565b634e487b7160e01b83526022600452602483fd5b94607f1694620000ca565b634e487b7160e01b82526041600452602482fd5b634e487b7160e01b600052604160045260246000fd5b600080fdfe6101e080604052600436101561001457600080fd5b60003560e01c90816301ffc9a7146153745750806306fdde03146152ce578063081812fc146152b0578063095ea7b314615136578063175a3b4114614d6c57806323b872dd14614d4857806324d41a0314614b2c5780632c0e839b14614963578063333969171461479e578063341fa05d1461468d57806342842e0e1461465a5780635e8be190146145ce57806360098088146143ed5780636352211e146143bd5780636c231060146141d057806370a0823114614139578063715018a6146140e05780638da5cb5b146140b757806391e078bb14613d6657806395d89b4114613c8457806396a12041146127c657806396b5a755146126925780639979ef45146124da5780639d4a225514612357578063a22cb4651461227c578063abfe5d5714612190578063b0b7755e14612120578063b7760c8f14611e4b578063b88d4fde14611dc4578063b9a2de3a14611ab1578063c87b56dd14611a3d578063e05f8bb714610355578063e985e9c5146102ff578063f20e5e351461026a5763f2fde38b146101a157600080fd5b34610265576020366003190112610265576101ba61541f565b6101c2615a23565b6001600160a01b0390811690811561021157600054826001600160601b0360a01b821617600055167f8be0079c531659141344cd1fd0a4f28419497f9722a3daafe3b4186f6b6457e0600080a3005b60405162461bcd60e51b815260206004820152602660248201527f4f776e61626c653a206e6577206f776e657220697320746865207a65726f206160448201526564647265737360d01b6064820152608490fd5b600080fd5b3461026557602036600319011261026557600435600052600d60205260a06040600020816040519161029b83615466565b805483526001810154928360208201526002820154806040830152600180851b036003840154169182606082015260ff6005600486015495866080850152015416151594859101526040519485526020850152604084015260608301526080820152f35b346102655760403660031901126102655761031861541f565b610320615435565b9060018060a01b03809116600052600760205260406000209116600052602052602060ff604060002054166040519015158152f35b346102655760c0366003190112610265576024356001600160401b0381116102655760e06003198236030112610265576040518060a05260e081019081106001600160401b03821117610f6c5760405280600401356001600160401b038111610265576103c89060043691840101615546565b60a0515260248101356001600160401b038111610265576103ef906004369184010161596b565b602060a051015260448101356001600160401b038111610265576104199060043691840101615546565b604060a051015260648101356001600160401b038111610265576104439060043691840101615546565b606060a05101526084810135906001600160401b0382116102655761047060c49260043691840101615546565b608060a051015260a481013560a080510152013560c060a05101526001600160401b03604435116102655760c060443536036003190112610265576104bb6040518061014052615466565b604435600401356101405152602460443501356001600160401b038111610265576104ee90600436916044350101615546565b60206101405101526003604480350135101561026557604480350135604061014051015260026064604435013510156102655760646044350135606061014051015260846044350135600481101561026557608061014051015260a4604435013560a06101405101526001600160401b036064351161026557606060643536036003190112610265576040518060608101106001600160401b03606083011117610f6c5760608101604052606435600401356001600160401b038111610265576105c090600436916064350101615546565b8152602460643501356001600160401b038111610265576105e990600436916064350101615546565b6020820152604460643501356001600160401b038111610265576106159060043691606435010161596b565b60408201526001600160401b03608435116102655761063936608435600401615986565b608052600260a43510156102655761064f616300565b600435600052600b60205260018060a01b036001604060002001541633148015611a29575b61067d906163a2565b60a0610140510151156119e45760a0515151156119a857602060a0510151511561196357606060a0510151511561192757608060a051015151156118ea57608051516004356000908152600b60205260409020601001546001600160a01b039182169116036118a557608051516001600160a01b031633036118605760a05180519160208201516101205260408201519160608101519060808101519060c060a082015191015161014051908151602083015191604084015193600385101561137d57606001519461074e8661563d565b6101405196608088015197600489101561137d5760a00151988a519a604001519b600435600052600b60205260406000209d60158f015460ff166101c052604051806101805261079d90615481565b6004356101805152336101805160200152610180516040015261012051610180516060015261018051608001526101805160a001526101805160c001526101805160e0015261018051610100015261018051610120015261018051610140015261018051610160019061080f91616107565b6108188161563d565b610180516101800152610180516101a0019061083391616113565b610180516101c00152610180516101e00152610180516102000152600f0161085a9061642d565b6101805161022001526080516101805161024001526101c051151561018051610260015261018051610280016000905260a4356108969061563d565b60a435610180516102a00152600435600052600b60205260406000206101805180518255600160a01b600190036020820151166001600160601b0360a01b600184015416176001830155604001518051906001600160401b038211610f6c5781906109046002850154615aea565b601f811161182b575b50602090601f83116001146117b9576000926117ae575b50508160011b916000199060031b1c19161760028201555b6060610180510151805190600160401b8211610f6c57600383015482600385015580831061177b575b5060200190600383016000526020600020916000905b82821061165b578460806101805101518051906001600160401b038211610f6c5781906109ab6004850154615aea565b601f8111611626575b50602090601f83116001146115b4576000926115a9575b50508160011b916000199060031b1c19161760048201555b60a06101805101518051906001600160401b038211610f6c578190610a0b6005850154615aea565b601f8111611574575b50602090601f8311600114611502576000926114f7575b50508160011b916000199060031b1c19161760058201555b60c06101805101518051906001600160401b038211610f6c578190610a6b6006850154615aea565b601f81116114c2575b50602090601f831160011461145057600092611445575b50508160011b916000199060031b1c19161760068201555b6101406101805160e081015160078401556101008101516008840155610120810151600984015501518051906001600160401b038211610f6c578190610aec600a850154615aea565b601f8111611410575b50602090601f831160011461139e57600092611393575b50508160011b916000199060031b1c191617600a8201555b61018051610160810151600381101561137d57610180600b84015492015190610b4c8261563d565b610b558261563d565b61018051916101a0830151600481101561137d576101e09460ff62ff000061ff009360101b1694169062ffffff1916179160081b161717600b8401556101c0810151600c84015501518051906001600160401b038211610f6c578190610bbe600d850154615aea565b601f8111611348575b50602090601f83116001146112d6576000926112cb575b50508160011b916000199060031b1c191617600d8201555b610200610180510151805190600160401b8211610f6c57600e83015482600e850155808310611298575b5060200190600e83016000526020600020916000905b8282106111835784610220610180510151805190600160401b8211610f6c57600f83015482600f850155808310611101575b50602001600f830160005260206000206000915b8383106110e3578460108101906102406101805101519160018060a01b038351166001600160601b0360a01b82541617905560208201519182516001600160401b038111610f6c57610cd16011840154615aea565b601f81116110ae575b506020601f82116001146110405781929394600092611035575b50508160011b916000199060031b1c19161760118301555b60408101518051906001600160401b038211610f6c57610d2f6012850154615aea565b601f8111611000575b50602090601f8311600114610f8d57608093929160009183610f82575b50508160011b916000199060031b1c19161760128401555b606081015160138401550151908151916001600160401b038311610f6c57610d986014830154615aea565b601f8111610f2c575b50602090601f8411600114610eba576015939160009183610eaf575b50508160011b916000199060031b1c19161760148201555b016102a061018051610dfa6102608201511515849060ff801983541691151516179055565b610280810151835461ff00191690151560081b61ff00161783550151610e1f8161563d565b610e288161563d565b62ff000082549160101b169062ff0000191617905560a061014051015160a0517fd9511b74a8730fb510a310d06e88f7bac5eea519789985c0394fef2c2c2ec57c610e8e60806060840151930151926040519485526060602086015260608501906153df565b92808403604082015280610ea63395600435956153df565b0390a360018055005b015190508480610dbd565b906014830160005260206000209160005b601f1986168110610f145750918491600193601596601f19811610610efb575b505050811b016014820155610dd5565b015160001960f88460031b161c19169055848080610eeb565b91926020600181928685015181550194019201610ecb565b610f5c90601484016000526020600020601f860160051c81019160208710610f62575b601f0160051c019061611f565b83610da1565b9091508190610f4f565b634e487b7160e01b600052604160045260246000fd5b015190508580610d55565b906012850160005260206000209160005b601f1985168110610fe8575091839160019360809695601f19811610610fcf575b505050811b016012840155610d6d565b015160001960f88460031b161c19169055858080610fbf565b91926020600181928685015181550194019201610f9e565b61102f90601286016000526020600020601f850160051c81019160208610610f6257601f0160051c019061611f565b84610d38565b015190508480610cf4565b6011840160005260206000209060005b601f19841681106110965750600193949583601f1981161061107d575b505050811b016011830155610d0c565b015160001960f88460031b161c1916905584808061106d565b9091602060018192858a015181550193019101611050565b6110dd90601185016000526020600020601f840160051c81019160208510610f6257601f0160051c019061611f565b84610cda565b60056020826110f5600194518661617f565b01920192019190610c7c565b600581810204810361116d57600583810204830361116d57600f840160005260206000208360050281015b826005028201811061113f575050610c68565b806000600592556000600182015561115960028201616136565b60006003820155600060048201550161112c565b634e487b7160e01b600052601160045260246000fd5b80518051906001600160401b038211610f6c576111a08654615aea565b601f8111611266575b50602090601f83116001146111f65792826001949360209386956000926111eb575b5050600019600383901b1c191690841b1787555b01940191019092610c36565b015190508a806111cb565b908660005260206000209160005b601f198516811061124e575083602093600196938796938794601f19811610611235575b505050811b0187556111df565b015160001960f88460031b161c191690558a8080611228565b91926020600181928685015181550194019201611204565b61129290876000526020600020601f850160051c81019160208610610f6257601f0160051c019061611f565b876111a9565b600e84016000526020600020908382015b81830181106112b9575050610c20565b806112c5600192616136565b016112a9565b015190508380610bde565b9250600d84016000526020600020906000935b601f198416851061132d576001945083601f19811610611314575b505050811b01600d820155610bf6565b015160001960f88460031b161c19169055838080611304565b818101518355602094850194600190930192909101906112e9565b61137790600d86016000526020600020601f850160051c81019160208610610f6257601f0160051c019061611f565b84610bc7565b634e487b7160e01b600052602160045260246000fd5b015190508380610b0c565b9250600a84016000526020600020906000935b601f19841685106113f5576001945083601f198116106113dc575b505050811b01600a820155610b24565b015160001960f88460031b161c191690558380806113cc565b818101518355602094850194600190930192909101906113b1565b61143f90600a86016000526020600020601f850160051c81019160208610610f6257601f0160051c019061611f565b84610af5565b015190508380610a8b565b9250600684016000526020600020906000935b601f19841685106114a7576001945083601f1981161061148e575b505050811b016006820155610aa3565b015160001960f88460031b161c1916905583808061147e565b81810151835560209485019460019093019290910190611463565b6114f190600686016000526020600020601f850160051c81019160208610610f6257601f0160051c019061611f565b84610a74565b015190508380610a2b565b9250600584016000526020600020906000935b601f1984168510611559576001945083601f19811610611540575b505050811b016005820155610a43565b015160001960f88460031b161c19169055838080611530565b81810151835560209485019460019093019290910190611515565b6115a390600586016000526020600020601f850160051c81019160208610610f6257601f0160051c019061611f565b84610a14565b0151905083806109cb565b9250600484016000526020600020906000935b601f198416851061160b576001945083601f198116106115f2575b505050811b0160048201556109e3565b015160001960f88460031b161c191690558380806115e2565b818101518355602094850194600190930192909101906115c7565b61165590600486016000526020600020601f850160051c81019160208610610f6257601f0160051c019061611f565b846109b4565b80518051906001600160401b038211610f6c576116788654615aea565b601f811161173e575b50602090601f83116001146116ce5792826001949360209386956000926116c3575b5050600019600383901b1c191690841b1787555b0194019101909261097b565b015190508a806116a3565b908660005260206000209160005b601f1985168110611726575083602093600196938796938794601f1981161061170d575b505050811b0187556116b7565b015160001960f88460031b161c191690558a8080611700565b919260206001819286850151815501940192016116dc565b61176b908760005260206000206005601f8601811c82019260208710611771575b601f01901c019061611f565b87611681565b919250829161175f565b600384016000526020600020908382015b818301811061179c575050610965565b806117a8600192616136565b0161178c565b015190508380610924565b9250600284016000526020600020906000935b601f1984168510611810576001945083601f198116106117f7575b505050811b01600282015561093c565b015160001960f88460031b161c191690558380806117e7565b818101518355602094850194600190930192909101906117cc565b61185a90600286016000526020600020601f850160051c81019160208610610f6257601f0160051c019061611f565b8461090d565b60405162461bcd60e51b815260206004820152601f60248201527f53656c6c65722077616c6c6574206d757374206d617463682073656e646572006044820152606490fd5b60405162461bcd60e51b815260206004820152601b60248201527f43616e6e6f74206368616e67652073656c6c65722077616c6c657400000000006044820152606490fd5b60405162461bcd60e51b81526020600482015260156024820152744d6f64656c2063616e6e6f7420626520656d70747960581b6044820152606490fd5b60405162461bcd60e51b81526020600482015260146024820152734d616b652063616e6e6f7420626520656d70747960601b6044820152606490fd5b60405162461bcd60e51b815260206004820152601e60248201527f4174206c65617374206f6e6520696d61676520697320726571756972656400006044820152606490fd5b60405162461bcd60e51b81526020600482015260146024820152734e616d652063616e6e6f7420626520656d70747960601b6044820152606490fd5b60405162461bcd60e51b815260206004820152601c60248201527f5072696365206d7573742062652067726561746572207468616e2030000000006044820152606490fd5b506000546001600160a01b03163314610674565b3461026557602036600319011261026557611a77611a72600435600052600460205260018060a01b0360406000205416151590565b615a7b565b6000604051611a85816154b8565b52611aad604051611a95816154b8565b600081526040519182916020835260208301906153df565b0390f35b3461026557602080600319360112610265576004356000818152600b8352604090206001908101546001600160a01b039390841633148015611db7575b15611d735782600052600d81526040600020936005850192835493611b1560ff8616616a59565b60048701544210611d2e5760ff198095169055600386019382855416611b6b575b50506002907fd2aa34a4fdbbc6dff6a3e56f46e0f3ae2a31d7785ff3487aa5c95c642acea501935416940154604051908152a3005b91909360028701548015611ce95786600052600b8552611b9660ff60156040600020015416156169ce565b86600052600b8552611bb2838760406000200154161515616549565b86600052600b855260406000208681018054958860158789169401918254161790556001600160601b0360a01b9586339116179055611bf2883383615da9565b6009549660405197611c038961544b565b8852868801898152604089019684885260608a01913383528b600052600c8a5260406000208054600160401b811015610f6c57611c44918682018155616871565b9b909b611cd3577fd2aa34a4fdbbc6dff6a3e56f46e0f3ae2a31d7785ff3487aa5c95c642acea5019b60029a8a936003935183555187830155518b820155019251169082541617905560095401600955611c9e8282616973565b604051918252877f8205a71867f7292bcef9e53d4774758d6173b03f63017dec9a03a6664b429dc5873394a493819250611b36565b634e487b7160e01b600052600060045260246000fd5b60405162461bcd60e51b815260048101869052601e60248201527f5061796d656e74206d7573742062652067726561746572207468616e203000006044820152606490fd5b60405162461bcd60e51b815260048101859052601960248201527f41756374696f6e207374696c6c20696e2070726f6772657373000000000000006044820152606490fd5b6064906040519062461bcd60e51b82526004820152601a60248201527f4f6e6c79206f776e65722063616e20656e642061756374696f6e0000000000006044820152fd5b5083600054163314611aee565b3461026557608036600319011261026557611ddd61541f565b611de5615435565b90606435906044356001600160401b038311610265573660238401121561026557611e4993611e21611e4494369060248160040135910161550f565b92611e34611e2f8433615ce1565b615c08565b611e3f838383615da9565b615fe5565b615cbd565b005b3461026557604036600319011261026557600435611e67615435565b9080600052600b602081815260018060a01b0393611e9085600160406000200154161515616549565b83600052828252846010604060002001541633148015612113575b156120c45784811694851561207f5784600052838352806001604060002001541686146120235784600052838352611ef160ff60156040600020015460081c161561658a565b8460005283835260ff60156040600020015416611fea5784600052600d835260ff60056040600020015416611f9357611f3c9185918260005285855260016040600020015416615da9565b8260005252604060002082601060018301926001600160601b0360a01b938385825416179055019182541617905533907f16392dc525523bcdbdf2494672f3db13beca6eb1f9402b2391b7bef598832c8b600080a4005b60405162461bcd60e51b815260048101849052602960248201527f43616e6e6f74207472616e736665722063617220647572696e67206163746976604482015268329030bab1ba34b7b760b91b6064820152608490fd5b60405162461bcd60e51b815260048101849052601160248201527010d85c881a185cc81899595b881cdbdb19607a1b6044820152606490fd5b60405162461bcd60e51b815260048101849052602e60248201527f4e6577206f776e6572206d75737420626520646966666572656e742066726f6d60448201526d1031bab93932b73a1037bbb732b960911b6064820152608490fd5b60405162461bcd60e51b815260048101849052601960248201527f496e76616c6964206e6577206f776e65722061646472657373000000000000006044820152606490fd5b60405162461bcd60e51b815260048101839052602160248201527f4f6e6c792073656c6c6572206f722061646d696e2063616e207472616e7366656044820152603960f91b6064820152608490fd5b5084600054163314611eab565b3461026557602036600319011261026557600435600052600d60205260c06040600020805490600181015490600281015460018060a01b036003830154169060ff6005600485015494015416936040519586526020860152604085015260608401526080830152151560a0820152f35b346102655760003660031901126102655760088054600060015b8281111561223c57506121bc906167ea565b91600160005b838211156121d85760405180611aad8782615883565b81600052600b60205260406000209160ff6015840154851c1615612208575b6122029192506167db565b906121c2565b6122338261222261221c61220295926167db565b95616622565b61222c828a61683a565b528761683a565b508291506121f7565b80600052600b60205260ff601560406000200154851c1615612267575b612262906167db565b6121aa565b90612274612262916167db565b919050612259565b346102655760403660031901126102655761229561541f565b6024359081151590818303610265576001600160a01b031691338314612312576122e49033600052600760205260406000208460005260205260406000209060ff801983541691151516179055565b6040519081527f17307eab39ab6107e8899845ad3d59bd9653f200f220920489ca2b5937696c3160203392a3005b60405162461bcd60e51b815260206004820152601960248201527f4552433732313a20617070726f766520746f2063616c6c6572000000000000006044820152606490fd5b3461026557602080600319360112610265576004359081600052600b9182825260ff6123908160156040600020015460081c161561658a565b60009160005b81600052858552600f60406000200180548210156123e85760046123bb838693616918565b50015416156123d3575b6123ce906167db565b612396565b926123e06123ce916167db565b9390506123c5565b50509291936123f6856158e5565b9461240460405196876154d3565b808652612413601f19916158e5565b018360005b8281106124c45750505060009260005b85600052828252600f8060406000200180548310156124b157600461244e848893616918565b5001541615612467575b50612462906167db565b612428565b819561248f612489612462946124aa948b600052888852604060002001616918565b506163dd565b612499828b61683a565b526124a4818a61683a565b506167db565b9490612458565b60405184815280611aad8187018c615647565b6124cc6160db565b82828a010152018490612418565b6020806003193601126102655760043580600052600b825261250a60ff60156040600020015460081c161561658a565b80600052600b8252612535600160ff60156040600020015460101c1661252f8161563d565b14616a0d565b80600052600d8252604060002061255260ff600583015416616a59565b600481015442101561265d5760028101908154908134111561262a576000848152600b865260409020600101546001600160a01b039190821633146125f257600301805434909455336001600160a01b0319851617905590911690816125e2575b50507f0e54eff26401bf69b81b26f60bd85ef47f5d85275c1d268d84f68d6897431c47604051923484523393a3005b6125eb91616973565b82806125b3565b60405162461bcd60e51b815260048101879052601060248201526f13dddb995c8818d85b9b9bdd08189a5960821b6044820152606490fd5b60405162461bcd60e51b815260048101869052600b60248201526a42696420746f6f206c6f7760a81b6044820152606490fd5b60405162461bcd60e51b815260048101849052600d60248201526c105d58dd1a5bdb88195b991959609a1b6044820152606490fd5b3461026557602080600319360112610265576004356000818152600b835260409020600101546001600160a01b03908116331480156127b9575b156127745781600052600d83526040600020600581019160038354926126f460ff8516616a59565b01541661272f5760ff191690556040516000808252927fd2aa34a4fdbbc6dff6a3e56f46e0f3ae2a31d7785ff3487aa5c95c642acea50191a3005b60405162461bcd60e51b815260048101859052601f60248201527f43616e6e6f742063616e63656c2061756374696f6e20776974682062696473006044820152606490fd5b60405162461bcd60e51b815260048101849052601d60248201527f4f6e6c79206f776e65722063616e2063616e63656c2061756374696f6e0000006044820152606490fd5b50806000541633146126cc565b346102655760031960a036820112610265576001600160401b03600435116102655760e08160043536030112610265576001600160401b03602435116102655760c08160243536030112610265576001600160401b036044351161026557606081604435360301126102655760643590816101a0526001600160401b0382116102655760a09136030112610265576002608435101561026557612867616300565b6101a0516004016001600160a01b0361287f82616060565b1633149081613c68575b5015613c325760a4602435013515613bfd576128af602460043501600435600401616074565b905015613bcc5760088054600101908190556128cf6004803501806160a9565b610160526128e7602460043501600435600401616074565b6128fe6044600494939435016004356004016160a9565b906129136064600435016004356004016160a9565b906129286084600435016004356004016160a9565b91909261293e60248035016024356004016160a9565b9590966003604460243501351015610265576002606460243501351015610265576004608460243501351015610265578b9a61297f600460443501806160a9565b9a909b6044356044016044356004019061299891616074565b9e9060c05260405180610100526129ae906154b8565b61010051600090526040518060e0526129c690615481565b60e051523360e0516020015236610160516129e09261550f565b60e0516040015236906129f2926158fc565b60e051606001523690612a049261550f565b60e051608001523690612a169261550f565b60e05160a001523690612a289261550f565b60e05160c0015260043560a4013560e05160e0015260043560c4013560e05161010001526024356004013560e05161012001523690612a669261550f565b60e05161014001526024356044013560e0516101600190612a8691616107565b612a956064602435013561563d565b6024356064013560e05161018001526024356084013560e0516101a00190612abc91616113565b60243560a4013560e0516101c001523690612ad69261550f565b60e0516101e001523660c05191612aec926158fc565b60e05161020001526101005160e0516102200152366101a05160040190612b1291615986565b60e051610240015260e051610260016000905260e0516102800160009052608435612b3c9061563d565b60843560e0516102a0015280600052600b60205260406000209060e05180518355600160a01b600190036020820151166001600160601b0360a01b600185015416176001840155604001519182516001600160401b038111610f6c57612ba56002830154615aea565b601f8111613b97575b506020601f8211600114613b295781929394600092613b1e575b50508160011b916000199060031b1c19161760028201555b606060e0510151805190600160401b8211610f6c576003830154826003850155808310613aeb575b5060200190600383016000526020600020916000905b8282106139d6578585608060e05101519182516001600160401b038111610f6c57612c4c6004840154615aea565b601f81116139a1575b506020601f82116001146139335781929394600092613928575b50508160011b916000199060031b1c19161760048301555b60a060e05101519182516001600160401b038111610f6c57612cac6005830154615aea565b601f81116138f3575b506020601f8211600114613885578192939460009261387a575b50508160011b916000199060031b1c19161760058201555b60c060e05101519182516001600160401b038111610f6c57612d0c6006840154615aea565b601f8111613845575b506020601f82116001146137d757819293946000926137cc575b50508160011b916000199060031b1c19161760068301555b61014060e05160e081015160078501556101008101516008850155610120810151600985015501519182516001600160401b038111610f6c57612d8d600a830154615aea565b601f8111613797575b506020601f8211600114613729578192939460009261371e575b50508160011b916000199060031b1c191617600a8201555b60e051610160810151600381101561137d57610180600b84015492015190612def8261563d565b612df88261563d565b60e051916101a0830151600481101561137d576101e09460ff62ff000061ff009360101b1694169062ffffff1916179160081b161717600b8401556101c0810151600c84015501519182516001600160401b038111610f6c57612e5e600d840154615aea565b601f81116136e9575b506020601f821160011461367b5781929394600092613670575b50508160011b916000199060031b1c191617600d8301555b61020060e0510151805190600160401b8211610f6c57600e84015482600e86015580831061363d575b5060200190600e84016000526020600020916000905b82821061352857858561022060e0510151805190600160401b8211610f6c57600f84015482600f8601558083106134bc575b50602001600f840160005260206000206000915b83831061349e578585601082019061024060e05101519160018060a01b038351166001600160601b0360a01b82541617905560208201519283516001600160401b038111610f6c57612f736011830154615aea565b601f8111613469575b506020601f82116001146133fa5781929394956000926133ef575b50508160011b916000199060031b1c19161760118201555b60408301519283516001600160401b038111610f6c57612fd26012840154615aea565b601f81116133ba575b506020601f8211600114613347578190608094959660009261333c575b50508160011b916000199060031b1c19161760128401555b6060810151601384015501518051906001600160401b038211610f6c5761303a6014840154615aea565b601f8111613307575b50602090601f831160011461329457601593929160009183613289575b50508160011b916000199060031b1c19161760148201555b016102a060e05161309c6102608201511515849060ff801983541691151516179055565b610280810151835461ff00191690151560081b61ff001617835501516130c18161563d565b6130ca8161563d565b62ff000082549160101b169062ff00001916179055604051906130ec826154b8565b600082523315613245576131af611e4461322c9361312861312285600052600460205260018060a01b0360406000205416151590565b15616356565b60008481526004602052604090205461314b906001600160a01b03161515613122565b3360005260056020526040600020600181540190558360005260046020526040600020336001600160601b0360a01b825416179055833360007fddf252ad1be2c89b69c2b068fc378daa952ba7f163c4a11628f55a4df523b3ef8180a48333615eea565b7f5b34f0e4a34a289b00e4a152dfdeb90a4b2a8c201b6f38d35c078560382a2b766131e46064600435016004356004016160a9565b939061321e6131fd6084600435016004356004016160a9565b9190926040519760a460243501358952608060208a015260808901916162df565b9186830360408801526162df565b9260a4600435013560608201528033940390a360018055005b606460405162461bcd60e51b815260206004820152602060248201527f4552433732313a206d696e7420746f20746865207a65726f20616464726573736044820152fd5b015190508580613060565b906014840160005260206000209160005b601f19851681106132ef575091839160019360159695601f198116106132d6575b505050811b016014820155613078565b015160001960f88460031b161c191690558580806132c6565b919260206001819286850151815501940192016132a5565b61333690601485016000526020600020601f850160051c81019160208610610f6257601f0160051c019061611f565b84613043565b015190508680612ff8565b6012840160005260206000209560005b601f19841681106133a257509582916080959697600194601f19811610613389575b505050811b016012840155613010565b015160001960f88460031b161c19169055868080613379565b82820151885560019097019660209283019201613357565b6133e990601285016000526020600020601f840160051c81019160208510610f6257601f0160051c019061611f565b85612fdb565b015190508580612f97565b6011830160005260206000209060005b601f1984168110613451575060019394959683601f19811610613438575b505050811b016011820155612faf565b015160001960f88460031b161c19169055858080613428565b9091602060018192858b01518155019301910161340a565b61349890601184016000526020600020601f840160051c81019160208510610f6257601f0160051c019061611f565b85612f7c565b60056020826134b0600194518661617f565b01920192019190612f1e565b600581810204810361116d57600583810204830361116d57600f850160005260206000208360050281015b82600502820181106134fa575050612f0a565b806000600592556000600182015561351460028201616136565b6000600382015560006004820155016134e7565b80518051906001600160401b038211610f6c576135458654615aea565b601f811161360b575b50602090601f831160011461359b579282600194936020938695600092613590575b5050600019600383901b1c191690841b1787555b01940191019092612ed8565b015190508b80613570565b908660005260206000209160005b601f19851681106135f3575083602093600196938796938794601f198116106135da575b505050811b018755613584565b015160001960f88460031b161c191690558b80806135cd565b919260206001819286850151815501940192016135a9565b61363790876000526020600020601f850160051c81019160208610610f6257601f0160051c019061611f565b8861354e565b600e85016000526020600020908382015b818301811061365e575050612ec2565b8061366a600192616136565b0161364e565b015190508480612e81565b600d840160005260206000209060005b601f19841681106136d15750600193949583601f198116106136b8575b505050811b01600d830155612e99565b015160001960f88460031b161c191690558480806136a8565b9091602060018192858a01518155019301910161368b565b61371890600d85016000526020600020601f840160051c81019160208510610f6257601f0160051c019061611f565b84612e67565b015190508480612db0565b600a830160005260206000209060005b601f198416811061377f5750600193949583601f19811610613766575b505050811b01600a820155612dc8565b015160001960f88460031b161c19169055848080613756565b9091602060018192858a015181550193019101613739565b6137c690600a84016000526020600020601f840160051c81019160208510610f6257601f0160051c019061611f565b84612d96565b015190508480612d2f565b6006840160005260206000209060005b601f198416811061382d5750600193949583601f19811610613814575b505050811b016006830155612d47565b015160001960f88460031b161c19169055848080613804565b9091602060018192858a0151815501930191016137e7565b61387490600685016000526020600020601f840160051c81019160208510610f6257601f0160051c019061611f565b84612d15565b015190508480612ccf565b6005830160005260206000209060005b601f19841681106138db5750600193949583601f198116106138c2575b505050811b016005820155612ce7565b015160001960f88460031b161c191690558480806138b2565b9091602060018192858a015181550193019101613895565b61392290600584016000526020600020601f840160051c81019160208510610f6257601f0160051c019061611f565b84612cb5565b015190508480612c6f565b6004840160005260206000209060005b601f19841681106139895750600193949583601f19811610613970575b505050811b016004830155612c87565b015160001960f88460031b161c19169055848080613960565b9091602060018192858a015181550193019101613943565b6139d090600485016000526020600020601f840160051c81019160208510610f6257601f0160051c019061611f565b84612c55565b80518051906001600160401b038211610f6c576139f38654615aea565b601f8111613ab9575b50602090601f8311600114613a49579282600194936020938695600092613a3e575b5050600019600383901b1c191690841b1787555b01940191019092612c1e565b015190508b80613a1e565b908660005260206000209160005b601f1985168110613aa1575083602093600196938796938794601f19811610613a88575b505050811b018755613a32565b015160001960f88460031b161c191690558b8080613a7b565b91926020600181928685015181550194019201613a57565b613ae5908760005260206000206005601f8601811c8201926020871061177157601f01901c019061611f565b886139fc565b600384016000526020600020908382015b8183018110613b0c575050612c08565b80613b18600192616136565b01613afc565b015190508480612bc8565b6002830160005260206000209060005b601f1984168110613b7f5750600193949583601f19811610613b66575b505050811b016002820155612be0565b015160001960f88460031b161c19169055848080613b56565b9091602060018192858a015181550193019101613b39565b613bc690600284016000526020600020601f840160051c81019160208510610f6257601f0160051c019061611f565b84612bae565b60405162461bcd60e51b81526020600482015260096024820152684e6f20696d6167657360b81b6044820152606490fd5b60405162461bcd60e51b815260206004820152600d60248201526c496e76616c696420707269636560981b6044820152606490fd5b60405162461bcd60e51b815260206004820152600e60248201526d24b73b30b634b21039b2b63632b960911b6044820152606490fd5b6001600160a01b039150613c7b90616060565b16151581612889565b34610265576000366003190112610265576040516000600354613ca681615aea565b80845290600190818116908115613d3f5750600114613ce4575b611aad84613cd0818603826154d3565b6040519182916020835260208301906153df565b6003600090815292507fc2575a0e9e593c00f959f8c92f12db2869c3395a3b0502d05e2516446f71f85b5b828410613d27575050508101602001613cd082613cc0565b80546020858701810191909152909301928101613d0f565b60ff191660208087019190915292151560051b85019092019250613cd09150839050613cc0565b346102655760603660031901126102655760043560248035906044803584600052602092600b845260018060a01b0392836001604060002001541633036140755786600052600b8552613dc460ff60156040600020015416156169ce565b86600052600b8552613de460ff60156040600020015460081c161561658a565b86600052600b8552613e09600160ff60156040600020015460101c1661252f8161563d565b82159081158061406a575b15614028578615613fd85787600052600d865260ff60056040600020015416613f9d5787600052600b865286600c6040600020015410613f40575062015180808402938404141715613f2c5750917f44c53be110c6aa83aa83cd02e351ed172359268272ee1b5d31c0fe48db35c6c79391613f1f613e9460409542616864565b916005865191613ea383615466565b89835285830190878252888401908882526060850191600083526080860197885260a0860193600185528d600052600d8a528b60002096518755516001870155516002860155600385019151166001600160601b0360a01b825416179055600483019451855551151591019060ff801983541691151516179055565b54908351928352820152a2005b634e487b7160e01b60009081526011600452fd5b857f5374617274696e672070726963652063616e6e6f7420626520686967686572206084926032866040519462461bcd60e51b86526004860152840152820152717468616e206c697374696e6720707269636560701b6064820152fd5b857541756374696f6e20616c72656164792061637469766560501b6064926016866040519462461bcd60e51b86526004860152840152820152fd5b857f5374617274696e67207072696365206d757374206265206772656174657220746084926025866040519462461bcd60e51b8652600486015284015282015264068616e20360dc1b6064820152fd5b857f496e76616c69642061756374696f6e206475726174696f6e00000000000000006064926018866040519462461bcd60e51b86526004860152840152820152fd5b50601e841115613e14565b7f4f6e6c79206f776e65722063616e2073746172742061756374696f6e000000008591601c6064946040519462461bcd60e51b86526004860152840152820152fd5b34610265576000366003190112610265576000546040516001600160a01b039091168152602090f35b34610265576000366003190112610265576140f9615a23565b600080546001600160a01b0319811682556001600160a01b03167f8be0079c531659141344cd1fd0a4f28419497f9722a3daafe3b4186f6b6457e08280a3005b34610265576020366003190112610265576001600160a01b0361415a61541f565b1680156141795760005260056020526020604060002054604051908152f35b60405162461bcd60e51b815260206004820152602960248201527f4552433732313a2061646472657373207a65726f206973206e6f7420612076616044820152683634b21037bbb732b960b91b6064820152608490fd5b60208060031936011261026557600435906141e9616300565b81600052600b9182825260018060a01b0390600193614212838660406000200154161515616549565b8160005280845261423160ff60156040600020015460081c161561658a565b816000528084526040600020838660ff6015840154161592836143ad575b505050156143755781600052808452600c60406000200154340361433c578160005280845260ff60156040600020015460101c1661428c8161563d565b61430857816000528352604060002091848301906015825491821694018660ff1982541617905533906001600160601b0360a01b161790556142cf813384615da9565b6142d93483616973565b7f8205a71867f7292bcef9e53d4774758d6173b03f63017dec9a03a6664b429dc5604051933485523394a48055005b60405162461bcd60e51b815260048101859052600c60248201526b4e6f7420666f722073616c6560a01b6044820152606490fd5b60405162461bcd60e51b8152600481018590526011602482015270125b98dbdc9c9958dd081c185e5b595b9d607a1b6044820152606490fd5b60405162461bcd60e51b815260048101859052601060248201526f496e76616c696420707572636861736560801b6044820152606490fd5b015416331415905083868861424f565b346102655760203660031901126102655760206143db600435615ac7565b6040516001600160a01b039091168152f35b3461026557602080600319360112610265576004359061440b616300565b6000828152600b825260409020600101546001600160a01b03908116331480156145c1575b614439906163a2565b82600052600b825260ff60156040600020015460081c166145865782600052600d825260ff60056040600020015416614531578291600091838352600b82526015604084200161010061ff001982541617905561449584615ac7565b5060046144a185615ac7565b918585526006845260408520926001600160601b0360a01b93848154169055169283855260058152604085208519815401905585855252604083209081541690557fddf252ad1be2c89b69c2b068fc378daa952ba7f163c4a11628f55a4df523b3ef8280a47f4c55d56c6d5ae877d9ec949f0c19f4a20401bbb79d1b387785dcae7a1a6010c0600080a260018055005b60405162461bcd60e51b815260048101839052602760248201527f43616e6e6f742064656c6574652063617220647572696e67206163746976652060448201526630bab1ba34b7b760c91b6064820152608490fd5b60405162461bcd60e51b815260048101839052601360248201527210d85c88185b1c9958591e4819195b195d1959606a1b6044820152606490fd5b5060005481163314614430565b3461026557602080600319360112610265576004356145eb616483565b506000818152600b83526040902060010154614611906001600160a01b03161515616549565b80600052600b825261463160ff60156040600020015460081c161561658a565b600052600b81526146456040600020616622565b90611aad6040519282849384528301906156a3565b3461026557611e49611e4461466e366155ac565b906040519261467c846154b8565b60008452611e34611e2f8433615ce1565b346102655760003660031901126102655760088054600060015b8281111561473e57506146b9906167ea565b91600160005b838211156146d55760405180611aad8782615883565b81600052600b60205260406000209160ff6015840154851c161580614728575b61470b575b6147059192506167db565b906146bf565b61471f8261222261221c61470595926167db565b508291506146fa565b5060018301546001600160a01b031633146146f5565b80600052600b602052604060002060ff6015820154861c16159081614787575b50614772575b61476d906167db565b6146a7565b9061477f61476d916167db565b919050614764565b600101546001600160a01b0316331490508561475e565b346102655760003660031901126102655760006001600854905b8181111561493b57506147ca826158e5565b916147d860405193846154d3565b8083526147e7601f19916158e5565b0160005b81811061490857505060006001905b828211156148675760408051602080825286518183018190528188019383019160005b82811061482a5784840385f35b8551805185528083015185840152604080820151908601526060908101516001600160a01b0316908501529481019460809093019260010161481d565b600093919293905b836000526020600c8152604060002080548410156148f157916148e591614899856148eb95616871565b50604051916148a78361544b565b8154835260018201549083015260028101546040830152600301546001600160a01b031660608201526148da828761683a565b526124a4818661683a565b916167db565b9061486f565b50509261490191509391936167db565b90916147fa565b6020906040516149178161544b565b600081528260008183015260006040830152600060608301528287010152016147eb565b9161495861495e9184600052600c60205260406000205490616864565b926167db565b6147b8565b34610265576040366003190112610265576004356024356001600160401b03811161026557614996903690600401615546565b906149a38251151561688d565b806000526020600b815260ff60156040600020015460081c16614ade576000828152600b825260409020600101546001600160a01b03906149e79082161515616549565b82600052600b8252600160406000200154163314614a9a57600b90614a116103e8855111156168d9565b6001600a54019384600a55614a246160db565b948552338286015260408501524260608501528260005252600f6040600020018054600160401b811015610f6c57614a6191600182018155616918565b611cd35782614a6f9161617f565b339151907fa2a1dee4425c37116291ab4d233678a915201b947533b0d540def4d8fca8d28f600080a4005b6064906040519062461bcd60e51b82526004820152601a60248201527f43616e6e6f742072657669657720796f7572206f776e206361720000000000006044820152fd5b6084906040519062461bcd60e51b82526004820152602160248201527f43617220686173206265656e2064656c657465642066726f6d206c697374696e6044820152606760f81b6064820152fd5b34610265576040366003190112610265576004356024359080600052600b60209080825260018060a01b0390600192614b6f838560406000200154161515616549565b84600052818152614b8e60ff60156040600020015460081c161561658a565b6000928380865b614cdc575b50614ba490616934565b856000528282528085614bbe86600f604060002001616918565b500154163314908115614cce575b5015614c80578460005281815260ff6004614bee85600f604060002001616918565b50015416614c435791614c10916004938660005252600f604060002001616918565b50019060ff198254161790557ffe09911b3ec9652ef94a11286713bd397f2fb090f28c62303451d8040ff62c62600080a3005b6064906040519062461bcd60e51b82526004820152601660248201527514995d9a595dc8185b1c9958591e4819195b195d195960521b6044820152fd5b6084906040519062461bcd60e51b82526004820152602160248201527f4f6e6c79207265766965776572206f722061646d696e2063616e2064656c65746044820152606560f81b6064820152fd5b905060005416331487614bcc565b9694939291908560005283835288600f60406000200180548a1015614d3b57614d068a8392616918565b505414614d2957614d1a88999897986167db565b91929394959697989050614b95565b50949694509192509084614ba4614b9a565b5050909192939496614b9a565b3461026557611e49614d59366155ac565b91614d67611e2f8433615ce1565b615da9565b34610265576060366003190112610265576044356001600160401b03811161026557614d9c903690600401615546565b614da46160db565b50600435600052600b602052614dc860ff60156040600020015460081c161561658a565b600435600052600b6020526001614def60018060a01b038260406000200154161515616549565b614dfb8251151561688d565b614e0a6103e8835111156168d9565b600091602435918380825b6150e4575b50614e2490616934565b600435600052600b602052614e4084600f604060002001616918565b508101546001600160a01b0316331480156150d0575b1561508157600435600052600b60205260ff6004614e7b86600f604060002001616918565b5001541661503c57600435600052600b6020526002614ea185600f604060002001616918565b5001908251906001600160401b038211610f6c57614ebf8354615aea565b601f811161500a575b506020601f8311600114614f9857928280614f7997946124899794611aad9a97600093614f8d575b501b916000199060031b1c19161790555b600435600052600b602052614f1d83600f604060002001616918565b506003429101557fe6bca0b1ae68aa3c3101325a30603b90848b1cb037d020c24548cc433db5e6616040516020815280614f5e6004359460208301906153df565b0390a3600435600052600b602052600f604060002001616918565b604051918291602083526020830190615564565b86015192508b614ef0565b601f929192198216908460005260206000209160005b818110614ff4575092611aad989592614f7998959282612489999610614fdb575b5050811b019055614f01565b85015160001960f88460031b161c191690558980614fcf565b8783015184559285019260209283019201614fae565b61503690846000526020600020601f850160051c81019160208610610f6257601f0160051c019061611f565b86614ec8565b60405162461bcd60e51b815260206004820152601760248201527f52657669657720686173206265656e2064656c657465640000000000000000006044820152606490fd5b60405162461bcd60e51b815260206004820152602160248201527f4f6e6c79207265766965776572206f722061646d696e2063616e2075706461746044820152606560f81b6064820152608490fd5b506000546001600160a01b03163314614e56565b600435600052600b60205284600f604060002001805483101561512f578261510b91616918565b5054146151225761511c83916167db565b90614e15565b9450819050614e24614e1a565b5050614e1a565b346102655760403660031901126102655761514f61541f565b602435906001600160a01b03808061516685615ac7565b169216918083146152615780331490811561523c575b50156151d157600083815260066020526040902080546001600160a01b031916831790556151a983615ac7565b167f8c5be1e5ebec7d5bd14f71427d1e84f3dd0314c0f7b2291e5b200ac8c7c3b925600080a4005b60405162461bcd60e51b815260206004820152603d60248201527f4552433732313a20617070726f76652063616c6c6572206973206e6f7420746f60448201527f6b656e206f776e6572206f7220617070726f76656420666f7220616c6c0000006064820152608490fd5b9050600052600760205260406000203360005260205260ff604060002054168461517c565b60405162461bcd60e51b815260206004820152602160248201527f4552433732313a20617070726f76616c20746f2063757272656e74206f776e656044820152603960f91b6064820152608490fd5b346102655760203660031901126102655760206143db600435615bca565b346102655760003660031901126102655760405160006002546152f081615aea565b80845290600190818116908115613d3f575060011461531957611aad84613cd0818603826154d3565b6002600090815292507f405787fa12a823e0f2b7631cc41b3ba8828b3321ca811111fa75cd3aa3bb5ace5b82841061535c575050508101602001613cd082613cc0565b80546020858701810191909152909301928101615344565b34610265576020366003190112610265576004359063ffffffff60e01b8216809203610265576020916380ac58cd60e01b81149081156153ce575b81156153bd575b5015158152f35b6301ffc9a760e01b149050836153b6565b635b5e139f60e01b811491506153af565b919082519283825260005b84811061540b575050826000602080949584010152601f8019910116010190565b6020818301810151848301820152016153ea565b600435906001600160a01b038216820361026557565b602435906001600160a01b038216820361026557565b608081019081106001600160401b03821117610f6c57604052565b60c081019081106001600160401b03821117610f6c57604052565b6102c081019081106001600160401b03821117610f6c57604052565b60a081019081106001600160401b03821117610f6c57604052565b602081019081106001600160401b03821117610f6c57604052565b90601f801991011681019081106001600160401b03821117610f6c57604052565b6001600160401b038111610f6c57601f01601f191660200190565b92919261551b826154f4565b9161552960405193846154d3565b829481845281830111610265578281602093846000960137010152565b9080601f83011215610265578160206155619335910161550f565b90565b908151815260018060a01b036020830151166020820152608080615597604085015160a0604086015260a08501906153df565b93606081015160608501520151151591015290565b6060906003190112610265576001600160a01b0390600435828116810361026557916024359081168103610265579060443590565b908082519081815260208091019281808460051b8301019501936000915b84831061560f5750505050505090565b909192939495848061562d600193601f198682030187528a516153df565b98019301930191949392906155ff565b6002111561137d57565b908082519081815260208091019281808460051b8301019501936000915b8483106156755750505050505090565b9091929394958480615693600193601f198682030187528a51615564565b9801930193019194939290615665565b908151815260018060a01b0380602084015116602083015261575f61572b6157196157076156f56156e360408901516102c08060408b01528901906153df565b606089015188820360608a01526155e1565b608088015187820360808901526153df565b60a087015186820360a08801526153df565b60c086015185820360c08701526153df565b60e085015160e0850152610100808601519085015261012080860151908501526101408086015190858303908601526153df565b906101608085015190600382101561137d5784015261018080850151906157858261563d565b8401526101a09182850151600481101561137d576157ca6157f2926157de92615852968801526101c080890151908801526101e08089015190888303908901526153df565b6102008088015190878303908801526155e1565b610220808701519086830390870152615647565b6102409182860151928583039086015282511681526080615837615825602085015160a0602086015260a08501906153df565b604085015184820360408601526153df565b926060810151606084015201519060808184039101526153df565b9161026080820151151590830152610280808201511515908301526102a0809101519161587e8361563d565b015290565b602080820190808352835180925260408301928160408460051b8301019501936000915b8483106158b75750505050505090565b90919293949584806158d5600193603f198682030187528a516156a3565b98019301930191949392906158a7565b6001600160401b038111610f6c5760051b60200190565b92919092615909846158e5565b9161591760405193846154d3565b829480845260208094019060051b8301928284116102655780915b84831061594157505050505050565b82356001600160401b0381116102655786916159608684938601615546565b815201920191615932565b9080601f8301121561026557816020615561933591016158fc565b919060a083820312610265576040519061599f8261549d565b909283919080356001600160a01b03811681036102655783526001600160401b0391602082013583811161026557816159d9918401615546565b6020850152604082013583811161026557816159f6918401615546565b604085015260608201356060850152608082013592831161026557608092615a1e9201615546565b910152565b6000546001600160a01b03163303615a3757565b606460405162461bcd60e51b815260206004820152602060248201527f4f776e61626c653a2063616c6c6572206973206e6f7420746865206f776e65726044820152fd5b15615a8257565b60405162461bcd60e51b815260206004820152601860248201527f4552433732313a20696e76616c696420746f6b656e20494400000000000000006044820152606490fd5b6000908152600460205260409020546001600160a01b0316615561811515615a7b565b90600182811c92168015615b1a575b6020831014615b0457565b634e487b7160e01b600052602260045260246000fd5b91607f1691615af9565b9060405191826000825492615b3884615aea565b908184526001948581169081600014615ba75750600114615b64575b5050615b62925003836154d3565b565b9093915060005260209081600020936000915b818310615b8f575050615b6293508201013880615b54565b85548884018501529485019487945091830191615b77565b915050615b6294506020925060ff191682840152151560051b8201013880615b54565b600081815260046020526040902054615bed906001600160a01b03161515615a7b565b6000908152600660205260409020546001600160a01b031690565b15615c0f57565b60405162461bcd60e51b815260206004820152602d60248201527f4552433732313a2063616c6c6572206973206e6f7420746f6b656e206f776e6560448201526c1c881bdc88185c1c1c9bdd9959609a1b6064820152608490fd5b60809060208152603260208201527f4552433732313a207472616e7366657220746f206e6f6e20455243373231526560408201527131b2b4bb32b91034b6b83632b6b2b73a32b960711b60608201520190565b15615cc457565b60405162461bcd60e51b815280615cdd60048201615c6a565b0390fd5b906001600160a01b038080615cf584615ac7565b16931691838314938415615d28575b508315615d12575b50505090565b615d1e91929350615bca565b1614388080615d0c565b909350600052600760205260406000208260005260205260ff604060002054169238615d04565b15615d5657565b60405162461bcd60e51b815260206004820152602560248201527f4552433732313a207472616e736665722066726f6d20696e636f72726563742060448201526437bbb732b960d91b6064820152608490fd5b90615dd191615db784615ac7565b6001600160a01b0393918416928492909183168414615d4f565b16918215615e695781615dee91615de786615ac7565b1614615d4f565b7fddf252ad1be2c89b69c2b068fc378daa952ba7f163c4a11628f55a4df523b3ef60008481526006602052604081206001600160601b0360a01b9081815416905583825260056020526040822060001981540190558482526040822060018154019055858252600460205284604083209182541617905580a4565b60405162461bcd60e51b8152602060048201526024808201527f4552433732313a207472616e7366657220746f20746865207a65726f206164646044820152637265737360e01b6064820152608490fd5b3d15615ee5573d90615ecb826154f4565b91615ed960405193846154d3565b82523d6000602084013e565b606090565b9091600091803b15615fdc57615f356020918493604051948580948193630a85bd0160e11b9a8b845233600485015284602485015260448401526080606484015260848301906153df565b03926001600160a01b03165af190829082615f8d575b5050615f7f57615f59615eba565b80519081615f7a5760405162461bcd60e51b815280615cdd60048201615c6a565b602001fd5b6001600160e01b0319161490565b909192506020813d8211615fd4575b81615fa9602093836154d3565b81010312615fd05751906001600160e01b031982168203615fcd5750903880615f4b565b80fd5b5080fd5b3d9150615f9c565b50505050600190565b91926000929190813b156160565760209161603b9185604051958680958194630a85bd0160e11b9b8c845233600485015260018060a01b03809516602485015260448401526080606484015260848301906153df565b0393165af190829082615f8d575050615f7f57615f59615eba565b5050505050600190565b356001600160a01b03811681036102655790565b903590601e198136030182121561026557018035906001600160401b03821161026557602001918160051b3603831361026557565b903590601e198136030182121561026557018035906001600160401b0382116102655760200191813603831361026557565b604051906160e88261549d565b6000608083828152826020820152606060408201528260608201520152565b600382101561137d5752565b600482101561137d5752565b81811061612a575050565b6000815560010161611f565b6161408154615aea565b908161614a575050565b81601f6000931160011461615c575055565b90808391825261617b601f60208420940160051c84016001850161611f565b5555565b8151815560019182820160209060018060a01b0382840151166001600160601b0360a01b82541617905560028301906040830151948551916001600160401b038311610f6c576161cf8454615aea565b601f81116162af575b5080601f841160011461623b57509180806080959360049795615b629a600094616230575b50501b916000199060031b1c19161790555b606081015160038501550151151591019060ff801983541691151516179055565b0151925038806161fd565b9193949596601f1984168660005283600020936000905b82821061629857505092608095928592615b629a9996600499961061627f575b505050811b01905561620f565b015160001960f88460031b161c19169055388080616272565b808886978294978701518155019601940190616252565b6162d9908560005282600020601f860160051c810191848710610f6257601f0160051c019061611f565b386161d8565b908060209392818452848401376000828201840152601f01601f1916010190565b600260015414616311576002600155565b60405162461bcd60e51b815260206004820152601f60248201527f5265656e7472616e637947756172643a207265656e7472616e742063616c6c006044820152606490fd5b1561635d57565b60405162461bcd60e51b815260206004820152601c60248201527f4552433732313a20746f6b656e20616c7265616479206d696e746564000000006044820152606490fd5b156163a957565b60405162461bcd60e51b815260206004820152600c60248201526b155b985d5d1a1bdc9a5e995960a21b6044820152606490fd5b906040516163ea8161549d565b608060ff600483958054855260018060a01b03600182015416602086015261641460028201615b24565b6040860152600381015460608601520154161515910152565b908154616439816158e5565b9261644760405194856154d3565b818452600090815260208082208186015b848410616466575050505050565b600583600192616475856163dd565b815201920193019290616458565b6040519061649082615481565b816102a0600091828152826020820152606080604083015280808301528060808301528060a08301528060c08301528360e08301528361010083015283610120830152806101408301528361016083015283610180830152836101a0830152836101c0830152806101e08301528061020083015280610220830152604051906165188261549d565b8482528060208301528060408301528481830152608082015261024082015282610260820152826102808201520152565b1561655057565b60405162461bcd60e51b815260206004820152601260248201527110d85c88191bd95cc81b9bdd08195e1a5cdd60721b6044820152606490fd5b1561659157565b60405162461bcd60e51b815260206004820152601460248201527310d85c881a185cc81899595b8819195b195d195960621b6044820152606490fd5b9081546165d9816158e5565b926165e760405194856154d3565b818452600090815260208082208186015b848410616606575050505050565b600183819261661485615b24565b8152019201930192906165f8565b9060405161662f81615481565b6102a0819380548352601560018060a01b039182600182015416602086015261665a60028201615b24565b604086015261666b600382016165cd565b606086015261667c60048201615b24565b608086015261668d60058201615b24565b60a086015261669e60068201615b24565b60c0860152600781015460e0860152600881015461010086015260098101546101208601526166cf600a8201615b24565b610140860152600b8101549261671560ff856166f2828098166101608b01616107565b818160081c166167018161563d565b6101808a015260101c166101a08801616113565b600c8201546101c087015261672c600d8301615b24565b6101e087015261673e600e83016165cd565b610200870152616750600f830161642d565b610220870152604051906167638261549d565b601083015416815261677760118301615b24565b602082015261678860128301615b24565b6040820152601382015460608201526167a360148301615b24565b608082015261024086015201548181161515610260850152818160081c16151561028085015260101c16916167d78361563d565b0152565b600019811461116d5760010190565b906167f4826158e5565b61680160405191826154d3565b8281528092616812601f19916158e5565b019060005b82811061682357505050565b60209061682e616483565b82828501015201616817565b805182101561684e5760209160051b010190565b634e487b7160e01b600052603260045260246000fd5b9190820180921161116d57565b805482101561684e5760005260206000209060021b0190600090565b1561689457565b60405162461bcd60e51b815260206004820152601760248201527f436f6d6d656e742063616e6e6f7420626520656d7074790000000000000000006044820152606490fd5b156168e057565b60405162461bcd60e51b815260206004820152601060248201526f436f6d6d656e7420746f6f206c6f6e6760801b6044820152606490fd5b805482101561684e576000526005602060002091020190600090565b1561693b57565b60405162461bcd60e51b815260206004820152601060248201526f14995d9a595dc81b9bdd08199bdd5b9960821b6044820152606490fd5b6000918291829182916001600160a01b03165af161698f615eba565b501561699757565b60405162461bcd60e51b815260206004820152600f60248201526e151c985b9cd9995c8819985a5b1959608a1b6044820152606490fd5b156169d557565b60405162461bcd60e51b815260206004820152601060248201526f10d85c88185b1c9958591e481cdbdb1960821b6044820152606490fd5b15616a1457565b60405162461bcd60e51b815260206004820152601a60248201527f436172206e6f74206c697374656420666f722061756374696f6e0000000000006044820152606490fd5b15616a6057565b60405162461bcd60e51b815260206004820152601260248201527141756374696f6e206e6f742061637469766560701b6044820152606490fdfea2646970667358221220fe17582d428f3fbbba42e57dce0c8b02fa594274456698545297d2a05641357f64736f6c63430008130033",
  "linkReferences": {},
  "deployedLinkReferences": {}
}