{
  "_format": "hh-sol-artifact-1",
  "contractName": "HemDealer",
  "sourceName": "contracts/HemDealer.sol",
  "abi": [
    {
      "inputs": [
        {
          "internalType": "string",
          "name": "name",
          "type": "string"
        },
        {
          "internalType": "string",
          "name": "symbol",
          "type": "string"
        }
      ],
      "stateMutability": "nonpayable",
      "type": "constructor"
    },
    {
      "anonymous": false,
      "inputs": [
        {
          "indexed": true,
          "internalType": "address",
          "name": "owner",
          "type": "address"
        },
        {
          "indexed": true,
          "internalType": "address",
          "name": "approved",
          "type": "address"
        },
        {
          "indexed": true,
          "internalType": "uint256",
          "name": "tokenId",
          "type": "uint256"
        }
      ],
      "name": "Approval",
      "type": "event"
    },
    {
      "anonymous": false,
      "inputs": [
        {
          "indexed": true,
          "internalType": "address",
          "name": "owner",
          "type": "address"
        },
        {
          "indexed": true,
          "internalType": "address",
          "name": "operator",
          "type": "address"
        },
        {
          "indexed": false,
          "internalType": "bool",
          "name": "approved",
          "type": "bool"
        }
      ],
      "name": "ApprovalForAll",
      "type": "event"
    },
    {
      "anonymous": false,
      "inputs": [
        {
          "indexed": true,
          "internalType": "uint256",
          "name": "carId",
          "type": "uint256"
        },
        {
          "indexed": true,
          "internalType": "address",
          "name": "owner",
          "type": "address"
        }
      ],
      "name": "CarDeleted",
      "type": "event"
    },
    {
      "anonymous": false,
      "inputs": [
        {
          "indexed": true,
          "internalType": "uint256",
          "name": "carId",
          "type": "uint256"
        },
        {
          "indexed": true,
          "internalType": "address",
          "name": "seller",
          "type": "address"
        },
        {
          "indexed": false,
          "internalType": "uint256",
          "name": "price",
          "type": "uint256"
        }
      ],
      "name": "CarListed",
      "type": "event"
    },
    {
      "anonymous": false,
      "inputs": [
        {
          "indexed": true,
          "internalType": "uint256",
          "name": "carId",
          "type": "uint256"
        },
        {
          "indexed": true,
          "internalType": "address",
          "name": "seller",
          "type": "address"
        },
        {
          "indexed": true,
          "internalType": "address",
          "name": "buyer",
          "type": "address"
        },
        {
          "indexed": false,
          "internalType": "uint256",
          "name": "price",
          "type": "uint256"
        }
      ],
      "name": "CarSold",
      "type": "event"
    },
    {
      "anonymous": false,
      "inputs": [
        {
          "indexed": true,
          "internalType": "uint256",
          "name": "carId",
          "type": "uint256"
        },
        {
          "indexed": true,
          "internalType": "address",
          "name": "owner",
          "type": "address"
        }
      ],
      "name": "CarUpdated",
      "type": "event"
    },
    {
      "anonymous": false,
      "inputs": [
        {
          "indexed": true,
          "internalType": "address",
          "name": "handler",
          "type": "address"
        }
      ],
      "name": "CrossChainHandlerSet",
      "type": "event"
    },
    {
      "anonymous": false,
      "inputs": [
        {
          "indexed": true,
          "internalType": "address",
          "name": "previousOwner",
          "type": "address"
        },
        {
          "indexed": true,
          "internalType": "address",
          "name": "newOwner",
          "type": "address"
        }
      ],
      "name": "OwnershipTransferred",
      "type": "event"
    },
    {
      "anonymous": false,
      "inputs": [
        {
          "indexed": true,
          "internalType": "address",
          "name": "from",
          "type": "address"
        },
        {
          "indexed": true,
          "internalType": "address",
          "name": "to",
          "type": "address"
        },
        {
          "indexed": true,
          "internalType": "uint256",
          "name": "tokenId",
          "type": "uint256"
        }
      ],
      "name": "Transfer",
      "type": "event"
    },
    {
      "inputs": [
        {
          "internalType": "address",
          "name": "to",
          "type": "address"
        },
        {
          "internalType": "uint256",
          "name": "tokenId",
          "type": "uint256"
        }
      ],
      "name": "approve",
      "outputs": [],
      "stateMutability": "nonpayable",
      "type": "function"
    },
    {
      "inputs": [
        {
          "internalType": "address",
          "name": "owner",
          "type": "address"
        }
      ],
      "name": "balanceOf",
      "outputs": [
        {
          "internalType": "uint256",
          "name": "",
          "type": "uint256"
        }
      ],
      "stateMutability": "view",
      "type": "function"
    },
    {
      "inputs": [
        {
          "internalType": "uint256",
          "name": "carId",
          "type": "uint256"
        },
        {
          "internalType": "uint256",
          "name": "relayerFeePct",
          "type": "uint256"
        },
        {
          "internalType": "uint256",
          "name": "quoteTimestamp",
          "type": "uint256"
        }
      ],
      "name": "buyCar",
      "outputs": [],
      "stateMutability": "payable",
      "type": "function"
    },
    {
      "inputs": [],
      "name": "crossChainHandler",
      "outputs": [
        {
          "internalType": "contract HemDealerCrossChain",
          "name": "",
          "type": "address"
        }
      ],
      "stateMutability": "view",
      "type": "function"
    },
    {
      "inputs": [
        {
          "internalType": "uint256",
          "name": "newCarId",
          "type": "uint256"
        }
      ],
      "name": "deleteCar",
      "outputs": [],
      "stateMutability": "nonpayable",
      "type": "function"
    },
    {
      "inputs": [],
      "name": "getAllCars",
      "outputs": [
        {
          "components": [
            {
              "internalType": "uint256",
              "name": "id",
              "type": "uint256"
            },
            {
              "internalType": "address",
              "name": "owner",
              "type": "address"
            },
            {
              "internalType": "string",
              "name": "name",
              "type": "string"
            },
            {
              "internalType": "string[]",
              "name": "images",
              "type": "string[]"
            },
            {
              "internalType": "string",
              "name": "description",
              "type": "string"
            },
            {
              "internalType": "string",
              "name": "make",
              "type": "string"
            },
            {
              "internalType": "string",
              "name": "model",
              "type": "string"
            },
            {
              "internalType": "uint256",
              "name": "year",
              "type": "uint256"
            },
            {
              "internalType": "uint256",
              "name": "vin",
              "type": "uint256"
            },
            {
              "internalType": "uint256",
              "name": "mileage",
              "type": "uint256"
            },
            {
              "internalType": "string",
              "name": "color",
              "type": "string"
            },
            {
              "internalType": "enum HemDealer.CarCondition",
              "name": "condition",
              "type": "uint8"
            },
            {
              "internalType": "enum HemDealer.CarTransmission",
              "name": "transmission",
              "type": "uint8"
            },
            {
              "internalType": "enum HemDealer.FuelType",
              "name": "fuelType",
              "type": "uint8"
            },
            {
              "internalType": "uint256",
              "name": "price",
              "type": "uint256"
            },
            {
              "internalType": "string",
              "name": "location",
              "type": "string"
            },
            {
              "internalType": "string[]",
              "name": "features",
              "type": "string[]"
            },
            {
              "components": [
                {
                  "internalType": "address",
                  "name": "wallet",
                  "type": "address"
                },
                {
                  "internalType": "string",
                  "name": "sellerName",
                  "type": "string"
                },
                {
                  "internalType": "string",
                  "name": "email",
                  "type": "string"
                },
                {
                  "internalType": "uint256",
                  "name": "phoneNumber",
                  "type": "uint256"
                },
                {
                  "internalType": "string",
                  "name": "profileImage",
                  "type": "string"
                }
              ],
              "internalType": "struct HemDealer.SellerDetails",
              "name": "seller",
              "type": "tuple"
            },
            {
              "internalType": "bool",
              "name": "sold",
              "type": "bool"
            },
            {
              "internalType": "bool",
              "name": "deleted",
              "type": "bool"
            },
            {
              "internalType": "uint256",
              "name": "destinationChainId",
              "type": "uint256"
            },
            {
              "internalType": "address",
              "name": "paymentToken",
              "type": "address"
            },
            {
              "internalType": "uint256",
              "name": "sourceChainId",
              "type": "uint256"
            }
          ],
          "internalType": "struct HemDealer.CarStruct[]",
          "name": "",
          "type": "tuple[]"
        }
      ],
      "stateMutability": "view",
      "type": "function"
    },
    {
      "inputs": [],
      "name": "getAllSales",
      "outputs": [
        {
          "components": [
            {
              "internalType": "uint256",
              "name": "id",
              "type": "uint256"
            },
            {
              "internalType": "uint256",
              "name": "newCarId",
              "type": "uint256"
            },
            {
              "internalType": "uint256",
              "name": "price",
              "type": "uint256"
            },
            {
              "internalType": "address",
              "name": "owner",
              "type": "address"
            }
          ],
          "internalType": "struct HemDealer.SalesStruct[]",
          "name": "",
          "type": "tuple[]"
        }
      ],
      "stateMutability": "view",
      "type": "function"
    },
    {
      "inputs": [
        {
          "internalType": "uint256",
          "name": "tokenId",
          "type": "uint256"
        }
      ],
      "name": "getApproved",
      "outputs": [
        {
          "internalType": "address",
          "name": "",
          "type": "address"
        }
      ],
      "stateMutability": "view",
      "type": "function"
    },
    {
      "inputs": [
        {
          "internalType": "uint256",
          "name": "newCarId",
          "type": "uint256"
        }
      ],
      "name": "getCar",
      "outputs": [
        {
          "components": [
            {
              "internalType": "uint256",
              "name": "id",
              "type": "uint256"
            },
            {
              "internalType": "address",
              "name": "owner",
              "type": "address"
            },
            {
              "internalType": "string",
              "name": "name",
              "type": "string"
            },
            {
              "internalType": "string[]",
              "name": "images",
              "type": "string[]"
            },
            {
              "internalType": "string",
              "name": "description",
              "type": "string"
            },
            {
              "internalType": "string",
              "name": "make",
              "type": "string"
            },
            {
              "internalType": "string",
              "name": "model",
              "type": "string"
            },
            {
              "internalType": "uint256",
              "name": "year",
              "type": "uint256"
            },
            {
              "internalType": "uint256",
              "name": "vin",
              "type": "uint256"
            },
            {
              "internalType": "uint256",
              "name": "mileage",
              "type": "uint256"
            },
            {
              "internalType": "string",
              "name": "color",
              "type": "string"
            },
            {
              "internalType": "enum HemDealer.CarCondition",
              "name": "condition",
              "type": "uint8"
            },
            {
              "internalType": "enum HemDealer.CarTransmission",
              "name": "transmission",
              "type": "uint8"
            },
            {
              "internalType": "enum HemDealer.FuelType",
              "name": "fuelType",
              "type": "uint8"
            },
            {
              "internalType": "uint256",
              "name": "price",
              "type": "uint256"
            },
            {
              "internalType": "string",
              "name": "location",
              "type": "string"
            },
            {
              "internalType": "string[]",
              "name": "features",
              "type": "string[]"
            },
            {
              "components": [
                {
                  "internalType": "address",
                  "name": "wallet",
                  "type": "address"
                },
                {
                  "internalType": "string",
                  "name": "sellerName",
                  "type": "string"
                },
                {
                  "internalType": "string",
                  "name": "email",
                  "type": "string"
                },
                {
                  "internalType": "uint256",
                  "name": "phoneNumber",
                  "type": "uint256"
                },
                {
                  "internalType": "string",
                  "name": "profileImage",
                  "type": "string"
                }
              ],
              "internalType": "struct HemDealer.SellerDetails",
              "name": "seller",
              "type": "tuple"
            },
            {
              "internalType": "bool",
              "name": "sold",
              "type": "bool"
            },
            {
              "internalType": "bool",
              "name": "deleted",
              "type": "bool"
            },
            {
              "internalType": "uint256",
              "name": "destinationChainId",
              "type": "uint256"
            },
            {
              "internalType": "address",
              "name": "paymentToken",
              "type": "address"
            },
            {
              "internalType": "uint256",
              "name": "sourceChainId",
              "type": "uint256"
            }
          ],
          "internalType": "struct HemDealer.CarStruct",
          "name": "",
          "type": "tuple"
        }
      ],
      "stateMutability": "view",
      "type": "function"
    },
    {
      "inputs": [],
      "name": "getMyCars",
      "outputs": [
        {
          "components": [
            {
              "internalType": "uint256",
              "name": "id",
              "type": "uint256"
            },
            {
              "internalType": "address",
              "name": "owner",
              "type": "address"
            },
            {
              "internalType": "string",
              "name": "name",
              "type": "string"
            },
            {
              "internalType": "string[]",
              "name": "images",
              "type": "string[]"
            },
            {
              "internalType": "string",
              "name": "description",
              "type": "string"
            },
            {
              "internalType": "string",
              "name": "make",
              "type": "string"
            },
            {
              "internalType": "string",
              "name": "model",
              "type": "string"
            },
            {
              "internalType": "uint256",
              "name": "year",
              "type": "uint256"
            },
            {
              "internalType": "uint256",
              "name": "vin",
              "type": "uint256"
            },
            {
              "internalType": "uint256",
              "name": "mileage",
              "type": "uint256"
            },
            {
              "internalType": "string",
              "name": "color",
              "type": "string"
            },
            {
              "internalType": "enum HemDealer.CarCondition",
              "name": "condition",
              "type": "uint8"
            },
            {
              "internalType": "enum HemDealer.CarTransmission",
              "name": "transmission",
              "type": "uint8"
            },
            {
              "internalType": "enum HemDealer.FuelType",
              "name": "fuelType",
              "type": "uint8"
            },
            {
              "internalType": "uint256",
              "name": "price",
              "type": "uint256"
            },
            {
              "internalType": "string",
              "name": "location",
              "type": "string"
            },
            {
              "internalType": "string[]",
              "name": "features",
              "type": "string[]"
            },
            {
              "components": [
                {
                  "internalType": "address",
                  "name": "wallet",
                  "type": "address"
                },
                {
                  "internalType": "string",
                  "name": "sellerName",
                  "type": "string"
                },
                {
                  "internalType": "string",
                  "name": "email",
                  "type": "string"
                },
                {
                  "internalType": "uint256",
                  "name": "phoneNumber",
                  "type": "uint256"
                },
                {
                  "internalType": "string",
                  "name": "profileImage",
                  "type": "string"
                }
              ],
              "internalType": "struct HemDealer.SellerDetails",
              "name": "seller",
              "type": "tuple"
            },
            {
              "internalType": "bool",
              "name": "sold",
              "type": "bool"
            },
            {
              "internalType": "bool",
              "name": "deleted",
              "type": "bool"
            },
            {
              "internalType": "uint256",
              "name": "destinationChainId",
              "type": "uint256"
            },
            {
              "internalType": "address",
              "name": "paymentToken",
              "type": "address"
            },
            {
              "internalType": "uint256",
              "name": "sourceChainId",
              "type": "uint256"
            }
          ],
          "internalType": "struct HemDealer.CarStruct[]",
          "name": "",
          "type": "tuple[]"
        }
      ],
      "stateMutability": "view",
      "type": "function"
    },
    {
      "inputs": [
        {
          "internalType": "address",
          "name": "owner",
          "type": "address"
        },
        {
          "internalType": "address",
          "name": "operator",
          "type": "address"
        }
      ],
      "name": "isApprovedForAll",
      "outputs": [
        {
          "internalType": "bool",
          "name": "",
          "type": "bool"
        }
      ],
      "stateMutability": "view",
      "type": "function"
    },
    {
      "inputs": [
        {
          "components": [
            {
              "internalType": "string",
              "name": "name",
              "type": "string"
            },
            {
              "internalType": "string[]",
              "name": "images",
              "type": "string[]"
            },
            {
              "internalType": "string",
              "name": "description",
              "type": "string"
            },
            {
              "internalType": "string",
              "name": "make",
              "type": "string"
            },
            {
              "internalType": "string",
              "name": "model",
              "type": "string"
            },
            {
              "internalType": "uint256",
              "name": "year",
              "type": "uint256"
            },
            {
              "internalType": "uint256",
              "name": "vin",
              "type": "uint256"
            }
          ],
          "internalType": "struct HemDealer.CarBasicDetails",
          "name": "basicDetails",
          "type": "tuple"
        },
        {
          "components": [
            {
              "internalType": "uint256",
              "name": "mileage",
              "type": "uint256"
            },
            {
              "internalType": "string",
              "name": "color",
              "type": "string"
            },
            {
              "internalType": "enum HemDealer.CarCondition",
              "name": "condition",
              "type": "uint8"
            },
            {
              "internalType": "enum HemDealer.CarTransmission",
              "name": "transmission",
              "type": "uint8"
            },
            {
              "internalType": "enum HemDealer.FuelType",
              "name": "fuelType",
              "type": "uint8"
            },
            {
              "internalType": "uint256",
              "name": "price",
              "type": "uint256"
            }
          ],
          "internalType": "struct HemDealer.CarTechnicalDetails",
          "name": "technicalDetails",
          "type": "tuple"
        },
        {
          "components": [
            {
              "internalType": "string",
              "name": "location",
              "type": "string"
            },
            {
              "internalType": "string",
              "name": "carHistory",
              "type": "string"
            },
            {
              "internalType": "string[]",
              "name": "features",
              "type": "string[]"
            }
          ],
          "internalType": "struct HemDealer.CarAdditionalInfo",
          "name": "additionalInfo",
          "type": "tuple"
        },
        {
          "components": [
            {
              "internalType": "address",
              "name": "wallet",
              "type": "address"
            },
            {
              "internalType": "string",
              "name": "sellerName",
              "type": "string"
            },
            {
              "internalType": "string",
              "name": "email",
              "type": "string"
            },
            {
              "internalType": "uint256",
              "name": "phoneNumber",
              "type": "uint256"
            },
            {
              "internalType": "string",
              "name": "profileImage",
              "type": "string"
            }
          ],
          "internalType": "struct HemDealer.SellerDetails",
          "name": "sellerDetails",
          "type": "tuple"
        },
        {
          "internalType": "uint256",
          "name": "destinationChainId",
          "type": "uint256"
        },
        {
          "internalType": "address",
          "name": "paymentToken",
          "type": "address"
        }
      ],
      "name": "listCar",
      "outputs": [],
      "stateMutability": "nonpayable",
      "type": "function"
    },
    {
      "inputs": [],
      "name": "name",
      "outputs": [
        {
          "internalType": "string",
          "name": "",
          "type": "string"
        }
      ],
      "stateMutability": "view",
      "type": "function"
    },
    {
      "inputs": [],
      "name": "owner",
      "outputs": [
        {
          "internalType": "address",
          "name": "",
          "type": "address"
        }
      ],
      "stateMutability": "view",
      "type": "function"
    },
    {
      "inputs": [
        {
          "internalType": "uint256",
          "name": "tokenId",
          "type": "uint256"
        }
      ],
      "name": "ownerOf",
      "outputs": [
        {
          "internalType": "address",
          "name": "",
          "type": "address"
        }
      ],
      "stateMutability": "view",
      "type": "function"
    },
    {
      "inputs": [],
      "name": "renounceOwnership",
      "outputs": [],
      "stateMutability": "nonpayable",
      "type": "function"
    },
    {
      "inputs": [
        {
          "internalType": "address",
          "name": "from",
          "type": "address"
        },
        {
          "internalType": "address",
          "name": "to",
          "type": "address"
        },
        {
          "internalType": "uint256",
          "name": "tokenId",
          "type": "uint256"
        }
      ],
      "name": "safeTransferFrom",
      "outputs": [],
      "stateMutability": "nonpayable",
      "type": "function"
    },
    {
      "inputs": [
        {
          "internalType": "address",
          "name": "from",
          "type": "address"
        },
        {
          "internalType": "address",
          "name": "to",
          "type": "address"
        },
        {
          "internalType": "uint256",
          "name": "tokenId",
          "type": "uint256"
        },
        {
          "internalType": "bytes",
          "name": "data",
          "type": "bytes"
        }
      ],
      "name": "safeTransferFrom",
      "outputs": [],
      "stateMutability": "nonpayable",
      "type": "function"
    },
    {
      "inputs": [
        {
          "internalType": "address",
          "name": "operator",
          "type": "address"
        },
        {
          "internalType": "bool",
          "name": "approved",
          "type": "bool"
        }
      ],
      "name": "setApprovalForAll",
      "outputs": [],
      "stateMutability": "nonpayable",
      "type": "function"
    },
    {
      "inputs": [
        {
          "internalType": "address payable",
          "name": "_handler",
          "type": "address"
        }
      ],
      "name": "setCrossChainHandler",
      "outputs": [],
      "stateMutability": "nonpayable",
      "type": "function"
    },
    {
      "inputs": [
        {
          "internalType": "bytes4",
          "name": "interfaceId",
          "type": "bytes4"
        }
      ],
      "name": "supportsInterface",
      "outputs": [
        {
          "internalType": "bool",
          "name": "",
          "type": "bool"
        }
      ],
      "stateMutability": "view",
      "type": "function"
    },
    {
      "inputs": [],
      "name": "symbol",
      "outputs": [
        {
          "internalType": "string",
          "name": "",
          "type": "string"
        }
      ],
      "stateMutability": "view",
      "type": "function"
    },
    {
      "inputs": [
        {
          "internalType": "uint256",
          "name": "tokenId",
          "type": "uint256"
        }
      ],
      "name": "tokenURI",
      "outputs": [
        {
          "internalType": "string",
          "name": "",
          "type": "string"
        }
      ],
      "stateMutability": "view",
      "type": "function"
    },
    {
      "inputs": [
        {
          "internalType": "address",
          "name": "from",
          "type": "address"
        },
        {
          "internalType": "address",
          "name": "to",
          "type": "address"
        },
        {
          "internalType": "uint256",
          "name": "tokenId",
          "type": "uint256"
        }
      ],
      "name": "transferFrom",
      "outputs": [],
      "stateMutability": "nonpayable",
      "type": "function"
    },
    {
      "inputs": [
        {
          "internalType": "address",
          "name": "newOwner",
          "type": "address"
        }
      ],
      "name": "transferOwnership",
      "outputs": [],
      "stateMutability": "nonpayable",
      "type": "function"
    },
    {
      "inputs": [
        {
          "internalType": "uint256",
          "name": "newCarId",
          "type": "uint256"
        },
        {
          "components": [
            {
              "internalType": "string",
              "name": "name",
              "type": "string"
            },
            {
              "internalType": "string[]",
              "name": "images",
              "type": "string[]"
            },
            {
              "internalType": "string",
              "name": "description",
              "type": "string"
            },
            {
              "internalType": "string",
              "name": "make",
              "type": "string"
            },
            {
              "internalType": "string",
              "name": "model",
              "type": "string"
            },
            {
              "internalType": "uint256",
              "name": "year",
              "type": "uint256"
            },
            {
              "internalType": "uint256",
              "name": "vin",
              "type": "uint256"
            }
          ],
          "internalType": "struct HemDealer.CarBasicDetails",
          "name": "basicDetails",
          "type": "tuple"
        },
        {
          "components": [
            {
              "internalType": "uint256",
              "name": "mileage",
              "type": "uint256"
            },
            {
              "internalType": "string",
              "name": "color",
              "type": "string"
            },
            {
              "internalType": "enum HemDealer.CarCondition",
              "name": "condition",
              "type": "uint8"
            },
            {
              "internalType": "enum HemDealer.CarTransmission",
              "name": "transmission",
              "type": "uint8"
            },
            {
              "internalType": "enum HemDealer.FuelType",
              "name": "fuelType",
              "type": "uint8"
            },
            {
              "internalType": "uint256",
              "name": "price",
              "type": "uint256"
            }
          ],
          "internalType": "struct HemDealer.CarTechnicalDetails",
          "name": "technicalDetails",
          "type": "tuple"
        },
        {
          "components": [
            {
              "internalType": "string",
              "name": "location",
              "type": "string"
            },
            {
              "internalType": "string",
              "name": "carHistory",
              "type": "string"
            },
            {
              "internalType": "string[]",
              "name": "features",
              "type": "string[]"
            }
          ],
          "internalType": "struct HemDealer.CarAdditionalInfo",
          "name": "additionalInfo",
          "type": "tuple"
        },
        {
          "components": [
            {
              "internalType": "address",
              "name": "wallet",
              "type": "address"
            },
            {
              "internalType": "string",
              "name": "sellerName",
              "type": "string"
            },
            {
              "internalType": "string",
              "name": "email",
              "type": "string"
            },
            {
              "internalType": "uint256",
              "name": "phoneNumber",
              "type": "uint256"
            },
            {
              "internalType": "string",
              "name": "profileImage",
              "type": "string"
            }
          ],
          "internalType": "struct HemDealer.SellerDetails",
          "name": "sellerDetails",
          "type": "tuple"
        }
      ],
      "name": "updateCar",
      "outputs": [],
      "stateMutability": "nonpayable",
      "type": "function"
    }
  ],
  "bytecode": "0x6080604052346200038957620053dd803803806200001d816200038e565b928339810190604081830312620003895780516001600160401b03908181116200038957836200004f918401620003ca565b916020938482015183811162000389576200006b9201620003ca565b60008054336001600160a01b031982168117835591949291906001600160a01b03167f8be0079c531659141344cd1fd0a4f28419497f9722a3daafe3b4186f6b6457e08680a381519383851162000293576001948554938685811c951680156200037e575b888610146200036a578190601f9586811162000317575b508890868311600114620002b3578492620002a7575b5050600019600383901b1c191690861b1785555b815193841162000293576002548581811c9116801562000288575b8782101462000274578381116200022b575b5085928411600114620001c55791839491849394620001b9575b50501b916000199060031b1c1916176002555b33156200018257604051614fa090816200043d8239f35b6064906040519062461bcd60e51b82526004820152601060248201526f24b73b30b634b2103232b83637bcb2b960811b6044820152fd5b01519250388062000158565b919083601f19811660028552878520945b8888838310620002135750505010620001f9575b505050811b016002556200016b565b015160001960f88460031b161c19169055388080620001ea565b868601518855909601959485019487935001620001d6565b600282528682208480870160051c8201928988106200026a575b0160051c019086905b8281106200025e5750506200013e565b8381550186906200024e565b9250819262000245565b634e487b7160e01b82526022600452602482fd5b90607f16906200012c565b634e487b7160e01b81526041600452602490fd5b015190503880620000fd565b8885528985208994509190601f198416865b8c828210620003005750508411620002e6575b505050811b01855562000111565b015160001960f88460031b161c19169055388080620002d8565b8385015186558c97909501949384019301620002c5565b9091508784528884208680850160051c8201928b861062000360575b918a91869594930160051c01915b82811062000351575050620000e7565b8681558594508a910162000341565b9250819262000333565b634e487b7160e01b83526022600452602483fd5b94607f1694620000d0565b600080fd5b6040519190601f01601f191682016001600160401b03811183821017620003b457604052565b634e487b7160e01b600052604160045260246000fd5b919080601f84011215620003895782516001600160401b038111620003b45760209062000400601f8201601f191683016200038e565b92818452828287010111620003895760005b8181106200042857508260009394955001015290565b85810183015184820184015282016200041256fe61022080604052600436101561001457600080fd5b600090813560e01c90816301ffc9a714613db05750806306fdde0314613d0c578063081812fc14613ced578063095ea7b314613b785780630d5d841a1461261a57806323b872dd146125f55780633339691714612412578063341fa05d1461230957806342842e0e146122d65780635e8be19014612250578063600980881461211d5780636352211e146120ec5780636bfa74c314610b8757806370a0823114610af1578063715018a614610a975780638da5cb5b14610a7057806395d89b411461098b57806396cc304f1461091f578063a22cb46514610842578063abfe5d571461075e578063b88d4fde146106d5578063c87b56dd14610663578063d03703f51461063a578063e13db45a1461025c578063e985e9c5146102085763f2fde38b1461014057600080fd5b3461020557602036600319011261020557610159613e5d565b6101616143d5565b6001600160a01b039081169081156101b157600054826001600160601b0360a01b821617600055167f8be0079c531659141344cd1fd0a4f28419497f9722a3daafe3b4186f6b6457e0600080a380f35b60405162461bcd60e51b815260206004820152602660248201527f4f776e61626c653a206e6577206f776e657220697320746865207a65726f206160448201526564647265737360d01b6064820152608490fd5b80fd5b503461020557604036600319011261020557610222613e5d565b604061022c613e78565b9260018060a01b0380931681526006602052209116600052602052602060ff604060002054166040519015158152f35b506060366003190112610205576004358082526020906009825260018060a01b03906001916102948184604088200154161515614c26565b818552600984526102b260ff601460408820015460081c1615614c67565b81855260098452604085206014810193845460ff8116158061062b575b156105f357600c830195865434106105b7576102f18560168601541615614a0b565b6015840180549092849146146104ea5750505083600b54169084600f85015416918154813b156104e6576040519363757d6d9b60e01b855234600486015260248501526044840152602435928360648201528a8160a4816044359586608483015234905af180156104db576104c4575b50600b5491548a9392871691823b156104c057888580946084936040519788968795635aa50c6b60e11b875260048701526024860152604485015260648401525af180156104b55761049d575b50505b806008540180600855848852600a87526040882091865490604051926103d684613ec0565b8352888301878152604084019283526060840194338652805490600160401b821015610489579061040b918482018155614f4e565b9490946104755751845551908301555160028201559051600390910180546001600160a01b031916918416919091179055600f01549254604051908152339493909116927f8205a71867f7292bcef9e53d4774758d6173b03f63017dec9a03a6664b429dc591a480f35b634e487b7160e01b8c5260048c905260248cfd5b634e487b7160e01b8d52604160045260248dfd5b6104a690613edb565b6104b15786386103ae565b8680fd5b6040513d84823e3d90fd5b8480fd5b6104d2909a9193929a613edb565b98909138610361565b6040513d8d823e3d90fd5b8a80fd5b9091925060ff1916179055808201336001600160601b0360a01b82541617905582600f830161051d86338484541661475b565b5416801561057257878080809334905af161053661486c565b506103b15760405162461bcd60e51b815260048101879052600f60248201526e151c985b9cd9995c8819985a5b1959608a1b6044820152606490fd5b60405162461bcd60e51b815260048101889052601a60248201527f43616e6e6f742070617920746f207a65726f20616464726573730000000000006044820152606490fd5b60405162461bcd60e51b8152600481018990526014602482015273125b9cdd59999a58da595b9d081c185e5b595b9d60621b6044820152606490fd5b60405162461bcd60e51b815260048101889052601060248201526f496e76616c696420707572636861736560801b6044820152606490fd5b508382840154163314156102cf565b5034610205578060031936011261020557600b546040516001600160a01b039091168152602090f35b5034610205576020366003190112610205576004356000908152600360205260409020546106d191906106a0906001600160a01b0316151561442d565b806040516106ad81613f09565b52604051906106bb82613f09565b8152604051918291602083526020830190613e1d565b0390f35b5034610205576080366003190112610205576106ef613e5d565b6106f7613e78565b90606435906044356001600160401b0383116104c057366023840112156104c05761075b93610733610756943690602481600401359101613f60565b926107466107418433614693565b6145ba565b61075183838361475b565b614990565b61466f565b80f35b50346102055780600319360112610205576007548160015b82811115610803575061078890614ed4565b918060015b838111156107a357604051806106d18782614373565b80825260096020526040822060ff601482015460081c16156107cf575b506107ca90614eaf565b61078d565b92906107fc826107eb6107e56107ca9592614eaf565b96614cff565b6107f5828a614f24565b5287614f24565b50906107c0565b808452600960205260ff601460408620015460081c161561082d575b61082890614eaf565b610776565b9061083a61082891614eaf565b91905061081f565b50346102055760403660031901126102055761085c613e5d565b602435908115159081830361091b576001600160a01b0316913383146108d6576108a790338552600660205260408520848652602052604085209060ff801983541691151516179055565b6040519081527f17307eab39ab6107e8899845ad3d59bd9653f200f220920489ca2b5937696c3160203392a380f35b60405162461bcd60e51b815260206004820152601960248201527f4552433732313a20617070726f766520746f2063616c6c6572000000000000006044820152606490fd5b8380fd5b5034610205576020366003190112610205576004356001600160a01b038116908190036109875761094e6143d5565b600b80546001600160a01b031916821790557fe29ca28fd64dbdc992ce63b7fc32e81b50e1f2e800e0bbbb994cea2e35aa047c8280a280f35b5080fd5b503461020557806003193601126102055760405190806002546109ad8161449c565b80855291600191808316908115610a4657506001146109eb575b6106d1856109d781870382613f24565b604051918291602083526020830190613e1d565b9250600283527f405787fa12a823e0f2b7631cc41b3ba8828b3321ca811111fa75cd3aa3bb5ace5b828410610a2e5750505081016020016109d7826106d16109c7565b80546020858701810191909152909301928101610a13565b8695506106d1969350602092506109d794915060ff191682840152151560051b82010192936109c7565b5034610205578060031936011261020557546040516001600160a01b039091168152602090f35b5034610205578060031936011261020557610ab06143d5565b80546001600160a01b03198116825581906001600160a01b03167f8be0079c531659141344cd1fd0a4f28419497f9722a3daafe3b4186f6b6457e08280a380f35b5034610205576020366003190112610205576001600160a01b03610b13613e5d565b168015610b30578160409160209352600483522054604051908152f35b60405162461bcd60e51b815260206004820152602960248201527f4552433732313a2061646472657373207a65726f206973206e6f7420612076616044820152683634b21037bbb732b960b91b6064820152608490fd5b50346102055760031960c036820112610987576001600160401b03600435116109875760e08160043536030112610987576001600160401b03602435116109875760c08160243536030112610987576001600160401b03604435116109875760608160443536030112610987576064359081610160526001600160401b0382116120e85760a091360301126102055760a4356102008190526001600160a01b0381169081900361098757610c3b9015614a0b565b610160516004016001600160a01b03610c5382614a57565b16331490816120cc575b50156120965760a460243501351561206157610c83602460043501600435600401614a6b565b905015612030576301e1338042046107b2810180911161201c5760a4600435013511611fe857633b9aca00602435600401351015611fb1576007805460010190819055610cd4600480350180614aa0565b6101e05291610ceb60048035602481019101614a6b565b610d02604460049693963501600435600401614aa0565b90610d17606460043501600435600401614aa0565b90610d2c608460043501600435600401614aa0565b919092610d426024803501602435600401614aa0565b95909660036044602435013510156104e65760026064602435013510156104e65760046084602435013510156104e6579a9b999a8c9a610d8760046044350180614aa0565b9a909b60443560440160443560040190610da091614a6b565b9e9060e052604051806101a052610db690613e8e565b6101a05152336101a05160200152366101e051610dd292613f60565b6101a051604001523690610de592613fcc565b6101a051606001523690610df892613f60565b6101a051608001523690610e0b92613f60565b6101a05160a001523690610e1e92613f60565b6101a05160c0015260043560a401356101a05160e0015260043560c401356101a0516101000152602435600401356101a05161012001523690610e6092613f60565b6101a0516101400152602435604401356101a0516101600190610e8291614ad2565b602435606401356101a0516101800190610e9b91614ade565b602435608401356101a0516101a00190610eb491614aea565b60243560a401356101a0516101c001523690610ecf92613f60565b6101a0516101e001523660e05191610ee692613fcc565b6101a0516102000152366101605160040190610f0191614056565b6101a0516102200152806101a0516102400152806101a05161026001526084356101a0516102800152600160a01b6001900361020051166101a0516102a00152806101a0516102c00152818152600960205260408120916101a05180518455600160a01b600190036020820151166001600160601b0360a01b600186015416176001850155604001519283516001600160401b03811161169557610fa8600283015461449c565b601f8111611f7e575b506020601f8211600114611f125784958293949592611f07575b50508160011b916000199060031b1c19161760028201555b60606101a0510151805190600160401b8211611757576003830154826003850155808310611e93575b506020016003830185526020852085915b838310611d65575050505060806101a05101519283516001600160401b038111611b535761104e600484015461449c565b601f8111611d32575b506020601f8211600114611cc65782939495829392611cbb575b50508160011b916000199060031b1c19161760048301555b60a06101a05101519283516001600160401b038111611a59576110af600585015461449c565b601f8111611c88575b506020601f8211600114611c1c5783949582939492611c11575b50508160011b916000199060031b1c19161760058401555b60c06101a05101519283516001600160401b03811161169557611110600683015461449c565b601f8111611bde575b506020601f8211600114611b725784958293949592611b67575b50508160011b916000199060031b1c19161760068201555b6101406101a05160e081015160078401556101008101516008840155610120810151600984015501519283516001600160401b038111611b5357611192600a84015461449c565b601f8111611b20575b506020601f8211600114611ab45782939495829392611aa9575b50508160011b916000199060031b1c191617600a8301555b6101a0516101608101516003811015611a9557600b840154610180830151906002821015611a81576101a08401516004811015611a6d576101e09493929160ff62ff000061ff009360101b1694169062ffffff1916179160081b161717600b8501556101c0810151600c85015501519283516001600160401b038111611a595761125a600d85015461449c565b601f8111611a26575b506020601f82116001146119ba57839495829394926119af575b50508160011b916000199060031b1c191617600d8401555b6102006101a0510151805190600160401b821161169557600e85015482600e87015580831061193b575b50602001600e850184526020842084915b8383106118185750505050600f83016102206101a05101519060018060a01b038251166001600160601b0360a01b82541617905560208101518051906001600160401b038211611757578190611329601088015461449c565b601f81116117e5575b50602090601f831160011461177657869261176b575b50508160011b916000199060031b1c19161760108501555b60408101518051906001600160401b03821161175757611383601187015461449c565b601f8111611724575b50602090601f83116001146116b45760809392918691836116a9575b50508160011b916000199060031b1c19161760118601555b6060810151601286015501519283516001600160401b038111611695576113ea601383015461449c565b601f8111611657575b506020601f82116001146115eb57849582939495926115e0575b50508160011b916000199060031b1c19161760138201555b60176102c06014830161146f6101a051916114536102408401511515829060ff801983541691151516179055565b610260830151815461ff00191690151560081b61ff0016179055565b61028081015160158501556016840160018060a01b036102a0830151166001600160601b0360a01b82541617905501519101556040516114ae81613f09565b828152331561159c5760008281526003602052604090205461156691610756916114e4906001600160a01b031615155b15614b0d565b600084815260036020526040902054611507906001600160a01b031615156114de565b33855260046020526040852060018154019055838552600360205260408520336001600160601b0360a01b8254161790558333867fddf252ad1be2c89b69c2b068fc378daa952ba7f163c4a11628f55a4df523b3ef8180a4833361489c565b6040519060a4602435013582527f346237025e4b201cfbdb8011c7afcd8a0cc16c50e910d6ac5645ab7406be429d60203393a380f35b606460405162461bcd60e51b815260206004820152602060248201527f4552433732313a206d696e7420746f20746865207a65726f20616464726573736044820152fd5b01519050388061140d565b6013830185526020852090855b601f198416811061163f575060019394959683601f19811610611626575b505050811b016013820155611425565b015160001960f88460031b161c19169055388080611616565b9091602060018192858b0151815501930191016115f8565b6116859060138401865260208620601f840160051c8101916020851061168b575b601f0160051c0190614af6565b386113f3565b9091508190611678565b634e487b7160e01b84526041600452602484fd5b0151905038806113a8565b906011870186526020862091865b601f198516811061170c575091839160019360809695601f198116106116f3575b505050811b0160118601556113c0565b015160001960f88460031b161c191690553880806116e3565b919260206001819286850151815501940192016116c2565b6117519060118801875260208720601f850160051c8101916020861061168b57601f0160051c0190614af6565b3861138c565b634e487b7160e01b85526041600452602485fd5b015190503880611348565b9250601087018652602086209086935b601f19841685106117ca576001945083601f198116106117b1575b505050811b016010850155611360565b015160001960f88460031b161c191690553880806117a1565b81810151835560209485019460019093019290910190611786565b6118129060108901885260208820601f850160051c8101916020861061168b57601f0160051c0190614af6565b38611332565b80518051906001600160401b03821161192757611835845461449c565b601f81116118f7575b50602090601f831160011461188a5792826001949360209386958c9261187f575b5050600019600383901b1c191690841b1785555b019201920191906112d0565b01519050388061185f565b908489526020892091895b601f19851681106118df575083602093600196938796938794601f198116106118c6575b505050811b018555611873565b015160001960f88460031b161c191690553880806118b9565b91926020600181928685015181550194019201611895565b61192190858a5260208a20601f850160051c8101916020861061168b57601f0160051c0190614af6565b3861183e565b634e487b7160e01b88526041600452602488fd5b600e8601855260208520908382015b818301811061195a5750506112bf565b80876119686001935461449c565b80611976575b50500161194a565b601f8111841461198b575081555b873861196e565b8282526119a6601f60208420920160051c8201858301614af6565b81835555611984565b01519050388061127d565b600d850184526020842090845b601f1984168110611a0e575060019394959683601f198116106119f5575b505050811b01600d840155611295565b015160001960f88460031b161c191690553880806119e5565b9091602060018192858b0151815501930191016119c7565b611a5390600d8601855260208520601f840160051c8101916020851061168b57601f0160051c0190614af6565b38611263565b634e487b7160e01b83526041600452602483fd5b634e487b7160e01b86526021600452602486fd5b634e487b7160e01b85526021600452602485fd5b634e487b7160e01b83526021600452602483fd5b0151905038806111b5565b600a840183526020832090835b601f1984168110611b08575060019394959683601f19811610611aef575b505050811b01600a8301556111cd565b015160001960f88460031b161c19169055388080611adf565b9091602060018192858b015181550193019101611ac1565b611b4d90600a8501845260208420601f840160051c8101916020851061168b57601f0160051c0190614af6565b3861119b565b634e487b7160e01b82526041600452602482fd5b015190503880611133565b6006830185526020852090855b601f1984168110611bc6575060019394959683601f19811610611bad575b505050811b01600682015561114b565b015160001960f88460031b161c19169055388080611b9d565b9091602060018192858b015181550193019101611b7f565b611c0b9060068401865260208620601f840160051c8101916020851061168b57601f0160051c0190614af6565b38611119565b0151905038806110d2565b6005850184526020842090845b601f1984168110611c70575060019394959683601f19811610611c57575b505050811b0160058401556110ea565b015160001960f88460031b161c19169055388080611c47565b9091602060018192858b015181550193019101611c29565b611cb59060058601855260208520601f840160051c8101916020851061168b57601f0160051c0190614af6565b386110b8565b015190503880611071565b6004840183526020832090835b601f1984168110611d1a575060019394959683601f19811610611d01575b505050811b016004830155611089565b015160001960f88460031b161c19169055388080611cf1565b9091602060018192858b015181550193019101611cd3565b611d5f9060048501845260208420601f840160051c8101916020851061168b57601f0160051c0190614af6565b38611057565b80518051906001600160401b038211611e7f57611d82845461449c565b601f8111611e44575b50602090601f8311600114611dd75792826001949360209386958d92611dcc575b5050600019600383901b1c191690841b1785555b0192019201919061101d565b015190503880611dac565b90848a5260208a20918a5b601f1985168110611e2c575083602093600196938796938794601f19811610611e13575b505050811b018555611dc0565b015160001960f88460031b161c19169055388080611e06565b91926020600181928685015181550194019201611de2565b611e6f90858b5260208b206005601f8601811c82019260208710611e75575b601f01901c0190614af6565b38611d8b565b9192508291611e63565b634e487b7160e01b89526041600452602489fd5b60038401865260208620908382015b8183018110611eb257505061100c565b8088611ec06001935461449c565b80611ece575b505001611ea2565b601f81118414611ee3575081555b8838611ec6565b828252611efe601f60208420920160051c8201858301614af6565b81835555611edc565b015190503880610fcb565b6002830185526020852090855b601f1984168110611f66575060019394959683601f19811610611f4d575b505050811b016002820155610fe3565b015160001960f88460031b161c19169055388080611f3d565b9091602060018192858b015181550193019101611f1f565b611fab9060028401865260208620601f840160051c8101916020851061168b57601f0160051c0190614af6565b38610fb1565b60405162461bcd60e51b815260206004820152600f60248201526e496e76616c6964206d696c6561676560881b6044820152606490fd5b60405162461bcd60e51b815260206004820152600c60248201526b24b73b30b634b2103cb2b0b960a11b6044820152606490fd5b634e487b7160e01b82526011600452602482fd5b60405162461bcd60e51b81526020600482015260096024820152684e6f20696d6167657360b81b6044820152606490fd5b60405162461bcd60e51b815260206004820152600d60248201526c496e76616c696420707269636560981b6044820152606490fd5b60405162461bcd60e51b815260206004820152600e60248201526d24b73b30b634b21039b2b63632b960911b6044820152606490fd5b6001600160a01b0391506120df90614a57565b16151538610c5d565b8280fd5b503461020557602036600319011261020557602061210b600435614479565b6040516001600160a01b039091168152f35b50346102055760208060031936011261098757600435908183526009815260ff601460408520015460081c1661221657828291828252600981526014604083200161010061ff001982541617905561217483614479565b5061217e83614479565b83835260058252604080842080546001600160a01b03199081169091556001600160a01b0390921680855260048452818520805460001901905585855260039093528320805490911690557fddf252ad1be2c89b69c2b068fc378daa952ba7f163c4a11628f55a4df523b3ef8280a433907f975848b3b721e792b1afe72032f4fa971d1faeb9bfd806ccf1ffada5bac8bafe8380a380f35b6064906040519062461bcd60e51b82526004820152601360248201527210d85c88185b1c9958591e4819195b195d1959606a1b6044820152fd5b503461020557602090816003193601126102055760406122c191600435612275614b59565b508082526009855282822060010154612298906001600160a01b03161515614c26565b808252600985526122b560ff6014858520015460081c1615614c67565b81526009845220614cff565b906106d1604051928284938452830190614184565b50346102055761075b6107566122eb366140f3565b90604051926122f984613f09565b8684526107466107418433614693565b50346102055780600319360112610205576007548160015b828111156123b3575061233390614ed4565b918060015b8381111561234e57604051806106d18782614373565b80825260096020526040822060ff601482015460081c16158061239d575b612380575b5061237b90614eaf565b612338565b9290612396826107eb6107e561237b9592614eaf565b5090612371565b5060018101546001600160a01b0316331461236c565b80845260096020526040842060ff601482015460081c161590816123fb575b506123e6575b6123e190614eaf565b612321565b906123f36123e191614eaf565b9190506123d8565b600101546001600160a01b031633149050386123d2565b5034610205578060031936011261020557806001600754905b818111156125b7575061243d82613fb5565b9161244b6040519384613f24565b80835261245a601f1991613fb5565b01835b818110612582575050826001905b828211156124db5750505060405190602080830190808452825180925280604085019301945b82811061249e5784840385f35b8551805185528083015185840152604080820151908601526060908101516001600160a01b03169085015294810194608090930192600101612491565b8491939294905b8483526020600a8152604084208054841015612568579161255c9161250a8561256295614f4e565b506040519161251883613ec0565b8154835260018201549083015260028101546040830152600301546001600160a01b0316606082015261254b8288614f24565b526125568187614f24565b50614eaf565b91614eaf565b906124e2565b5050929491936125789150614eaf565b909193929361246b565b60209060409594955161259481613ec0565b85815282868183015286604083015286606083015282880101520193929361245d565b9291838352600a602052604083205481018091116125e1576125d99093614eaf565b92919261242b565b634e487b7160e01b83526011600452602483fd5b50346102055761075b612607366140f3565b916126156107418433614693565b61475b565b50346102055760a0366003190112610205576001600160401b03602435116102055760e060243536036003190112610205576040519060e082018281106001600160401b03821117611b5357604052602435600401356001600160401b0381116109875761269090600436916024350101613f97565b82526024803501356001600160401b038111610987576126b89060043691602435010161403b565b6020830152604460243501356001600160401b038111610987576126e490600436916024350101613f97565b6040830152606460243501356001600160401b0381116109875761271090600436916024350101613f97565b6060830152608460243501356001600160401b0381116109875761273c90600436916024350101613f97565b608083015260243560a481013560a084015260c4013560c08301526001600160401b03604435116102055760c06044353603600319011261020557604051918260c08101106001600160401b0360c085011117611b535760c083016040526044356004013583526001600160401b036024604435013511610987576127cc36604435602481013501600401613f97565b6020840152600360448035013510156109875760448035013560408401526002606460443501351015610987576064604435013560608401526004608460443501351015610987576044356084810135608085015260a4013560a08401526001600160401b036064351161098757606060643536036003190112610987576040518060608101106001600160401b03606083011117611a5957606081016040526001600160401b0360643560040135116120e8576128963660046064358101356064350101613f97565b81526001600160401b0360246064350135116120e8576128c136606435602481013501600401613f97565b60208201526001600160401b0360446064350135116120e8576128ef3660643560448101350160040161403b565b60408201526001600160401b03608435116120e85761291336608435600401614056565b9160a085015115613b335780515115613af75760208101515115613ab25760608101515115613a765760808101515115613a395782516004358552600960205260408520600f01546001600160a01b039182169116036139f45782516001600160a01b031633036139af5780519060208101516101005260408101516101c05260608101519060808101519060c060a0820151910151885160208a01519160408b015193600385101561399b5760608c01519560028710156139875760808d01519760048910156139735760a08d9e9d9c9d0151998b519b604001519c60043581526009602052604090208060c052601481015460ff1661014052601581015461012052600160a01b60019003601682015416610180526017015460a05260405180608052612a4190613e8e565b6004356080515233608051602001526080516040015261010051608051606001526101c0516080516080015260805160a0015260805160c0015260805160e001526080516101000152608051610120015260805161014001526080516101600190612aab91614ad2565b6080516101800190612abc91614ade565b6080516101a00190612acd91614aea565b6080516101c001526080516101e00152608051610200015260805161022001526101405115156080516102400152806080516102600152610120516080516102800152610180516080516102a0015260a0516080516102c00152600435815260096020526040812060805180518255600160a01b600190036020820151166001600160601b0360a01b600184015416176001830155604001519182516001600160401b038111611b5357612b84600284015461449c565b601f8111613940575b506020601f82116001146138d5578293948293926138ca575b50508160011b916000199060031b1c19161760028301555b60606080510151805190600160401b8211611a59576003840154826003860155808310613856575b506020016003840183526020832083915b8383106137335785856080805101519182516001600160401b038111611a5957612c24600483015461449c565b601f8111613700575b506020601f82116001146136955783948293949261368a575b50508160011b916000199060031b1c19161760048201555b60a060805101519182516001600160401b038111611b5357612c83600584015461449c565b601f8111613657575b506020601f82116001146135ec578293948293926135e1575b50508160011b916000199060031b1c19161760058301555b60c060805101519182516001600160401b038111611a5957612ce2600683015461449c565b601f81116135ae575b506020601f821160011461354357839482939492613538575b50508160011b916000199060031b1c19161760068201555b61014060805160e081015160078401556101008101516008840155610120810151600984015501519182516001600160401b038111611b5357612d62600a84015461449c565b601f8111613505575b506020601f821160011461349a5782939482939261348f575b50508160011b916000199060031b1c191617600a8301555b6080516101608101516003811015611a9557600b840154610180830151906002821015611a81576101a08401516004811015611a6d576101e09493929160ff62ff000061ff009360101b1694169062ffffff1916179160081b161717600b8501556101c0810151600c85015501519182516001600160401b038111611a5957612e28600d83015461449c565b601f811161345c575b506020601f82116001146133f1578394829394926133e6575b50508160011b916000199060031b1c191617600d8201555b6102006080510151805190600160401b821161169557600e83015482600e850155808310613372575b50602001600e830184526020842084915b838310613263578585600f81019161022060805101519260018060a01b038451166001600160601b0360a01b825416179055602083015180516001600160401b038111611a5957806010850192612ef3845461449c565b601f8111613233575b50602090601f83116001146131cf5785926131c4575b50508160011b916000199060031b1c19161790555b60408301519283516001600160401b038111611a5957612f4a601185015461449c565b601f8111613191575b506020601f821160011461312157819084959660809592613116575b50508160011b916000199060031b1c19161760118501555b6060810151601285015501519182516001600160401b038111611a59576013820190612fb3825461449c565b601f81116130e6575b50602094601f8211600114613083579484958293949592613078575b50508160011b916000199060031b1c19161790555b60176102c06014830161301a608051916114536102408401511515829060ff801983541691151516179055565b61028081015160158501556016840160018060a01b036102a0830151166001600160601b0360a01b8254161790550151910155336004357f0ac4673e0c14f555f7a29dc1abe824e57feeb4dc61dffc46e24a31d970178d6a8380a380f35b015190508580612fd8565b601f198216958386526020862091865b8881106130ce575083600195969798106130b5575b505050811b019055612fed565b015160001960f88460031b161c191690558580806130a8565b91926020600181928685015181550194019201613093565b6131109083865260208620601f840160051c8101916020851061168b57601f0160051c0190614af6565b85612fbc565b015190508680612f6f565b6011850184526020842095845b601f198416811061317957509582916080959697600194601f19811610613160575b505050811b016011850155612f87565b015160001960f88460031b161c19169055868080613150565b8282015188556001909701966020928301920161312e565b6131be9060118601855260208520601f840160051c8101916020851061168b57601f0160051c0190614af6565b85612f53565b015190508680612f12565b848652602086209250601f198416865b81811061321b5750908460019594939210613202575b505050811b019055612f27565b015160001960f88460031b161c191690558680806131f5565b929360206001819287860151815501950193016131df565b61325d9085875260208720601f850160051c8101916020861061168b57601f0160051c0190614af6565b87612efc565b80518051906001600160401b03821161192757613280845461449c565b601f8111613342575b50602090601f83116001146132d55792826001949360209386958c926132ca575b5050600019600383901b1c191690841b1785555b01920192019190612e9c565b015190508b806132aa565b908489526020892091895b601f198516811061332a575083602093600196938796938794601f19811610613311575b505050811b0185556132be565b015160001960f88460031b161c191690558b8080613304565b919260206001819286850151815501940192016132e0565b61336c90858a5260208a20601f850160051c8101916020861061168b57601f0160051c0190614af6565b88613289565b600e8401855260208520908382015b8183018110613391575050612e8b565b808761339f6001935461449c565b806133ad575b505001613381565b601f811184146133c2575081555b87896133a5565b8282526133dd601f60208420920160051c8201858301614af6565b818355556133bb565b015190508480612e4a565b600d830184526020842090845b601f19841681106134445750600193949583601f1981161061342b575b505050811b01600d820155612e62565b015160001960f88460031b161c1916905584808061341b565b9091602060018192858a0151815501930191016133fe565b61348990600d8401855260208520601f840160051c8101916020851061168b57601f0160051c0190614af6565b84612e31565b015190508480612d84565b600a840183526020832090835b601f19841681106134ed5750600193949583601f198116106134d4575b505050811b01600a830155612d9c565b015160001960f88460031b161c191690558480806134c4565b9091602060018192858a0151815501930191016134a7565b61353290600a8501845260208420601f840160051c8101916020851061168b57601f0160051c0190614af6565b84612d6b565b015190508480612d04565b6006830184526020842090845b601f19841681106135965750600193949583601f1981161061357d575b505050811b016006820155612d1c565b015160001960f88460031b161c1916905584808061356d565b9091602060018192858a015181550193019101613550565b6135db9060068401855260208520601f840160051c8101916020851061168b57601f0160051c0190614af6565b84612ceb565b015190508480612ca5565b6005840183526020832090835b601f198416811061363f5750600193949583601f19811610613626575b505050811b016005830155612cbd565b015160001960f88460031b161c19169055848080613616565b9091602060018192858a0151815501930191016135f9565b6136849060058501845260208420601f840160051c8101916020851061168b57601f0160051c0190614af6565b84612c8c565b015190508480612c46565b6004830184526020842090845b601f19841681106136e85750600193949583601f198116106136cf575b505050811b016004820155612c5e565b015160001960f88460031b161c191690558480806136bf565b9091602060018192858a0151815501930191016136a2565b61372d9060048401855260208520601f840160051c8101916020851061168b57601f0160051c0190614af6565b84612c2d565b80518051906001600160401b03821161384257613750845461449c565b601f8111613812575b50602090601f83116001146137a55792826001949360209386958b9261379a575b5050600019600383901b1c191690841b1785555b01920192019190612bf7565b01519050388061377a565b908488526020882091885b601f19851681106137fa575083602093600196938796938794601f198116106137e1575b505050811b01855561378e565b015160001960f88460031b161c191690553880806137d4565b919260206001819286850151815501940192016137b0565b61383c90858952602089206005601f8601811c82019260208710611e7557601f01901c0190614af6565b38613759565b634e487b7160e01b87526041600452602487fd5b60038501845260208420908382015b8183018110613875575050612be6565b80866138836001935461449c565b80613891575b505001613865565b601f811184146138a6575081555b8638613889565b8282526138c1601f60208420920160051c8201858301614af6565b8183555561389f565b015190503880612ba6565b6002840183526020832090835b601f19841681106139285750600193949583601f1981161061390f575b505050811b016002830155612bbe565b015160001960f88460031b161c191690553880806138ff565b9091602060018192858a0151815501930191016138e2565b61396d9060028501845260208420601f840160051c8101916020851061168b57601f0160051c0190614af6565b38612b8d565b634e487b7160e01b8d52602160045260248dfd5b634e487b7160e01b8c52602160045260248cfd5b634e487b7160e01b8b52602160045260248bfd5b60405162461bcd60e51b815260206004820152601f60248201527f53656c6c65722077616c6c6574206d757374206d617463682073656e646572006044820152606490fd5b60405162461bcd60e51b815260206004820152601b60248201527f43616e6e6f74206368616e67652073656c6c65722077616c6c657400000000006044820152606490fd5b60405162461bcd60e51b81526020600482015260156024820152744d6f64656c2063616e6e6f7420626520656d70747960581b6044820152606490fd5b60405162461bcd60e51b81526020600482015260146024820152734d616b652063616e6e6f7420626520656d70747960601b6044820152606490fd5b60405162461bcd60e51b815260206004820152601e60248201527f4174206c65617374206f6e6520696d61676520697320726571756972656400006044820152606490fd5b60405162461bcd60e51b81526020600482015260146024820152734e616d652063616e6e6f7420626520656d70747960601b6044820152606490fd5b60405162461bcd60e51b815260206004820152601c60248201527f5072696365206d7573742062652067726561746572207468616e2030000000006044820152606490fd5b503461020557604036600319011261020557613b92613e5d565b602435906001600160a01b038080613ba985614479565b16921691808314613c9e57803314908115613c7d575b5015613c125782845260056020526040842080546001600160a01b03191683179055613bea83614479565b167f8c5be1e5ebec7d5bd14f71427d1e84f3dd0314c0f7b2291e5b200ac8c7c3b9258480a480f35b60405162461bcd60e51b815260206004820152603d60248201527f4552433732313a20617070726f76652063616c6c6572206973206e6f7420746f60448201527f6b656e206f776e6572206f7220617070726f76656420666f7220616c6c0000006064820152608490fd5b9050845260066020526040842033855260205260ff60408520541638613bbf565b60405162461bcd60e51b815260206004820152602160248201527f4552433732313a20617070726f76616c20746f2063757272656e74206f776e656044820152603960f91b6064820152608490fd5b503461020557602036600319011261020557602061210b60043561457c565b503461020557806003193601126102055760405190806001805491613d308361449c565b80865292828116908115610a465750600114613d56576106d1856109d781870382613f24565b92508083527fb10e2d527612073b26eecdfd717e6a320cf44b4afac2b0732d9fcbe2b7fa0cf65b828410613d985750505081016020016109d7826106d16109c7565b80546020858701810191909152909301928101613d7d565b9050346109875760203660031901126109875760043563ffffffff60e01b81168091036120e857602092506380ac58cd60e01b8114908115613e0c575b8115613dfb575b5015158152f35b6301ffc9a760e01b14905038613df4565b635b5e139f60e01b81149150613ded565b919082519283825260005b848110613e49575050826000602080949584010152601f8019910116010190565b602081830181015184830182015201613e28565b600435906001600160a01b0382168203613e7357565b600080fd5b602435906001600160a01b0382168203613e7357565b6102e081019081106001600160401b03821117613eaa57604052565b634e487b7160e01b600052604160045260246000fd5b608081019081106001600160401b03821117613eaa57604052565b6001600160401b038111613eaa57604052565b60a081019081106001600160401b03821117613eaa57604052565b602081019081106001600160401b03821117613eaa57604052565b90601f801991011681019081106001600160401b03821117613eaa57604052565b6001600160401b038111613eaa57601f01601f191660200190565b929192613f6c82613f45565b91613f7a6040519384613f24565b829481845281830111613e73578281602093846000960137010152565b9080601f83011215613e7357816020613fb293359101613f60565b90565b6001600160401b038111613eaa5760051b60200190565b92919092613fd984613fb5565b91613fe76040519384613f24565b829480845260208094019060051b830192828411613e735780915b84831061401157505050505050565b82356001600160401b038111613e735786916140308684938601613f97565b815201920191614002565b9080601f83011215613e7357816020613fb293359101613fcc565b919060a083820312613e73576040519061406f82613eee565b909283919080356001600160a01b0381168103613e735783526001600160401b03916020820135838111613e7357816140a9918401613f97565b60208501526040820135838111613e7357816140c6918401613f97565b6040850152606082013560608501526080820135928311613e73576080926140ee9201613f97565b910152565b6060906003190112613e73576001600160a01b03906004358281168103613e7357916024359081168103613e73579060443590565b908082519081815260208091019281808460051b8301019501936000915b8483106141565750505050505090565b9091929394958480614174600193601f198682030187528a51613e1d565b9801930193019194939290614146565b908151815260018060a01b039182602082015116602083015261424161420d6141fb6141e96141d76141c560408701516102e08060408b0152890190613e1d565b606087015188820360608a0152614128565b60808601518782036080890152613e1d565b60a085015186820360a0880152613e1d565b60c084015185820360c0870152613e1d565b60e083015160e085015261010080840151908501526101208084015190850152610140808401519085830390860152613e1d565b6101608083015190600382101561435d578401526101808083015190600282101561435d578401526101a08083015190600482101561435d5761431d926142bc926142a8928701526101c080860151908701526101e0808601519087830390880152613e1d565b610200808501519086830390870152614128565b6102209081840151918582039086015285825116815260806143026142f0602085015160a0602086015260a0850190613e1d565b60408501518482036040860152613e1d565b92606081015160608401520151906080818403910152613e1d565b92610240808301511515908401526102608083015115159084015261028080830151908401526102a0908183015116908301526102c08091015191015290565b634e487b7160e01b600052602160045260246000fd5b602080820190808352835180925260408301928160408460051b8301019501936000915b8483106143a75750505050505090565b90919293949584806143c5600193603f198682030187528a51614184565b9801930193019194939290614397565b6000546001600160a01b031633036143e957565b606460405162461bcd60e51b815260206004820152602060248201527f4f776e61626c653a2063616c6c6572206973206e6f7420746865206f776e65726044820152fd5b1561443457565b60405162461bcd60e51b815260206004820152601860248201527f4552433732313a20696e76616c696420746f6b656e20494400000000000000006044820152606490fd5b6000908152600360205260409020546001600160a01b0316613fb281151561442d565b90600182811c921680156144cc575b60208310146144b657565b634e487b7160e01b600052602260045260246000fd5b91607f16916144ab565b90604051918260008254926144ea8461449c565b9081845260019485811690816000146145595750600114614516575b505061451492500383613f24565b565b9093915060005260209081600020936000915b81831061454157505061451493508201013880614506565b85548884018501529485019487945091830191614529565b91505061451494506020925060ff191682840152151560051b8201013880614506565b60008181526003602052604090205461459f906001600160a01b0316151561442d565b6000908152600560205260409020546001600160a01b031690565b156145c157565b60405162461bcd60e51b815260206004820152602d60248201527f4552433732313a2063616c6c6572206973206e6f7420746f6b656e206f776e6560448201526c1c881bdc88185c1c1c9bdd9959609a1b6064820152608490fd5b60809060208152603260208201527f4552433732313a207472616e7366657220746f206e6f6e20455243373231526560408201527131b2b4bb32b91034b6b83632b6b2b73a32b960711b60608201520190565b1561467657565b60405162461bcd60e51b81528061468f6004820161461c565b0390fd5b906001600160a01b0380806146a784614479565b169316918383149384156146da575b5083156146c4575b50505090565b6146d09192935061457c565b16143880806146be565b909350600052600660205260406000208260005260205260ff6040600020541692386146b6565b1561470857565b60405162461bcd60e51b815260206004820152602560248201527f4552433732313a207472616e736665722066726f6d20696e636f72726563742060448201526437bbb732b960d91b6064820152608490fd5b906147839161476984614479565b6001600160a01b0393918416928492909183168414614701565b1691821561481b57816147a09161479986614479565b1614614701565b7fddf252ad1be2c89b69c2b068fc378daa952ba7f163c4a11628f55a4df523b3ef60008481526005602052604081206001600160601b0360a01b9081815416905583825260046020526040822060001981540190558482526040822060018154019055858252600360205284604083209182541617905580a4565b60405162461bcd60e51b8152602060048201526024808201527f4552433732313a207472616e7366657220746f20746865207a65726f206164646044820152637265737360e01b6064820152608490fd5b3d15614897573d9061487d82613f45565b9161488b6040519384613f24565b82523d6000602084013e565b606090565b9091600091803b15614987576148e76020918493604051948580948193630a85bd0160e11b9a8b84523360048501528460248501526044840152608060648401526084830190613e1d565b03926001600160a01b03165af19082908261493f575b50506149315761490b61486c565b8051908161492c5760405162461bcd60e51b81528061468f6004820161461c565b602001fd5b6001600160e01b0319161490565b909192506020813d821161497f575b8161495b60209383613f24565b810103126109875751906001600160e01b03198216820361020557509038806148fd565b3d915061494e565b50505050600190565b91926000929190813b15614a01576020916149e69185604051958680958194630a85bd0160e11b9b8c845233600485015260018060a01b0380951660248501526044840152608060648401526084830190613e1d565b0393165af19082908261493f5750506149315761490b61486c565b5050505050600190565b15614a1257565b60405162461bcd60e51b815260206004820152601b60248201527f4f6e6c79206e617469766520746f6b656e20737570706f7274656400000000006044820152606490fd5b356001600160a01b0381168103613e735790565b903590601e1981360301821215613e7357018035906001600160401b038211613e7357602001918160051b36038313613e7357565b903590601e1981360301821215613e7357018035906001600160401b038211613e7357602001918136038313613e7357565b600382101561435d5752565b600282101561435d5752565b600482101561435d5752565b818110614b01575050565b60008155600101614af6565b15614b1457565b60405162461bcd60e51b815260206004820152601c60248201527f4552433732313a20746f6b656e20616c7265616479206d696e746564000000006044820152606490fd5b60405190614b6682613e8e565b816102c0600091828152826020820152606080604083015280808301528060808301528060a08301528060c08301528360e08301528361010083015283610120830152806101408301528361016083015283610180830152836101a0830152836101c0830152806101e08301528061020083015260405190614be782613eee565b84825280602083015280604083015284818301526080820152610220820152826102408201528261026082015282610280820152826102a08201520152565b15614c2d57565b60405162461bcd60e51b815260206004820152601260248201527110d85c88191bd95cc81b9bdd08195e1a5cdd60721b6044820152606490fd5b15614c6e57565b60405162461bcd60e51b815260206004820152601460248201527310d85c881a185cc81899595b8819195b195d195960621b6044820152606490fd5b908154614cb681613fb5565b92614cc46040519485613f24565b818452600090815260208082208186015b848410614ce3575050505050565b6001838192614cf1856144d6565b815201920193019290614cd5565b90604051614d0c81613e8e565b6102c0601782948054845260018060a01b03806001830154166020860152614d36600283016144d6565b6040860152614d4760038301614caa565b6060860152614d58600483016144d6565b6080860152614d69600583016144d6565b60a0860152614d7a600683016144d6565b60c0860152600782015460e086015260088201546101008601526009820154610120860152614dab600a83016144d6565b610140860152614dec60ff600b840154614dcb8282166101608a01614ad2565b614dde828260081c166101808a01614ade565b60101c166101a08701614aea565b600c8201546101c0860152614e03600d83016144d6565b6101e0860152614e15600e8301614caa565b610200860152604051614e2781613eee565b81600f840154168152614e3c601084016144d6565b6020820152614e4d601184016144d6565b604082015260128301546060820152614e68601384016144d6565b608082015261022086015260ff6014830154818116151561024088015260081c16151561026086015260158201546102808601526016820154166102a08501520154910152565b6000198114614ebe5760010190565b634e487b7160e01b600052601160045260246000fd5b90614ede82613fb5565b614eeb6040519182613f24565b8281528092614efc601f1991613fb5565b019060005b828110614f0d57505050565b602090614f18614b59565b82828501015201614f01565b8051821015614f385760209160051b010190565b634e487b7160e01b600052603260045260246000fd5b8054821015614f385760005260206000209060021b019060009056fea2646970667358221220047572b06489d4e6b16b01c12d5874f2793f8f2c60aee0578a8023cfc0150a0f64736f6c63430008130033",
  "linkReferences": {},
  "deployedLinkReferences": {}
}