{
  "_format": "hh-sol-artifact-1",
  "contractName": "HemDealer",
  "sourceName": "contracts/HemDealer.sol",
  "abi": [
    {
      "inputs": [
        {
          "internalType": "string",
          "name": "name",
          "type": "string"
        },
        {
          "internalType": "string",
          "name": "symbol",
          "type": "string"
        }
      ],
      "stateMutability": "nonpayable",
      "type": "constructor"
    },
    {
      "anonymous": false,
      "inputs": [
        {
          "indexed": true,
          "internalType": "address",
          "name": "owner",
          "type": "address"
        },
        {
          "indexed": true,
          "internalType": "address",
          "name": "approved",
          "type": "address"
        },
        {
          "indexed": true,
          "internalType": "uint256",
          "name": "tokenId",
          "type": "uint256"
        }
      ],
      "name": "Approval",
      "type": "event"
    },
    {
      "anonymous": false,
      "inputs": [
        {
          "indexed": true,
          "internalType": "address",
          "name": "owner",
          "type": "address"
        },
        {
          "indexed": true,
          "internalType": "address",
          "name": "operator",
          "type": "address"
        },
        {
          "indexed": false,
          "internalType": "bool",
          "name": "approved",
          "type": "bool"
        }
      ],
      "name": "ApprovalForAll",
      "type": "event"
    },
    {
      "anonymous": false,
      "inputs": [
        {
          "indexed": true,
          "internalType": "uint256",
          "name": "carId",
          "type": "uint256"
        },
        {
          "indexed": true,
          "internalType": "address",
          "name": "owner",
          "type": "address"
        }
      ],
      "name": "CarDeleted",
      "type": "event"
    },
    {
      "anonymous": false,
      "inputs": [
        {
          "indexed": true,
          "internalType": "uint256",
          "name": "carId",
          "type": "uint256"
        },
        {
          "indexed": true,
          "internalType": "address",
          "name": "seller",
          "type": "address"
        },
        {
          "indexed": false,
          "internalType": "uint256",
          "name": "price",
          "type": "uint256"
        }
      ],
      "name": "CarListed",
      "type": "event"
    },
    {
      "anonymous": false,
      "inputs": [
        {
          "indexed": true,
          "internalType": "uint256",
          "name": "carId",
          "type": "uint256"
        },
        {
          "indexed": true,
          "internalType": "address",
          "name": "seller",
          "type": "address"
        },
        {
          "indexed": true,
          "internalType": "address",
          "name": "buyer",
          "type": "address"
        },
        {
          "indexed": false,
          "internalType": "uint256",
          "name": "price",
          "type": "uint256"
        }
      ],
      "name": "CarSold",
      "type": "event"
    },
    {
      "anonymous": false,
      "inputs": [
        {
          "indexed": true,
          "internalType": "uint256",
          "name": "carId",
          "type": "uint256"
        },
        {
          "indexed": true,
          "internalType": "address",
          "name": "owner",
          "type": "address"
        }
      ],
      "name": "CarUpdated",
      "type": "event"
    },
    {
      "anonymous": false,
      "inputs": [
        {
          "indexed": true,
          "internalType": "address",
          "name": "handler",
          "type": "address"
        }
      ],
      "name": "CrossChainHandlerSet",
      "type": "event"
    },
    {
      "anonymous": false,
      "inputs": [
        {
          "indexed": true,
          "internalType": "address",
          "name": "previousOwner",
          "type": "address"
        },
        {
          "indexed": true,
          "internalType": "address",
          "name": "newOwner",
          "type": "address"
        }
      ],
      "name": "OwnershipTransferred",
      "type": "event"
    },
    {
      "anonymous": false,
      "inputs": [
        {
          "indexed": true,
          "internalType": "address",
          "name": "from",
          "type": "address"
        },
        {
          "indexed": true,
          "internalType": "address",
          "name": "to",
          "type": "address"
        },
        {
          "indexed": true,
          "internalType": "uint256",
          "name": "tokenId",
          "type": "uint256"
        }
      ],
      "name": "Transfer",
      "type": "event"
    },
    {
      "inputs": [
        {
          "internalType": "address",
          "name": "to",
          "type": "address"
        },
        {
          "internalType": "uint256",
          "name": "tokenId",
          "type": "uint256"
        }
      ],
      "name": "approve",
      "outputs": [],
      "stateMutability": "nonpayable",
      "type": "function"
    },
    {
      "inputs": [
        {
          "internalType": "address",
          "name": "owner",
          "type": "address"
        }
      ],
      "name": "balanceOf",
      "outputs": [
        {
          "internalType": "uint256",
          "name": "",
          "type": "uint256"
        }
      ],
      "stateMutability": "view",
      "type": "function"
    },
    {
      "inputs": [
        {
          "internalType": "uint256",
          "name": "carId",
          "type": "uint256"
        }
      ],
      "name": "buyCar",
      "outputs": [],
      "stateMutability": "payable",
      "type": "function"
    },
    {
      "inputs": [],
      "name": "crossChainHandler",
      "outputs": [
        {
          "internalType": "contract HemDealerCrossChain",
          "name": "",
          "type": "address"
        }
      ],
      "stateMutability": "view",
      "type": "function"
    },
    {
      "inputs": [
        {
          "internalType": "uint256",
          "name": "newCarId",
          "type": "uint256"
        }
      ],
      "name": "deleteCar",
      "outputs": [],
      "stateMutability": "nonpayable",
      "type": "function"
    },
    {
      "inputs": [],
      "name": "getAllCars",
      "outputs": [
        {
          "components": [
            {
              "internalType": "uint256",
              "name": "id",
              "type": "uint256"
            },
            {
              "internalType": "address",
              "name": "owner",
              "type": "address"
            },
            {
              "internalType": "string",
              "name": "name",
              "type": "string"
            },
            {
              "internalType": "string[]",
              "name": "images",
              "type": "string[]"
            },
            {
              "internalType": "string",
              "name": "description",
              "type": "string"
            },
            {
              "internalType": "string",
              "name": "make",
              "type": "string"
            },
            {
              "internalType": "string",
              "name": "model",
              "type": "string"
            },
            {
              "internalType": "uint256",
              "name": "year",
              "type": "uint256"
            },
            {
              "internalType": "uint256",
              "name": "vin",
              "type": "uint256"
            },
            {
              "internalType": "uint256",
              "name": "mileage",
              "type": "uint256"
            },
            {
              "internalType": "string",
              "name": "color",
              "type": "string"
            },
            {
              "internalType": "enum HemDealer.CarCondition",
              "name": "condition",
              "type": "uint8"
            },
            {
              "internalType": "enum HemDealer.CarTransmission",
              "name": "transmission",
              "type": "uint8"
            },
            {
              "internalType": "enum HemDealer.FuelType",
              "name": "fuelType",
              "type": "uint8"
            },
            {
              "internalType": "uint256",
              "name": "price",
              "type": "uint256"
            },
            {
              "internalType": "string",
              "name": "location",
              "type": "string"
            },
            {
              "internalType": "string[]",
              "name": "features",
              "type": "string[]"
            },
            {
              "components": [
                {
                  "internalType": "address",
                  "name": "wallet",
                  "type": "address"
                },
                {
                  "internalType": "string",
                  "name": "sellerName",
                  "type": "string"
                },
                {
                  "internalType": "string",
                  "name": "email",
                  "type": "string"
                },
                {
                  "internalType": "uint256",
                  "name": "phoneNumber",
                  "type": "uint256"
                },
                {
                  "internalType": "string",
                  "name": "profileImage",
                  "type": "string"
                }
              ],
              "internalType": "struct HemDealer.SellerDetails",
              "name": "seller",
              "type": "tuple"
            },
            {
              "internalType": "bool",
              "name": "sold",
              "type": "bool"
            },
            {
              "internalType": "bool",
              "name": "deleted",
              "type": "bool"
            },
            {
              "internalType": "uint256",
              "name": "destinationChainId",
              "type": "uint256"
            },
            {
              "internalType": "address",
              "name": "paymentToken",
              "type": "address"
            },
            {
              "internalType": "uint256",
              "name": "sourceChainId",
              "type": "uint256"
            }
          ],
          "internalType": "struct HemDealer.CarStruct[]",
          "name": "",
          "type": "tuple[]"
        }
      ],
      "stateMutability": "view",
      "type": "function"
    },
    {
      "inputs": [],
      "name": "getAllSales",
      "outputs": [
        {
          "components": [
            {
              "internalType": "uint256",
              "name": "id",
              "type": "uint256"
            },
            {
              "internalType": "uint256",
              "name": "newCarId",
              "type": "uint256"
            },
            {
              "internalType": "uint256",
              "name": "price",
              "type": "uint256"
            },
            {
              "internalType": "address",
              "name": "owner",
              "type": "address"
            }
          ],
          "internalType": "struct HemDealer.SalesStruct[]",
          "name": "",
          "type": "tuple[]"
        }
      ],
      "stateMutability": "view",
      "type": "function"
    },
    {
      "inputs": [
        {
          "internalType": "uint256",
          "name": "tokenId",
          "type": "uint256"
        }
      ],
      "name": "getApproved",
      "outputs": [
        {
          "internalType": "address",
          "name": "",
          "type": "address"
        }
      ],
      "stateMutability": "view",
      "type": "function"
    },
    {
      "inputs": [
        {
          "internalType": "uint256",
          "name": "newCarId",
          "type": "uint256"
        }
      ],
      "name": "getCar",
      "outputs": [
        {
          "components": [
            {
              "internalType": "uint256",
              "name": "id",
              "type": "uint256"
            },
            {
              "internalType": "address",
              "name": "owner",
              "type": "address"
            },
            {
              "internalType": "string",
              "name": "name",
              "type": "string"
            },
            {
              "internalType": "string[]",
              "name": "images",
              "type": "string[]"
            },
            {
              "internalType": "string",
              "name": "description",
              "type": "string"
            },
            {
              "internalType": "string",
              "name": "make",
              "type": "string"
            },
            {
              "internalType": "string",
              "name": "model",
              "type": "string"
            },
            {
              "internalType": "uint256",
              "name": "year",
              "type": "uint256"
            },
            {
              "internalType": "uint256",
              "name": "vin",
              "type": "uint256"
            },
            {
              "internalType": "uint256",
              "name": "mileage",
              "type": "uint256"
            },
            {
              "internalType": "string",
              "name": "color",
              "type": "string"
            },
            {
              "internalType": "enum HemDealer.CarCondition",
              "name": "condition",
              "type": "uint8"
            },
            {
              "internalType": "enum HemDealer.CarTransmission",
              "name": "transmission",
              "type": "uint8"
            },
            {
              "internalType": "enum HemDealer.FuelType",
              "name": "fuelType",
              "type": "uint8"
            },
            {
              "internalType": "uint256",
              "name": "price",
              "type": "uint256"
            },
            {
              "internalType": "string",
              "name": "location",
              "type": "string"
            },
            {
              "internalType": "string[]",
              "name": "features",
              "type": "string[]"
            },
            {
              "components": [
                {
                  "internalType": "address",
                  "name": "wallet",
                  "type": "address"
                },
                {
                  "internalType": "string",
                  "name": "sellerName",
                  "type": "string"
                },
                {
                  "internalType": "string",
                  "name": "email",
                  "type": "string"
                },
                {
                  "internalType": "uint256",
                  "name": "phoneNumber",
                  "type": "uint256"
                },
                {
                  "internalType": "string",
                  "name": "profileImage",
                  "type": "string"
                }
              ],
              "internalType": "struct HemDealer.SellerDetails",
              "name": "seller",
              "type": "tuple"
            },
            {
              "internalType": "bool",
              "name": "sold",
              "type": "bool"
            },
            {
              "internalType": "bool",
              "name": "deleted",
              "type": "bool"
            },
            {
              "internalType": "uint256",
              "name": "destinationChainId",
              "type": "uint256"
            },
            {
              "internalType": "address",
              "name": "paymentToken",
              "type": "address"
            },
            {
              "internalType": "uint256",
              "name": "sourceChainId",
              "type": "uint256"
            }
          ],
          "internalType": "struct HemDealer.CarStruct",
          "name": "",
          "type": "tuple"
        }
      ],
      "stateMutability": "view",
      "type": "function"
    },
    {
      "inputs": [],
      "name": "getMyCars",
      "outputs": [
        {
          "components": [
            {
              "internalType": "uint256",
              "name": "id",
              "type": "uint256"
            },
            {
              "internalType": "address",
              "name": "owner",
              "type": "address"
            },
            {
              "internalType": "string",
              "name": "name",
              "type": "string"
            },
            {
              "internalType": "string[]",
              "name": "images",
              "type": "string[]"
            },
            {
              "internalType": "string",
              "name": "description",
              "type": "string"
            },
            {
              "internalType": "string",
              "name": "make",
              "type": "string"
            },
            {
              "internalType": "string",
              "name": "model",
              "type": "string"
            },
            {
              "internalType": "uint256",
              "name": "year",
              "type": "uint256"
            },
            {
              "internalType": "uint256",
              "name": "vin",
              "type": "uint256"
            },
            {
              "internalType": "uint256",
              "name": "mileage",
              "type": "uint256"
            },
            {
              "internalType": "string",
              "name": "color",
              "type": "string"
            },
            {
              "internalType": "enum HemDealer.CarCondition",
              "name": "condition",
              "type": "uint8"
            },
            {
              "internalType": "enum HemDealer.CarTransmission",
              "name": "transmission",
              "type": "uint8"
            },
            {
              "internalType": "enum HemDealer.FuelType",
              "name": "fuelType",
              "type": "uint8"
            },
            {
              "internalType": "uint256",
              "name": "price",
              "type": "uint256"
            },
            {
              "internalType": "string",
              "name": "location",
              "type": "string"
            },
            {
              "internalType": "string[]",
              "name": "features",
              "type": "string[]"
            },
            {
              "components": [
                {
                  "internalType": "address",
                  "name": "wallet",
                  "type": "address"
                },
                {
                  "internalType": "string",
                  "name": "sellerName",
                  "type": "string"
                },
                {
                  "internalType": "string",
                  "name": "email",
                  "type": "string"
                },
                {
                  "internalType": "uint256",
                  "name": "phoneNumber",
                  "type": "uint256"
                },
                {
                  "internalType": "string",
                  "name": "profileImage",
                  "type": "string"
                }
              ],
              "internalType": "struct HemDealer.SellerDetails",
              "name": "seller",
              "type": "tuple"
            },
            {
              "internalType": "bool",
              "name": "sold",
              "type": "bool"
            },
            {
              "internalType": "bool",
              "name": "deleted",
              "type": "bool"
            },
            {
              "internalType": "uint256",
              "name": "destinationChainId",
              "type": "uint256"
            },
            {
              "internalType": "address",
              "name": "paymentToken",
              "type": "address"
            },
            {
              "internalType": "uint256",
              "name": "sourceChainId",
              "type": "uint256"
            }
          ],
          "internalType": "struct HemDealer.CarStruct[]",
          "name": "",
          "type": "tuple[]"
        }
      ],
      "stateMutability": "view",
      "type": "function"
    },
    {
      "inputs": [
        {
          "internalType": "address",
          "name": "owner",
          "type": "address"
        },
        {
          "internalType": "address",
          "name": "operator",
          "type": "address"
        }
      ],
      "name": "isApprovedForAll",
      "outputs": [
        {
          "internalType": "bool",
          "name": "",
          "type": "bool"
        }
      ],
      "stateMutability": "view",
      "type": "function"
    },
    {
      "inputs": [
        {
          "components": [
            {
              "internalType": "string",
              "name": "name",
              "type": "string"
            },
            {
              "internalType": "string[]",
              "name": "images",
              "type": "string[]"
            },
            {
              "internalType": "string",
              "name": "description",
              "type": "string"
            },
            {
              "internalType": "string",
              "name": "make",
              "type": "string"
            },
            {
              "internalType": "string",
              "name": "model",
              "type": "string"
            },
            {
              "internalType": "uint256",
              "name": "year",
              "type": "uint256"
            },
            {
              "internalType": "uint256",
              "name": "vin",
              "type": "uint256"
            }
          ],
          "internalType": "struct HemDealer.CarBasicDetails",
          "name": "basicDetails",
          "type": "tuple"
        },
        {
          "components": [
            {
              "internalType": "uint256",
              "name": "mileage",
              "type": "uint256"
            },
            {
              "internalType": "string",
              "name": "color",
              "type": "string"
            },
            {
              "internalType": "enum HemDealer.CarCondition",
              "name": "condition",
              "type": "uint8"
            },
            {
              "internalType": "enum HemDealer.CarTransmission",
              "name": "transmission",
              "type": "uint8"
            },
            {
              "internalType": "enum HemDealer.FuelType",
              "name": "fuelType",
              "type": "uint8"
            },
            {
              "internalType": "uint256",
              "name": "price",
              "type": "uint256"
            }
          ],
          "internalType": "struct HemDealer.CarTechnicalDetails",
          "name": "technicalDetails",
          "type": "tuple"
        },
        {
          "components": [
            {
              "internalType": "string",
              "name": "location",
              "type": "string"
            },
            {
              "internalType": "string",
              "name": "carHistory",
              "type": "string"
            },
            {
              "internalType": "string[]",
              "name": "features",
              "type": "string[]"
            }
          ],
          "internalType": "struct HemDealer.CarAdditionalInfo",
          "name": "additionalInfo",
          "type": "tuple"
        },
        {
          "components": [
            {
              "internalType": "address",
              "name": "wallet",
              "type": "address"
            },
            {
              "internalType": "string",
              "name": "sellerName",
              "type": "string"
            },
            {
              "internalType": "string",
              "name": "email",
              "type": "string"
            },
            {
              "internalType": "uint256",
              "name": "phoneNumber",
              "type": "uint256"
            },
            {
              "internalType": "string",
              "name": "profileImage",
              "type": "string"
            }
          ],
          "internalType": "struct HemDealer.SellerDetails",
          "name": "sellerDetails",
          "type": "tuple"
        },
        {
          "internalType": "uint256",
          "name": "destinationChainId",
          "type": "uint256"
        },
        {
          "internalType": "address",
          "name": "paymentToken",
          "type": "address"
        }
      ],
      "name": "listCar",
      "outputs": [],
      "stateMutability": "nonpayable",
      "type": "function"
    },
    {
      "inputs": [],
      "name": "name",
      "outputs": [
        {
          "internalType": "string",
          "name": "",
          "type": "string"
        }
      ],
      "stateMutability": "view",
      "type": "function"
    },
    {
      "inputs": [],
      "name": "owner",
      "outputs": [
        {
          "internalType": "address",
          "name": "",
          "type": "address"
        }
      ],
      "stateMutability": "view",
      "type": "function"
    },
    {
      "inputs": [
        {
          "internalType": "uint256",
          "name": "tokenId",
          "type": "uint256"
        }
      ],
      "name": "ownerOf",
      "outputs": [
        {
          "internalType": "address",
          "name": "",
          "type": "address"
        }
      ],
      "stateMutability": "view",
      "type": "function"
    },
    {
      "inputs": [],
      "name": "renounceOwnership",
      "outputs": [],
      "stateMutability": "nonpayable",
      "type": "function"
    },
    {
      "inputs": [
        {
          "internalType": "address",
          "name": "from",
          "type": "address"
        },
        {
          "internalType": "address",
          "name": "to",
          "type": "address"
        },
        {
          "internalType": "uint256",
          "name": "tokenId",
          "type": "uint256"
        }
      ],
      "name": "safeTransferFrom",
      "outputs": [],
      "stateMutability": "nonpayable",
      "type": "function"
    },
    {
      "inputs": [
        {
          "internalType": "address",
          "name": "from",
          "type": "address"
        },
        {
          "internalType": "address",
          "name": "to",
          "type": "address"
        },
        {
          "internalType": "uint256",
          "name": "tokenId",
          "type": "uint256"
        },
        {
          "internalType": "bytes",
          "name": "data",
          "type": "bytes"
        }
      ],
      "name": "safeTransferFrom",
      "outputs": [],
      "stateMutability": "nonpayable",
      "type": "function"
    },
    {
      "inputs": [
        {
          "internalType": "address",
          "name": "operator",
          "type": "address"
        },
        {
          "internalType": "bool",
          "name": "approved",
          "type": "bool"
        }
      ],
      "name": "setApprovalForAll",
      "outputs": [],
      "stateMutability": "nonpayable",
      "type": "function"
    },
    {
      "inputs": [
        {
          "internalType": "address payable",
          "name": "_handler",
          "type": "address"
        }
      ],
      "name": "setCrossChainHandler",
      "outputs": [],
      "stateMutability": "nonpayable",
      "type": "function"
    },
    {
      "inputs": [
        {
          "internalType": "bytes4",
          "name": "interfaceId",
          "type": "bytes4"
        }
      ],
      "name": "supportsInterface",
      "outputs": [
        {
          "internalType": "bool",
          "name": "",
          "type": "bool"
        }
      ],
      "stateMutability": "view",
      "type": "function"
    },
    {
      "inputs": [],
      "name": "symbol",
      "outputs": [
        {
          "internalType": "string",
          "name": "",
          "type": "string"
        }
      ],
      "stateMutability": "view",
      "type": "function"
    },
    {
      "inputs": [
        {
          "internalType": "uint256",
          "name": "tokenId",
          "type": "uint256"
        }
      ],
      "name": "tokenURI",
      "outputs": [
        {
          "internalType": "string",
          "name": "",
          "type": "string"
        }
      ],
      "stateMutability": "view",
      "type": "function"
    },
    {
      "inputs": [
        {
          "internalType": "address",
          "name": "from",
          "type": "address"
        },
        {
          "internalType": "address",
          "name": "to",
          "type": "address"
        },
        {
          "internalType": "uint256",
          "name": "tokenId",
          "type": "uint256"
        }
      ],
      "name": "transferFrom",
      "outputs": [],
      "stateMutability": "nonpayable",
      "type": "function"
    },
    {
      "inputs": [
        {
          "internalType": "address",
          "name": "newOwner",
          "type": "address"
        }
      ],
      "name": "transferOwnership",
      "outputs": [],
      "stateMutability": "nonpayable",
      "type": "function"
    },
    {
      "inputs": [
        {
          "internalType": "uint256",
          "name": "newCarId",
          "type": "uint256"
        },
        {
          "components": [
            {
              "internalType": "string",
              "name": "name",
              "type": "string"
            },
            {
              "internalType": "string[]",
              "name": "images",
              "type": "string[]"
            },
            {
              "internalType": "string",
              "name": "description",
              "type": "string"
            },
            {
              "internalType": "string",
              "name": "make",
              "type": "string"
            },
            {
              "internalType": "string",
              "name": "model",
              "type": "string"
            },
            {
              "internalType": "uint256",
              "name": "year",
              "type": "uint256"
            },
            {
              "internalType": "uint256",
              "name": "vin",
              "type": "uint256"
            }
          ],
          "internalType": "struct HemDealer.CarBasicDetails",
          "name": "basicDetails",
          "type": "tuple"
        },
        {
          "components": [
            {
              "internalType": "uint256",
              "name": "mileage",
              "type": "uint256"
            },
            {
              "internalType": "string",
              "name": "color",
              "type": "string"
            },
            {
              "internalType": "enum HemDealer.CarCondition",
              "name": "condition",
              "type": "uint8"
            },
            {
              "internalType": "enum HemDealer.CarTransmission",
              "name": "transmission",
              "type": "uint8"
            },
            {
              "internalType": "enum HemDealer.FuelType",
              "name": "fuelType",
              "type": "uint8"
            },
            {
              "internalType": "uint256",
              "name": "price",
              "type": "uint256"
            }
          ],
          "internalType": "struct HemDealer.CarTechnicalDetails",
          "name": "technicalDetails",
          "type": "tuple"
        },
        {
          "components": [
            {
              "internalType": "string",
              "name": "location",
              "type": "string"
            },
            {
              "internalType": "string",
              "name": "carHistory",
              "type": "string"
            },
            {
              "internalType": "string[]",
              "name": "features",
              "type": "string[]"
            }
          ],
          "internalType": "struct HemDealer.CarAdditionalInfo",
          "name": "additionalInfo",
          "type": "tuple"
        },
        {
          "components": [
            {
              "internalType": "address",
              "name": "wallet",
              "type": "address"
            },
            {
              "internalType": "string",
              "name": "sellerName",
              "type": "string"
            },
            {
              "internalType": "string",
              "name": "email",
              "type": "string"
            },
            {
              "internalType": "uint256",
              "name": "phoneNumber",
              "type": "uint256"
            },
            {
              "internalType": "string",
              "name": "profileImage",
              "type": "string"
            }
          ],
          "internalType": "struct HemDealer.SellerDetails",
          "name": "sellerDetails",
          "type": "tuple"
        }
      ],
      "name": "updateCar",
      "outputs": [],
      "stateMutability": "nonpayable",
      "type": "function"
    }
  ],
  "bytecode": "0x608060405234620003895762005544803803806200001d816200038e565b928339810190604081830312620003895780516001600160401b03908181116200038957836200004f918401620003ca565b916020938482015183811162000389576200006b9201620003ca565b60008054336001600160a01b031982168117835591949291906001600160a01b03167f8be0079c531659141344cd1fd0a4f28419497f9722a3daafe3b4186f6b6457e08680a381519383851162000293576001948554938685811c951680156200037e575b888610146200036a578190601f9586811162000317575b508890868311600114620002b3578492620002a7575b5050600019600383901b1c191690861b1785555b815193841162000293576002548581811c9116801562000288575b8782101462000274578381116200022b575b5085928411600114620001c55791839491849394620001b9575b50501b916000199060031b1c1916176002555b3315620001825760405161510790816200043d8239f35b6064906040519062461bcd60e51b82526004820152601060248201526f24b73b30b634b2103232b83637bcb2b960811b6044820152fd5b01519250388062000158565b919083601f19811660028552878520945b8888838310620002135750505010620001f9575b505050811b016002556200016b565b015160001960f88460031b161c19169055388080620001ea565b868601518855909601959485019487935001620001d6565b600282528682208480870160051c8201928988106200026a575b0160051c019086905b8281106200025e5750506200013e565b8381550186906200024e565b9250819262000245565b634e487b7160e01b82526022600452602482fd5b90607f16906200012c565b634e487b7160e01b81526041600452602490fd5b015190503880620000fd565b8885528985208994509190601f198416865b8c828210620003005750508411620002e6575b505050811b01855562000111565b015160001960f88460031b161c19169055388080620002d8565b8385015186558c97909501949384019301620002c5565b9091508784528884208680850160051c8201928b861062000360575b918a91869594930160051c01915b82811062000351575050620000e7565b8681558594508a910162000341565b9250819262000333565b634e487b7160e01b83526022600452602483fd5b94607f1694620000d0565b600080fd5b6040519190601f01601f191682016001600160401b03811183821017620003b457604052565b634e487b7160e01b600052604160045260246000fd5b919080601f84011215620003895782516001600160401b038111620003b45760209062000400601f8201601f191683016200038e565b92818452828287010111620003895760005b8181106200042857508260009394955001015290565b85810183015184820184015282016200041256fe61022080604052600436101561001457600080fd5b600090813560e01c90816301ffc9a714613f535750806306fdde0314613e84578063081812fc14613e65578063095ea7b314613cf05780630d5d841a1461276d57806323b872dd146127485780633339691714612565578063341fa05d1461245c57806342842e0e146124295780635e8be190146123a357806360098088146122705780636352211e1461223f5780636bfa74c314610c445780636c2310601461096857806370a08231146108d2578063715018a6146108785780638da5cb5b1461085157806395d89b411461076f57806396cc304f14610703578063a22cb46514610624578063abfe5d5714610540578063b88d4fde146104b3578063c87b56dd14610285578063d03703f51461025c578063e985e9c5146102085763f2fde38b1461014057600080fd5b3461020557602036600319011261020557610159614008565b610161614580565b6001600160a01b039081169081156101b157600054826001600160601b0360a01b821617600055167f8be0079c531659141344cd1fd0a4f28419497f9722a3daafe3b4186f6b6457e0600080a380f35b60405162461bcd60e51b815260206004820152602660248201527f4f776e61626c653a206e6577206f776e657220697320746865207a65726f206160448201526564647265737360d01b6064820152608490fd5b80fd5b503461020557604036600319011261020557610222614008565b604061022c614023565b9260018060a01b0380931681526006602052209116600052602052602060ff604060002054166040519015158152f35b5034610205578060031936011261020557600b546040516001600160a01b039091168152602090f35b5034610205576020908160031936011261020557600435600081815260036020526040902054909183916102c3906001600160a01b031615156145d8565b604051926102d0846140b4565b8184528115610499578190807a184f03e93ff9f4daa797ed6e38ed64bf6a1f010000000000000000818181101561048b575b5050846d04ee2d6d415b85acef81000000008084101561047d575b5050662386f26fc100008083101561046e575b506305f5e1008083101561045f575b5061271080831015610450575b506064821015610440575b600a80921015610436575b6001908160218186019561038e610378886140f0565b97610386604051998a6140cf565b8089526140f0565b878a019890601f1901368a3750860101905b610400575b50505050926103e692916103da9460405195836103cb8895518092888089019101613fc0565b84019151809386840190613fc0565b010380845201826140cf565b905b6103fc604051928284938452830190613fe3565b0390f35b600019019083906f181899199a1a9b1b9c1cb0b131b232b360811b8282061a835304918215610431579190826103a0565b6103a5565b9160010191610362565b9190606460029104910191610357565b6004919392049101913861034c565b6008919392049101913861033f565b60109193920491019138610330565b93019290910490843861031d565b604094500491503880610302565b505050506040516104a9816140b4565b60008152906103e8565b5034610205576080366003190112610205576104cd614008565b6104d5614023565b90606435906044356001600160401b03831161053c573660238401121561053c576105399361051161053494369060248160040135910161410b565b9261052461051f843361483e565b614765565b61052f838383614906565b614b33565b61481a565b80f35b8480fd5b50346102055780600319360112610205576007548160015b828111156105e5575061056a9061503b565b918060015b8381111561058557604051806103fc878261451e565b80825260096020526040822060ff601482015460081c16156105b1575b506105ac90615016565b61056f565b92906105de826105cd6105c76105ac9592615016565b96614e66565b6105d7828a61508b565b528761508b565b50906105a2565b808452600960205260ff601460408620015460081c161561060f575b61060a90615016565b610558565b9061061c61060a91615016565b919050610601565b50346102055760403660031901126102055761063e614008565b60243590811515908183036106ff576001600160a01b0316913383146106ba5761068b903385526006602052604085208460005260205260406000209060ff801983541691151516179055565b6040519081527f17307eab39ab6107e8899845ad3d59bd9653f200f220920489ca2b5937696c3160203392a380f35b60405162461bcd60e51b815260206004820152601960248201527f4552433732313a20617070726f766520746f2063616c6c6572000000000000006044820152606490fd5b8380fd5b5034610205576020366003190112610205576004356001600160a01b0381169081900361076b57610732614580565b600b80546001600160a01b031916821790557fe29ca28fd64dbdc992ce63b7fc32e81b50e1f2e800e0bbbb994cea2e35aa047c8280a280f35b5080fd5b5034610205578060031936011261020557604051600060025461079181614647565b8084529060019081811690811561082a57506001146107cf575b6103fc846107bb818603826140cf565b604051918291602083526020830190613fe3565b6002600090815292507f405787fa12a823e0f2b7631cc41b3ba8828b3321ca811111fa75cd3aa3bb5ace5b8284106108125750505081016020016107bb826107ab565b805460208587018101919091529093019281016107fa565b60ff191660208087019190915292151560051b850190920192506107bb91508390506107ab565b5034610205578060031936011261020557546040516001600160a01b039091168152602090f35b5034610205578060031936011261020557610891614580565b600080546001600160a01b0319811682556001600160a01b03167f8be0079c531659141344cd1fd0a4f28419497f9722a3daafe3b4186f6b6457e08280a380f35b5034610205576020366003190112610205576001600160a01b036108f4614008565b168015610911578160409160209352600483522054604051908152f35b60405162461bcd60e51b815260206004820152602960248201527f4552433732313a2061646472657373207a65726f206973206e6f7420612076616044820152683634b21037bbb732b960b91b6064820152608490fd5b5060208060031936011261076b576004358083526009825260018060a01b039060019161099e8184604088200154161515614d8d565b818552600984526109bc60ff601460408820015460081c1615614dce565b81855260098452604085206014810180549060ff82161580610c35575b15610bfd57601583018054909287914614610bc85750505082600b5416878460168501541691600c8501549086600f87015416938554823b1561053c576084928591604051978896879563716ccad760e11b875260048701526024860152604485015260648401525af18015610bbd57610baa575b50869083600b54169054813b15610ba657829160448392604051948593849263402ebd7d60e01b84528b600485015260248401525af18015610b9b57610b83575b50505b836008540180600855838752600a86526040872090600c83019586549060405192610abc8461406b565b8352888301878152604084019283526060840194338652805490600160401b821015610b6f5790610af19184820181556150b5565b949094610b5b5751845551908301555160028201559051600390910180546001600160a01b031916918416919091179055600f01549254604051908152339493909116927f8205a71867f7292bcef9e53d4774758d6173b03f63017dec9a03a6664b429dc591a480f35b634e487b7160e01b8c5260048c905260248cfd5b634e487b7160e01b8d52604160045260248dfd5b610b8c90614086565b610b97578538610a8f565b8580fd5b6040513d84823e3d90fd5b8280fd5b610bb690979197614086565b9538610a4e565b6040513d8a823e3d90fd5b60ff19161790555080840180546001600160a01b03191633908117909155600f820154610bf89185918516614906565b610a92565b60405162461bcd60e51b815260048101889052601060248201526f496e76616c696420707572636861736560801b6044820152606490fd5b508386840154163314156109d9565b50346102055760031960c03682011261076b576001600160401b036004351161076b5760e0816004353603011261076b576001600160401b036024351161076b5760c0816024353603011261076b576001600160401b036044351161076b576060816044353603011261076b5760643590816101a0526001600160401b038211610ba65760a091360301126102055760a43560c08190526001600160a01b0381160361020557600b54604051630480051d60e31b815260c0516001600160a01b039081166004830152909160209183916024918391165afa908115610b9b578291612204575b50156121bf576101a0516004016001600160a01b03610d4882614bbe565b16331490816121a3575b501561216d5760a460243501351561213857610d78602460043501600435600401614bd2565b905015612107576301e1338042046107b281018091116120f35760a46004350135116120bf57633b9aca00602435600401351015612088576007805460010190819055610dc9600480350180614c07565b6101605291610de060048035602481019101614bd2565b610df7604460049693963501600435600401614c07565b90610e0c606460043501600435600401614c07565b90610e21608460043501600435600401614c07565b919092610e376024803501602435600401614c07565b9590966003604460243501351015612084576002606460243501351015612084576004608460243501351015612084579a9b999a8c9a610e7c60046044350180614c07565b9a909b60443560440160443560040190610e9591614bd2565b9e90610140526040518060a052610eab90614039565b60a051523360a051602001523661016051610ec59261410b565b60a051604001523690610ed792614177565b60a051606001523690610ee99261410b565b60a051608001523690610efb9261410b565b60a05160a001523690610f0d9261410b565b60a05160c0015260043560a4013560a05160e0015260043560c4013560a05161010001526024356004013560a05161012001523690610f4b9261410b565b60a05161014001526024356044013560a0516101600190610f6b91614c39565b6024356064013560a0516101800190610f8391614c45565b6024356084013560a0516101a00190610f9b91614c51565b60243560a4013560a0516101c001523690610fb59261410b565b60a0516101e00152366101405191610fcc92614177565b60a0516102000152366101a05160040190610fe691614201565b60a05161022001528060a05161024001528060a051610260015260843560a0516102800152600160a01b6001900360c0511660a0516102a001528060a0516102c001528181526009602052604081209160a05180518455600160a01b600190036020820151166001600160601b0360a01b600186015416176001850155604001519283516001600160401b038111611768576110856002830154614647565b601f8111612051575b506020601f8211600114611fe55784958293949592611fda575b50508160011b916000199060031b1c19161760028201555b606060a0510151805190600160401b821161182a576003830154826003850155808310611f66575b506020016003830185526020852085915b838310611e385750505050608060a05101519283516001600160401b038111611c26576111296004840154614647565b601f8111611e05575b506020601f8211600114611d995782939495829392611d8e575b50508160011b916000199060031b1c19161760048301555b60a0805101519283516001600160401b038111611b2c576111886005850154614647565b601f8111611d5b575b506020601f8211600114611cef5783949582939492611ce4575b50508160011b916000199060031b1c19161760058401555b60c060a05101519283516001600160401b038111611768576111e86006830154614647565b601f8111611cb1575b506020601f8211600114611c455784958293949592611c3a575b50508160011b916000199060031b1c19161760068201555b61014060a05160e081015160078401556101008101516008840155610120810151600984015501519283516001600160401b038111611c2657611269600a840154614647565b601f8111611bf3575b506020601f8211600114611b875782939495829392611b7c575b50508160011b916000199060031b1c191617600a8301555b60a0516101608101516003811015611b6857600b840154610180830151906002821015611b54576101a08401516004811015611b40576101e09493929160ff62ff000061ff009360101b1694169062ffffff1916179160081b161717600b8501556101c0810151600c85015501519283516001600160401b038111611b2c57611330600d850154614647565b601f8111611af9575b506020601f8211600114611a8d5783949582939492611a82575b50508160011b916000199060031b1c191617600d8401555b61020060a0510151805190600160401b821161176857600e85015482600e870155808310611a0e575b50602001600e850184526020842084915b8383106118eb5750505050600f830161022060a05101519060018060a01b038251166001600160601b0360a01b82541617905560208101518051906001600160401b03821161182a5781906113fd6010880154614647565b601f81116118b8575b50602090601f831160011461184957869261183e575b50508160011b916000199060031b1c19161760108501555b60408101518051906001600160401b03821161182a576114576011870154614647565b601f81116117f7575b50602090601f831160011461178757608093929186918361177c575b50508160011b916000199060031b1c19161760118601555b6060810151601286015501519283516001600160401b038111611768576114be6013830154614647565b601f811161172a575b506020601f82116001146116be57849582939495926116b3575b50508160011b916000199060031b1c19161760138201555b60176102c06014830161154260a051916115266102408401511515829060ff801983541691151516179055565b610260830151815461ff00191690151560081b61ff0016179055565b61028081015160158501556016840160018060a01b036102a0830151166001600160601b0360a01b8254161790550151910155604051611581816140b4565b828152331561166f5760008281526003602052604090205461163991610534916115b7906001600160a01b031615155b15614c74565b6000848152600360205260409020546115da906001600160a01b031615156115b1565b33855260046020526040852060018154019055838552600360205260408520336001600160601b0360a01b8254161790558333867fddf252ad1be2c89b69c2b068fc378daa952ba7f163c4a11628f55a4df523b3ef8180a48333614a17565b6040519060a4602435013582527f346237025e4b201cfbdb8011c7afcd8a0cc16c50e910d6ac5645ab7406be429d60203393a380f35b606460405162461bcd60e51b815260206004820152602060248201527f4552433732313a206d696e7420746f20746865207a65726f20616464726573736044820152fd5b0151905038806114e1565b6013830185526020852090855b601f1984168110611712575060019394959683601f198116106116f9575b505050811b0160138201556114f9565b015160001960f88460031b161c191690553880806116e9565b9091602060018192858b0151815501930191016116cb565b6117589060138401865260208620601f840160051c8101916020851061175e575b601f0160051c0190614c5d565b386114c7565b909150819061174b565b634e487b7160e01b84526041600452602484fd5b01519050388061147c565b906011870186526020862091865b601f19851681106117df575091839160019360809695601f198116106117c6575b505050811b016011860155611494565b015160001960f88460031b161c191690553880806117b6565b91926020600181928685015181550194019201611795565b6118249060118801875260208720601f850160051c8101916020861061175e57601f0160051c0190614c5d565b38611460565b634e487b7160e01b85526041600452602485fd5b01519050388061141c565b9250601087018652602086209086935b601f198416851061189d576001945083601f19811610611884575b505050811b016010850155611434565b015160001960f88460031b161c19169055388080611874565b81810151835560209485019460019093019290910190611859565b6118e59060108901885260208820601f850160051c8101916020861061175e57601f0160051c0190614c5d565b38611406565b80518051906001600160401b0382116119fa576119088454614647565b601f81116119ca575b50602090601f831160011461195d5792826001949360209386958c92611952575b5050600019600383901b1c191690841b1785555b019201920191906113a5565b015190503880611932565b908489526020892091895b601f19851681106119b2575083602093600196938796938794601f19811610611999575b505050811b018555611946565b015160001960f88460031b161c1916905538808061198c565b91926020600181928685015181550194019201611968565b6119f490858a5260208a20601f850160051c8101916020861061175e57601f0160051c0190614c5d565b38611911565b634e487b7160e01b88526041600452602488fd5b600e8601855260208520908382015b8183018110611a2d575050611394565b8087611a3b60019354614647565b80611a49575b505001611a1d565b601f81118414611a5e575081555b8738611a41565b828252611a79601f60208420920160051c8201858301614c5d565b81835555611a57565b015190503880611353565b600d850184526020842090845b601f1984168110611ae1575060019394959683601f19811610611ac8575b505050811b01600d84015561136b565b015160001960f88460031b161c19169055388080611ab8565b9091602060018192858b015181550193019101611a9a565b611b2690600d8601855260208520601f840160051c8101916020851061175e57601f0160051c0190614c5d565b38611339565b634e487b7160e01b83526041600452602483fd5b634e487b7160e01b86526021600452602486fd5b634e487b7160e01b85526021600452602485fd5b634e487b7160e01b83526021600452602483fd5b01519050388061128c565b600a840183526020832090835b601f1984168110611bdb575060019394959683601f19811610611bc2575b505050811b01600a8301556112a4565b015160001960f88460031b161c19169055388080611bb2565b9091602060018192858b015181550193019101611b94565b611c2090600a8501845260208420601f840160051c8101916020851061175e57601f0160051c0190614c5d565b38611272565b634e487b7160e01b82526041600452602482fd5b01519050388061120b565b6006830185526020852090855b601f1984168110611c99575060019394959683601f19811610611c80575b505050811b016006820155611223565b015160001960f88460031b161c19169055388080611c70565b9091602060018192858b015181550193019101611c52565b611cde9060068401865260208620601f840160051c8101916020851061175e57601f0160051c0190614c5d565b386111f1565b0151905038806111ab565b6005850184526020842090845b601f1984168110611d43575060019394959683601f19811610611d2a575b505050811b0160058401556111c3565b015160001960f88460031b161c19169055388080611d1a565b9091602060018192858b015181550193019101611cfc565b611d889060058601855260208520601f840160051c8101916020851061175e57601f0160051c0190614c5d565b38611191565b01519050388061114c565b6004840183526020832090835b601f1984168110611ded575060019394959683601f19811610611dd4575b505050811b016004830155611164565b015160001960f88460031b161c19169055388080611dc4565b9091602060018192858b015181550193019101611da6565b611e329060048501845260208420601f840160051c8101916020851061175e57601f0160051c0190614c5d565b38611132565b80518051906001600160401b038211611f5257611e558454614647565b601f8111611f17575b50602090601f8311600114611eaa5792826001949360209386958d92611e9f575b5050600019600383901b1c191690841b1785555b019201920191906110f9565b015190503880611e7f565b90848a5260208a20918a5b601f1985168110611eff575083602093600196938796938794601f19811610611ee6575b505050811b018555611e93565b015160001960f88460031b161c19169055388080611ed9565b91926020600181928685015181550194019201611eb5565b611f4290858b5260208b206005601f8601811c82019260208710611f48575b601f01901c0190614c5d565b38611e5e565b9192508291611f36565b634e487b7160e01b89526041600452602489fd5b60038401865260208620908382015b8183018110611f855750506110e8565b8088611f9360019354614647565b80611fa1575b505001611f75565b601f81118414611fb6575081555b8838611f99565b828252611fd1601f60208420920160051c8201858301614c5d565b81835555611faf565b0151905038806110a8565b6002830185526020852090855b601f1984168110612039575060019394959683601f19811610612020575b505050811b0160028201556110c0565b015160001960f88460031b161c19169055388080612010565b9091602060018192858b015181550193019101611ff2565b61207e9060028401865260208620601f840160051c8101916020851061175e57601f0160051c0190614c5d565b3861108e565b8a80fd5b60405162461bcd60e51b815260206004820152600f60248201526e496e76616c6964206d696c6561676560881b6044820152606490fd5b60405162461bcd60e51b815260206004820152600c60248201526b24b73b30b634b2103cb2b0b960a11b6044820152606490fd5b634e487b7160e01b82526011600452602482fd5b60405162461bcd60e51b81526020600482015260096024820152684e6f20696d6167657360b81b6044820152606490fd5b60405162461bcd60e51b815260206004820152600d60248201526c496e76616c696420707269636560981b6044820152606490fd5b60405162461bcd60e51b815260206004820152600e60248201526d24b73b30b634b21039b2b63632b960911b6044820152606490fd5b6001600160a01b0391506121b690614bbe565b16151538610d52565b60405162461bcd60e51b815260206004820152601960248201527f556e737570706f72746564207061796d656e7420746f6b656e000000000000006044820152606490fd5b90506020813d602011612237575b8161221f602093836140cf565b8101031261076b5751801515810361076b5738610d2a565b3d9150612212565b503461020557602036600319011261020557602061225e600435614624565b6040516001600160a01b039091168152f35b50346102055760208060031936011261076b57600435908183526009815260ff601460408520015460081c1661236957828291828252600981526014604083200161010061ff00198254161790556122c783614624565b506122d183614624565b83835260058252604080842080546001600160a01b03199081169091556001600160a01b0390921680855260048452818520805460001901905585855260039093528320805490911690557fddf252ad1be2c89b69c2b068fc378daa952ba7f163c4a11628f55a4df523b3ef8280a433907f975848b3b721e792b1afe72032f4fa971d1faeb9bfd806ccf1ffada5bac8bafe8380a380f35b6064906040519062461bcd60e51b82526004820152601360248201527210d85c88185b1c9958591e4819195b195d1959606a1b6044820152fd5b50346102055760209081600319360112610205576040612414916004356123c8614cc0565b5080825260098552828220600101546123eb906001600160a01b03161515614d8d565b8082526009855261240860ff6014858520015460081c1615614dce565b81526009845220614e66565b906103fc60405192828493845283019061432f565b50346102055761053961053461243e3661429e565b906040519261244c846140b4565b86845261052461051f843361483e565b50346102055780600319360112610205576007548160015b8281111561250657506124869061503b565b918060015b838111156124a157604051806103fc878261451e565b80825260096020526040822060ff601482015460081c1615806124f0575b6124d3575b506124ce90615016565b61248b565b92906124e9826105cd6105c76124ce9592615016565b50906124c4565b5060018101546001600160a01b031633146124bf565b80845260096020526040842060ff601482015460081c1615908161254e575b50612539575b61253490615016565b612474565b9061254661253491615016565b91905061252b565b600101546001600160a01b03163314905038612525565b5034610205578060031936011261020557806001600754905b8181111561270a575061259082614160565b9161259e60405193846140cf565b8083526125ad601f1991614160565b01835b8181106126d5575050826001905b8282111561262e5750505060405190602080830190808452825180925280604085019301945b8281106125f15784840385f35b8551805185528083015185840152604080820151908601526060908101516001600160a01b031690850152948101946080909301926001016125e4565b8491939294905b8483526020600a81526040842080548410156126bb57916126af9161265d856126b5956150b5565b506040519161266b8361406b565b8154835260018201549083015260028101546040830152600301546001600160a01b0316606082015261269e828861508b565b526126a9818761508b565b50615016565b91615016565b90612635565b5050929491936126cb9150615016565b90919392936125be565b6020906040959495516126e78161406b565b8581528286818301528660408301528660608301528288010152019392936125b0565b9291838352600a602052604083205481018091116127345761272c9093615016565b92919261257e565b634e487b7160e01b83526011600452602483fd5b50346102055761053961275a3661429e565b9161276861051f843361483e565b614906565b50346102055760a0366003190112610205576001600160401b03602435116102055760e060243536036003190112610205576040519060e082018281106001600160401b03821117611c2657604052602435600401356001600160401b03811161076b576127e390600436916024350101614142565b82526024803501356001600160401b03811161076b5761280b906004369160243501016141e6565b6020830152604460243501356001600160401b03811161076b5761283790600436916024350101614142565b6040830152606460243501356001600160401b03811161076b5761286390600436916024350101614142565b6060830152608460243501356001600160401b03811161076b5761288f90600436916024350101614142565b608083015260243560a481013560a084015260c4013560c08301526001600160401b03604435116102055760c06044353603600319011261020557604051918260c08101106001600160401b0360c085011117611c265760c083016040526044356004013583526001600160401b03602460443501351161076b5761291f36604435602481013501600401614142565b60208401526003604480350135101561076b576044803501356040840152606460443501356002811015610ba6576060840152600460846044350135101561076b576044356084810135608085015260a4013560a08401526001600160401b036064351161076b5760606064353603600319011261076b576040518060608101106001600160401b03606083011117611b2c5760608101604052606435600401356001600160401b0381116106ff576129e090600436916064350101614142565b8152602460643501356001600160401b0381116106ff57612a0990600436916064350101614142565b6020820152604460643501356001600160401b0381116106ff57612a35906004369160643501016141e6565b60408201526001600160401b0360843511610ba657612a5936608435600401614201565b9160a085015115613cab5780515115613c6f5760208101515115613c2a5760608101515115613bee5760808101515115613bb15782516004358552600960205260408520600f01546001600160a01b03918216911603613b6c5782516001600160a01b03163303613b2757805190602081015161020052604081015160805260608101519060808101519060c060a0820151910151885160208a01519160408b0151936003851015613b135760608c0151956002871015613aff5760808d0151976004891015613aeb5760a08d9e9d9c9d0151998b519b604001519c6004358152600960205260409020806101e052601481015460ff1661018052601581015460e052600160a01b6001900360168201541661010052601701546101c0526040518061012052612b8890614039565b6004356101205152336101205160200152610120516040015261020051610120516060015260805161012051608001526101205160a001526101205160c001526101205160e00152610120516101000152610120516101200152610120516101400152610120516101600190612bfd91614c39565b610120516101800190612c0f91614c45565b610120516101a00190612c2191614c51565b610120516101c00152610120516101e001526101205161020001526101205161022001526101805115156101205161024001528061012051610260015260e05161012051610280015261010051610120516102a001526101c051610120516102c0015260043581526009602052604081206101205180518255600160a01b600190036020820151166001600160601b0360a01b600184015416176001830155604001519182516001600160401b038111611c2657612ce26002840154614647565b601f8111613ab8575b506020601f8211600114613a4d57829394829392613a42575b50508160011b916000199060031b1c19161760028301555b6060610120510151805190600160401b8211611b2c5760038401548260038601558083106139ce575b506020016003840183526020832083915b8383106138ab57858560806101205101519182516001600160401b038111611b2c57612d856004830154614647565b601f8111613878575b506020601f821160011461380d57839482939492613802575b50508160011b916000199060031b1c19161760048201555b60a06101205101519182516001600160401b038111611c2657612de56005840154614647565b601f81116137cf575b506020601f821160011461376457829394829392613759575b50508160011b916000199060031b1c19161760058301555b60c06101205101519182516001600160401b038111611b2c57612e456006830154614647565b601f8111613726575b506020601f82116001146136bb578394829394926136b0575b50508160011b916000199060031b1c19161760068201555b6101406101205160e081015160078401556101008101516008840155610120810151600984015501519182516001600160401b038111611c2657612ec6600a840154614647565b601f811161367d575b506020601f821160011461361257829394829392613607575b50508160011b916000199060031b1c191617600a8301555b610120516101608101516003811015611b6857600b840154610180830151906002821015611b54576101a08401516004811015611b40576101e09493929160ff62ff000061ff009360101b1694169062ffffff1916179160081b161717600b8501556101c0810151600c85015501519182516001600160401b038111611b2c57612f8d600d830154614647565b601f81116135d4575b506020601f82116001146135695783948293949261355e575b50508160011b916000199060031b1c191617600d8201555b610200610120510151805190600160401b821161176857600e83015482600e8501558083106134ea575b50602001600e830184526020842084915b8383106133db578585600f8101906102206101205101519160018060a01b038351166001600160601b0360a01b82541617905560208201519283516001600160401b038111611c26576130586010840154614647565b601f81116133a8575b506020601f821160011461333c5782939495829392613331575b50508160011b916000199060031b1c19161760108301555b60408301519283516001600160401b038111611b2c576130b66011850154614647565b601f81116132fe575b506020601f821160011461328e57819084959660809592613283575b50508160011b916000199060031b1c19161760118501555b6060810151601285015501519182516001600160401b038111611b2c57601382019061311f8254614647565b601f8111613253575b50602094601f82116001146131f05794849582939495926131e5575b50508160011b916000199060031b1c19161790555b60176102c06014830161318761012051916115266102408401511515829060ff801983541691151516179055565b61028081015160158501556016840160018060a01b036102a0830151166001600160601b0360a01b8254161790550151910155336004357f0ac4673e0c14f555f7a29dc1abe824e57feeb4dc61dffc46e24a31d970178d6a8380a380f35b015190508580613144565b601f198216958386526020862091865b88811061323b57508360019596979810613222575b505050811b019055613159565b015160001960f88460031b161c19169055858080613215565b91926020600181928685015181550194019201613200565b61327d9083865260208620601f840160051c8101916020851061175e57601f0160051c0190614c5d565b85613128565b0151905086806130db565b6011850184526020842095845b601f19841681106132e657509582916080959697600194601f198116106132cd575b505050811b0160118501556130f3565b015160001960f88460031b161c191690558680806132bd565b8282015188556001909701966020928301920161329b565b61332b9060118601855260208520601f840160051c8101916020851061175e57601f0160051c0190614c5d565b856130bf565b01519050858061307b565b6010840183526020832090835b601f1984168110613390575060019394959683601f19811610613377575b505050811b016010830155613093565b015160001960f88460031b161c19169055858080613367565b9091602060018192858b015181550193019101613349565b6133d59060108501845260208420601f840160051c8101916020851061175e57601f0160051c0190614c5d565b85613061565b80518051906001600160401b0382116119fa576133f88454614647565b601f81116134ba575b50602090601f831160011461344d5792826001949360209386958c92613442575b5050600019600383901b1c191690841b1785555b01920192019190613002565b015190508b80613422565b908489526020892091895b601f19851681106134a2575083602093600196938796938794601f19811610613489575b505050811b018555613436565b015160001960f88460031b161c191690558b808061347c565b91926020600181928685015181550194019201613458565b6134e490858a5260208a20601f850160051c8101916020861061175e57601f0160051c0190614c5d565b88613401565b600e8401855260208520908382015b8183018110613509575050612ff1565b808761351760019354614647565b80613525575b5050016134f9565b601f8111841461353a575081555b878961351d565b828252613555601f60208420920160051c8201858301614c5d565b81835555613533565b015190508480612faf565b600d830184526020842090845b601f19841681106135bc5750600193949583601f198116106135a3575b505050811b01600d820155612fc7565b015160001960f88460031b161c19169055848080613593565b9091602060018192858a015181550193019101613576565b61360190600d8401855260208520601f840160051c8101916020851061175e57601f0160051c0190614c5d565b84612f96565b015190508480612ee8565b600a840183526020832090835b601f19841681106136655750600193949583601f1981161061364c575b505050811b01600a830155612f00565b015160001960f88460031b161c1916905584808061363c565b9091602060018192858a01518155019301910161361f565b6136aa90600a8501845260208420601f840160051c8101916020851061175e57601f0160051c0190614c5d565b84612ecf565b015190508480612e67565b6006830184526020842090845b601f198416811061370e5750600193949583601f198116106136f5575b505050811b016006820155612e7f565b015160001960f88460031b161c191690558480806136e5565b9091602060018192858a0151815501930191016136c8565b6137539060068401855260208520601f840160051c8101916020851061175e57601f0160051c0190614c5d565b84612e4e565b015190508480612e07565b6005840183526020832090835b601f19841681106137b75750600193949583601f1981161061379e575b505050811b016005830155612e1f565b015160001960f88460031b161c1916905584808061378e565b9091602060018192858a015181550193019101613771565b6137fc9060058501845260208420601f840160051c8101916020851061175e57601f0160051c0190614c5d565b84612dee565b015190508480612da7565b6004830184526020842090845b601f19841681106138605750600193949583601f19811610613847575b505050811b016004820155612dbf565b015160001960f88460031b161c19169055848080613837565b9091602060018192858a01518155019301910161381a565b6138a59060048401855260208520601f840160051c8101916020851061175e57601f0160051c0190614c5d565b84612d8e565b80518051906001600160401b0382116139ba576138c88454614647565b601f811161398a575b50602090601f831160011461391d5792826001949360209386958b92613912575b5050600019600383901b1c191690841b1785555b01920192019190612d56565b0151905038806138f2565b908488526020882091885b601f1985168110613972575083602093600196938796938794601f19811610613959575b505050811b018555613906565b015160001960f88460031b161c1916905538808061394c565b91926020600181928685015181550194019201613928565b6139b490858952602089206005601f8601811c82019260208710611f4857601f01901c0190614c5d565b386138d1565b634e487b7160e01b87526041600452602487fd5b60038501845260208420908382015b81830181106139ed575050612d45565b80866139fb60019354614647565b80613a09575b5050016139dd565b601f81118414613a1e575081555b8638613a01565b828252613a39601f60208420920160051c8201858301614c5d565b81835555613a17565b015190503880612d04565b6002840183526020832090835b601f1984168110613aa05750600193949583601f19811610613a87575b505050811b016002830155612d1c565b015160001960f88460031b161c19169055388080613a77565b9091602060018192858a015181550193019101613a5a565b613ae59060028501845260208420601f840160051c8101916020851061175e57601f0160051c0190614c5d565b38612ceb565b634e487b7160e01b8d52602160045260248dfd5b634e487b7160e01b8c52602160045260248cfd5b634e487b7160e01b8b52602160045260248bfd5b60405162461bcd60e51b815260206004820152601f60248201527f53656c6c65722077616c6c6574206d757374206d617463682073656e646572006044820152606490fd5b60405162461bcd60e51b815260206004820152601b60248201527f43616e6e6f74206368616e67652073656c6c65722077616c6c657400000000006044820152606490fd5b60405162461bcd60e51b81526020600482015260156024820152744d6f64656c2063616e6e6f7420626520656d70747960581b6044820152606490fd5b60405162461bcd60e51b81526020600482015260146024820152734d616b652063616e6e6f7420626520656d70747960601b6044820152606490fd5b60405162461bcd60e51b815260206004820152601e60248201527f4174206c65617374206f6e6520696d61676520697320726571756972656400006044820152606490fd5b60405162461bcd60e51b81526020600482015260146024820152734e616d652063616e6e6f7420626520656d70747960601b6044820152606490fd5b60405162461bcd60e51b815260206004820152601c60248201527f5072696365206d7573742062652067726561746572207468616e2030000000006044820152606490fd5b503461020557604036600319011261020557613d0a614008565b602435906001600160a01b038080613d2185614624565b16921691808314613e1657803314908115613df5575b5015613d8a5782845260056020526040842080546001600160a01b03191683179055613d6283614624565b167f8c5be1e5ebec7d5bd14f71427d1e84f3dd0314c0f7b2291e5b200ac8c7c3b9258480a480f35b60405162461bcd60e51b815260206004820152603d60248201527f4552433732313a20617070726f76652063616c6c6572206973206e6f7420746f60448201527f6b656e206f776e6572206f7220617070726f76656420666f7220616c6c0000006064820152608490fd5b9050845260066020526040842033855260205260ff60408520541638613d37565b60405162461bcd60e51b815260206004820152602160248201527f4552433732313a20617070726f76616c20746f2063757272656e74206f776e656044820152603960f91b6064820152608490fd5b503461020557602036600319011261020557602061225e600435614727565b503461020557806003193601126102055760405190806001805491613ea883614647565b80865292828116908115613f295750600114613ecf575b6103fc856107bb818703826140cf565b92508083527fb10e2d527612073b26eecdfd717e6a320cf44b4afac2b0732d9fcbe2b7fa0cf65b828410613f115750505081016020016107bb826103fc613ebf565b80546020858701810191909152909301928101613ef6565b8695506103fc969350602092506107bb94915060ff191682840152151560051b8201019293613ebf565b90503461076b57602036600319011261076b5760043563ffffffff60e01b8116809103610ba657602092506380ac58cd60e01b8114908115613faf575b8115613f9e575b5015158152f35b6301ffc9a760e01b14905038613f97565b635b5e139f60e01b81149150613f90565b60005b838110613fd35750506000910152565b8181015183820152602001613fc3565b90602091613ffc81518092818552858086019101613fc0565b601f01601f1916010190565b600435906001600160a01b038216820361401e57565b600080fd5b602435906001600160a01b038216820361401e57565b6102e081019081106001600160401b0382111761405557604052565b634e487b7160e01b600052604160045260246000fd5b608081019081106001600160401b0382111761405557604052565b6001600160401b03811161405557604052565b60a081019081106001600160401b0382111761405557604052565b602081019081106001600160401b0382111761405557604052565b90601f801991011681019081106001600160401b0382111761405557604052565b6001600160401b03811161405557601f01601f191660200190565b929192614117826140f0565b9161412560405193846140cf565b82948184528183011161401e578281602093846000960137010152565b9080601f8301121561401e5781602061415d9335910161410b565b90565b6001600160401b0381116140555760051b60200190565b9291909261418484614160565b9161419260405193846140cf565b829480845260208094019060051b83019282841161401e5780915b8483106141bc57505050505050565b82356001600160401b03811161401e5786916141db8684938601614142565b8152019201916141ad565b9080601f8301121561401e5781602061415d93359101614177565b919060a08382031261401e576040519061421a82614099565b909283919080356001600160a01b038116810361401e5783526001600160401b0391602082013583811161401e5781614254918401614142565b6020850152604082013583811161401e5781614271918401614142565b604085015260608201356060850152608082013592831161401e576080926142999201614142565b910152565b606090600319011261401e576001600160a01b0390600435828116810361401e5791602435908116810361401e579060443590565b908082519081815260208091019281808460051b8301019501936000915b8483106143015750505050505090565b909192939495848061431f600193601f198682030187528a51613fe3565b98019301930191949392906142f1565b908151815260018060a01b03918260208201511660208301526143ec6143b86143a661439461438261437060408701516102e08060408b0152890190613fe3565b606087015188820360608a01526142d3565b60808601518782036080890152613fe3565b60a085015186820360a0880152613fe3565b60c084015185820360c0870152613fe3565b60e083015160e085015261010080840151908501526101208084015190850152610140808401519085830390860152613fe3565b610160808301519060038210156145085784015261018080830151906002821015614508578401526101a080830151906004821015614508576144c89261446792614453928701526101c080860151908701526101e0808601519087830390880152613fe3565b6102008085015190868303908701526142d3565b6102209081840151918582039086015285825116815260806144ad61449b602085015160a0602086015260a0850190613fe3565b60408501518482036040860152613fe3565b92606081015160608401520151906080818403910152613fe3565b92610240808301511515908401526102608083015115159084015261028080830151908401526102a0908183015116908301526102c08091015191015290565b634e487b7160e01b600052602160045260246000fd5b602080820190808352835180925260408301928160408460051b8301019501936000915b8483106145525750505050505090565b9091929394958480614570600193603f198682030187528a5161432f565b9801930193019194939290614542565b6000546001600160a01b0316330361459457565b606460405162461bcd60e51b815260206004820152602060248201527f4f776e61626c653a2063616c6c6572206973206e6f7420746865206f776e65726044820152fd5b156145df57565b60405162461bcd60e51b815260206004820152601860248201527f4552433732313a20696e76616c696420746f6b656e20494400000000000000006044820152606490fd5b6000908152600360205260409020546001600160a01b031661415d8115156145d8565b90600182811c92168015614677575b602083101461466157565b634e487b7160e01b600052602260045260246000fd5b91607f1691614656565b906040519182600082549261469584614647565b90818452600194858116908160001461470457506001146146c1575b50506146bf925003836140cf565b565b9093915060005260209081600020936000915b8183106146ec5750506146bf935082010138806146b1565b855488840185015294850194879450918301916146d4565b9150506146bf94506020925060ff191682840152151560051b82010138806146b1565b60008181526003602052604090205461474a906001600160a01b031615156145d8565b6000908152600560205260409020546001600160a01b031690565b1561476c57565b60405162461bcd60e51b815260206004820152602d60248201527f4552433732313a2063616c6c6572206973206e6f7420746f6b656e206f776e6560448201526c1c881bdc88185c1c1c9bdd9959609a1b6064820152608490fd5b60809060208152603260208201527f4552433732313a207472616e7366657220746f206e6f6e20455243373231526560408201527131b2b4bb32b91034b6b83632b6b2b73a32b960711b60608201520190565b1561482157565b60405162461bcd60e51b81528061483a600482016147c7565b0390fd5b906001600160a01b03808061485284614624565b16931691838314938415614885575b50831561486f575b50505090565b61487b91929350614727565b1614388080614869565b909350600052600660205260406000208260005260205260ff604060002054169238614861565b156148b357565b60405162461bcd60e51b815260206004820152602560248201527f4552433732313a207472616e736665722066726f6d20696e636f72726563742060448201526437bbb732b960d91b6064820152608490fd5b9061492e9161491484614624565b6001600160a01b03939184169284929091831684146148ac565b169182156149c6578161494b9161494486614624565b16146148ac565b7fddf252ad1be2c89b69c2b068fc378daa952ba7f163c4a11628f55a4df523b3ef60008481526005602052604081206001600160601b0360a01b9081815416905583825260046020526040822060001981540190558482526040822060018154019055858252600360205284604083209182541617905580a4565b60405162461bcd60e51b8152602060048201526024808201527f4552433732313a207472616e7366657220746f20746865207a65726f206164646044820152637265737360e01b6064820152608490fd5b9192600092909190803b15614b2957614a65946040518092630a85bd0160e11b9485835233600484015287602484015260448301526080606483015281878160209a8b966084830190613fe3565b03926001600160a01b03165af1849181614ae9575b50614ad8575050503d600014614ad0573d614a94816140f0565b90614aa260405192836140cf565b81528091833d92013e5b80519182614acd5760405162461bcd60e51b81528061483a600482016147c7565b01fd5b506060614aac565b6001600160e01b0319161492509050565b9091508581813d8311614b22575b614b0181836140cf565b8101031261053c57516001600160e01b03198116810361053c579038614a7a565b503d614af7565b5050915050600190565b9293600093909291803b15614bb357948491614b8d9660405180948193630a85bd0160e11b9788845233600485015260018060a01b0380921660248501526044840152608060648401528260209b8c976084830190613fe3565b0393165af1849181614ae95750614ad8575050503d600014614ad0573d614a94816140f0565b505050915050600190565b356001600160a01b038116810361401e5790565b903590601e198136030182121561401e57018035906001600160401b03821161401e57602001918160051b3603831361401e57565b903590601e198136030182121561401e57018035906001600160401b03821161401e5760200191813603831361401e57565b60038210156145085752565b60028210156145085752565b60048210156145085752565b818110614c68575050565b60008155600101614c5d565b15614c7b57565b60405162461bcd60e51b815260206004820152601c60248201527f4552433732313a20746f6b656e20616c7265616479206d696e746564000000006044820152606490fd5b60405190614ccd82614039565b816102c0600091828152826020820152606080604083015280808301528060808301528060a08301528060c08301528360e08301528361010083015283610120830152806101408301528361016083015283610180830152836101a0830152836101c0830152806101e08301528061020083015260405190614d4e82614099565b84825280602083015280604083015284818301526080820152610220820152826102408201528261026082015282610280820152826102a08201520152565b15614d9457565b60405162461bcd60e51b815260206004820152601260248201527110d85c88191bd95cc81b9bdd08195e1a5cdd60721b6044820152606490fd5b15614dd557565b60405162461bcd60e51b815260206004820152601460248201527310d85c881a185cc81899595b8819195b195d195960621b6044820152606490fd5b908154614e1d81614160565b92614e2b60405194856140cf565b818452600090815260208082208186015b848410614e4a575050505050565b6001838192614e5885614681565b815201920193019290614e3c565b90604051614e7381614039565b6102c0601782948054845260018060a01b03806001830154166020860152614e9d60028301614681565b6040860152614eae60038301614e11565b6060860152614ebf60048301614681565b6080860152614ed060058301614681565b60a0860152614ee160068301614681565b60c0860152600782015460e086015260088201546101008601526009820154610120860152614f12600a8301614681565b610140860152614f5360ff600b840154614f328282166101608a01614c39565b614f45828260081c166101808a01614c45565b60101c166101a08701614c51565b600c8201546101c0860152614f6a600d8301614681565b6101e0860152614f7c600e8301614e11565b610200860152604051614f8e81614099565b81600f840154168152614fa360108401614681565b6020820152614fb460118401614681565b604082015260128301546060820152614fcf60138401614681565b608082015261022086015260ff6014830154818116151561024088015260081c16151561026086015260158201546102808601526016820154166102a08501520154910152565b60001981146150255760010190565b634e487b7160e01b600052601160045260246000fd5b9061504582614160565b61505260405191826140cf565b8281528092615063601f1991614160565b019060005b82811061507457505050565b60209061507f614cc0565b82828501015201615068565b805182101561509f5760209160051b010190565b634e487b7160e01b600052603260045260246000fd5b805482101561509f5760005260206000209060021b019060009056fea264697066735822122052a6f82a38cbd440641c60f956ebfafe7cd5d3b0f7e3739d734afd988ca63ef864736f6c63430008130033",
  "linkReferences": {},
  "deployedLinkReferences": {}
}