{
  "_format": "hh-sol-artifact-1",
  "contractName": "HemDealerCrossChain",
  "sourceName": "contracts/HemDealerCrossChain.sol",
  "abi": [
    {
      "inputs": [
        {
          "internalType": "address",
          "name": "_hemDealer",
          "type": "address"
        },
        {
          "internalType": "address",
          "name": "_acrossRouter",
          "type": "address"
        }
      ],
      "stateMutability": "nonpayable",
      "type": "constructor"
    },
    {
      "anonymous": false,
      "inputs": [
        {
          "indexed": true,
          "internalType": "uint256",
          "name": "carId",
          "type": "uint256"
        },
        {
          "indexed": false,
          "internalType": "uint256",
          "name": "destinationChainId",
          "type": "uint256"
        },
        {
          "indexed": true,
          "internalType": "address",
          "name": "newOwner",
          "type": "address"
        }
      ],
      "name": "CrossChainTransferCompleted",
      "type": "event"
    },
    {
      "anonymous": false,
      "inputs": [
        {
          "indexed": true,
          "internalType": "uint256",
          "name": "carId",
          "type": "uint256"
        },
        {
          "indexed": false,
          "internalType": "uint256",
          "name": "sourceChainId",
          "type": "uint256"
        },
        {
          "indexed": false,
          "internalType": "uint256",
          "name": "destinationChainId",
          "type": "uint256"
        },
        {
          "indexed": true,
          "internalType": "address",
          "name": "seller",
          "type": "address"
        },
        {
          "indexed": true,
          "internalType": "address",
          "name": "buyer",
          "type": "address"
        }
      ],
      "name": "CrossChainTransferInitiated",
      "type": "event"
    },
    {
      "anonymous": false,
      "inputs": [
        {
          "indexed": true,
          "internalType": "address",
          "name": "previousOwner",
          "type": "address"
        },
        {
          "indexed": true,
          "internalType": "address",
          "name": "newOwner",
          "type": "address"
        }
      ],
      "name": "OwnershipTransferred",
      "type": "event"
    },
    {
      "anonymous": false,
      "inputs": [
        {
          "indexed": true,
          "internalType": "uint256",
          "name": "carId",
          "type": "uint256"
        },
        {
          "indexed": true,
          "internalType": "address",
          "name": "owner",
          "type": "address"
        }
      ],
      "name": "TransferCancelled",
      "type": "event"
    },
    {
      "inputs": [],
      "name": "MAX_SLIPPAGE",
      "outputs": [
        {
          "internalType": "uint256",
          "name": "",
          "type": "uint256"
        }
      ],
      "stateMutability": "view",
      "type": "function"
    },
    {
      "inputs": [],
      "name": "TRANSFER_TIMEOUT",
      "outputs": [
        {
          "internalType": "uint256",
          "name": "",
          "type": "uint256"
        }
      ],
      "stateMutability": "view",
      "type": "function"
    },
    {
      "inputs": [],
      "name": "acrossRouter",
      "outputs": [
        {
          "internalType": "address",
          "name": "",
          "type": "address"
        }
      ],
      "stateMutability": "view",
      "type": "function"
    },
    {
      "inputs": [
        {
          "internalType": "address",
          "name": "token",
          "type": "address"
        }
      ],
      "name": "addSupportedToken",
      "outputs": [],
      "stateMutability": "nonpayable",
      "type": "function"
    },
    {
      "inputs": [
        {
          "internalType": "address",
          "name": "token",
          "type": "address"
        },
        {
          "internalType": "uint256",
          "name": "amount",
          "type": "uint256"
        },
        {
          "internalType": "address",
          "name": "recipient",
          "type": "address"
        },
        {
          "internalType": "uint256",
          "name": "destinationChainId",
          "type": "uint256"
        }
      ],
      "name": "bridgePayment",
      "outputs": [],
      "stateMutability": "payable",
      "type": "function"
    },
    {
      "inputs": [
        {
          "internalType": "uint256",
          "name": "carId",
          "type": "uint256"
        }
      ],
      "name": "cancelTimedOutTransfer",
      "outputs": [],
      "stateMutability": "nonpayable",
      "type": "function"
    },
    {
      "inputs": [
        {
          "internalType": "uint256",
          "name": "",
          "type": "uint256"
        }
      ],
      "name": "crossChainTransferPending",
      "outputs": [
        {
          "internalType": "bool",
          "name": "",
          "type": "bool"
        }
      ],
      "stateMutability": "view",
      "type": "function"
    },
    {
      "inputs": [],
      "name": "hemDealer",
      "outputs": [
        {
          "internalType": "contract HemDealer",
          "name": "",
          "type": "address"
        }
      ],
      "stateMutability": "view",
      "type": "function"
    },
    {
      "inputs": [
        {
          "internalType": "uint256",
          "name": "carId",
          "type": "uint256"
        },
        {
          "internalType": "uint256",
          "name": "targetChainId",
          "type": "uint256"
        }
      ],
      "name": "initiateCrossChainTransfer",
      "outputs": [],
      "stateMutability": "nonpayable",
      "type": "function"
    },
    {
      "inputs": [
        {
          "internalType": "address",
          "name": "token",
          "type": "address"
        }
      ],
      "name": "isSupportedToken",
      "outputs": [
        {
          "internalType": "bool",
          "name": "",
          "type": "bool"
        }
      ],
      "stateMutability": "view",
      "type": "function"
    },
    {
      "inputs": [],
      "name": "owner",
      "outputs": [
        {
          "internalType": "address",
          "name": "",
          "type": "address"
        }
      ],
      "stateMutability": "view",
      "type": "function"
    },
    {
      "inputs": [
        {
          "internalType": "bytes32",
          "name": "",
          "type": "bytes32"
        }
      ],
      "name": "processedMessages",
      "outputs": [
        {
          "internalType": "bool",
          "name": "",
          "type": "bool"
        }
      ],
      "stateMutability": "view",
      "type": "function"
    },
    {
      "inputs": [
        {
          "internalType": "bytes",
          "name": "message",
          "type": "bytes"
        },
        {
          "internalType": "uint256",
          "name": "sourceChainId",
          "type": "uint256"
        }
      ],
      "name": "receiveCrossChainTransfer",
      "outputs": [],
      "stateMutability": "nonpayable",
      "type": "function"
    },
    {
      "inputs": [
        {
          "internalType": "address",
          "name": "token",
          "type": "address"
        }
      ],
      "name": "removeSupportedToken",
      "outputs": [],
      "stateMutability": "nonpayable",
      "type": "function"
    },
    {
      "inputs": [],
      "name": "renounceOwnership",
      "outputs": [],
      "stateMutability": "nonpayable",
      "type": "function"
    },
    {
      "inputs": [
        {
          "internalType": "uint256",
          "name": "",
          "type": "uint256"
        }
      ],
      "name": "sourceChainIds",
      "outputs": [
        {
          "internalType": "uint256",
          "name": "",
          "type": "uint256"
        }
      ],
      "stateMutability": "view",
      "type": "function"
    },
    {
      "inputs": [
        {
          "internalType": "address",
          "name": "",
          "type": "address"
        }
      ],
      "name": "supportedTokens",
      "outputs": [
        {
          "internalType": "bool",
          "name": "",
          "type": "bool"
        }
      ],
      "stateMutability": "view",
      "type": "function"
    },
    {
      "inputs": [
        {
          "internalType": "bytes32",
          "name": "",
          "type": "bytes32"
        }
      ],
      "name": "transferHashes",
      "outputs": [
        {
          "internalType": "uint256",
          "name": "",
          "type": "uint256"
        }
      ],
      "stateMutability": "view",
      "type": "function"
    },
    {
      "inputs": [
        {
          "internalType": "uint256",
          "name": "",
          "type": "uint256"
        }
      ],
      "name": "transferInitiatedAt",
      "outputs": [
        {
          "internalType": "uint256",
          "name": "",
          "type": "uint256"
        }
      ],
      "stateMutability": "view",
      "type": "function"
    },
    {
      "inputs": [
        {
          "internalType": "address",
          "name": "newOwner",
          "type": "address"
        }
      ],
      "name": "transferOwnership",
      "outputs": [],
      "stateMutability": "nonpayable",
      "type": "function"
    },
    {
      "stateMutability": "payable",
      "type": "receive"
    }
  ],
  "bytecode": "0x6080346200016a57601f62001d6d38819003918201601f19168301916001600160401b038311848410176200016f5780849260409485528339810103126200016a576200005a6020620000528362000185565b920162000185565b60008054336001600160a01b0319808316821784556040519590946001600160a01b03949093859391908416907f8be0079c531659141344cd1fd0a4f28419497f9722a3daafe3b4186f6b6457e09080a3600180551693841562000128575016918215620000e3578160025416176002556003541617600355604051611bd290816200019b8239f35b60405162461bcd60e51b815260206004820152601660248201527f496e76616c696420726f757465722061646472657373000000000000000000006044820152606490fd5b62461bcd60e51b815260206004820152601960248201527f496e76616c69642048656d4465616c65722061646472657373000000000000006044820152606490fd5b600080fd5b634e487b7160e01b600052604160045260246000fd5b51906001600160a01b03821682036200016a5756fe6080604052600436101561001b575b361561001957600080fd5b005b6000803560e01c80632351d10f14610df2578063240028e8146109bc578063402ebd7d14610a245780634f8359f1146109fb57806368c4ac26146109bc5780636d69fcaf1461093d578063715018a6146108e357806376319190146108a257806378df8f7d1461087957806384dfc55d1461084a57806387065deb1461082c57806388ba16ab146107fd5780638da5cb5b146107d65780639efeff1c146107ac5780639f725a1d146105c1578063ceb6c12f14610597578063e2d995ae14610216578063ef821fe8146101ec578063f2fde38b146101215763f975951814610103575061000e565b3461011e578060031936011261011e57602060405160328152f35b80fd5b503461011e57602036600319011261011e5761013b61145a565b610143611470565b6001600160a01b0390811690811561019857600054826bffffffffffffffffffffffff60a01b821617600055167f8be0079c531659141344cd1fd0a4f28419497f9722a3daafe3b4186f6b6457e0600080a380f35b60405162461bcd60e51b815260206004820152602660248201527f4f776e61626c653a206e6577206f776e657220697320746865207a65726f206160448201526564647265737360d01b6064820152608490fd5b503461011e57602036600319011261011e5760406020916004358152600983522054604051908152f35b50608036600319011261011e5761022b61145a565b6044906001600160a01b0382358181169290839003610592578116908185526020916004835260ff604087205416801561058a575b15610552578061031057506024358034036102d857928593926102d5959261271061028b879661198f565b0490600354169360405192830193630efe6a8b60e01b85526024840152606435908301526064820152606481526102c1816113d2565b519134905af16102cf611903565b506119bc565b80f35b60405162461bcd60e51b8152600481018490526011602482015270125b98dbdc9c9958dd081c185e5b595b9d607a1b81870152606490fd5b91929493903461051b57602480359161271061032b8461198f565b04976103626040516323b872dd60e01b89820152338582015230878201528560648201526064815261035c816113d2565b87611a01565b816003541693801580156104ab575b15610449576103a560405163095ea7b360e01b96878b83015286820152828882015287815261039f81611403565b88611a01565b826003541699604051918983019363201bd06f60e11b85528987850152888401526064830152606435608483015260a482015260a4815260e081018181106001600160401b038211176104345798809a61040f938280946102d59d60405251925af16102cf611903565b600354169160405195860152840152600081840152825261042f82611403565b611a01565b84634e487b7160e01b60005260416004526000fd5b60405162461bcd60e51b8152600481018990526036818601527f5361666545524332303a20617070726f76652066726f6d206e6f6e2d7a65726f818801527520746f206e6f6e2d7a65726f20616c6c6f77616e636560501b6064820152608490fd5b50604051636eb1769f60e11b8152306004820152848101869052888188818b5afa90811561050f576000916104e2575b5015610371565b908982813d8311610508575b6104f8818361141e565b8101031261011e575051386104db565b503d6104ee565b6040513d6000823e3d90fd5b60405162461bcd60e51b815260048101859052601060248201526f115512081b9bdd081858d8d95c1d195960821b81840152606490fd5b60405162461bcd60e51b81526004810184905260116024820152702ab739bab83837b93a32b2103a37b5b2b760791b81870152606490fd5b508015610260565b600080fd5b503461011e57602036600319011261011e5760406020916004358152600783522054604051908152f35b503461011e576020806003193601126107a857600435908183526005815260ff6040842054161561076e5781835260098152604083205462015180810180911161075a5742111561071d576002546040516305e8be1960e41b8152600481018490526001600160a01b03929185908290602490829087165afa801561071257829186916106f0575b50019082825116331480156106e4575b156106af57600690848652600581526040862060ff19815416905560098152856040812055528360408120555116907fad5d1da63a71147a146daa2d4c6cdc9ab57b00bd41306f855d0afe41c5ed28408380a380f35b6064906040519062461bcd60e51b82526004820152600e60248201526d139bdd08185d5d1a1bdc9a5e995960921b6044820152fd5b50828554163314610659565b61070c91503d8088833e610704818361141e565b81019061166f565b38610649565b6040513d87823e3d90fd5b6064906040519062461bcd60e51b825260048201526016602482015275151c985b9cd9995c881b9bdd081d1a5b5959081bdd5d60521b6044820152fd5b634e487b7160e01b84526011600452602484fd5b6064906040519062461bcd60e51b8252600482015260136024820152722737903832b73234b733903a3930b739b332b960691b6044820152fd5b5080fd5b503461011e57602036600319011261011e5760406020916004358152600683522054604051908152f35b503461011e578060031936011261011e57546040516001600160a01b039091168152602090f35b503461011e57602036600319011261011e5760ff60406020926004358152600884522054166040519015158152f35b503461011e578060031936011261011e576020604051620151808152f35b503461011e57602036600319011261011e5760ff60406020926004358152600584522054166040519015158152f35b503461011e578060031936011261011e576002546040516001600160a01b039091168152602090f35b503461011e57602036600319011261011e576108bc61145a565b6108c4611470565b6001600160a01b03168152600460205260408120805460ff1916905580f35b503461011e578060031936011261011e576108fc611470565b600080546001600160a01b0319811682556001600160a01b03167f8be0079c531659141344cd1fd0a4f28419497f9722a3daafe3b4186f6b6457e08280a380f35b503461011e57602036600319011261011e5761095761145a565b61095f611470565b6001600160a01b03168015610987578152600460205260408120805460ff1916600117905580f35b60405162461bcd60e51b815260206004820152600d60248201526c24b73b30b634b2103a37b5b2b760991b6044820152606490fd5b503461011e57602036600319011261011e5760209060ff906040906001600160a01b036109e761145a565b168152600484522054166040519015158152f35b503461011e578060031936011261011e576003546040516001600160a01b039091168152602090f35b503461011e57604036600319011261011e576004358152600560205260ff604082205416610dad574660243514610d68576002546040516305e8be1960e41b81526004803590820152908290829060249082906001600160a01b03165afa908115610d5d578291610d43575b5060208101516001600160a01b03163303610d0e5760208101516101c082015190610b6c60e861022085015180519060208101519060408101516080606083015192015192604051978895602087019a6004358c526bffffffffffffffffffffffff19809360601b166040890152466054890152607488015260601b166094860152610b2681518092602060a8890191016114dc565b8401610b3c82518093602060a8850191016114dc565b019060a8820152610b5782518093602060c8850191016114dc565b014260c88201520360c881018452018261141e565b519020828060018060a01b036020850151166101c085015190610bc26102208701516040519384938860208601526004356040860152606085015246608085015260a084015260c08084015260e08301906118a8565b0390610bd6601f199283810183528261141e565b8260018060a01b036003541692610c226040519182610c16602082019663e289adcd60e01b88526024356024840152604060448401526064830190611883565b0390810183528261141e565b51925af1610c2e611903565b5015610cc9576004358352600560205260408320600160ff198254161790556009602052426040842055600660205246604084205582526007602052600435604083205560018060a01b036020820151169061022060018060a01b0391015151169060405146815260243560208201527f1e5ef349341852f5f199e2bce07397e4d55c83226632236095641c8af9af549f604060043592a480f35b60405162461bcd60e51b815260206004820152601b60248201527f4661696c656420746f20696e697469617465207472616e7366657200000000006044820152606490fd5b60405162461bcd60e51b815260206004820152600d60248201526c2737ba1031b0b91037bbb732b960991b6044820152606490fd5b610d5791503d8084833e610704818361141e565b38610a90565b6040513d84823e3d90fd5b60405162461bcd60e51b815260206004820152601f60248201527f53616d6520636861696e207472616e73666572206e6f7420616c6c6f776564006044820152606490fd5b60405162461bcd60e51b815260206004820152601860248201527f5472616e7366657220616c72656164792070656e64696e6700000000000000006044820152606490fd5b503461011e57604036600319011261011e576004356001600160401b0381116107a857366023820112156107a85780600401359082610e308361143f565b91610e3e604051938461141e565b838352602083019336602482840101116113ce57806024602093018637830101526003546001600160a01b0316330361139257805181019160c08284031261138e575160408201516060830151939092906001600160a01b038516850361138a5760a08201519160c0810151916001600160401b03831161138657610eca9260208092019201016115c7565b91808652600860205260ff60408720541661134157855260086020526040808620805460ff1916600117905560025490516305e8be1960e41b815260048101859052926001600160a01b039190911691908684602481865afa93841561133657879461131a575b506040840151936060810151608082015160a083015160c08401519060e085015192610100860151946040519a8b6001600160401b0360e08281810110920111176113065760e08c016040528b5260208b015260408a01526060890152608088015260a087015260c08601526101208101519261014082015161016083015160038110156112f25761018084015190600282101561129e576101a08501519260048410156112de57604051978860c08101106001600160401b0360c08b0111176112ca5760c089016040528852602088015260408701526060860152608085015260a08401526101e081015190610200810151604051928360608101106001600160401b036060860111176112b6576060840160405283526040518060208101106001600160401b036020830111176112b657602081016040528a8152602084015260408301526102a060018060a01b039101511692843b156112b25760405195636bfa74c360e01b875260c0600488015260c06111218861110b6110f66110e16110c9875160e060c48701526101a4860190611883565b602088015160c3199560e48782850301910152611933565b60408701518d820385016101048f0152611883565b60608601518c820384016101248e0152611883565b906080850151908b8303016101448c0152611883565b9160a08101516101648a015201516101848801526003198782030160248801528151815261115e602083015160c0602084015260c0830190611883565b916040810151600381101561129e5760408301526060810151600281101561129e5760608301526080810151600481101561129e578b97956111fb8a9893968a968660a0808d9b61120d9860808e9c0152015191015260031987820301604488015260406111ea6111d88451606085526060850190611883565b60208501518482036020860152611883565b920151906040818403910152611933565b848103600319016064860152906118a8565b9046608484015260a483015203925af1801561129357611264575b506040514681526001600160a01b03909216917f17a35fad4f245f65a33dfc21a8118014a34e233321c287ab88ff612f9e1147f890602090a380f35b6001600160401b03819492941161127f576040529138611228565b634e487b7160e01b82526041600452602482fd5b6040513d86823e3d90fd5b634e487b7160e01b8c52602160045260248cfd5b8880fd5b634e487b7160e01b8b52604160045260248bfd5b634e487b7160e01b8e52604160045260248efd5b634e487b7160e01b8d52602160045260248dfd5b634e487b7160e01b8b52602160045260248bfd5b634e487b7160e01b8f52604160045260248ffd5b61132f9194503d8089833e610704818361141e565b9238610f31565b6040513d89823e3d90fd5b60405162461bcd60e51b815260206004820152601960248201527f4d65737361676520616c72656164792070726f636573736564000000000000006044820152606490fd5b8780fd5b8580fd5b8380fd5b60405162461bcd60e51b815260206004820152601460248201527313db9b1e481c9bdd5d195c8818d85b8818d85b1b60621b6044820152606490fd5b8280fd5b60a081019081106001600160401b038211176113ed57604052565b634e487b7160e01b600052604160045260246000fd5b608081019081106001600160401b038211176113ed57604052565b90601f801991011681019081106001600160401b038211176113ed57604052565b6001600160401b0381116113ed57601f01601f191660200190565b600435906001600160a01b038216820361059257565b6000546001600160a01b0316330361148457565b606460405162461bcd60e51b815260206004820152602060248201527f4f776e61626c653a2063616c6c6572206973206e6f7420746865206f776e65726044820152fd5b51906001600160a01b038216820361059257565b60005b8381106114ef5750506000910152565b81810151838201526020016114df565b81601f820112156105925780516115158161143f565b92611523604051948561141e565b818452602082840101116105925761154191602080850191016114dc565b90565b9080601f83011215610592578151906001600160401b03928383116113ed578260051b6040519460209461157a8684018861141e565b865284808701928401019380851161059257858401925b8584106115a2575050505050505090565b83518381116105925787916115bc848480948a01016114ff565b815201930192611591565b91909160a08184031261059257604051906001600160401b039060a08301828111848210176113ed5760405282946115fe826114c8565b8452602082015183811161059257816116189184016114ff565b6020850152604082015183811161059257816116359184016114ff565b60408501526060820151606085015260808201519283116105925760809261165d92016114ff565b910152565b5190811515820361059257565b906020828203126105925781516001600160401b03928382116105925701906102e092838383031261059257604051938401848110828211176113ed57604052825184526116bf602084016114c8565b6020850152604083015181811161059257826116dc9185016114ff565b6040850152606083015181811161059257826116f9918501611544565b6060850152608083015181811161059257826117169185016114ff565b608085015260a083015181811161059257826117339185016114ff565b60a085015260c083015181811161059257826117509185016114ff565b60c085015260e083015160e08501526101008084015190850152610120808401519085015261014080840151828111610592578361178f9186016114ff565b90850152610160808401519060038210156105925785015261018080840151906002821015610592578501526101a080840151906004821015610592578501526101c080840151908501526101e08084015182811161059257836117f49186016114ff565b90850152610200808401518281116105925783611812918601611544565b908501526102209182840151918211610592576118309184016115c7565b90830152610240611842818301611662565b90830152610260611854818301611662565b9083015261028080820151908301526102a06118718183016114c8565b908301526102c0809101519082015290565b9060209161189c815180928185528580860191016114dc565b601f01601f1916010190565b6115419160018060a01b03825116815260806118e86118d6602085015160a0602086015260a0850190611883565b60408501518482036040860152611883565b92606081015160608401520151906080818403910152611883565b3d1561192e573d906119148261143f565b91611922604051938461141e565b82523d6000602084013e565b606090565b908082519081815260208091019281808460051b8301019501936000915b8483106119615750505050505090565b909192939495848061197f600193601f198682030187528a51611883565b9801930193019194939290611951565b906126de918281029281840414901517156119a657565b634e487b7160e01b600052601160045260246000fd5b156119c357565b60405162461bcd60e51b8152602060048201526016602482015275109c9a5919d9481d1c985b9cd9995c8819985a5b195960521b6044820152606490fd5b60408051908101916001600160a01b03166001600160401b038311828410176113ed57611a70926040526000806020958685527f5361666545524332303a206c6f772d6c6576656c2063616c6c206661696c656487860152868151910182855af1611a6a611903565b91611aff565b8051828115918215611ae0575b5050905015611a895750565b6084906040519062461bcd60e51b82526004820152602a60248201527f5361666545524332303a204552433230206f7065726174696f6e20646964206e6044820152691bdd081cdd58d8d9595960b21b6064820152fd5b83809293500103126105925781611af79101611662565b808238611a7d565b91929015611b615750815115611b13575090565b3b15611b1c5790565b60405162461bcd60e51b815260206004820152601d60248201527f416464726573733a2063616c6c20746f206e6f6e2d636f6e74726163740000006044820152606490fd5b825190915015611b745750805190602001fd5b60405162461bcd60e51b815260206004820152908190611b98906024830190611883565b0390fdfea2646970667358221220055b1a26e59e9f6866db998282703e121b168f7d275659d07fc296e290bca64e64736f6c63430008130033",
  "linkReferences": {},
  "deployedLinkReferences": {}
}