{
  "_format": "hh-sol-artifact-1",
  "contractName": "HemDealerCrossChain",
  "sourceName": "contracts/HemDealerCrossChain.sol",
  "abi": [
    {
      "inputs": [
        {
          "internalType": "address",
          "name": "_hemDealer",
          "type": "address"
        },
        {
          "internalType": "address",
          "name": "_acrossRouter",
          "type": "address"
        }
      ],
      "stateMutability": "nonpayable",
      "type": "constructor"
    },
    {
      "anonymous": false,
      "inputs": [
        {
          "indexed": true,
          "internalType": "uint256",
          "name": "carId",
          "type": "uint256"
        },
        {
          "indexed": false,
          "internalType": "uint256",
          "name": "destinationChainId",
          "type": "uint256"
        },
        {
          "indexed": true,
          "internalType": "address",
          "name": "newOwner",
          "type": "address"
        }
      ],
      "name": "CrossChainTransferCompleted",
      "type": "event"
    },
    {
      "anonymous": false,
      "inputs": [
        {
          "indexed": true,
          "internalType": "uint256",
          "name": "carId",
          "type": "uint256"
        },
        {
          "indexed": false,
          "internalType": "uint256",
          "name": "sourceChainId",
          "type": "uint256"
        },
        {
          "indexed": false,
          "internalType": "uint256",
          "name": "destinationChainId",
          "type": "uint256"
        },
        {
          "indexed": true,
          "internalType": "address",
          "name": "seller",
          "type": "address"
        },
        {
          "indexed": true,
          "internalType": "address",
          "name": "buyer",
          "type": "address"
        }
      ],
      "name": "CrossChainTransferInitiated",
      "type": "event"
    },
    {
      "anonymous": false,
      "inputs": [
        {
          "indexed": true,
          "internalType": "address",
          "name": "previousOwner",
          "type": "address"
        },
        {
          "indexed": true,
          "internalType": "address",
          "name": "newOwner",
          "type": "address"
        }
      ],
      "name": "OwnershipTransferred",
      "type": "event"
    },
    {
      "anonymous": false,
      "inputs": [
        {
          "indexed": true,
          "internalType": "uint256",
          "name": "carId",
          "type": "uint256"
        },
        {
          "indexed": true,
          "internalType": "address",
          "name": "owner",
          "type": "address"
        }
      ],
      "name": "TransferCancelled",
      "type": "event"
    },
    {
      "inputs": [],
      "name": "MAX_SLIPPAGE",
      "outputs": [
        {
          "internalType": "uint256",
          "name": "",
          "type": "uint256"
        }
      ],
      "stateMutability": "view",
      "type": "function"
    },
    {
      "inputs": [],
      "name": "TRANSFER_TIMEOUT",
      "outputs": [
        {
          "internalType": "uint256",
          "name": "",
          "type": "uint256"
        }
      ],
      "stateMutability": "view",
      "type": "function"
    },
    {
      "inputs": [],
      "name": "acrossRouter",
      "outputs": [
        {
          "internalType": "address",
          "name": "",
          "type": "address"
        }
      ],
      "stateMutability": "view",
      "type": "function"
    },
    {
      "inputs": [
        {
          "internalType": "address",
          "name": "token",
          "type": "address"
        }
      ],
      "name": "addSupportedToken",
      "outputs": [],
      "stateMutability": "nonpayable",
      "type": "function"
    },
    {
      "inputs": [
        {
          "internalType": "address",
          "name": "token",
          "type": "address"
        },
        {
          "internalType": "uint256",
          "name": "amount",
          "type": "uint256"
        },
        {
          "internalType": "address",
          "name": "recipient",
          "type": "address"
        },
        {
          "internalType": "uint256",
          "name": "destinationChainId",
          "type": "uint256"
        }
      ],
      "name": "bridgePayment",
      "outputs": [],
      "stateMutability": "payable",
      "type": "function"
    },
    {
      "inputs": [
        {
          "internalType": "uint256",
          "name": "carId",
          "type": "uint256"
        }
      ],
      "name": "cancelTimedOutTransfer",
      "outputs": [],
      "stateMutability": "nonpayable",
      "type": "function"
    },
    {
      "inputs": [
        {
          "internalType": "uint256",
          "name": "",
          "type": "uint256"
        }
      ],
      "name": "crossChainTransferPending",
      "outputs": [
        {
          "internalType": "bool",
          "name": "",
          "type": "bool"
        }
      ],
      "stateMutability": "view",
      "type": "function"
    },
    {
      "inputs": [],
      "name": "hemDealer",
      "outputs": [
        {
          "internalType": "contract HemDealer",
          "name": "",
          "type": "address"
        }
      ],
      "stateMutability": "view",
      "type": "function"
    },
    {
      "inputs": [
        {
          "internalType": "uint256",
          "name": "carId",
          "type": "uint256"
        },
        {
          "internalType": "uint256",
          "name": "targetChainId",
          "type": "uint256"
        }
      ],
      "name": "initiateCrossChainTransfer",
      "outputs": [],
      "stateMutability": "nonpayable",
      "type": "function"
    },
    {
      "inputs": [
        {
          "internalType": "address",
          "name": "token",
          "type": "address"
        }
      ],
      "name": "isSupportedToken",
      "outputs": [
        {
          "internalType": "bool",
          "name": "",
          "type": "bool"
        }
      ],
      "stateMutability": "view",
      "type": "function"
    },
    {
      "inputs": [],
      "name": "owner",
      "outputs": [
        {
          "internalType": "address",
          "name": "",
          "type": "address"
        }
      ],
      "stateMutability": "view",
      "type": "function"
    },
    {
      "inputs": [
        {
          "internalType": "bytes32",
          "name": "",
          "type": "bytes32"
        }
      ],
      "name": "processedMessages",
      "outputs": [
        {
          "internalType": "bool",
          "name": "",
          "type": "bool"
        }
      ],
      "stateMutability": "view",
      "type": "function"
    },
    {
      "inputs": [
        {
          "internalType": "bytes",
          "name": "message",
          "type": "bytes"
        },
        {
          "internalType": "uint256",
          "name": "sourceChainId",
          "type": "uint256"
        }
      ],
      "name": "receiveCrossChainTransfer",
      "outputs": [],
      "stateMutability": "nonpayable",
      "type": "function"
    },
    {
      "inputs": [
        {
          "internalType": "address",
          "name": "token",
          "type": "address"
        }
      ],
      "name": "removeSupportedToken",
      "outputs": [],
      "stateMutability": "nonpayable",
      "type": "function"
    },
    {
      "inputs": [],
      "name": "renounceOwnership",
      "outputs": [],
      "stateMutability": "nonpayable",
      "type": "function"
    },
    {
      "inputs": [
        {
          "internalType": "uint256",
          "name": "",
          "type": "uint256"
        }
      ],
      "name": "sourceChainIds",
      "outputs": [
        {
          "internalType": "uint256",
          "name": "",
          "type": "uint256"
        }
      ],
      "stateMutability": "view",
      "type": "function"
    },
    {
      "inputs": [
        {
          "internalType": "address",
          "name": "",
          "type": "address"
        }
      ],
      "name": "supportedTokens",
      "outputs": [
        {
          "internalType": "bool",
          "name": "",
          "type": "bool"
        }
      ],
      "stateMutability": "view",
      "type": "function"
    },
    {
      "inputs": [
        {
          "internalType": "bytes32",
          "name": "",
          "type": "bytes32"
        }
      ],
      "name": "transferHashes",
      "outputs": [
        {
          "internalType": "uint256",
          "name": "",
          "type": "uint256"
        }
      ],
      "stateMutability": "view",
      "type": "function"
    },
    {
      "inputs": [
        {
          "internalType": "uint256",
          "name": "",
          "type": "uint256"
        }
      ],
      "name": "transferInitiatedAt",
      "outputs": [
        {
          "internalType": "uint256",
          "name": "",
          "type": "uint256"
        }
      ],
      "stateMutability": "view",
      "type": "function"
    },
    {
      "inputs": [
        {
          "internalType": "address",
          "name": "newOwner",
          "type": "address"
        }
      ],
      "name": "transferOwnership",
      "outputs": [],
      "stateMutability": "nonpayable",
      "type": "function"
    },
    {
      "stateMutability": "payable",
      "type": "receive"
    }
  ],
  "bytecode": "0x6080346200016a57601f62001dbd38819003918201601f19168301916001600160401b038311848410176200016f5780849260409485528339810103126200016a576200005a6020620000528362000185565b920162000185565b60008054336001600160a01b0319808316821784556040519590946001600160a01b03949093859391908416907f8be0079c531659141344cd1fd0a4f28419497f9722a3daafe3b4186f6b6457e09080a3600180551693841562000128575016918215620000e3578160025416176002556003541617600355604051611c2290816200019b8239f35b60405162461bcd60e51b815260206004820152601660248201527f496e76616c696420726f757465722061646472657373000000000000000000006044820152606490fd5b62461bcd60e51b815260206004820152601960248201527f496e76616c69642048656d4465616c65722061646472657373000000000000006044820152606490fd5b600080fd5b634e487b7160e01b600052604160045260246000fd5b51906001600160a01b03821682036200016a5756fe6080604052600436101561001b575b361561001957600080fd5b005b6000803560e01c80632351d10f14610e20578063240028e814610df2578063402ebd7d14610a245780634f8359f1146109fb57806368c4ac26146109bc5780636d69fcaf1461093d578063715018a6146108e357806376319190146108a257806378df8f7d1461087957806384dfc55d1461084a57806387065deb1461082c57806388ba16ab146107fd5780638da5cb5b146107d65780639efeff1c146107ac5780639f725a1d146105c1578063ceb6c12f14610597578063e2d995ae14610216578063ef821fe8146101ec578063f2fde38b146101215763f975951814610103575061000e565b3461011e578060031936011261011e57602060405160328152f35b80fd5b503461011e57602036600319011261011e5761013b611488565b61014361149e565b6001600160a01b0390811690811561019857600054826bffffffffffffffffffffffff60a01b821617600055167f8be0079c531659141344cd1fd0a4f28419497f9722a3daafe3b4186f6b6457e0600080a380f35b60405162461bcd60e51b815260206004820152602660248201527f4f776e61626c653a206e6577206f776e657220697320746865207a65726f206160448201526564647265737360d01b6064820152608490fd5b503461011e57602036600319011261011e5760406020916004358152600983522054604051908152f35b50608036600319011261011e5761022b611488565b6044906001600160a01b0382358181169290839003610592578116908185526020916004835260ff604087205416801561058a575b15610552578061031057506024358034036102d857928593926102d5959261271061028b87966119df565b0490600354169360405192830193630efe6a8b60e01b85526024840152606435908301526064820152606481526102c181611400565b519134905af16102cf61195a565b50611a0c565b80f35b60405162461bcd60e51b8152600481018490526011602482015270125b98dbdc9c9958dd081c185e5b595b9d607a1b81870152606490fd5b91929493903461051b57602480359161271061032b846119df565b04976103626040516323b872dd60e01b89820152338582015230878201528560648201526064815261035c81611400565b87611a51565b816003541693801580156104ab575b15610449576103a560405163095ea7b360e01b96878b83015286820152828882015287815261039f81611431565b88611a51565b826003541699604051918983019363201bd06f60e11b85528987850152888401526064830152606435608483015260a482015260a4815260e081018181106001600160401b038211176104345798809a61040f938280946102d59d60405251925af16102cf61195a565b600354169160405195860152840152600081840152825261042f82611431565b611a51565b84634e487b7160e01b60005260416004526000fd5b60405162461bcd60e51b8152600481018990526036818601527f5361666545524332303a20617070726f76652066726f6d206e6f6e2d7a65726f818801527520746f206e6f6e2d7a65726f20616c6c6f77616e636560501b6064820152608490fd5b50604051636eb1769f60e11b8152306004820152848101869052888188818b5afa90811561050f576000916104e2575b5015610371565b908982813d8311610508575b6104f8818361144c565b8101031261011e575051386104db565b503d6104ee565b6040513d6000823e3d90fd5b60405162461bcd60e51b815260048101859052601060248201526f115512081b9bdd081858d8d95c1d195960821b81840152606490fd5b60405162461bcd60e51b81526004810184905260116024820152702ab739bab83837b93a32b2103a37b5b2b760791b81870152606490fd5b508015610260565b600080fd5b503461011e57602036600319011261011e5760406020916004358152600783522054604051908152f35b503461011e576020806003193601126107a857600435908183526005815260ff6040842054161561076e5781835260098152604083205462015180810180911161075a5742111561071d576002546040516305e8be1960e41b8152600481018490526001600160a01b03929185908290602490829087165afa801561071257829186916106f0575b50019082825116331480156106e4575b156106af57600690848652600581526040862060ff19815416905560098152856040812055528360408120555116907fad5d1da63a71147a146daa2d4c6cdc9ab57b00bd41306f855d0afe41c5ed28408380a380f35b6064906040519062461bcd60e51b82526004820152600e60248201526d139bdd08185d5d1a1bdc9a5e995960921b6044820152fd5b50828554163314610659565b61070c91503d8088833e610704818361144c565b8101906116c6565b38610649565b6040513d87823e3d90fd5b6064906040519062461bcd60e51b825260048201526016602482015275151c985b9cd9995c881b9bdd081d1a5b5959081bdd5d60521b6044820152fd5b634e487b7160e01b84526011600452602484fd5b6064906040519062461bcd60e51b8252600482015260136024820152722737903832b73234b733903a3930b739b332b960691b6044820152fd5b5080fd5b503461011e57602036600319011261011e5760406020916004358152600683522054604051908152f35b503461011e578060031936011261011e57546040516001600160a01b039091168152602090f35b503461011e57602036600319011261011e5760ff60406020926004358152600884522054166040519015158152f35b503461011e578060031936011261011e576020604051620151808152f35b503461011e57602036600319011261011e5760ff60406020926004358152600584522054166040519015158152f35b503461011e578060031936011261011e576002546040516001600160a01b039091168152602090f35b503461011e57602036600319011261011e576108bc611488565b6108c461149e565b6001600160a01b03168152600460205260408120805460ff1916905580f35b503461011e578060031936011261011e576108fc61149e565b600080546001600160a01b0319811682556001600160a01b03167f8be0079c531659141344cd1fd0a4f28419497f9722a3daafe3b4186f6b6457e08280a380f35b503461011e57602036600319011261011e57610957611488565b61095f61149e565b6001600160a01b03168015610987578152600460205260408120805460ff1916600117905580f35b60405162461bcd60e51b815260206004820152600d60248201526c24b73b30b634b2103a37b5b2b760991b6044820152606490fd5b503461011e57602036600319011261011e5760209060ff906040906001600160a01b036109e7611488565b168152600484522054166040519015158152f35b503461011e578060031936011261011e576003546040516001600160a01b039091168152602090f35b503461011e57604036600319011261011e576004358152600560205260ff604082205416610dad574660243514610d68576002546040516305e8be1960e41b81526004803590820152908290829060249082906001600160a01b03165afa908115610d5d578291610d43575b5060208101516001600160a01b03163303610d0e5760208101516101c082015190610b6c60e861022085015180519060208101519060408101516080606083015192015192604051978895602087019a6004358c526bffffffffffffffffffffffff19809360601b166040890152466054890152607488015260601b166094860152610b2681518092602060a889019101611533565b8401610b3c82518093602060a885019101611533565b019060a8820152610b5782518093602060c885019101611533565b014260c88201520360c881018452018261144c565b519020828060018060a01b036020850151166101c085015190610bc26102208701516040519384938860208601526004356040860152606085015246608085015260a084015260c08084015260e08301906118ff565b0390610bd6601f199283810183528261144c565b8260018060a01b036003541692610c226040519182610c16602082019663e289adcd60e01b885260243560248401526040604484015260648301906118da565b0390810183528261144c565b51925af1610c2e61195a565b5015610cc9576004358352600560205260408320600160ff198254161790556009602052426040842055600660205246604084205582526007602052600435604083205560018060a01b036020820151169061022060018060a01b0391015151169060405146815260243560208201527f1e5ef349341852f5f199e2bce07397e4d55c83226632236095641c8af9af549f604060043592a480f35b60405162461bcd60e51b815260206004820152601b60248201527f4661696c656420746f20696e697469617465207472616e7366657200000000006044820152606490fd5b60405162461bcd60e51b815260206004820152600d60248201526c2737ba1031b0b91037bbb732b960991b6044820152606490fd5b610d5791503d8084833e610704818361144c565b38610a90565b6040513d84823e3d90fd5b60405162461bcd60e51b815260206004820152601f60248201527f53616d6520636861696e207472616e73666572206e6f7420616c6c6f776564006044820152606490fd5b60405162461bcd60e51b815260206004820152601860248201527f5472616e7366657220616c72656164792070656e64696e6700000000000000006044820152606490fd5b503461011e57602036600319011261011e576020610e16610e11611488565b6114f6565b6040519015158152f35b503461011e57604036600319011261011e576004356001600160401b0381116107a857366023820112156107a85780600401359082610e5e8361146d565b91610e6c604051938461144c565b838352602083019336602482840101116113fc57806024602093018637830101526003546001600160a01b031633036113c057805181019160c0828403126113bc575160408201516060830151939092906001600160a01b03851685036113b85760a08201519160c0810151916001600160401b0383116113b457610ef892602080920192010161161e565b91808652600860205260ff60408720541661136f57855260086020526040808620805460ff1916600117905560025490516305e8be1960e41b815260048101859052926001600160a01b039190911691908684602481865afa938415611364578794611348575b506040840151936060810151608082015160a083015160c08401519060e085015192610100860151946040519a8b6001600160401b0360e08281810110920111176113345760e08c016040528b5260208b015260408a01526060890152608088015260a087015260c0860152610120810151926101408201516101608301516003811015611320576101808401519060028210156112cc576101a085015192600484101561130c57604051978860c08101106001600160401b0360c08b0111176112f85760c089016040528852602088015260408701526060860152608085015260a08401526101e081015190610200810151604051928360608101106001600160401b036060860111176112e4576060840160405283526040518060208101106001600160401b036020830111176112e457602081016040528a8152602084015260408301526102a060018060a01b039101511692843b156112e05760405195636bfa74c360e01b875260c0600488015260c061114f8861113961112461110f6110f7875160e060c48701526101a48601906118da565b602088015160c3199560e4878285030191015261198a565b60408701518d820385016101048f01526118da565b60608601518c820384016101248e01526118da565b906080850151908b8303016101448c01526118da565b9160a08101516101648a015201516101848801526003198782030160248801528151815261118c602083015160c0602084015260c08301906118da565b91604081015160038110156112cc576040830152606081015160028110156112cc576060830152608081015160048110156112cc578b97956112298a9893968a968660a0808d9b61123b9860808e9c01520151910152600319878203016044880152604061121861120684516060855260608501906118da565b602085015184820360208601526118da565b92015190604081840391015261198a565b848103600319016064860152906118ff565b9046608484015260a483015203925af180156112c157611292575b506040514681526001600160a01b03909216917f17a35fad4f245f65a33dfc21a8118014a34e233321c287ab88ff612f9e1147f890602090a380f35b6001600160401b0381949294116112ad576040529138611256565b634e487b7160e01b82526041600452602482fd5b6040513d86823e3d90fd5b634e487b7160e01b8c52602160045260248cfd5b8880fd5b634e487b7160e01b8b52604160045260248bfd5b634e487b7160e01b8e52604160045260248efd5b634e487b7160e01b8d52602160045260248dfd5b634e487b7160e01b8b52602160045260248bfd5b634e487b7160e01b8f52604160045260248ffd5b61135d9194503d8089833e610704818361144c565b9238610f5f565b6040513d89823e3d90fd5b60405162461bcd60e51b815260206004820152601960248201527f4d65737361676520616c72656164792070726f636573736564000000000000006044820152606490fd5b8780fd5b8580fd5b8380fd5b60405162461bcd60e51b815260206004820152601460248201527313db9b1e481c9bdd5d195c8818d85b8818d85b1b60621b6044820152606490fd5b8280fd5b60a081019081106001600160401b0382111761141b57604052565b634e487b7160e01b600052604160045260246000fd5b608081019081106001600160401b0382111761141b57604052565b90601f801991011681019081106001600160401b0382111761141b57604052565b6001600160401b03811161141b57601f01601f191660200190565b600435906001600160a01b038216820361059257565b6000546001600160a01b031633036114b257565b606460405162461bcd60e51b815260206004820152602060248201527f4f776e61626c653a2063616c6c6572206973206e6f7420746865206f776e65726044820152fd5b6001600160a01b0316801561151957600052600460205260ff6040600020541690565b50600190565b51906001600160a01b038216820361059257565b60005b8381106115465750506000910152565b8181015183820152602001611536565b81601f8201121561059257805161156c8161146d565b9261157a604051948561144c565b81845260208284010111610592576115989160208085019101611533565b90565b9080601f83011215610592578151906001600160401b039283831161141b578260051b604051946020946115d18684018861144c565b865284808701928401019380851161059257858401925b8584106115f9575050505050505090565b8351838111610592578791611613848480948a0101611556565b8152019301926115e8565b91909160a08184031261059257604051906001600160401b039060a083018281118482101761141b5760405282946116558261151f565b84526020820151838111610592578161166f918401611556565b60208501526040820151838111610592578161168c918401611556565b6040850152606082015160608501526080820151928311610592576080926116b49201611556565b910152565b5190811515820361059257565b906020828203126105925781516001600160401b03928382116105925701906102e0928383830312610592576040519384018481108282111761141b57604052825184526117166020840161151f565b602085015260408301518181116105925782611733918501611556565b60408501526060830151818111610592578261175091850161159b565b60608501526080830151818111610592578261176d918501611556565b608085015260a0830151818111610592578261178a918501611556565b60a085015260c083015181811161059257826117a7918501611556565b60c085015260e083015160e0850152610100808401519085015261012080840151908501526101408084015182811161059257836117e6918601611556565b90850152610160808401519060038210156105925785015261018080840151906002821015610592578501526101a080840151906004821015610592578501526101c080840151908501526101e080840151828111610592578361184b918601611556565b9085015261020080840151828111610592578361186991860161159b565b9085015261022091828401519182116105925761188791840161161e565b908301526102406118998183016116b9565b908301526102606118ab8183016116b9565b9083015261028080820151908301526102a06118c881830161151f565b908301526102c0809101519082015290565b906020916118f381518092818552858086019101611533565b601f01601f1916010190565b6115989160018060a01b038251168152608061193f61192d602085015160a0602086015260a08501906118da565b604085015184820360408601526118da565b926060810151606084015201519060808184039101526118da565b3d15611985573d9061196b8261146d565b91611979604051938461144c565b82523d6000602084013e565b606090565b90815180825260208092019182818360051b85019501936000915b8483106119b55750505050505090565b90919293949584806119cf83856001950387528a516118da565b98019301930191949392906119a5565b906126de918281029281840414901517156119f657565b634e487b7160e01b600052601160045260246000fd5b15611a1357565b60405162461bcd60e51b8152602060048201526016602482015275109c9a5919d9481d1c985b9cd9995c8819985a5b195960521b6044820152606490fd5b60408051908101916001600160a01b03166001600160401b0383118284101761141b57611ac0926040526000806020958685527f5361666545524332303a206c6f772d6c6576656c2063616c6c206661696c656487860152868151910182855af1611aba61195a565b91611b4f565b8051828115918215611b30575b5050905015611ad95750565b6084906040519062461bcd60e51b82526004820152602a60248201527f5361666545524332303a204552433230206f7065726174696f6e20646964206e6044820152691bdd081cdd58d8d9595960b21b6064820152fd5b83809293500103126105925781611b4791016116b9565b808238611acd565b91929015611bb15750815115611b63575090565b3b15611b6c5790565b60405162461bcd60e51b815260206004820152601d60248201527f416464726573733a2063616c6c20746f206e6f6e2d636f6e74726163740000006044820152606490fd5b825190915015611bc45750805190602001fd5b60405162461bcd60e51b815260206004820152908190611be89060248301906118da565b0390fdfea2646970667358221220f3e835e3077c48b4e3507250fef82188bcfd2bd5ea62711b88a084b288753b1f64736f6c63430008130033",
  "linkReferences": {},
  "deployedLinkReferences": {}
}